{
	"data": {
		"bytecode": {
			"linkReferences": {},
			"object": "608060405234801561000f575f80fd5b50610d128061001d5f395ff3fe608060405234801561000f575f80fd5b5060043610610091575f3560e01c80637faec262116100645780637faec26214610133578063ae53a4a514610151578063bd14598f1461016d578063c1ed13ef1461018b578063cf57b6eb146101a957610091565b8063065fdac21461009557806337ac0c7d146100c757806344d1587c146100f7578063733e2f0614610115575b5f80fd5b6100af60048036038101906100aa9190610423565b6101c7565b6040516100be9392919061054f565b60405180910390f35b6100e160048036038101906100dc9190610694565b6101ed565b6040516100ee9190610789565b60405180910390f35b6100ff610293565b60405161010c9190610789565b60405180910390f35b61011d6102b8565b60405161012a9190610789565b60405180910390f35b61013b6102dd565b6040516101489190610789565b60405180910390f35b61016b60048036038101906101669190610694565b610308565b005b610175610310565b6040516101829190610789565b60405180910390f35b61019361034e565b6040516101a09190610789565b60405180910390f35b6101b1610376565b6040516101be9190610789565b60405180910390f35b60605f8084848101906101da9190610936565b8093508194508295505050509250925092565b606086868686868660405160240161020a96959493929190610a55565b6040516020818303038152906040527fae53a4a5000000000000000000000000000000000000000000000000000000007bffffffffffffffffffffffffffffffffffffffffffffffffffffffff19166020820180517bffffffffffffffffffffffffffffffffffffffffffffffffffffffff838183161783525050505090509695505050505050565b60606040516020016102a490610afe565b604051602081830303815290604052905090565b60606040516020016102c990610b34565b604051602081830303815290604052905090565b6060600160636040516020016102f4929190610c23565b604051602081830303815290604052905090565b505050505050565b60606001732ff1f4e5d08a822743ec6b342c521a0a421456cb60405160200161033a929190610c70565b604051602081830303815290604052905090565b606060016040516020016103629190610caa565b604051602081830303815290604052905090565b6060732ff1f4e5d08a822743ec6b342c521a0a421456cb60405160200161039d9190610cc3565b604051602081830303815290604052905090565b5f604051905090565b5f80fd5b5f80fd5b5f80fd5b5f80fd5b5f80fd5b5f8083601f8401126103e3576103e26103c2565b5b8235905067ffffffffffffffff811115610400576103ff6103c6565b5b60208301915083600182028301111561041c5761041b6103ca565b5b9250929050565b5f8060208385031215610439576104386103ba565b5b5f83013567ffffffffffffffff811115610456576104556103be565b5b610462858286016103ce565b92509250509250929050565b5f81519050919050565b5f82825260208201905092915050565b5f5b838110156104a557808201518184015260208101905061048a565b5f8484015250505050565b5f601f19601f8301169050919050565b5f6104ca8261046e565b6104d48185610478565b93506104e4818560208601610488565b6104ed816104b0565b840191505092915050565b5f819050919050565b61050a816104f8565b82525050565b5f73ffffffffffffffffffffffffffffffffffffffff82169050919050565b5f61053982610510565b9050919050565b6105498161052f565b82525050565b5f6060820190508181035f83015261056781866104c0565b90506105766020830185610501565b6105836040830184610540565b949350505050565b5f8115159050919050565b61059f8161058b565b81146105a9575f80fd5b50565b5f813590506105ba81610596565b92915050565b5f8083601f8401126105d5576105d46103c2565b5b8235905067ffffffffffffffff8111156105f2576105f16103c6565b5b60208301915083602082028301111561060e5761060d6103ca565b5b9250929050565b61061e8161052f565b8114610628575f80fd5b50565b5f8135905061063981610615565b92915050565b5f8083601f840112610654576106536103c2565b5b8235905067ffffffffffffffff811115610671576106706103c6565b5b60208301915083600182028301111561068d5761068c6103ca565b5b9250929050565b5f805f805f80608087890312156106ae576106ad6103ba565b5b5f6106bb89828a016105ac565b965050602087013567ffffffffffffffff8111156106dc576106db6103be565b5b6106e889828a016105c0565b955095505060406106fb89828a0161062b565b935050606087013567ffffffffffffffff81111561071c5761071b6103be565b5b61072889828a0161063f565b92509250509295509295509295565b5f81519050919050565b5f82825260208201905092915050565b5f61075b82610737565b6107658185610741565b9350610775818560208601610488565b61077e816104b0565b840191505092915050565b5f6020820190508181035f8301526107a18184610751565b905092915050565b5f80fd5b7f4e487b71000000000000000000000000000000000000000000000000000000005f52604160045260245ffd5b6107e3826104b0565b810181811067ffffffffffffffff82111715610802576108016107ad565b5b80604052505050565b5f6108146103b1565b905061082082826107da565b919050565b5f67ffffffffffffffff82111561083f5761083e6107ad565b5b610848826104b0565b9050602081019050919050565b828183375f83830152505050565b5f61087561087084610825565b61080b565b905082815260208101848484011115610891576108906107a9565b5b61089c848285610855565b509392505050565b5f82601f8301126108b8576108b76103c2565b5b81356108c8848260208601610863565b91505092915050565b6108da816104f8565b81146108e4575f80fd5b50565b5f813590506108f5816108d1565b92915050565b5f61090582610510565b9050919050565b610915816108fb565b811461091f575f80fd5b50565b5f813590506109308161090c565b92915050565b5f805f6060848603121561094d5761094c6103ba565b5b5f84013567ffffffffffffffff81111561096a576109696103be565b5b610976868287016108a4565b9350506020610987868287016108e7565b925050604061099886828701610922565b9150509250925092565b6109ab8161058b565b82525050565b5f82825260208201905092915050565b5f80fd5b82818337505050565b5f6109d983856109b1565b93507f07ffffffffffffffffffffffffffffffffffffffffffffffffffffffffffffff831115610a0c57610a0b6109c1565b5b602083029250610a1d8385846109c5565b82840190509392505050565b5f610a348385610478565b9350610a41838584610855565b610a4a836104b0565b840190509392505050565b5f608082019050610a685f8301896109a2565b8181036020830152610a7b8187896109ce565b9050610a8a6040830186610540565b8181036060830152610a9d818486610a29565b9050979650505050505050565b5f81905092915050565b7f617070776f726b730000000000000000000000000000000000000000000000005f82015250565b5f610ae8600883610aaa565b9150610af382610ab4565b600882019050919050565b5f610b0882610adc565b9150819050919050565b5f610b1e600883610478565b9150610b2982610ab4565b602082019050919050565b5f6020820190508181035f830152610b4b81610b12565b9050919050565b5f819050919050565b5f60ff82169050919050565b5f819050919050565b5f610b8a610b85610b8084610b52565b610b67565b610b5b565b9050919050565b610b9a81610b70565b82525050565b5f819050919050565b5f610bc3610bbe610bb984610ba0565b610b67565b610b5b565b9050919050565b610bd381610ba9565b82525050565b7f6a696d00000000000000000000000000000000000000000000000000000000005f82015250565b5f610c0d600383610478565b9150610c1882610bd9565b602082019050919050565b5f6080820190508181035f830152610c3a81610b12565b9050610c496020830185610b91565b610c566040830184610bca565b8181036060830152610c6781610c01565b90509392505050565b5f6060820190508181035f830152610c8781610b12565b9050610c966020830185610b91565b610ca36040830184610540565b9392505050565b5f602082019050610cbd5f830184610b91565b92915050565b5f602082019050610cd65f830184610540565b9291505056fea26469706673582212200570a70b83fc538a80ca5ce30b07f1c953dfd18a1e87d3c7310c04c10a4f7c8864736f6c63430008150033",
			"opcodes": "PUSH1 0x80 PUSH1 0x40 MSTORE CALLVALUE DUP1 ISZERO PUSH2 0xF JUMPI PUSH0 DUP1 REVERT JUMPDEST POP PUSH2 0xD12 DUP1 PUSH2 0x1D PUSH0 CODECOPY PUSH0 RETURN INVALID PUSH1 0x80 PUSH1 0x40 MSTORE CALLVALUE DUP1 ISZERO PUSH2 0xF JUMPI PUSH0 DUP1 REVERT JUMPDEST POP PUSH1 0x4 CALLDATASIZE LT PUSH2 0x91 JUMPI PUSH0 CALLDATALOAD PUSH1 0xE0 SHR DUP1 PUSH4 0x7FAEC262 GT PUSH2 0x64 JUMPI DUP1 PUSH4 0x7FAEC262 EQ PUSH2 0x133 JUMPI DUP1 PUSH4 0xAE53A4A5 EQ PUSH2 0x151 JUMPI DUP1 PUSH4 0xBD14598F EQ PUSH2 0x16D JUMPI DUP1 PUSH4 0xC1ED13EF EQ PUSH2 0x18B JUMPI DUP1 PUSH4 0xCF57B6EB EQ PUSH2 0x1A9 JUMPI PUSH2 0x91 JUMP JUMPDEST DUP1 PUSH4 0x65FDAC2 EQ PUSH2 0x95 JUMPI DUP1 PUSH4 0x37AC0C7D EQ PUSH2 0xC7 JUMPI DUP1 PUSH4 0x44D1587C EQ PUSH2 0xF7 JUMPI DUP1 PUSH4 0x733E2F06 EQ PUSH2 0x115 JUMPI JUMPDEST PUSH0 DUP1 REVERT JUMPDEST PUSH2 0xAF PUSH1 0x4 DUP1 CALLDATASIZE SUB DUP2 ADD SWAP1 PUSH2 0xAA SWAP2 SWAP1 PUSH2 0x423 JUMP JUMPDEST PUSH2 0x1C7 JUMP JUMPDEST PUSH1 0x40 MLOAD PUSH2 0xBE SWAP4 SWAP3 SWAP2 SWAP1 PUSH2 0x54F JUMP JUMPDEST PUSH1 0x40 MLOAD DUP1 SWAP2 SUB SWAP1 RETURN JUMPDEST PUSH2 0xE1 PUSH1 0x4 DUP1 CALLDATASIZE SUB DUP2 ADD SWAP1 PUSH2 0xDC SWAP2 SWAP1 PUSH2 0x694 JUMP JUMPDEST PUSH2 0x1ED JUMP JUMPDEST PUSH1 0x40 MLOAD PUSH2 0xEE SWAP2 SWAP1 PUSH2 0x789 JUMP JUMPDEST PUSH1 0x40 MLOAD DUP1 SWAP2 SUB SWAP1 RETURN JUMPDEST PUSH2 0xFF PUSH2 0x293 JUMP JUMPDEST PUSH1 0x40 MLOAD PUSH2 0x10C SWAP2 SWAP1 PUSH2 0x789 JUMP JUMPDEST PUSH1 0x40 MLOAD DUP1 SWAP2 SUB SWAP1 RETURN JUMPDEST PUSH2 0x11D PUSH2 0x2B8 JUMP JUMPDEST PUSH1 0x40 MLOAD PUSH2 0x12A SWAP2 SWAP1 PUSH2 0x789 JUMP JUMPDEST PUSH1 0x40 MLOAD DUP1 SWAP2 SUB SWAP1 RETURN JUMPDEST PUSH2 0x13B PUSH2 0x2DD JUMP JUMPDEST PUSH1 0x40 MLOAD PUSH2 0x148 SWAP2 SWAP1 PUSH2 0x789 JUMP JUMPDEST PUSH1 0x40 MLOAD DUP1 SWAP2 SUB SWAP1 RETURN JUMPDEST PUSH2 0x16B PUSH1 0x4 DUP1 CALLDATASIZE SUB DUP2 ADD SWAP1 PUSH2 0x166 SWAP2 SWAP1 PUSH2 0x694 JUMP JUMPDEST PUSH2 0x308 JUMP JUMPDEST STOP JUMPDEST PUSH2 0x175 PUSH2 0x310 JUMP JUMPDEST PUSH1 0x40 MLOAD PUSH2 0x182 SWAP2 SWAP1 PUSH2 0x789 JUMP JUMPDEST PUSH1 0x40 MLOAD DUP1 SWAP2 SUB SWAP1 RETURN JUMPDEST PUSH2 0x193 PUSH2 0x34E JUMP JUMPDEST PUSH1 0x40 MLOAD PUSH2 0x1A0 SWAP2 SWAP1 PUSH2 0x789 JUMP JUMPDEST PUSH1 0x40 MLOAD DUP1 SWAP2 SUB SWAP1 RETURN JUMPDEST PUSH2 0x1B1 PUSH2 0x376 JUMP JUMPDEST PUSH1 0x40 MLOAD PUSH2 0x1BE SWAP2 SWAP1 PUSH2 0x789 JUMP JUMPDEST PUSH1 0x40 MLOAD DUP1 SWAP2 SUB SWAP1 RETURN JUMPDEST PUSH1 0x60 PUSH0 DUP1 DUP5 DUP5 DUP2 ADD SWAP1 PUSH2 0x1DA SWAP2 SWAP1 PUSH2 0x936 JUMP JUMPDEST DUP1 SWAP4 POP DUP2 SWAP5 POP DUP3 SWAP6 POP POP POP POP SWAP3 POP SWAP3 POP SWAP3 JUMP JUMPDEST PUSH1 0x60 DUP7 DUP7 DUP7 DUP7 DUP7 DUP7 PUSH1 0x40 MLOAD PUSH1 0x24 ADD PUSH2 0x20A SWAP7 SWAP6 SWAP5 SWAP4 SWAP3 SWAP2 SWAP1 PUSH2 0xA55 JUMP JUMPDEST PUSH1 0x40 MLOAD PUSH1 0x20 DUP2 DUP4 SUB SUB DUP2 MSTORE SWAP1 PUSH1 0x40 MSTORE PUSH32 0xAE53A4A500000000000000000000000000000000000000000000000000000000 PUSH28 0xFFFFFFFFFFFFFFFFFFFFFFFFFFFFFFFFFFFFFFFFFFFFFFFFFFFFFFFF NOT AND PUSH1 0x20 DUP3 ADD DUP1 MLOAD PUSH28 0xFFFFFFFFFFFFFFFFFFFFFFFFFFFFFFFFFFFFFFFFFFFFFFFFFFFFFFFF DUP4 DUP2 DUP4 AND OR DUP4 MSTORE POP POP POP POP SWAP1 POP SWAP7 SWAP6 POP POP POP POP POP POP JUMP JUMPDEST PUSH1 0x60 PUSH1 0x40 MLOAD PUSH1 0x20 ADD PUSH2 0x2A4 SWAP1 PUSH2 0xAFE JUMP JUMPDEST PUSH1 0x40 MLOAD PUSH1 0x20 DUP2 DUP4 SUB SUB DUP2 MSTORE SWAP1 PUSH1 0x40 MSTORE SWAP1 POP SWAP1 JUMP JUMPDEST PUSH1 0x60 PUSH1 0x40 MLOAD PUSH1 0x20 ADD PUSH2 0x2C9 SWAP1 PUSH2 0xB34 JUMP JUMPDEST PUSH1 0x40 MLOAD PUSH1 0x20 DUP2 DUP4 SUB SUB DUP2 MSTORE SWAP1 PUSH1 0x40 MSTORE SWAP1 POP SWAP1 JUMP JUMPDEST PUSH1 0x60 PUSH1 0x1 PUSH1 0x63 PUSH1 0x40 MLOAD PUSH1 0x20 ADD PUSH2 0x2F4 SWAP3 SWAP2 SWAP1 PUSH2 0xC23 JUMP JUMPDEST PUSH1 0x40 MLOAD PUSH1 0x20 DUP2 DUP4 SUB SUB DUP2 MSTORE SWAP1 PUSH1 0x40 MSTORE SWAP1 POP SWAP1 JUMP JUMPDEST POP POP POP POP POP POP JUMP JUMPDEST PUSH1 0x60 PUSH1 0x1 PUSH20 0x2FF1F4E5D08A822743EC6B342C521A0A421456CB PUSH1 0x40 MLOAD PUSH1 0x20 ADD PUSH2 0x33A SWAP3 SWAP2 SWAP1 PUSH2 0xC70 JUMP JUMPDEST PUSH1 0x40 MLOAD PUSH1 0x20 DUP2 DUP4 SUB SUB DUP2 MSTORE SWAP1 PUSH1 0x40 MSTORE SWAP1 POP SWAP1 JUMP JUMPDEST PUSH1 0x60 PUSH1 0x1 PUSH1 0x40 MLOAD PUSH1 0x20 ADD PUSH2 0x362 SWAP2 SWAP1 PUSH2 0xCAA JUMP JUMPDEST PUSH1 0x40 MLOAD PUSH1 0x20 DUP2 DUP4 SUB SUB DUP2 MSTORE SWAP1 PUSH1 0x40 MSTORE SWAP1 POP SWAP1 JUMP JUMPDEST PUSH1 0x60 PUSH20 0x2FF1F4E5D08A822743EC6B342C521A0A421456CB PUSH1 0x40 MLOAD PUSH1 0x20 ADD PUSH2 0x39D SWAP2 SWAP1 PUSH2 0xCC3 JUMP JUMPDEST PUSH1 0x40 MLOAD PUSH1 0x20 DUP2 DUP4 SUB SUB DUP2 MSTORE SWAP1 PUSH1 0x40 MSTORE SWAP1 POP SWAP1 JUMP JUMPDEST PUSH0 PUSH1 0x40 MLOAD SWAP1 POP SWAP1 JUMP JUMPDEST PUSH0 DUP1 REVERT JUMPDEST PUSH0 DUP1 REVERT JUMPDEST PUSH0 DUP1 REVERT JUMPDEST PUSH0 DUP1 REVERT JUMPDEST PUSH0 DUP1 REVERT JUMPDEST PUSH0 DUP1 DUP4 PUSH1 0x1F DUP5 ADD SLT PUSH2 0x3E3 JUMPI PUSH2 0x3E2 PUSH2 0x3C2 JUMP JUMPDEST JUMPDEST DUP3 CALLDATALOAD SWAP1 POP PUSH8 0xFFFFFFFFFFFFFFFF DUP2 GT ISZERO PUSH2 0x400 JUMPI PUSH2 0x3FF PUSH2 0x3C6 JUMP JUMPDEST JUMPDEST PUSH1 0x20 DUP4 ADD SWAP2 POP DUP4 PUSH1 0x1 DUP3 MUL DUP4 ADD GT ISZERO PUSH2 0x41C JUMPI PUSH2 0x41B PUSH2 0x3CA JUMP JUMPDEST JUMPDEST SWAP3 POP SWAP3 SWAP1 POP JUMP JUMPDEST PUSH0 DUP1 PUSH1 0x20 DUP4 DUP6 SUB SLT ISZERO PUSH2 0x439 JUMPI PUSH2 0x438 PUSH2 0x3BA JUMP JUMPDEST JUMPDEST PUSH0 DUP4 ADD CALLDATALOAD PUSH8 0xFFFFFFFFFFFFFFFF DUP2 GT ISZERO PUSH2 0x456 JUMPI PUSH2 0x455 PUSH2 0x3BE JUMP JUMPDEST JUMPDEST PUSH2 0x462 DUP6 DUP3 DUP7 ADD PUSH2 0x3CE JUMP JUMPDEST SWAP3 POP SWAP3 POP POP SWAP3 POP SWAP3 SWAP1 POP JUMP JUMPDEST PUSH0 DUP2 MLOAD SWAP1 POP SWAP2 SWAP1 POP JUMP JUMPDEST PUSH0 DUP3 DUP3 MSTORE PUSH1 0x20 DUP3 ADD SWAP1 POP SWAP3 SWAP2 POP POP JUMP JUMPDEST PUSH0 JUMPDEST DUP4 DUP2 LT ISZERO PUSH2 0x4A5 JUMPI DUP1 DUP3 ADD MLOAD DUP2 DUP5 ADD MSTORE PUSH1 0x20 DUP2 ADD SWAP1 POP PUSH2 0x48A JUMP JUMPDEST PUSH0 DUP5 DUP5 ADD MSTORE POP POP POP POP JUMP JUMPDEST PUSH0 PUSH1 0x1F NOT PUSH1 0x1F DUP4 ADD AND SWAP1 POP SWAP2 SWAP1 POP JUMP JUMPDEST PUSH0 PUSH2 0x4CA DUP3 PUSH2 0x46E JUMP JUMPDEST PUSH2 0x4D4 DUP2 DUP6 PUSH2 0x478 JUMP JUMPDEST SWAP4 POP PUSH2 0x4E4 DUP2 DUP6 PUSH1 0x20 DUP7 ADD PUSH2 0x488 JUMP JUMPDEST PUSH2 0x4ED DUP2 PUSH2 0x4B0 JUMP JUMPDEST DUP5 ADD SWAP2 POP POP SWAP3 SWAP2 POP POP JUMP JUMPDEST PUSH0 DUP2 SWAP1 POP SWAP2 SWAP1 POP JUMP JUMPDEST PUSH2 0x50A DUP2 PUSH2 0x4F8 JUMP JUMPDEST DUP3 MSTORE POP POP JUMP JUMPDEST PUSH0 PUSH20 0xFFFFFFFFFFFFFFFFFFFFFFFFFFFFFFFFFFFFFFFF DUP3 AND SWAP1 POP SWAP2 SWAP1 POP JUMP JUMPDEST PUSH0 PUSH2 0x539 DUP3 PUSH2 0x510 JUMP JUMPDEST SWAP1 POP SWAP2 SWAP1 POP JUMP JUMPDEST PUSH2 0x549 DUP2 PUSH2 0x52F JUMP JUMPDEST DUP3 MSTORE POP POP JUMP JUMPDEST PUSH0 PUSH1 0x60 DUP3 ADD SWAP1 POP DUP2 DUP2 SUB PUSH0 DUP4 ADD MSTORE PUSH2 0x567 DUP2 DUP7 PUSH2 0x4C0 JUMP JUMPDEST SWAP1 POP PUSH2 0x576 PUSH1 0x20 DUP4 ADD DUP6 PUSH2 0x501 JUMP JUMPDEST PUSH2 0x583 PUSH1 0x40 DUP4 ADD DUP5 PUSH2 0x540 JUMP JUMPDEST SWAP5 SWAP4 POP POP POP POP JUMP JUMPDEST PUSH0 DUP2 ISZERO ISZERO SWAP1 POP SWAP2 SWAP1 POP JUMP JUMPDEST PUSH2 0x59F DUP2 PUSH2 0x58B JUMP JUMPDEST DUP2 EQ PUSH2 0x5A9 JUMPI PUSH0 DUP1 REVERT JUMPDEST POP JUMP JUMPDEST PUSH0 DUP2 CALLDATALOAD SWAP1 POP PUSH2 0x5BA DUP2 PUSH2 0x596 JUMP JUMPDEST SWAP3 SWAP2 POP POP JUMP JUMPDEST PUSH0 DUP1 DUP4 PUSH1 0x1F DUP5 ADD SLT PUSH2 0x5D5 JUMPI PUSH2 0x5D4 PUSH2 0x3C2 JUMP JUMPDEST JUMPDEST DUP3 CALLDATALOAD SWAP1 POP PUSH8 0xFFFFFFFFFFFFFFFF DUP2 GT ISZERO PUSH2 0x5F2 JUMPI PUSH2 0x5F1 PUSH2 0x3C6 JUMP JUMPDEST JUMPDEST PUSH1 0x20 DUP4 ADD SWAP2 POP DUP4 PUSH1 0x20 DUP3 MUL DUP4 ADD GT ISZERO PUSH2 0x60E JUMPI PUSH2 0x60D PUSH2 0x3CA JUMP JUMPDEST JUMPDEST SWAP3 POP SWAP3 SWAP1 POP JUMP JUMPDEST PUSH2 0x61E DUP2 PUSH2 0x52F JUMP JUMPDEST DUP2 EQ PUSH2 0x628 JUMPI PUSH0 DUP1 REVERT JUMPDEST POP JUMP JUMPDEST PUSH0 DUP2 CALLDATALOAD SWAP1 POP PUSH2 0x639 DUP2 PUSH2 0x615 JUMP JUMPDEST SWAP3 SWAP2 POP POP JUMP JUMPDEST PUSH0 DUP1 DUP4 PUSH1 0x1F DUP5 ADD SLT PUSH2 0x654 JUMPI PUSH2 0x653 PUSH2 0x3C2 JUMP JUMPDEST JUMPDEST DUP3 CALLDATALOAD SWAP1 POP PUSH8 0xFFFFFFFFFFFFFFFF DUP2 GT ISZERO PUSH2 0x671 JUMPI PUSH2 0x670 PUSH2 0x3C6 JUMP JUMPDEST JUMPDEST PUSH1 0x20 DUP4 ADD SWAP2 POP DUP4 PUSH1 0x1 DUP3 MUL DUP4 ADD GT ISZERO PUSH2 0x68D JUMPI PUSH2 0x68C PUSH2 0x3CA JUMP JUMPDEST JUMPDEST SWAP3 POP SWAP3 SWAP1 POP JUMP JUMPDEST PUSH0 DUP1 PUSH0 DUP1 PUSH0 DUP1 PUSH1 0x80 DUP8 DUP10 SUB SLT ISZERO PUSH2 0x6AE JUMPI PUSH2 0x6AD PUSH2 0x3BA JUMP JUMPDEST JUMPDEST PUSH0 PUSH2 0x6BB DUP10 DUP3 DUP11 ADD PUSH2 0x5AC JUMP JUMPDEST SWAP7 POP POP PUSH1 0x20 DUP8 ADD CALLDATALOAD PUSH8 0xFFFFFFFFFFFFFFFF DUP2 GT ISZERO PUSH2 0x6DC JUMPI PUSH2 0x6DB PUSH2 0x3BE JUMP JUMPDEST JUMPDEST PUSH2 0x6E8 DUP10 DUP3 DUP11 ADD PUSH2 0x5C0 JUMP JUMPDEST SWAP6 POP SWAP6 POP POP PUSH1 0x40 PUSH2 0x6FB DUP10 DUP3 DUP11 ADD PUSH2 0x62B JUMP JUMPDEST SWAP4 POP POP PUSH1 0x60 DUP8 ADD CALLDATALOAD PUSH8 0xFFFFFFFFFFFFFFFF DUP2 GT ISZERO PUSH2 0x71C JUMPI PUSH2 0x71B PUSH2 0x3BE JUMP JUMPDEST JUMPDEST PUSH2 0x728 DUP10 DUP3 DUP11 ADD PUSH2 0x63F JUMP JUMPDEST SWAP3 POP SWAP3 POP POP SWAP3 SWAP6 POP SWAP3 SWAP6 POP SWAP3 SWAP6 JUMP JUMPDEST PUSH0 DUP2 MLOAD SWAP1 POP SWAP2 SWAP1 POP JUMP JUMPDEST PUSH0 DUP3 DUP3 MSTORE PUSH1 0x20 DUP3 ADD SWAP1 POP SWAP3 SWAP2 POP POP JUMP JUMPDEST PUSH0 PUSH2 0x75B DUP3 PUSH2 0x737 JUMP JUMPDEST PUSH2 0x765 DUP2 DUP6 PUSH2 0x741 JUMP JUMPDEST SWAP4 POP PUSH2 0x775 DUP2 DUP6 PUSH1 0x20 DUP7 ADD PUSH2 0x488 JUMP JUMPDEST PUSH2 0x77E DUP2 PUSH2 0x4B0 JUMP JUMPDEST DUP5 ADD SWAP2 POP POP SWAP3 SWAP2 POP POP JUMP JUMPDEST PUSH0 PUSH1 0x20 DUP3 ADD SWAP1 POP DUP2 DUP2 SUB PUSH0 DUP4 ADD MSTORE PUSH2 0x7A1 DUP2 DUP5 PUSH2 0x751 JUMP JUMPDEST SWAP1 POP SWAP3 SWAP2 POP POP JUMP JUMPDEST PUSH0 DUP1 REVERT JUMPDEST PUSH32 0x4E487B7100000000000000000000000000000000000000000000000000000000 PUSH0 MSTORE PUSH1 0x41 PUSH1 0x4 MSTORE PUSH1 0x24 PUSH0 REVERT JUMPDEST PUSH2 0x7E3 DUP3 PUSH2 0x4B0 JUMP JUMPDEST DUP2 ADD DUP2 DUP2 LT PUSH8 0xFFFFFFFFFFFFFFFF DUP3 GT OR ISZERO PUSH2 0x802 JUMPI PUSH2 0x801 PUSH2 0x7AD JUMP JUMPDEST JUMPDEST DUP1 PUSH1 0x40 MSTORE POP POP POP JUMP JUMPDEST PUSH0 PUSH2 0x814 PUSH2 0x3B1 JUMP JUMPDEST SWAP1 POP PUSH2 0x820 DUP3 DUP3 PUSH2 0x7DA JUMP JUMPDEST SWAP2 SWAP1 POP JUMP JUMPDEST PUSH0 PUSH8 0xFFFFFFFFFFFFFFFF DUP3 GT ISZERO PUSH2 0x83F JUMPI PUSH2 0x83E PUSH2 0x7AD JUMP JUMPDEST JUMPDEST PUSH2 0x848 DUP3 PUSH2 0x4B0 JUMP JUMPDEST SWAP1 POP PUSH1 0x20 DUP2 ADD SWAP1 POP SWAP2 SWAP1 POP JUMP JUMPDEST DUP3 DUP2 DUP4 CALLDATACOPY PUSH0 DUP4 DUP4 ADD MSTORE POP POP POP JUMP JUMPDEST PUSH0 PUSH2 0x875 PUSH2 0x870 DUP5 PUSH2 0x825 JUMP JUMPDEST PUSH2 0x80B JUMP JUMPDEST SWAP1 POP DUP3 DUP2 MSTORE PUSH1 0x20 DUP2 ADD DUP5 DUP5 DUP5 ADD GT ISZERO PUSH2 0x891 JUMPI PUSH2 0x890 PUSH2 0x7A9 JUMP JUMPDEST JUMPDEST PUSH2 0x89C DUP5 DUP3 DUP6 PUSH2 0x855 JUMP JUMPDEST POP SWAP4 SWAP3 POP POP POP JUMP JUMPDEST PUSH0 DUP3 PUSH1 0x1F DUP4 ADD SLT PUSH2 0x8B8 JUMPI PUSH2 0x8B7 PUSH2 0x3C2 JUMP JUMPDEST JUMPDEST DUP2 CALLDATALOAD PUSH2 0x8C8 DUP5 DUP3 PUSH1 0x20 DUP7 ADD PUSH2 0x863 JUMP JUMPDEST SWAP2 POP POP SWAP3 SWAP2 POP POP JUMP JUMPDEST PUSH2 0x8DA DUP2 PUSH2 0x4F8 JUMP JUMPDEST DUP2 EQ PUSH2 0x8E4 JUMPI PUSH0 DUP1 REVERT JUMPDEST POP JUMP JUMPDEST PUSH0 DUP2 CALLDATALOAD SWAP1 POP PUSH2 0x8F5 DUP2 PUSH2 0x8D1 JUMP JUMPDEST SWAP3 SWAP2 POP POP JUMP JUMPDEST PUSH0 PUSH2 0x905 DUP3 PUSH2 0x510 JUMP JUMPDEST SWAP1 POP SWAP2 SWAP1 POP JUMP JUMPDEST PUSH2 0x915 DUP2 PUSH2 0x8FB JUMP JUMPDEST DUP2 EQ PUSH2 0x91F JUMPI PUSH0 DUP1 REVERT JUMPDEST POP JUMP JUMPDEST PUSH0 DUP2 CALLDATALOAD SWAP1 POP PUSH2 0x930 DUP2 PUSH2 0x90C JUMP JUMPDEST SWAP3 SWAP2 POP POP JUMP JUMPDEST PUSH0 DUP1 PUSH0 PUSH1 0x60 DUP5 DUP7 SUB SLT ISZERO PUSH2 0x94D JUMPI PUSH2 0x94C PUSH2 0x3BA JUMP JUMPDEST JUMPDEST PUSH0 DUP5 ADD CALLDATALOAD PUSH8 0xFFFFFFFFFFFFFFFF DUP2 GT ISZERO PUSH2 0x96A JUMPI PUSH2 0x969 PUSH2 0x3BE JUMP JUMPDEST JUMPDEST PUSH2 0x976 DUP7 DUP3 DUP8 ADD PUSH2 0x8A4 JUMP JUMPDEST SWAP4 POP POP PUSH1 0x20 PUSH2 0x987 DUP7 DUP3 DUP8 ADD PUSH2 0x8E7 JUMP JUMPDEST SWAP3 POP POP PUSH1 0x40 PUSH2 0x998 DUP7 DUP3 DUP8 ADD PUSH2 0x922 JUMP JUMPDEST SWAP2 POP POP SWAP3 POP SWAP3 POP SWAP3 JUMP JUMPDEST PUSH2 0x9AB DUP2 PUSH2 0x58B JUMP JUMPDEST DUP3 MSTORE POP POP JUMP JUMPDEST PUSH0 DUP3 DUP3 MSTORE PUSH1 0x20 DUP3 ADD SWAP1 POP SWAP3 SWAP2 POP POP JUMP JUMPDEST PUSH0 DUP1 REVERT JUMPDEST DUP3 DUP2 DUP4 CALLDATACOPY POP POP POP JUMP JUMPDEST PUSH0 PUSH2 0x9D9 DUP4 DUP6 PUSH2 0x9B1 JUMP JUMPDEST SWAP4 POP PUSH32 0x7FFFFFFFFFFFFFFFFFFFFFFFFFFFFFFFFFFFFFFFFFFFFFFFFFFFFFFFFFFFFFF DUP4 GT ISZERO PUSH2 0xA0C JUMPI PUSH2 0xA0B PUSH2 0x9C1 JUMP JUMPDEST JUMPDEST PUSH1 0x20 DUP4 MUL SWAP3 POP PUSH2 0xA1D DUP4 DUP6 DUP5 PUSH2 0x9C5 JUMP JUMPDEST DUP3 DUP5 ADD SWAP1 POP SWAP4 SWAP3 POP POP POP JUMP JUMPDEST PUSH0 PUSH2 0xA34 DUP4 DUP6 PUSH2 0x478 JUMP JUMPDEST SWAP4 POP PUSH2 0xA41 DUP4 DUP6 DUP5 PUSH2 0x855 JUMP JUMPDEST PUSH2 0xA4A DUP4 PUSH2 0x4B0 JUMP JUMPDEST DUP5 ADD SWAP1 POP SWAP4 SWAP3 POP POP POP JUMP JUMPDEST PUSH0 PUSH1 0x80 DUP3 ADD SWAP1 POP PUSH2 0xA68 PUSH0 DUP4 ADD DUP10 PUSH2 0x9A2 JUMP JUMPDEST DUP2 DUP2 SUB PUSH1 0x20 DUP4 ADD MSTORE PUSH2 0xA7B DUP2 DUP8 DUP10 PUSH2 0x9CE JUMP JUMPDEST SWAP1 POP PUSH2 0xA8A PUSH1 0x40 DUP4 ADD DUP7 PUSH2 0x540 JUMP JUMPDEST DUP2 DUP2 SUB PUSH1 0x60 DUP4 ADD MSTORE PUSH2 0xA9D DUP2 DUP5 DUP7 PUSH2 0xA29 JUMP JUMPDEST SWAP1 POP SWAP8 SWAP7 POP POP POP POP POP POP POP JUMP JUMPDEST PUSH0 DUP2 SWAP1 POP SWAP3 SWAP2 POP POP JUMP JUMPDEST PUSH32 0x617070776F726B73000000000000000000000000000000000000000000000000 PUSH0 DUP3 ADD MSTORE POP JUMP JUMPDEST PUSH0 PUSH2 0xAE8 PUSH1 0x8 DUP4 PUSH2 0xAAA JUMP JUMPDEST SWAP2 POP PUSH2 0xAF3 DUP3 PUSH2 0xAB4 JUMP JUMPDEST PUSH1 0x8 DUP3 ADD SWAP1 POP SWAP2 SWAP1 POP JUMP JUMPDEST PUSH0 PUSH2 0xB08 DUP3 PUSH2 0xADC JUMP JUMPDEST SWAP2 POP DUP2 SWAP1 POP SWAP2 SWAP1 POP JUMP JUMPDEST PUSH0 PUSH2 0xB1E PUSH1 0x8 DUP4 PUSH2 0x478 JUMP JUMPDEST SWAP2 POP PUSH2 0xB29 DUP3 PUSH2 0xAB4 JUMP JUMPDEST PUSH1 0x20 DUP3 ADD SWAP1 POP SWAP2 SWAP1 POP JUMP JUMPDEST PUSH0 PUSH1 0x20 DUP3 ADD SWAP1 POP DUP2 DUP2 SUB PUSH0 DUP4 ADD MSTORE PUSH2 0xB4B DUP2 PUSH2 0xB12 JUMP JUMPDEST SWAP1 POP SWAP2 SWAP1 POP JUMP JUMPDEST PUSH0 DUP2 SWAP1 POP SWAP2 SWAP1 POP JUMP JUMPDEST PUSH0 PUSH1 0xFF DUP3 AND SWAP1 POP SWAP2 SWAP1 POP JUMP JUMPDEST PUSH0 DUP2 SWAP1 POP SWAP2 SWAP1 POP JUMP JUMPDEST PUSH0 PUSH2 0xB8A PUSH2 0xB85 PUSH2 0xB80 DUP5 PUSH2 0xB52 JUMP JUMPDEST PUSH2 0xB67 JUMP JUMPDEST PUSH2 0xB5B JUMP JUMPDEST SWAP1 POP SWAP2 SWAP1 POP JUMP JUMPDEST PUSH2 0xB9A DUP2 PUSH2 0xB70 JUMP JUMPDEST DUP3 MSTORE POP POP JUMP JUMPDEST PUSH0 DUP2 SWAP1 POP SWAP2 SWAP1 POP JUMP JUMPDEST PUSH0 PUSH2 0xBC3 PUSH2 0xBBE PUSH2 0xBB9 DUP5 PUSH2 0xBA0 JUMP JUMPDEST PUSH2 0xB67 JUMP JUMPDEST PUSH2 0xB5B JUMP JUMPDEST SWAP1 POP SWAP2 SWAP1 POP JUMP JUMPDEST PUSH2 0xBD3 DUP2 PUSH2 0xBA9 JUMP JUMPDEST DUP3 MSTORE POP POP JUMP JUMPDEST PUSH32 0x6A696D0000000000000000000000000000000000000000000000000000000000 PUSH0 DUP3 ADD MSTORE POP JUMP JUMPDEST PUSH0 PUSH2 0xC0D PUSH1 0x3 DUP4 PUSH2 0x478 JUMP JUMPDEST SWAP2 POP PUSH2 0xC18 DUP3 PUSH2 0xBD9 JUMP JUMPDEST PUSH1 0x20 DUP3 ADD SWAP1 POP SWAP2 SWAP1 POP JUMP JUMPDEST PUSH0 PUSH1 0x80 DUP3 ADD SWAP1 POP DUP2 DUP2 SUB PUSH0 DUP4 ADD MSTORE PUSH2 0xC3A DUP2 PUSH2 0xB12 JUMP JUMPDEST SWAP1 POP PUSH2 0xC49 PUSH1 0x20 DUP4 ADD DUP6 PUSH2 0xB91 JUMP JUMPDEST PUSH2 0xC56 PUSH1 0x40 DUP4 ADD DUP5 PUSH2 0xBCA JUMP JUMPDEST DUP2 DUP2 SUB PUSH1 0x60 DUP4 ADD MSTORE PUSH2 0xC67 DUP2 PUSH2 0xC01 JUMP JUMPDEST SWAP1 POP SWAP4 SWAP3 POP POP POP JUMP JUMPDEST PUSH0 PUSH1 0x60 DUP3 ADD SWAP1 POP DUP2 DUP2 SUB PUSH0 DUP4 ADD MSTORE PUSH2 0xC87 DUP2 PUSH2 0xB12 JUMP JUMPDEST SWAP1 POP PUSH2 0xC96 PUSH1 0x20 DUP4 ADD DUP6 PUSH2 0xB91 JUMP JUMPDEST PUSH2 0xCA3 PUSH1 0x40 DUP4 ADD DUP5 PUSH2 0x540 JUMP JUMPDEST SWAP4 SWAP3 POP POP POP JUMP JUMPDEST PUSH0 PUSH1 0x20 DUP3 ADD SWAP1 POP PUSH2 0xCBD PUSH0 DUP4 ADD DUP5 PUSH2 0xB91 JUMP JUMPDEST SWAP3 SWAP2 POP POP JUMP JUMPDEST PUSH0 PUSH1 0x20 DUP3 ADD SWAP1 POP PUSH2 0xCD6 PUSH0 DUP4 ADD DUP5 PUSH2 0x540 JUMP JUMPDEST SWAP3 SWAP2 POP POP JUMP INVALID LOG2 PUSH5 0x6970667358 0x22 SLT KECCAK256 SDIV PUSH17 0xA70B83FC538A80CA5CE30B07F1C953DFD1 DUP11 0x1E DUP8 0xD3 0xC7 BALANCE 0xC DIV 0xC1 EXP 0x4F PUSH29 0x8864736F6C634300081500330000000000000000000000000000000000 "
		},
		"gasEstimates": {
			"creation": {
				"codeDepositCost": "669200",
				"executionCost": "700",
				"totalCost": "669900"
			},
			"external": {
				"AppWorks(bool,uint256[],address,string)": "1123",
				"encode()": "infinite",
				"encodeAddress()": "infinite",
				"encodeAppWorks(bool,uint256[],address,string)": "infinite",
				"encodeAppworks()": "infinite",
				"encodeOne()": "infinite",
				"encodePackedAppworks()": "infinite",
				"encodePackedAppworksV2()": "infinite",
				"testABIDecode(bytes)": "infinite"
			}
		},
		"methodIdentifiers": {
			"AppWorks(bool,uint256[],address,string)": "ae53a4a5",
			"encode()": "bd14598f",
			"encodeAddress()": "cf57b6eb",
			"encodeAppWorks(bool,uint256[],address,string)": "37ac0c7d",
			"encodeAppworks()": "733e2f06",
			"encodeOne()": "c1ed13ef",
			"encodePackedAppworks()": "44d1587c",
			"encodePackedAppworksV2()": "7faec262",
			"testABIDecode(bytes)": "065fdac2"
		}
	},
	"abi": [
		{
			"inputs": [
				{
					"internalType": "bool",
					"name": "b",
					"type": "bool"
				},
				{
					"internalType": "uint256[]",
					"name": "arrUint",
					"type": "uint256[]"
				},
				{
					"internalType": "address",
					"name": "a",
					"type": "address"
				},
				{
					"internalType": "string",
					"name": "array",
					"type": "string"
				}
			],
			"name": "AppWorks",
			"outputs": [],
			"stateMutability": "nonpayable",
			"type": "function"
		},
		{
			"inputs": [],
			"name": "encode",
			"outputs": [
				{
					"internalType": "bytes",
					"name": "",
					"type": "bytes"
				}
			],
			"stateMutability": "pure",
			"type": "function"
		},
		{
			"inputs": [],
			"name": "encodeAddress",
			"outputs": [
				{
					"internalType": "bytes",
					"name": "",
					"type": "bytes"
				}
			],
			"stateMutability": "pure",
			"type": "function"
		},
		{
			"inputs": [
				{
					"internalType": "bool",
					"name": "b",
					"type": "bool"
				},
				{
					"internalType": "uint256[]",
					"name": "arrUint",
					"type": "uint256[]"
				},
				{
					"internalType": "address",
					"name": "a",
					"type": "address"
				},
				{
					"internalType": "string",
					"name": "array",
					"type": "string"
				}
			],
			"name": "encodeAppWorks",
			"outputs": [
				{
					"internalType": "bytes",
					"name": "",
					"type": "bytes"
				}
			],
			"stateMutability": "pure",
			"type": "function"
		},
		{
			"inputs": [],
			"name": "encodeAppworks",
			"outputs": [
				{
					"internalType": "bytes",
					"name": "",
					"type": "bytes"
				}
			],
			"stateMutability": "pure",
			"type": "function"
		},
		{
			"inputs": [],
			"name": "encodeOne",
			"outputs": [
				{
					"internalType": "bytes",
					"name": "",
					"type": "bytes"
				}
			],
			"stateMutability": "pure",
			"type": "function"
		},
		{
			"inputs": [],
			"name": "encodePackedAppworks",
			"outputs": [
				{
					"internalType": "bytes",
					"name": "",
					"type": "bytes"
				}
			],
			"stateMutability": "pure",
			"type": "function"
		},
		{
			"inputs": [],
			"name": "encodePackedAppworksV2",
			"outputs": [
				{
					"internalType": "bytes",
					"name": "",
					"type": "bytes"
				}
			],
			"stateMutability": "pure",
			"type": "function"
		},
		{
			"inputs": [
				{
					"internalType": "bytes",
					"name": "data",
					"type": "bytes"
				}
			],
			"name": "testABIDecode",
			"outputs": [
				{
					"internalType": "string",
					"name": "arr",
					"type": "string"
				},
				{
					"internalType": "uint256",
					"name": "u",
					"type": "uint256"
				},
				{
					"internalType": "address",
					"name": "a",
					"type": "address"
				}
			],
			"stateMutability": "pure",
			"type": "function"
		}
	]
}