{
	"week5/TestExternal.sol": {
		"TestExternal": {
			"abi": [
				{
					"inputs": [
						{
							"internalType": "address",
							"name": "bcTokenAddress",
							"type": "address"
						}
					],
					"stateMutability": "nonpayable",
					"type": "constructor"
				},
				{
					"inputs": [
						{
							"internalType": "address",
							"name": "to",
							"type": "address"
						},
						{
							"internalType": "uint256",
							"name": "amount",
							"type": "uint256"
						}
					],
					"name": "encodeWithSignature",
					"outputs": [
						{
							"internalType": "bytes",
							"name": "",
							"type": "bytes"
						}
					],
					"stateMutability": "pure",
					"type": "function"
				},
				{
					"inputs": [],
					"name": "sender",
					"outputs": [
						{
							"internalType": "address",
							"name": "",
							"type": "address"
						}
					],
					"stateMutability": "view",
					"type": "function"
				},
				{
					"inputs": [
						{
							"internalType": "uint256",
							"name": "m",
							"type": "uint256"
						}
					],
					"name": "testCallExternal",
					"outputs": [],
					"stateMutability": "nonpayable",
					"type": "function"
				},
				{
					"inputs": [
						{
							"internalType": "address",
							"name": "bcTokenAddress",
							"type": "address"
						},
						{
							"internalType": "uint256",
							"name": "m",
							"type": "uint256"
						}
					],
					"name": "testCallExternalSelf",
					"outputs": [],
					"stateMutability": "nonpayable",
					"type": "function"
				}
			],
			"devdoc": {
				"kind": "dev",
				"methods": {},
				"version": 1
			},
			"evm": {
				"assembly": "    /* \"week5/TestExternal.sol\":56:895  contract TestExternal{... */\n  mstore(0x40, 0x80)\n    /* \"week5/TestExternal.sol\":130:210  constructor(address bcTokenAddress) {... */\n  callvalue\n  dup1\n  iszero\n  tag_1\n  jumpi\n  0x00\n  dup1\n  revert\ntag_1:\n  pop\n  mload(0x40)\n  sub(codesize, bytecodeSize)\n  dup1\n  bytecodeSize\n  dup4\n  codecopy\n  dup2\n  dup2\n  add\n  0x40\n  mstore\n  dup2\n  add\n  swap1\n  tag_2\n  swap2\n  swap1\n  tag_3\n  jump\t// in\ntag_2:\n    /* \"week5/TestExternal.sol\":188:202  bcTokenAddress */\n  dup1\n    /* \"week5/TestExternal.sol\":173:178  token */\n  0x00\n  dup1\n    /* \"week5/TestExternal.sol\":173:203  token = IERC20(bcTokenAddress) */\n  0x0100\n  exp\n  dup2\n  sload\n  dup2\n  0xffffffffffffffffffffffffffffffffffffffff\n  mul\n  not\n  and\n  swap1\n  dup4\n  0xffffffffffffffffffffffffffffffffffffffff\n  and\n  mul\n  or\n  swap1\n  sstore\n  pop\n    /* \"week5/TestExternal.sol\":130:210  constructor(address bcTokenAddress) {... */\n  pop\n    /* \"week5/TestExternal.sol\":56:895  contract TestExternal{... */\n  jump(tag_6)\n    /* \"#utility.yul\":88:205   */\ntag_8:\n    /* \"#utility.yul\":197:198   */\n  0x00\n    /* \"#utility.yul\":194:195   */\n  dup1\n    /* \"#utility.yul\":187:199   */\n  revert\n    /* \"#utility.yul\":334:460   */\ntag_10:\n    /* \"#utility.yul\":371:378   */\n  0x00\n    /* \"#utility.yul\":411:453   */\n  0xffffffffffffffffffffffffffffffffffffffff\n    /* \"#utility.yul\":404:409   */\n  dup3\n    /* \"#utility.yul\":400:454   */\n  and\n    /* \"#utility.yul\":389:454   */\n  swap1\n  pop\n    /* \"#utility.yul\":334:460   */\n  swap2\n  swap1\n  pop\n  jump\t// out\n    /* \"#utility.yul\":466:562   */\ntag_11:\n    /* \"#utility.yul\":503:510   */\n  0x00\n    /* \"#utility.yul\":532:556   */\n  tag_20\n    /* \"#utility.yul\":550:555   */\n  dup3\n    /* \"#utility.yul\":532:556   */\n  tag_10\n  jump\t// in\ntag_20:\n    /* \"#utility.yul\":521:556   */\n  swap1\n  pop\n    /* \"#utility.yul\":466:562   */\n  swap2\n  swap1\n  pop\n  jump\t// out\n    /* \"#utility.yul\":568:690   */\ntag_12:\n    /* \"#utility.yul\":641:665   */\n  tag_22\n    /* \"#utility.yul\":659:664   */\n  dup2\n    /* \"#utility.yul\":641:665   */\n  tag_11\n  jump\t// in\ntag_22:\n    /* \"#utility.yul\":634:639   */\n  dup2\n    /* \"#utility.yul\":631:666   */\n  eq\n    /* \"#utility.yul\":621:684   */\n  tag_23\n  jumpi\n    /* \"#utility.yul\":680:681   */\n  0x00\n    /* \"#utility.yul\":677:678   */\n  dup1\n    /* \"#utility.yul\":670:682   */\n  revert\n    /* \"#utility.yul\":621:684   */\ntag_23:\n    /* \"#utility.yul\":568:690   */\n  pop\n  jump\t// out\n    /* \"#utility.yul\":696:839   */\ntag_13:\n    /* \"#utility.yul\":753:758   */\n  0x00\n    /* \"#utility.yul\":784:790   */\n  dup2\n    /* \"#utility.yul\":778:791   */\n  mload\n    /* \"#utility.yul\":769:791   */\n  swap1\n  pop\n    /* \"#utility.yul\":800:833   */\n  tag_25\n    /* \"#utility.yul\":827:832   */\n  dup2\n    /* \"#utility.yul\":800:833   */\n  tag_12\n  jump\t// in\ntag_25:\n    /* \"#utility.yul\":696:839   */\n  swap3\n  swap2\n  pop\n  pop\n  jump\t// out\n    /* \"#utility.yul\":845:1196   */\ntag_3:\n    /* \"#utility.yul\":915:921   */\n  0x00\n    /* \"#utility.yul\":964:966   */\n  0x20\n    /* \"#utility.yul\":952:961   */\n  dup3\n    /* \"#utility.yul\":943:950   */\n  dup5\n    /* \"#utility.yul\":939:962   */\n  sub\n    /* \"#utility.yul\":935:967   */\n  slt\n    /* \"#utility.yul\":932:1051   */\n  iszero\n  tag_27\n  jumpi\n    /* \"#utility.yul\":970:1049   */\n  tag_28\n  tag_8\n  jump\t// in\ntag_28:\n    /* \"#utility.yul\":932:1051   */\ntag_27:\n    /* \"#utility.yul\":1090:1091   */\n  0x00\n    /* \"#utility.yul\":1115:1179   */\n  tag_29\n    /* \"#utility.yul\":1171:1178   */\n  dup5\n    /* \"#utility.yul\":1162:1168   */\n  dup3\n    /* \"#utility.yul\":1151:1160   */\n  dup6\n    /* \"#utility.yul\":1147:1169   */\n  add\n    /* \"#utility.yul\":1115:1179   */\n  tag_13\n  jump\t// in\ntag_29:\n    /* \"#utility.yul\":1105:1179   */\n  swap2\n  pop\n    /* \"#utility.yul\":1061:1189   */\n  pop\n    /* \"#utility.yul\":845:1196   */\n  swap3\n  swap2\n  pop\n  pop\n  jump\t// out\n    /* \"week5/TestExternal.sol\":56:895  contract TestExternal{... */\ntag_6:\n  dataSize(sub_0)\n  dup1\n  dataOffset(sub_0)\n  0x00\n  codecopy\n  0x00\n  return\nstop\n\nsub_0: assembly {\n        /* \"week5/TestExternal.sol\":56:895  contract TestExternal{... */\n      mstore(0x40, 0x80)\n      callvalue\n      dup1\n      iszero\n      tag_1\n      jumpi\n      0x00\n      dup1\n      revert\n    tag_1:\n      pop\n      jumpi(tag_2, lt(calldatasize, 0x04))\n      shr(0xe0, calldataload(0x00))\n      dup1\n      0x67e404ce\n      eq\n      tag_3\n      jumpi\n      dup1\n      0x74b6b721\n      eq\n      tag_4\n      jumpi\n      dup1\n      0x7e3b06fb\n      eq\n      tag_5\n      jumpi\n      dup1\n      0xfe443107\n      eq\n      tag_6\n      jumpi\n    tag_2:\n      0x00\n      dup1\n      revert\n        /* \"week5/TestExternal.sol\":102:123  address public sender */\n    tag_3:\n      tag_7\n      tag_8\n      jump\t// in\n    tag_7:\n      mload(0x40)\n      tag_9\n      swap2\n      swap1\n      tag_10\n      jump\t// in\n    tag_9:\n      mload(0x40)\n      dup1\n      swap2\n      sub\n      swap1\n      return\n        /* \"week5/TestExternal.sol\":216:380  function testCallExternal(uint m) external {... */\n    tag_4:\n      tag_11\n      0x04\n      dup1\n      calldatasize\n      sub\n      dup2\n      add\n      swap1\n      tag_12\n      swap2\n      swap1\n      tag_13\n      jump\t// in\n    tag_12:\n      tag_14\n      jump\t// in\n    tag_11:\n      stop\n        /* \"week5/TestExternal.sol\":633:893  function encodeWithSignature(... */\n    tag_5:\n      tag_15\n      0x04\n      dup1\n      calldatasize\n      sub\n      dup2\n      add\n      swap1\n      tag_16\n      swap2\n      swap1\n      tag_17\n      jump\t// in\n    tag_16:\n      tag_18\n      jump\t// in\n    tag_15:\n      mload(0x40)\n      tag_19\n      swap2\n      swap1\n      tag_20\n      jump\t// in\n    tag_19:\n      mload(0x40)\n      dup1\n      swap2\n      sub\n      swap1\n      return\n        /* \"week5/TestExternal.sol\":386:625  function testCallExternalSelf(address bcTokenAddress,uint m) external {... */\n    tag_6:\n      tag_21\n      0x04\n      dup1\n      calldatasize\n      sub\n      dup2\n      add\n      swap1\n      tag_22\n      swap2\n      swap1\n      tag_17\n      jump\t// in\n    tag_22:\n      tag_23\n      jump\t// in\n    tag_21:\n      stop\n        /* \"week5/TestExternal.sol\":102:123  address public sender */\n    tag_8:\n      0x01\n      0x00\n      swap1\n      sload\n      swap1\n      0x0100\n      exp\n      swap1\n      div\n      0xffffffffffffffffffffffffffffffffffffffff\n      and\n      dup2\n      jump\t// out\n        /* \"week5/TestExternal.sol\":216:380  function testCallExternal(uint m) external {... */\n    tag_14:\n        /* \"week5/TestExternal.sol\":278:288  msg.sender */\n      caller\n        /* \"week5/TestExternal.sol\":269:275  sender */\n      0x01\n      0x00\n        /* \"week5/TestExternal.sol\":269:288  sender = msg.sender */\n      0x0100\n      exp\n      dup2\n      sload\n      dup2\n      0xffffffffffffffffffffffffffffffffffffffff\n      mul\n      not\n      and\n      swap1\n      dup4\n      0xffffffffffffffffffffffffffffffffffffffff\n      and\n      mul\n      or\n      swap1\n      sstore\n      pop\n        /* \"week5/TestExternal.sol\":298:303  token */\n      0x00\n      dup1\n      sload\n      swap1\n      0x0100\n      exp\n      swap1\n      div\n      0xffffffffffffffffffffffffffffffffffffffff\n      and\n        /* \"week5/TestExternal.sol\":298:316  token.transferFrom */\n      0xffffffffffffffffffffffffffffffffffffffff\n      and\n      0x23b872dd\n        /* \"week5/TestExternal.sol\":317:327  msg.sender */\n      caller\n        /* \"week5/TestExternal.sol\":328:370  0xAb8483F64d9C6d1EcF9b849Ae677dD3315835cb2 */\n      0xab8483f64d9c6d1ecf9b849ae677dd3315835cb2\n        /* \"week5/TestExternal.sol\":371:372  m */\n      dup5\n        /* \"week5/TestExternal.sol\":298:373  token.transferFrom(msg.sender,0xAb8483F64d9C6d1EcF9b849Ae677dD3315835cb2,m) */\n      mload(0x40)\n      dup5\n      0xffffffff\n      and\n      0xe0\n      shl\n      dup2\n      mstore\n      0x04\n      add\n      tag_25\n      swap4\n      swap3\n      swap2\n      swap1\n      tag_26\n      jump\t// in\n    tag_25:\n      0x20\n      mload(0x40)\n      dup1\n      dup4\n      sub\n      dup2\n      0x00\n      dup8\n      gas\n      call\n      iszero\n      dup1\n      iszero\n      tag_28\n      jumpi\n      returndatasize\n      0x00\n      dup1\n      returndatacopy\n      revert(0x00, returndatasize)\n    tag_28:\n      pop\n      pop\n      pop\n      pop\n      mload(0x40)\n      returndatasize\n      not(0x1f)\n      0x1f\n      dup3\n      add\n      and\n      dup3\n      add\n      dup1\n      0x40\n      mstore\n      pop\n      dup2\n      add\n      swap1\n      tag_29\n      swap2\n      swap1\n      tag_30\n      jump\t// in\n    tag_29:\n      pop\n        /* \"week5/TestExternal.sol\":216:380  function testCallExternal(uint m) external {... */\n      pop\n      jump\t// out\n        /* \"week5/TestExternal.sol\":633:893  function encodeWithSignature(... */\n    tag_18:\n        /* \"week5/TestExternal.sol\":732:744  bytes memory */\n      0x60\n        /* \"week5/TestExternal.sol\":875:877  to */\n      dup3\n        /* \"week5/TestExternal.sol\":879:885  amount */\n      dup3\n        /* \"week5/TestExternal.sol\":822:886  abi.encodeWithSignature(\"transfer(address,uint256)\", to, amount) */\n      add(0x24, mload(0x40))\n      tag_32\n      swap3\n      swap2\n      swap1\n      tag_33\n      jump\t// in\n    tag_32:\n      mload(0x40)\n      0x20\n      dup2\n      dup4\n      sub\n      sub\n      dup2\n      mstore\n      swap1\n      0x40\n      mstore\n      and(not(0xffffffffffffffffffffffffffffffffffffffffffffffffffffffff), 0xa9059cbb00000000000000000000000000000000000000000000000000000000)\n      0x20\n      dup3\n      add\n      dup1\n      mload\n      0xffffffffffffffffffffffffffffffffffffffffffffffffffffffff\n      dup4\n      dup2\n      dup4\n      and\n      or\n      dup4\n      mstore\n      pop\n      pop\n      pop\n      pop\n        /* \"week5/TestExternal.sol\":815:886  return abi.encodeWithSignature(\"transfer(address,uint256)\", to, amount) */\n      swap1\n      pop\n        /* \"week5/TestExternal.sol\":633:893  function encodeWithSignature(... */\n      swap3\n      swap2\n      pop\n      pop\n      jump\t// out\n        /* \"week5/TestExternal.sol\":386:625  function testCallExternalSelf(address bcTokenAddress,uint m) external {... */\n    tag_23:\n        /* \"week5/TestExternal.sol\":475:485  msg.sender */\n      caller\n        /* \"week5/TestExternal.sol\":466:472  sender */\n      0x01\n      0x00\n        /* \"week5/TestExternal.sol\":466:485  sender = msg.sender */\n      0x0100\n      exp\n      dup2\n      sload\n      dup2\n      0xffffffffffffffffffffffffffffffffffffffff\n      mul\n      not\n      and\n      swap1\n      dup4\n      0xffffffffffffffffffffffffffffffffffffffff\n      and\n      mul\n      or\n      swap1\n      sstore\n      pop\n        /* \"week5/TestExternal.sol\":495:507  IERC20 token */\n      0x00\n        /* \"week5/TestExternal.sol\":518:532  bcTokenAddress */\n      dup3\n        /* \"week5/TestExternal.sol\":495:533  IERC20 token =  IERC20(bcTokenAddress) */\n      swap1\n      pop\n        /* \"week5/TestExternal.sol\":543:548  token */\n      dup1\n        /* \"week5/TestExternal.sol\":543:561  token.transferFrom */\n      0xffffffffffffffffffffffffffffffffffffffff\n      and\n      0x23b872dd\n        /* \"week5/TestExternal.sol\":562:572  msg.sender */\n      caller\n        /* \"week5/TestExternal.sol\":573:615  0xAb8483F64d9C6d1EcF9b849Ae677dD3315835cb2 */\n      0xab8483f64d9c6d1ecf9b849ae677dd3315835cb2\n        /* \"week5/TestExternal.sol\":616:617  m */\n      dup6\n        /* \"week5/TestExternal.sol\":543:618  token.transferFrom(msg.sender,0xAb8483F64d9C6d1EcF9b849Ae677dD3315835cb2,m) */\n      mload(0x40)\n      dup5\n      0xffffffff\n      and\n      0xe0\n      shl\n      dup2\n      mstore\n      0x04\n      add\n      tag_35\n      swap4\n      swap3\n      swap2\n      swap1\n      tag_26\n      jump\t// in\n    tag_35:\n      0x20\n      mload(0x40)\n      dup1\n      dup4\n      sub\n      dup2\n      0x00\n      dup8\n      gas\n      call\n      iszero\n      dup1\n      iszero\n      tag_37\n      jumpi\n      returndatasize\n      0x00\n      dup1\n      returndatacopy\n      revert(0x00, returndatasize)\n    tag_37:\n      pop\n      pop\n      pop\n      pop\n      mload(0x40)\n      returndatasize\n      not(0x1f)\n      0x1f\n      dup3\n      add\n      and\n      dup3\n      add\n      dup1\n      0x40\n      mstore\n      pop\n      dup2\n      add\n      swap1\n      tag_38\n      swap2\n      swap1\n      tag_30\n      jump\t// in\n    tag_38:\n      pop\n        /* \"week5/TestExternal.sol\":456:625  {... */\n      pop\n        /* \"week5/TestExternal.sol\":386:625  function testCallExternalSelf(address bcTokenAddress,uint m) external {... */\n      pop\n      pop\n      jump\t// out\n        /* \"#utility.yul\":7:133   */\n    tag_39:\n        /* \"#utility.yul\":44:51   */\n      0x00\n        /* \"#utility.yul\":84:126   */\n      0xffffffffffffffffffffffffffffffffffffffff\n        /* \"#utility.yul\":77:82   */\n      dup3\n        /* \"#utility.yul\":73:127   */\n      and\n        /* \"#utility.yul\":62:127   */\n      swap1\n      pop\n        /* \"#utility.yul\":7:133   */\n      swap2\n      swap1\n      pop\n      jump\t// out\n        /* \"#utility.yul\":139:235   */\n    tag_40:\n        /* \"#utility.yul\":176:183   */\n      0x00\n        /* \"#utility.yul\":205:229   */\n      tag_62\n        /* \"#utility.yul\":223:228   */\n      dup3\n        /* \"#utility.yul\":205:229   */\n      tag_39\n      jump\t// in\n    tag_62:\n        /* \"#utility.yul\":194:229   */\n      swap1\n      pop\n        /* \"#utility.yul\":139:235   */\n      swap2\n      swap1\n      pop\n      jump\t// out\n        /* \"#utility.yul\":241:359   */\n    tag_41:\n        /* \"#utility.yul\":328:352   */\n      tag_64\n        /* \"#utility.yul\":346:351   */\n      dup2\n        /* \"#utility.yul\":328:352   */\n      tag_40\n      jump\t// in\n    tag_64:\n        /* \"#utility.yul\":323:326   */\n      dup3\n        /* \"#utility.yul\":316:353   */\n      mstore\n        /* \"#utility.yul\":241:359   */\n      pop\n      pop\n      jump\t// out\n        /* \"#utility.yul\":365:587   */\n    tag_10:\n        /* \"#utility.yul\":458:462   */\n      0x00\n        /* \"#utility.yul\":496:498   */\n      0x20\n        /* \"#utility.yul\":485:494   */\n      dup3\n        /* \"#utility.yul\":481:499   */\n      add\n        /* \"#utility.yul\":473:499   */\n      swap1\n      pop\n        /* \"#utility.yul\":509:580   */\n      tag_66\n        /* \"#utility.yul\":577:578   */\n      0x00\n        /* \"#utility.yul\":566:575   */\n      dup4\n        /* \"#utility.yul\":562:579   */\n      add\n        /* \"#utility.yul\":553:559   */\n      dup5\n        /* \"#utility.yul\":509:580   */\n      tag_41\n      jump\t// in\n    tag_66:\n        /* \"#utility.yul\":365:587   */\n      swap3\n      swap2\n      pop\n      pop\n      jump\t// out\n        /* \"#utility.yul\":674:791   */\n    tag_43:\n        /* \"#utility.yul\":783:784   */\n      0x00\n        /* \"#utility.yul\":780:781   */\n      dup1\n        /* \"#utility.yul\":773:785   */\n      revert\n        /* \"#utility.yul\":920:997   */\n    tag_45:\n        /* \"#utility.yul\":957:964   */\n      0x00\n        /* \"#utility.yul\":986:991   */\n      dup2\n        /* \"#utility.yul\":975:991   */\n      swap1\n      pop\n        /* \"#utility.yul\":920:997   */\n      swap2\n      swap1\n      pop\n      jump\t// out\n        /* \"#utility.yul\":1003:1125   */\n    tag_46:\n        /* \"#utility.yul\":1076:1100   */\n      tag_72\n        /* \"#utility.yul\":1094:1099   */\n      dup2\n        /* \"#utility.yul\":1076:1100   */\n      tag_45\n      jump\t// in\n    tag_72:\n        /* \"#utility.yul\":1069:1074   */\n      dup2\n        /* \"#utility.yul\":1066:1101   */\n      eq\n        /* \"#utility.yul\":1056:1119   */\n      tag_73\n      jumpi\n        /* \"#utility.yul\":1115:1116   */\n      0x00\n        /* \"#utility.yul\":1112:1113   */\n      dup1\n        /* \"#utility.yul\":1105:1117   */\n      revert\n        /* \"#utility.yul\":1056:1119   */\n    tag_73:\n        /* \"#utility.yul\":1003:1125   */\n      pop\n      jump\t// out\n        /* \"#utility.yul\":1131:1270   */\n    tag_47:\n        /* \"#utility.yul\":1177:1182   */\n      0x00\n        /* \"#utility.yul\":1215:1221   */\n      dup2\n        /* \"#utility.yul\":1202:1222   */\n      calldataload\n        /* \"#utility.yul\":1193:1222   */\n      swap1\n      pop\n        /* \"#utility.yul\":1231:1264   */\n      tag_75\n        /* \"#utility.yul\":1258:1263   */\n      dup2\n        /* \"#utility.yul\":1231:1264   */\n      tag_46\n      jump\t// in\n    tag_75:\n        /* \"#utility.yul\":1131:1270   */\n      swap3\n      swap2\n      pop\n      pop\n      jump\t// out\n        /* \"#utility.yul\":1276:1605   */\n    tag_13:\n        /* \"#utility.yul\":1335:1341   */\n      0x00\n        /* \"#utility.yul\":1384:1386   */\n      0x20\n        /* \"#utility.yul\":1372:1381   */\n      dup3\n        /* \"#utility.yul\":1363:1370   */\n      dup5\n        /* \"#utility.yul\":1359:1382   */\n      sub\n        /* \"#utility.yul\":1355:1387   */\n      slt\n        /* \"#utility.yul\":1352:1471   */\n      iszero\n      tag_77\n      jumpi\n        /* \"#utility.yul\":1390:1469   */\n      tag_78\n      tag_43\n      jump\t// in\n    tag_78:\n        /* \"#utility.yul\":1352:1471   */\n    tag_77:\n        /* \"#utility.yul\":1510:1511   */\n      0x00\n        /* \"#utility.yul\":1535:1588   */\n      tag_79\n        /* \"#utility.yul\":1580:1587   */\n      dup5\n        /* \"#utility.yul\":1571:1577   */\n      dup3\n        /* \"#utility.yul\":1560:1569   */\n      dup6\n        /* \"#utility.yul\":1556:1578   */\n      add\n        /* \"#utility.yul\":1535:1588   */\n      tag_47\n      jump\t// in\n    tag_79:\n        /* \"#utility.yul\":1525:1588   */\n      swap2\n      pop\n        /* \"#utility.yul\":1481:1598   */\n      pop\n        /* \"#utility.yul\":1276:1605   */\n      swap3\n      swap2\n      pop\n      pop\n      jump\t// out\n        /* \"#utility.yul\":1611:1733   */\n    tag_48:\n        /* \"#utility.yul\":1684:1708   */\n      tag_81\n        /* \"#utility.yul\":1702:1707   */\n      dup2\n        /* \"#utility.yul\":1684:1708   */\n      tag_40\n      jump\t// in\n    tag_81:\n        /* \"#utility.yul\":1677:1682   */\n      dup2\n        /* \"#utility.yul\":1674:1709   */\n      eq\n        /* \"#utility.yul\":1664:1727   */\n      tag_82\n      jumpi\n        /* \"#utility.yul\":1723:1724   */\n      0x00\n        /* \"#utility.yul\":1720:1721   */\n      dup1\n        /* \"#utility.yul\":1713:1725   */\n      revert\n        /* \"#utility.yul\":1664:1727   */\n    tag_82:\n        /* \"#utility.yul\":1611:1733   */\n      pop\n      jump\t// out\n        /* \"#utility.yul\":1739:1878   */\n    tag_49:\n        /* \"#utility.yul\":1785:1790   */\n      0x00\n        /* \"#utility.yul\":1823:1829   */\n      dup2\n        /* \"#utility.yul\":1810:1830   */\n      calldataload\n        /* \"#utility.yul\":1801:1830   */\n      swap1\n      pop\n        /* \"#utility.yul\":1839:1872   */\n      tag_84\n        /* \"#utility.yul\":1866:1871   */\n      dup2\n        /* \"#utility.yul\":1839:1872   */\n      tag_48\n      jump\t// in\n    tag_84:\n        /* \"#utility.yul\":1739:1878   */\n      swap3\n      swap2\n      pop\n      pop\n      jump\t// out\n        /* \"#utility.yul\":1884:2358   */\n    tag_17:\n        /* \"#utility.yul\":1952:1958   */\n      0x00\n        /* \"#utility.yul\":1960:1966   */\n      dup1\n        /* \"#utility.yul\":2009:2011   */\n      0x40\n        /* \"#utility.yul\":1997:2006   */\n      dup4\n        /* \"#utility.yul\":1988:1995   */\n      dup6\n        /* \"#utility.yul\":1984:2007   */\n      sub\n        /* \"#utility.yul\":1980:2012   */\n      slt\n        /* \"#utility.yul\":1977:2096   */\n      iszero\n      tag_86\n      jumpi\n        /* \"#utility.yul\":2015:2094   */\n      tag_87\n      tag_43\n      jump\t// in\n    tag_87:\n        /* \"#utility.yul\":1977:2096   */\n    tag_86:\n        /* \"#utility.yul\":2135:2136   */\n      0x00\n        /* \"#utility.yul\":2160:2213   */\n      tag_88\n        /* \"#utility.yul\":2205:2212   */\n      dup6\n        /* \"#utility.yul\":2196:2202   */\n      dup3\n        /* \"#utility.yul\":2185:2194   */\n      dup7\n        /* \"#utility.yul\":2181:2203   */\n      add\n        /* \"#utility.yul\":2160:2213   */\n      tag_49\n      jump\t// in\n    tag_88:\n        /* \"#utility.yul\":2150:2213   */\n      swap3\n      pop\n        /* \"#utility.yul\":2106:2223   */\n      pop\n        /* \"#utility.yul\":2262:2264   */\n      0x20\n        /* \"#utility.yul\":2288:2341   */\n      tag_89\n        /* \"#utility.yul\":2333:2340   */\n      dup6\n        /* \"#utility.yul\":2324:2330   */\n      dup3\n        /* \"#utility.yul\":2313:2322   */\n      dup7\n        /* \"#utility.yul\":2309:2331   */\n      add\n        /* \"#utility.yul\":2288:2341   */\n      tag_47\n      jump\t// in\n    tag_89:\n        /* \"#utility.yul\":2278:2341   */\n      swap2\n      pop\n        /* \"#utility.yul\":2233:2351   */\n      pop\n        /* \"#utility.yul\":1884:2358   */\n      swap3\n      pop\n      swap3\n      swap1\n      pop\n      jump\t// out\n        /* \"#utility.yul\":2364:2462   */\n    tag_50:\n        /* \"#utility.yul\":2415:2421   */\n      0x00\n        /* \"#utility.yul\":2449:2454   */\n      dup2\n        /* \"#utility.yul\":2443:2455   */\n      mload\n        /* \"#utility.yul\":2433:2455   */\n      swap1\n      pop\n        /* \"#utility.yul\":2364:2462   */\n      swap2\n      swap1\n      pop\n      jump\t// out\n        /* \"#utility.yul\":2468:2636   */\n    tag_51:\n        /* \"#utility.yul\":2551:2562   */\n      0x00\n        /* \"#utility.yul\":2585:2591   */\n      dup3\n        /* \"#utility.yul\":2580:2583   */\n      dup3\n        /* \"#utility.yul\":2573:2592   */\n      mstore\n        /* \"#utility.yul\":2625:2629   */\n      0x20\n        /* \"#utility.yul\":2620:2623   */\n      dup3\n        /* \"#utility.yul\":2616:2630   */\n      add\n        /* \"#utility.yul\":2601:2630   */\n      swap1\n      pop\n        /* \"#utility.yul\":2468:2636   */\n      swap3\n      swap2\n      pop\n      pop\n      jump\t// out\n        /* \"#utility.yul\":2642:2888   */\n    tag_52:\n        /* \"#utility.yul\":2723:2724   */\n      0x00\n        /* \"#utility.yul\":2733:2846   */\n    tag_93:\n        /* \"#utility.yul\":2747:2753   */\n      dup4\n        /* \"#utility.yul\":2744:2745   */\n      dup2\n        /* \"#utility.yul\":2741:2754   */\n      lt\n        /* \"#utility.yul\":2733:2846   */\n      iszero\n      tag_95\n      jumpi\n        /* \"#utility.yul\":2832:2833   */\n      dup1\n        /* \"#utility.yul\":2827:2830   */\n      dup3\n        /* \"#utility.yul\":2823:2834   */\n      add\n        /* \"#utility.yul\":2817:2835   */\n      mload\n        /* \"#utility.yul\":2813:2814   */\n      dup2\n        /* \"#utility.yul\":2808:2811   */\n      dup5\n        /* \"#utility.yul\":2804:2815   */\n      add\n        /* \"#utility.yul\":2797:2836   */\n      mstore\n        /* \"#utility.yul\":2769:2771   */\n      0x20\n        /* \"#utility.yul\":2766:2767   */\n      dup2\n        /* \"#utility.yul\":2762:2772   */\n      add\n        /* \"#utility.yul\":2757:2772   */\n      swap1\n      pop\n        /* \"#utility.yul\":2733:2846   */\n      jump(tag_93)\n    tag_95:\n        /* \"#utility.yul\":2880:2881   */\n      0x00\n        /* \"#utility.yul\":2871:2877   */\n      dup5\n        /* \"#utility.yul\":2866:2869   */\n      dup5\n        /* \"#utility.yul\":2862:2878   */\n      add\n        /* \"#utility.yul\":2855:2882   */\n      mstore\n        /* \"#utility.yul\":2704:2888   */\n      pop\n        /* \"#utility.yul\":2642:2888   */\n      pop\n      pop\n      pop\n      jump\t// out\n        /* \"#utility.yul\":2894:2996   */\n    tag_53:\n        /* \"#utility.yul\":2935:2941   */\n      0x00\n        /* \"#utility.yul\":2986:2988   */\n      0x1f\n        /* \"#utility.yul\":2982:2989   */\n      not\n        /* \"#utility.yul\":2977:2979   */\n      0x1f\n        /* \"#utility.yul\":2970:2975   */\n      dup4\n        /* \"#utility.yul\":2966:2980   */\n      add\n        /* \"#utility.yul\":2962:2990   */\n      and\n        /* \"#utility.yul\":2952:2990   */\n      swap1\n      pop\n        /* \"#utility.yul\":2894:2996   */\n      swap2\n      swap1\n      pop\n      jump\t// out\n        /* \"#utility.yul\":3002:3375   */\n    tag_54:\n        /* \"#utility.yul\":3088:3091   */\n      0x00\n        /* \"#utility.yul\":3116:3154   */\n      tag_98\n        /* \"#utility.yul\":3148:3153   */\n      dup3\n        /* \"#utility.yul\":3116:3154   */\n      tag_50\n      jump\t// in\n    tag_98:\n        /* \"#utility.yul\":3170:3240   */\n      tag_99\n        /* \"#utility.yul\":3233:3239   */\n      dup2\n        /* \"#utility.yul\":3228:3231   */\n      dup6\n        /* \"#utility.yul\":3170:3240   */\n      tag_51\n      jump\t// in\n    tag_99:\n        /* \"#utility.yul\":3163:3240   */\n      swap4\n      pop\n        /* \"#utility.yul\":3249:3314   */\n      tag_100\n        /* \"#utility.yul\":3307:3313   */\n      dup2\n        /* \"#utility.yul\":3302:3305   */\n      dup6\n        /* \"#utility.yul\":3295:3299   */\n      0x20\n        /* \"#utility.yul\":3288:3293   */\n      dup7\n        /* \"#utility.yul\":3284:3300   */\n      add\n        /* \"#utility.yul\":3249:3314   */\n      tag_52\n      jump\t// in\n    tag_100:\n        /* \"#utility.yul\":3339:3368   */\n      tag_101\n        /* \"#utility.yul\":3361:3367   */\n      dup2\n        /* \"#utility.yul\":3339:3368   */\n      tag_53\n      jump\t// in\n    tag_101:\n        /* \"#utility.yul\":3334:3337   */\n      dup5\n        /* \"#utility.yul\":3330:3369   */\n      add\n        /* \"#utility.yul\":3323:3369   */\n      swap2\n      pop\n        /* \"#utility.yul\":3092:3375   */\n      pop\n        /* \"#utility.yul\":3002:3375   */\n      swap3\n      swap2\n      pop\n      pop\n      jump\t// out\n        /* \"#utility.yul\":3381:3690   */\n    tag_20:\n        /* \"#utility.yul\":3492:3496   */\n      0x00\n        /* \"#utility.yul\":3530:3532   */\n      0x20\n        /* \"#utility.yul\":3519:3528   */\n      dup3\n        /* \"#utility.yul\":3515:3533   */\n      add\n        /* \"#utility.yul\":3507:3533   */\n      swap1\n      pop\n        /* \"#utility.yul\":3579:3588   */\n      dup2\n        /* \"#utility.yul\":3573:3577   */\n      dup2\n        /* \"#utility.yul\":3569:3589   */\n      sub\n        /* \"#utility.yul\":3565:3566   */\n      0x00\n        /* \"#utility.yul\":3554:3563   */\n      dup4\n        /* \"#utility.yul\":3550:3567   */\n      add\n        /* \"#utility.yul\":3543:3590   */\n      mstore\n        /* \"#utility.yul\":3607:3683   */\n      tag_103\n        /* \"#utility.yul\":3678:3682   */\n      dup2\n        /* \"#utility.yul\":3669:3675   */\n      dup5\n        /* \"#utility.yul\":3607:3683   */\n      tag_54\n      jump\t// in\n    tag_103:\n        /* \"#utility.yul\":3599:3683   */\n      swap1\n      pop\n        /* \"#utility.yul\":3381:3690   */\n      swap3\n      swap2\n      pop\n      pop\n      jump\t// out\n        /* \"#utility.yul\":3696:3814   */\n    tag_55:\n        /* \"#utility.yul\":3783:3807   */\n      tag_105\n        /* \"#utility.yul\":3801:3806   */\n      dup2\n        /* \"#utility.yul\":3783:3807   */\n      tag_45\n      jump\t// in\n    tag_105:\n        /* \"#utility.yul\":3778:3781   */\n      dup3\n        /* \"#utility.yul\":3771:3808   */\n      mstore\n        /* \"#utility.yul\":3696:3814   */\n      pop\n      pop\n      jump\t// out\n        /* \"#utility.yul\":3820:4262   */\n    tag_26:\n        /* \"#utility.yul\":3969:3973   */\n      0x00\n        /* \"#utility.yul\":4007:4009   */\n      0x60\n        /* \"#utility.yul\":3996:4005   */\n      dup3\n        /* \"#utility.yul\":3992:4010   */\n      add\n        /* \"#utility.yul\":3984:4010   */\n      swap1\n      pop\n        /* \"#utility.yul\":4020:4091   */\n      tag_107\n        /* \"#utility.yul\":4088:4089   */\n      0x00\n        /* \"#utility.yul\":4077:4086   */\n      dup4\n        /* \"#utility.yul\":4073:4090   */\n      add\n        /* \"#utility.yul\":4064:4070   */\n      dup7\n        /* \"#utility.yul\":4020:4091   */\n      tag_41\n      jump\t// in\n    tag_107:\n        /* \"#utility.yul\":4101:4173   */\n      tag_108\n        /* \"#utility.yul\":4169:4171   */\n      0x20\n        /* \"#utility.yul\":4158:4167   */\n      dup4\n        /* \"#utility.yul\":4154:4172   */\n      add\n        /* \"#utility.yul\":4145:4151   */\n      dup6\n        /* \"#utility.yul\":4101:4173   */\n      tag_41\n      jump\t// in\n    tag_108:\n        /* \"#utility.yul\":4183:4255   */\n      tag_109\n        /* \"#utility.yul\":4251:4253   */\n      0x40\n        /* \"#utility.yul\":4240:4249   */\n      dup4\n        /* \"#utility.yul\":4236:4254   */\n      add\n        /* \"#utility.yul\":4227:4233   */\n      dup5\n        /* \"#utility.yul\":4183:4255   */\n      tag_55\n      jump\t// in\n    tag_109:\n        /* \"#utility.yul\":3820:4262   */\n      swap5\n      swap4\n      pop\n      pop\n      pop\n      pop\n      jump\t// out\n        /* \"#utility.yul\":4268:4358   */\n    tag_56:\n        /* \"#utility.yul\":4302:4309   */\n      0x00\n        /* \"#utility.yul\":4345:4350   */\n      dup2\n        /* \"#utility.yul\":4338:4351   */\n      iszero\n        /* \"#utility.yul\":4331:4352   */\n      iszero\n        /* \"#utility.yul\":4320:4352   */\n      swap1\n      pop\n        /* \"#utility.yul\":4268:4358   */\n      swap2\n      swap1\n      pop\n      jump\t// out\n        /* \"#utility.yul\":4364:4480   */\n    tag_57:\n        /* \"#utility.yul\":4434:4455   */\n      tag_112\n        /* \"#utility.yul\":4449:4454   */\n      dup2\n        /* \"#utility.yul\":4434:4455   */\n      tag_56\n      jump\t// in\n    tag_112:\n        /* \"#utility.yul\":4427:4432   */\n      dup2\n        /* \"#utility.yul\":4424:4456   */\n      eq\n        /* \"#utility.yul\":4414:4474   */\n      tag_113\n      jumpi\n        /* \"#utility.yul\":4470:4471   */\n      0x00\n        /* \"#utility.yul\":4467:4468   */\n      dup1\n        /* \"#utility.yul\":4460:4472   */\n      revert\n        /* \"#utility.yul\":4414:4474   */\n    tag_113:\n        /* \"#utility.yul\":4364:4480   */\n      pop\n      jump\t// out\n        /* \"#utility.yul\":4486:4623   */\n    tag_58:\n        /* \"#utility.yul\":4540:4545   */\n      0x00\n        /* \"#utility.yul\":4571:4577   */\n      dup2\n        /* \"#utility.yul\":4565:4578   */\n      mload\n        /* \"#utility.yul\":4556:4578   */\n      swap1\n      pop\n        /* \"#utility.yul\":4587:4617   */\n      tag_115\n        /* \"#utility.yul\":4611:4616   */\n      dup2\n        /* \"#utility.yul\":4587:4617   */\n      tag_57\n      jump\t// in\n    tag_115:\n        /* \"#utility.yul\":4486:4623   */\n      swap3\n      swap2\n      pop\n      pop\n      jump\t// out\n        /* \"#utility.yul\":4629:4974   */\n    tag_30:\n        /* \"#utility.yul\":4696:4702   */\n      0x00\n        /* \"#utility.yul\":4745:4747   */\n      0x20\n        /* \"#utility.yul\":4733:4742   */\n      dup3\n        /* \"#utility.yul\":4724:4731   */\n      dup5\n        /* \"#utility.yul\":4720:4743   */\n      sub\n        /* \"#utility.yul\":4716:4748   */\n      slt\n        /* \"#utility.yul\":4713:4832   */\n      iszero\n      tag_117\n      jumpi\n        /* \"#utility.yul\":4751:4830   */\n      tag_118\n      tag_43\n      jump\t// in\n    tag_118:\n        /* \"#utility.yul\":4713:4832   */\n    tag_117:\n        /* \"#utility.yul\":4871:4872   */\n      0x00\n        /* \"#utility.yul\":4896:4957   */\n      tag_119\n        /* \"#utility.yul\":4949:4956   */\n      dup5\n        /* \"#utility.yul\":4940:4946   */\n      dup3\n        /* \"#utility.yul\":4929:4938   */\n      dup6\n        /* \"#utility.yul\":4925:4947   */\n      add\n        /* \"#utility.yul\":4896:4957   */\n      tag_58\n      jump\t// in\n    tag_119:\n        /* \"#utility.yul\":4886:4957   */\n      swap2\n      pop\n        /* \"#utility.yul\":4842:4967   */\n      pop\n        /* \"#utility.yul\":4629:4974   */\n      swap3\n      swap2\n      pop\n      pop\n      jump\t// out\n        /* \"#utility.yul\":4980:5312   */\n    tag_33:\n        /* \"#utility.yul\":5101:5105   */\n      0x00\n        /* \"#utility.yul\":5139:5141   */\n      0x40\n        /* \"#utility.yul\":5128:5137   */\n      dup3\n        /* \"#utility.yul\":5124:5142   */\n      add\n        /* \"#utility.yul\":5116:5142   */\n      swap1\n      pop\n        /* \"#utility.yul\":5152:5223   */\n      tag_121\n        /* \"#utility.yul\":5220:5221   */\n      0x00\n        /* \"#utility.yul\":5209:5218   */\n      dup4\n        /* \"#utility.yul\":5205:5222   */\n      add\n        /* \"#utility.yul\":5196:5202   */\n      dup6\n        /* \"#utility.yul\":5152:5223   */\n      tag_41\n      jump\t// in\n    tag_121:\n        /* \"#utility.yul\":5233:5305   */\n      tag_122\n        /* \"#utility.yul\":5301:5303   */\n      0x20\n        /* \"#utility.yul\":5290:5299   */\n      dup4\n        /* \"#utility.yul\":5286:5304   */\n      add\n        /* \"#utility.yul\":5277:5283   */\n      dup5\n        /* \"#utility.yul\":5233:5305   */\n      tag_55\n      jump\t// in\n    tag_122:\n        /* \"#utility.yul\":4980:5312   */\n      swap4\n      swap3\n      pop\n      pop\n      pop\n      jump\t// out\n\n    auxdata: 0xa2646970667358221220786ab0fd3b00b843fdc896f529edc596e216dce9a49f4d6b5e1fa1ea3010e86664736f6c63430008150033\n}\n",
				"bytecode": {
					"linkReferences": {},
					"object": "608060405234801561000f575f80fd5b5060405161073b38038061073b833981810160405281019061003191906100d4565b805f806101000a81548173ffffffffffffffffffffffffffffffffffffffff021916908373ffffffffffffffffffffffffffffffffffffffff160217905550506100ff565b5f80fd5b5f73ffffffffffffffffffffffffffffffffffffffff82169050919050565b5f6100a38261007a565b9050919050565b6100b381610099565b81146100bd575f80fd5b50565b5f815190506100ce816100aa565b92915050565b5f602082840312156100e9576100e8610076565b5b5f6100f6848285016100c0565b91505092915050565b61062f8061010c5f395ff3fe608060405234801561000f575f80fd5b506004361061004a575f3560e01c806367e404ce1461004e57806374b6b7211461006c5780637e3b06fb14610088578063fe443107146100b8575b5f80fd5b6100566100d4565b60405161006391906103a1565b60405180910390f35b610086600480360381019061008191906103f1565b6100f9565b005b6100a2600480360381019061009d9190610446565b6101ed565b6040516100af919061050e565b60405180910390f35b6100d260048036038101906100cd9190610446565b610287565b005b60015f9054906101000a900473ffffffffffffffffffffffffffffffffffffffff1681565b3360015f6101000a81548173ffffffffffffffffffffffffffffffffffffffff021916908373ffffffffffffffffffffffffffffffffffffffff1602179055505f8054906101000a900473ffffffffffffffffffffffffffffffffffffffff1673ffffffffffffffffffffffffffffffffffffffff166323b872dd3373ab8483f64d9c6d1ecf9b849ae677dd3315835cb2846040518463ffffffff1660e01b81526004016101a99392919061053d565b6020604051808303815f875af11580156101c5573d5f803e3d5ffd5b505050506040513d601f19601f820116820180604052508101906101e991906105a7565b5050565b606082826040516024016102029291906105d2565b6040516020818303038152906040527fa9059cbb000000000000000000000000000000000000000000000000000000007bffffffffffffffffffffffffffffffffffffffffffffffffffffffff19166020820180517bffffffffffffffffffffffffffffffffffffffffffffffffffffffff8381831617835250505050905092915050565b3360015f6101000a81548173ffffffffffffffffffffffffffffffffffffffff021916908373ffffffffffffffffffffffffffffffffffffffff1602179055505f8290508073ffffffffffffffffffffffffffffffffffffffff166323b872dd3373ab8483f64d9c6d1ecf9b849ae677dd3315835cb2856040518463ffffffff1660e01b815260040161031c9392919061053d565b6020604051808303815f875af1158015610338573d5f803e3d5ffd5b505050506040513d601f19601f8201168201806040525081019061035c91906105a7565b50505050565b5f73ffffffffffffffffffffffffffffffffffffffff82169050919050565b5f61038b82610362565b9050919050565b61039b81610381565b82525050565b5f6020820190506103b45f830184610392565b92915050565b5f80fd5b5f819050919050565b6103d0816103be565b81146103da575f80fd5b50565b5f813590506103eb816103c7565b92915050565b5f60208284031215610406576104056103ba565b5b5f610413848285016103dd565b91505092915050565b61042581610381565b811461042f575f80fd5b50565b5f813590506104408161041c565b92915050565b5f806040838503121561045c5761045b6103ba565b5b5f61046985828601610432565b925050602061047a858286016103dd565b9150509250929050565b5f81519050919050565b5f82825260208201905092915050565b5f5b838110156104bb5780820151818401526020810190506104a0565b5f8484015250505050565b5f601f19601f8301169050919050565b5f6104e082610484565b6104ea818561048e565b93506104fa81856020860161049e565b610503816104c6565b840191505092915050565b5f6020820190508181035f83015261052681846104d6565b905092915050565b610537816103be565b82525050565b5f6060820190506105505f830186610392565b61055d6020830185610392565b61056a604083018461052e565b949350505050565b5f8115159050919050565b61058681610572565b8114610590575f80fd5b50565b5f815190506105a18161057d565b92915050565b5f602082840312156105bc576105bb6103ba565b5b5f6105c984828501610593565b91505092915050565b5f6040820190506105e55f830185610392565b6105f2602083018461052e565b939250505056fea2646970667358221220786ab0fd3b00b843fdc896f529edc596e216dce9a49f4d6b5e1fa1ea3010e86664736f6c63430008150033",
					"opcodes": "PUSH1 0x80 PUSH1 0x40 MSTORE CALLVALUE DUP1 ISZERO PUSH2 0xF JUMPI PUSH0 DUP1 REVERT JUMPDEST POP PUSH1 0x40 MLOAD PUSH2 0x73B CODESIZE SUB DUP1 PUSH2 0x73B DUP4 CODECOPY DUP2 DUP2 ADD PUSH1 0x40 MSTORE DUP2 ADD SWAP1 PUSH2 0x31 SWAP2 SWAP1 PUSH2 0xD4 JUMP JUMPDEST DUP1 PUSH0 DUP1 PUSH2 0x100 EXP DUP2 SLOAD DUP2 PUSH20 0xFFFFFFFFFFFFFFFFFFFFFFFFFFFFFFFFFFFFFFFF MUL NOT AND SWAP1 DUP4 PUSH20 0xFFFFFFFFFFFFFFFFFFFFFFFFFFFFFFFFFFFFFFFF AND MUL OR SWAP1 SSTORE POP POP PUSH2 0xFF JUMP JUMPDEST PUSH0 DUP1 REVERT JUMPDEST PUSH0 PUSH20 0xFFFFFFFFFFFFFFFFFFFFFFFFFFFFFFFFFFFFFFFF DUP3 AND SWAP1 POP SWAP2 SWAP1 POP JUMP JUMPDEST PUSH0 PUSH2 0xA3 DUP3 PUSH2 0x7A JUMP JUMPDEST SWAP1 POP SWAP2 SWAP1 POP JUMP JUMPDEST PUSH2 0xB3 DUP2 PUSH2 0x99 JUMP JUMPDEST DUP2 EQ PUSH2 0xBD JUMPI PUSH0 DUP1 REVERT JUMPDEST POP JUMP JUMPDEST PUSH0 DUP2 MLOAD SWAP1 POP PUSH2 0xCE DUP2 PUSH2 0xAA JUMP JUMPDEST SWAP3 SWAP2 POP POP JUMP JUMPDEST PUSH0 PUSH1 0x20 DUP3 DUP5 SUB SLT ISZERO PUSH2 0xE9 JUMPI PUSH2 0xE8 PUSH2 0x76 JUMP JUMPDEST JUMPDEST PUSH0 PUSH2 0xF6 DUP5 DUP3 DUP6 ADD PUSH2 0xC0 JUMP JUMPDEST SWAP2 POP POP SWAP3 SWAP2 POP POP JUMP JUMPDEST PUSH2 0x62F DUP1 PUSH2 0x10C PUSH0 CODECOPY PUSH0 RETURN INVALID PUSH1 0x80 PUSH1 0x40 MSTORE CALLVALUE DUP1 ISZERO PUSH2 0xF JUMPI PUSH0 DUP1 REVERT JUMPDEST POP PUSH1 0x4 CALLDATASIZE LT PUSH2 0x4A JUMPI PUSH0 CALLDATALOAD PUSH1 0xE0 SHR DUP1 PUSH4 0x67E404CE EQ PUSH2 0x4E JUMPI DUP1 PUSH4 0x74B6B721 EQ PUSH2 0x6C JUMPI DUP1 PUSH4 0x7E3B06FB EQ PUSH2 0x88 JUMPI DUP1 PUSH4 0xFE443107 EQ PUSH2 0xB8 JUMPI JUMPDEST PUSH0 DUP1 REVERT JUMPDEST PUSH2 0x56 PUSH2 0xD4 JUMP JUMPDEST PUSH1 0x40 MLOAD PUSH2 0x63 SWAP2 SWAP1 PUSH2 0x3A1 JUMP JUMPDEST PUSH1 0x40 MLOAD DUP1 SWAP2 SUB SWAP1 RETURN JUMPDEST PUSH2 0x86 PUSH1 0x4 DUP1 CALLDATASIZE SUB DUP2 ADD SWAP1 PUSH2 0x81 SWAP2 SWAP1 PUSH2 0x3F1 JUMP JUMPDEST PUSH2 0xF9 JUMP JUMPDEST STOP JUMPDEST PUSH2 0xA2 PUSH1 0x4 DUP1 CALLDATASIZE SUB DUP2 ADD SWAP1 PUSH2 0x9D SWAP2 SWAP1 PUSH2 0x446 JUMP JUMPDEST PUSH2 0x1ED JUMP JUMPDEST PUSH1 0x40 MLOAD PUSH2 0xAF SWAP2 SWAP1 PUSH2 0x50E JUMP JUMPDEST PUSH1 0x40 MLOAD DUP1 SWAP2 SUB SWAP1 RETURN JUMPDEST PUSH2 0xD2 PUSH1 0x4 DUP1 CALLDATASIZE SUB DUP2 ADD SWAP1 PUSH2 0xCD SWAP2 SWAP1 PUSH2 0x446 JUMP JUMPDEST PUSH2 0x287 JUMP JUMPDEST STOP JUMPDEST PUSH1 0x1 PUSH0 SWAP1 SLOAD SWAP1 PUSH2 0x100 EXP SWAP1 DIV PUSH20 0xFFFFFFFFFFFFFFFFFFFFFFFFFFFFFFFFFFFFFFFF AND DUP2 JUMP JUMPDEST CALLER PUSH1 0x1 PUSH0 PUSH2 0x100 EXP DUP2 SLOAD DUP2 PUSH20 0xFFFFFFFFFFFFFFFFFFFFFFFFFFFFFFFFFFFFFFFF MUL NOT AND SWAP1 DUP4 PUSH20 0xFFFFFFFFFFFFFFFFFFFFFFFFFFFFFFFFFFFFFFFF AND MUL OR SWAP1 SSTORE POP PUSH0 DUP1 SLOAD SWAP1 PUSH2 0x100 EXP SWAP1 DIV PUSH20 0xFFFFFFFFFFFFFFFFFFFFFFFFFFFFFFFFFFFFFFFF AND PUSH20 0xFFFFFFFFFFFFFFFFFFFFFFFFFFFFFFFFFFFFFFFF AND PUSH4 0x23B872DD CALLER PUSH20 0xAB8483F64D9C6D1ECF9B849AE677DD3315835CB2 DUP5 PUSH1 0x40 MLOAD DUP5 PUSH4 0xFFFFFFFF AND PUSH1 0xE0 SHL DUP2 MSTORE PUSH1 0x4 ADD PUSH2 0x1A9 SWAP4 SWAP3 SWAP2 SWAP1 PUSH2 0x53D JUMP JUMPDEST PUSH1 0x20 PUSH1 0x40 MLOAD DUP1 DUP4 SUB DUP2 PUSH0 DUP8 GAS CALL ISZERO DUP1 ISZERO PUSH2 0x1C5 JUMPI RETURNDATASIZE PUSH0 DUP1 RETURNDATACOPY RETURNDATASIZE PUSH0 REVERT JUMPDEST POP POP POP POP PUSH1 0x40 MLOAD RETURNDATASIZE PUSH1 0x1F NOT PUSH1 0x1F DUP3 ADD AND DUP3 ADD DUP1 PUSH1 0x40 MSTORE POP DUP2 ADD SWAP1 PUSH2 0x1E9 SWAP2 SWAP1 PUSH2 0x5A7 JUMP JUMPDEST POP POP JUMP JUMPDEST PUSH1 0x60 DUP3 DUP3 PUSH1 0x40 MLOAD PUSH1 0x24 ADD PUSH2 0x202 SWAP3 SWAP2 SWAP1 PUSH2 0x5D2 JUMP JUMPDEST PUSH1 0x40 MLOAD PUSH1 0x20 DUP2 DUP4 SUB SUB DUP2 MSTORE SWAP1 PUSH1 0x40 MSTORE PUSH32 0xA9059CBB00000000000000000000000000000000000000000000000000000000 PUSH28 0xFFFFFFFFFFFFFFFFFFFFFFFFFFFFFFFFFFFFFFFFFFFFFFFFFFFFFFFF NOT AND PUSH1 0x20 DUP3 ADD DUP1 MLOAD PUSH28 0xFFFFFFFFFFFFFFFFFFFFFFFFFFFFFFFFFFFFFFFFFFFFFFFFFFFFFFFF DUP4 DUP2 DUP4 AND OR DUP4 MSTORE POP POP POP POP SWAP1 POP SWAP3 SWAP2 POP POP JUMP JUMPDEST CALLER PUSH1 0x1 PUSH0 PUSH2 0x100 EXP DUP2 SLOAD DUP2 PUSH20 0xFFFFFFFFFFFFFFFFFFFFFFFFFFFFFFFFFFFFFFFF MUL NOT AND SWAP1 DUP4 PUSH20 0xFFFFFFFFFFFFFFFFFFFFFFFFFFFFFFFFFFFFFFFF AND MUL OR SWAP1 SSTORE POP PUSH0 DUP3 SWAP1 POP DUP1 PUSH20 0xFFFFFFFFFFFFFFFFFFFFFFFFFFFFFFFFFFFFFFFF AND PUSH4 0x23B872DD CALLER PUSH20 0xAB8483F64D9C6D1ECF9B849AE677DD3315835CB2 DUP6 PUSH1 0x40 MLOAD DUP5 PUSH4 0xFFFFFFFF AND PUSH1 0xE0 SHL DUP2 MSTORE PUSH1 0x4 ADD PUSH2 0x31C SWAP4 SWAP3 SWAP2 SWAP1 PUSH2 0x53D JUMP JUMPDEST PUSH1 0x20 PUSH1 0x40 MLOAD DUP1 DUP4 SUB DUP2 PUSH0 DUP8 GAS CALL ISZERO DUP1 ISZERO PUSH2 0x338 JUMPI RETURNDATASIZE PUSH0 DUP1 RETURNDATACOPY RETURNDATASIZE PUSH0 REVERT JUMPDEST POP POP POP POP PUSH1 0x40 MLOAD RETURNDATASIZE PUSH1 0x1F NOT PUSH1 0x1F DUP3 ADD AND DUP3 ADD DUP1 PUSH1 0x40 MSTORE POP DUP2 ADD SWAP1 PUSH2 0x35C SWAP2 SWAP1 PUSH2 0x5A7 JUMP JUMPDEST POP POP POP POP JUMP JUMPDEST PUSH0 PUSH20 0xFFFFFFFFFFFFFFFFFFFFFFFFFFFFFFFFFFFFFFFF DUP3 AND SWAP1 POP SWAP2 SWAP1 POP JUMP JUMPDEST PUSH0 PUSH2 0x38B DUP3 PUSH2 0x362 JUMP JUMPDEST SWAP1 POP SWAP2 SWAP1 POP JUMP JUMPDEST PUSH2 0x39B DUP2 PUSH2 0x381 JUMP JUMPDEST DUP3 MSTORE POP POP JUMP JUMPDEST PUSH0 PUSH1 0x20 DUP3 ADD SWAP1 POP PUSH2 0x3B4 PUSH0 DUP4 ADD DUP5 PUSH2 0x392 JUMP JUMPDEST SWAP3 SWAP2 POP POP JUMP JUMPDEST PUSH0 DUP1 REVERT JUMPDEST PUSH0 DUP2 SWAP1 POP SWAP2 SWAP1 POP JUMP JUMPDEST PUSH2 0x3D0 DUP2 PUSH2 0x3BE JUMP JUMPDEST DUP2 EQ PUSH2 0x3DA JUMPI PUSH0 DUP1 REVERT JUMPDEST POP JUMP JUMPDEST PUSH0 DUP2 CALLDATALOAD SWAP1 POP PUSH2 0x3EB DUP2 PUSH2 0x3C7 JUMP JUMPDEST SWAP3 SWAP2 POP POP JUMP JUMPDEST PUSH0 PUSH1 0x20 DUP3 DUP5 SUB SLT ISZERO PUSH2 0x406 JUMPI PUSH2 0x405 PUSH2 0x3BA JUMP JUMPDEST JUMPDEST PUSH0 PUSH2 0x413 DUP5 DUP3 DUP6 ADD PUSH2 0x3DD JUMP JUMPDEST SWAP2 POP POP SWAP3 SWAP2 POP POP JUMP JUMPDEST PUSH2 0x425 DUP2 PUSH2 0x381 JUMP JUMPDEST DUP2 EQ PUSH2 0x42F JUMPI PUSH0 DUP1 REVERT JUMPDEST POP JUMP JUMPDEST PUSH0 DUP2 CALLDATALOAD SWAP1 POP PUSH2 0x440 DUP2 PUSH2 0x41C JUMP JUMPDEST SWAP3 SWAP2 POP POP JUMP JUMPDEST PUSH0 DUP1 PUSH1 0x40 DUP4 DUP6 SUB SLT ISZERO PUSH2 0x45C JUMPI PUSH2 0x45B PUSH2 0x3BA JUMP JUMPDEST JUMPDEST PUSH0 PUSH2 0x469 DUP6 DUP3 DUP7 ADD PUSH2 0x432 JUMP JUMPDEST SWAP3 POP POP PUSH1 0x20 PUSH2 0x47A DUP6 DUP3 DUP7 ADD PUSH2 0x3DD JUMP JUMPDEST SWAP2 POP POP SWAP3 POP SWAP3 SWAP1 POP JUMP JUMPDEST PUSH0 DUP2 MLOAD SWAP1 POP SWAP2 SWAP1 POP JUMP JUMPDEST PUSH0 DUP3 DUP3 MSTORE PUSH1 0x20 DUP3 ADD SWAP1 POP SWAP3 SWAP2 POP POP JUMP JUMPDEST PUSH0 JUMPDEST DUP4 DUP2 LT ISZERO PUSH2 0x4BB JUMPI DUP1 DUP3 ADD MLOAD DUP2 DUP5 ADD MSTORE PUSH1 0x20 DUP2 ADD SWAP1 POP PUSH2 0x4A0 JUMP JUMPDEST PUSH0 DUP5 DUP5 ADD MSTORE POP POP POP POP JUMP JUMPDEST PUSH0 PUSH1 0x1F NOT PUSH1 0x1F DUP4 ADD AND SWAP1 POP SWAP2 SWAP1 POP JUMP JUMPDEST PUSH0 PUSH2 0x4E0 DUP3 PUSH2 0x484 JUMP JUMPDEST PUSH2 0x4EA DUP2 DUP6 PUSH2 0x48E JUMP JUMPDEST SWAP4 POP PUSH2 0x4FA DUP2 DUP6 PUSH1 0x20 DUP7 ADD PUSH2 0x49E JUMP JUMPDEST PUSH2 0x503 DUP2 PUSH2 0x4C6 JUMP JUMPDEST DUP5 ADD SWAP2 POP POP SWAP3 SWAP2 POP POP JUMP JUMPDEST PUSH0 PUSH1 0x20 DUP3 ADD SWAP1 POP DUP2 DUP2 SUB PUSH0 DUP4 ADD MSTORE PUSH2 0x526 DUP2 DUP5 PUSH2 0x4D6 JUMP JUMPDEST SWAP1 POP SWAP3 SWAP2 POP POP JUMP JUMPDEST PUSH2 0x537 DUP2 PUSH2 0x3BE JUMP JUMPDEST DUP3 MSTORE POP POP JUMP JUMPDEST PUSH0 PUSH1 0x60 DUP3 ADD SWAP1 POP PUSH2 0x550 PUSH0 DUP4 ADD DUP7 PUSH2 0x392 JUMP JUMPDEST PUSH2 0x55D PUSH1 0x20 DUP4 ADD DUP6 PUSH2 0x392 JUMP JUMPDEST PUSH2 0x56A PUSH1 0x40 DUP4 ADD DUP5 PUSH2 0x52E JUMP JUMPDEST SWAP5 SWAP4 POP POP POP POP JUMP JUMPDEST PUSH0 DUP2 ISZERO ISZERO SWAP1 POP SWAP2 SWAP1 POP JUMP JUMPDEST PUSH2 0x586 DUP2 PUSH2 0x572 JUMP JUMPDEST DUP2 EQ PUSH2 0x590 JUMPI PUSH0 DUP1 REVERT JUMPDEST POP JUMP JUMPDEST PUSH0 DUP2 MLOAD SWAP1 POP PUSH2 0x5A1 DUP2 PUSH2 0x57D JUMP JUMPDEST SWAP3 SWAP2 POP POP JUMP JUMPDEST PUSH0 PUSH1 0x20 DUP3 DUP5 SUB SLT ISZERO PUSH2 0x5BC JUMPI PUSH2 0x5BB PUSH2 0x3BA JUMP JUMPDEST JUMPDEST PUSH0 PUSH2 0x5C9 DUP5 DUP3 DUP6 ADD PUSH2 0x593 JUMP JUMPDEST SWAP2 POP POP SWAP3 SWAP2 POP POP JUMP JUMPDEST PUSH0 PUSH1 0x40 DUP3 ADD SWAP1 POP PUSH2 0x5E5 PUSH0 DUP4 ADD DUP6 PUSH2 0x392 JUMP JUMPDEST PUSH2 0x5F2 PUSH1 0x20 DUP4 ADD DUP5 PUSH2 0x52E JUMP JUMPDEST SWAP4 SWAP3 POP POP POP JUMP INVALID LOG2 PUSH5 0x6970667358 0x22 SLT KECCAK256 PUSH25 0x6AB0FD3B00B843FDC896F529EDC596E216DCE9A49F4D6B5E1F LOG1 0xEA ADDRESS LT 0xE8 PUSH7 0x64736F6C634300 ADDMOD ISZERO STOP CALLER "
				},
				"gasEstimates": {
					"creation": {
						"codeDepositCost": "316600",
						"executionCost": "infinite",
						"totalCost": "infinite"
					},
					"external": {
						"encodeWithSignature(address,uint256)": "infinite",
						"sender()": "2486",
						"testCallExternal(uint256)": "infinite",
						"testCallExternalSelf(address,uint256)": "infinite"
					}
				},
				"methodIdentifiers": {
					"encodeWithSignature(address,uint256)": "7e3b06fb",
					"sender()": "67e404ce",
					"testCallExternal(uint256)": "74b6b721",
					"testCallExternalSelf(address,uint256)": "fe443107"
				}
			},
			"storageLayout": {
				"storage": [
					{
						"astId": 4,
						"contract": "week5/TestExternal.sol:TestExternal",
						"label": "token",
						"offset": 0,
						"slot": "0",
						"type": "t_contract(IERC20)152"
					},
					{
						"astId": 6,
						"contract": "week5/TestExternal.sol:TestExternal",
						"label": "sender",
						"offset": 0,
						"slot": "1",
						"type": "t_address"
					}
				],
				"types": {
					"t_address": {
						"encoding": "inplace",
						"label": "address",
						"numberOfBytes": "20"
					},
					"t_contract(IERC20)152": {
						"encoding": "inplace",
						"label": "contract IERC20",
						"numberOfBytes": "20"
					}
				}
			},
			"userdoc": {
				"kind": "user",
				"methods": {},
				"version": 1
			}
		}
	}
}