{
	"week5/testABIEncode.sol": {
		"TestEncode": {
			"abi": [
				{
					"stateMutability": "payable",
					"type": "fallback"
				},
				{
					"inputs": [
						{
							"internalType": "bool",
							"name": "b",
							"type": "bool"
						},
						{
							"internalType": "uint256[]",
							"name": "arrUint",
							"type": "uint256[]"
						},
						{
							"internalType": "address",
							"name": "a",
							"type": "address"
						},
						{
							"internalType": "string",
							"name": "array",
							"type": "string"
						}
					],
					"name": "AppWorks",
					"outputs": [
						{
							"internalType": "bool",
							"name": "",
							"type": "bool"
						}
					],
					"stateMutability": "pure",
					"type": "function"
				},
				{
					"inputs": [],
					"name": "encode",
					"outputs": [
						{
							"internalType": "bytes",
							"name": "",
							"type": "bytes"
						}
					],
					"stateMutability": "pure",
					"type": "function"
				},
				{
					"inputs": [],
					"name": "encodeAddress",
					"outputs": [
						{
							"internalType": "bytes",
							"name": "",
							"type": "bytes"
						}
					],
					"stateMutability": "pure",
					"type": "function"
				},
				{
					"inputs": [],
					"name": "encodeAppworks",
					"outputs": [
						{
							"internalType": "bytes",
							"name": "",
							"type": "bytes"
						}
					],
					"stateMutability": "pure",
					"type": "function"
				},
				{
					"inputs": [
						{
							"internalType": "address",
							"name": "to",
							"type": "address"
						},
						{
							"internalType": "uint256",
							"name": "amount",
							"type": "uint256"
						}
					],
					"name": "encodeCall",
					"outputs": [
						{
							"internalType": "bytes",
							"name": "",
							"type": "bytes"
						}
					],
					"stateMutability": "pure",
					"type": "function"
				},
				{
					"inputs": [
						{
							"internalType": "string",
							"name": "s",
							"type": "string"
						}
					],
					"name": "encodeFunSelector",
					"outputs": [
						{
							"internalType": "bytes",
							"name": "",
							"type": "bytes"
						}
					],
					"stateMutability": "pure",
					"type": "function"
				},
				{
					"inputs": [],
					"name": "encodeOne",
					"outputs": [
						{
							"internalType": "bytes",
							"name": "",
							"type": "bytes"
						}
					],
					"stateMutability": "pure",
					"type": "function"
				},
				{
					"inputs": [],
					"name": "encodePackedAppworks",
					"outputs": [
						{
							"internalType": "bytes",
							"name": "",
							"type": "bytes"
						}
					],
					"stateMutability": "pure",
					"type": "function"
				},
				{
					"inputs": [],
					"name": "encodePackedAppworksV2",
					"outputs": [
						{
							"internalType": "bytes",
							"name": "",
							"type": "bytes"
						}
					],
					"stateMutability": "pure",
					"type": "function"
				},
				{
					"inputs": [
						{
							"internalType": "address",
							"name": "to",
							"type": "address"
						},
						{
							"internalType": "uint256",
							"name": "amount",
							"type": "uint256"
						}
					],
					"name": "encodeWithSelector",
					"outputs": [
						{
							"internalType": "bytes",
							"name": "",
							"type": "bytes"
						}
					],
					"stateMutability": "pure",
					"type": "function"
				},
				{
					"inputs": [
						{
							"internalType": "address",
							"name": "to",
							"type": "address"
						},
						{
							"internalType": "uint256",
							"name": "amount",
							"type": "uint256"
						}
					],
					"name": "encodeWithSignature",
					"outputs": [
						{
							"internalType": "bytes",
							"name": "",
							"type": "bytes"
						}
					],
					"stateMutability": "pure",
					"type": "function"
				},
				{
					"inputs": [
						{
							"internalType": "bool",
							"name": "b",
							"type": "bool"
						},
						{
							"internalType": "uint256[]",
							"name": "arrUint",
							"type": "uint256[]"
						},
						{
							"internalType": "address",
							"name": "a",
							"type": "address"
						},
						{
							"internalType": "string",
							"name": "array",
							"type": "string"
						}
					],
					"name": "encodeWithSignatureAppWorks",
					"outputs": [
						{
							"internalType": "bytes",
							"name": "",
							"type": "bytes"
						}
					],
					"stateMutability": "pure",
					"type": "function"
				},
				{
					"inputs": [],
					"name": "encodeWithSignatureSchool",
					"outputs": [
						{
							"internalType": "bytes",
							"name": "",
							"type": "bytes"
						}
					],
					"stateMutability": "pure",
					"type": "function"
				},
				{
					"inputs": [
						{
							"internalType": "bytes",
							"name": "data",
							"type": "bytes"
						}
					],
					"name": "testABIDecode",
					"outputs": [
						{
							"internalType": "string",
							"name": "arr",
							"type": "string"
						},
						{
							"internalType": "uint256",
							"name": "u",
							"type": "uint256"
						},
						{
							"internalType": "address",
							"name": "a",
							"type": "address"
						}
					],
					"stateMutability": "pure",
					"type": "function"
				},
				{
					"inputs": [
						{
							"internalType": "uint256",
							"name": "tokenId",
							"type": "uint256"
						}
					],
					"name": "tokenURI",
					"outputs": [
						{
							"internalType": "string",
							"name": "",
							"type": "string"
						}
					],
					"stateMutability": "pure",
					"type": "function"
				}
			],
			"devdoc": {
				"kind": "dev",
				"methods": {},
				"version": 1
			},
			"evm": {
				"assembly": "    /* \"week5/testABIEncode.sol\":109:4667  contract TestEncode {... */\n  mstore(0x40, 0x80)\n  callvalue\n  dup1\n  iszero\n  tag_1\n  jumpi\n  0x00\n  dup1\n  revert\ntag_1:\n  pop\n  dataSize(sub_0)\n  dup1\n  dataOffset(sub_0)\n  0x00\n  codecopy\n  0x00\n  return\nstop\n\nsub_0: assembly {\n        /* \"week5/testABIEncode.sol\":109:4667  contract TestEncode {... */\n      mstore(0x40, 0x80)\n      jumpi(tag_1, lt(calldatasize, 0x04))\n      shr(0xe0, calldataload(0x00))\n      dup1\n      0x7e3b06fb\n      gt\n      tag_18\n      jumpi\n      dup1\n      0xc1ed13ef\n      gt\n      tag_19\n      jumpi\n      dup1\n      0xc1ed13ef\n      eq\n      tag_14\n      jumpi\n      dup1\n      0xc87b56dd\n      eq\n      tag_15\n      jumpi\n      dup1\n      0xcf57b6eb\n      eq\n      tag_16\n      jumpi\n      dup1\n      0xd264610d\n      eq\n      tag_17\n      jumpi\n      jump(tag_2)\n    tag_19:\n      dup1\n      0x7e3b06fb\n      eq\n      tag_10\n      jumpi\n      dup1\n      0x7faec262\n      eq\n      tag_11\n      jumpi\n      dup1\n      0xae53a4a5\n      eq\n      tag_12\n      jumpi\n      dup1\n      0xbd14598f\n      eq\n      tag_13\n      jumpi\n      jump(tag_2)\n    tag_18:\n      dup1\n      0x4e10efba\n      gt\n      tag_20\n      jumpi\n      dup1\n      0x4e10efba\n      eq\n      tag_6\n      jumpi\n      dup1\n      0x5fc6ac0e\n      eq\n      tag_7\n      jumpi\n      dup1\n      0x6458817c\n      eq\n      tag_8\n      jumpi\n      dup1\n      0x733e2f06\n      eq\n      tag_9\n      jumpi\n      jump(tag_2)\n    tag_20:\n      dup1\n      0x065fdac2\n      eq\n      tag_3\n      jumpi\n      dup1\n      0x25adff1c\n      eq\n      tag_4\n      jumpi\n      dup1\n      0x44d1587c\n      eq\n      tag_5\n      jumpi\n      jump(tag_2)\n    tag_1:\n    tag_2:\n      stop\n        /* \"week5/testABIEncode.sol\":2069:2244  function testABIDecode(bytes calldata data) external pure returns (string memory arr,uint256 u,address a) {... */\n    tag_3:\n      callvalue\n      dup1\n      iszero\n      tag_23\n      jumpi\n      0x00\n      dup1\n      revert\n    tag_23:\n      pop\n      tag_24\n      0x04\n      dup1\n      calldatasize\n      sub\n      dup2\n      add\n      swap1\n      tag_25\n      swap2\n      swap1\n      tag_26\n      jump\t// in\n    tag_25:\n      tag_27\n      jump\t// in\n    tag_24:\n      mload(0x40)\n      tag_28\n      swap4\n      swap3\n      swap2\n      swap1\n      tag_29\n      jump\t// in\n    tag_28:\n      mload(0x40)\n      dup1\n      swap2\n      sub\n      swap1\n      return\n        /* \"week5/testABIEncode.sol\":2792:2992  function encodeCall(address to, uint amount) external pure returns (bytes memory) {... */\n    tag_4:\n      callvalue\n      dup1\n      iszero\n      tag_30\n      jumpi\n      0x00\n      dup1\n      revert\n    tag_30:\n      pop\n      tag_31\n      0x04\n      dup1\n      calldatasize\n      sub\n      dup2\n      add\n      swap1\n      tag_32\n      swap2\n      swap1\n      tag_33\n      jump\t// in\n    tag_32:\n      tag_34\n      jump\t// in\n    tag_31:\n      mload(0x40)\n      tag_35\n      swap2\n      swap1\n      tag_36\n      jump\t// in\n    tag_35:\n      mload(0x40)\n      dup1\n      swap2\n      sub\n      swap1\n      return\n        /* \"week5/testABIEncode.sol\":916:1035  function encodePackedAppworks() external pure returns (bytes memory) {... */\n    tag_5:\n      callvalue\n      dup1\n      iszero\n      tag_37\n      jumpi\n      0x00\n      dup1\n      revert\n    tag_37:\n      pop\n      tag_38\n      tag_39\n      jump\t// in\n    tag_38:\n      mload(0x40)\n      tag_40\n      swap2\n      swap1\n      tag_36\n      jump\t// in\n    tag_40:\n      mload(0x40)\n      dup1\n      swap2\n      sub\n      swap1\n      return\n        /* \"week5/testABIEncode.sol\":3067:3353  function encodeWithSignatureAppWorks(... */\n    tag_6:\n      callvalue\n      dup1\n      iszero\n      tag_41\n      jumpi\n      0x00\n      dup1\n      revert\n    tag_41:\n      pop\n      tag_42\n      0x04\n      dup1\n      calldatasize\n      sub\n      dup2\n      add\n      swap1\n      tag_43\n      swap2\n      swap1\n      tag_44\n      jump\t// in\n    tag_43:\n      tag_45\n      jump\t// in\n    tag_42:\n      mload(0x40)\n      tag_46\n      swap2\n      swap1\n      tag_36\n      jump\t// in\n    tag_46:\n      mload(0x40)\n      dup1\n      swap2\n      sub\n      swap1\n      return\n        /* \"week5/testABIEncode.sol\":2516:2786  function encodeWithSelector(... */\n    tag_7:\n      callvalue\n      dup1\n      iszero\n      tag_47\n      jumpi\n      0x00\n      dup1\n      revert\n    tag_47:\n      pop\n      tag_48\n      0x04\n      dup1\n      calldatasize\n      sub\n      dup2\n      add\n      swap1\n      tag_49\n      swap2\n      swap1\n      tag_33\n      jump\t// in\n    tag_49:\n      tag_50\n      jump\t// in\n    tag_48:\n      mload(0x40)\n      tag_51\n      swap2\n      swap1\n      tag_36\n      jump\t// in\n    tag_51:\n      mload(0x40)\n      dup1\n      swap2\n      sub\n      swap1\n      return\n        /* \"week5/testABIEncode.sol\":4117:4246  function encodeFunSelector(string memory s) external pure returns (bytes memory) {... */\n    tag_8:\n      callvalue\n      dup1\n      iszero\n      tag_52\n      jumpi\n      0x00\n      dup1\n      revert\n    tag_52:\n      pop\n      tag_53\n      0x04\n      dup1\n      calldatasize\n      sub\n      dup2\n      add\n      swap1\n      tag_54\n      swap2\n      swap1\n      tag_55\n      jump\t// in\n    tag_54:\n      tag_56\n      jump\t// in\n    tag_53:\n      mload(0x40)\n      tag_57\n      swap2\n      swap1\n      tag_36\n      jump\t// in\n    tag_57:\n      mload(0x40)\n      dup1\n      swap2\n      sub\n      swap1\n      return\n        /* \"week5/testABIEncode.sol\":315:422  function encodeAppworks() external pure returns (bytes memory) {... */\n    tag_9:\n      callvalue\n      dup1\n      iszero\n      tag_58\n      jumpi\n      0x00\n      dup1\n      revert\n    tag_58:\n      pop\n      tag_59\n      tag_60\n      jump\t// in\n    tag_59:\n      mload(0x40)\n      tag_61\n      swap2\n      swap1\n      tag_36\n      jump\t// in\n    tag_61:\n      mload(0x40)\n      dup1\n      swap2\n      sub\n      swap1\n      return\n        /* \"week5/testABIEncode.sol\":2250:2510  function encodeWithSignature(... */\n    tag_10:\n      callvalue\n      dup1\n      iszero\n      tag_62\n      jumpi\n      0x00\n      dup1\n      revert\n    tag_62:\n      pop\n      tag_63\n      0x04\n      dup1\n      calldatasize\n      sub\n      dup2\n      add\n      swap1\n      tag_64\n      swap2\n      swap1\n      tag_33\n      jump\t// in\n    tag_64:\n      tag_65\n      jump\t// in\n    tag_63:\n      mload(0x40)\n      tag_66\n      swap2\n      swap1\n      tag_36\n      jump\t// in\n    tag_66:\n      mload(0x40)\n      dup1\n      swap2\n      sub\n      swap1\n      return\n        /* \"week5/testABIEncode.sol\":1041:1820  function encodePackedAppworksV2() external pure returns (bytes memory) {... */\n    tag_11:\n      callvalue\n      dup1\n      iszero\n      tag_67\n      jumpi\n      0x00\n      dup1\n      revert\n    tag_67:\n      pop\n      tag_68\n      tag_69\n      jump\t// in\n    tag_68:\n      mload(0x40)\n      tag_70\n      swap2\n      swap1\n      tag_36\n      jump\t// in\n    tag_70:\n      mload(0x40)\n      dup1\n      swap2\n      sub\n      swap1\n      return\n        /* \"week5/testABIEncode.sol\":3360:3935  function AppWorks(... */\n    tag_12:\n      callvalue\n      dup1\n      iszero\n      tag_71\n      jumpi\n      0x00\n      dup1\n      revert\n    tag_71:\n      pop\n      tag_72\n      0x04\n      dup1\n      calldatasize\n      sub\n      dup2\n      add\n      swap1\n      tag_73\n      swap2\n      swap1\n      tag_44\n      jump\t// in\n    tag_73:\n      tag_74\n      jump\t// in\n    tag_72:\n      mload(0x40)\n      tag_75\n      swap2\n      swap1\n      tag_76\n      jump\t// in\n    tag_75:\n      mload(0x40)\n      dup1\n      swap2\n      sub\n      swap1\n      return\n        /* \"week5/testABIEncode.sol\":165:309  function encode() external pure returns (bytes memory) {... */\n    tag_13:\n      callvalue\n      dup1\n      iszero\n      tag_77\n      jumpi\n      0x00\n      dup1\n      revert\n    tag_77:\n      pop\n      tag_78\n      tag_79\n      jump\t// in\n    tag_78:\n      mload(0x40)\n      tag_80\n      swap2\n      swap1\n      tag_36\n      jump\t// in\n    tag_80:\n      mload(0x40)\n      dup1\n      swap2\n      sub\n      swap1\n      return\n        /* \"week5/testABIEncode.sol\":1826:1919  function encodeOne() external pure returns (bytes memory) {... */\n    tag_14:\n      callvalue\n      dup1\n      iszero\n      tag_81\n      jumpi\n      0x00\n      dup1\n      revert\n    tag_81:\n      pop\n      tag_82\n      tag_83\n      jump\t// in\n    tag_82:\n      mload(0x40)\n      tag_84\n      swap2\n      swap1\n      tag_36\n      jump\t// in\n    tag_84:\n      mload(0x40)\n      dup1\n      swap2\n      sub\n      swap1\n      return\n        /* \"week5/testABIEncode.sol\":4293:4454  function tokenURI(uint256 tokenId) public pure returns (string memory) {... */\n    tag_15:\n      callvalue\n      dup1\n      iszero\n      tag_85\n      jumpi\n      0x00\n      dup1\n      revert\n    tag_85:\n      pop\n      tag_86\n      0x04\n      dup1\n      calldatasize\n      sub\n      dup2\n      add\n      swap1\n      tag_87\n      swap2\n      swap1\n      tag_88\n      jump\t// in\n    tag_87:\n      tag_89\n      jump\t// in\n    tag_86:\n      mload(0x40)\n      tag_90\n      swap2\n      swap1\n      tag_91\n      jump\t// in\n    tag_90:\n      mload(0x40)\n      dup1\n      swap2\n      sub\n      swap1\n      return\n        /* \"week5/testABIEncode.sol\":1925:2063  function encodeAddress() external pure returns (bytes memory) {... */\n    tag_16:\n      callvalue\n      dup1\n      iszero\n      tag_92\n      jumpi\n      0x00\n      dup1\n      revert\n    tag_92:\n      pop\n      tag_93\n      tag_94\n      jump\t// in\n    tag_93:\n      mload(0x40)\n      tag_95\n      swap2\n      swap1\n      tag_36\n      jump\t// in\n    tag_95:\n      mload(0x40)\n      dup1\n      swap2\n      sub\n      swap1\n      return\n        /* \"week5/testABIEncode.sol\":3946:4110  function encodeWithSignatureSchool() ... */\n    tag_17:\n      callvalue\n      dup1\n      iszero\n      tag_96\n      jumpi\n      0x00\n      dup1\n      revert\n    tag_96:\n      pop\n      tag_97\n      tag_98\n      jump\t// in\n    tag_97:\n      mload(0x40)\n      tag_99\n      swap2\n      swap1\n      tag_36\n      jump\t// in\n    tag_99:\n      mload(0x40)\n      dup1\n      swap2\n      sub\n      swap1\n      return\n        /* \"week5/testABIEncode.sol\":2069:2244  function testABIDecode(bytes calldata data) external pure returns (string memory arr,uint256 u,address a) {... */\n    tag_27:\n        /* \"week5/testABIEncode.sol\":2136:2153  string memory arr */\n      0x60\n        /* \"week5/testABIEncode.sol\":2154:2163  uint256 u */\n      0x00\n        /* \"week5/testABIEncode.sol\":2164:2173  address a */\n      dup1\n        /* \"week5/testABIEncode.sol\":2206:2210  data */\n      dup5\n      dup5\n        /* \"week5/testABIEncode.sol\":2195:2237  abi.decode(data, (string,uint256,address)) */\n      dup2\n      add\n      swap1\n      tag_101\n      swap2\n      swap1\n      tag_102\n      jump\t// in\n    tag_101:\n        /* \"week5/testABIEncode.sol\":2183:2237  (arr,u,a) = abi.decode(data, (string,uint256,address)) */\n      dup1\n      swap4\n      pop\n      dup2\n      swap5\n      pop\n      dup3\n      swap6\n      pop\n      pop\n      pop\n      pop\n        /* \"week5/testABIEncode.sol\":2069:2244  function testABIDecode(bytes calldata data) external pure returns (string memory arr,uint256 u,address a) {... */\n      swap3\n      pop\n      swap3\n      pop\n      swap3\n      jump\t// out\n        /* \"week5/testABIEncode.sol\":2792:2992  function encodeCall(address to, uint amount) external pure returns (bytes memory) {... */\n    tag_34:\n        /* \"week5/testABIEncode.sol\":2860:2872  bytes memory */\n      0x60\n        /* \"week5/testABIEncode.sol\":2973:2975  to */\n      dup3\n        /* \"week5/testABIEncode.sol\":2977:2983  amount */\n      dup3\n        /* \"week5/testABIEncode.sol\":2940:2985  abi.encodeCall(IERC20.transfer, (to, amount)) */\n      add(0x24, mload(0x40))\n      tag_104\n      swap3\n      swap2\n      swap1\n      tag_105\n      jump\t// in\n    tag_104:\n      mload(0x40)\n      0x20\n      dup2\n      dup4\n      sub\n      sub\n      dup2\n      mstore\n      swap1\n      0x40\n      mstore\n      shl(0xe0, 0xa9059cbb)\n      0x20\n      dup3\n      add\n      dup1\n      mload\n      0xffffffffffffffffffffffffffffffffffffffffffffffffffffffff\n      dup4\n      dup2\n      dup4\n      and\n      or\n      dup4\n      mstore\n      pop\n      pop\n      pop\n      pop\n        /* \"week5/testABIEncode.sol\":2933:2985  return abi.encodeCall(IERC20.transfer, (to, amount)) */\n      swap1\n      pop\n        /* \"week5/testABIEncode.sol\":2792:2992  function encodeCall(address to, uint amount) external pure returns (bytes memory) {... */\n      swap3\n      swap2\n      pop\n      pop\n      jump\t// out\n        /* \"week5/testABIEncode.sol\":916:1035  function encodePackedAppworks() external pure returns (bytes memory) {... */\n    tag_39:\n        /* \"week5/testABIEncode.sol\":971:983  bytes memory */\n      0x60\n        /* \"week5/testABIEncode.sol\":1000:1028  abi.encodePacked(\"appworks\") */\n      add(0x20, mload(0x40))\n      tag_107\n      swap1\n      tag_108\n      jump\t// in\n    tag_107:\n      mload(0x40)\n      0x20\n      dup2\n      dup4\n      sub\n      sub\n      dup2\n      mstore\n      swap1\n      0x40\n      mstore\n        /* \"week5/testABIEncode.sol\":993:1028  return abi.encodePacked(\"appworks\") */\n      swap1\n      pop\n        /* \"week5/testABIEncode.sol\":916:1035  function encodePackedAppworks() external pure returns (bytes memory) {... */\n      swap1\n      jump\t// out\n        /* \"week5/testABIEncode.sol\":3067:3353  function encodeWithSignatureAppWorks(... */\n    tag_45:\n        /* \"week5/testABIEncode.sol\":3229:3241  bytes memory */\n      0x60\n        /* \"week5/testABIEncode.sol\":3327:3328  b */\n      dup7\n        /* \"week5/testABIEncode.sol\":3330:3337  arrUint */\n      dup7\n      dup7\n        /* \"week5/testABIEncode.sol\":3338:3339  a */\n      dup7\n        /* \"week5/testABIEncode.sol\":3340:3345  array */\n      dup7\n      dup7\n        /* \"week5/testABIEncode.sol\":3260:3346  abi.encodeWithSignature(\"AppWorks(bool,uint256[],address,string)\", b, arrUint,a,array) */\n      add(0x24, mload(0x40))\n      tag_110\n      swap7\n      swap6\n      swap5\n      swap4\n      swap3\n      swap2\n      swap1\n      tag_111\n      jump\t// in\n    tag_110:\n      mload(0x40)\n      0x20\n      dup2\n      dup4\n      sub\n      sub\n      dup2\n      mstore\n      swap1\n      0x40\n      mstore\n      and(not(0xffffffffffffffffffffffffffffffffffffffffffffffffffffffff), 0xae53a4a500000000000000000000000000000000000000000000000000000000)\n      0x20\n      dup3\n      add\n      dup1\n      mload\n      0xffffffffffffffffffffffffffffffffffffffffffffffffffffffff\n      dup4\n      dup2\n      dup4\n      and\n      or\n      dup4\n      mstore\n      pop\n      pop\n      pop\n      pop\n        /* \"week5/testABIEncode.sol\":3253:3346  return abi.encodeWithSignature(\"AppWorks(bool,uint256[],address,string)\", b, arrUint,a,array) */\n      swap1\n      pop\n        /* \"week5/testABIEncode.sol\":3067:3353  function encodeWithSignatureAppWorks(... */\n      swap7\n      swap6\n      pop\n      pop\n      pop\n      pop\n      pop\n      pop\n      jump\t// out\n        /* \"week5/testABIEncode.sol\":2516:2786  function encodeWithSelector(... */\n    tag_50:\n        /* \"week5/testABIEncode.sol\":2614:2626  bytes memory */\n      0x60\n        /* \"week5/testABIEncode.sol\":2742:2766  IERC20.transfer.selector */\n      shl(0xe0, 0xa9059cbb)\n        /* \"week5/testABIEncode.sol\":2768:2770  to */\n      dup4\n        /* \"week5/testABIEncode.sol\":2772:2778  amount */\n      dup4\n        /* \"week5/testABIEncode.sol\":2719:2779  abi.encodeWithSelector(IERC20.transfer.selector, to, amount) */\n      add(0x24, mload(0x40))\n      tag_113\n      swap3\n      swap2\n      swap1\n      tag_105\n      jump\t// in\n    tag_113:\n      mload(0x40)\n      0x20\n      dup2\n      dup4\n      sub\n      sub\n      dup2\n      mstore\n      swap1\n      0x40\n      mstore\n      swap1\n      not(0xffffffffffffffffffffffffffffffffffffffffffffffffffffffff)\n      and\n      0x20\n      dup3\n      add\n      dup1\n      mload\n      0xffffffffffffffffffffffffffffffffffffffffffffffffffffffff\n      dup4\n      dup2\n      dup4\n      and\n      or\n      dup4\n      mstore\n      pop\n      pop\n      pop\n      pop\n        /* \"week5/testABIEncode.sol\":2712:2779  return abi.encodeWithSelector(IERC20.transfer.selector, to, amount) */\n      swap1\n      pop\n        /* \"week5/testABIEncode.sol\":2516:2786  function encodeWithSelector(... */\n      swap3\n      swap2\n      pop\n      pop\n      jump\t// out\n        /* \"week5/testABIEncode.sol\":4117:4246  function encodeFunSelector(string memory s) external pure returns (bytes memory) {... */\n    tag_56:\n        /* \"week5/testABIEncode.sol\":4184:4196  bytes memory */\n      0x60\n        /* \"week5/testABIEncode.sol\":4237:4238  s */\n      dup2\n        /* \"week5/testABIEncode.sol\":4213:4239  abi.encodeWithSignature(s) */\n      add(0x24, mload(0x40))\n      mload(0x40)\n      0x20\n      dup2\n      dup4\n      sub\n      sub\n      dup2\n      mstore\n      swap1\n      0x40\n      mstore\n      swap1\n      mload(0x40)\n      tag_115\n      swap2\n      swap1\n      tag_116\n      jump\t// in\n    tag_115:\n      mload(0x40)\n      dup1\n      swap2\n      sub\n      swap1\n      keccak256\n      not(0xffffffffffffffffffffffffffffffffffffffffffffffffffffffff)\n      and\n      0x20\n      dup3\n      add\n      dup1\n      mload\n      0xffffffffffffffffffffffffffffffffffffffffffffffffffffffff\n      dup4\n      dup2\n      dup4\n      and\n      or\n      dup4\n      mstore\n      pop\n      pop\n      pop\n      pop\n        /* \"week5/testABIEncode.sol\":4206:4239  return abi.encodeWithSignature(s) */\n      swap1\n      pop\n        /* \"week5/testABIEncode.sol\":4117:4246  function encodeFunSelector(string memory s) external pure returns (bytes memory) {... */\n      swap2\n      swap1\n      pop\n      jump\t// out\n        /* \"week5/testABIEncode.sol\":315:422  function encodeAppworks() external pure returns (bytes memory) {... */\n    tag_60:\n        /* \"week5/testABIEncode.sol\":364:376  bytes memory */\n      0x60\n        /* \"week5/testABIEncode.sol\":393:415  abi.encode(\"appworks\") */\n      add(0x20, mload(0x40))\n      tag_118\n      swap1\n      tag_119\n      jump\t// in\n    tag_118:\n      mload(0x40)\n      0x20\n      dup2\n      dup4\n      sub\n      sub\n      dup2\n      mstore\n      swap1\n      0x40\n      mstore\n        /* \"week5/testABIEncode.sol\":386:415  return abi.encode(\"appworks\") */\n      swap1\n      pop\n        /* \"week5/testABIEncode.sol\":315:422  function encodeAppworks() external pure returns (bytes memory) {... */\n      swap1\n      jump\t// out\n        /* \"week5/testABIEncode.sol\":2250:2510  function encodeWithSignature(... */\n    tag_65:\n        /* \"week5/testABIEncode.sol\":2349:2361  bytes memory */\n      0x60\n        /* \"week5/testABIEncode.sol\":2492:2494  to */\n      dup3\n        /* \"week5/testABIEncode.sol\":2496:2502  amount */\n      dup3\n        /* \"week5/testABIEncode.sol\":2439:2503  abi.encodeWithSignature(\"transfer(address,uint256)\", to, amount) */\n      add(0x24, mload(0x40))\n      tag_121\n      swap3\n      swap2\n      swap1\n      tag_105\n      jump\t// in\n    tag_121:\n      mload(0x40)\n      0x20\n      dup2\n      dup4\n      sub\n      sub\n      dup2\n      mstore\n      swap1\n      0x40\n      mstore\n      and(not(0xffffffffffffffffffffffffffffffffffffffffffffffffffffffff), 0xa9059cbb00000000000000000000000000000000000000000000000000000000)\n      0x20\n      dup3\n      add\n      dup1\n      mload\n      0xffffffffffffffffffffffffffffffffffffffffffffffffffffffff\n      dup4\n      dup2\n      dup4\n      and\n      or\n      dup4\n      mstore\n      pop\n      pop\n      pop\n      pop\n        /* \"week5/testABIEncode.sol\":2432:2503  return abi.encodeWithSignature(\"transfer(address,uint256)\", to, amount) */\n      swap1\n      pop\n        /* \"week5/testABIEncode.sol\":2250:2510  function encodeWithSignature(... */\n      swap3\n      swap2\n      pop\n      pop\n      jump\t// out\n        /* \"week5/testABIEncode.sol\":1041:1820  function encodePackedAppworksV2() external pure returns (bytes memory) {... */\n    tag_69:\n        /* \"week5/testABIEncode.sol\":1098:1110  bytes memory */\n      0x60\n        /* \"week5/testABIEncode.sol\":1149:1150  1 */\n      0x01\n        /* \"week5/testABIEncode.sol\":1151:1153  99 */\n      0x63\n        /* \"week5/testABIEncode.sol\":1127:1160  abi.encode(\"appworks\",1,99,\"jim\") */\n      add(0x20, mload(0x40))\n      tag_123\n      swap3\n      swap2\n      swap1\n      tag_124\n      jump\t// in\n    tag_123:\n      mload(0x40)\n      0x20\n      dup2\n      dup4\n      sub\n      sub\n      dup2\n      mstore\n      swap1\n      0x40\n      mstore\n        /* \"week5/testABIEncode.sol\":1120:1160  return abi.encode(\"appworks\",1,99,\"jim\") */\n      swap1\n      pop\n        /* \"week5/testABIEncode.sol\":1041:1820  function encodePackedAppworksV2() external pure returns (bytes memory) {... */\n      swap1\n      jump\t// out\n        /* \"week5/testABIEncode.sol\":3360:3935  function AppWorks(... */\n    tag_74:\n        /* \"week5/testABIEncode.sol\":3502:3506  bool */\n      0x00\n        /* \"week5/testABIEncode.sol\":3525:3526  b */\n      dup7\n        /* \"week5/testABIEncode.sol\":3517:3553  require(b,\"bool parameter correct.\") */\n      tag_126\n      jumpi\n      mload(0x40)\n      0x08c379a000000000000000000000000000000000000000000000000000000000\n      dup2\n      mstore\n      0x04\n      add\n      tag_127\n      swap1\n      tag_128\n      jump\t// in\n    tag_127:\n      mload(0x40)\n      dup1\n      swap2\n      sub\n      swap1\n      revert\n    tag_126:\n        /* \"week5/testABIEncode.sol\":3585:3586  9 */\n      0x09\n        /* \"week5/testABIEncode.sol\":3571:3578  arrUint */\n      dup7\n      dup7\n        /* \"week5/testABIEncode.sol\":3579:3580  0 */\n      0x00\n        /* \"week5/testABIEncode.sol\":3571:3581  arrUint[0] */\n      dup2\n      dup2\n      lt\n      tag_129\n      jumpi\n      tag_130\n      tag_131\n      jump\t// in\n    tag_130:\n    tag_129:\n      swap1\n      pop\n      0x20\n      mul\n      add\n      calldataload\n        /* \"week5/testABIEncode.sol\":3571:3586  arrUint[0] == 9 */\n      eq\n        /* \"week5/testABIEncode.sol\":3563:3619  require(arrUint[0] == 9,\"uint array parameter correct.\") */\n      tag_132\n      jumpi\n      mload(0x40)\n      0x08c379a000000000000000000000000000000000000000000000000000000000\n      dup2\n      mstore\n      0x04\n      add\n      tag_133\n      swap1\n      tag_134\n      jump\t// in\n    tag_133:\n      mload(0x40)\n      dup1\n      swap2\n      sub\n      swap1\n      revert\n    tag_132:\n        /* \"week5/testABIEncode.sol\":3651:3653  18 */\n      0x12\n        /* \"week5/testABIEncode.sol\":3637:3644  arrUint */\n      dup7\n      dup7\n        /* \"week5/testABIEncode.sol\":3645:3646  1 */\n      0x01\n        /* \"week5/testABIEncode.sol\":3637:3647  arrUint[1] */\n      dup2\n      dup2\n      lt\n      tag_135\n      jumpi\n      tag_136\n      tag_131\n      jump\t// in\n    tag_136:\n    tag_135:\n      swap1\n      pop\n      0x20\n      mul\n      add\n      calldataload\n        /* \"week5/testABIEncode.sol\":3637:3653  arrUint[1] == 18 */\n      eq\n        /* \"week5/testABIEncode.sol\":3629:3686  require(arrUint[1] == 18,\"uint array parameter correct.\") */\n      tag_137\n      jumpi\n      mload(0x40)\n      0x08c379a000000000000000000000000000000000000000000000000000000000\n      dup2\n      mstore\n      0x04\n      add\n      tag_138\n      swap1\n      tag_134\n      jump\t// in\n    tag_138:\n      mload(0x40)\n      dup1\n      swap2\n      sub\n      swap1\n      revert\n    tag_137:\n        /* \"week5/testABIEncode.sol\":3709:3751  0x2Ff1F4e5D08a822743ec6b342c521A0a421456cb */\n      0x2ff1f4e5d08a822743ec6b342c521a0a421456cb\n        /* \"week5/testABIEncode.sol\":3704:3751  a == 0x2Ff1F4e5D08a822743ec6b342c521A0a421456cb */\n      0xffffffffffffffffffffffffffffffffffffffff\n      and\n        /* \"week5/testABIEncode.sol\":3704:3705  a */\n      dup5\n        /* \"week5/testABIEncode.sol\":3704:3751  a == 0x2Ff1F4e5D08a822743ec6b342c521A0a421456cb */\n      0xffffffffffffffffffffffffffffffffffffffff\n      and\n      eq\n        /* \"week5/testABIEncode.sol\":3696:3781  require(a == 0x2Ff1F4e5D08a822743ec6b342c521A0a421456cb,\"address parameter correct.\") */\n      tag_139\n      jumpi\n      mload(0x40)\n      0x08c379a000000000000000000000000000000000000000000000000000000000\n      dup2\n      mstore\n      0x04\n      add\n      tag_140\n      swap1\n      tag_141\n      jump\t// in\n    tag_140:\n      mload(0x40)\n      dup1\n      swap2\n      sub\n      swap1\n      revert\n    tag_139:\n        /* \"week5/testABIEncode.sol\":3849:3876  abi.encodePacked((\"Brian\")) */\n      add(0x20, mload(0x40))\n      tag_142\n      swap1\n      tag_143\n      jump\t// in\n    tag_142:\n      mload(0x40)\n      0x20\n      dup2\n      dup4\n      sub\n      sub\n      dup2\n      mstore\n      swap1\n      0x40\n      mstore\n        /* \"week5/testABIEncode.sol\":3839:3877  keccak256(abi.encodePacked((\"Brian\"))) */\n      dup1\n      mload\n      swap1\n      0x20\n      add\n      keccak256\n        /* \"week5/testABIEncode.sol\":3827:3832  array */\n      dup4\n      dup4\n        /* \"week5/testABIEncode.sol\":3809:3834  abi.encodePacked((array)) */\n      add(0x20, mload(0x40))\n      tag_144\n      swap3\n      swap2\n      swap1\n      tag_145\n      jump\t// in\n    tag_144:\n      mload(0x40)\n      0x20\n      dup2\n      dup4\n      sub\n      sub\n      dup2\n      mstore\n      swap1\n      0x40\n      mstore\n        /* \"week5/testABIEncode.sol\":3799:3835  keccak256(abi.encodePacked((array))) */\n      dup1\n      mload\n      swap1\n      0x20\n      add\n      keccak256\n        /* \"week5/testABIEncode.sol\":3799:3877  keccak256(abi.encodePacked((array))) == keccak256(abi.encodePacked((\"Brian\"))) */\n      eq\n        /* \"week5/testABIEncode.sol\":3791:3906  require(keccak256(abi.encodePacked((array))) == keccak256(abi.encodePacked((\"Brian\"))),\"string parameter correct.\") */\n      tag_146\n      jumpi\n      mload(0x40)\n      0x08c379a000000000000000000000000000000000000000000000000000000000\n      dup2\n      mstore\n      0x04\n      add\n      tag_147\n      swap1\n      tag_148\n      jump\t// in\n    tag_147:\n      mload(0x40)\n      dup1\n      swap2\n      sub\n      swap1\n      revert\n    tag_146:\n        /* \"week5/testABIEncode.sol\":3924:3928  true */\n      0x01\n        /* \"week5/testABIEncode.sol\":3917:3928  return true */\n      swap1\n      pop\n        /* \"week5/testABIEncode.sol\":3360:3935  function AppWorks(... */\n      swap7\n      swap6\n      pop\n      pop\n      pop\n      pop\n      pop\n      pop\n      jump\t// out\n        /* \"week5/testABIEncode.sol\":165:309  function encode() external pure returns (bytes memory) {... */\n    tag_79:\n        /* \"week5/testABIEncode.sol\":206:218  bytes memory */\n      0x60\n        /* \"week5/testABIEncode.sol\":257:258  1 */\n      0x01\n        /* \"week5/testABIEncode.sol\":259:301  0x2Ff1F4e5D08a822743ec6b342c521A0a421456cb */\n      0x2ff1f4e5d08a822743ec6b342c521a0a421456cb\n        /* \"week5/testABIEncode.sol\":235:302  abi.encode(\"appworks\",1,0x2Ff1F4e5D08a822743ec6b342c521A0a421456cb) */\n      add(0x20, mload(0x40))\n      tag_150\n      swap3\n      swap2\n      swap1\n      tag_151\n      jump\t// in\n    tag_150:\n      mload(0x40)\n      0x20\n      dup2\n      dup4\n      sub\n      sub\n      dup2\n      mstore\n      swap1\n      0x40\n      mstore\n        /* \"week5/testABIEncode.sol\":228:302  return abi.encode(\"appworks\",1,0x2Ff1F4e5D08a822743ec6b342c521A0a421456cb) */\n      swap1\n      pop\n        /* \"week5/testABIEncode.sol\":165:309  function encode() external pure returns (bytes memory) {... */\n      swap1\n      jump\t// out\n        /* \"week5/testABIEncode.sol\":1826:1919  function encodeOne() external pure returns (bytes memory) {... */\n    tag_83:\n        /* \"week5/testABIEncode.sol\":1870:1882  bytes memory */\n      0x60\n        /* \"week5/testABIEncode.sol\":1910:1911  1 */\n      0x01\n        /* \"week5/testABIEncode.sol\":1899:1912  abi.encode(1) */\n      add(0x20, mload(0x40))\n      tag_153\n      swap2\n      swap1\n      tag_154\n      jump\t// in\n    tag_153:\n      mload(0x40)\n      0x20\n      dup2\n      dup4\n      sub\n      sub\n      dup2\n      mstore\n      swap1\n      0x40\n      mstore\n        /* \"week5/testABIEncode.sol\":1892:1912  return abi.encode(1) */\n      swap1\n      pop\n        /* \"week5/testABIEncode.sol\":1826:1919  function encodeOne() external pure returns (bytes memory) {... */\n      swap1\n      jump\t// out\n        /* \"week5/testABIEncode.sol\":4293:4454  function tokenURI(uint256 tokenId) public pure returns (string memory) {... */\n    tag_89:\n        /* \"week5/testABIEncode.sol\":4349:4362  string memory */\n      0x60\n        /* \"week5/testABIEncode.sol\":4412:4437  Strings.toString(tokenId) */\n      tag_156\n        /* \"week5/testABIEncode.sol\":4429:4436  tokenId */\n      dup3\n        /* \"week5/testABIEncode.sol\":4412:4428  Strings.toString */\n      tag_157\n        /* \"week5/testABIEncode.sol\":4412:4437  Strings.toString(tokenId) */\n      jump\t// in\n    tag_156:\n        /* \"week5/testABIEncode.sol\":4388:4446  abi.encodePacked(\"ABC\", Strings.toString(tokenId),\".json\") */\n      add(0x20, mload(0x40))\n      tag_158\n      swap2\n      swap1\n      tag_159\n      jump\t// in\n    tag_158:\n      mload(0x40)\n      0x20\n      dup2\n      dup4\n      sub\n      sub\n      dup2\n      mstore\n      swap1\n      0x40\n      mstore\n        /* \"week5/testABIEncode.sol\":4374:4447  return string(abi.encodePacked(\"ABC\", Strings.toString(tokenId),\".json\")) */\n      swap1\n      pop\n        /* \"week5/testABIEncode.sol\":4293:4454  function tokenURI(uint256 tokenId) public pure returns (string memory) {... */\n      swap2\n      swap1\n      pop\n      jump\t// out\n        /* \"week5/testABIEncode.sol\":1925:2063  function encodeAddress() external pure returns (bytes memory) {... */\n    tag_94:\n        /* \"week5/testABIEncode.sol\":1973:1985  bytes memory */\n      0x60\n        /* \"week5/testABIEncode.sol\":2013:2055  0x2Ff1F4e5D08a822743ec6b342c521A0a421456cb */\n      0x2ff1f4e5d08a822743ec6b342c521a0a421456cb\n        /* \"week5/testABIEncode.sol\":2002:2056  abi.encode(0x2Ff1F4e5D08a822743ec6b342c521A0a421456cb) */\n      add(0x20, mload(0x40))\n      tag_161\n      swap2\n      swap1\n      tag_162\n      jump\t// in\n    tag_161:\n      mload(0x40)\n      0x20\n      dup2\n      dup4\n      sub\n      sub\n      dup2\n      mstore\n      swap1\n      0x40\n      mstore\n        /* \"week5/testABIEncode.sol\":1995:2056  return abi.encode(0x2Ff1F4e5D08a822743ec6b342c521A0a421456cb) */\n      swap1\n      pop\n        /* \"week5/testABIEncode.sol\":1925:2063  function encodeAddress() external pure returns (bytes memory) {... */\n      swap1\n      jump\t// out\n        /* \"week5/testABIEncode.sol\":3946:4110  function encodeWithSignatureSchool() ... */\n    tag_98:\n        /* \"week5/testABIEncode.sol\":4013:4025  bytes memory */\n      0x60\n        /* \"week5/testABIEncode.sol\":4044:4103  abi.encodeWithSignature(\"School(string[])\", [\"11\",\"2\",\"3\"]) */\n      mload(0x40)\n      dup1\n      0x60\n      add\n      0x40\n      mstore\n      dup1\n      mload(0x40)\n      dup1\n      0x40\n      add\n      0x40\n      mstore\n      dup1\n      0x02\n      dup2\n      mstore\n      0x20\n      add\n      0x3131000000000000000000000000000000000000000000000000000000000000\n      dup2\n      mstore\n      pop\n      dup2\n      mstore\n      0x20\n      add\n      mload(0x40)\n      dup1\n      0x40\n      add\n      0x40\n      mstore\n      dup1\n      0x01\n      dup2\n      mstore\n      0x20\n      add\n      0x3200000000000000000000000000000000000000000000000000000000000000\n      dup2\n      mstore\n      pop\n      dup2\n      mstore\n      0x20\n      add\n      mload(0x40)\n      dup1\n      0x40\n      add\n      0x40\n      mstore\n      dup1\n      0x01\n      dup2\n      mstore\n      0x20\n      add\n      0x3300000000000000000000000000000000000000000000000000000000000000\n      dup2\n      mstore\n      pop\n      dup2\n      mstore\n      pop\n      add(0x24, mload(0x40))\n      tag_164\n      swap2\n      swap1\n      tag_165\n      jump\t// in\n    tag_164:\n      mload(0x40)\n      0x20\n      dup2\n      dup4\n      sub\n      sub\n      dup2\n      mstore\n      swap1\n      0x40\n      mstore\n      and(not(0xffffffffffffffffffffffffffffffffffffffffffffffffffffffff), 0x7fa990b900000000000000000000000000000000000000000000000000000000)\n      0x20\n      dup3\n      add\n      dup1\n      mload\n      0xffffffffffffffffffffffffffffffffffffffffffffffffffffffff\n      dup4\n      dup2\n      dup4\n      and\n      or\n      dup4\n      mstore\n      pop\n      pop\n      pop\n      pop\n        /* \"week5/testABIEncode.sol\":4037:4103  return abi.encodeWithSignature(\"School(string[])\", [\"11\",\"2\",\"3\"]) */\n      swap1\n      pop\n        /* \"week5/testABIEncode.sol\":3946:4110  function encodeWithSignatureSchool() ... */\n      swap1\n      jump\t// out\n        /* \"@openzeppelin/contracts/utils/Strings.sol\":637:1335  function toString(uint256 value) internal pure returns (string memory) {... */\n    tag_157:\n        /* \"@openzeppelin/contracts/utils/Strings.sol\":693:706  string memory */\n      0x60\n        /* \"@openzeppelin/contracts/utils/Strings.sol\":742:756  uint256 length */\n      0x00\n        /* \"@openzeppelin/contracts/utils/Strings.sol\":779:780  1 */\n      0x01\n        /* \"@openzeppelin/contracts/utils/Strings.sol\":759:776  Math.log10(value) */\n      tag_167\n        /* \"@openzeppelin/contracts/utils/Strings.sol\":770:775  value */\n      dup5\n        /* \"@openzeppelin/contracts/utils/Strings.sol\":759:769  Math.log10 */\n      tag_168\n        /* \"@openzeppelin/contracts/utils/Strings.sol\":759:776  Math.log10(value) */\n      jump\t// in\n    tag_167:\n        /* \"@openzeppelin/contracts/utils/Strings.sol\":759:780  Math.log10(value) + 1 */\n      add\n        /* \"@openzeppelin/contracts/utils/Strings.sol\":742:780  uint256 length = Math.log10(value) + 1 */\n      swap1\n      pop\n        /* \"@openzeppelin/contracts/utils/Strings.sol\":794:814  string memory buffer */\n      0x00\n        /* \"@openzeppelin/contracts/utils/Strings.sol\":828:834  length */\n      dup2\n        /* \"@openzeppelin/contracts/utils/Strings.sol\":817:835  new string(length) */\n      0xffffffffffffffff\n      dup2\n      gt\n      iszero\n      tag_169\n      jumpi\n      tag_170\n      tag_171\n      jump\t// in\n    tag_170:\n    tag_169:\n      mload(0x40)\n      swap1\n      dup1\n      dup3\n      mstore\n      dup1\n      0x1f\n      add\n      not(0x1f)\n      and\n      0x20\n      add\n      dup3\n      add\n      0x40\n      mstore\n      dup1\n      iszero\n      tag_172\n      jumpi\n      dup2\n      0x20\n      add\n      0x01\n      dup3\n      mul\n      dup1\n      calldatasize\n      dup4\n      calldatacopy\n      dup1\n      dup3\n      add\n      swap2\n      pop\n      pop\n      swap1\n      pop\n    tag_172:\n      pop\n        /* \"@openzeppelin/contracts/utils/Strings.sol\":794:835  string memory buffer = new string(length) */\n      swap1\n      pop\n        /* \"@openzeppelin/contracts/utils/Strings.sol\":849:860  uint256 ptr */\n      0x00\n        /* \"@openzeppelin/contracts/utils/Strings.sol\":975:981  length */\n      dup3\n        /* \"@openzeppelin/contracts/utils/Strings.sol\":971:973  32 */\n      0x20\n        /* \"@openzeppelin/contracts/utils/Strings.sol\":967:982  add(32, length) */\n      add\n        /* \"@openzeppelin/contracts/utils/Strings.sol\":959:965  buffer */\n      dup3\n        /* \"@openzeppelin/contracts/utils/Strings.sol\":955:983  add(buffer, add(32, length)) */\n      add\n        /* \"@openzeppelin/contracts/utils/Strings.sol\":948:983  ptr := add(buffer, add(32, length)) */\n      swap1\n      pop\n        /* \"@openzeppelin/contracts/utils/Strings.sol\":1010:1292  while (true) {... */\n    tag_173:\n        /* \"@openzeppelin/contracts/utils/Strings.sol\":1017:1021  true */\n      0x01\n        /* \"@openzeppelin/contracts/utils/Strings.sol\":1010:1292  while (true) {... */\n      iszero\n      tag_174\n      jumpi\n        /* \"@openzeppelin/contracts/utils/Strings.sol\":1041:1046  ptr-- */\n      dup1\n      dup1\n      0x01\n      swap1\n      sub\n      swap2\n      pop\n      pop\n        /* \"@openzeppelin/contracts/utils/Strings.sol\":1180:1190  HEX_DIGITS */\n      0x3031323334353637383961626364656600000000000000000000000000000000\n        /* \"@openzeppelin/contracts/utils/Strings.sol\":1175:1177  10 */\n      0x0a\n        /* \"@openzeppelin/contracts/utils/Strings.sol\":1168:1173  value */\n      dup7\n        /* \"@openzeppelin/contracts/utils/Strings.sol\":1164:1178  mod(value, 10) */\n      mod\n        /* \"@openzeppelin/contracts/utils/Strings.sol\":1159:1191  byte(mod(value, 10), HEX_DIGITS) */\n      byte\n        /* \"@openzeppelin/contracts/utils/Strings.sol\":1154:1157  ptr */\n      dup2\n        /* \"@openzeppelin/contracts/utils/Strings.sol\":1146:1192  mstore8(ptr, byte(mod(value, 10), HEX_DIGITS)) */\n      mstore8\n        /* \"@openzeppelin/contracts/utils/Strings.sol\":1236:1238  10 */\n      0x0a\n        /* \"@openzeppelin/contracts/utils/Strings.sol\":1227:1238  value /= 10 */\n      dup6\n      dup2\n      tag_175\n      jumpi\n      tag_176\n      tag_177\n      jump\t// in\n    tag_176:\n    tag_175:\n      div\n      swap5\n      pop\n        /* \"@openzeppelin/contracts/utils/Strings.sol\":1269:1270  0 */\n      0x00\n        /* \"@openzeppelin/contracts/utils/Strings.sol\":1260:1265  value */\n      dup6\n        /* \"@openzeppelin/contracts/utils/Strings.sol\":1260:1270  value == 0 */\n      sub\n        /* \"@openzeppelin/contracts/utils/Strings.sol\":1010:1292  while (true) {... */\n      tag_173\n        /* \"@openzeppelin/contracts/utils/Strings.sol\":1256:1277  if (value == 0) break */\n      jumpi\n        /* \"@openzeppelin/contracts/utils/Strings.sol\":1010:1292  while (true) {... */\n    tag_174:\n        /* \"@openzeppelin/contracts/utils/Strings.sol\":1312:1318  buffer */\n      dup2\n        /* \"@openzeppelin/contracts/utils/Strings.sol\":1305:1318  return buffer */\n      swap4\n      pop\n      pop\n      pop\n      pop\n        /* \"@openzeppelin/contracts/utils/Strings.sol\":637:1335  function toString(uint256 value) internal pure returns (string memory) {... */\n      swap2\n      swap1\n      pop\n      jump\t// out\n        /* \"@openzeppelin/contracts/utils/math/Math.sol\":12214:13130  function log10(uint256 value) internal pure returns (uint256) {... */\n    tag_168:\n        /* \"@openzeppelin/contracts/utils/math/Math.sol\":12267:12274  uint256 */\n      0x00\n        /* \"@openzeppelin/contracts/utils/math/Math.sol\":12286:12300  uint256 result */\n      dup1\n        /* \"@openzeppelin/contracts/utils/math/Math.sol\":12303:12304  0 */\n      0x00\n        /* \"@openzeppelin/contracts/utils/math/Math.sol\":12286:12304  uint256 result = 0 */\n      swap1\n      pop\n        /* \"@openzeppelin/contracts/utils/math/Math.sol\":12351:12359  10 ** 64 */\n      0x184f03e93ff9f4daa797ed6e38ed64bf6a1f010000000000000000\n        /* \"@openzeppelin/contracts/utils/math/Math.sol\":12342:12347  value */\n      dup4\n        /* \"@openzeppelin/contracts/utils/math/Math.sol\":12342:12359  value >= 10 ** 64 */\n      lt\n        /* \"@openzeppelin/contracts/utils/math/Math.sol\":12338:12441  if (value >= 10 ** 64) {... */\n      tag_180\n      jumpi\n        /* \"@openzeppelin/contracts/utils/math/Math.sol\":12388:12396  10 ** 64 */\n      0x184f03e93ff9f4daa797ed6e38ed64bf6a1f010000000000000000\n        /* \"@openzeppelin/contracts/utils/math/Math.sol\":12379:12396  value /= 10 ** 64 */\n      dup4\n      dup2\n      tag_181\n      jumpi\n      tag_182\n      tag_177\n      jump\t// in\n    tag_182:\n    tag_181:\n      div\n      swap3\n      pop\n        /* \"@openzeppelin/contracts/utils/math/Math.sol\":12424:12426  64 */\n      0x40\n        /* \"@openzeppelin/contracts/utils/math/Math.sol\":12414:12426  result += 64 */\n      dup2\n      add\n      swap1\n      pop\n        /* \"@openzeppelin/contracts/utils/math/Math.sol\":12338:12441  if (value >= 10 ** 64) {... */\n    tag_180:\n        /* \"@openzeppelin/contracts/utils/math/Math.sol\":12467:12475  10 ** 32 */\n      0x04ee2d6d415b85acef8100000000\n        /* \"@openzeppelin/contracts/utils/math/Math.sol\":12458:12463  value */\n      dup4\n        /* \"@openzeppelin/contracts/utils/math/Math.sol\":12458:12475  value >= 10 ** 32 */\n      lt\n        /* \"@openzeppelin/contracts/utils/math/Math.sol\":12454:12557  if (value >= 10 ** 32) {... */\n      tag_183\n      jumpi\n        /* \"@openzeppelin/contracts/utils/math/Math.sol\":12504:12512  10 ** 32 */\n      0x04ee2d6d415b85acef8100000000\n        /* \"@openzeppelin/contracts/utils/math/Math.sol\":12495:12512  value /= 10 ** 32 */\n      dup4\n      dup2\n      tag_184\n      jumpi\n      tag_185\n      tag_177\n      jump\t// in\n    tag_185:\n    tag_184:\n      div\n      swap3\n      pop\n        /* \"@openzeppelin/contracts/utils/math/Math.sol\":12540:12542  32 */\n      0x20\n        /* \"@openzeppelin/contracts/utils/math/Math.sol\":12530:12542  result += 32 */\n      dup2\n      add\n      swap1\n      pop\n        /* \"@openzeppelin/contracts/utils/math/Math.sol\":12454:12557  if (value >= 10 ** 32) {... */\n    tag_183:\n        /* \"@openzeppelin/contracts/utils/math/Math.sol\":12583:12591  10 ** 16 */\n      0x2386f26fc10000\n        /* \"@openzeppelin/contracts/utils/math/Math.sol\":12574:12579  value */\n      dup4\n        /* \"@openzeppelin/contracts/utils/math/Math.sol\":12574:12591  value >= 10 ** 16 */\n      lt\n        /* \"@openzeppelin/contracts/utils/math/Math.sol\":12570:12673  if (value >= 10 ** 16) {... */\n      tag_186\n      jumpi\n        /* \"@openzeppelin/contracts/utils/math/Math.sol\":12620:12628  10 ** 16 */\n      0x2386f26fc10000\n        /* \"@openzeppelin/contracts/utils/math/Math.sol\":12611:12628  value /= 10 ** 16 */\n      dup4\n      dup2\n      tag_187\n      jumpi\n      tag_188\n      tag_177\n      jump\t// in\n    tag_188:\n    tag_187:\n      div\n      swap3\n      pop\n        /* \"@openzeppelin/contracts/utils/math/Math.sol\":12656:12658  16 */\n      0x10\n        /* \"@openzeppelin/contracts/utils/math/Math.sol\":12646:12658  result += 16 */\n      dup2\n      add\n      swap1\n      pop\n        /* \"@openzeppelin/contracts/utils/math/Math.sol\":12570:12673  if (value >= 10 ** 16) {... */\n    tag_186:\n        /* \"@openzeppelin/contracts/utils/math/Math.sol\":12699:12706  10 ** 8 */\n      0x05f5e100\n        /* \"@openzeppelin/contracts/utils/math/Math.sol\":12690:12695  value */\n      dup4\n        /* \"@openzeppelin/contracts/utils/math/Math.sol\":12690:12706  value >= 10 ** 8 */\n      lt\n        /* \"@openzeppelin/contracts/utils/math/Math.sol\":12686:12786  if (value >= 10 ** 8) {... */\n      tag_189\n      jumpi\n        /* \"@openzeppelin/contracts/utils/math/Math.sol\":12735:12742  10 ** 8 */\n      0x05f5e100\n        /* \"@openzeppelin/contracts/utils/math/Math.sol\":12726:12742  value /= 10 ** 8 */\n      dup4\n      dup2\n      tag_190\n      jumpi\n      tag_191\n      tag_177\n      jump\t// in\n    tag_191:\n    tag_190:\n      div\n      swap3\n      pop\n        /* \"@openzeppelin/contracts/utils/math/Math.sol\":12770:12771  8 */\n      0x08\n        /* \"@openzeppelin/contracts/utils/math/Math.sol\":12760:12771  result += 8 */\n      dup2\n      add\n      swap1\n      pop\n        /* \"@openzeppelin/contracts/utils/math/Math.sol\":12686:12786  if (value >= 10 ** 8) {... */\n    tag_189:\n        /* \"@openzeppelin/contracts/utils/math/Math.sol\":12812:12819  10 ** 4 */\n      0x2710\n        /* \"@openzeppelin/contracts/utils/math/Math.sol\":12803:12808  value */\n      dup4\n        /* \"@openzeppelin/contracts/utils/math/Math.sol\":12803:12819  value >= 10 ** 4 */\n      lt\n        /* \"@openzeppelin/contracts/utils/math/Math.sol\":12799:12899  if (value >= 10 ** 4) {... */\n      tag_192\n      jumpi\n        /* \"@openzeppelin/contracts/utils/math/Math.sol\":12848:12855  10 ** 4 */\n      0x2710\n        /* \"@openzeppelin/contracts/utils/math/Math.sol\":12839:12855  value /= 10 ** 4 */\n      dup4\n      dup2\n      tag_193\n      jumpi\n      tag_194\n      tag_177\n      jump\t// in\n    tag_194:\n    tag_193:\n      div\n      swap3\n      pop\n        /* \"@openzeppelin/contracts/utils/math/Math.sol\":12883:12884  4 */\n      0x04\n        /* \"@openzeppelin/contracts/utils/math/Math.sol\":12873:12884  result += 4 */\n      dup2\n      add\n      swap1\n      pop\n        /* \"@openzeppelin/contracts/utils/math/Math.sol\":12799:12899  if (value >= 10 ** 4) {... */\n    tag_192:\n        /* \"@openzeppelin/contracts/utils/math/Math.sol\":12925:12932  10 ** 2 */\n      0x64\n        /* \"@openzeppelin/contracts/utils/math/Math.sol\":12916:12921  value */\n      dup4\n        /* \"@openzeppelin/contracts/utils/math/Math.sol\":12916:12932  value >= 10 ** 2 */\n      lt\n        /* \"@openzeppelin/contracts/utils/math/Math.sol\":12912:13012  if (value >= 10 ** 2) {... */\n      tag_195\n      jumpi\n        /* \"@openzeppelin/contracts/utils/math/Math.sol\":12961:12968  10 ** 2 */\n      0x64\n        /* \"@openzeppelin/contracts/utils/math/Math.sol\":12952:12968  value /= 10 ** 2 */\n      dup4\n      dup2\n      tag_196\n      jumpi\n      tag_197\n      tag_177\n      jump\t// in\n    tag_197:\n    tag_196:\n      div\n      swap3\n      pop\n        /* \"@openzeppelin/contracts/utils/math/Math.sol\":12996:12997  2 */\n      0x02\n        /* \"@openzeppelin/contracts/utils/math/Math.sol\":12986:12997  result += 2 */\n      dup2\n      add\n      swap1\n      pop\n        /* \"@openzeppelin/contracts/utils/math/Math.sol\":12912:13012  if (value >= 10 ** 2) {... */\n    tag_195:\n        /* \"@openzeppelin/contracts/utils/math/Math.sol\":13038:13045  10 ** 1 */\n      0x0a\n        /* \"@openzeppelin/contracts/utils/math/Math.sol\":13029:13034  value */\n      dup4\n        /* \"@openzeppelin/contracts/utils/math/Math.sol\":13029:13045  value >= 10 ** 1 */\n      lt\n        /* \"@openzeppelin/contracts/utils/math/Math.sol\":13025:13091  if (value >= 10 ** 1) {... */\n      tag_198\n      jumpi\n        /* \"@openzeppelin/contracts/utils/math/Math.sol\":13075:13076  1 */\n      0x01\n        /* \"@openzeppelin/contracts/utils/math/Math.sol\":13065:13076  result += 1 */\n      dup2\n      add\n      swap1\n      pop\n        /* \"@openzeppelin/contracts/utils/math/Math.sol\":13025:13091  if (value >= 10 ** 1) {... */\n    tag_198:\n        /* \"@openzeppelin/contracts/utils/math/Math.sol\":13117:13123  result */\n      dup1\n        /* \"@openzeppelin/contracts/utils/math/Math.sol\":13110:13123  return result */\n      swap2\n      pop\n      pop\n        /* \"@openzeppelin/contracts/utils/math/Math.sol\":12214:13130  function log10(uint256 value) internal pure returns (uint256) {... */\n      swap2\n      swap1\n      pop\n      jump\t// out\n        /* \"#utility.yul\":7:82   */\n    tag_199:\n        /* \"#utility.yul\":40:46   */\n      0x00\n        /* \"#utility.yul\":73:75   */\n      0x40\n        /* \"#utility.yul\":67:76   */\n      mload\n        /* \"#utility.yul\":57:76   */\n      swap1\n      pop\n        /* \"#utility.yul\":7:82   */\n      swap1\n      jump\t// out\n        /* \"#utility.yul\":88:205   */\n    tag_200:\n        /* \"#utility.yul\":197:198   */\n      0x00\n        /* \"#utility.yul\":194:195   */\n      dup1\n        /* \"#utility.yul\":187:199   */\n      revert\n        /* \"#utility.yul\":211:328   */\n    tag_201:\n        /* \"#utility.yul\":320:321   */\n      0x00\n        /* \"#utility.yul\":317:318   */\n      dup1\n        /* \"#utility.yul\":310:322   */\n      revert\n        /* \"#utility.yul\":334:451   */\n    tag_202:\n        /* \"#utility.yul\":443:444   */\n      0x00\n        /* \"#utility.yul\":440:441   */\n      dup1\n        /* \"#utility.yul\":433:445   */\n      revert\n        /* \"#utility.yul\":457:574   */\n    tag_203:\n        /* \"#utility.yul\":566:567   */\n      0x00\n        /* \"#utility.yul\":563:564   */\n      dup1\n        /* \"#utility.yul\":556:568   */\n      revert\n        /* \"#utility.yul\":580:697   */\n    tag_204:\n        /* \"#utility.yul\":689:690   */\n      0x00\n        /* \"#utility.yul\":686:687   */\n      dup1\n        /* \"#utility.yul\":679:691   */\n      revert\n        /* \"#utility.yul\":716:1268   */\n    tag_205:\n        /* \"#utility.yul\":773:781   */\n      0x00\n        /* \"#utility.yul\":783:789   */\n      dup1\n        /* \"#utility.yul\":833:836   */\n      dup4\n        /* \"#utility.yul\":826:830   */\n      0x1f\n        /* \"#utility.yul\":818:824   */\n      dup5\n        /* \"#utility.yul\":814:831   */\n      add\n        /* \"#utility.yul\":810:837   */\n      slt\n        /* \"#utility.yul\":800:922   */\n      tag_290\n      jumpi\n        /* \"#utility.yul\":841:920   */\n      tag_291\n      tag_202\n      jump\t// in\n    tag_291:\n        /* \"#utility.yul\":800:922   */\n    tag_290:\n        /* \"#utility.yul\":954:960   */\n      dup3\n        /* \"#utility.yul\":941:961   */\n      calldataload\n        /* \"#utility.yul\":931:961   */\n      swap1\n      pop\n        /* \"#utility.yul\":984:1002   */\n      0xffffffffffffffff\n        /* \"#utility.yul\":976:982   */\n      dup2\n        /* \"#utility.yul\":973:1003   */\n      gt\n        /* \"#utility.yul\":970:1087   */\n      iszero\n      tag_292\n      jumpi\n        /* \"#utility.yul\":1006:1085   */\n      tag_293\n      tag_203\n      jump\t// in\n    tag_293:\n        /* \"#utility.yul\":970:1087   */\n    tag_292:\n        /* \"#utility.yul\":1120:1124   */\n      0x20\n        /* \"#utility.yul\":1112:1118   */\n      dup4\n        /* \"#utility.yul\":1108:1125   */\n      add\n        /* \"#utility.yul\":1096:1125   */\n      swap2\n      pop\n        /* \"#utility.yul\":1174:1177   */\n      dup4\n        /* \"#utility.yul\":1166:1170   */\n      0x01\n        /* \"#utility.yul\":1158:1164   */\n      dup3\n        /* \"#utility.yul\":1154:1171   */\n      mul\n        /* \"#utility.yul\":1144:1152   */\n      dup4\n        /* \"#utility.yul\":1140:1172   */\n      add\n        /* \"#utility.yul\":1137:1178   */\n      gt\n        /* \"#utility.yul\":1134:1262   */\n      iszero\n      tag_294\n      jumpi\n        /* \"#utility.yul\":1181:1260   */\n      tag_295\n      tag_204\n      jump\t// in\n    tag_295:\n        /* \"#utility.yul\":1134:1262   */\n    tag_294:\n        /* \"#utility.yul\":716:1268   */\n      swap3\n      pop\n      swap3\n      swap1\n      pop\n      jump\t// out\n        /* \"#utility.yul\":1274:1801   */\n    tag_26:\n        /* \"#utility.yul\":1344:1350   */\n      0x00\n        /* \"#utility.yul\":1352:1358   */\n      dup1\n        /* \"#utility.yul\":1401:1403   */\n      0x20\n        /* \"#utility.yul\":1389:1398   */\n      dup4\n        /* \"#utility.yul\":1380:1387   */\n      dup6\n        /* \"#utility.yul\":1376:1399   */\n      sub\n        /* \"#utility.yul\":1372:1404   */\n      slt\n        /* \"#utility.yul\":1369:1488   */\n      iszero\n      tag_297\n      jumpi\n        /* \"#utility.yul\":1407:1486   */\n      tag_298\n      tag_200\n      jump\t// in\n    tag_298:\n        /* \"#utility.yul\":1369:1488   */\n    tag_297:\n        /* \"#utility.yul\":1555:1556   */\n      0x00\n        /* \"#utility.yul\":1544:1553   */\n      dup4\n        /* \"#utility.yul\":1540:1557   */\n      add\n        /* \"#utility.yul\":1527:1558   */\n      calldataload\n        /* \"#utility.yul\":1585:1603   */\n      0xffffffffffffffff\n        /* \"#utility.yul\":1577:1583   */\n      dup2\n        /* \"#utility.yul\":1574:1604   */\n      gt\n        /* \"#utility.yul\":1571:1688   */\n      iszero\n      tag_299\n      jumpi\n        /* \"#utility.yul\":1607:1686   */\n      tag_300\n      tag_201\n      jump\t// in\n    tag_300:\n        /* \"#utility.yul\":1571:1688   */\n    tag_299:\n        /* \"#utility.yul\":1720:1784   */\n      tag_301\n        /* \"#utility.yul\":1776:1783   */\n      dup6\n        /* \"#utility.yul\":1767:1773   */\n      dup3\n        /* \"#utility.yul\":1756:1765   */\n      dup7\n        /* \"#utility.yul\":1752:1774   */\n      add\n        /* \"#utility.yul\":1720:1784   */\n      tag_205\n      jump\t// in\n    tag_301:\n        /* \"#utility.yul\":1702:1784   */\n      swap3\n      pop\n      swap3\n      pop\n        /* \"#utility.yul\":1498:1794   */\n      pop\n        /* \"#utility.yul\":1274:1801   */\n      swap3\n      pop\n      swap3\n      swap1\n      pop\n      jump\t// out\n        /* \"#utility.yul\":1807:1906   */\n    tag_206:\n        /* \"#utility.yul\":1859:1865   */\n      0x00\n        /* \"#utility.yul\":1893:1898   */\n      dup2\n        /* \"#utility.yul\":1887:1899   */\n      mload\n        /* \"#utility.yul\":1877:1899   */\n      swap1\n      pop\n        /* \"#utility.yul\":1807:1906   */\n      swap2\n      swap1\n      pop\n      jump\t// out\n        /* \"#utility.yul\":1912:2081   */\n    tag_207:\n        /* \"#utility.yul\":1996:2007   */\n      0x00\n        /* \"#utility.yul\":2030:2036   */\n      dup3\n        /* \"#utility.yul\":2025:2028   */\n      dup3\n        /* \"#utility.yul\":2018:2037   */\n      mstore\n        /* \"#utility.yul\":2070:2074   */\n      0x20\n        /* \"#utility.yul\":2065:2068   */\n      dup3\n        /* \"#utility.yul\":2061:2075   */\n      add\n        /* \"#utility.yul\":2046:2075   */\n      swap1\n      pop\n        /* \"#utility.yul\":1912:2081   */\n      swap3\n      swap2\n      pop\n      pop\n      jump\t// out\n        /* \"#utility.yul\":2087:2333   */\n    tag_208:\n        /* \"#utility.yul\":2168:2169   */\n      0x00\n        /* \"#utility.yul\":2178:2291   */\n    tag_305:\n        /* \"#utility.yul\":2192:2198   */\n      dup4\n        /* \"#utility.yul\":2189:2190   */\n      dup2\n        /* \"#utility.yul\":2186:2199   */\n      lt\n        /* \"#utility.yul\":2178:2291   */\n      iszero\n      tag_307\n      jumpi\n        /* \"#utility.yul\":2277:2278   */\n      dup1\n        /* \"#utility.yul\":2272:2275   */\n      dup3\n        /* \"#utility.yul\":2268:2279   */\n      add\n        /* \"#utility.yul\":2262:2280   */\n      mload\n        /* \"#utility.yul\":2258:2259   */\n      dup2\n        /* \"#utility.yul\":2253:2256   */\n      dup5\n        /* \"#utility.yul\":2249:2260   */\n      add\n        /* \"#utility.yul\":2242:2281   */\n      mstore\n        /* \"#utility.yul\":2214:2216   */\n      0x20\n        /* \"#utility.yul\":2211:2212   */\n      dup2\n        /* \"#utility.yul\":2207:2217   */\n      add\n        /* \"#utility.yul\":2202:2217   */\n      swap1\n      pop\n        /* \"#utility.yul\":2178:2291   */\n      jump(tag_305)\n    tag_307:\n        /* \"#utility.yul\":2325:2326   */\n      0x00\n        /* \"#utility.yul\":2316:2322   */\n      dup5\n        /* \"#utility.yul\":2311:2314   */\n      dup5\n        /* \"#utility.yul\":2307:2323   */\n      add\n        /* \"#utility.yul\":2300:2327   */\n      mstore\n        /* \"#utility.yul\":2149:2333   */\n      pop\n        /* \"#utility.yul\":2087:2333   */\n      pop\n      pop\n      pop\n      jump\t// out\n        /* \"#utility.yul\":2339:2441   */\n    tag_209:\n        /* \"#utility.yul\":2380:2386   */\n      0x00\n        /* \"#utility.yul\":2431:2433   */\n      0x1f\n        /* \"#utility.yul\":2427:2434   */\n      not\n        /* \"#utility.yul\":2422:2424   */\n      0x1f\n        /* \"#utility.yul\":2415:2420   */\n      dup4\n        /* \"#utility.yul\":2411:2425   */\n      add\n        /* \"#utility.yul\":2407:2435   */\n      and\n        /* \"#utility.yul\":2397:2435   */\n      swap1\n      pop\n        /* \"#utility.yul\":2339:2441   */\n      swap2\n      swap1\n      pop\n      jump\t// out\n        /* \"#utility.yul\":2447:2824   */\n    tag_210:\n        /* \"#utility.yul\":2535:2538   */\n      0x00\n        /* \"#utility.yul\":2563:2602   */\n      tag_310\n        /* \"#utility.yul\":2596:2601   */\n      dup3\n        /* \"#utility.yul\":2563:2602   */\n      tag_206\n      jump\t// in\n    tag_310:\n        /* \"#utility.yul\":2618:2689   */\n      tag_311\n        /* \"#utility.yul\":2682:2688   */\n      dup2\n        /* \"#utility.yul\":2677:2680   */\n      dup6\n        /* \"#utility.yul\":2618:2689   */\n      tag_207\n      jump\t// in\n    tag_311:\n        /* \"#utility.yul\":2611:2689   */\n      swap4\n      pop\n        /* \"#utility.yul\":2698:2763   */\n      tag_312\n        /* \"#utility.yul\":2756:2762   */\n      dup2\n        /* \"#utility.yul\":2751:2754   */\n      dup6\n        /* \"#utility.yul\":2744:2748   */\n      0x20\n        /* \"#utility.yul\":2737:2742   */\n      dup7\n        /* \"#utility.yul\":2733:2749   */\n      add\n        /* \"#utility.yul\":2698:2763   */\n      tag_208\n      jump\t// in\n    tag_312:\n        /* \"#utility.yul\":2788:2817   */\n      tag_313\n        /* \"#utility.yul\":2810:2816   */\n      dup2\n        /* \"#utility.yul\":2788:2817   */\n      tag_209\n      jump\t// in\n    tag_313:\n        /* \"#utility.yul\":2783:2786   */\n      dup5\n        /* \"#utility.yul\":2779:2818   */\n      add\n        /* \"#utility.yul\":2772:2818   */\n      swap2\n      pop\n        /* \"#utility.yul\":2539:2824   */\n      pop\n        /* \"#utility.yul\":2447:2824   */\n      swap3\n      swap2\n      pop\n      pop\n      jump\t// out\n        /* \"#utility.yul\":2830:2907   */\n    tag_211:\n        /* \"#utility.yul\":2867:2874   */\n      0x00\n        /* \"#utility.yul\":2896:2901   */\n      dup2\n        /* \"#utility.yul\":2885:2901   */\n      swap1\n      pop\n        /* \"#utility.yul\":2830:2907   */\n      swap2\n      swap1\n      pop\n      jump\t// out\n        /* \"#utility.yul\":2913:3031   */\n    tag_212:\n        /* \"#utility.yul\":3000:3024   */\n      tag_316\n        /* \"#utility.yul\":3018:3023   */\n      dup2\n        /* \"#utility.yul\":3000:3024   */\n      tag_211\n      jump\t// in\n    tag_316:\n        /* \"#utility.yul\":2995:2998   */\n      dup3\n        /* \"#utility.yul\":2988:3025   */\n      mstore\n        /* \"#utility.yul\":2913:3031   */\n      pop\n      pop\n      jump\t// out\n        /* \"#utility.yul\":3037:3163   */\n    tag_213:\n        /* \"#utility.yul\":3074:3081   */\n      0x00\n        /* \"#utility.yul\":3114:3156   */\n      0xffffffffffffffffffffffffffffffffffffffff\n        /* \"#utility.yul\":3107:3112   */\n      dup3\n        /* \"#utility.yul\":3103:3157   */\n      and\n        /* \"#utility.yul\":3092:3157   */\n      swap1\n      pop\n        /* \"#utility.yul\":3037:3163   */\n      swap2\n      swap1\n      pop\n      jump\t// out\n        /* \"#utility.yul\":3169:3265   */\n    tag_214:\n        /* \"#utility.yul\":3206:3213   */\n      0x00\n        /* \"#utility.yul\":3235:3259   */\n      tag_319\n        /* \"#utility.yul\":3253:3258   */\n      dup3\n        /* \"#utility.yul\":3235:3259   */\n      tag_213\n      jump\t// in\n    tag_319:\n        /* \"#utility.yul\":3224:3259   */\n      swap1\n      pop\n        /* \"#utility.yul\":3169:3265   */\n      swap2\n      swap1\n      pop\n      jump\t// out\n        /* \"#utility.yul\":3271:3389   */\n    tag_215:\n        /* \"#utility.yul\":3358:3382   */\n      tag_321\n        /* \"#utility.yul\":3376:3381   */\n      dup2\n        /* \"#utility.yul\":3358:3382   */\n      tag_214\n      jump\t// in\n    tag_321:\n        /* \"#utility.yul\":3353:3356   */\n      dup3\n        /* \"#utility.yul\":3346:3383   */\n      mstore\n        /* \"#utility.yul\":3271:3389   */\n      pop\n      pop\n      jump\t// out\n        /* \"#utility.yul\":3395:3928   */\n    tag_29:\n        /* \"#utility.yul\":3564:3568   */\n      0x00\n        /* \"#utility.yul\":3602:3604   */\n      0x60\n        /* \"#utility.yul\":3591:3600   */\n      dup3\n        /* \"#utility.yul\":3587:3605   */\n      add\n        /* \"#utility.yul\":3579:3605   */\n      swap1\n      pop\n        /* \"#utility.yul\":3651:3660   */\n      dup2\n        /* \"#utility.yul\":3645:3649   */\n      dup2\n        /* \"#utility.yul\":3641:3661   */\n      sub\n        /* \"#utility.yul\":3637:3638   */\n      0x00\n        /* \"#utility.yul\":3626:3635   */\n      dup4\n        /* \"#utility.yul\":3622:3639   */\n      add\n        /* \"#utility.yul\":3615:3662   */\n      mstore\n        /* \"#utility.yul\":3679:3757   */\n      tag_323\n        /* \"#utility.yul\":3752:3756   */\n      dup2\n        /* \"#utility.yul\":3743:3749   */\n      dup7\n        /* \"#utility.yul\":3679:3757   */\n      tag_210\n      jump\t// in\n    tag_323:\n        /* \"#utility.yul\":3671:3757   */\n      swap1\n      pop\n        /* \"#utility.yul\":3767:3839   */\n      tag_324\n        /* \"#utility.yul\":3835:3837   */\n      0x20\n        /* \"#utility.yul\":3824:3833   */\n      dup4\n        /* \"#utility.yul\":3820:3838   */\n      add\n        /* \"#utility.yul\":3811:3817   */\n      dup6\n        /* \"#utility.yul\":3767:3839   */\n      tag_212\n      jump\t// in\n    tag_324:\n        /* \"#utility.yul\":3849:3921   */\n      tag_325\n        /* \"#utility.yul\":3917:3919   */\n      0x40\n        /* \"#utility.yul\":3906:3915   */\n      dup4\n        /* \"#utility.yul\":3902:3920   */\n      add\n        /* \"#utility.yul\":3893:3899   */\n      dup5\n        /* \"#utility.yul\":3849:3921   */\n      tag_215\n      jump\t// in\n    tag_325:\n        /* \"#utility.yul\":3395:3928   */\n      swap5\n      swap4\n      pop\n      pop\n      pop\n      pop\n      jump\t// out\n        /* \"#utility.yul\":3934:4056   */\n    tag_216:\n        /* \"#utility.yul\":4007:4031   */\n      tag_327\n        /* \"#utility.yul\":4025:4030   */\n      dup2\n        /* \"#utility.yul\":4007:4031   */\n      tag_214\n      jump\t// in\n    tag_327:\n        /* \"#utility.yul\":4000:4005   */\n      dup2\n        /* \"#utility.yul\":3997:4032   */\n      eq\n        /* \"#utility.yul\":3987:4050   */\n      tag_328\n      jumpi\n        /* \"#utility.yul\":4046:4047   */\n      0x00\n        /* \"#utility.yul\":4043:4044   */\n      dup1\n        /* \"#utility.yul\":4036:4048   */\n      revert\n        /* \"#utility.yul\":3987:4050   */\n    tag_328:\n        /* \"#utility.yul\":3934:4056   */\n      pop\n      jump\t// out\n        /* \"#utility.yul\":4062:4201   */\n    tag_217:\n        /* \"#utility.yul\":4108:4113   */\n      0x00\n        /* \"#utility.yul\":4146:4152   */\n      dup2\n        /* \"#utility.yul\":4133:4153   */\n      calldataload\n        /* \"#utility.yul\":4124:4153   */\n      swap1\n      pop\n        /* \"#utility.yul\":4162:4195   */\n      tag_330\n        /* \"#utility.yul\":4189:4194   */\n      dup2\n        /* \"#utility.yul\":4162:4195   */\n      tag_216\n      jump\t// in\n    tag_330:\n        /* \"#utility.yul\":4062:4201   */\n      swap3\n      swap2\n      pop\n      pop\n      jump\t// out\n        /* \"#utility.yul\":4207:4329   */\n    tag_218:\n        /* \"#utility.yul\":4280:4304   */\n      tag_332\n        /* \"#utility.yul\":4298:4303   */\n      dup2\n        /* \"#utility.yul\":4280:4304   */\n      tag_211\n      jump\t// in\n    tag_332:\n        /* \"#utility.yul\":4273:4278   */\n      dup2\n        /* \"#utility.yul\":4270:4305   */\n      eq\n        /* \"#utility.yul\":4260:4323   */\n      tag_333\n      jumpi\n        /* \"#utility.yul\":4319:4320   */\n      0x00\n        /* \"#utility.yul\":4316:4317   */\n      dup1\n        /* \"#utility.yul\":4309:4321   */\n      revert\n        /* \"#utility.yul\":4260:4323   */\n    tag_333:\n        /* \"#utility.yul\":4207:4329   */\n      pop\n      jump\t// out\n        /* \"#utility.yul\":4335:4474   */\n    tag_219:\n        /* \"#utility.yul\":4381:4386   */\n      0x00\n        /* \"#utility.yul\":4419:4425   */\n      dup2\n        /* \"#utility.yul\":4406:4426   */\n      calldataload\n        /* \"#utility.yul\":4397:4426   */\n      swap1\n      pop\n        /* \"#utility.yul\":4435:4468   */\n      tag_335\n        /* \"#utility.yul\":4462:4467   */\n      dup2\n        /* \"#utility.yul\":4435:4468   */\n      tag_218\n      jump\t// in\n    tag_335:\n        /* \"#utility.yul\":4335:4474   */\n      swap3\n      swap2\n      pop\n      pop\n      jump\t// out\n        /* \"#utility.yul\":4480:4954   */\n    tag_33:\n        /* \"#utility.yul\":4548:4554   */\n      0x00\n        /* \"#utility.yul\":4556:4562   */\n      dup1\n        /* \"#utility.yul\":4605:4607   */\n      0x40\n        /* \"#utility.yul\":4593:4602   */\n      dup4\n        /* \"#utility.yul\":4584:4591   */\n      dup6\n        /* \"#utility.yul\":4580:4603   */\n      sub\n        /* \"#utility.yul\":4576:4608   */\n      slt\n        /* \"#utility.yul\":4573:4692   */\n      iszero\n      tag_337\n      jumpi\n        /* \"#utility.yul\":4611:4690   */\n      tag_338\n      tag_200\n      jump\t// in\n    tag_338:\n        /* \"#utility.yul\":4573:4692   */\n    tag_337:\n        /* \"#utility.yul\":4731:4732   */\n      0x00\n        /* \"#utility.yul\":4756:4809   */\n      tag_339\n        /* \"#utility.yul\":4801:4808   */\n      dup6\n        /* \"#utility.yul\":4792:4798   */\n      dup3\n        /* \"#utility.yul\":4781:4790   */\n      dup7\n        /* \"#utility.yul\":4777:4799   */\n      add\n        /* \"#utility.yul\":4756:4809   */\n      tag_217\n      jump\t// in\n    tag_339:\n        /* \"#utility.yul\":4746:4809   */\n      swap3\n      pop\n        /* \"#utility.yul\":4702:4819   */\n      pop\n        /* \"#utility.yul\":4858:4860   */\n      0x20\n        /* \"#utility.yul\":4884:4937   */\n      tag_340\n        /* \"#utility.yul\":4929:4936   */\n      dup6\n        /* \"#utility.yul\":4920:4926   */\n      dup3\n        /* \"#utility.yul\":4909:4918   */\n      dup7\n        /* \"#utility.yul\":4905:4927   */\n      add\n        /* \"#utility.yul\":4884:4937   */\n      tag_219\n      jump\t// in\n    tag_340:\n        /* \"#utility.yul\":4874:4937   */\n      swap2\n      pop\n        /* \"#utility.yul\":4829:4947   */\n      pop\n        /* \"#utility.yul\":4480:4954   */\n      swap3\n      pop\n      swap3\n      swap1\n      pop\n      jump\t// out\n        /* \"#utility.yul\":4960:5058   */\n    tag_220:\n        /* \"#utility.yul\":5011:5017   */\n      0x00\n        /* \"#utility.yul\":5045:5050   */\n      dup2\n        /* \"#utility.yul\":5039:5051   */\n      mload\n        /* \"#utility.yul\":5029:5051   */\n      swap1\n      pop\n        /* \"#utility.yul\":4960:5058   */\n      swap2\n      swap1\n      pop\n      jump\t// out\n        /* \"#utility.yul\":5064:5232   */\n    tag_221:\n        /* \"#utility.yul\":5147:5158   */\n      0x00\n        /* \"#utility.yul\":5181:5187   */\n      dup3\n        /* \"#utility.yul\":5176:5179   */\n      dup3\n        /* \"#utility.yul\":5169:5188   */\n      mstore\n        /* \"#utility.yul\":5221:5225   */\n      0x20\n        /* \"#utility.yul\":5216:5219   */\n      dup3\n        /* \"#utility.yul\":5212:5226   */\n      add\n        /* \"#utility.yul\":5197:5226   */\n      swap1\n      pop\n        /* \"#utility.yul\":5064:5232   */\n      swap3\n      swap2\n      pop\n      pop\n      jump\t// out\n        /* \"#utility.yul\":5238:5611   */\n    tag_222:\n        /* \"#utility.yul\":5324:5327   */\n      0x00\n        /* \"#utility.yul\":5352:5390   */\n      tag_344\n        /* \"#utility.yul\":5384:5389   */\n      dup3\n        /* \"#utility.yul\":5352:5390   */\n      tag_220\n      jump\t// in\n    tag_344:\n        /* \"#utility.yul\":5406:5476   */\n      tag_345\n        /* \"#utility.yul\":5469:5475   */\n      dup2\n        /* \"#utility.yul\":5464:5467   */\n      dup6\n        /* \"#utility.yul\":5406:5476   */\n      tag_221\n      jump\t// in\n    tag_345:\n        /* \"#utility.yul\":5399:5476   */\n      swap4\n      pop\n        /* \"#utility.yul\":5485:5550   */\n      tag_346\n        /* \"#utility.yul\":5543:5549   */\n      dup2\n        /* \"#utility.yul\":5538:5541   */\n      dup6\n        /* \"#utility.yul\":5531:5535   */\n      0x20\n        /* \"#utility.yul\":5524:5529   */\n      dup7\n        /* \"#utility.yul\":5520:5536   */\n      add\n        /* \"#utility.yul\":5485:5550   */\n      tag_208\n      jump\t// in\n    tag_346:\n        /* \"#utility.yul\":5575:5604   */\n      tag_347\n        /* \"#utility.yul\":5597:5603   */\n      dup2\n        /* \"#utility.yul\":5575:5604   */\n      tag_209\n      jump\t// in\n    tag_347:\n        /* \"#utility.yul\":5570:5573   */\n      dup5\n        /* \"#utility.yul\":5566:5605   */\n      add\n        /* \"#utility.yul\":5559:5605   */\n      swap2\n      pop\n        /* \"#utility.yul\":5328:5611   */\n      pop\n        /* \"#utility.yul\":5238:5611   */\n      swap3\n      swap2\n      pop\n      pop\n      jump\t// out\n        /* \"#utility.yul\":5617:5926   */\n    tag_36:\n        /* \"#utility.yul\":5728:5732   */\n      0x00\n        /* \"#utility.yul\":5766:5768   */\n      0x20\n        /* \"#utility.yul\":5755:5764   */\n      dup3\n        /* \"#utility.yul\":5751:5769   */\n      add\n        /* \"#utility.yul\":5743:5769   */\n      swap1\n      pop\n        /* \"#utility.yul\":5815:5824   */\n      dup2\n        /* \"#utility.yul\":5809:5813   */\n      dup2\n        /* \"#utility.yul\":5805:5825   */\n      sub\n        /* \"#utility.yul\":5801:5802   */\n      0x00\n        /* \"#utility.yul\":5790:5799   */\n      dup4\n        /* \"#utility.yul\":5786:5803   */\n      add\n        /* \"#utility.yul\":5779:5826   */\n      mstore\n        /* \"#utility.yul\":5843:5919   */\n      tag_349\n        /* \"#utility.yul\":5914:5918   */\n      dup2\n        /* \"#utility.yul\":5905:5911   */\n      dup5\n        /* \"#utility.yul\":5843:5919   */\n      tag_222\n      jump\t// in\n    tag_349:\n        /* \"#utility.yul\":5835:5919   */\n      swap1\n      pop\n        /* \"#utility.yul\":5617:5926   */\n      swap3\n      swap2\n      pop\n      pop\n      jump\t// out\n        /* \"#utility.yul\":5932:6022   */\n    tag_223:\n        /* \"#utility.yul\":5966:5973   */\n      0x00\n        /* \"#utility.yul\":6009:6014   */\n      dup2\n        /* \"#utility.yul\":6002:6015   */\n      iszero\n        /* \"#utility.yul\":5995:6016   */\n      iszero\n        /* \"#utility.yul\":5984:6016   */\n      swap1\n      pop\n        /* \"#utility.yul\":5932:6022   */\n      swap2\n      swap1\n      pop\n      jump\t// out\n        /* \"#utility.yul\":6028:6144   */\n    tag_224:\n        /* \"#utility.yul\":6098:6119   */\n      tag_352\n        /* \"#utility.yul\":6113:6118   */\n      dup2\n        /* \"#utility.yul\":6098:6119   */\n      tag_223\n      jump\t// in\n    tag_352:\n        /* \"#utility.yul\":6091:6096   */\n      dup2\n        /* \"#utility.yul\":6088:6120   */\n      eq\n        /* \"#utility.yul\":6078:6138   */\n      tag_353\n      jumpi\n        /* \"#utility.yul\":6134:6135   */\n      0x00\n        /* \"#utility.yul\":6131:6132   */\n      dup1\n        /* \"#utility.yul\":6124:6136   */\n      revert\n        /* \"#utility.yul\":6078:6138   */\n    tag_353:\n        /* \"#utility.yul\":6028:6144   */\n      pop\n      jump\t// out\n        /* \"#utility.yul\":6150:6283   */\n    tag_225:\n        /* \"#utility.yul\":6193:6198   */\n      0x00\n        /* \"#utility.yul\":6231:6237   */\n      dup2\n        /* \"#utility.yul\":6218:6238   */\n      calldataload\n        /* \"#utility.yul\":6209:6238   */\n      swap1\n      pop\n        /* \"#utility.yul\":6247:6277   */\n      tag_355\n        /* \"#utility.yul\":6271:6276   */\n      dup2\n        /* \"#utility.yul\":6247:6277   */\n      tag_224\n      jump\t// in\n    tag_355:\n        /* \"#utility.yul\":6150:6283   */\n      swap3\n      swap2\n      pop\n      pop\n      jump\t// out\n        /* \"#utility.yul\":6306:6874   */\n    tag_226:\n        /* \"#utility.yul\":6379:6387   */\n      0x00\n        /* \"#utility.yul\":6389:6395   */\n      dup1\n        /* \"#utility.yul\":6439:6442   */\n      dup4\n        /* \"#utility.yul\":6432:6436   */\n      0x1f\n        /* \"#utility.yul\":6424:6430   */\n      dup5\n        /* \"#utility.yul\":6420:6437   */\n      add\n        /* \"#utility.yul\":6416:6443   */\n      slt\n        /* \"#utility.yul\":6406:6528   */\n      tag_357\n      jumpi\n        /* \"#utility.yul\":6447:6526   */\n      tag_358\n      tag_202\n      jump\t// in\n    tag_358:\n        /* \"#utility.yul\":6406:6528   */\n    tag_357:\n        /* \"#utility.yul\":6560:6566   */\n      dup3\n        /* \"#utility.yul\":6547:6567   */\n      calldataload\n        /* \"#utility.yul\":6537:6567   */\n      swap1\n      pop\n        /* \"#utility.yul\":6590:6608   */\n      0xffffffffffffffff\n        /* \"#utility.yul\":6582:6588   */\n      dup2\n        /* \"#utility.yul\":6579:6609   */\n      gt\n        /* \"#utility.yul\":6576:6693   */\n      iszero\n      tag_359\n      jumpi\n        /* \"#utility.yul\":6612:6691   */\n      tag_360\n      tag_203\n      jump\t// in\n    tag_360:\n        /* \"#utility.yul\":6576:6693   */\n    tag_359:\n        /* \"#utility.yul\":6726:6730   */\n      0x20\n        /* \"#utility.yul\":6718:6724   */\n      dup4\n        /* \"#utility.yul\":6714:6731   */\n      add\n        /* \"#utility.yul\":6702:6731   */\n      swap2\n      pop\n        /* \"#utility.yul\":6780:6783   */\n      dup4\n        /* \"#utility.yul\":6772:6776   */\n      0x20\n        /* \"#utility.yul\":6764:6770   */\n      dup3\n        /* \"#utility.yul\":6760:6777   */\n      mul\n        /* \"#utility.yul\":6750:6758   */\n      dup4\n        /* \"#utility.yul\":6746:6778   */\n      add\n        /* \"#utility.yul\":6743:6784   */\n      gt\n        /* \"#utility.yul\":6740:6868   */\n      iszero\n      tag_361\n      jumpi\n        /* \"#utility.yul\":6787:6866   */\n      tag_362\n      tag_204\n      jump\t// in\n    tag_362:\n        /* \"#utility.yul\":6740:6868   */\n    tag_361:\n        /* \"#utility.yul\":6306:6874   */\n      swap3\n      pop\n      swap3\n      swap1\n      pop\n      jump\t// out\n        /* \"#utility.yul\":6894:7447   */\n    tag_227:\n        /* \"#utility.yul\":6952:6960   */\n      0x00\n        /* \"#utility.yul\":6962:6968   */\n      dup1\n        /* \"#utility.yul\":7012:7015   */\n      dup4\n        /* \"#utility.yul\":7005:7009   */\n      0x1f\n        /* \"#utility.yul\":6997:7003   */\n      dup5\n        /* \"#utility.yul\":6993:7010   */\n      add\n        /* \"#utility.yul\":6989:7016   */\n      slt\n        /* \"#utility.yul\":6979:7101   */\n      tag_364\n      jumpi\n        /* \"#utility.yul\":7020:7099   */\n      tag_365\n      tag_202\n      jump\t// in\n    tag_365:\n        /* \"#utility.yul\":6979:7101   */\n    tag_364:\n        /* \"#utility.yul\":7133:7139   */\n      dup3\n        /* \"#utility.yul\":7120:7140   */\n      calldataload\n        /* \"#utility.yul\":7110:7140   */\n      swap1\n      pop\n        /* \"#utility.yul\":7163:7181   */\n      0xffffffffffffffff\n        /* \"#utility.yul\":7155:7161   */\n      dup2\n        /* \"#utility.yul\":7152:7182   */\n      gt\n        /* \"#utility.yul\":7149:7266   */\n      iszero\n      tag_366\n      jumpi\n        /* \"#utility.yul\":7185:7264   */\n      tag_367\n      tag_203\n      jump\t// in\n    tag_367:\n        /* \"#utility.yul\":7149:7266   */\n    tag_366:\n        /* \"#utility.yul\":7299:7303   */\n      0x20\n        /* \"#utility.yul\":7291:7297   */\n      dup4\n        /* \"#utility.yul\":7287:7304   */\n      add\n        /* \"#utility.yul\":7275:7304   */\n      swap2\n      pop\n        /* \"#utility.yul\":7353:7356   */\n      dup4\n        /* \"#utility.yul\":7345:7349   */\n      0x01\n        /* \"#utility.yul\":7337:7343   */\n      dup3\n        /* \"#utility.yul\":7333:7350   */\n      mul\n        /* \"#utility.yul\":7323:7331   */\n      dup4\n        /* \"#utility.yul\":7319:7351   */\n      add\n        /* \"#utility.yul\":7316:7357   */\n      gt\n        /* \"#utility.yul\":7313:7441   */\n      iszero\n      tag_368\n      jumpi\n        /* \"#utility.yul\":7360:7439   */\n      tag_369\n      tag_204\n      jump\t// in\n    tag_369:\n        /* \"#utility.yul\":7313:7441   */\n    tag_368:\n        /* \"#utility.yul\":6894:7447   */\n      swap3\n      pop\n      swap3\n      swap1\n      pop\n      jump\t// out\n        /* \"#utility.yul\":7453:8642   */\n    tag_44:\n        /* \"#utility.yul\":7575:7581   */\n      0x00\n        /* \"#utility.yul\":7583:7589   */\n      dup1\n        /* \"#utility.yul\":7591:7597   */\n      0x00\n        /* \"#utility.yul\":7599:7605   */\n      dup1\n        /* \"#utility.yul\":7607:7613   */\n      0x00\n        /* \"#utility.yul\":7615:7621   */\n      dup1\n        /* \"#utility.yul\":7664:7667   */\n      0x80\n        /* \"#utility.yul\":7652:7661   */\n      dup8\n        /* \"#utility.yul\":7643:7650   */\n      dup10\n        /* \"#utility.yul\":7639:7662   */\n      sub\n        /* \"#utility.yul\":7635:7668   */\n      slt\n        /* \"#utility.yul\":7632:7752   */\n      iszero\n      tag_371\n      jumpi\n        /* \"#utility.yul\":7671:7750   */\n      tag_372\n      tag_200\n      jump\t// in\n    tag_372:\n        /* \"#utility.yul\":7632:7752   */\n    tag_371:\n        /* \"#utility.yul\":7791:7792   */\n      0x00\n        /* \"#utility.yul\":7816:7866   */\n      tag_373\n        /* \"#utility.yul\":7858:7865   */\n      dup10\n        /* \"#utility.yul\":7849:7855   */\n      dup3\n        /* \"#utility.yul\":7838:7847   */\n      dup11\n        /* \"#utility.yul\":7834:7856   */\n      add\n        /* \"#utility.yul\":7816:7866   */\n      tag_225\n      jump\t// in\n    tag_373:\n        /* \"#utility.yul\":7806:7866   */\n      swap7\n      pop\n        /* \"#utility.yul\":7762:7876   */\n      pop\n        /* \"#utility.yul\":7943:7945   */\n      0x20\n        /* \"#utility.yul\":7932:7941   */\n      dup8\n        /* \"#utility.yul\":7928:7946   */\n      add\n        /* \"#utility.yul\":7915:7947   */\n      calldataload\n        /* \"#utility.yul\":7974:7992   */\n      0xffffffffffffffff\n        /* \"#utility.yul\":7966:7972   */\n      dup2\n        /* \"#utility.yul\":7963:7993   */\n      gt\n        /* \"#utility.yul\":7960:8077   */\n      iszero\n      tag_374\n      jumpi\n        /* \"#utility.yul\":7996:8075   */\n      tag_375\n      tag_201\n      jump\t// in\n    tag_375:\n        /* \"#utility.yul\":7960:8077   */\n    tag_374:\n        /* \"#utility.yul\":8109:8189   */\n      tag_376\n        /* \"#utility.yul\":8181:8188   */\n      dup10\n        /* \"#utility.yul\":8172:8178   */\n      dup3\n        /* \"#utility.yul\":8161:8170   */\n      dup11\n        /* \"#utility.yul\":8157:8179   */\n      add\n        /* \"#utility.yul\":8109:8189   */\n      tag_226\n      jump\t// in\n    tag_376:\n        /* \"#utility.yul\":8091:8189   */\n      swap6\n      pop\n      swap6\n      pop\n        /* \"#utility.yul\":7886:8199   */\n      pop\n        /* \"#utility.yul\":8238:8240   */\n      0x40\n        /* \"#utility.yul\":8264:8317   */\n      tag_377\n        /* \"#utility.yul\":8309:8316   */\n      dup10\n        /* \"#utility.yul\":8300:8306   */\n      dup3\n        /* \"#utility.yul\":8289:8298   */\n      dup11\n        /* \"#utility.yul\":8285:8307   */\n      add\n        /* \"#utility.yul\":8264:8317   */\n      tag_217\n      jump\t// in\n    tag_377:\n        /* \"#utility.yul\":8254:8317   */\n      swap4\n      pop\n        /* \"#utility.yul\":8209:8327   */\n      pop\n        /* \"#utility.yul\":8394:8396   */\n      0x60\n        /* \"#utility.yul\":8383:8392   */\n      dup8\n        /* \"#utility.yul\":8379:8397   */\n      add\n        /* \"#utility.yul\":8366:8398   */\n      calldataload\n        /* \"#utility.yul\":8425:8443   */\n      0xffffffffffffffff\n        /* \"#utility.yul\":8417:8423   */\n      dup2\n        /* \"#utility.yul\":8414:8444   */\n      gt\n        /* \"#utility.yul\":8411:8528   */\n      iszero\n      tag_378\n      jumpi\n        /* \"#utility.yul\":8447:8526   */\n      tag_379\n      tag_201\n      jump\t// in\n    tag_379:\n        /* \"#utility.yul\":8411:8528   */\n    tag_378:\n        /* \"#utility.yul\":8560:8625   */\n      tag_380\n        /* \"#utility.yul\":8617:8624   */\n      dup10\n        /* \"#utility.yul\":8608:8614   */\n      dup3\n        /* \"#utility.yul\":8597:8606   */\n      dup11\n        /* \"#utility.yul\":8593:8615   */\n      add\n        /* \"#utility.yul\":8560:8625   */\n      tag_227\n      jump\t// in\n    tag_380:\n        /* \"#utility.yul\":8542:8625   */\n      swap3\n      pop\n      swap3\n      pop\n        /* \"#utility.yul\":8337:8635   */\n      pop\n        /* \"#utility.yul\":7453:8642   */\n      swap3\n      swap6\n      pop\n      swap3\n      swap6\n      pop\n      swap3\n      swap6\n      jump\t// out\n        /* \"#utility.yul\":8648:8765   */\n    tag_228:\n        /* \"#utility.yul\":8757:8758   */\n      0x00\n        /* \"#utility.yul\":8754:8755   */\n      dup1\n        /* \"#utility.yul\":8747:8759   */\n      revert\n        /* \"#utility.yul\":8771:8951   */\n    tag_171:\n        /* \"#utility.yul\":8819:8896   */\n      0x4e487b7100000000000000000000000000000000000000000000000000000000\n        /* \"#utility.yul\":8816:8817   */\n      0x00\n        /* \"#utility.yul\":8809:8897   */\n      mstore\n        /* \"#utility.yul\":8916:8920   */\n      0x41\n        /* \"#utility.yul\":8913:8914   */\n      0x04\n        /* \"#utility.yul\":8906:8921   */\n      mstore\n        /* \"#utility.yul\":8940:8944   */\n      0x24\n        /* \"#utility.yul\":8937:8938   */\n      0x00\n        /* \"#utility.yul\":8930:8945   */\n      revert\n        /* \"#utility.yul\":8957:9238   */\n    tag_229:\n        /* \"#utility.yul\":9040:9067   */\n      tag_384\n        /* \"#utility.yul\":9062:9066   */\n      dup3\n        /* \"#utility.yul\":9040:9067   */\n      tag_209\n      jump\t// in\n    tag_384:\n        /* \"#utility.yul\":9032:9038   */\n      dup2\n        /* \"#utility.yul\":9028:9068   */\n      add\n        /* \"#utility.yul\":9170:9176   */\n      dup2\n        /* \"#utility.yul\":9158:9168   */\n      dup2\n        /* \"#utility.yul\":9155:9177   */\n      lt\n        /* \"#utility.yul\":9134:9152   */\n      0xffffffffffffffff\n        /* \"#utility.yul\":9122:9132   */\n      dup3\n        /* \"#utility.yul\":9119:9153   */\n      gt\n        /* \"#utility.yul\":9116:9178   */\n      or\n        /* \"#utility.yul\":9113:9201   */\n      iszero\n      tag_385\n      jumpi\n        /* \"#utility.yul\":9181:9199   */\n      tag_386\n      tag_171\n      jump\t// in\n    tag_386:\n        /* \"#utility.yul\":9113:9201   */\n    tag_385:\n        /* \"#utility.yul\":9221:9231   */\n      dup1\n        /* \"#utility.yul\":9217:9219   */\n      0x40\n        /* \"#utility.yul\":9210:9232   */\n      mstore\n        /* \"#utility.yul\":9000:9238   */\n      pop\n        /* \"#utility.yul\":8957:9238   */\n      pop\n      pop\n      jump\t// out\n        /* \"#utility.yul\":9244:9373   */\n    tag_230:\n        /* \"#utility.yul\":9278:9284   */\n      0x00\n        /* \"#utility.yul\":9305:9325   */\n      tag_388\n      tag_199\n      jump\t// in\n    tag_388:\n        /* \"#utility.yul\":9295:9325   */\n      swap1\n      pop\n        /* \"#utility.yul\":9334:9367   */\n      tag_389\n        /* \"#utility.yul\":9362:9366   */\n      dup3\n        /* \"#utility.yul\":9354:9360   */\n      dup3\n        /* \"#utility.yul\":9334:9367   */\n      tag_229\n      jump\t// in\n    tag_389:\n        /* \"#utility.yul\":9244:9373   */\n      swap2\n      swap1\n      pop\n      jump\t// out\n        /* \"#utility.yul\":9379:9687   */\n    tag_231:\n        /* \"#utility.yul\":9441:9445   */\n      0x00\n        /* \"#utility.yul\":9531:9549   */\n      0xffffffffffffffff\n        /* \"#utility.yul\":9523:9529   */\n      dup3\n        /* \"#utility.yul\":9520:9550   */\n      gt\n        /* \"#utility.yul\":9517:9573   */\n      iszero\n      tag_391\n      jumpi\n        /* \"#utility.yul\":9553:9571   */\n      tag_392\n      tag_171\n      jump\t// in\n    tag_392:\n        /* \"#utility.yul\":9517:9573   */\n    tag_391:\n        /* \"#utility.yul\":9591:9620   */\n      tag_393\n        /* \"#utility.yul\":9613:9619   */\n      dup3\n        /* \"#utility.yul\":9591:9620   */\n      tag_209\n      jump\t// in\n    tag_393:\n        /* \"#utility.yul\":9583:9620   */\n      swap1\n      pop\n        /* \"#utility.yul\":9675:9679   */\n      0x20\n        /* \"#utility.yul\":9669:9673   */\n      dup2\n        /* \"#utility.yul\":9665:9680   */\n      add\n        /* \"#utility.yul\":9657:9680   */\n      swap1\n      pop\n        /* \"#utility.yul\":9379:9687   */\n      swap2\n      swap1\n      pop\n      jump\t// out\n        /* \"#utility.yul\":9693:9839   */\n    tag_232:\n        /* \"#utility.yul\":9790:9796   */\n      dup3\n        /* \"#utility.yul\":9785:9788   */\n      dup2\n        /* \"#utility.yul\":9780:9783   */\n      dup4\n        /* \"#utility.yul\":9767:9797   */\n      calldatacopy\n        /* \"#utility.yul\":9831:9832   */\n      0x00\n        /* \"#utility.yul\":9822:9828   */\n      dup4\n        /* \"#utility.yul\":9817:9820   */\n      dup4\n        /* \"#utility.yul\":9813:9829   */\n      add\n        /* \"#utility.yul\":9806:9833   */\n      mstore\n        /* \"#utility.yul\":9693:9839   */\n      pop\n      pop\n      pop\n      jump\t// out\n        /* \"#utility.yul\":9845:10270   */\n    tag_233:\n        /* \"#utility.yul\":9923:9928   */\n      0x00\n        /* \"#utility.yul\":9948:10014   */\n      tag_396\n        /* \"#utility.yul\":9964:10013   */\n      tag_397\n        /* \"#utility.yul\":10006:10012   */\n      dup5\n        /* \"#utility.yul\":9964:10013   */\n      tag_231\n      jump\t// in\n    tag_397:\n        /* \"#utility.yul\":9948:10014   */\n      tag_230\n      jump\t// in\n    tag_396:\n        /* \"#utility.yul\":9939:10014   */\n      swap1\n      pop\n        /* \"#utility.yul\":10037:10043   */\n      dup3\n        /* \"#utility.yul\":10030:10035   */\n      dup2\n        /* \"#utility.yul\":10023:10044   */\n      mstore\n        /* \"#utility.yul\":10075:10079   */\n      0x20\n        /* \"#utility.yul\":10068:10073   */\n      dup2\n        /* \"#utility.yul\":10064:10080   */\n      add\n        /* \"#utility.yul\":10113:10116   */\n      dup5\n        /* \"#utility.yul\":10104:10110   */\n      dup5\n        /* \"#utility.yul\":10099:10102   */\n      dup5\n        /* \"#utility.yul\":10095:10111   */\n      add\n        /* \"#utility.yul\":10092:10117   */\n      gt\n        /* \"#utility.yul\":10089:10201   */\n      iszero\n      tag_398\n      jumpi\n        /* \"#utility.yul\":10120:10199   */\n      tag_399\n      tag_228\n      jump\t// in\n    tag_399:\n        /* \"#utility.yul\":10089:10201   */\n    tag_398:\n        /* \"#utility.yul\":10210:10264   */\n      tag_400\n        /* \"#utility.yul\":10257:10263   */\n      dup5\n        /* \"#utility.yul\":10252:10255   */\n      dup3\n        /* \"#utility.yul\":10247:10250   */\n      dup6\n        /* \"#utility.yul\":10210:10264   */\n      tag_232\n      jump\t// in\n    tag_400:\n        /* \"#utility.yul\":9929:10270   */\n      pop\n        /* \"#utility.yul\":9845:10270   */\n      swap4\n      swap3\n      pop\n      pop\n      pop\n      jump\t// out\n        /* \"#utility.yul\":10290:10630   */\n    tag_234:\n        /* \"#utility.yul\":10346:10351   */\n      0x00\n        /* \"#utility.yul\":10395:10398   */\n      dup3\n        /* \"#utility.yul\":10388:10392   */\n      0x1f\n        /* \"#utility.yul\":10380:10386   */\n      dup4\n        /* \"#utility.yul\":10376:10393   */\n      add\n        /* \"#utility.yul\":10372:10399   */\n      slt\n        /* \"#utility.yul\":10362:10484   */\n      tag_402\n      jumpi\n        /* \"#utility.yul\":10403:10482   */\n      tag_403\n      tag_202\n      jump\t// in\n    tag_403:\n        /* \"#utility.yul\":10362:10484   */\n    tag_402:\n        /* \"#utility.yul\":10520:10526   */\n      dup2\n        /* \"#utility.yul\":10507:10527   */\n      calldataload\n        /* \"#utility.yul\":10545:10624   */\n      tag_404\n        /* \"#utility.yul\":10620:10623   */\n      dup5\n        /* \"#utility.yul\":10612:10618   */\n      dup3\n        /* \"#utility.yul\":10605:10609   */\n      0x20\n        /* \"#utility.yul\":10597:10603   */\n      dup7\n        /* \"#utility.yul\":10593:10610   */\n      add\n        /* \"#utility.yul\":10545:10624   */\n      tag_233\n      jump\t// in\n    tag_404:\n        /* \"#utility.yul\":10536:10624   */\n      swap2\n      pop\n        /* \"#utility.yul\":10352:10630   */\n      pop\n        /* \"#utility.yul\":10290:10630   */\n      swap3\n      swap2\n      pop\n      pop\n      jump\t// out\n        /* \"#utility.yul\":10636:11145   */\n    tag_55:\n        /* \"#utility.yul\":10705:10711   */\n      0x00\n        /* \"#utility.yul\":10754:10756   */\n      0x20\n        /* \"#utility.yul\":10742:10751   */\n      dup3\n        /* \"#utility.yul\":10733:10740   */\n      dup5\n        /* \"#utility.yul\":10729:10752   */\n      sub\n        /* \"#utility.yul\":10725:10757   */\n      slt\n        /* \"#utility.yul\":10722:10841   */\n      iszero\n      tag_406\n      jumpi\n        /* \"#utility.yul\":10760:10839   */\n      tag_407\n      tag_200\n      jump\t// in\n    tag_407:\n        /* \"#utility.yul\":10722:10841   */\n    tag_406:\n        /* \"#utility.yul\":10908:10909   */\n      0x00\n        /* \"#utility.yul\":10897:10906   */\n      dup3\n        /* \"#utility.yul\":10893:10910   */\n      add\n        /* \"#utility.yul\":10880:10911   */\n      calldataload\n        /* \"#utility.yul\":10938:10956   */\n      0xffffffffffffffff\n        /* \"#utility.yul\":10930:10936   */\n      dup2\n        /* \"#utility.yul\":10927:10957   */\n      gt\n        /* \"#utility.yul\":10924:11041   */\n      iszero\n      tag_408\n      jumpi\n        /* \"#utility.yul\":10960:11039   */\n      tag_409\n      tag_201\n      jump\t// in\n    tag_409:\n        /* \"#utility.yul\":10924:11041   */\n    tag_408:\n        /* \"#utility.yul\":11065:11128   */\n      tag_410\n        /* \"#utility.yul\":11120:11127   */\n      dup5\n        /* \"#utility.yul\":11111:11117   */\n      dup3\n        /* \"#utility.yul\":11100:11109   */\n      dup6\n        /* \"#utility.yul\":11096:11118   */\n      add\n        /* \"#utility.yul\":11065:11128   */\n      tag_234\n      jump\t// in\n    tag_410:\n        /* \"#utility.yul\":11055:11128   */\n      swap2\n      pop\n        /* \"#utility.yul\":10851:11138   */\n      pop\n        /* \"#utility.yul\":10636:11145   */\n      swap3\n      swap2\n      pop\n      pop\n      jump\t// out\n        /* \"#utility.yul\":11151:11260   */\n    tag_235:\n        /* \"#utility.yul\":11232:11253   */\n      tag_412\n        /* \"#utility.yul\":11247:11252   */\n      dup2\n        /* \"#utility.yul\":11232:11253   */\n      tag_223\n      jump\t// in\n    tag_412:\n        /* \"#utility.yul\":11227:11230   */\n      dup3\n        /* \"#utility.yul\":11220:11254   */\n      mstore\n        /* \"#utility.yul\":11151:11260   */\n      pop\n      pop\n      jump\t// out\n        /* \"#utility.yul\":11266:11476   */\n    tag_76:\n        /* \"#utility.yul\":11353:11357   */\n      0x00\n        /* \"#utility.yul\":11391:11393   */\n      0x20\n        /* \"#utility.yul\":11380:11389   */\n      dup3\n        /* \"#utility.yul\":11376:11394   */\n      add\n        /* \"#utility.yul\":11368:11394   */\n      swap1\n      pop\n        /* \"#utility.yul\":11404:11469   */\n      tag_414\n        /* \"#utility.yul\":11466:11467   */\n      0x00\n        /* \"#utility.yul\":11455:11464   */\n      dup4\n        /* \"#utility.yul\":11451:11468   */\n      add\n        /* \"#utility.yul\":11442:11448   */\n      dup5\n        /* \"#utility.yul\":11404:11469   */\n      tag_235\n      jump\t// in\n    tag_414:\n        /* \"#utility.yul\":11266:11476   */\n      swap3\n      swap2\n      pop\n      pop\n      jump\t// out\n        /* \"#utility.yul\":11482:11811   */\n    tag_88:\n        /* \"#utility.yul\":11541:11547   */\n      0x00\n        /* \"#utility.yul\":11590:11592   */\n      0x20\n        /* \"#utility.yul\":11578:11587   */\n      dup3\n        /* \"#utility.yul\":11569:11576   */\n      dup5\n        /* \"#utility.yul\":11565:11588   */\n      sub\n        /* \"#utility.yul\":11561:11593   */\n      slt\n        /* \"#utility.yul\":11558:11677   */\n      iszero\n      tag_416\n      jumpi\n        /* \"#utility.yul\":11596:11675   */\n      tag_417\n      tag_200\n      jump\t// in\n    tag_417:\n        /* \"#utility.yul\":11558:11677   */\n    tag_416:\n        /* \"#utility.yul\":11716:11717   */\n      0x00\n        /* \"#utility.yul\":11741:11794   */\n      tag_418\n        /* \"#utility.yul\":11786:11793   */\n      dup5\n        /* \"#utility.yul\":11777:11783   */\n      dup3\n        /* \"#utility.yul\":11766:11775   */\n      dup6\n        /* \"#utility.yul\":11762:11784   */\n      add\n        /* \"#utility.yul\":11741:11794   */\n      tag_219\n      jump\t// in\n    tag_418:\n        /* \"#utility.yul\":11731:11794   */\n      swap2\n      pop\n        /* \"#utility.yul\":11687:11804   */\n      pop\n        /* \"#utility.yul\":11482:11811   */\n      swap3\n      swap2\n      pop\n      pop\n      jump\t// out\n        /* \"#utility.yul\":11817:12130   */\n    tag_91:\n        /* \"#utility.yul\":11930:11934   */\n      0x00\n        /* \"#utility.yul\":11968:11970   */\n      0x20\n        /* \"#utility.yul\":11957:11966   */\n      dup3\n        /* \"#utility.yul\":11953:11971   */\n      add\n        /* \"#utility.yul\":11945:11971   */\n      swap1\n      pop\n        /* \"#utility.yul\":12017:12026   */\n      dup2\n        /* \"#utility.yul\":12011:12015   */\n      dup2\n        /* \"#utility.yul\":12007:12027   */\n      sub\n        /* \"#utility.yul\":12003:12004   */\n      0x00\n        /* \"#utility.yul\":11992:12001   */\n      dup4\n        /* \"#utility.yul\":11988:12005   */\n      add\n        /* \"#utility.yul\":11981:12028   */\n      mstore\n        /* \"#utility.yul\":12045:12123   */\n      tag_420\n        /* \"#utility.yul\":12118:12122   */\n      dup2\n        /* \"#utility.yul\":12109:12115   */\n      dup5\n        /* \"#utility.yul\":12045:12123   */\n      tag_210\n      jump\t// in\n    tag_420:\n        /* \"#utility.yul\":12037:12123   */\n      swap1\n      pop\n        /* \"#utility.yul\":11817:12130   */\n      swap3\n      swap2\n      pop\n      pop\n      jump\t// out\n        /* \"#utility.yul\":12136:12240   */\n    tag_236:\n        /* \"#utility.yul\":12181:12188   */\n      0x00\n        /* \"#utility.yul\":12210:12234   */\n      tag_422\n        /* \"#utility.yul\":12228:12233   */\n      dup3\n        /* \"#utility.yul\":12210:12234   */\n      tag_213\n      jump\t// in\n    tag_422:\n        /* \"#utility.yul\":12199:12234   */\n      swap1\n      pop\n        /* \"#utility.yul\":12136:12240   */\n      swap2\n      swap1\n      pop\n      jump\t// out\n        /* \"#utility.yul\":12246:12384   */\n    tag_237:\n        /* \"#utility.yul\":12327:12359   */\n      tag_424\n        /* \"#utility.yul\":12353:12358   */\n      dup2\n        /* \"#utility.yul\":12327:12359   */\n      tag_236\n      jump\t// in\n    tag_424:\n        /* \"#utility.yul\":12320:12325   */\n      dup2\n        /* \"#utility.yul\":12317:12360   */\n      eq\n        /* \"#utility.yul\":12307:12378   */\n      tag_425\n      jumpi\n        /* \"#utility.yul\":12374:12375   */\n      0x00\n        /* \"#utility.yul\":12371:12372   */\n      dup1\n        /* \"#utility.yul\":12364:12376   */\n      revert\n        /* \"#utility.yul\":12307:12378   */\n    tag_425:\n        /* \"#utility.yul\":12246:12384   */\n      pop\n      jump\t// out\n        /* \"#utility.yul\":12390:12545   */\n    tag_238:\n        /* \"#utility.yul\":12444:12449   */\n      0x00\n        /* \"#utility.yul\":12482:12488   */\n      dup2\n        /* \"#utility.yul\":12469:12489   */\n      calldataload\n        /* \"#utility.yul\":12460:12489   */\n      swap1\n      pop\n        /* \"#utility.yul\":12498:12539   */\n      tag_427\n        /* \"#utility.yul\":12533:12538   */\n      dup2\n        /* \"#utility.yul\":12498:12539   */\n      tag_237\n      jump\t// in\n    tag_427:\n        /* \"#utility.yul\":12390:12545   */\n      swap3\n      swap2\n      pop\n      pop\n      jump\t// out\n        /* \"#utility.yul\":12551:13366   */\n    tag_102:\n        /* \"#utility.yul\":12646:12652   */\n      0x00\n        /* \"#utility.yul\":12654:12660   */\n      dup1\n        /* \"#utility.yul\":12662:12668   */\n      0x00\n        /* \"#utility.yul\":12711:12713   */\n      0x60\n        /* \"#utility.yul\":12699:12708   */\n      dup5\n        /* \"#utility.yul\":12690:12697   */\n      dup7\n        /* \"#utility.yul\":12686:12709   */\n      sub\n        /* \"#utility.yul\":12682:12714   */\n      slt\n        /* \"#utility.yul\":12679:12798   */\n      iszero\n      tag_429\n      jumpi\n        /* \"#utility.yul\":12717:12796   */\n      tag_430\n      tag_200\n      jump\t// in\n    tag_430:\n        /* \"#utility.yul\":12679:12798   */\n    tag_429:\n        /* \"#utility.yul\":12865:12866   */\n      0x00\n        /* \"#utility.yul\":12854:12863   */\n      dup5\n        /* \"#utility.yul\":12850:12867   */\n      add\n        /* \"#utility.yul\":12837:12868   */\n      calldataload\n        /* \"#utility.yul\":12895:12913   */\n      0xffffffffffffffff\n        /* \"#utility.yul\":12887:12893   */\n      dup2\n        /* \"#utility.yul\":12884:12914   */\n      gt\n        /* \"#utility.yul\":12881:12998   */\n      iszero\n      tag_431\n      jumpi\n        /* \"#utility.yul\":12917:12996   */\n      tag_432\n      tag_201\n      jump\t// in\n    tag_432:\n        /* \"#utility.yul\":12881:12998   */\n    tag_431:\n        /* \"#utility.yul\":13022:13085   */\n      tag_433\n        /* \"#utility.yul\":13077:13084   */\n      dup7\n        /* \"#utility.yul\":13068:13074   */\n      dup3\n        /* \"#utility.yul\":13057:13066   */\n      dup8\n        /* \"#utility.yul\":13053:13075   */\n      add\n        /* \"#utility.yul\":13022:13085   */\n      tag_234\n      jump\t// in\n    tag_433:\n        /* \"#utility.yul\":13012:13085   */\n      swap4\n      pop\n        /* \"#utility.yul\":12808:13095   */\n      pop\n        /* \"#utility.yul\":13134:13136   */\n      0x20\n        /* \"#utility.yul\":13160:13213   */\n      tag_434\n        /* \"#utility.yul\":13205:13212   */\n      dup7\n        /* \"#utility.yul\":13196:13202   */\n      dup3\n        /* \"#utility.yul\":13185:13194   */\n      dup8\n        /* \"#utility.yul\":13181:13203   */\n      add\n        /* \"#utility.yul\":13160:13213   */\n      tag_219\n      jump\t// in\n    tag_434:\n        /* \"#utility.yul\":13150:13213   */\n      swap3\n      pop\n        /* \"#utility.yul\":13105:13223   */\n      pop\n        /* \"#utility.yul\":13262:13264   */\n      0x40\n        /* \"#utility.yul\":13288:13349   */\n      tag_435\n        /* \"#utility.yul\":13341:13348   */\n      dup7\n        /* \"#utility.yul\":13332:13338   */\n      dup3\n        /* \"#utility.yul\":13321:13330   */\n      dup8\n        /* \"#utility.yul\":13317:13339   */\n      add\n        /* \"#utility.yul\":13288:13349   */\n      tag_238\n      jump\t// in\n    tag_435:\n        /* \"#utility.yul\":13278:13349   */\n      swap2\n      pop\n        /* \"#utility.yul\":13233:13359   */\n      pop\n        /* \"#utility.yul\":12551:13366   */\n      swap3\n      pop\n      swap3\n      pop\n      swap3\n      jump\t// out\n        /* \"#utility.yul\":13372:13704   */\n    tag_105:\n        /* \"#utility.yul\":13493:13497   */\n      0x00\n        /* \"#utility.yul\":13531:13533   */\n      0x40\n        /* \"#utility.yul\":13520:13529   */\n      dup3\n        /* \"#utility.yul\":13516:13534   */\n      add\n        /* \"#utility.yul\":13508:13534   */\n      swap1\n      pop\n        /* \"#utility.yul\":13544:13615   */\n      tag_437\n        /* \"#utility.yul\":13612:13613   */\n      0x00\n        /* \"#utility.yul\":13601:13610   */\n      dup4\n        /* \"#utility.yul\":13597:13614   */\n      add\n        /* \"#utility.yul\":13588:13594   */\n      dup6\n        /* \"#utility.yul\":13544:13615   */\n      tag_215\n      jump\t// in\n    tag_437:\n        /* \"#utility.yul\":13625:13697   */\n      tag_438\n        /* \"#utility.yul\":13693:13695   */\n      0x20\n        /* \"#utility.yul\":13682:13691   */\n      dup4\n        /* \"#utility.yul\":13678:13696   */\n      add\n        /* \"#utility.yul\":13669:13675   */\n      dup5\n        /* \"#utility.yul\":13625:13697   */\n      tag_212\n      jump\t// in\n    tag_438:\n        /* \"#utility.yul\":13372:13704   */\n      swap4\n      swap3\n      pop\n      pop\n      pop\n      jump\t// out\n        /* \"#utility.yul\":13710:13858   */\n    tag_239:\n        /* \"#utility.yul\":13812:13823   */\n      0x00\n        /* \"#utility.yul\":13849:13852   */\n      dup2\n        /* \"#utility.yul\":13834:13852   */\n      swap1\n      pop\n        /* \"#utility.yul\":13710:13858   */\n      swap3\n      swap2\n      pop\n      pop\n      jump\t// out\n        /* \"#utility.yul\":13864:14022   */\n    tag_240:\n        /* \"#utility.yul\":14004:14014   */\n      0x617070776f726b73000000000000000000000000000000000000000000000000\n        /* \"#utility.yul\":14000:14001   */\n      0x00\n        /* \"#utility.yul\":13992:13998   */\n      dup3\n        /* \"#utility.yul\":13988:14002   */\n      add\n        /* \"#utility.yul\":13981:14015   */\n      mstore\n        /* \"#utility.yul\":13864:14022   */\n      pop\n      jump\t// out\n        /* \"#utility.yul\":14028:14428   */\n    tag_241:\n        /* \"#utility.yul\":14188:14191   */\n      0x00\n        /* \"#utility.yul\":14209:14293   */\n      tag_442\n        /* \"#utility.yul\":14291:14292   */\n      0x08\n        /* \"#utility.yul\":14286:14289   */\n      dup4\n        /* \"#utility.yul\":14209:14293   */\n      tag_239\n      jump\t// in\n    tag_442:\n        /* \"#utility.yul\":14202:14293   */\n      swap2\n      pop\n        /* \"#utility.yul\":14302:14395   */\n      tag_443\n        /* \"#utility.yul\":14391:14394   */\n      dup3\n        /* \"#utility.yul\":14302:14395   */\n      tag_240\n      jump\t// in\n    tag_443:\n        /* \"#utility.yul\":14420:14421   */\n      0x08\n        /* \"#utility.yul\":14415:14418   */\n      dup3\n        /* \"#utility.yul\":14411:14422   */\n      add\n        /* \"#utility.yul\":14404:14422   */\n      swap1\n      pop\n        /* \"#utility.yul\":14028:14428   */\n      swap2\n      swap1\n      pop\n      jump\t// out\n        /* \"#utility.yul\":14434:14815   */\n    tag_108:\n        /* \"#utility.yul\":14619:14622   */\n      0x00\n        /* \"#utility.yul\":14641:14789   */\n      tag_445\n        /* \"#utility.yul\":14785:14788   */\n      dup3\n        /* \"#utility.yul\":14641:14789   */\n      tag_241\n      jump\t// in\n    tag_445:\n        /* \"#utility.yul\":14634:14789   */\n      swap2\n      pop\n        /* \"#utility.yul\":14806:14809   */\n      dup2\n        /* \"#utility.yul\":14799:14809   */\n      swap1\n      pop\n        /* \"#utility.yul\":14434:14815   */\n      swap2\n      swap1\n      pop\n      jump\t// out\n        /* \"#utility.yul\":14821:15005   */\n    tag_242:\n        /* \"#utility.yul\":14920:14931   */\n      0x00\n        /* \"#utility.yul\":14954:14960   */\n      dup3\n        /* \"#utility.yul\":14949:14952   */\n      dup3\n        /* \"#utility.yul\":14942:14961   */\n      mstore\n        /* \"#utility.yul\":14994:14998   */\n      0x20\n        /* \"#utility.yul\":14989:14992   */\n      dup3\n        /* \"#utility.yul\":14985:14999   */\n      add\n        /* \"#utility.yul\":14970:14999   */\n      swap1\n      pop\n        /* \"#utility.yul\":14821:15005   */\n      swap3\n      swap2\n      pop\n      pop\n      jump\t// out\n        /* \"#utility.yul\":15011:15128   */\n    tag_243:\n        /* \"#utility.yul\":15120:15121   */\n      0x00\n        /* \"#utility.yul\":15117:15118   */\n      dup1\n        /* \"#utility.yul\":15110:15122   */\n      revert\n        /* \"#utility.yul\":15134:15232   */\n    tag_244:\n        /* \"#utility.yul\":15218:15224   */\n      dup3\n        /* \"#utility.yul\":15213:15216   */\n      dup2\n        /* \"#utility.yul\":15208:15211   */\n      dup4\n        /* \"#utility.yul\":15195:15225   */\n      calldatacopy\n        /* \"#utility.yul\":15134:15232   */\n      pop\n      pop\n      pop\n      jump\t// out\n        /* \"#utility.yul\":15268:15805   */\n    tag_245:\n        /* \"#utility.yul\":15396:15399   */\n      0x00\n        /* \"#utility.yul\":15417:15503   */\n      tag_450\n        /* \"#utility.yul\":15496:15502   */\n      dup4\n        /* \"#utility.yul\":15491:15494   */\n      dup6\n        /* \"#utility.yul\":15417:15503   */\n      tag_242\n      jump\t// in\n    tag_450:\n        /* \"#utility.yul\":15410:15503   */\n      swap4\n      pop\n        /* \"#utility.yul\":15527:15593   */\n      0x07ffffffffffffffffffffffffffffffffffffffffffffffffffffffffffffff\n        /* \"#utility.yul\":15519:15525   */\n      dup4\n        /* \"#utility.yul\":15516:15594   */\n      gt\n        /* \"#utility.yul\":15513:15678   */\n      iszero\n      tag_451\n      jumpi\n        /* \"#utility.yul\":15597:15676   */\n      tag_452\n      tag_243\n      jump\t// in\n    tag_452:\n        /* \"#utility.yul\":15513:15678   */\n    tag_451:\n        /* \"#utility.yul\":15709:15713   */\n      0x20\n        /* \"#utility.yul\":15701:15707   */\n      dup4\n        /* \"#utility.yul\":15697:15714   */\n      mul\n        /* \"#utility.yul\":15687:15714   */\n      swap3\n      pop\n        /* \"#utility.yul\":15724:15767   */\n      tag_453\n        /* \"#utility.yul\":15760:15766   */\n      dup4\n        /* \"#utility.yul\":15755:15758   */\n      dup6\n        /* \"#utility.yul\":15748:15753   */\n      dup5\n        /* \"#utility.yul\":15724:15767   */\n      tag_244\n      jump\t// in\n    tag_453:\n        /* \"#utility.yul\":15792:15798   */\n      dup3\n        /* \"#utility.yul\":15787:15790   */\n      dup5\n        /* \"#utility.yul\":15783:15799   */\n      add\n        /* \"#utility.yul\":15776:15799   */\n      swap1\n      pop\n        /* \"#utility.yul\":15268:15805   */\n      swap4\n      swap3\n      pop\n      pop\n      pop\n      jump\t// out\n        /* \"#utility.yul\":15835:16152   */\n    tag_246:\n        /* \"#utility.yul\":15933:15936   */\n      0x00\n        /* \"#utility.yul\":15954:16025   */\n      tag_455\n        /* \"#utility.yul\":16018:16024   */\n      dup4\n        /* \"#utility.yul\":16013:16016   */\n      dup6\n        /* \"#utility.yul\":15954:16025   */\n      tag_207\n      jump\t// in\n    tag_455:\n        /* \"#utility.yul\":15947:16025   */\n      swap4\n      pop\n        /* \"#utility.yul\":16035:16091   */\n      tag_456\n        /* \"#utility.yul\":16084:16090   */\n      dup4\n        /* \"#utility.yul\":16079:16082   */\n      dup6\n        /* \"#utility.yul\":16072:16077   */\n      dup5\n        /* \"#utility.yul\":16035:16091   */\n      tag_232\n      jump\t// in\n    tag_456:\n        /* \"#utility.yul\":16116:16145   */\n      tag_457\n        /* \"#utility.yul\":16138:16144   */\n      dup4\n        /* \"#utility.yul\":16116:16145   */\n      tag_209\n      jump\t// in\n    tag_457:\n        /* \"#utility.yul\":16111:16114   */\n      dup5\n        /* \"#utility.yul\":16107:16146   */\n      add\n        /* \"#utility.yul\":16100:16146   */\n      swap1\n      pop\n        /* \"#utility.yul\":15835:16152   */\n      swap4\n      swap3\n      pop\n      pop\n      pop\n      jump\t// out\n        /* \"#utility.yul\":16158:16981   */\n    tag_111:\n        /* \"#utility.yul\":16419:16423   */\n      0x00\n        /* \"#utility.yul\":16457:16460   */\n      0x80\n        /* \"#utility.yul\":16446:16455   */\n      dup3\n        /* \"#utility.yul\":16442:16461   */\n      add\n        /* \"#utility.yul\":16434:16461   */\n      swap1\n      pop\n        /* \"#utility.yul\":16471:16536   */\n      tag_459\n        /* \"#utility.yul\":16533:16534   */\n      0x00\n        /* \"#utility.yul\":16522:16531   */\n      dup4\n        /* \"#utility.yul\":16518:16535   */\n      add\n        /* \"#utility.yul\":16509:16515   */\n      dup10\n        /* \"#utility.yul\":16471:16536   */\n      tag_235\n      jump\t// in\n    tag_459:\n        /* \"#utility.yul\":16583:16592   */\n      dup2\n        /* \"#utility.yul\":16577:16581   */\n      dup2\n        /* \"#utility.yul\":16573:16593   */\n      sub\n        /* \"#utility.yul\":16568:16570   */\n      0x20\n        /* \"#utility.yul\":16557:16566   */\n      dup4\n        /* \"#utility.yul\":16553:16571   */\n      add\n        /* \"#utility.yul\":16546:16594   */\n      mstore\n        /* \"#utility.yul\":16611:16729   */\n      tag_460\n        /* \"#utility.yul\":16724:16728   */\n      dup2\n        /* \"#utility.yul\":16715:16721   */\n      dup8\n        /* \"#utility.yul\":16707:16713   */\n      dup10\n        /* \"#utility.yul\":16611:16729   */\n      tag_245\n      jump\t// in\n    tag_460:\n        /* \"#utility.yul\":16603:16729   */\n      swap1\n      pop\n        /* \"#utility.yul\":16739:16811   */\n      tag_461\n        /* \"#utility.yul\":16807:16809   */\n      0x40\n        /* \"#utility.yul\":16796:16805   */\n      dup4\n        /* \"#utility.yul\":16792:16810   */\n      add\n        /* \"#utility.yul\":16783:16789   */\n      dup7\n        /* \"#utility.yul\":16739:16811   */\n      tag_215\n      jump\t// in\n    tag_461:\n        /* \"#utility.yul\":16858:16867   */\n      dup2\n        /* \"#utility.yul\":16852:16856   */\n      dup2\n        /* \"#utility.yul\":16848:16868   */\n      sub\n        /* \"#utility.yul\":16843:16845   */\n      0x60\n        /* \"#utility.yul\":16832:16841   */\n      dup4\n        /* \"#utility.yul\":16828:16846   */\n      add\n        /* \"#utility.yul\":16821:16869   */\n      mstore\n        /* \"#utility.yul\":16886:16974   */\n      tag_462\n        /* \"#utility.yul\":16969:16973   */\n      dup2\n        /* \"#utility.yul\":16960:16966   */\n      dup5\n        /* \"#utility.yul\":16952:16958   */\n      dup7\n        /* \"#utility.yul\":16886:16974   */\n      tag_246\n      jump\t// in\n    tag_462:\n        /* \"#utility.yul\":16878:16974   */\n      swap1\n      pop\n        /* \"#utility.yul\":16158:16981   */\n      swap8\n      swap7\n      pop\n      pop\n      pop\n      pop\n      pop\n      pop\n      pop\n      jump\t// out\n        /* \"#utility.yul\":16987:17377   */\n    tag_247:\n        /* \"#utility.yul\":17093:17096   */\n      0x00\n        /* \"#utility.yul\":17121:17160   */\n      tag_464\n        /* \"#utility.yul\":17154:17159   */\n      dup3\n        /* \"#utility.yul\":17121:17160   */\n      tag_206\n      jump\t// in\n    tag_464:\n        /* \"#utility.yul\":17176:17265   */\n      tag_465\n        /* \"#utility.yul\":17258:17264   */\n      dup2\n        /* \"#utility.yul\":17253:17256   */\n      dup6\n        /* \"#utility.yul\":17176:17265   */\n      tag_239\n      jump\t// in\n    tag_465:\n        /* \"#utility.yul\":17169:17265   */\n      swap4\n      pop\n        /* \"#utility.yul\":17274:17339   */\n      tag_466\n        /* \"#utility.yul\":17332:17338   */\n      dup2\n        /* \"#utility.yul\":17327:17330   */\n      dup6\n        /* \"#utility.yul\":17320:17324   */\n      0x20\n        /* \"#utility.yul\":17313:17318   */\n      dup7\n        /* \"#utility.yul\":17309:17325   */\n      add\n        /* \"#utility.yul\":17274:17339   */\n      tag_208\n      jump\t// in\n    tag_466:\n        /* \"#utility.yul\":17364:17370   */\n      dup1\n        /* \"#utility.yul\":17359:17362   */\n      dup5\n        /* \"#utility.yul\":17355:17371   */\n      add\n        /* \"#utility.yul\":17348:17371   */\n      swap2\n      pop\n        /* \"#utility.yul\":17097:17377   */\n      pop\n        /* \"#utility.yul\":16987:17377   */\n      swap3\n      swap2\n      pop\n      pop\n      jump\t// out\n        /* \"#utility.yul\":17383:17658   */\n    tag_116:\n        /* \"#utility.yul\":17515:17518   */\n      0x00\n        /* \"#utility.yul\":17537:17632   */\n      tag_468\n        /* \"#utility.yul\":17628:17631   */\n      dup3\n        /* \"#utility.yul\":17619:17625   */\n      dup5\n        /* \"#utility.yul\":17537:17632   */\n      tag_247\n      jump\t// in\n    tag_468:\n        /* \"#utility.yul\":17530:17632   */\n      swap2\n      pop\n        /* \"#utility.yul\":17649:17652   */\n      dup2\n        /* \"#utility.yul\":17642:17652   */\n      swap1\n      pop\n        /* \"#utility.yul\":17383:17658   */\n      swap3\n      swap2\n      pop\n      pop\n      jump\t// out\n        /* \"#utility.yul\":17664:18029   */\n    tag_248:\n        /* \"#utility.yul\":17806:17809   */\n      0x00\n        /* \"#utility.yul\":17827:17893   */\n      tag_470\n        /* \"#utility.yul\":17891:17892   */\n      0x08\n        /* \"#utility.yul\":17886:17889   */\n      dup4\n        /* \"#utility.yul\":17827:17893   */\n      tag_207\n      jump\t// in\n    tag_470:\n        /* \"#utility.yul\":17820:17893   */\n      swap2\n      pop\n        /* \"#utility.yul\":17902:17995   */\n      tag_471\n        /* \"#utility.yul\":17991:17994   */\n      dup3\n        /* \"#utility.yul\":17902:17995   */\n      tag_240\n      jump\t// in\n    tag_471:\n        /* \"#utility.yul\":18020:18022   */\n      0x20\n        /* \"#utility.yul\":18015:18018   */\n      dup3\n        /* \"#utility.yul\":18011:18023   */\n      add\n        /* \"#utility.yul\":18004:18023   */\n      swap1\n      pop\n        /* \"#utility.yul\":17664:18029   */\n      swap2\n      swap1\n      pop\n      jump\t// out\n        /* \"#utility.yul\":18035:18454   */\n    tag_119:\n        /* \"#utility.yul\":18201:18205   */\n      0x00\n        /* \"#utility.yul\":18239:18241   */\n      0x20\n        /* \"#utility.yul\":18228:18237   */\n      dup3\n        /* \"#utility.yul\":18224:18242   */\n      add\n        /* \"#utility.yul\":18216:18242   */\n      swap1\n      pop\n        /* \"#utility.yul\":18288:18297   */\n      dup2\n        /* \"#utility.yul\":18282:18286   */\n      dup2\n        /* \"#utility.yul\":18278:18298   */\n      sub\n        /* \"#utility.yul\":18274:18275   */\n      0x00\n        /* \"#utility.yul\":18263:18272   */\n      dup4\n        /* \"#utility.yul\":18259:18276   */\n      add\n        /* \"#utility.yul\":18252:18299   */\n      mstore\n        /* \"#utility.yul\":18316:18447   */\n      tag_473\n        /* \"#utility.yul\":18442:18446   */\n      dup2\n        /* \"#utility.yul\":18316:18447   */\n      tag_248\n      jump\t// in\n    tag_473:\n        /* \"#utility.yul\":18308:18447   */\n      swap1\n      pop\n        /* \"#utility.yul\":18035:18454   */\n      swap2\n      swap1\n      pop\n      jump\t// out\n        /* \"#utility.yul\":18460:18545   */\n    tag_249:\n        /* \"#utility.yul\":18505:18512   */\n      0x00\n        /* \"#utility.yul\":18534:18539   */\n      dup2\n        /* \"#utility.yul\":18523:18539   */\n      swap1\n      pop\n        /* \"#utility.yul\":18460:18545   */\n      swap2\n      swap1\n      pop\n      jump\t// out\n        /* \"#utility.yul\":18551:18637   */\n    tag_250:\n        /* \"#utility.yul\":18586:18593   */\n      0x00\n        /* \"#utility.yul\":18626:18630   */\n      0xff\n        /* \"#utility.yul\":18619:18624   */\n      dup3\n        /* \"#utility.yul\":18615:18631   */\n      and\n        /* \"#utility.yul\":18604:18631   */\n      swap1\n      pop\n        /* \"#utility.yul\":18551:18637   */\n      swap2\n      swap1\n      pop\n      jump\t// out\n        /* \"#utility.yul\":18643:18703   */\n    tag_251:\n        /* \"#utility.yul\":18671:18674   */\n      0x00\n        /* \"#utility.yul\":18692:18697   */\n      dup2\n        /* \"#utility.yul\":18685:18697   */\n      swap1\n      pop\n        /* \"#utility.yul\":18643:18703   */\n      swap2\n      swap1\n      pop\n      jump\t// out\n        /* \"#utility.yul\":18709:18863   */\n    tag_252:\n        /* \"#utility.yul\":18765:18774   */\n      0x00\n        /* \"#utility.yul\":18798:18857   */\n      tag_478\n        /* \"#utility.yul\":18814:18856   */\n      tag_479\n        /* \"#utility.yul\":18823:18855   */\n      tag_480\n        /* \"#utility.yul\":18849:18854   */\n      dup5\n        /* \"#utility.yul\":18823:18855   */\n      tag_249\n      jump\t// in\n    tag_480:\n        /* \"#utility.yul\":18814:18856   */\n      tag_251\n      jump\t// in\n    tag_479:\n        /* \"#utility.yul\":18798:18857   */\n      tag_250\n      jump\t// in\n    tag_478:\n        /* \"#utility.yul\":18785:18857   */\n      swap1\n      pop\n        /* \"#utility.yul\":18709:18863   */\n      swap2\n      swap1\n      pop\n      jump\t// out\n        /* \"#utility.yul\":18869:19012   */\n    tag_253:\n        /* \"#utility.yul\":18962:19005   */\n      tag_482\n        /* \"#utility.yul\":18999:19004   */\n      dup2\n        /* \"#utility.yul\":18962:19005   */\n      tag_252\n      jump\t// in\n    tag_482:\n        /* \"#utility.yul\":18957:18960   */\n      dup3\n        /* \"#utility.yul\":18950:19006   */\n      mstore\n        /* \"#utility.yul\":18869:19012   */\n      pop\n      pop\n      jump\t// out\n        /* \"#utility.yul\":19018:19104   */\n    tag_254:\n        /* \"#utility.yul\":19064:19071   */\n      0x00\n        /* \"#utility.yul\":19093:19098   */\n      dup2\n        /* \"#utility.yul\":19082:19098   */\n      swap1\n      pop\n        /* \"#utility.yul\":19018:19104   */\n      swap2\n      swap1\n      pop\n      jump\t// out\n        /* \"#utility.yul\":19110:19266   */\n    tag_255:\n        /* \"#utility.yul\":19167:19176   */\n      0x00\n        /* \"#utility.yul\":19200:19260   */\n      tag_485\n        /* \"#utility.yul\":19216:19259   */\n      tag_486\n        /* \"#utility.yul\":19225:19258   */\n      tag_487\n        /* \"#utility.yul\":19252:19257   */\n      dup5\n        /* \"#utility.yul\":19225:19258   */\n      tag_254\n      jump\t// in\n    tag_487:\n        /* \"#utility.yul\":19216:19259   */\n      tag_251\n      jump\t// in\n    tag_486:\n        /* \"#utility.yul\":19200:19260   */\n      tag_250\n      jump\t// in\n    tag_485:\n        /* \"#utility.yul\":19187:19260   */\n      swap1\n      pop\n        /* \"#utility.yul\":19110:19266   */\n      swap2\n      swap1\n      pop\n      jump\t// out\n        /* \"#utility.yul\":19272:19417   */\n    tag_256:\n        /* \"#utility.yul\":19366:19410   */\n      tag_489\n        /* \"#utility.yul\":19404:19409   */\n      dup2\n        /* \"#utility.yul\":19366:19410   */\n      tag_255\n      jump\t// in\n    tag_489:\n        /* \"#utility.yul\":19361:19364   */\n      dup3\n        /* \"#utility.yul\":19354:19411   */\n      mstore\n        /* \"#utility.yul\":19272:19417   */\n      pop\n      pop\n      jump\t// out\n        /* \"#utility.yul\":19423:19576   */\n    tag_257:\n        /* \"#utility.yul\":19563:19568   */\n      0x6a696d0000000000000000000000000000000000000000000000000000000000\n        /* \"#utility.yul\":19559:19560   */\n      0x00\n        /* \"#utility.yul\":19551:19557   */\n      dup3\n        /* \"#utility.yul\":19547:19561   */\n      add\n        /* \"#utility.yul\":19540:19569   */\n      mstore\n        /* \"#utility.yul\":19423:19576   */\n      pop\n      jump\t// out\n        /* \"#utility.yul\":19582:19947   */\n    tag_258:\n        /* \"#utility.yul\":19724:19727   */\n      0x00\n        /* \"#utility.yul\":19745:19811   */\n      tag_492\n        /* \"#utility.yul\":19809:19810   */\n      0x03\n        /* \"#utility.yul\":19804:19807   */\n      dup4\n        /* \"#utility.yul\":19745:19811   */\n      tag_207\n      jump\t// in\n    tag_492:\n        /* \"#utility.yul\":19738:19811   */\n      swap2\n      pop\n        /* \"#utility.yul\":19820:19913   */\n      tag_493\n        /* \"#utility.yul\":19909:19912   */\n      dup3\n        /* \"#utility.yul\":19820:19913   */\n      tag_257\n      jump\t// in\n    tag_493:\n        /* \"#utility.yul\":19938:19940   */\n      0x20\n        /* \"#utility.yul\":19933:19936   */\n      dup3\n        /* \"#utility.yul\":19929:19941   */\n      add\n        /* \"#utility.yul\":19922:19941   */\n      swap1\n      pop\n        /* \"#utility.yul\":19582:19947   */\n      swap2\n      swap1\n      pop\n      jump\t// out\n        /* \"#utility.yul\":19953:20926   */\n    tag_124:\n        /* \"#utility.yul\":20289:20293   */\n      0x00\n        /* \"#utility.yul\":20327:20330   */\n      0x80\n        /* \"#utility.yul\":20316:20325   */\n      dup3\n        /* \"#utility.yul\":20312:20331   */\n      add\n        /* \"#utility.yul\":20304:20331   */\n      swap1\n      pop\n        /* \"#utility.yul\":20377:20386   */\n      dup2\n        /* \"#utility.yul\":20371:20375   */\n      dup2\n        /* \"#utility.yul\":20367:20387   */\n      sub\n        /* \"#utility.yul\":20363:20364   */\n      0x00\n        /* \"#utility.yul\":20352:20361   */\n      dup4\n        /* \"#utility.yul\":20348:20365   */\n      add\n        /* \"#utility.yul\":20341:20388   */\n      mstore\n        /* \"#utility.yul\":20405:20536   */\n      tag_495\n        /* \"#utility.yul\":20531:20535   */\n      dup2\n        /* \"#utility.yul\":20405:20536   */\n      tag_248\n      jump\t// in\n    tag_495:\n        /* \"#utility.yul\":20397:20536   */\n      swap1\n      pop\n        /* \"#utility.yul\":20546:20624   */\n      tag_496\n        /* \"#utility.yul\":20620:20622   */\n      0x20\n        /* \"#utility.yul\":20609:20618   */\n      dup4\n        /* \"#utility.yul\":20605:20623   */\n      add\n        /* \"#utility.yul\":20596:20602   */\n      dup6\n        /* \"#utility.yul\":20546:20624   */\n      tag_253\n      jump\t// in\n    tag_496:\n        /* \"#utility.yul\":20634:20713   */\n      tag_497\n        /* \"#utility.yul\":20709:20711   */\n      0x40\n        /* \"#utility.yul\":20698:20707   */\n      dup4\n        /* \"#utility.yul\":20694:20712   */\n      add\n        /* \"#utility.yul\":20685:20691   */\n      dup5\n        /* \"#utility.yul\":20634:20713   */\n      tag_256\n      jump\t// in\n    tag_497:\n        /* \"#utility.yul\":20760:20769   */\n      dup2\n        /* \"#utility.yul\":20754:20758   */\n      dup2\n        /* \"#utility.yul\":20750:20770   */\n      sub\n        /* \"#utility.yul\":20745:20747   */\n      0x60\n        /* \"#utility.yul\":20734:20743   */\n      dup4\n        /* \"#utility.yul\":20730:20748   */\n      add\n        /* \"#utility.yul\":20723:20771   */\n      mstore\n        /* \"#utility.yul\":20788:20919   */\n      tag_498\n        /* \"#utility.yul\":20914:20918   */\n      dup2\n        /* \"#utility.yul\":20788:20919   */\n      tag_258\n      jump\t// in\n    tag_498:\n        /* \"#utility.yul\":20780:20919   */\n      swap1\n      pop\n        /* \"#utility.yul\":19953:20926   */\n      swap4\n      swap3\n      pop\n      pop\n      pop\n      jump\t// out\n        /* \"#utility.yul\":20932:21105   */\n    tag_259:\n        /* \"#utility.yul\":21072:21097   */\n      0x626f6f6c20706172616d6574657220636f72726563742e000000000000000000\n        /* \"#utility.yul\":21068:21069   */\n      0x00\n        /* \"#utility.yul\":21060:21066   */\n      dup3\n        /* \"#utility.yul\":21056:21070   */\n      add\n        /* \"#utility.yul\":21049:21098   */\n      mstore\n        /* \"#utility.yul\":20932:21105   */\n      pop\n      jump\t// out\n        /* \"#utility.yul\":21111:21477   */\n    tag_260:\n        /* \"#utility.yul\":21253:21256   */\n      0x00\n        /* \"#utility.yul\":21274:21341   */\n      tag_501\n        /* \"#utility.yul\":21338:21340   */\n      0x17\n        /* \"#utility.yul\":21333:21336   */\n      dup4\n        /* \"#utility.yul\":21274:21341   */\n      tag_207\n      jump\t// in\n    tag_501:\n        /* \"#utility.yul\":21267:21341   */\n      swap2\n      pop\n        /* \"#utility.yul\":21350:21443   */\n      tag_502\n        /* \"#utility.yul\":21439:21442   */\n      dup3\n        /* \"#utility.yul\":21350:21443   */\n      tag_259\n      jump\t// in\n    tag_502:\n        /* \"#utility.yul\":21468:21470   */\n      0x20\n        /* \"#utility.yul\":21463:21466   */\n      dup3\n        /* \"#utility.yul\":21459:21471   */\n      add\n        /* \"#utility.yul\":21452:21471   */\n      swap1\n      pop\n        /* \"#utility.yul\":21111:21477   */\n      swap2\n      swap1\n      pop\n      jump\t// out\n        /* \"#utility.yul\":21483:21902   */\n    tag_128:\n        /* \"#utility.yul\":21649:21653   */\n      0x00\n        /* \"#utility.yul\":21687:21689   */\n      0x20\n        /* \"#utility.yul\":21676:21685   */\n      dup3\n        /* \"#utility.yul\":21672:21690   */\n      add\n        /* \"#utility.yul\":21664:21690   */\n      swap1\n      pop\n        /* \"#utility.yul\":21736:21745   */\n      dup2\n        /* \"#utility.yul\":21730:21734   */\n      dup2\n        /* \"#utility.yul\":21726:21746   */\n      sub\n        /* \"#utility.yul\":21722:21723   */\n      0x00\n        /* \"#utility.yul\":21711:21720   */\n      dup4\n        /* \"#utility.yul\":21707:21724   */\n      add\n        /* \"#utility.yul\":21700:21747   */\n      mstore\n        /* \"#utility.yul\":21764:21895   */\n      tag_504\n        /* \"#utility.yul\":21890:21894   */\n      dup2\n        /* \"#utility.yul\":21764:21895   */\n      tag_260\n      jump\t// in\n    tag_504:\n        /* \"#utility.yul\":21756:21895   */\n      swap1\n      pop\n        /* \"#utility.yul\":21483:21902   */\n      swap2\n      swap1\n      pop\n      jump\t// out\n        /* \"#utility.yul\":21908:22088   */\n    tag_131:\n        /* \"#utility.yul\":21956:22033   */\n      0x4e487b7100000000000000000000000000000000000000000000000000000000\n        /* \"#utility.yul\":21953:21954   */\n      0x00\n        /* \"#utility.yul\":21946:22034   */\n      mstore\n        /* \"#utility.yul\":22053:22057   */\n      0x32\n        /* \"#utility.yul\":22050:22051   */\n      0x04\n        /* \"#utility.yul\":22043:22058   */\n      mstore\n        /* \"#utility.yul\":22077:22081   */\n      0x24\n        /* \"#utility.yul\":22074:22075   */\n      0x00\n        /* \"#utility.yul\":22067:22082   */\n      revert\n        /* \"#utility.yul\":22094:22273   */\n    tag_261:\n        /* \"#utility.yul\":22234:22265   */\n      0x75696e7420617272617920706172616d6574657220636f72726563742e000000\n        /* \"#utility.yul\":22230:22231   */\n      0x00\n        /* \"#utility.yul\":22222:22228   */\n      dup3\n        /* \"#utility.yul\":22218:22232   */\n      add\n        /* \"#utility.yul\":22211:22266   */\n      mstore\n        /* \"#utility.yul\":22094:22273   */\n      pop\n      jump\t// out\n        /* \"#utility.yul\":22279:22645   */\n    tag_262:\n        /* \"#utility.yul\":22421:22424   */\n      0x00\n        /* \"#utility.yul\":22442:22509   */\n      tag_508\n        /* \"#utility.yul\":22506:22508   */\n      0x1d\n        /* \"#utility.yul\":22501:22504   */\n      dup4\n        /* \"#utility.yul\":22442:22509   */\n      tag_207\n      jump\t// in\n    tag_508:\n        /* \"#utility.yul\":22435:22509   */\n      swap2\n      pop\n        /* \"#utility.yul\":22518:22611   */\n      tag_509\n        /* \"#utility.yul\":22607:22610   */\n      dup3\n        /* \"#utility.yul\":22518:22611   */\n      tag_261\n      jump\t// in\n    tag_509:\n        /* \"#utility.yul\":22636:22638   */\n      0x20\n        /* \"#utility.yul\":22631:22634   */\n      dup3\n        /* \"#utility.yul\":22627:22639   */\n      add\n        /* \"#utility.yul\":22620:22639   */\n      swap1\n      pop\n        /* \"#utility.yul\":22279:22645   */\n      swap2\n      swap1\n      pop\n      jump\t// out\n        /* \"#utility.yul\":22651:23070   */\n    tag_134:\n        /* \"#utility.yul\":22817:22821   */\n      0x00\n        /* \"#utility.yul\":22855:22857   */\n      0x20\n        /* \"#utility.yul\":22844:22853   */\n      dup3\n        /* \"#utility.yul\":22840:22858   */\n      add\n        /* \"#utility.yul\":22832:22858   */\n      swap1\n      pop\n        /* \"#utility.yul\":22904:22913   */\n      dup2\n        /* \"#utility.yul\":22898:22902   */\n      dup2\n        /* \"#utility.yul\":22894:22914   */\n      sub\n        /* \"#utility.yul\":22890:22891   */\n      0x00\n        /* \"#utility.yul\":22879:22888   */\n      dup4\n        /* \"#utility.yul\":22875:22892   */\n      add\n        /* \"#utility.yul\":22868:22915   */\n      mstore\n        /* \"#utility.yul\":22932:23063   */\n      tag_511\n        /* \"#utility.yul\":23058:23062   */\n      dup2\n        /* \"#utility.yul\":22932:23063   */\n      tag_262\n      jump\t// in\n    tag_511:\n        /* \"#utility.yul\":22924:23063   */\n      swap1\n      pop\n        /* \"#utility.yul\":22651:23070   */\n      swap2\n      swap1\n      pop\n      jump\t// out\n        /* \"#utility.yul\":23076:23252   */\n    tag_263:\n        /* \"#utility.yul\":23216:23244   */\n      0x6164647265737320706172616d6574657220636f72726563742e000000000000\n        /* \"#utility.yul\":23212:23213   */\n      0x00\n        /* \"#utility.yul\":23204:23210   */\n      dup3\n        /* \"#utility.yul\":23200:23214   */\n      add\n        /* \"#utility.yul\":23193:23245   */\n      mstore\n        /* \"#utility.yul\":23076:23252   */\n      pop\n      jump\t// out\n        /* \"#utility.yul\":23258:23624   */\n    tag_264:\n        /* \"#utility.yul\":23400:23403   */\n      0x00\n        /* \"#utility.yul\":23421:23488   */\n      tag_514\n        /* \"#utility.yul\":23485:23487   */\n      0x1a\n        /* \"#utility.yul\":23480:23483   */\n      dup4\n        /* \"#utility.yul\":23421:23488   */\n      tag_207\n      jump\t// in\n    tag_514:\n        /* \"#utility.yul\":23414:23488   */\n      swap2\n      pop\n        /* \"#utility.yul\":23497:23590   */\n      tag_515\n        /* \"#utility.yul\":23586:23589   */\n      dup3\n        /* \"#utility.yul\":23497:23590   */\n      tag_263\n      jump\t// in\n    tag_515:\n        /* \"#utility.yul\":23615:23617   */\n      0x20\n        /* \"#utility.yul\":23610:23613   */\n      dup3\n        /* \"#utility.yul\":23606:23618   */\n      add\n        /* \"#utility.yul\":23599:23618   */\n      swap1\n      pop\n        /* \"#utility.yul\":23258:23624   */\n      swap2\n      swap1\n      pop\n      jump\t// out\n        /* \"#utility.yul\":23630:24049   */\n    tag_141:\n        /* \"#utility.yul\":23796:23800   */\n      0x00\n        /* \"#utility.yul\":23834:23836   */\n      0x20\n        /* \"#utility.yul\":23823:23832   */\n      dup3\n        /* \"#utility.yul\":23819:23837   */\n      add\n        /* \"#utility.yul\":23811:23837   */\n      swap1\n      pop\n        /* \"#utility.yul\":23883:23892   */\n      dup2\n        /* \"#utility.yul\":23877:23881   */\n      dup2\n        /* \"#utility.yul\":23873:23893   */\n      sub\n        /* \"#utility.yul\":23869:23870   */\n      0x00\n        /* \"#utility.yul\":23858:23867   */\n      dup4\n        /* \"#utility.yul\":23854:23871   */\n      add\n        /* \"#utility.yul\":23847:23894   */\n      mstore\n        /* \"#utility.yul\":23911:24042   */\n      tag_517\n        /* \"#utility.yul\":24037:24041   */\n      dup2\n        /* \"#utility.yul\":23911:24042   */\n      tag_264\n      jump\t// in\n    tag_517:\n        /* \"#utility.yul\":23903:24042   */\n      swap1\n      pop\n        /* \"#utility.yul\":23630:24049   */\n      swap2\n      swap1\n      pop\n      jump\t// out\n        /* \"#utility.yul\":24055:24210   */\n    tag_265:\n        /* \"#utility.yul\":24195:24202   */\n      0x427269616e000000000000000000000000000000000000000000000000000000\n        /* \"#utility.yul\":24191:24192   */\n      0x00\n        /* \"#utility.yul\":24183:24189   */\n      dup3\n        /* \"#utility.yul\":24179:24193   */\n      add\n        /* \"#utility.yul\":24172:24203   */\n      mstore\n        /* \"#utility.yul\":24055:24210   */\n      pop\n      jump\t// out\n        /* \"#utility.yul\":24216:24616   */\n    tag_266:\n        /* \"#utility.yul\":24376:24379   */\n      0x00\n        /* \"#utility.yul\":24397:24481   */\n      tag_520\n        /* \"#utility.yul\":24479:24480   */\n      0x05\n        /* \"#utility.yul\":24474:24477   */\n      dup4\n        /* \"#utility.yul\":24397:24481   */\n      tag_239\n      jump\t// in\n    tag_520:\n        /* \"#utility.yul\":24390:24481   */\n      swap2\n      pop\n        /* \"#utility.yul\":24490:24583   */\n      tag_521\n        /* \"#utility.yul\":24579:24582   */\n      dup3\n        /* \"#utility.yul\":24490:24583   */\n      tag_265\n      jump\t// in\n    tag_521:\n        /* \"#utility.yul\":24608:24609   */\n      0x05\n        /* \"#utility.yul\":24603:24606   */\n      dup3\n        /* \"#utility.yul\":24599:24610   */\n      add\n        /* \"#utility.yul\":24592:24610   */\n      swap1\n      pop\n        /* \"#utility.yul\":24216:24616   */\n      swap2\n      swap1\n      pop\n      jump\t// out\n        /* \"#utility.yul\":24622:25003   */\n    tag_143:\n        /* \"#utility.yul\":24807:24810   */\n      0x00\n        /* \"#utility.yul\":24829:24977   */\n      tag_523\n        /* \"#utility.yul\":24973:24976   */\n      dup3\n        /* \"#utility.yul\":24829:24977   */\n      tag_266\n      jump\t// in\n    tag_523:\n        /* \"#utility.yul\":24822:24977   */\n      swap2\n      pop\n        /* \"#utility.yul\":24994:24997   */\n      dup2\n        /* \"#utility.yul\":24987:24997   */\n      swap1\n      pop\n        /* \"#utility.yul\":24622:25003   */\n      swap2\n      swap1\n      pop\n      jump\t// out\n        /* \"#utility.yul\":25033:25363   */\n    tag_267:\n        /* \"#utility.yul\":25149:25152   */\n      0x00\n        /* \"#utility.yul\":25170:25259   */\n      tag_525\n        /* \"#utility.yul\":25252:25258   */\n      dup4\n        /* \"#utility.yul\":25247:25250   */\n      dup6\n        /* \"#utility.yul\":25170:25259   */\n      tag_239\n      jump\t// in\n    tag_525:\n        /* \"#utility.yul\":25163:25259   */\n      swap4\n      pop\n        /* \"#utility.yul\":25269:25325   */\n      tag_526\n        /* \"#utility.yul\":25318:25324   */\n      dup4\n        /* \"#utility.yul\":25313:25316   */\n      dup6\n        /* \"#utility.yul\":25306:25311   */\n      dup5\n        /* \"#utility.yul\":25269:25325   */\n      tag_232\n      jump\t// in\n    tag_526:\n        /* \"#utility.yul\":25350:25356   */\n      dup3\n        /* \"#utility.yul\":25345:25348   */\n      dup5\n        /* \"#utility.yul\":25341:25357   */\n      add\n        /* \"#utility.yul\":25334:25357   */\n      swap1\n      pop\n        /* \"#utility.yul\":25033:25363   */\n      swap4\n      swap3\n      pop\n      pop\n      pop\n      jump\t// out\n        /* \"#utility.yul\":25369:25664   */\n    tag_145:\n        /* \"#utility.yul\":25511:25514   */\n      0x00\n        /* \"#utility.yul\":25533:25638   */\n      tag_528\n        /* \"#utility.yul\":25634:25637   */\n      dup3\n        /* \"#utility.yul\":25625:25631   */\n      dup5\n        /* \"#utility.yul\":25617:25623   */\n      dup7\n        /* \"#utility.yul\":25533:25638   */\n      tag_267\n      jump\t// in\n    tag_528:\n        /* \"#utility.yul\":25526:25638   */\n      swap2\n      pop\n        /* \"#utility.yul\":25655:25658   */\n      dup2\n        /* \"#utility.yul\":25648:25658   */\n      swap1\n      pop\n        /* \"#utility.yul\":25369:25664   */\n      swap4\n      swap3\n      pop\n      pop\n      pop\n      jump\t// out\n        /* \"#utility.yul\":25670:25845   */\n    tag_268:\n        /* \"#utility.yul\":25810:25837   */\n      0x737472696e6720706172616d6574657220636f72726563742e00000000000000\n        /* \"#utility.yul\":25806:25807   */\n      0x00\n        /* \"#utility.yul\":25798:25804   */\n      dup3\n        /* \"#utility.yul\":25794:25808   */\n      add\n        /* \"#utility.yul\":25787:25838   */\n      mstore\n        /* \"#utility.yul\":25670:25845   */\n      pop\n      jump\t// out\n        /* \"#utility.yul\":25851:26217   */\n    tag_269:\n        /* \"#utility.yul\":25993:25996   */\n      0x00\n        /* \"#utility.yul\":26014:26081   */\n      tag_531\n        /* \"#utility.yul\":26078:26080   */\n      0x19\n        /* \"#utility.yul\":26073:26076   */\n      dup4\n        /* \"#utility.yul\":26014:26081   */\n      tag_207\n      jump\t// in\n    tag_531:\n        /* \"#utility.yul\":26007:26081   */\n      swap2\n      pop\n        /* \"#utility.yul\":26090:26183   */\n      tag_532\n        /* \"#utility.yul\":26179:26182   */\n      dup3\n        /* \"#utility.yul\":26090:26183   */\n      tag_268\n      jump\t// in\n    tag_532:\n        /* \"#utility.yul\":26208:26210   */\n      0x20\n        /* \"#utility.yul\":26203:26206   */\n      dup3\n        /* \"#utility.yul\":26199:26211   */\n      add\n        /* \"#utility.yul\":26192:26211   */\n      swap1\n      pop\n        /* \"#utility.yul\":25851:26217   */\n      swap2\n      swap1\n      pop\n      jump\t// out\n        /* \"#utility.yul\":26223:26642   */\n    tag_148:\n        /* \"#utility.yul\":26389:26393   */\n      0x00\n        /* \"#utility.yul\":26427:26429   */\n      0x20\n        /* \"#utility.yul\":26416:26425   */\n      dup3\n        /* \"#utility.yul\":26412:26430   */\n      add\n        /* \"#utility.yul\":26404:26430   */\n      swap1\n      pop\n        /* \"#utility.yul\":26476:26485   */\n      dup2\n        /* \"#utility.yul\":26470:26474   */\n      dup2\n        /* \"#utility.yul\":26466:26486   */\n      sub\n        /* \"#utility.yul\":26462:26463   */\n      0x00\n        /* \"#utility.yul\":26451:26460   */\n      dup4\n        /* \"#utility.yul\":26447:26464   */\n      add\n        /* \"#utility.yul\":26440:26487   */\n      mstore\n        /* \"#utility.yul\":26504:26635   */\n      tag_534\n        /* \"#utility.yul\":26630:26634   */\n      dup2\n        /* \"#utility.yul\":26504:26635   */\n      tag_269\n      jump\t// in\n    tag_534:\n        /* \"#utility.yul\":26496:26635   */\n      swap1\n      pop\n        /* \"#utility.yul\":26223:26642   */\n      swap2\n      swap1\n      pop\n      jump\t// out\n        /* \"#utility.yul\":26648:27299   */\n    tag_151:\n        /* \"#utility.yul\":26876:26880   */\n      0x00\n        /* \"#utility.yul\":26914:26916   */\n      0x60\n        /* \"#utility.yul\":26903:26912   */\n      dup3\n        /* \"#utility.yul\":26899:26917   */\n      add\n        /* \"#utility.yul\":26891:26917   */\n      swap1\n      pop\n        /* \"#utility.yul\":26963:26972   */\n      dup2\n        /* \"#utility.yul\":26957:26961   */\n      dup2\n        /* \"#utility.yul\":26953:26973   */\n      sub\n        /* \"#utility.yul\":26949:26950   */\n      0x00\n        /* \"#utility.yul\":26938:26947   */\n      dup4\n        /* \"#utility.yul\":26934:26951   */\n      add\n        /* \"#utility.yul\":26927:26974   */\n      mstore\n        /* \"#utility.yul\":26991:27122   */\n      tag_536\n        /* \"#utility.yul\":27117:27121   */\n      dup2\n        /* \"#utility.yul\":26991:27122   */\n      tag_248\n      jump\t// in\n    tag_536:\n        /* \"#utility.yul\":26983:27122   */\n      swap1\n      pop\n        /* \"#utility.yul\":27132:27210   */\n      tag_537\n        /* \"#utility.yul\":27206:27208   */\n      0x20\n        /* \"#utility.yul\":27195:27204   */\n      dup4\n        /* \"#utility.yul\":27191:27209   */\n      add\n        /* \"#utility.yul\":27182:27188   */\n      dup6\n        /* \"#utility.yul\":27132:27210   */\n      tag_253\n      jump\t// in\n    tag_537:\n        /* \"#utility.yul\":27220:27292   */\n      tag_538\n        /* \"#utility.yul\":27288:27290   */\n      0x40\n        /* \"#utility.yul\":27277:27286   */\n      dup4\n        /* \"#utility.yul\":27273:27291   */\n      add\n        /* \"#utility.yul\":27264:27270   */\n      dup5\n        /* \"#utility.yul\":27220:27292   */\n      tag_215\n      jump\t// in\n    tag_538:\n        /* \"#utility.yul\":26648:27299   */\n      swap4\n      swap3\n      pop\n      pop\n      pop\n      jump\t// out\n        /* \"#utility.yul\":27305:27539   */\n    tag_154:\n        /* \"#utility.yul\":27404:27408   */\n      0x00\n        /* \"#utility.yul\":27442:27444   */\n      0x20\n        /* \"#utility.yul\":27431:27440   */\n      dup3\n        /* \"#utility.yul\":27427:27445   */\n      add\n        /* \"#utility.yul\":27419:27445   */\n      swap1\n      pop\n        /* \"#utility.yul\":27455:27532   */\n      tag_540\n        /* \"#utility.yul\":27529:27530   */\n      0x00\n        /* \"#utility.yul\":27518:27527   */\n      dup4\n        /* \"#utility.yul\":27514:27531   */\n      add\n        /* \"#utility.yul\":27505:27511   */\n      dup5\n        /* \"#utility.yul\":27455:27532   */\n      tag_253\n      jump\t// in\n    tag_540:\n        /* \"#utility.yul\":27305:27539   */\n      swap3\n      swap2\n      pop\n      pop\n      jump\t// out\n        /* \"#utility.yul\":27545:27698   */\n    tag_270:\n        /* \"#utility.yul\":27685:27690   */\n      0x4142430000000000000000000000000000000000000000000000000000000000\n        /* \"#utility.yul\":27681:27682   */\n      0x00\n        /* \"#utility.yul\":27673:27679   */\n      dup3\n        /* \"#utility.yul\":27669:27683   */\n      add\n        /* \"#utility.yul\":27662:27691   */\n      mstore\n        /* \"#utility.yul\":27545:27698   */\n      pop\n      jump\t// out\n        /* \"#utility.yul\":27704:28104   */\n    tag_271:\n        /* \"#utility.yul\":27864:27867   */\n      0x00\n        /* \"#utility.yul\":27885:27969   */\n      tag_543\n        /* \"#utility.yul\":27967:27968   */\n      0x03\n        /* \"#utility.yul\":27962:27965   */\n      dup4\n        /* \"#utility.yul\":27885:27969   */\n      tag_239\n      jump\t// in\n    tag_543:\n        /* \"#utility.yul\":27878:27969   */\n      swap2\n      pop\n        /* \"#utility.yul\":27978:28071   */\n      tag_544\n        /* \"#utility.yul\":28067:28070   */\n      dup3\n        /* \"#utility.yul\":27978:28071   */\n      tag_270\n      jump\t// in\n    tag_544:\n        /* \"#utility.yul\":28096:28097   */\n      0x03\n        /* \"#utility.yul\":28091:28094   */\n      dup3\n        /* \"#utility.yul\":28087:28098   */\n      add\n        /* \"#utility.yul\":28080:28098   */\n      swap1\n      pop\n        /* \"#utility.yul\":27704:28104   */\n      swap2\n      swap1\n      pop\n      jump\t// out\n        /* \"#utility.yul\":28110:28265   */\n    tag_272:\n        /* \"#utility.yul\":28250:28257   */\n      0x2e6a736f6e000000000000000000000000000000000000000000000000000000\n        /* \"#utility.yul\":28246:28247   */\n      0x00\n        /* \"#utility.yul\":28238:28244   */\n      dup3\n        /* \"#utility.yul\":28234:28248   */\n      add\n        /* \"#utility.yul\":28227:28258   */\n      mstore\n        /* \"#utility.yul\":28110:28265   */\n      pop\n      jump\t// out\n        /* \"#utility.yul\":28271:28671   */\n    tag_273:\n        /* \"#utility.yul\":28431:28434   */\n      0x00\n        /* \"#utility.yul\":28452:28536   */\n      tag_547\n        /* \"#utility.yul\":28534:28535   */\n      0x05\n        /* \"#utility.yul\":28529:28532   */\n      dup4\n        /* \"#utility.yul\":28452:28536   */\n      tag_239\n      jump\t// in\n    tag_547:\n        /* \"#utility.yul\":28445:28536   */\n      swap2\n      pop\n        /* \"#utility.yul\":28545:28638   */\n      tag_548\n        /* \"#utility.yul\":28634:28637   */\n      dup3\n        /* \"#utility.yul\":28545:28638   */\n      tag_272\n      jump\t// in\n    tag_548:\n        /* \"#utility.yul\":28663:28664   */\n      0x05\n        /* \"#utility.yul\":28658:28661   */\n      dup3\n        /* \"#utility.yul\":28654:28665   */\n      add\n        /* \"#utility.yul\":28647:28665   */\n      swap1\n      pop\n        /* \"#utility.yul\":28271:28671   */\n      swap2\n      swap1\n      pop\n      jump\t// out\n        /* \"#utility.yul\":28677:29484   */\n    tag_159:\n        /* \"#utility.yul\":29011:29014   */\n      0x00\n        /* \"#utility.yul\":29033:29181   */\n      tag_550\n        /* \"#utility.yul\":29177:29180   */\n      dup3\n        /* \"#utility.yul\":29033:29181   */\n      tag_271\n      jump\t// in\n    tag_550:\n        /* \"#utility.yul\":29026:29181   */\n      swap2\n      pop\n        /* \"#utility.yul\":29198:29293   */\n      tag_551\n        /* \"#utility.yul\":29289:29292   */\n      dup3\n        /* \"#utility.yul\":29280:29286   */\n      dup5\n        /* \"#utility.yul\":29198:29293   */\n      tag_247\n      jump\t// in\n    tag_551:\n        /* \"#utility.yul\":29191:29293   */\n      swap2\n      pop\n        /* \"#utility.yul\":29310:29458   */\n      tag_552\n        /* \"#utility.yul\":29454:29457   */\n      dup3\n        /* \"#utility.yul\":29310:29458   */\n      tag_273\n      jump\t// in\n    tag_552:\n        /* \"#utility.yul\":29303:29458   */\n      swap2\n      pop\n        /* \"#utility.yul\":29475:29478   */\n      dup2\n        /* \"#utility.yul\":29468:29478   */\n      swap1\n      pop\n        /* \"#utility.yul\":28677:29484   */\n      swap3\n      swap2\n      pop\n      pop\n      jump\t// out\n        /* \"#utility.yul\":29490:29712   */\n    tag_162:\n        /* \"#utility.yul\":29583:29587   */\n      0x00\n        /* \"#utility.yul\":29621:29623   */\n      0x20\n        /* \"#utility.yul\":29610:29619   */\n      dup3\n        /* \"#utility.yul\":29606:29624   */\n      add\n        /* \"#utility.yul\":29598:29624   */\n      swap1\n      pop\n        /* \"#utility.yul\":29634:29705   */\n      tag_554\n        /* \"#utility.yul\":29702:29703   */\n      0x00\n        /* \"#utility.yul\":29691:29700   */\n      dup4\n        /* \"#utility.yul\":29687:29704   */\n      add\n        /* \"#utility.yul\":29678:29684   */\n      dup5\n        /* \"#utility.yul\":29634:29705   */\n      tag_215\n      jump\t// in\n    tag_554:\n        /* \"#utility.yul\":29490:29712   */\n      swap3\n      swap2\n      pop\n      pop\n      jump\t// out\n        /* \"#utility.yul\":29718:29832   */\n    tag_274:\n        /* \"#utility.yul\":29793:29799   */\n      0x00\n        /* \"#utility.yul\":29821:29825   */\n      0x03\n        /* \"#utility.yul\":29811:29825   */\n      swap1\n      pop\n        /* \"#utility.yul\":29718:29832   */\n      swap2\n      swap1\n      pop\n      jump\t// out\n        /* \"#utility.yul\":29838:29991   */\n    tag_275:\n        /* \"#utility.yul\":29945:29956   */\n      0x00\n        /* \"#utility.yul\":29982:29985   */\n      dup2\n        /* \"#utility.yul\":29967:29985   */\n      swap1\n      pop\n        /* \"#utility.yul\":29838:29991   */\n      swap3\n      swap2\n      pop\n      pop\n      jump\t// out\n        /* \"#utility.yul\":29997:30105   */\n    tag_276:\n        /* \"#utility.yul\":30072:30076   */\n      0x00\n        /* \"#utility.yul\":30095:30098   */\n      dup2\n        /* \"#utility.yul\":30087:30098   */\n      swap1\n      pop\n        /* \"#utility.yul\":29997:30105   */\n      swap2\n      swap1\n      pop\n      jump\t// out\n        /* \"#utility.yul\":30111:30270   */\n    tag_277:\n        /* \"#utility.yul\":30185:30196   */\n      0x00\n        /* \"#utility.yul\":30219:30225   */\n      dup3\n        /* \"#utility.yul\":30214:30217   */\n      dup3\n        /* \"#utility.yul\":30207:30226   */\n      mstore\n        /* \"#utility.yul\":30259:30263   */\n      0x20\n        /* \"#utility.yul\":30254:30257   */\n      dup3\n        /* \"#utility.yul\":30250:30264   */\n      add\n        /* \"#utility.yul\":30235:30264   */\n      swap1\n      pop\n        /* \"#utility.yul\":30111:30270   */\n      swap3\n      swap2\n      pop\n      pop\n      jump\t// out\n        /* \"#utility.yul\":30276:30633   */\n    tag_278:\n        /* \"#utility.yul\":30354:30357   */\n      0x00\n        /* \"#utility.yul\":30382:30421   */\n      tag_560\n        /* \"#utility.yul\":30415:30420   */\n      dup3\n        /* \"#utility.yul\":30382:30421   */\n      tag_206\n      jump\t// in\n    tag_560:\n        /* \"#utility.yul\":30437:30498   */\n      tag_561\n        /* \"#utility.yul\":30491:30497   */\n      dup2\n        /* \"#utility.yul\":30486:30489   */\n      dup6\n        /* \"#utility.yul\":30437:30498   */\n      tag_277\n      jump\t// in\n    tag_561:\n        /* \"#utility.yul\":30430:30498   */\n      swap4\n      pop\n        /* \"#utility.yul\":30507:30572   */\n      tag_562\n        /* \"#utility.yul\":30565:30571   */\n      dup2\n        /* \"#utility.yul\":30560:30563   */\n      dup6\n        /* \"#utility.yul\":30553:30557   */\n      0x20\n        /* \"#utility.yul\":30546:30551   */\n      dup7\n        /* \"#utility.yul\":30542:30558   */\n      add\n        /* \"#utility.yul\":30507:30572   */\n      tag_208\n      jump\t// in\n    tag_562:\n        /* \"#utility.yul\":30597:30626   */\n      tag_563\n        /* \"#utility.yul\":30619:30625   */\n      dup2\n        /* \"#utility.yul\":30597:30626   */\n      tag_209\n      jump\t// in\n    tag_563:\n        /* \"#utility.yul\":30592:30595   */\n      dup5\n        /* \"#utility.yul\":30588:30627   */\n      add\n        /* \"#utility.yul\":30581:30627   */\n      swap2\n      pop\n        /* \"#utility.yul\":30358:30633   */\n      pop\n        /* \"#utility.yul\":30276:30633   */\n      swap3\n      swap2\n      pop\n      pop\n      jump\t// out\n        /* \"#utility.yul\":30639:30835   */\n    tag_279:\n        /* \"#utility.yul\":30728:30738   */\n      0x00\n        /* \"#utility.yul\":30763:30829   */\n      tag_565\n        /* \"#utility.yul\":30825:30828   */\n      dup4\n        /* \"#utility.yul\":30817:30823   */\n      dup4\n        /* \"#utility.yul\":30763:30829   */\n      tag_278\n      jump\t// in\n    tag_565:\n        /* \"#utility.yul\":30749:30829   */\n      swap1\n      pop\n        /* \"#utility.yul\":30639:30835   */\n      swap3\n      swap2\n      pop\n      pop\n      jump\t// out\n        /* \"#utility.yul\":30841:30962   */\n    tag_280:\n        /* \"#utility.yul\":30919:30923   */\n      0x00\n        /* \"#utility.yul\":30951:30955   */\n      0x20\n        /* \"#utility.yul\":30946:30949   */\n      dup3\n        /* \"#utility.yul\":30942:30956   */\n      add\n        /* \"#utility.yul\":30934:30956   */\n      swap1\n      pop\n        /* \"#utility.yul\":30841:30962   */\n      swap2\n      swap1\n      pop\n      jump\t// out\n        /* \"#utility.yul\":30998:31977   */\n    tag_281:\n        /* \"#utility.yul\":31133:31136   */\n      0x00\n        /* \"#utility.yul\":31162:31224   */\n      tag_568\n        /* \"#utility.yul\":31218:31223   */\n      dup3\n        /* \"#utility.yul\":31162:31224   */\n      tag_274\n      jump\t// in\n    tag_568:\n        /* \"#utility.yul\":31240:31334   */\n      tag_569\n        /* \"#utility.yul\":31327:31333   */\n      dup2\n        /* \"#utility.yul\":31322:31325   */\n      dup6\n        /* \"#utility.yul\":31240:31334   */\n      tag_275\n      jump\t// in\n    tag_569:\n        /* \"#utility.yul\":31233:31334   */\n      swap4\n      pop\n        /* \"#utility.yul\":31360:31363   */\n      dup4\n        /* \"#utility.yul\":31405:31409   */\n      0x20\n        /* \"#utility.yul\":31397:31403   */\n      dup3\n        /* \"#utility.yul\":31393:31410   */\n      mul\n        /* \"#utility.yul\":31388:31391   */\n      dup6\n        /* \"#utility.yul\":31384:31411   */\n      add\n        /* \"#utility.yul\":31435:31499   */\n      tag_570\n        /* \"#utility.yul\":31493:31498   */\n      dup6\n        /* \"#utility.yul\":31435:31499   */\n      tag_276\n      jump\t// in\n    tag_570:\n        /* \"#utility.yul\":31522:31529   */\n      dup1\n        /* \"#utility.yul\":31553:31554   */\n      0x00\n        /* \"#utility.yul\":31538:31932   */\n    tag_571:\n        /* \"#utility.yul\":31563:31569   */\n      dup6\n        /* \"#utility.yul\":31560:31561   */\n      dup2\n        /* \"#utility.yul\":31557:31570   */\n      lt\n        /* \"#utility.yul\":31538:31932   */\n      iszero\n      tag_573\n      jumpi\n        /* \"#utility.yul\":31634:31643   */\n      dup5\n        /* \"#utility.yul\":31628:31632   */\n      dup5\n        /* \"#utility.yul\":31624:31644   */\n      sub\n        /* \"#utility.yul\":31619:31622   */\n      dup10\n        /* \"#utility.yul\":31612:31645   */\n      mstore\n        /* \"#utility.yul\":31685:31691   */\n      dup2\n        /* \"#utility.yul\":31679:31692   */\n      mload\n        /* \"#utility.yul\":31713:31797   */\n      tag_574\n        /* \"#utility.yul\":31792:31796   */\n      dup6\n        /* \"#utility.yul\":31777:31790   */\n      dup3\n        /* \"#utility.yul\":31713:31797   */\n      tag_279\n      jump\t// in\n    tag_574:\n        /* \"#utility.yul\":31705:31797   */\n      swap5\n      pop\n        /* \"#utility.yul\":31820:31888   */\n      tag_575\n        /* \"#utility.yul\":31881:31887   */\n      dup4\n        /* \"#utility.yul\":31820:31888   */\n      tag_280\n      jump\t// in\n    tag_575:\n        /* \"#utility.yul\":31810:31888   */\n      swap3\n      pop\n        /* \"#utility.yul\":31917:31921   */\n      0x20\n        /* \"#utility.yul\":31912:31915   */\n      dup11\n        /* \"#utility.yul\":31908:31922   */\n      add\n        /* \"#utility.yul\":31901:31922   */\n      swap10\n      pop\n        /* \"#utility.yul\":31598:31932   */\n      pop\n        /* \"#utility.yul\":31585:31586   */\n      0x01\n        /* \"#utility.yul\":31582:31583   */\n      dup2\n        /* \"#utility.yul\":31578:31587   */\n      add\n        /* \"#utility.yul\":31573:31587   */\n      swap1\n      pop\n        /* \"#utility.yul\":31538:31932   */\n      jump(tag_571)\n    tag_573:\n        /* \"#utility.yul\":31542:31556   */\n      pop\n        /* \"#utility.yul\":31948:31952   */\n      dup3\n        /* \"#utility.yul\":31941:31952   */\n      swap8\n      pop\n        /* \"#utility.yul\":31968:31971   */\n      dup8\n        /* \"#utility.yul\":31961:31971   */\n      swap6\n      pop\n        /* \"#utility.yul\":31138:31977   */\n      pop\n      pop\n      pop\n      pop\n      pop\n        /* \"#utility.yul\":30998:31977   */\n      swap3\n      swap2\n      pop\n      pop\n      jump\t// out\n        /* \"#utility.yul\":31983:32388   */\n    tag_165:\n        /* \"#utility.yul\":32142:32146   */\n      0x00\n        /* \"#utility.yul\":32180:32182   */\n      0x20\n        /* \"#utility.yul\":32169:32178   */\n      dup3\n        /* \"#utility.yul\":32165:32183   */\n      add\n        /* \"#utility.yul\":32157:32183   */\n      swap1\n      pop\n        /* \"#utility.yul\":32229:32238   */\n      dup2\n        /* \"#utility.yul\":32223:32227   */\n      dup2\n        /* \"#utility.yul\":32219:32239   */\n      sub\n        /* \"#utility.yul\":32215:32216   */\n      0x00\n        /* \"#utility.yul\":32204:32213   */\n      dup4\n        /* \"#utility.yul\":32200:32217   */\n      add\n        /* \"#utility.yul\":32193:32240   */\n      mstore\n        /* \"#utility.yul\":32257:32381   */\n      tag_577\n        /* \"#utility.yul\":32376:32380   */\n      dup2\n        /* \"#utility.yul\":32367:32373   */\n      dup5\n        /* \"#utility.yul\":32257:32381   */\n      tag_281\n      jump\t// in\n    tag_577:\n        /* \"#utility.yul\":32249:32381   */\n      swap1\n      pop\n        /* \"#utility.yul\":31983:32388   */\n      swap3\n      swap2\n      pop\n      pop\n      jump\t// out\n        /* \"#utility.yul\":32394:32574   */\n    tag_177:\n        /* \"#utility.yul\":32442:32519   */\n      0x4e487b7100000000000000000000000000000000000000000000000000000000\n        /* \"#utility.yul\":32439:32440   */\n      0x00\n        /* \"#utility.yul\":32432:32520   */\n      mstore\n        /* \"#utility.yul\":32539:32543   */\n      0x12\n        /* \"#utility.yul\":32536:32537   */\n      0x04\n        /* \"#utility.yul\":32529:32544   */\n      mstore\n        /* \"#utility.yul\":32563:32567   */\n      0x24\n        /* \"#utility.yul\":32560:32561   */\n      0x00\n        /* \"#utility.yul\":32553:32568   */\n      revert\n\n    auxdata: 0xa26469706673582212203a547700aed47ca1af4f9982afdf139333770a700a404086838e6cd25fe7212164736f6c63430008150033\n}\n",
				"bytecode": {
					"linkReferences": {},
					"object": "608060405234801561000f575f80fd5b50611cac8061001d5f395ff3fe6080604052600436106100eb575f3560e01c80637e3b06fb11610089578063c1ed13ef11610058578063c1ed13ef1461033c578063c87b56dd14610366578063cf57b6eb146103a2578063d264610d146103cc576100ec565b80637e3b06fb146102705780637faec262146102ac578063ae53a4a5146102d6578063bd14598f14610312576100ec565b80634e10efba116100c55780634e10efba146101925780635fc6ac0e146101ce5780636458817c1461020a578063733e2f0614610246576100ec565b8063065fdac2146100ee57806325adff1c1461012c57806344d1587c14610168576100ec565b5b005b3480156100f9575f80fd5b50610114600480360381019061010f9190610dfc565b6103f6565b60405161012393929190610f28565b60405180910390f35b348015610137575f80fd5b50610152600480360381019061014d9190610fb8565b61041c565b60405161015f9190611048565b60405180910390f35b348015610173575f80fd5b5061017c61047e565b6040516101899190611048565b60405180910390f35b34801561019d575f80fd5b506101b860048036038101906101b39190611147565b6104a3565b6040516101c59190611048565b60405180910390f35b3480156101d9575f80fd5b506101f460048036038101906101ef9190610fb8565b610549565b6040516102019190611048565b60405180910390f35b348015610215575f80fd5b50610230600480360381019061022b9190611312565b6105cb565b60405161023d9190611048565b60405180910390f35b348015610251575f80fd5b5061025a61064d565b6040516102679190611048565b60405180910390f35b34801561027b575f80fd5b5061029660048036038101906102919190610fb8565b610672565b6040516102a39190611048565b60405180910390f35b3480156102b7575f80fd5b506102c061070c565b6040516102cd9190611048565b60405180910390f35b3480156102e1575f80fd5b506102fc60048036038101906102f79190611147565b610737565b6040516103099190611368565b60405180910390f35b34801561031d575f80fd5b5061032661094f565b6040516103339190611048565b60405180910390f35b348015610347575f80fd5b5061035061098d565b60405161035d9190611048565b60405180910390f35b348015610371575f80fd5b5061038c60048036038101906103879190611381565b6109b5565b60405161039991906113ac565b60405180910390f35b3480156103ad575f80fd5b506103b66109e6565b6040516103c39190611048565b60405180910390f35b3480156103d7575f80fd5b506103e0610a21565b6040516103ed9190611048565b60405180910390f35b60605f8084848101906104099190611407565b8093508194508295505050509250925092565b60608282604051602401610431929190611473565b60405160208183030381529060405263a9059cbb60e01b6020820180517bffffffffffffffffffffffffffffffffffffffffffffffffffffffff8381831617835250505050905092915050565b606060405160200161048f906114ee565b604051602081830303815290604052905090565b60608686868686866040516024016104c0969594939291906115a6565b6040516020818303038152906040527fae53a4a5000000000000000000000000000000000000000000000000000000007bffffffffffffffffffffffffffffffffffffffffffffffffffffffff19166020820180517bffffffffffffffffffffffffffffffffffffffffffffffffffffffff838183161783525050505090509695505050505050565b606063a9059cbb60e01b8383604051602401610566929190611473565b604051602081830303815290604052907bffffffffffffffffffffffffffffffffffffffffffffffffffffffff19166020820180517bffffffffffffffffffffffffffffffffffffffffffffffffffffffff8381831617835250505050905092915050565b606081604051602401604051602081830303815290604052906040516105f1919061162b565b60405180910390207bffffffffffffffffffffffffffffffffffffffffffffffffffffffff19166020820180517bffffffffffffffffffffffffffffffffffffffffffffffffffffffff83818316178352505050509050919050565b606060405160200161065e90611663565b604051602081830303815290604052905090565b60608282604051602401610687929190611473565b6040516020818303038152906040527fa9059cbb000000000000000000000000000000000000000000000000000000007bffffffffffffffffffffffffffffffffffffffffffffffffffffffff19166020820180517bffffffffffffffffffffffffffffffffffffffffffffffffffffffff8381831617835250505050905092915050565b606060016063604051602001610723929190611752565b604051602081830303815290604052905090565b5f86610778576040517f08c379a000000000000000000000000000000000000000000000000000000000815260040161076f906117e9565b60405180910390fd5b600986865f81811061078d5761078c611807565b5b90506020020135146107d4576040517f08c379a00000000000000000000000000000000000000000000000000000000081526004016107cb9061187e565b60405180910390fd5b6012868660018181106107ea576107e9611807565b5b9050602002013514610831576040517f08c379a00000000000000000000000000000000000000000000000000000000081526004016108289061187e565b60405180910390fd5b732ff1f4e5d08a822743ec6b342c521a0a421456cb73ffffffffffffffffffffffffffffffffffffffff168473ffffffffffffffffffffffffffffffffffffffff16146108b3576040517f08c379a00000000000000000000000000000000000000000000000000000000081526004016108aa906118e6565b60405180910390fd5b6040516020016108c29061194e565b6040516020818303038152906040528051906020012083836040516020016108eb929190611986565b6040516020818303038152906040528051906020012014610941576040517f08c379a0000000000000000000000000000000000000000000000000000000008152600401610938906119e8565b60405180910390fd5b600190509695505050505050565b60606001732ff1f4e5d08a822743ec6b342c521a0a421456cb604051602001610979929190611a06565b604051602081830303815290604052905090565b606060016040516020016109a19190611a40565b604051602081830303815290604052905090565b60606109c082610b6f565b6040516020016109d09190611aed565b6040516020818303038152906040529050919050565b6060732ff1f4e5d08a822743ec6b342c521a0a421456cb604051602001610a0d9190611b19565b604051602081830303815290604052905090565b606060405180606001604052806040518060400160405280600281526020017f313100000000000000000000000000000000000000000000000000000000000081525081526020016040518060400160405280600181526020017f320000000000000000000000000000000000000000000000000000000000000081525081526020016040518060400160405280600181526020017f3300000000000000000000000000000000000000000000000000000000000000815250815250604051602401610aed9190611c29565b6040516020818303038152906040527f7fa990b9000000000000000000000000000000000000000000000000000000007bffffffffffffffffffffffffffffffffffffffffffffffffffffffff19166020820180517bffffffffffffffffffffffffffffffffffffffffffffffffffffffff8381831617835250505050905090565b60605f6001610b7d84610c39565b0190505f8167ffffffffffffffff811115610b9b57610b9a6111ee565b5b6040519080825280601f01601f191660200182016040528015610bcd5781602001600182028036833780820191505090505b5090505f82602001820190505b600115610c2e578080600190039150507f3031323334353637383961626364656600000000000000000000000000000000600a86061a8153600a8581610c2357610c22611c49565b5b0494505f8503610bda575b819350505050919050565b5f805f90507a184f03e93ff9f4daa797ed6e38ed64bf6a1f0100000000000000008310610c95577a184f03e93ff9f4daa797ed6e38ed64bf6a1f0100000000000000008381610c8b57610c8a611c49565b5b0492506040810190505b6d04ee2d6d415b85acef81000000008310610cd2576d04ee2d6d415b85acef81000000008381610cc857610cc7611c49565b5b0492506020810190505b662386f26fc100008310610d0157662386f26fc100008381610cf757610cf6611c49565b5b0492506010810190505b6305f5e1008310610d2a576305f5e1008381610d2057610d1f611c49565b5b0492506008810190505b6127108310610d4f576127108381610d4557610d44611c49565b5b0492506004810190505b60648310610d725760648381610d6857610d67611c49565b5b0492506002810190505b600a8310610d81576001810190505b80915050919050565b5f604051905090565b5f80fd5b5f80fd5b5f80fd5b5f80fd5b5f80fd5b5f8083601f840112610dbc57610dbb610d9b565b5b8235905067ffffffffffffffff811115610dd957610dd8610d9f565b5b602083019150836001820283011115610df557610df4610da3565b5b9250929050565b5f8060208385031215610e1257610e11610d93565b5b5f83013567ffffffffffffffff811115610e2f57610e2e610d97565b5b610e3b85828601610da7565b92509250509250929050565b5f81519050919050565b5f82825260208201905092915050565b5f5b83811015610e7e578082015181840152602081019050610e63565b5f8484015250505050565b5f601f19601f8301169050919050565b5f610ea382610e47565b610ead8185610e51565b9350610ebd818560208601610e61565b610ec681610e89565b840191505092915050565b5f819050919050565b610ee381610ed1565b82525050565b5f73ffffffffffffffffffffffffffffffffffffffff82169050919050565b5f610f1282610ee9565b9050919050565b610f2281610f08565b82525050565b5f6060820190508181035f830152610f408186610e99565b9050610f4f6020830185610eda565b610f5c6040830184610f19565b949350505050565b610f6d81610f08565b8114610f77575f80fd5b50565b5f81359050610f8881610f64565b92915050565b610f9781610ed1565b8114610fa1575f80fd5b50565b5f81359050610fb281610f8e565b92915050565b5f8060408385031215610fce57610fcd610d93565b5b5f610fdb85828601610f7a565b9250506020610fec85828601610fa4565b9150509250929050565b5f81519050919050565b5f82825260208201905092915050565b5f61101a82610ff6565b6110248185611000565b9350611034818560208601610e61565b61103d81610e89565b840191505092915050565b5f6020820190508181035f8301526110608184611010565b905092915050565b5f8115159050919050565b61107c81611068565b8114611086575f80fd5b50565b5f8135905061109781611073565b92915050565b5f8083601f8401126110b2576110b1610d9b565b5b8235905067ffffffffffffffff8111156110cf576110ce610d9f565b5b6020830191508360208202830111156110eb576110ea610da3565b5b9250929050565b5f8083601f84011261110757611106610d9b565b5b8235905067ffffffffffffffff81111561112457611123610d9f565b5b6020830191508360018202830111156111405761113f610da3565b5b9250929050565b5f805f805f806080878903121561116157611160610d93565b5b5f61116e89828a01611089565b965050602087013567ffffffffffffffff81111561118f5761118e610d97565b5b61119b89828a0161109d565b955095505060406111ae89828a01610f7a565b935050606087013567ffffffffffffffff8111156111cf576111ce610d97565b5b6111db89828a016110f2565b92509250509295509295509295565b5f80fd5b7f4e487b71000000000000000000000000000000000000000000000000000000005f52604160045260245ffd5b61122482610e89565b810181811067ffffffffffffffff82111715611243576112426111ee565b5b80604052505050565b5f611255610d8a565b9050611261828261121b565b919050565b5f67ffffffffffffffff8211156112805761127f6111ee565b5b61128982610e89565b9050602081019050919050565b828183375f83830152505050565b5f6112b66112b184611266565b61124c565b9050828152602081018484840111156112d2576112d16111ea565b5b6112dd848285611296565b509392505050565b5f82601f8301126112f9576112f8610d9b565b5b81356113098482602086016112a4565b91505092915050565b5f6020828403121561132757611326610d93565b5b5f82013567ffffffffffffffff81111561134457611343610d97565b5b611350848285016112e5565b91505092915050565b61136281611068565b82525050565b5f60208201905061137b5f830184611359565b92915050565b5f6020828403121561139657611395610d93565b5b5f6113a384828501610fa4565b91505092915050565b5f6020820190508181035f8301526113c48184610e99565b905092915050565b5f6113d682610ee9565b9050919050565b6113e6816113cc565b81146113f0575f80fd5b50565b5f81359050611401816113dd565b92915050565b5f805f6060848603121561141e5761141d610d93565b5b5f84013567ffffffffffffffff81111561143b5761143a610d97565b5b611447868287016112e5565b935050602061145886828701610fa4565b9250506040611469868287016113f3565b9150509250925092565b5f6040820190506114865f830185610f19565b6114936020830184610eda565b9392505050565b5f81905092915050565b7f617070776f726b730000000000000000000000000000000000000000000000005f82015250565b5f6114d860088361149a565b91506114e3826114a4565b600882019050919050565b5f6114f8826114cc565b9150819050919050565b5f82825260208201905092915050565b5f80fd5b82818337505050565b5f61152a8385611502565b93507f07ffffffffffffffffffffffffffffffffffffffffffffffffffffffffffffff83111561155d5761155c611512565b5b60208302925061156e838584611516565b82840190509392505050565b5f6115858385610e51565b9350611592838584611296565b61159b83610e89565b840190509392505050565b5f6080820190506115b95f830189611359565b81810360208301526115cc81878961151f565b90506115db6040830186610f19565b81810360608301526115ee81848661157a565b9050979650505050505050565b5f61160582610e47565b61160f818561149a565b935061161f818560208601610e61565b80840191505092915050565b5f61163682846115fb565b915081905092915050565b5f61164d600883610e51565b9150611658826114a4565b602082019050919050565b5f6020820190508181035f83015261167a81611641565b9050919050565b5f819050919050565b5f60ff82169050919050565b5f819050919050565b5f6116b96116b46116af84611681565b611696565b61168a565b9050919050565b6116c98161169f565b82525050565b5f819050919050565b5f6116f26116ed6116e8846116cf565b611696565b61168a565b9050919050565b611702816116d8565b82525050565b7f6a696d00000000000000000000000000000000000000000000000000000000005f82015250565b5f61173c600383610e51565b915061174782611708565b602082019050919050565b5f6080820190508181035f83015261176981611641565b905061177860208301856116c0565b61178560408301846116f9565b818103606083015261179681611730565b90509392505050565b7f626f6f6c20706172616d6574657220636f72726563742e0000000000000000005f82015250565b5f6117d3601783610e51565b91506117de8261179f565b602082019050919050565b5f6020820190508181035f830152611800816117c7565b9050919050565b7f4e487b71000000000000000000000000000000000000000000000000000000005f52603260045260245ffd5b7f75696e7420617272617920706172616d6574657220636f72726563742e0000005f82015250565b5f611868601d83610e51565b915061187382611834565b602082019050919050565b5f6020820190508181035f8301526118958161185c565b9050919050565b7f6164647265737320706172616d6574657220636f72726563742e0000000000005f82015250565b5f6118d0601a83610e51565b91506118db8261189c565b602082019050919050565b5f6020820190508181035f8301526118fd816118c4565b9050919050565b7f427269616e0000000000000000000000000000000000000000000000000000005f82015250565b5f61193860058361149a565b915061194382611904565b600582019050919050565b5f6119588261192c565b9150819050919050565b5f61196d838561149a565b935061197a838584611296565b82840190509392505050565b5f611992828486611962565b91508190509392505050565b7f737472696e6720706172616d6574657220636f72726563742e000000000000005f82015250565b5f6119d2601983610e51565b91506119dd8261199e565b602082019050919050565b5f6020820190508181035f8301526119ff816119c6565b9050919050565b5f6060820190508181035f830152611a1d81611641565b9050611a2c60208301856116c0565b611a396040830184610f19565b9392505050565b5f602082019050611a535f8301846116c0565b92915050565b7f41424300000000000000000000000000000000000000000000000000000000005f82015250565b5f611a8d60038361149a565b9150611a9882611a59565b600382019050919050565b7f2e6a736f6e0000000000000000000000000000000000000000000000000000005f82015250565b5f611ad760058361149a565b9150611ae282611aa3565b600582019050919050565b5f611af782611a81565b9150611b0382846115fb565b9150611b0e82611acb565b915081905092915050565b5f602082019050611b2c5f830184610f19565b92915050565b5f60039050919050565b5f81905092915050565b5f819050919050565b5f82825260208201905092915050565b5f611b6982610e47565b611b738185611b4f565b9350611b83818560208601610e61565b611b8c81610e89565b840191505092915050565b5f611ba28383611b5f565b905092915050565b5f602082019050919050565b5f611bc082611b32565b611bca8185611b3c565b935083602082028501611bdc85611b46565b805f5b85811015611c175784840389528151611bf88582611b97565b9450611c0383611baa565b925060208a01995050600181019050611bdf565b50829750879550505050505092915050565b5f6020820190508181035f830152611c418184611bb6565b905092915050565b7f4e487b71000000000000000000000000000000000000000000000000000000005f52601260045260245ffdfea26469706673582212203a547700aed47ca1af4f9982afdf139333770a700a404086838e6cd25fe7212164736f6c63430008150033",
					"opcodes": "PUSH1 0x80 PUSH1 0x40 MSTORE CALLVALUE DUP1 ISZERO PUSH2 0xF JUMPI PUSH0 DUP1 REVERT JUMPDEST POP PUSH2 0x1CAC DUP1 PUSH2 0x1D PUSH0 CODECOPY PUSH0 RETURN INVALID PUSH1 0x80 PUSH1 0x40 MSTORE PUSH1 0x4 CALLDATASIZE LT PUSH2 0xEB JUMPI PUSH0 CALLDATALOAD PUSH1 0xE0 SHR DUP1 PUSH4 0x7E3B06FB GT PUSH2 0x89 JUMPI DUP1 PUSH4 0xC1ED13EF GT PUSH2 0x58 JUMPI DUP1 PUSH4 0xC1ED13EF EQ PUSH2 0x33C JUMPI DUP1 PUSH4 0xC87B56DD EQ PUSH2 0x366 JUMPI DUP1 PUSH4 0xCF57B6EB EQ PUSH2 0x3A2 JUMPI DUP1 PUSH4 0xD264610D EQ PUSH2 0x3CC JUMPI PUSH2 0xEC JUMP JUMPDEST DUP1 PUSH4 0x7E3B06FB EQ PUSH2 0x270 JUMPI DUP1 PUSH4 0x7FAEC262 EQ PUSH2 0x2AC JUMPI DUP1 PUSH4 0xAE53A4A5 EQ PUSH2 0x2D6 JUMPI DUP1 PUSH4 0xBD14598F EQ PUSH2 0x312 JUMPI PUSH2 0xEC JUMP JUMPDEST DUP1 PUSH4 0x4E10EFBA GT PUSH2 0xC5 JUMPI DUP1 PUSH4 0x4E10EFBA EQ PUSH2 0x192 JUMPI DUP1 PUSH4 0x5FC6AC0E EQ PUSH2 0x1CE JUMPI DUP1 PUSH4 0x6458817C EQ PUSH2 0x20A JUMPI DUP1 PUSH4 0x733E2F06 EQ PUSH2 0x246 JUMPI PUSH2 0xEC JUMP JUMPDEST DUP1 PUSH4 0x65FDAC2 EQ PUSH2 0xEE JUMPI DUP1 PUSH4 0x25ADFF1C EQ PUSH2 0x12C JUMPI DUP1 PUSH4 0x44D1587C EQ PUSH2 0x168 JUMPI PUSH2 0xEC JUMP JUMPDEST JUMPDEST STOP JUMPDEST CALLVALUE DUP1 ISZERO PUSH2 0xF9 JUMPI PUSH0 DUP1 REVERT JUMPDEST POP PUSH2 0x114 PUSH1 0x4 DUP1 CALLDATASIZE SUB DUP2 ADD SWAP1 PUSH2 0x10F SWAP2 SWAP1 PUSH2 0xDFC JUMP JUMPDEST PUSH2 0x3F6 JUMP JUMPDEST PUSH1 0x40 MLOAD PUSH2 0x123 SWAP4 SWAP3 SWAP2 SWAP1 PUSH2 0xF28 JUMP JUMPDEST PUSH1 0x40 MLOAD DUP1 SWAP2 SUB SWAP1 RETURN JUMPDEST CALLVALUE DUP1 ISZERO PUSH2 0x137 JUMPI PUSH0 DUP1 REVERT JUMPDEST POP PUSH2 0x152 PUSH1 0x4 DUP1 CALLDATASIZE SUB DUP2 ADD SWAP1 PUSH2 0x14D SWAP2 SWAP1 PUSH2 0xFB8 JUMP JUMPDEST PUSH2 0x41C JUMP JUMPDEST PUSH1 0x40 MLOAD PUSH2 0x15F SWAP2 SWAP1 PUSH2 0x1048 JUMP JUMPDEST PUSH1 0x40 MLOAD DUP1 SWAP2 SUB SWAP1 RETURN JUMPDEST CALLVALUE DUP1 ISZERO PUSH2 0x173 JUMPI PUSH0 DUP1 REVERT JUMPDEST POP PUSH2 0x17C PUSH2 0x47E JUMP JUMPDEST PUSH1 0x40 MLOAD PUSH2 0x189 SWAP2 SWAP1 PUSH2 0x1048 JUMP JUMPDEST PUSH1 0x40 MLOAD DUP1 SWAP2 SUB SWAP1 RETURN JUMPDEST CALLVALUE DUP1 ISZERO PUSH2 0x19D JUMPI PUSH0 DUP1 REVERT JUMPDEST POP PUSH2 0x1B8 PUSH1 0x4 DUP1 CALLDATASIZE SUB DUP2 ADD SWAP1 PUSH2 0x1B3 SWAP2 SWAP1 PUSH2 0x1147 JUMP JUMPDEST PUSH2 0x4A3 JUMP JUMPDEST PUSH1 0x40 MLOAD PUSH2 0x1C5 SWAP2 SWAP1 PUSH2 0x1048 JUMP JUMPDEST PUSH1 0x40 MLOAD DUP1 SWAP2 SUB SWAP1 RETURN JUMPDEST CALLVALUE DUP1 ISZERO PUSH2 0x1D9 JUMPI PUSH0 DUP1 REVERT JUMPDEST POP PUSH2 0x1F4 PUSH1 0x4 DUP1 CALLDATASIZE SUB DUP2 ADD SWAP1 PUSH2 0x1EF SWAP2 SWAP1 PUSH2 0xFB8 JUMP JUMPDEST PUSH2 0x549 JUMP JUMPDEST PUSH1 0x40 MLOAD PUSH2 0x201 SWAP2 SWAP1 PUSH2 0x1048 JUMP JUMPDEST PUSH1 0x40 MLOAD DUP1 SWAP2 SUB SWAP1 RETURN JUMPDEST CALLVALUE DUP1 ISZERO PUSH2 0x215 JUMPI PUSH0 DUP1 REVERT JUMPDEST POP PUSH2 0x230 PUSH1 0x4 DUP1 CALLDATASIZE SUB DUP2 ADD SWAP1 PUSH2 0x22B SWAP2 SWAP1 PUSH2 0x1312 JUMP JUMPDEST PUSH2 0x5CB JUMP JUMPDEST PUSH1 0x40 MLOAD PUSH2 0x23D SWAP2 SWAP1 PUSH2 0x1048 JUMP JUMPDEST PUSH1 0x40 MLOAD DUP1 SWAP2 SUB SWAP1 RETURN JUMPDEST CALLVALUE DUP1 ISZERO PUSH2 0x251 JUMPI PUSH0 DUP1 REVERT JUMPDEST POP PUSH2 0x25A PUSH2 0x64D JUMP JUMPDEST PUSH1 0x40 MLOAD PUSH2 0x267 SWAP2 SWAP1 PUSH2 0x1048 JUMP JUMPDEST PUSH1 0x40 MLOAD DUP1 SWAP2 SUB SWAP1 RETURN JUMPDEST CALLVALUE DUP1 ISZERO PUSH2 0x27B JUMPI PUSH0 DUP1 REVERT JUMPDEST POP PUSH2 0x296 PUSH1 0x4 DUP1 CALLDATASIZE SUB DUP2 ADD SWAP1 PUSH2 0x291 SWAP2 SWAP1 PUSH2 0xFB8 JUMP JUMPDEST PUSH2 0x672 JUMP JUMPDEST PUSH1 0x40 MLOAD PUSH2 0x2A3 SWAP2 SWAP1 PUSH2 0x1048 JUMP JUMPDEST PUSH1 0x40 MLOAD DUP1 SWAP2 SUB SWAP1 RETURN JUMPDEST CALLVALUE DUP1 ISZERO PUSH2 0x2B7 JUMPI PUSH0 DUP1 REVERT JUMPDEST POP PUSH2 0x2C0 PUSH2 0x70C JUMP JUMPDEST PUSH1 0x40 MLOAD PUSH2 0x2CD SWAP2 SWAP1 PUSH2 0x1048 JUMP JUMPDEST PUSH1 0x40 MLOAD DUP1 SWAP2 SUB SWAP1 RETURN JUMPDEST CALLVALUE DUP1 ISZERO PUSH2 0x2E1 JUMPI PUSH0 DUP1 REVERT JUMPDEST POP PUSH2 0x2FC PUSH1 0x4 DUP1 CALLDATASIZE SUB DUP2 ADD SWAP1 PUSH2 0x2F7 SWAP2 SWAP1 PUSH2 0x1147 JUMP JUMPDEST PUSH2 0x737 JUMP JUMPDEST PUSH1 0x40 MLOAD PUSH2 0x309 SWAP2 SWAP1 PUSH2 0x1368 JUMP JUMPDEST PUSH1 0x40 MLOAD DUP1 SWAP2 SUB SWAP1 RETURN JUMPDEST CALLVALUE DUP1 ISZERO PUSH2 0x31D JUMPI PUSH0 DUP1 REVERT JUMPDEST POP PUSH2 0x326 PUSH2 0x94F JUMP JUMPDEST PUSH1 0x40 MLOAD PUSH2 0x333 SWAP2 SWAP1 PUSH2 0x1048 JUMP JUMPDEST PUSH1 0x40 MLOAD DUP1 SWAP2 SUB SWAP1 RETURN JUMPDEST CALLVALUE DUP1 ISZERO PUSH2 0x347 JUMPI PUSH0 DUP1 REVERT JUMPDEST POP PUSH2 0x350 PUSH2 0x98D JUMP JUMPDEST PUSH1 0x40 MLOAD PUSH2 0x35D SWAP2 SWAP1 PUSH2 0x1048 JUMP JUMPDEST PUSH1 0x40 MLOAD DUP1 SWAP2 SUB SWAP1 RETURN JUMPDEST CALLVALUE DUP1 ISZERO PUSH2 0x371 JUMPI PUSH0 DUP1 REVERT JUMPDEST POP PUSH2 0x38C PUSH1 0x4 DUP1 CALLDATASIZE SUB DUP2 ADD SWAP1 PUSH2 0x387 SWAP2 SWAP1 PUSH2 0x1381 JUMP JUMPDEST PUSH2 0x9B5 JUMP JUMPDEST PUSH1 0x40 MLOAD PUSH2 0x399 SWAP2 SWAP1 PUSH2 0x13AC JUMP JUMPDEST PUSH1 0x40 MLOAD DUP1 SWAP2 SUB SWAP1 RETURN JUMPDEST CALLVALUE DUP1 ISZERO PUSH2 0x3AD JUMPI PUSH0 DUP1 REVERT JUMPDEST POP PUSH2 0x3B6 PUSH2 0x9E6 JUMP JUMPDEST PUSH1 0x40 MLOAD PUSH2 0x3C3 SWAP2 SWAP1 PUSH2 0x1048 JUMP JUMPDEST PUSH1 0x40 MLOAD DUP1 SWAP2 SUB SWAP1 RETURN JUMPDEST CALLVALUE DUP1 ISZERO PUSH2 0x3D7 JUMPI PUSH0 DUP1 REVERT JUMPDEST POP PUSH2 0x3E0 PUSH2 0xA21 JUMP JUMPDEST PUSH1 0x40 MLOAD PUSH2 0x3ED SWAP2 SWAP1 PUSH2 0x1048 JUMP JUMPDEST PUSH1 0x40 MLOAD DUP1 SWAP2 SUB SWAP1 RETURN JUMPDEST PUSH1 0x60 PUSH0 DUP1 DUP5 DUP5 DUP2 ADD SWAP1 PUSH2 0x409 SWAP2 SWAP1 PUSH2 0x1407 JUMP JUMPDEST DUP1 SWAP4 POP DUP2 SWAP5 POP DUP3 SWAP6 POP POP POP POP SWAP3 POP SWAP3 POP SWAP3 JUMP JUMPDEST PUSH1 0x60 DUP3 DUP3 PUSH1 0x40 MLOAD PUSH1 0x24 ADD PUSH2 0x431 SWAP3 SWAP2 SWAP1 PUSH2 0x1473 JUMP JUMPDEST PUSH1 0x40 MLOAD PUSH1 0x20 DUP2 DUP4 SUB SUB DUP2 MSTORE SWAP1 PUSH1 0x40 MSTORE PUSH4 0xA9059CBB PUSH1 0xE0 SHL PUSH1 0x20 DUP3 ADD DUP1 MLOAD PUSH28 0xFFFFFFFFFFFFFFFFFFFFFFFFFFFFFFFFFFFFFFFFFFFFFFFFFFFFFFFF DUP4 DUP2 DUP4 AND OR DUP4 MSTORE POP POP POP POP SWAP1 POP SWAP3 SWAP2 POP POP JUMP JUMPDEST PUSH1 0x60 PUSH1 0x40 MLOAD PUSH1 0x20 ADD PUSH2 0x48F SWAP1 PUSH2 0x14EE JUMP JUMPDEST PUSH1 0x40 MLOAD PUSH1 0x20 DUP2 DUP4 SUB SUB DUP2 MSTORE SWAP1 PUSH1 0x40 MSTORE SWAP1 POP SWAP1 JUMP JUMPDEST PUSH1 0x60 DUP7 DUP7 DUP7 DUP7 DUP7 DUP7 PUSH1 0x40 MLOAD PUSH1 0x24 ADD PUSH2 0x4C0 SWAP7 SWAP6 SWAP5 SWAP4 SWAP3 SWAP2 SWAP1 PUSH2 0x15A6 JUMP JUMPDEST PUSH1 0x40 MLOAD PUSH1 0x20 DUP2 DUP4 SUB SUB DUP2 MSTORE SWAP1 PUSH1 0x40 MSTORE PUSH32 0xAE53A4A500000000000000000000000000000000000000000000000000000000 PUSH28 0xFFFFFFFFFFFFFFFFFFFFFFFFFFFFFFFFFFFFFFFFFFFFFFFFFFFFFFFF NOT AND PUSH1 0x20 DUP3 ADD DUP1 MLOAD PUSH28 0xFFFFFFFFFFFFFFFFFFFFFFFFFFFFFFFFFFFFFFFFFFFFFFFFFFFFFFFF DUP4 DUP2 DUP4 AND OR DUP4 MSTORE POP POP POP POP SWAP1 POP SWAP7 SWAP6 POP POP POP POP POP POP JUMP JUMPDEST PUSH1 0x60 PUSH4 0xA9059CBB PUSH1 0xE0 SHL DUP4 DUP4 PUSH1 0x40 MLOAD PUSH1 0x24 ADD PUSH2 0x566 SWAP3 SWAP2 SWAP1 PUSH2 0x1473 JUMP JUMPDEST PUSH1 0x40 MLOAD PUSH1 0x20 DUP2 DUP4 SUB SUB DUP2 MSTORE SWAP1 PUSH1 0x40 MSTORE SWAP1 PUSH28 0xFFFFFFFFFFFFFFFFFFFFFFFFFFFFFFFFFFFFFFFFFFFFFFFFFFFFFFFF NOT AND PUSH1 0x20 DUP3 ADD DUP1 MLOAD PUSH28 0xFFFFFFFFFFFFFFFFFFFFFFFFFFFFFFFFFFFFFFFFFFFFFFFFFFFFFFFF DUP4 DUP2 DUP4 AND OR DUP4 MSTORE POP POP POP POP SWAP1 POP SWAP3 SWAP2 POP POP JUMP JUMPDEST PUSH1 0x60 DUP2 PUSH1 0x40 MLOAD PUSH1 0x24 ADD PUSH1 0x40 MLOAD PUSH1 0x20 DUP2 DUP4 SUB SUB DUP2 MSTORE SWAP1 PUSH1 0x40 MSTORE SWAP1 PUSH1 0x40 MLOAD PUSH2 0x5F1 SWAP2 SWAP1 PUSH2 0x162B JUMP JUMPDEST PUSH1 0x40 MLOAD DUP1 SWAP2 SUB SWAP1 KECCAK256 PUSH28 0xFFFFFFFFFFFFFFFFFFFFFFFFFFFFFFFFFFFFFFFFFFFFFFFFFFFFFFFF NOT AND PUSH1 0x20 DUP3 ADD DUP1 MLOAD PUSH28 0xFFFFFFFFFFFFFFFFFFFFFFFFFFFFFFFFFFFFFFFFFFFFFFFFFFFFFFFF DUP4 DUP2 DUP4 AND OR DUP4 MSTORE POP POP POP POP SWAP1 POP SWAP2 SWAP1 POP JUMP JUMPDEST PUSH1 0x60 PUSH1 0x40 MLOAD PUSH1 0x20 ADD PUSH2 0x65E SWAP1 PUSH2 0x1663 JUMP JUMPDEST PUSH1 0x40 MLOAD PUSH1 0x20 DUP2 DUP4 SUB SUB DUP2 MSTORE SWAP1 PUSH1 0x40 MSTORE SWAP1 POP SWAP1 JUMP JUMPDEST PUSH1 0x60 DUP3 DUP3 PUSH1 0x40 MLOAD PUSH1 0x24 ADD PUSH2 0x687 SWAP3 SWAP2 SWAP1 PUSH2 0x1473 JUMP JUMPDEST PUSH1 0x40 MLOAD PUSH1 0x20 DUP2 DUP4 SUB SUB DUP2 MSTORE SWAP1 PUSH1 0x40 MSTORE PUSH32 0xA9059CBB00000000000000000000000000000000000000000000000000000000 PUSH28 0xFFFFFFFFFFFFFFFFFFFFFFFFFFFFFFFFFFFFFFFFFFFFFFFFFFFFFFFF NOT AND PUSH1 0x20 DUP3 ADD DUP1 MLOAD PUSH28 0xFFFFFFFFFFFFFFFFFFFFFFFFFFFFFFFFFFFFFFFFFFFFFFFFFFFFFFFF DUP4 DUP2 DUP4 AND OR DUP4 MSTORE POP POP POP POP SWAP1 POP SWAP3 SWAP2 POP POP JUMP JUMPDEST PUSH1 0x60 PUSH1 0x1 PUSH1 0x63 PUSH1 0x40 MLOAD PUSH1 0x20 ADD PUSH2 0x723 SWAP3 SWAP2 SWAP1 PUSH2 0x1752 JUMP JUMPDEST PUSH1 0x40 MLOAD PUSH1 0x20 DUP2 DUP4 SUB SUB DUP2 MSTORE SWAP1 PUSH1 0x40 MSTORE SWAP1 POP SWAP1 JUMP JUMPDEST PUSH0 DUP7 PUSH2 0x778 JUMPI PUSH1 0x40 MLOAD PUSH32 0x8C379A000000000000000000000000000000000000000000000000000000000 DUP2 MSTORE PUSH1 0x4 ADD PUSH2 0x76F SWAP1 PUSH2 0x17E9 JUMP JUMPDEST PUSH1 0x40 MLOAD DUP1 SWAP2 SUB SWAP1 REVERT JUMPDEST PUSH1 0x9 DUP7 DUP7 PUSH0 DUP2 DUP2 LT PUSH2 0x78D JUMPI PUSH2 0x78C PUSH2 0x1807 JUMP JUMPDEST JUMPDEST SWAP1 POP PUSH1 0x20 MUL ADD CALLDATALOAD EQ PUSH2 0x7D4 JUMPI PUSH1 0x40 MLOAD PUSH32 0x8C379A000000000000000000000000000000000000000000000000000000000 DUP2 MSTORE PUSH1 0x4 ADD PUSH2 0x7CB SWAP1 PUSH2 0x187E JUMP JUMPDEST PUSH1 0x40 MLOAD DUP1 SWAP2 SUB SWAP1 REVERT JUMPDEST PUSH1 0x12 DUP7 DUP7 PUSH1 0x1 DUP2 DUP2 LT PUSH2 0x7EA JUMPI PUSH2 0x7E9 PUSH2 0x1807 JUMP JUMPDEST JUMPDEST SWAP1 POP PUSH1 0x20 MUL ADD CALLDATALOAD EQ PUSH2 0x831 JUMPI PUSH1 0x40 MLOAD PUSH32 0x8C379A000000000000000000000000000000000000000000000000000000000 DUP2 MSTORE PUSH1 0x4 ADD PUSH2 0x828 SWAP1 PUSH2 0x187E JUMP JUMPDEST PUSH1 0x40 MLOAD DUP1 SWAP2 SUB SWAP1 REVERT JUMPDEST PUSH20 0x2FF1F4E5D08A822743EC6B342C521A0A421456CB PUSH20 0xFFFFFFFFFFFFFFFFFFFFFFFFFFFFFFFFFFFFFFFF AND DUP5 PUSH20 0xFFFFFFFFFFFFFFFFFFFFFFFFFFFFFFFFFFFFFFFF AND EQ PUSH2 0x8B3 JUMPI PUSH1 0x40 MLOAD PUSH32 0x8C379A000000000000000000000000000000000000000000000000000000000 DUP2 MSTORE PUSH1 0x4 ADD PUSH2 0x8AA SWAP1 PUSH2 0x18E6 JUMP JUMPDEST PUSH1 0x40 MLOAD DUP1 SWAP2 SUB SWAP1 REVERT JUMPDEST PUSH1 0x40 MLOAD PUSH1 0x20 ADD PUSH2 0x8C2 SWAP1 PUSH2 0x194E JUMP JUMPDEST PUSH1 0x40 MLOAD PUSH1 0x20 DUP2 DUP4 SUB SUB DUP2 MSTORE SWAP1 PUSH1 0x40 MSTORE DUP1 MLOAD SWAP1 PUSH1 0x20 ADD KECCAK256 DUP4 DUP4 PUSH1 0x40 MLOAD PUSH1 0x20 ADD PUSH2 0x8EB SWAP3 SWAP2 SWAP1 PUSH2 0x1986 JUMP JUMPDEST PUSH1 0x40 MLOAD PUSH1 0x20 DUP2 DUP4 SUB SUB DUP2 MSTORE SWAP1 PUSH1 0x40 MSTORE DUP1 MLOAD SWAP1 PUSH1 0x20 ADD KECCAK256 EQ PUSH2 0x941 JUMPI PUSH1 0x40 MLOAD PUSH32 0x8C379A000000000000000000000000000000000000000000000000000000000 DUP2 MSTORE PUSH1 0x4 ADD PUSH2 0x938 SWAP1 PUSH2 0x19E8 JUMP JUMPDEST PUSH1 0x40 MLOAD DUP1 SWAP2 SUB SWAP1 REVERT JUMPDEST PUSH1 0x1 SWAP1 POP SWAP7 SWAP6 POP POP POP POP POP POP JUMP JUMPDEST PUSH1 0x60 PUSH1 0x1 PUSH20 0x2FF1F4E5D08A822743EC6B342C521A0A421456CB PUSH1 0x40 MLOAD PUSH1 0x20 ADD PUSH2 0x979 SWAP3 SWAP2 SWAP1 PUSH2 0x1A06 JUMP JUMPDEST PUSH1 0x40 MLOAD PUSH1 0x20 DUP2 DUP4 SUB SUB DUP2 MSTORE SWAP1 PUSH1 0x40 MSTORE SWAP1 POP SWAP1 JUMP JUMPDEST PUSH1 0x60 PUSH1 0x1 PUSH1 0x40 MLOAD PUSH1 0x20 ADD PUSH2 0x9A1 SWAP2 SWAP1 PUSH2 0x1A40 JUMP JUMPDEST PUSH1 0x40 MLOAD PUSH1 0x20 DUP2 DUP4 SUB SUB DUP2 MSTORE SWAP1 PUSH1 0x40 MSTORE SWAP1 POP SWAP1 JUMP JUMPDEST PUSH1 0x60 PUSH2 0x9C0 DUP3 PUSH2 0xB6F JUMP JUMPDEST PUSH1 0x40 MLOAD PUSH1 0x20 ADD PUSH2 0x9D0 SWAP2 SWAP1 PUSH2 0x1AED JUMP JUMPDEST PUSH1 0x40 MLOAD PUSH1 0x20 DUP2 DUP4 SUB SUB DUP2 MSTORE SWAP1 PUSH1 0x40 MSTORE SWAP1 POP SWAP2 SWAP1 POP JUMP JUMPDEST PUSH1 0x60 PUSH20 0x2FF1F4E5D08A822743EC6B342C521A0A421456CB PUSH1 0x40 MLOAD PUSH1 0x20 ADD PUSH2 0xA0D SWAP2 SWAP1 PUSH2 0x1B19 JUMP JUMPDEST PUSH1 0x40 MLOAD PUSH1 0x20 DUP2 DUP4 SUB SUB DUP2 MSTORE SWAP1 PUSH1 0x40 MSTORE SWAP1 POP SWAP1 JUMP JUMPDEST PUSH1 0x60 PUSH1 0x40 MLOAD DUP1 PUSH1 0x60 ADD PUSH1 0x40 MSTORE DUP1 PUSH1 0x40 MLOAD DUP1 PUSH1 0x40 ADD PUSH1 0x40 MSTORE DUP1 PUSH1 0x2 DUP2 MSTORE PUSH1 0x20 ADD PUSH32 0x3131000000000000000000000000000000000000000000000000000000000000 DUP2 MSTORE POP DUP2 MSTORE PUSH1 0x20 ADD PUSH1 0x40 MLOAD DUP1 PUSH1 0x40 ADD PUSH1 0x40 MSTORE DUP1 PUSH1 0x1 DUP2 MSTORE PUSH1 0x20 ADD PUSH32 0x3200000000000000000000000000000000000000000000000000000000000000 DUP2 MSTORE POP DUP2 MSTORE PUSH1 0x20 ADD PUSH1 0x40 MLOAD DUP1 PUSH1 0x40 ADD PUSH1 0x40 MSTORE DUP1 PUSH1 0x1 DUP2 MSTORE PUSH1 0x20 ADD PUSH32 0x3300000000000000000000000000000000000000000000000000000000000000 DUP2 MSTORE POP DUP2 MSTORE POP PUSH1 0x40 MLOAD PUSH1 0x24 ADD PUSH2 0xAED SWAP2 SWAP1 PUSH2 0x1C29 JUMP JUMPDEST PUSH1 0x40 MLOAD PUSH1 0x20 DUP2 DUP4 SUB SUB DUP2 MSTORE SWAP1 PUSH1 0x40 MSTORE PUSH32 0x7FA990B900000000000000000000000000000000000000000000000000000000 PUSH28 0xFFFFFFFFFFFFFFFFFFFFFFFFFFFFFFFFFFFFFFFFFFFFFFFFFFFFFFFF NOT AND PUSH1 0x20 DUP3 ADD DUP1 MLOAD PUSH28 0xFFFFFFFFFFFFFFFFFFFFFFFFFFFFFFFFFFFFFFFFFFFFFFFFFFFFFFFF DUP4 DUP2 DUP4 AND OR DUP4 MSTORE POP POP POP POP SWAP1 POP SWAP1 JUMP JUMPDEST PUSH1 0x60 PUSH0 PUSH1 0x1 PUSH2 0xB7D DUP5 PUSH2 0xC39 JUMP JUMPDEST ADD SWAP1 POP PUSH0 DUP2 PUSH8 0xFFFFFFFFFFFFFFFF DUP2 GT ISZERO PUSH2 0xB9B JUMPI PUSH2 0xB9A PUSH2 0x11EE JUMP JUMPDEST JUMPDEST PUSH1 0x40 MLOAD SWAP1 DUP1 DUP3 MSTORE DUP1 PUSH1 0x1F ADD PUSH1 0x1F NOT AND PUSH1 0x20 ADD DUP3 ADD PUSH1 0x40 MSTORE DUP1 ISZERO PUSH2 0xBCD JUMPI DUP2 PUSH1 0x20 ADD PUSH1 0x1 DUP3 MUL DUP1 CALLDATASIZE DUP4 CALLDATACOPY DUP1 DUP3 ADD SWAP2 POP POP SWAP1 POP JUMPDEST POP SWAP1 POP PUSH0 DUP3 PUSH1 0x20 ADD DUP3 ADD SWAP1 POP JUMPDEST PUSH1 0x1 ISZERO PUSH2 0xC2E JUMPI DUP1 DUP1 PUSH1 0x1 SWAP1 SUB SWAP2 POP POP PUSH32 0x3031323334353637383961626364656600000000000000000000000000000000 PUSH1 0xA DUP7 MOD BYTE DUP2 MSTORE8 PUSH1 0xA DUP6 DUP2 PUSH2 0xC23 JUMPI PUSH2 0xC22 PUSH2 0x1C49 JUMP JUMPDEST JUMPDEST DIV SWAP5 POP PUSH0 DUP6 SUB PUSH2 0xBDA JUMPI JUMPDEST DUP2 SWAP4 POP POP POP POP SWAP2 SWAP1 POP JUMP JUMPDEST PUSH0 DUP1 PUSH0 SWAP1 POP PUSH27 0x184F03E93FF9F4DAA797ED6E38ED64BF6A1F010000000000000000 DUP4 LT PUSH2 0xC95 JUMPI PUSH27 0x184F03E93FF9F4DAA797ED6E38ED64BF6A1F010000000000000000 DUP4 DUP2 PUSH2 0xC8B JUMPI PUSH2 0xC8A PUSH2 0x1C49 JUMP JUMPDEST JUMPDEST DIV SWAP3 POP PUSH1 0x40 DUP2 ADD SWAP1 POP JUMPDEST PUSH14 0x4EE2D6D415B85ACEF8100000000 DUP4 LT PUSH2 0xCD2 JUMPI PUSH14 0x4EE2D6D415B85ACEF8100000000 DUP4 DUP2 PUSH2 0xCC8 JUMPI PUSH2 0xCC7 PUSH2 0x1C49 JUMP JUMPDEST JUMPDEST DIV SWAP3 POP PUSH1 0x20 DUP2 ADD SWAP1 POP JUMPDEST PUSH7 0x2386F26FC10000 DUP4 LT PUSH2 0xD01 JUMPI PUSH7 0x2386F26FC10000 DUP4 DUP2 PUSH2 0xCF7 JUMPI PUSH2 0xCF6 PUSH2 0x1C49 JUMP JUMPDEST JUMPDEST DIV SWAP3 POP PUSH1 0x10 DUP2 ADD SWAP1 POP JUMPDEST PUSH4 0x5F5E100 DUP4 LT PUSH2 0xD2A JUMPI PUSH4 0x5F5E100 DUP4 DUP2 PUSH2 0xD20 JUMPI PUSH2 0xD1F PUSH2 0x1C49 JUMP JUMPDEST JUMPDEST DIV SWAP3 POP PUSH1 0x8 DUP2 ADD SWAP1 POP JUMPDEST PUSH2 0x2710 DUP4 LT PUSH2 0xD4F JUMPI PUSH2 0x2710 DUP4 DUP2 PUSH2 0xD45 JUMPI PUSH2 0xD44 PUSH2 0x1C49 JUMP JUMPDEST JUMPDEST DIV SWAP3 POP PUSH1 0x4 DUP2 ADD SWAP1 POP JUMPDEST PUSH1 0x64 DUP4 LT PUSH2 0xD72 JUMPI PUSH1 0x64 DUP4 DUP2 PUSH2 0xD68 JUMPI PUSH2 0xD67 PUSH2 0x1C49 JUMP JUMPDEST JUMPDEST DIV SWAP3 POP PUSH1 0x2 DUP2 ADD SWAP1 POP JUMPDEST PUSH1 0xA DUP4 LT PUSH2 0xD81 JUMPI PUSH1 0x1 DUP2 ADD SWAP1 POP JUMPDEST DUP1 SWAP2 POP POP SWAP2 SWAP1 POP JUMP JUMPDEST PUSH0 PUSH1 0x40 MLOAD SWAP1 POP SWAP1 JUMP JUMPDEST PUSH0 DUP1 REVERT JUMPDEST PUSH0 DUP1 REVERT JUMPDEST PUSH0 DUP1 REVERT JUMPDEST PUSH0 DUP1 REVERT JUMPDEST PUSH0 DUP1 REVERT JUMPDEST PUSH0 DUP1 DUP4 PUSH1 0x1F DUP5 ADD SLT PUSH2 0xDBC JUMPI PUSH2 0xDBB PUSH2 0xD9B JUMP JUMPDEST JUMPDEST DUP3 CALLDATALOAD SWAP1 POP PUSH8 0xFFFFFFFFFFFFFFFF DUP2 GT ISZERO PUSH2 0xDD9 JUMPI PUSH2 0xDD8 PUSH2 0xD9F JUMP JUMPDEST JUMPDEST PUSH1 0x20 DUP4 ADD SWAP2 POP DUP4 PUSH1 0x1 DUP3 MUL DUP4 ADD GT ISZERO PUSH2 0xDF5 JUMPI PUSH2 0xDF4 PUSH2 0xDA3 JUMP JUMPDEST JUMPDEST SWAP3 POP SWAP3 SWAP1 POP JUMP JUMPDEST PUSH0 DUP1 PUSH1 0x20 DUP4 DUP6 SUB SLT ISZERO PUSH2 0xE12 JUMPI PUSH2 0xE11 PUSH2 0xD93 JUMP JUMPDEST JUMPDEST PUSH0 DUP4 ADD CALLDATALOAD PUSH8 0xFFFFFFFFFFFFFFFF DUP2 GT ISZERO PUSH2 0xE2F JUMPI PUSH2 0xE2E PUSH2 0xD97 JUMP JUMPDEST JUMPDEST PUSH2 0xE3B DUP6 DUP3 DUP7 ADD PUSH2 0xDA7 JUMP JUMPDEST SWAP3 POP SWAP3 POP POP SWAP3 POP SWAP3 SWAP1 POP JUMP JUMPDEST PUSH0 DUP2 MLOAD SWAP1 POP SWAP2 SWAP1 POP JUMP JUMPDEST PUSH0 DUP3 DUP3 MSTORE PUSH1 0x20 DUP3 ADD SWAP1 POP SWAP3 SWAP2 POP POP JUMP JUMPDEST PUSH0 JUMPDEST DUP4 DUP2 LT ISZERO PUSH2 0xE7E JUMPI DUP1 DUP3 ADD MLOAD DUP2 DUP5 ADD MSTORE PUSH1 0x20 DUP2 ADD SWAP1 POP PUSH2 0xE63 JUMP JUMPDEST PUSH0 DUP5 DUP5 ADD MSTORE POP POP POP POP JUMP JUMPDEST PUSH0 PUSH1 0x1F NOT PUSH1 0x1F DUP4 ADD AND SWAP1 POP SWAP2 SWAP1 POP JUMP JUMPDEST PUSH0 PUSH2 0xEA3 DUP3 PUSH2 0xE47 JUMP JUMPDEST PUSH2 0xEAD DUP2 DUP6 PUSH2 0xE51 JUMP JUMPDEST SWAP4 POP PUSH2 0xEBD DUP2 DUP6 PUSH1 0x20 DUP7 ADD PUSH2 0xE61 JUMP JUMPDEST PUSH2 0xEC6 DUP2 PUSH2 0xE89 JUMP JUMPDEST DUP5 ADD SWAP2 POP POP SWAP3 SWAP2 POP POP JUMP JUMPDEST PUSH0 DUP2 SWAP1 POP SWAP2 SWAP1 POP JUMP JUMPDEST PUSH2 0xEE3 DUP2 PUSH2 0xED1 JUMP JUMPDEST DUP3 MSTORE POP POP JUMP JUMPDEST PUSH0 PUSH20 0xFFFFFFFFFFFFFFFFFFFFFFFFFFFFFFFFFFFFFFFF DUP3 AND SWAP1 POP SWAP2 SWAP1 POP JUMP JUMPDEST PUSH0 PUSH2 0xF12 DUP3 PUSH2 0xEE9 JUMP JUMPDEST SWAP1 POP SWAP2 SWAP1 POP JUMP JUMPDEST PUSH2 0xF22 DUP2 PUSH2 0xF08 JUMP JUMPDEST DUP3 MSTORE POP POP JUMP JUMPDEST PUSH0 PUSH1 0x60 DUP3 ADD SWAP1 POP DUP2 DUP2 SUB PUSH0 DUP4 ADD MSTORE PUSH2 0xF40 DUP2 DUP7 PUSH2 0xE99 JUMP JUMPDEST SWAP1 POP PUSH2 0xF4F PUSH1 0x20 DUP4 ADD DUP6 PUSH2 0xEDA JUMP JUMPDEST PUSH2 0xF5C PUSH1 0x40 DUP4 ADD DUP5 PUSH2 0xF19 JUMP JUMPDEST SWAP5 SWAP4 POP POP POP POP JUMP JUMPDEST PUSH2 0xF6D DUP2 PUSH2 0xF08 JUMP JUMPDEST DUP2 EQ PUSH2 0xF77 JUMPI PUSH0 DUP1 REVERT JUMPDEST POP JUMP JUMPDEST PUSH0 DUP2 CALLDATALOAD SWAP1 POP PUSH2 0xF88 DUP2 PUSH2 0xF64 JUMP JUMPDEST SWAP3 SWAP2 POP POP JUMP JUMPDEST PUSH2 0xF97 DUP2 PUSH2 0xED1 JUMP JUMPDEST DUP2 EQ PUSH2 0xFA1 JUMPI PUSH0 DUP1 REVERT JUMPDEST POP JUMP JUMPDEST PUSH0 DUP2 CALLDATALOAD SWAP1 POP PUSH2 0xFB2 DUP2 PUSH2 0xF8E JUMP JUMPDEST SWAP3 SWAP2 POP POP JUMP JUMPDEST PUSH0 DUP1 PUSH1 0x40 DUP4 DUP6 SUB SLT ISZERO PUSH2 0xFCE JUMPI PUSH2 0xFCD PUSH2 0xD93 JUMP JUMPDEST JUMPDEST PUSH0 PUSH2 0xFDB DUP6 DUP3 DUP7 ADD PUSH2 0xF7A JUMP JUMPDEST SWAP3 POP POP PUSH1 0x20 PUSH2 0xFEC DUP6 DUP3 DUP7 ADD PUSH2 0xFA4 JUMP JUMPDEST SWAP2 POP POP SWAP3 POP SWAP3 SWAP1 POP JUMP JUMPDEST PUSH0 DUP2 MLOAD SWAP1 POP SWAP2 SWAP1 POP JUMP JUMPDEST PUSH0 DUP3 DUP3 MSTORE PUSH1 0x20 DUP3 ADD SWAP1 POP SWAP3 SWAP2 POP POP JUMP JUMPDEST PUSH0 PUSH2 0x101A DUP3 PUSH2 0xFF6 JUMP JUMPDEST PUSH2 0x1024 DUP2 DUP6 PUSH2 0x1000 JUMP JUMPDEST SWAP4 POP PUSH2 0x1034 DUP2 DUP6 PUSH1 0x20 DUP7 ADD PUSH2 0xE61 JUMP JUMPDEST PUSH2 0x103D DUP2 PUSH2 0xE89 JUMP JUMPDEST DUP5 ADD SWAP2 POP POP SWAP3 SWAP2 POP POP JUMP JUMPDEST PUSH0 PUSH1 0x20 DUP3 ADD SWAP1 POP DUP2 DUP2 SUB PUSH0 DUP4 ADD MSTORE PUSH2 0x1060 DUP2 DUP5 PUSH2 0x1010 JUMP JUMPDEST SWAP1 POP SWAP3 SWAP2 POP POP JUMP JUMPDEST PUSH0 DUP2 ISZERO ISZERO SWAP1 POP SWAP2 SWAP1 POP JUMP JUMPDEST PUSH2 0x107C DUP2 PUSH2 0x1068 JUMP JUMPDEST DUP2 EQ PUSH2 0x1086 JUMPI PUSH0 DUP1 REVERT JUMPDEST POP JUMP JUMPDEST PUSH0 DUP2 CALLDATALOAD SWAP1 POP PUSH2 0x1097 DUP2 PUSH2 0x1073 JUMP JUMPDEST SWAP3 SWAP2 POP POP JUMP JUMPDEST PUSH0 DUP1 DUP4 PUSH1 0x1F DUP5 ADD SLT PUSH2 0x10B2 JUMPI PUSH2 0x10B1 PUSH2 0xD9B JUMP JUMPDEST JUMPDEST DUP3 CALLDATALOAD SWAP1 POP PUSH8 0xFFFFFFFFFFFFFFFF DUP2 GT ISZERO PUSH2 0x10CF JUMPI PUSH2 0x10CE PUSH2 0xD9F JUMP JUMPDEST JUMPDEST PUSH1 0x20 DUP4 ADD SWAP2 POP DUP4 PUSH1 0x20 DUP3 MUL DUP4 ADD GT ISZERO PUSH2 0x10EB JUMPI PUSH2 0x10EA PUSH2 0xDA3 JUMP JUMPDEST JUMPDEST SWAP3 POP SWAP3 SWAP1 POP JUMP JUMPDEST PUSH0 DUP1 DUP4 PUSH1 0x1F DUP5 ADD SLT PUSH2 0x1107 JUMPI PUSH2 0x1106 PUSH2 0xD9B JUMP JUMPDEST JUMPDEST DUP3 CALLDATALOAD SWAP1 POP PUSH8 0xFFFFFFFFFFFFFFFF DUP2 GT ISZERO PUSH2 0x1124 JUMPI PUSH2 0x1123 PUSH2 0xD9F JUMP JUMPDEST JUMPDEST PUSH1 0x20 DUP4 ADD SWAP2 POP DUP4 PUSH1 0x1 DUP3 MUL DUP4 ADD GT ISZERO PUSH2 0x1140 JUMPI PUSH2 0x113F PUSH2 0xDA3 JUMP JUMPDEST JUMPDEST SWAP3 POP SWAP3 SWAP1 POP JUMP JUMPDEST PUSH0 DUP1 PUSH0 DUP1 PUSH0 DUP1 PUSH1 0x80 DUP8 DUP10 SUB SLT ISZERO PUSH2 0x1161 JUMPI PUSH2 0x1160 PUSH2 0xD93 JUMP JUMPDEST JUMPDEST PUSH0 PUSH2 0x116E DUP10 DUP3 DUP11 ADD PUSH2 0x1089 JUMP JUMPDEST SWAP7 POP POP PUSH1 0x20 DUP8 ADD CALLDATALOAD PUSH8 0xFFFFFFFFFFFFFFFF DUP2 GT ISZERO PUSH2 0x118F JUMPI PUSH2 0x118E PUSH2 0xD97 JUMP JUMPDEST JUMPDEST PUSH2 0x119B DUP10 DUP3 DUP11 ADD PUSH2 0x109D JUMP JUMPDEST SWAP6 POP SWAP6 POP POP PUSH1 0x40 PUSH2 0x11AE DUP10 DUP3 DUP11 ADD PUSH2 0xF7A JUMP JUMPDEST SWAP4 POP POP PUSH1 0x60 DUP8 ADD CALLDATALOAD PUSH8 0xFFFFFFFFFFFFFFFF DUP2 GT ISZERO PUSH2 0x11CF JUMPI PUSH2 0x11CE PUSH2 0xD97 JUMP JUMPDEST JUMPDEST PUSH2 0x11DB DUP10 DUP3 DUP11 ADD PUSH2 0x10F2 JUMP JUMPDEST SWAP3 POP SWAP3 POP POP SWAP3 SWAP6 POP SWAP3 SWAP6 POP SWAP3 SWAP6 JUMP JUMPDEST PUSH0 DUP1 REVERT JUMPDEST PUSH32 0x4E487B7100000000000000000000000000000000000000000000000000000000 PUSH0 MSTORE PUSH1 0x41 PUSH1 0x4 MSTORE PUSH1 0x24 PUSH0 REVERT JUMPDEST PUSH2 0x1224 DUP3 PUSH2 0xE89 JUMP JUMPDEST DUP2 ADD DUP2 DUP2 LT PUSH8 0xFFFFFFFFFFFFFFFF DUP3 GT OR ISZERO PUSH2 0x1243 JUMPI PUSH2 0x1242 PUSH2 0x11EE JUMP JUMPDEST JUMPDEST DUP1 PUSH1 0x40 MSTORE POP POP POP JUMP JUMPDEST PUSH0 PUSH2 0x1255 PUSH2 0xD8A JUMP JUMPDEST SWAP1 POP PUSH2 0x1261 DUP3 DUP3 PUSH2 0x121B JUMP JUMPDEST SWAP2 SWAP1 POP JUMP JUMPDEST PUSH0 PUSH8 0xFFFFFFFFFFFFFFFF DUP3 GT ISZERO PUSH2 0x1280 JUMPI PUSH2 0x127F PUSH2 0x11EE JUMP JUMPDEST JUMPDEST PUSH2 0x1289 DUP3 PUSH2 0xE89 JUMP JUMPDEST SWAP1 POP PUSH1 0x20 DUP2 ADD SWAP1 POP SWAP2 SWAP1 POP JUMP JUMPDEST DUP3 DUP2 DUP4 CALLDATACOPY PUSH0 DUP4 DUP4 ADD MSTORE POP POP POP JUMP JUMPDEST PUSH0 PUSH2 0x12B6 PUSH2 0x12B1 DUP5 PUSH2 0x1266 JUMP JUMPDEST PUSH2 0x124C JUMP JUMPDEST SWAP1 POP DUP3 DUP2 MSTORE PUSH1 0x20 DUP2 ADD DUP5 DUP5 DUP5 ADD GT ISZERO PUSH2 0x12D2 JUMPI PUSH2 0x12D1 PUSH2 0x11EA JUMP JUMPDEST JUMPDEST PUSH2 0x12DD DUP5 DUP3 DUP6 PUSH2 0x1296 JUMP JUMPDEST POP SWAP4 SWAP3 POP POP POP JUMP JUMPDEST PUSH0 DUP3 PUSH1 0x1F DUP4 ADD SLT PUSH2 0x12F9 JUMPI PUSH2 0x12F8 PUSH2 0xD9B JUMP JUMPDEST JUMPDEST DUP2 CALLDATALOAD PUSH2 0x1309 DUP5 DUP3 PUSH1 0x20 DUP7 ADD PUSH2 0x12A4 JUMP JUMPDEST SWAP2 POP POP SWAP3 SWAP2 POP POP JUMP JUMPDEST PUSH0 PUSH1 0x20 DUP3 DUP5 SUB SLT ISZERO PUSH2 0x1327 JUMPI PUSH2 0x1326 PUSH2 0xD93 JUMP JUMPDEST JUMPDEST PUSH0 DUP3 ADD CALLDATALOAD PUSH8 0xFFFFFFFFFFFFFFFF DUP2 GT ISZERO PUSH2 0x1344 JUMPI PUSH2 0x1343 PUSH2 0xD97 JUMP JUMPDEST JUMPDEST PUSH2 0x1350 DUP5 DUP3 DUP6 ADD PUSH2 0x12E5 JUMP JUMPDEST SWAP2 POP POP SWAP3 SWAP2 POP POP JUMP JUMPDEST PUSH2 0x1362 DUP2 PUSH2 0x1068 JUMP JUMPDEST DUP3 MSTORE POP POP JUMP JUMPDEST PUSH0 PUSH1 0x20 DUP3 ADD SWAP1 POP PUSH2 0x137B PUSH0 DUP4 ADD DUP5 PUSH2 0x1359 JUMP JUMPDEST SWAP3 SWAP2 POP POP JUMP JUMPDEST PUSH0 PUSH1 0x20 DUP3 DUP5 SUB SLT ISZERO PUSH2 0x1396 JUMPI PUSH2 0x1395 PUSH2 0xD93 JUMP JUMPDEST JUMPDEST PUSH0 PUSH2 0x13A3 DUP5 DUP3 DUP6 ADD PUSH2 0xFA4 JUMP JUMPDEST SWAP2 POP POP SWAP3 SWAP2 POP POP JUMP JUMPDEST PUSH0 PUSH1 0x20 DUP3 ADD SWAP1 POP DUP2 DUP2 SUB PUSH0 DUP4 ADD MSTORE PUSH2 0x13C4 DUP2 DUP5 PUSH2 0xE99 JUMP JUMPDEST SWAP1 POP SWAP3 SWAP2 POP POP JUMP JUMPDEST PUSH0 PUSH2 0x13D6 DUP3 PUSH2 0xEE9 JUMP JUMPDEST SWAP1 POP SWAP2 SWAP1 POP JUMP JUMPDEST PUSH2 0x13E6 DUP2 PUSH2 0x13CC JUMP JUMPDEST DUP2 EQ PUSH2 0x13F0 JUMPI PUSH0 DUP1 REVERT JUMPDEST POP JUMP JUMPDEST PUSH0 DUP2 CALLDATALOAD SWAP1 POP PUSH2 0x1401 DUP2 PUSH2 0x13DD JUMP JUMPDEST SWAP3 SWAP2 POP POP JUMP JUMPDEST PUSH0 DUP1 PUSH0 PUSH1 0x60 DUP5 DUP7 SUB SLT ISZERO PUSH2 0x141E JUMPI PUSH2 0x141D PUSH2 0xD93 JUMP JUMPDEST JUMPDEST PUSH0 DUP5 ADD CALLDATALOAD PUSH8 0xFFFFFFFFFFFFFFFF DUP2 GT ISZERO PUSH2 0x143B JUMPI PUSH2 0x143A PUSH2 0xD97 JUMP JUMPDEST JUMPDEST PUSH2 0x1447 DUP7 DUP3 DUP8 ADD PUSH2 0x12E5 JUMP JUMPDEST SWAP4 POP POP PUSH1 0x20 PUSH2 0x1458 DUP7 DUP3 DUP8 ADD PUSH2 0xFA4 JUMP JUMPDEST SWAP3 POP POP PUSH1 0x40 PUSH2 0x1469 DUP7 DUP3 DUP8 ADD PUSH2 0x13F3 JUMP JUMPDEST SWAP2 POP POP SWAP3 POP SWAP3 POP SWAP3 JUMP JUMPDEST PUSH0 PUSH1 0x40 DUP3 ADD SWAP1 POP PUSH2 0x1486 PUSH0 DUP4 ADD DUP6 PUSH2 0xF19 JUMP JUMPDEST PUSH2 0x1493 PUSH1 0x20 DUP4 ADD DUP5 PUSH2 0xEDA JUMP JUMPDEST SWAP4 SWAP3 POP POP POP JUMP JUMPDEST PUSH0 DUP2 SWAP1 POP SWAP3 SWAP2 POP POP JUMP JUMPDEST PUSH32 0x617070776F726B73000000000000000000000000000000000000000000000000 PUSH0 DUP3 ADD MSTORE POP JUMP JUMPDEST PUSH0 PUSH2 0x14D8 PUSH1 0x8 DUP4 PUSH2 0x149A JUMP JUMPDEST SWAP2 POP PUSH2 0x14E3 DUP3 PUSH2 0x14A4 JUMP JUMPDEST PUSH1 0x8 DUP3 ADD SWAP1 POP SWAP2 SWAP1 POP JUMP JUMPDEST PUSH0 PUSH2 0x14F8 DUP3 PUSH2 0x14CC JUMP JUMPDEST SWAP2 POP DUP2 SWAP1 POP SWAP2 SWAP1 POP JUMP JUMPDEST PUSH0 DUP3 DUP3 MSTORE PUSH1 0x20 DUP3 ADD SWAP1 POP SWAP3 SWAP2 POP POP JUMP JUMPDEST PUSH0 DUP1 REVERT JUMPDEST DUP3 DUP2 DUP4 CALLDATACOPY POP POP POP JUMP JUMPDEST PUSH0 PUSH2 0x152A DUP4 DUP6 PUSH2 0x1502 JUMP JUMPDEST SWAP4 POP PUSH32 0x7FFFFFFFFFFFFFFFFFFFFFFFFFFFFFFFFFFFFFFFFFFFFFFFFFFFFFFFFFFFFFF DUP4 GT ISZERO PUSH2 0x155D JUMPI PUSH2 0x155C PUSH2 0x1512 JUMP JUMPDEST JUMPDEST PUSH1 0x20 DUP4 MUL SWAP3 POP PUSH2 0x156E DUP4 DUP6 DUP5 PUSH2 0x1516 JUMP JUMPDEST DUP3 DUP5 ADD SWAP1 POP SWAP4 SWAP3 POP POP POP JUMP JUMPDEST PUSH0 PUSH2 0x1585 DUP4 DUP6 PUSH2 0xE51 JUMP JUMPDEST SWAP4 POP PUSH2 0x1592 DUP4 DUP6 DUP5 PUSH2 0x1296 JUMP JUMPDEST PUSH2 0x159B DUP4 PUSH2 0xE89 JUMP JUMPDEST DUP5 ADD SWAP1 POP SWAP4 SWAP3 POP POP POP JUMP JUMPDEST PUSH0 PUSH1 0x80 DUP3 ADD SWAP1 POP PUSH2 0x15B9 PUSH0 DUP4 ADD DUP10 PUSH2 0x1359 JUMP JUMPDEST DUP2 DUP2 SUB PUSH1 0x20 DUP4 ADD MSTORE PUSH2 0x15CC DUP2 DUP8 DUP10 PUSH2 0x151F JUMP JUMPDEST SWAP1 POP PUSH2 0x15DB PUSH1 0x40 DUP4 ADD DUP7 PUSH2 0xF19 JUMP JUMPDEST DUP2 DUP2 SUB PUSH1 0x60 DUP4 ADD MSTORE PUSH2 0x15EE DUP2 DUP5 DUP7 PUSH2 0x157A JUMP JUMPDEST SWAP1 POP SWAP8 SWAP7 POP POP POP POP POP POP POP JUMP JUMPDEST PUSH0 PUSH2 0x1605 DUP3 PUSH2 0xE47 JUMP JUMPDEST PUSH2 0x160F DUP2 DUP6 PUSH2 0x149A JUMP JUMPDEST SWAP4 POP PUSH2 0x161F DUP2 DUP6 PUSH1 0x20 DUP7 ADD PUSH2 0xE61 JUMP JUMPDEST DUP1 DUP5 ADD SWAP2 POP POP SWAP3 SWAP2 POP POP JUMP JUMPDEST PUSH0 PUSH2 0x1636 DUP3 DUP5 PUSH2 0x15FB JUMP JUMPDEST SWAP2 POP DUP2 SWAP1 POP SWAP3 SWAP2 POP POP JUMP JUMPDEST PUSH0 PUSH2 0x164D PUSH1 0x8 DUP4 PUSH2 0xE51 JUMP JUMPDEST SWAP2 POP PUSH2 0x1658 DUP3 PUSH2 0x14A4 JUMP JUMPDEST PUSH1 0x20 DUP3 ADD SWAP1 POP SWAP2 SWAP1 POP JUMP JUMPDEST PUSH0 PUSH1 0x20 DUP3 ADD SWAP1 POP DUP2 DUP2 SUB PUSH0 DUP4 ADD MSTORE PUSH2 0x167A DUP2 PUSH2 0x1641 JUMP JUMPDEST SWAP1 POP SWAP2 SWAP1 POP JUMP JUMPDEST PUSH0 DUP2 SWAP1 POP SWAP2 SWAP1 POP JUMP JUMPDEST PUSH0 PUSH1 0xFF DUP3 AND SWAP1 POP SWAP2 SWAP1 POP JUMP JUMPDEST PUSH0 DUP2 SWAP1 POP SWAP2 SWAP1 POP JUMP JUMPDEST PUSH0 PUSH2 0x16B9 PUSH2 0x16B4 PUSH2 0x16AF DUP5 PUSH2 0x1681 JUMP JUMPDEST PUSH2 0x1696 JUMP JUMPDEST PUSH2 0x168A JUMP JUMPDEST SWAP1 POP SWAP2 SWAP1 POP JUMP JUMPDEST PUSH2 0x16C9 DUP2 PUSH2 0x169F JUMP JUMPDEST DUP3 MSTORE POP POP JUMP JUMPDEST PUSH0 DUP2 SWAP1 POP SWAP2 SWAP1 POP JUMP JUMPDEST PUSH0 PUSH2 0x16F2 PUSH2 0x16ED PUSH2 0x16E8 DUP5 PUSH2 0x16CF JUMP JUMPDEST PUSH2 0x1696 JUMP JUMPDEST PUSH2 0x168A JUMP JUMPDEST SWAP1 POP SWAP2 SWAP1 POP JUMP JUMPDEST PUSH2 0x1702 DUP2 PUSH2 0x16D8 JUMP JUMPDEST DUP3 MSTORE POP POP JUMP JUMPDEST PUSH32 0x6A696D0000000000000000000000000000000000000000000000000000000000 PUSH0 DUP3 ADD MSTORE POP JUMP JUMPDEST PUSH0 PUSH2 0x173C PUSH1 0x3 DUP4 PUSH2 0xE51 JUMP JUMPDEST SWAP2 POP PUSH2 0x1747 DUP3 PUSH2 0x1708 JUMP JUMPDEST PUSH1 0x20 DUP3 ADD SWAP1 POP SWAP2 SWAP1 POP JUMP JUMPDEST PUSH0 PUSH1 0x80 DUP3 ADD SWAP1 POP DUP2 DUP2 SUB PUSH0 DUP4 ADD MSTORE PUSH2 0x1769 DUP2 PUSH2 0x1641 JUMP JUMPDEST SWAP1 POP PUSH2 0x1778 PUSH1 0x20 DUP4 ADD DUP6 PUSH2 0x16C0 JUMP JUMPDEST PUSH2 0x1785 PUSH1 0x40 DUP4 ADD DUP5 PUSH2 0x16F9 JUMP JUMPDEST DUP2 DUP2 SUB PUSH1 0x60 DUP4 ADD MSTORE PUSH2 0x1796 DUP2 PUSH2 0x1730 JUMP JUMPDEST SWAP1 POP SWAP4 SWAP3 POP POP POP JUMP JUMPDEST PUSH32 0x626F6F6C20706172616D6574657220636F72726563742E000000000000000000 PUSH0 DUP3 ADD MSTORE POP JUMP JUMPDEST PUSH0 PUSH2 0x17D3 PUSH1 0x17 DUP4 PUSH2 0xE51 JUMP JUMPDEST SWAP2 POP PUSH2 0x17DE DUP3 PUSH2 0x179F JUMP JUMPDEST PUSH1 0x20 DUP3 ADD SWAP1 POP SWAP2 SWAP1 POP JUMP JUMPDEST PUSH0 PUSH1 0x20 DUP3 ADD SWAP1 POP DUP2 DUP2 SUB PUSH0 DUP4 ADD MSTORE PUSH2 0x1800 DUP2 PUSH2 0x17C7 JUMP JUMPDEST SWAP1 POP SWAP2 SWAP1 POP JUMP JUMPDEST PUSH32 0x4E487B7100000000000000000000000000000000000000000000000000000000 PUSH0 MSTORE PUSH1 0x32 PUSH1 0x4 MSTORE PUSH1 0x24 PUSH0 REVERT JUMPDEST PUSH32 0x75696E7420617272617920706172616D6574657220636F72726563742E000000 PUSH0 DUP3 ADD MSTORE POP JUMP JUMPDEST PUSH0 PUSH2 0x1868 PUSH1 0x1D DUP4 PUSH2 0xE51 JUMP JUMPDEST SWAP2 POP PUSH2 0x1873 DUP3 PUSH2 0x1834 JUMP JUMPDEST PUSH1 0x20 DUP3 ADD SWAP1 POP SWAP2 SWAP1 POP JUMP JUMPDEST PUSH0 PUSH1 0x20 DUP3 ADD SWAP1 POP DUP2 DUP2 SUB PUSH0 DUP4 ADD MSTORE PUSH2 0x1895 DUP2 PUSH2 0x185C JUMP JUMPDEST SWAP1 POP SWAP2 SWAP1 POP JUMP JUMPDEST PUSH32 0x6164647265737320706172616D6574657220636F72726563742E000000000000 PUSH0 DUP3 ADD MSTORE POP JUMP JUMPDEST PUSH0 PUSH2 0x18D0 PUSH1 0x1A DUP4 PUSH2 0xE51 JUMP JUMPDEST SWAP2 POP PUSH2 0x18DB DUP3 PUSH2 0x189C JUMP JUMPDEST PUSH1 0x20 DUP3 ADD SWAP1 POP SWAP2 SWAP1 POP JUMP JUMPDEST PUSH0 PUSH1 0x20 DUP3 ADD SWAP1 POP DUP2 DUP2 SUB PUSH0 DUP4 ADD MSTORE PUSH2 0x18FD DUP2 PUSH2 0x18C4 JUMP JUMPDEST SWAP1 POP SWAP2 SWAP1 POP JUMP JUMPDEST PUSH32 0x427269616E000000000000000000000000000000000000000000000000000000 PUSH0 DUP3 ADD MSTORE POP JUMP JUMPDEST PUSH0 PUSH2 0x1938 PUSH1 0x5 DUP4 PUSH2 0x149A JUMP JUMPDEST SWAP2 POP PUSH2 0x1943 DUP3 PUSH2 0x1904 JUMP JUMPDEST PUSH1 0x5 DUP3 ADD SWAP1 POP SWAP2 SWAP1 POP JUMP JUMPDEST PUSH0 PUSH2 0x1958 DUP3 PUSH2 0x192C JUMP JUMPDEST SWAP2 POP DUP2 SWAP1 POP SWAP2 SWAP1 POP JUMP JUMPDEST PUSH0 PUSH2 0x196D DUP4 DUP6 PUSH2 0x149A JUMP JUMPDEST SWAP4 POP PUSH2 0x197A DUP4 DUP6 DUP5 PUSH2 0x1296 JUMP JUMPDEST DUP3 DUP5 ADD SWAP1 POP SWAP4 SWAP3 POP POP POP JUMP JUMPDEST PUSH0 PUSH2 0x1992 DUP3 DUP5 DUP7 PUSH2 0x1962 JUMP JUMPDEST SWAP2 POP DUP2 SWAP1 POP SWAP4 SWAP3 POP POP POP JUMP JUMPDEST PUSH32 0x737472696E6720706172616D6574657220636F72726563742E00000000000000 PUSH0 DUP3 ADD MSTORE POP JUMP JUMPDEST PUSH0 PUSH2 0x19D2 PUSH1 0x19 DUP4 PUSH2 0xE51 JUMP JUMPDEST SWAP2 POP PUSH2 0x19DD DUP3 PUSH2 0x199E JUMP JUMPDEST PUSH1 0x20 DUP3 ADD SWAP1 POP SWAP2 SWAP1 POP JUMP JUMPDEST PUSH0 PUSH1 0x20 DUP3 ADD SWAP1 POP DUP2 DUP2 SUB PUSH0 DUP4 ADD MSTORE PUSH2 0x19FF DUP2 PUSH2 0x19C6 JUMP JUMPDEST SWAP1 POP SWAP2 SWAP1 POP JUMP JUMPDEST PUSH0 PUSH1 0x60 DUP3 ADD SWAP1 POP DUP2 DUP2 SUB PUSH0 DUP4 ADD MSTORE PUSH2 0x1A1D DUP2 PUSH2 0x1641 JUMP JUMPDEST SWAP1 POP PUSH2 0x1A2C PUSH1 0x20 DUP4 ADD DUP6 PUSH2 0x16C0 JUMP JUMPDEST PUSH2 0x1A39 PUSH1 0x40 DUP4 ADD DUP5 PUSH2 0xF19 JUMP JUMPDEST SWAP4 SWAP3 POP POP POP JUMP JUMPDEST PUSH0 PUSH1 0x20 DUP3 ADD SWAP1 POP PUSH2 0x1A53 PUSH0 DUP4 ADD DUP5 PUSH2 0x16C0 JUMP JUMPDEST SWAP3 SWAP2 POP POP JUMP JUMPDEST PUSH32 0x4142430000000000000000000000000000000000000000000000000000000000 PUSH0 DUP3 ADD MSTORE POP JUMP JUMPDEST PUSH0 PUSH2 0x1A8D PUSH1 0x3 DUP4 PUSH2 0x149A JUMP JUMPDEST SWAP2 POP PUSH2 0x1A98 DUP3 PUSH2 0x1A59 JUMP JUMPDEST PUSH1 0x3 DUP3 ADD SWAP1 POP SWAP2 SWAP1 POP JUMP JUMPDEST PUSH32 0x2E6A736F6E000000000000000000000000000000000000000000000000000000 PUSH0 DUP3 ADD MSTORE POP JUMP JUMPDEST PUSH0 PUSH2 0x1AD7 PUSH1 0x5 DUP4 PUSH2 0x149A JUMP JUMPDEST SWAP2 POP PUSH2 0x1AE2 DUP3 PUSH2 0x1AA3 JUMP JUMPDEST PUSH1 0x5 DUP3 ADD SWAP1 POP SWAP2 SWAP1 POP JUMP JUMPDEST PUSH0 PUSH2 0x1AF7 DUP3 PUSH2 0x1A81 JUMP JUMPDEST SWAP2 POP PUSH2 0x1B03 DUP3 DUP5 PUSH2 0x15FB JUMP JUMPDEST SWAP2 POP PUSH2 0x1B0E DUP3 PUSH2 0x1ACB JUMP JUMPDEST SWAP2 POP DUP2 SWAP1 POP SWAP3 SWAP2 POP POP JUMP JUMPDEST PUSH0 PUSH1 0x20 DUP3 ADD SWAP1 POP PUSH2 0x1B2C PUSH0 DUP4 ADD DUP5 PUSH2 0xF19 JUMP JUMPDEST SWAP3 SWAP2 POP POP JUMP JUMPDEST PUSH0 PUSH1 0x3 SWAP1 POP SWAP2 SWAP1 POP JUMP JUMPDEST PUSH0 DUP2 SWAP1 POP SWAP3 SWAP2 POP POP JUMP JUMPDEST PUSH0 DUP2 SWAP1 POP SWAP2 SWAP1 POP JUMP JUMPDEST PUSH0 DUP3 DUP3 MSTORE PUSH1 0x20 DUP3 ADD SWAP1 POP SWAP3 SWAP2 POP POP JUMP JUMPDEST PUSH0 PUSH2 0x1B69 DUP3 PUSH2 0xE47 JUMP JUMPDEST PUSH2 0x1B73 DUP2 DUP6 PUSH2 0x1B4F JUMP JUMPDEST SWAP4 POP PUSH2 0x1B83 DUP2 DUP6 PUSH1 0x20 DUP7 ADD PUSH2 0xE61 JUMP JUMPDEST PUSH2 0x1B8C DUP2 PUSH2 0xE89 JUMP JUMPDEST DUP5 ADD SWAP2 POP POP SWAP3 SWAP2 POP POP JUMP JUMPDEST PUSH0 PUSH2 0x1BA2 DUP4 DUP4 PUSH2 0x1B5F JUMP JUMPDEST SWAP1 POP SWAP3 SWAP2 POP POP JUMP JUMPDEST PUSH0 PUSH1 0x20 DUP3 ADD SWAP1 POP SWAP2 SWAP1 POP JUMP JUMPDEST PUSH0 PUSH2 0x1BC0 DUP3 PUSH2 0x1B32 JUMP JUMPDEST PUSH2 0x1BCA DUP2 DUP6 PUSH2 0x1B3C JUMP JUMPDEST SWAP4 POP DUP4 PUSH1 0x20 DUP3 MUL DUP6 ADD PUSH2 0x1BDC DUP6 PUSH2 0x1B46 JUMP JUMPDEST DUP1 PUSH0 JUMPDEST DUP6 DUP2 LT ISZERO PUSH2 0x1C17 JUMPI DUP5 DUP5 SUB DUP10 MSTORE DUP2 MLOAD PUSH2 0x1BF8 DUP6 DUP3 PUSH2 0x1B97 JUMP JUMPDEST SWAP5 POP PUSH2 0x1C03 DUP4 PUSH2 0x1BAA JUMP JUMPDEST SWAP3 POP PUSH1 0x20 DUP11 ADD SWAP10 POP POP PUSH1 0x1 DUP2 ADD SWAP1 POP PUSH2 0x1BDF JUMP JUMPDEST POP DUP3 SWAP8 POP DUP8 SWAP6 POP POP POP POP POP POP SWAP3 SWAP2 POP POP JUMP JUMPDEST PUSH0 PUSH1 0x20 DUP3 ADD SWAP1 POP DUP2 DUP2 SUB PUSH0 DUP4 ADD MSTORE PUSH2 0x1C41 DUP2 DUP5 PUSH2 0x1BB6 JUMP JUMPDEST SWAP1 POP SWAP3 SWAP2 POP POP JUMP JUMPDEST PUSH32 0x4E487B7100000000000000000000000000000000000000000000000000000000 PUSH0 MSTORE PUSH1 0x12 PUSH1 0x4 MSTORE PUSH1 0x24 PUSH0 REVERT INVALID LOG2 PUSH5 0x6970667358 0x22 SLT KECCAK256 GASPRICE SLOAD PUSH24 0xAED47CA1AF4F9982AFDF139333770A700A404086838E6C 0xD2 PUSH0 0xE7 0x21 0x21 PUSH5 0x736F6C6343 STOP ADDMOD ISZERO STOP CALLER "
				},
				"gasEstimates": {
					"creation": {
						"codeDepositCost": "1468000",
						"executionCost": "1532",
						"totalCost": "1469532"
					},
					"external": {
						"": "174",
						"AppWorks(bool,uint256[],address,string)": "infinite",
						"encode()": "infinite",
						"encodeAddress()": "infinite",
						"encodeAppworks()": "infinite",
						"encodeCall(address,uint256)": "infinite",
						"encodeFunSelector(string)": "infinite",
						"encodeOne()": "infinite",
						"encodePackedAppworks()": "infinite",
						"encodePackedAppworksV2()": "infinite",
						"encodeWithSelector(address,uint256)": "infinite",
						"encodeWithSignature(address,uint256)": "infinite",
						"encodeWithSignatureAppWorks(bool,uint256[],address,string)": "infinite",
						"encodeWithSignatureSchool()": "infinite",
						"testABIDecode(bytes)": "infinite",
						"tokenURI(uint256)": "infinite"
					}
				},
				"methodIdentifiers": {
					"AppWorks(bool,uint256[],address,string)": "ae53a4a5",
					"encode()": "bd14598f",
					"encodeAddress()": "cf57b6eb",
					"encodeAppworks()": "733e2f06",
					"encodeCall(address,uint256)": "25adff1c",
					"encodeFunSelector(string)": "6458817c",
					"encodeOne()": "c1ed13ef",
					"encodePackedAppworks()": "44d1587c",
					"encodePackedAppworksV2()": "7faec262",
					"encodeWithSelector(address,uint256)": "5fc6ac0e",
					"encodeWithSignature(address,uint256)": "7e3b06fb",
					"encodeWithSignatureAppWorks(bool,uint256[],address,string)": "4e10efba",
					"encodeWithSignatureSchool()": "d264610d",
					"testABIDecode(bytes)": "065fdac2",
					"tokenURI(uint256)": "c87b56dd"
				}
			},
			"storageLayout": {
				"storage": [],
				"types": null
			},
			"userdoc": {
				"kind": "user",
				"methods": {},
				"version": 1
			}
		}
	}
}