{
	"week5/testABIEncode.sol": {
		"TestEncode": {
			"abi": [
				{
					"inputs": [
						{
							"internalType": "bool",
							"name": "b",
							"type": "bool"
						},
						{
							"internalType": "uint256[]",
							"name": "arrUint",
							"type": "uint256[]"
						},
						{
							"internalType": "address",
							"name": "a",
							"type": "address"
						},
						{
							"internalType": "string",
							"name": "array",
							"type": "string"
						}
					],
					"name": "AppWorks",
					"outputs": [],
					"stateMutability": "nonpayable",
					"type": "function"
				},
				{
					"inputs": [],
					"name": "encode",
					"outputs": [
						{
							"internalType": "bytes",
							"name": "",
							"type": "bytes"
						}
					],
					"stateMutability": "pure",
					"type": "function"
				},
				{
					"inputs": [],
					"name": "encodeAddress",
					"outputs": [
						{
							"internalType": "bytes",
							"name": "",
							"type": "bytes"
						}
					],
					"stateMutability": "pure",
					"type": "function"
				},
				{
					"inputs": [
						{
							"internalType": "bool",
							"name": "b",
							"type": "bool"
						},
						{
							"internalType": "uint256[]",
							"name": "arrUint",
							"type": "uint256[]"
						},
						{
							"internalType": "address",
							"name": "a",
							"type": "address"
						},
						{
							"internalType": "string",
							"name": "array",
							"type": "string"
						}
					],
					"name": "encodeAppWorks",
					"outputs": [
						{
							"internalType": "bytes",
							"name": "",
							"type": "bytes"
						}
					],
					"stateMutability": "pure",
					"type": "function"
				},
				{
					"inputs": [],
					"name": "encodeAppworks",
					"outputs": [
						{
							"internalType": "bytes",
							"name": "",
							"type": "bytes"
						}
					],
					"stateMutability": "pure",
					"type": "function"
				},
				{
					"inputs": [
						{
							"internalType": "address",
							"name": "to",
							"type": "address"
						},
						{
							"internalType": "uint256",
							"name": "amount",
							"type": "uint256"
						}
					],
					"name": "encodeCall",
					"outputs": [
						{
							"internalType": "bytes",
							"name": "",
							"type": "bytes"
						}
					],
					"stateMutability": "pure",
					"type": "function"
				},
				{
					"inputs": [
						{
							"internalType": "string",
							"name": "s",
							"type": "string"
						}
					],
					"name": "encodeFunSelector",
					"outputs": [
						{
							"internalType": "bytes",
							"name": "",
							"type": "bytes"
						}
					],
					"stateMutability": "pure",
					"type": "function"
				},
				{
					"inputs": [],
					"name": "encodeOne",
					"outputs": [
						{
							"internalType": "bytes",
							"name": "",
							"type": "bytes"
						}
					],
					"stateMutability": "pure",
					"type": "function"
				},
				{
					"inputs": [],
					"name": "encodePackedAppworks",
					"outputs": [
						{
							"internalType": "bytes",
							"name": "",
							"type": "bytes"
						}
					],
					"stateMutability": "pure",
					"type": "function"
				},
				{
					"inputs": [],
					"name": "encodePackedAppworksV2",
					"outputs": [
						{
							"internalType": "bytes",
							"name": "",
							"type": "bytes"
						}
					],
					"stateMutability": "pure",
					"type": "function"
				},
				{
					"inputs": [
						{
							"internalType": "address",
							"name": "to",
							"type": "address"
						},
						{
							"internalType": "uint256",
							"name": "amount",
							"type": "uint256"
						}
					],
					"name": "encodeWithSelector",
					"outputs": [
						{
							"internalType": "bytes",
							"name": "",
							"type": "bytes"
						}
					],
					"stateMutability": "pure",
					"type": "function"
				},
				{
					"inputs": [
						{
							"internalType": "address",
							"name": "to",
							"type": "address"
						},
						{
							"internalType": "uint256",
							"name": "amount",
							"type": "uint256"
						}
					],
					"name": "encodeWithSignature",
					"outputs": [
						{
							"internalType": "bytes",
							"name": "",
							"type": "bytes"
						}
					],
					"stateMutability": "pure",
					"type": "function"
				},
				{
					"inputs": [
						{
							"internalType": "bool",
							"name": "b",
							"type": "bool"
						},
						{
							"internalType": "uint256[]",
							"name": "arrUint",
							"type": "uint256[]"
						},
						{
							"internalType": "address",
							"name": "a",
							"type": "address"
						},
						{
							"internalType": "string",
							"name": "array",
							"type": "string"
						}
					],
					"name": "encodeWithSignatureAppWorks",
					"outputs": [
						{
							"internalType": "bytes",
							"name": "",
							"type": "bytes"
						}
					],
					"stateMutability": "pure",
					"type": "function"
				},
				{
					"inputs": [
						{
							"internalType": "bytes",
							"name": "data",
							"type": "bytes"
						}
					],
					"name": "testABIDecode",
					"outputs": [
						{
							"internalType": "string",
							"name": "arr",
							"type": "string"
						},
						{
							"internalType": "uint256",
							"name": "u",
							"type": "uint256"
						},
						{
							"internalType": "address",
							"name": "a",
							"type": "address"
						}
					],
					"stateMutability": "pure",
					"type": "function"
				}
			],
			"devdoc": {
				"kind": "dev",
				"methods": {},
				"version": 1
			},
			"evm": {
				"assembly": "    /* \"week5/testABIEncode.sol\":56:4022  contract TestEncode {... */\n  mstore(0x40, 0x80)\n  callvalue\n  dup1\n  iszero\n  tag_1\n  jumpi\n  0x00\n  dup1\n  revert\ntag_1:\n  pop\n  dataSize(sub_0)\n  dup1\n  dataOffset(sub_0)\n  0x00\n  codecopy\n  0x00\n  return\nstop\n\nsub_0: assembly {\n        /* \"week5/testABIEncode.sol\":56:4022  contract TestEncode {... */\n      mstore(0x40, 0x80)\n      callvalue\n      dup1\n      iszero\n      tag_1\n      jumpi\n      0x00\n      dup1\n      revert\n    tag_1:\n      pop\n      jumpi(tag_2, lt(calldatasize, 0x04))\n      shr(0xe0, calldataload(0x00))\n      dup1\n      0x733e2f06\n      gt\n      tag_17\n      jumpi\n      dup1\n      0xae53a4a5\n      gt\n      tag_18\n      jumpi\n      dup1\n      0xae53a4a5\n      eq\n      tag_13\n      jumpi\n      dup1\n      0xbd14598f\n      eq\n      tag_14\n      jumpi\n      dup1\n      0xc1ed13ef\n      eq\n      tag_15\n      jumpi\n      dup1\n      0xcf57b6eb\n      eq\n      tag_16\n      jumpi\n      jump(tag_2)\n    tag_18:\n      dup1\n      0x733e2f06\n      eq\n      tag_10\n      jumpi\n      dup1\n      0x7e3b06fb\n      eq\n      tag_11\n      jumpi\n      dup1\n      0x7faec262\n      eq\n      tag_12\n      jumpi\n      jump(tag_2)\n    tag_17:\n      dup1\n      0x44d1587c\n      gt\n      tag_19\n      jumpi\n      dup1\n      0x44d1587c\n      eq\n      tag_6\n      jumpi\n      dup1\n      0x4e10efba\n      eq\n      tag_7\n      jumpi\n      dup1\n      0x5fc6ac0e\n      eq\n      tag_8\n      jumpi\n      dup1\n      0x6458817c\n      eq\n      tag_9\n      jumpi\n      jump(tag_2)\n    tag_19:\n      dup1\n      0x065fdac2\n      eq\n      tag_3\n      jumpi\n      dup1\n      0x25adff1c\n      eq\n      tag_4\n      jumpi\n      dup1\n      0x37ac0c7d\n      eq\n      tag_5\n      jumpi\n    tag_2:\n      0x00\n      dup1\n      revert\n        /* \"week5/testABIEncode.sol\":1987:2162  function testABIDecode(bytes calldata data) external pure returns (string memory arr,uint256 u,address a) {... */\n    tag_3:\n      tag_20\n      0x04\n      dup1\n      calldatasize\n      sub\n      dup2\n      add\n      swap1\n      tag_21\n      swap2\n      swap1\n      tag_22\n      jump\t// in\n    tag_21:\n      tag_23\n      jump\t// in\n    tag_20:\n      mload(0x40)\n      tag_24\n      swap4\n      swap3\n      swap2\n      swap1\n      tag_25\n      jump\t// in\n    tag_24:\n      mload(0x40)\n      dup1\n      swap2\n      sub\n      swap1\n      return\n        /* \"week5/testABIEncode.sol\":2817:3017  function encodeCall(address to, uint amount) external pure returns (bytes memory) {... */\n    tag_4:\n      tag_26\n      0x04\n      dup1\n      calldatasize\n      sub\n      dup2\n      add\n      swap1\n      tag_27\n      swap2\n      swap1\n      tag_28\n      jump\t// in\n    tag_27:\n      tag_29\n      jump\t// in\n    tag_26:\n      mload(0x40)\n      tag_30\n      swap2\n      swap1\n      tag_31\n      jump\t// in\n    tag_30:\n      mload(0x40)\n      dup1\n      swap2\n      sub\n      swap1\n      return\n        /* \"week5/testABIEncode.sol\":3091:3382  function encodeAppWorks(... */\n    tag_5:\n      tag_32\n      0x04\n      dup1\n      calldatasize\n      sub\n      dup2\n      add\n      swap1\n      tag_33\n      swap2\n      swap1\n      tag_34\n      jump\t// in\n    tag_33:\n      tag_35\n      jump\t// in\n    tag_32:\n      mload(0x40)\n      tag_36\n      swap2\n      swap1\n      tag_31\n      jump\t// in\n    tag_36:\n      mload(0x40)\n      dup1\n      swap2\n      sub\n      swap1\n      return\n        /* \"week5/testABIEncode.sol\":834:953  function encodePackedAppworks() external pure returns (bytes memory) {... */\n    tag_6:\n      tag_37\n      tag_38\n      jump\t// in\n    tag_37:\n      mload(0x40)\n      tag_39\n      swap2\n      swap1\n      tag_31\n      jump\t// in\n    tag_39:\n      mload(0x40)\n      dup1\n      swap2\n      sub\n      swap1\n      return\n        /* \"week5/testABIEncode.sol\":3388:3674  function encodeWithSignatureAppWorks(... */\n    tag_7:\n      tag_40\n      0x04\n      dup1\n      calldatasize\n      sub\n      dup2\n      add\n      swap1\n      tag_41\n      swap2\n      swap1\n      tag_34\n      jump\t// in\n    tag_41:\n      tag_42\n      jump\t// in\n    tag_40:\n      mload(0x40)\n      tag_43\n      swap2\n      swap1\n      tag_31\n      jump\t// in\n    tag_43:\n      mload(0x40)\n      dup1\n      swap2\n      sub\n      swap1\n      return\n        /* \"week5/testABIEncode.sol\":2541:2811  function encodeWithSelector(... */\n    tag_8:\n      tag_44\n      0x04\n      dup1\n      calldatasize\n      sub\n      dup2\n      add\n      swap1\n      tag_45\n      swap2\n      swap1\n      tag_28\n      jump\t// in\n    tag_45:\n      tag_46\n      jump\t// in\n    tag_44:\n      mload(0x40)\n      tag_47\n      swap2\n      swap1\n      tag_31\n      jump\t// in\n    tag_47:\n      mload(0x40)\n      dup1\n      swap2\n      sub\n      swap1\n      return\n        /* \"week5/testABIEncode.sol\":3681:3810  function encodeFunSelector(string memory s) external pure returns (bytes memory) {... */\n    tag_9:\n      tag_48\n      0x04\n      dup1\n      calldatasize\n      sub\n      dup2\n      add\n      swap1\n      tag_49\n      swap2\n      swap1\n      tag_50\n      jump\t// in\n    tag_49:\n      tag_51\n      jump\t// in\n    tag_48:\n      mload(0x40)\n      tag_52\n      swap2\n      swap1\n      tag_31\n      jump\t// in\n    tag_52:\n      mload(0x40)\n      dup1\n      swap2\n      sub\n      swap1\n      return\n        /* \"week5/testABIEncode.sol\":233:340  function encodeAppworks() external pure returns (bytes memory) {... */\n    tag_10:\n      tag_53\n      tag_54\n      jump\t// in\n    tag_53:\n      mload(0x40)\n      tag_55\n      swap2\n      swap1\n      tag_31\n      jump\t// in\n    tag_55:\n      mload(0x40)\n      dup1\n      swap2\n      sub\n      swap1\n      return\n        /* \"week5/testABIEncode.sol\":2275:2535  function encodeWithSignature(... */\n    tag_11:\n      tag_56\n      0x04\n      dup1\n      calldatasize\n      sub\n      dup2\n      add\n      swap1\n      tag_57\n      swap2\n      swap1\n      tag_28\n      jump\t// in\n    tag_57:\n      tag_58\n      jump\t// in\n    tag_56:\n      mload(0x40)\n      tag_59\n      swap2\n      swap1\n      tag_31\n      jump\t// in\n    tag_59:\n      mload(0x40)\n      dup1\n      swap2\n      sub\n      swap1\n      return\n        /* \"week5/testABIEncode.sol\":959:1738  function encodePackedAppworksV2() external pure returns (bytes memory) {... */\n    tag_12:\n      tag_60\n      tag_61\n      jump\t// in\n    tag_60:\n      mload(0x40)\n      tag_62\n      swap2\n      swap1\n      tag_31\n      jump\t// in\n    tag_62:\n      mload(0x40)\n      dup1\n      swap2\n      sub\n      swap1\n      return\n        /* \"week5/testABIEncode.sol\":2168:2269  function AppWorks(bool b,uint256[] calldata arrUint,address a,string calldata array) external {... */\n    tag_13:\n      tag_63\n      0x04\n      dup1\n      calldatasize\n      sub\n      dup2\n      add\n      swap1\n      tag_64\n      swap2\n      swap1\n      tag_34\n      jump\t// in\n    tag_64:\n      tag_65\n      jump\t// in\n    tag_63:\n      stop\n        /* \"week5/testABIEncode.sol\":83:227  function encode() external pure returns (bytes memory) {... */\n    tag_14:\n      tag_66\n      tag_67\n      jump\t// in\n    tag_66:\n      mload(0x40)\n      tag_68\n      swap2\n      swap1\n      tag_31\n      jump\t// in\n    tag_68:\n      mload(0x40)\n      dup1\n      swap2\n      sub\n      swap1\n      return\n        /* \"week5/testABIEncode.sol\":1744:1837  function encodeOne() external pure returns (bytes memory) {... */\n    tag_15:\n      tag_69\n      tag_70\n      jump\t// in\n    tag_69:\n      mload(0x40)\n      tag_71\n      swap2\n      swap1\n      tag_31\n      jump\t// in\n    tag_71:\n      mload(0x40)\n      dup1\n      swap2\n      sub\n      swap1\n      return\n        /* \"week5/testABIEncode.sol\":1843:1981  function encodeAddress() external pure returns (bytes memory) {... */\n    tag_16:\n      tag_72\n      tag_73\n      jump\t// in\n    tag_72:\n      mload(0x40)\n      tag_74\n      swap2\n      swap1\n      tag_31\n      jump\t// in\n    tag_74:\n      mload(0x40)\n      dup1\n      swap2\n      sub\n      swap1\n      return\n        /* \"week5/testABIEncode.sol\":1987:2162  function testABIDecode(bytes calldata data) external pure returns (string memory arr,uint256 u,address a) {... */\n    tag_23:\n        /* \"week5/testABIEncode.sol\":2054:2071  string memory arr */\n      0x60\n        /* \"week5/testABIEncode.sol\":2072:2081  uint256 u */\n      0x00\n        /* \"week5/testABIEncode.sol\":2082:2091  address a */\n      dup1\n        /* \"week5/testABIEncode.sol\":2124:2128  data */\n      dup5\n      dup5\n        /* \"week5/testABIEncode.sol\":2113:2155  abi.decode(data, (string,uint256,address)) */\n      dup2\n      add\n      swap1\n      tag_76\n      swap2\n      swap1\n      tag_77\n      jump\t// in\n    tag_76:\n        /* \"week5/testABIEncode.sol\":2101:2155  (arr,u,a) = abi.decode(data, (string,uint256,address)) */\n      dup1\n      swap4\n      pop\n      dup2\n      swap5\n      pop\n      dup3\n      swap6\n      pop\n      pop\n      pop\n      pop\n        /* \"week5/testABIEncode.sol\":1987:2162  function testABIDecode(bytes calldata data) external pure returns (string memory arr,uint256 u,address a) {... */\n      swap3\n      pop\n      swap3\n      pop\n      swap3\n      jump\t// out\n        /* \"week5/testABIEncode.sol\":2817:3017  function encodeCall(address to, uint amount) external pure returns (bytes memory) {... */\n    tag_29:\n        /* \"week5/testABIEncode.sol\":2885:2897  bytes memory */\n      0x60\n        /* \"week5/testABIEncode.sol\":2998:3000  to */\n      dup3\n        /* \"week5/testABIEncode.sol\":3002:3008  amount */\n      dup3\n        /* \"week5/testABIEncode.sol\":2965:3010  abi.encodeCall(IERC20.transfer, (to, amount)) */\n      add(0x24, mload(0x40))\n      tag_79\n      swap3\n      swap2\n      swap1\n      tag_80\n      jump\t// in\n    tag_79:\n      mload(0x40)\n      0x20\n      dup2\n      dup4\n      sub\n      sub\n      dup2\n      mstore\n      swap1\n      0x40\n      mstore\n      shl(0xe0, 0xa9059cbb)\n      0x20\n      dup3\n      add\n      dup1\n      mload\n      0xffffffffffffffffffffffffffffffffffffffffffffffffffffffff\n      dup4\n      dup2\n      dup4\n      and\n      or\n      dup4\n      mstore\n      pop\n      pop\n      pop\n      pop\n        /* \"week5/testABIEncode.sol\":2958:3010  return abi.encodeCall(IERC20.transfer, (to, amount)) */\n      swap1\n      pop\n        /* \"week5/testABIEncode.sol\":2817:3017  function encodeCall(address to, uint amount) external pure returns (bytes memory) {... */\n      swap3\n      swap2\n      pop\n      pop\n      jump\t// out\n        /* \"week5/testABIEncode.sol\":3091:3382  function encodeAppWorks(... */\n    tag_35:\n        /* \"week5/testABIEncode.sol\":3240:3252  bytes memory */\n      0x60\n        /* \"week5/testABIEncode.sol\":3325:3326  b */\n      dup7\n        /* \"week5/testABIEncode.sol\":3328:3335  arrUint */\n      dup7\n      dup7\n        /* \"week5/testABIEncode.sol\":3336:3337  a */\n      dup7\n        /* \"week5/testABIEncode.sol\":3338:3343  array */\n      dup7\n      dup7\n        /* \"week5/testABIEncode.sol\":3271:3344  abi.encode(\"AppWorks(bool,uint256[],address,string)\", b, arrUint,a,array) */\n      add(0x20, mload(0x40))\n      tag_82\n      swap7\n      swap6\n      swap5\n      swap4\n      swap3\n      swap2\n      swap1\n      tag_83\n      jump\t// in\n    tag_82:\n      mload(0x40)\n      0x20\n      dup2\n      dup4\n      sub\n      sub\n      dup2\n      mstore\n      swap1\n      0x40\n      mstore\n        /* \"week5/testABIEncode.sol\":3264:3344  return abi.encode(\"AppWorks(bool,uint256[],address,string)\", b, arrUint,a,array) */\n      swap1\n      pop\n        /* \"week5/testABIEncode.sol\":3091:3382  function encodeAppWorks(... */\n      swap7\n      swap6\n      pop\n      pop\n      pop\n      pop\n      pop\n      pop\n      jump\t// out\n        /* \"week5/testABIEncode.sol\":834:953  function encodePackedAppworks() external pure returns (bytes memory) {... */\n    tag_38:\n        /* \"week5/testABIEncode.sol\":889:901  bytes memory */\n      0x60\n        /* \"week5/testABIEncode.sol\":918:946  abi.encodePacked(\"appworks\") */\n      add(0x20, mload(0x40))\n      tag_85\n      swap1\n      tag_86\n      jump\t// in\n    tag_85:\n      mload(0x40)\n      0x20\n      dup2\n      dup4\n      sub\n      sub\n      dup2\n      mstore\n      swap1\n      0x40\n      mstore\n        /* \"week5/testABIEncode.sol\":911:946  return abi.encodePacked(\"appworks\") */\n      swap1\n      pop\n        /* \"week5/testABIEncode.sol\":834:953  function encodePackedAppworks() external pure returns (bytes memory) {... */\n      swap1\n      jump\t// out\n        /* \"week5/testABIEncode.sol\":3388:3674  function encodeWithSignatureAppWorks(... */\n    tag_42:\n        /* \"week5/testABIEncode.sol\":3550:3562  bytes memory */\n      0x60\n        /* \"week5/testABIEncode.sol\":3648:3649  b */\n      dup7\n        /* \"week5/testABIEncode.sol\":3651:3658  arrUint */\n      dup7\n      dup7\n        /* \"week5/testABIEncode.sol\":3659:3660  a */\n      dup7\n        /* \"week5/testABIEncode.sol\":3661:3666  array */\n      dup7\n      dup7\n        /* \"week5/testABIEncode.sol\":3581:3667  abi.encodeWithSignature(\"AppWorks(bool,uint256[],address,string)\", b, arrUint,a,array) */\n      add(0x24, mload(0x40))\n      tag_88\n      swap7\n      swap6\n      swap5\n      swap4\n      swap3\n      swap2\n      swap1\n      tag_89\n      jump\t// in\n    tag_88:\n      mload(0x40)\n      0x20\n      dup2\n      dup4\n      sub\n      sub\n      dup2\n      mstore\n      swap1\n      0x40\n      mstore\n      and(not(0xffffffffffffffffffffffffffffffffffffffffffffffffffffffff), 0xae53a4a500000000000000000000000000000000000000000000000000000000)\n      0x20\n      dup3\n      add\n      dup1\n      mload\n      0xffffffffffffffffffffffffffffffffffffffffffffffffffffffff\n      dup4\n      dup2\n      dup4\n      and\n      or\n      dup4\n      mstore\n      pop\n      pop\n      pop\n      pop\n        /* \"week5/testABIEncode.sol\":3574:3667  return abi.encodeWithSignature(\"AppWorks(bool,uint256[],address,string)\", b, arrUint,a,array) */\n      swap1\n      pop\n        /* \"week5/testABIEncode.sol\":3388:3674  function encodeWithSignatureAppWorks(... */\n      swap7\n      swap6\n      pop\n      pop\n      pop\n      pop\n      pop\n      pop\n      jump\t// out\n        /* \"week5/testABIEncode.sol\":2541:2811  function encodeWithSelector(... */\n    tag_46:\n        /* \"week5/testABIEncode.sol\":2639:2651  bytes memory */\n      0x60\n        /* \"week5/testABIEncode.sol\":2767:2791  IERC20.transfer.selector */\n      shl(0xe0, 0xa9059cbb)\n        /* \"week5/testABIEncode.sol\":2793:2795  to */\n      dup4\n        /* \"week5/testABIEncode.sol\":2797:2803  amount */\n      dup4\n        /* \"week5/testABIEncode.sol\":2744:2804  abi.encodeWithSelector(IERC20.transfer.selector, to, amount) */\n      add(0x24, mload(0x40))\n      tag_91\n      swap3\n      swap2\n      swap1\n      tag_80\n      jump\t// in\n    tag_91:\n      mload(0x40)\n      0x20\n      dup2\n      dup4\n      sub\n      sub\n      dup2\n      mstore\n      swap1\n      0x40\n      mstore\n      swap1\n      not(0xffffffffffffffffffffffffffffffffffffffffffffffffffffffff)\n      and\n      0x20\n      dup3\n      add\n      dup1\n      mload\n      0xffffffffffffffffffffffffffffffffffffffffffffffffffffffff\n      dup4\n      dup2\n      dup4\n      and\n      or\n      dup4\n      mstore\n      pop\n      pop\n      pop\n      pop\n        /* \"week5/testABIEncode.sol\":2737:2804  return abi.encodeWithSelector(IERC20.transfer.selector, to, amount) */\n      swap1\n      pop\n        /* \"week5/testABIEncode.sol\":2541:2811  function encodeWithSelector(... */\n      swap3\n      swap2\n      pop\n      pop\n      jump\t// out\n        /* \"week5/testABIEncode.sol\":3681:3810  function encodeFunSelector(string memory s) external pure returns (bytes memory) {... */\n    tag_51:\n        /* \"week5/testABIEncode.sol\":3748:3760  bytes memory */\n      0x60\n        /* \"week5/testABIEncode.sol\":3801:3802  s */\n      dup2\n        /* \"week5/testABIEncode.sol\":3777:3803  abi.encodeWithSignature(s) */\n      add(0x24, mload(0x40))\n      mload(0x40)\n      0x20\n      dup2\n      dup4\n      sub\n      sub\n      dup2\n      mstore\n      swap1\n      0x40\n      mstore\n      swap1\n      mload(0x40)\n      tag_93\n      swap2\n      swap1\n      tag_94\n      jump\t// in\n    tag_93:\n      mload(0x40)\n      dup1\n      swap2\n      sub\n      swap1\n      keccak256\n      not(0xffffffffffffffffffffffffffffffffffffffffffffffffffffffff)\n      and\n      0x20\n      dup3\n      add\n      dup1\n      mload\n      0xffffffffffffffffffffffffffffffffffffffffffffffffffffffff\n      dup4\n      dup2\n      dup4\n      and\n      or\n      dup4\n      mstore\n      pop\n      pop\n      pop\n      pop\n        /* \"week5/testABIEncode.sol\":3770:3803  return abi.encodeWithSignature(s) */\n      swap1\n      pop\n        /* \"week5/testABIEncode.sol\":3681:3810  function encodeFunSelector(string memory s) external pure returns (bytes memory) {... */\n      swap2\n      swap1\n      pop\n      jump\t// out\n        /* \"week5/testABIEncode.sol\":233:340  function encodeAppworks() external pure returns (bytes memory) {... */\n    tag_54:\n        /* \"week5/testABIEncode.sol\":282:294  bytes memory */\n      0x60\n        /* \"week5/testABIEncode.sol\":311:333  abi.encode(\"appworks\") */\n      add(0x20, mload(0x40))\n      tag_96\n      swap1\n      tag_97\n      jump\t// in\n    tag_96:\n      mload(0x40)\n      0x20\n      dup2\n      dup4\n      sub\n      sub\n      dup2\n      mstore\n      swap1\n      0x40\n      mstore\n        /* \"week5/testABIEncode.sol\":304:333  return abi.encode(\"appworks\") */\n      swap1\n      pop\n        /* \"week5/testABIEncode.sol\":233:340  function encodeAppworks() external pure returns (bytes memory) {... */\n      swap1\n      jump\t// out\n        /* \"week5/testABIEncode.sol\":2275:2535  function encodeWithSignature(... */\n    tag_58:\n        /* \"week5/testABIEncode.sol\":2374:2386  bytes memory */\n      0x60\n        /* \"week5/testABIEncode.sol\":2517:2519  to */\n      dup3\n        /* \"week5/testABIEncode.sol\":2521:2527  amount */\n      dup3\n        /* \"week5/testABIEncode.sol\":2464:2528  abi.encodeWithSignature(\"transfer(address,uint256)\", to, amount) */\n      add(0x24, mload(0x40))\n      tag_99\n      swap3\n      swap2\n      swap1\n      tag_80\n      jump\t// in\n    tag_99:\n      mload(0x40)\n      0x20\n      dup2\n      dup4\n      sub\n      sub\n      dup2\n      mstore\n      swap1\n      0x40\n      mstore\n      and(not(0xffffffffffffffffffffffffffffffffffffffffffffffffffffffff), 0xa9059cbb00000000000000000000000000000000000000000000000000000000)\n      0x20\n      dup3\n      add\n      dup1\n      mload\n      0xffffffffffffffffffffffffffffffffffffffffffffffffffffffff\n      dup4\n      dup2\n      dup4\n      and\n      or\n      dup4\n      mstore\n      pop\n      pop\n      pop\n      pop\n        /* \"week5/testABIEncode.sol\":2457:2528  return abi.encodeWithSignature(\"transfer(address,uint256)\", to, amount) */\n      swap1\n      pop\n        /* \"week5/testABIEncode.sol\":2275:2535  function encodeWithSignature(... */\n      swap3\n      swap2\n      pop\n      pop\n      jump\t// out\n        /* \"week5/testABIEncode.sol\":959:1738  function encodePackedAppworksV2() external pure returns (bytes memory) {... */\n    tag_61:\n        /* \"week5/testABIEncode.sol\":1016:1028  bytes memory */\n      0x60\n        /* \"week5/testABIEncode.sol\":1067:1068  1 */\n      0x01\n        /* \"week5/testABIEncode.sol\":1069:1071  99 */\n      0x63\n        /* \"week5/testABIEncode.sol\":1045:1078  abi.encode(\"appworks\",1,99,\"jim\") */\n      add(0x20, mload(0x40))\n      tag_101\n      swap3\n      swap2\n      swap1\n      tag_102\n      jump\t// in\n    tag_101:\n      mload(0x40)\n      0x20\n      dup2\n      dup4\n      sub\n      sub\n      dup2\n      mstore\n      swap1\n      0x40\n      mstore\n        /* \"week5/testABIEncode.sol\":1038:1078  return abi.encode(\"appworks\",1,99,\"jim\") */\n      swap1\n      pop\n        /* \"week5/testABIEncode.sol\":959:1738  function encodePackedAppworksV2() external pure returns (bytes memory) {... */\n      swap1\n      jump\t// out\n        /* \"week5/testABIEncode.sol\":2168:2269  function AppWorks(bool b,uint256[] calldata arrUint,address a,string calldata array) external {... */\n    tag_65:\n      pop\n      pop\n      pop\n      pop\n      pop\n      pop\n      jump\t// out\n        /* \"week5/testABIEncode.sol\":83:227  function encode() external pure returns (bytes memory) {... */\n    tag_67:\n        /* \"week5/testABIEncode.sol\":124:136  bytes memory */\n      0x60\n        /* \"week5/testABIEncode.sol\":175:176  1 */\n      0x01\n        /* \"week5/testABIEncode.sol\":177:219  0x2Ff1F4e5D08a822743ec6b342c521A0a421456cb */\n      0x2ff1f4e5d08a822743ec6b342c521a0a421456cb\n        /* \"week5/testABIEncode.sol\":153:220  abi.encode(\"appworks\",1,0x2Ff1F4e5D08a822743ec6b342c521A0a421456cb) */\n      add(0x20, mload(0x40))\n      tag_105\n      swap3\n      swap2\n      swap1\n      tag_106\n      jump\t// in\n    tag_105:\n      mload(0x40)\n      0x20\n      dup2\n      dup4\n      sub\n      sub\n      dup2\n      mstore\n      swap1\n      0x40\n      mstore\n        /* \"week5/testABIEncode.sol\":146:220  return abi.encode(\"appworks\",1,0x2Ff1F4e5D08a822743ec6b342c521A0a421456cb) */\n      swap1\n      pop\n        /* \"week5/testABIEncode.sol\":83:227  function encode() external pure returns (bytes memory) {... */\n      swap1\n      jump\t// out\n        /* \"week5/testABIEncode.sol\":1744:1837  function encodeOne() external pure returns (bytes memory) {... */\n    tag_70:\n        /* \"week5/testABIEncode.sol\":1788:1800  bytes memory */\n      0x60\n        /* \"week5/testABIEncode.sol\":1828:1829  1 */\n      0x01\n        /* \"week5/testABIEncode.sol\":1817:1830  abi.encode(1) */\n      add(0x20, mload(0x40))\n      tag_108\n      swap2\n      swap1\n      tag_109\n      jump\t// in\n    tag_108:\n      mload(0x40)\n      0x20\n      dup2\n      dup4\n      sub\n      sub\n      dup2\n      mstore\n      swap1\n      0x40\n      mstore\n        /* \"week5/testABIEncode.sol\":1810:1830  return abi.encode(1) */\n      swap1\n      pop\n        /* \"week5/testABIEncode.sol\":1744:1837  function encodeOne() external pure returns (bytes memory) {... */\n      swap1\n      jump\t// out\n        /* \"week5/testABIEncode.sol\":1843:1981  function encodeAddress() external pure returns (bytes memory) {... */\n    tag_73:\n        /* \"week5/testABIEncode.sol\":1891:1903  bytes memory */\n      0x60\n        /* \"week5/testABIEncode.sol\":1931:1973  0x2Ff1F4e5D08a822743ec6b342c521A0a421456cb */\n      0x2ff1f4e5d08a822743ec6b342c521a0a421456cb\n        /* \"week5/testABIEncode.sol\":1920:1974  abi.encode(0x2Ff1F4e5D08a822743ec6b342c521A0a421456cb) */\n      add(0x20, mload(0x40))\n      tag_111\n      swap2\n      swap1\n      tag_112\n      jump\t// in\n    tag_111:\n      mload(0x40)\n      0x20\n      dup2\n      dup4\n      sub\n      sub\n      dup2\n      mstore\n      swap1\n      0x40\n      mstore\n        /* \"week5/testABIEncode.sol\":1913:1974  return abi.encode(0x2Ff1F4e5D08a822743ec6b342c521A0a421456cb) */\n      swap1\n      pop\n        /* \"week5/testABIEncode.sol\":1843:1981  function encodeAddress() external pure returns (bytes memory) {... */\n      swap1\n      jump\t// out\n        /* \"#utility.yul\":7:82   */\n    tag_113:\n        /* \"#utility.yul\":40:46   */\n      0x00\n        /* \"#utility.yul\":73:75   */\n      0x40\n        /* \"#utility.yul\":67:76   */\n      mload\n        /* \"#utility.yul\":57:76   */\n      swap1\n      pop\n        /* \"#utility.yul\":7:82   */\n      swap1\n      jump\t// out\n        /* \"#utility.yul\":88:205   */\n    tag_114:\n        /* \"#utility.yul\":197:198   */\n      0x00\n        /* \"#utility.yul\":194:195   */\n      dup1\n        /* \"#utility.yul\":187:199   */\n      revert\n        /* \"#utility.yul\":211:328   */\n    tag_115:\n        /* \"#utility.yul\":320:321   */\n      0x00\n        /* \"#utility.yul\":317:318   */\n      dup1\n        /* \"#utility.yul\":310:322   */\n      revert\n        /* \"#utility.yul\":334:451   */\n    tag_116:\n        /* \"#utility.yul\":443:444   */\n      0x00\n        /* \"#utility.yul\":440:441   */\n      dup1\n        /* \"#utility.yul\":433:445   */\n      revert\n        /* \"#utility.yul\":457:574   */\n    tag_117:\n        /* \"#utility.yul\":566:567   */\n      0x00\n        /* \"#utility.yul\":563:564   */\n      dup1\n        /* \"#utility.yul\":556:568   */\n      revert\n        /* \"#utility.yul\":580:697   */\n    tag_118:\n        /* \"#utility.yul\":689:690   */\n      0x00\n        /* \"#utility.yul\":686:687   */\n      dup1\n        /* \"#utility.yul\":679:691   */\n      revert\n        /* \"#utility.yul\":716:1268   */\n    tag_119:\n        /* \"#utility.yul\":773:781   */\n      0x00\n        /* \"#utility.yul\":783:789   */\n      dup1\n        /* \"#utility.yul\":833:836   */\n      dup4\n        /* \"#utility.yul\":826:830   */\n      0x1f\n        /* \"#utility.yul\":818:824   */\n      dup5\n        /* \"#utility.yul\":814:831   */\n      add\n        /* \"#utility.yul\":810:837   */\n      slt\n        /* \"#utility.yul\":800:922   */\n      tag_184\n      jumpi\n        /* \"#utility.yul\":841:920   */\n      tag_185\n      tag_116\n      jump\t// in\n    tag_185:\n        /* \"#utility.yul\":800:922   */\n    tag_184:\n        /* \"#utility.yul\":954:960   */\n      dup3\n        /* \"#utility.yul\":941:961   */\n      calldataload\n        /* \"#utility.yul\":931:961   */\n      swap1\n      pop\n        /* \"#utility.yul\":984:1002   */\n      0xffffffffffffffff\n        /* \"#utility.yul\":976:982   */\n      dup2\n        /* \"#utility.yul\":973:1003   */\n      gt\n        /* \"#utility.yul\":970:1087   */\n      iszero\n      tag_186\n      jumpi\n        /* \"#utility.yul\":1006:1085   */\n      tag_187\n      tag_117\n      jump\t// in\n    tag_187:\n        /* \"#utility.yul\":970:1087   */\n    tag_186:\n        /* \"#utility.yul\":1120:1124   */\n      0x20\n        /* \"#utility.yul\":1112:1118   */\n      dup4\n        /* \"#utility.yul\":1108:1125   */\n      add\n        /* \"#utility.yul\":1096:1125   */\n      swap2\n      pop\n        /* \"#utility.yul\":1174:1177   */\n      dup4\n        /* \"#utility.yul\":1166:1170   */\n      0x01\n        /* \"#utility.yul\":1158:1164   */\n      dup3\n        /* \"#utility.yul\":1154:1171   */\n      mul\n        /* \"#utility.yul\":1144:1152   */\n      dup4\n        /* \"#utility.yul\":1140:1172   */\n      add\n        /* \"#utility.yul\":1137:1178   */\n      gt\n        /* \"#utility.yul\":1134:1262   */\n      iszero\n      tag_188\n      jumpi\n        /* \"#utility.yul\":1181:1260   */\n      tag_189\n      tag_118\n      jump\t// in\n    tag_189:\n        /* \"#utility.yul\":1134:1262   */\n    tag_188:\n        /* \"#utility.yul\":716:1268   */\n      swap3\n      pop\n      swap3\n      swap1\n      pop\n      jump\t// out\n        /* \"#utility.yul\":1274:1801   */\n    tag_22:\n        /* \"#utility.yul\":1344:1350   */\n      0x00\n        /* \"#utility.yul\":1352:1358   */\n      dup1\n        /* \"#utility.yul\":1401:1403   */\n      0x20\n        /* \"#utility.yul\":1389:1398   */\n      dup4\n        /* \"#utility.yul\":1380:1387   */\n      dup6\n        /* \"#utility.yul\":1376:1399   */\n      sub\n        /* \"#utility.yul\":1372:1404   */\n      slt\n        /* \"#utility.yul\":1369:1488   */\n      iszero\n      tag_191\n      jumpi\n        /* \"#utility.yul\":1407:1486   */\n      tag_192\n      tag_114\n      jump\t// in\n    tag_192:\n        /* \"#utility.yul\":1369:1488   */\n    tag_191:\n        /* \"#utility.yul\":1555:1556   */\n      0x00\n        /* \"#utility.yul\":1544:1553   */\n      dup4\n        /* \"#utility.yul\":1540:1557   */\n      add\n        /* \"#utility.yul\":1527:1558   */\n      calldataload\n        /* \"#utility.yul\":1585:1603   */\n      0xffffffffffffffff\n        /* \"#utility.yul\":1577:1583   */\n      dup2\n        /* \"#utility.yul\":1574:1604   */\n      gt\n        /* \"#utility.yul\":1571:1688   */\n      iszero\n      tag_193\n      jumpi\n        /* \"#utility.yul\":1607:1686   */\n      tag_194\n      tag_115\n      jump\t// in\n    tag_194:\n        /* \"#utility.yul\":1571:1688   */\n    tag_193:\n        /* \"#utility.yul\":1720:1784   */\n      tag_195\n        /* \"#utility.yul\":1776:1783   */\n      dup6\n        /* \"#utility.yul\":1767:1773   */\n      dup3\n        /* \"#utility.yul\":1756:1765   */\n      dup7\n        /* \"#utility.yul\":1752:1774   */\n      add\n        /* \"#utility.yul\":1720:1784   */\n      tag_119\n      jump\t// in\n    tag_195:\n        /* \"#utility.yul\":1702:1784   */\n      swap3\n      pop\n      swap3\n      pop\n        /* \"#utility.yul\":1498:1794   */\n      pop\n        /* \"#utility.yul\":1274:1801   */\n      swap3\n      pop\n      swap3\n      swap1\n      pop\n      jump\t// out\n        /* \"#utility.yul\":1807:1906   */\n    tag_120:\n        /* \"#utility.yul\":1859:1865   */\n      0x00\n        /* \"#utility.yul\":1893:1898   */\n      dup2\n        /* \"#utility.yul\":1887:1899   */\n      mload\n        /* \"#utility.yul\":1877:1899   */\n      swap1\n      pop\n        /* \"#utility.yul\":1807:1906   */\n      swap2\n      swap1\n      pop\n      jump\t// out\n        /* \"#utility.yul\":1912:2081   */\n    tag_121:\n        /* \"#utility.yul\":1996:2007   */\n      0x00\n        /* \"#utility.yul\":2030:2036   */\n      dup3\n        /* \"#utility.yul\":2025:2028   */\n      dup3\n        /* \"#utility.yul\":2018:2037   */\n      mstore\n        /* \"#utility.yul\":2070:2074   */\n      0x20\n        /* \"#utility.yul\":2065:2068   */\n      dup3\n        /* \"#utility.yul\":2061:2075   */\n      add\n        /* \"#utility.yul\":2046:2075   */\n      swap1\n      pop\n        /* \"#utility.yul\":1912:2081   */\n      swap3\n      swap2\n      pop\n      pop\n      jump\t// out\n        /* \"#utility.yul\":2087:2333   */\n    tag_122:\n        /* \"#utility.yul\":2168:2169   */\n      0x00\n        /* \"#utility.yul\":2178:2291   */\n    tag_199:\n        /* \"#utility.yul\":2192:2198   */\n      dup4\n        /* \"#utility.yul\":2189:2190   */\n      dup2\n        /* \"#utility.yul\":2186:2199   */\n      lt\n        /* \"#utility.yul\":2178:2291   */\n      iszero\n      tag_201\n      jumpi\n        /* \"#utility.yul\":2277:2278   */\n      dup1\n        /* \"#utility.yul\":2272:2275   */\n      dup3\n        /* \"#utility.yul\":2268:2279   */\n      add\n        /* \"#utility.yul\":2262:2280   */\n      mload\n        /* \"#utility.yul\":2258:2259   */\n      dup2\n        /* \"#utility.yul\":2253:2256   */\n      dup5\n        /* \"#utility.yul\":2249:2260   */\n      add\n        /* \"#utility.yul\":2242:2281   */\n      mstore\n        /* \"#utility.yul\":2214:2216   */\n      0x20\n        /* \"#utility.yul\":2211:2212   */\n      dup2\n        /* \"#utility.yul\":2207:2217   */\n      add\n        /* \"#utility.yul\":2202:2217   */\n      swap1\n      pop\n        /* \"#utility.yul\":2178:2291   */\n      jump(tag_199)\n    tag_201:\n        /* \"#utility.yul\":2325:2326   */\n      0x00\n        /* \"#utility.yul\":2316:2322   */\n      dup5\n        /* \"#utility.yul\":2311:2314   */\n      dup5\n        /* \"#utility.yul\":2307:2323   */\n      add\n        /* \"#utility.yul\":2300:2327   */\n      mstore\n        /* \"#utility.yul\":2149:2333   */\n      pop\n        /* \"#utility.yul\":2087:2333   */\n      pop\n      pop\n      pop\n      jump\t// out\n        /* \"#utility.yul\":2339:2441   */\n    tag_123:\n        /* \"#utility.yul\":2380:2386   */\n      0x00\n        /* \"#utility.yul\":2431:2433   */\n      0x1f\n        /* \"#utility.yul\":2427:2434   */\n      not\n        /* \"#utility.yul\":2422:2424   */\n      0x1f\n        /* \"#utility.yul\":2415:2420   */\n      dup4\n        /* \"#utility.yul\":2411:2425   */\n      add\n        /* \"#utility.yul\":2407:2435   */\n      and\n        /* \"#utility.yul\":2397:2435   */\n      swap1\n      pop\n        /* \"#utility.yul\":2339:2441   */\n      swap2\n      swap1\n      pop\n      jump\t// out\n        /* \"#utility.yul\":2447:2824   */\n    tag_124:\n        /* \"#utility.yul\":2535:2538   */\n      0x00\n        /* \"#utility.yul\":2563:2602   */\n      tag_204\n        /* \"#utility.yul\":2596:2601   */\n      dup3\n        /* \"#utility.yul\":2563:2602   */\n      tag_120\n      jump\t// in\n    tag_204:\n        /* \"#utility.yul\":2618:2689   */\n      tag_205\n        /* \"#utility.yul\":2682:2688   */\n      dup2\n        /* \"#utility.yul\":2677:2680   */\n      dup6\n        /* \"#utility.yul\":2618:2689   */\n      tag_121\n      jump\t// in\n    tag_205:\n        /* \"#utility.yul\":2611:2689   */\n      swap4\n      pop\n        /* \"#utility.yul\":2698:2763   */\n      tag_206\n        /* \"#utility.yul\":2756:2762   */\n      dup2\n        /* \"#utility.yul\":2751:2754   */\n      dup6\n        /* \"#utility.yul\":2744:2748   */\n      0x20\n        /* \"#utility.yul\":2737:2742   */\n      dup7\n        /* \"#utility.yul\":2733:2749   */\n      add\n        /* \"#utility.yul\":2698:2763   */\n      tag_122\n      jump\t// in\n    tag_206:\n        /* \"#utility.yul\":2788:2817   */\n      tag_207\n        /* \"#utility.yul\":2810:2816   */\n      dup2\n        /* \"#utility.yul\":2788:2817   */\n      tag_123\n      jump\t// in\n    tag_207:\n        /* \"#utility.yul\":2783:2786   */\n      dup5\n        /* \"#utility.yul\":2779:2818   */\n      add\n        /* \"#utility.yul\":2772:2818   */\n      swap2\n      pop\n        /* \"#utility.yul\":2539:2824   */\n      pop\n        /* \"#utility.yul\":2447:2824   */\n      swap3\n      swap2\n      pop\n      pop\n      jump\t// out\n        /* \"#utility.yul\":2830:2907   */\n    tag_125:\n        /* \"#utility.yul\":2867:2874   */\n      0x00\n        /* \"#utility.yul\":2896:2901   */\n      dup2\n        /* \"#utility.yul\":2885:2901   */\n      swap1\n      pop\n        /* \"#utility.yul\":2830:2907   */\n      swap2\n      swap1\n      pop\n      jump\t// out\n        /* \"#utility.yul\":2913:3031   */\n    tag_126:\n        /* \"#utility.yul\":3000:3024   */\n      tag_210\n        /* \"#utility.yul\":3018:3023   */\n      dup2\n        /* \"#utility.yul\":3000:3024   */\n      tag_125\n      jump\t// in\n    tag_210:\n        /* \"#utility.yul\":2995:2998   */\n      dup3\n        /* \"#utility.yul\":2988:3025   */\n      mstore\n        /* \"#utility.yul\":2913:3031   */\n      pop\n      pop\n      jump\t// out\n        /* \"#utility.yul\":3037:3163   */\n    tag_127:\n        /* \"#utility.yul\":3074:3081   */\n      0x00\n        /* \"#utility.yul\":3114:3156   */\n      0xffffffffffffffffffffffffffffffffffffffff\n        /* \"#utility.yul\":3107:3112   */\n      dup3\n        /* \"#utility.yul\":3103:3157   */\n      and\n        /* \"#utility.yul\":3092:3157   */\n      swap1\n      pop\n        /* \"#utility.yul\":3037:3163   */\n      swap2\n      swap1\n      pop\n      jump\t// out\n        /* \"#utility.yul\":3169:3265   */\n    tag_128:\n        /* \"#utility.yul\":3206:3213   */\n      0x00\n        /* \"#utility.yul\":3235:3259   */\n      tag_213\n        /* \"#utility.yul\":3253:3258   */\n      dup3\n        /* \"#utility.yul\":3235:3259   */\n      tag_127\n      jump\t// in\n    tag_213:\n        /* \"#utility.yul\":3224:3259   */\n      swap1\n      pop\n        /* \"#utility.yul\":3169:3265   */\n      swap2\n      swap1\n      pop\n      jump\t// out\n        /* \"#utility.yul\":3271:3389   */\n    tag_129:\n        /* \"#utility.yul\":3358:3382   */\n      tag_215\n        /* \"#utility.yul\":3376:3381   */\n      dup2\n        /* \"#utility.yul\":3358:3382   */\n      tag_128\n      jump\t// in\n    tag_215:\n        /* \"#utility.yul\":3353:3356   */\n      dup3\n        /* \"#utility.yul\":3346:3383   */\n      mstore\n        /* \"#utility.yul\":3271:3389   */\n      pop\n      pop\n      jump\t// out\n        /* \"#utility.yul\":3395:3928   */\n    tag_25:\n        /* \"#utility.yul\":3564:3568   */\n      0x00\n        /* \"#utility.yul\":3602:3604   */\n      0x60\n        /* \"#utility.yul\":3591:3600   */\n      dup3\n        /* \"#utility.yul\":3587:3605   */\n      add\n        /* \"#utility.yul\":3579:3605   */\n      swap1\n      pop\n        /* \"#utility.yul\":3651:3660   */\n      dup2\n        /* \"#utility.yul\":3645:3649   */\n      dup2\n        /* \"#utility.yul\":3641:3661   */\n      sub\n        /* \"#utility.yul\":3637:3638   */\n      0x00\n        /* \"#utility.yul\":3626:3635   */\n      dup4\n        /* \"#utility.yul\":3622:3639   */\n      add\n        /* \"#utility.yul\":3615:3662   */\n      mstore\n        /* \"#utility.yul\":3679:3757   */\n      tag_217\n        /* \"#utility.yul\":3752:3756   */\n      dup2\n        /* \"#utility.yul\":3743:3749   */\n      dup7\n        /* \"#utility.yul\":3679:3757   */\n      tag_124\n      jump\t// in\n    tag_217:\n        /* \"#utility.yul\":3671:3757   */\n      swap1\n      pop\n        /* \"#utility.yul\":3767:3839   */\n      tag_218\n        /* \"#utility.yul\":3835:3837   */\n      0x20\n        /* \"#utility.yul\":3824:3833   */\n      dup4\n        /* \"#utility.yul\":3820:3838   */\n      add\n        /* \"#utility.yul\":3811:3817   */\n      dup6\n        /* \"#utility.yul\":3767:3839   */\n      tag_126\n      jump\t// in\n    tag_218:\n        /* \"#utility.yul\":3849:3921   */\n      tag_219\n        /* \"#utility.yul\":3917:3919   */\n      0x40\n        /* \"#utility.yul\":3906:3915   */\n      dup4\n        /* \"#utility.yul\":3902:3920   */\n      add\n        /* \"#utility.yul\":3893:3899   */\n      dup5\n        /* \"#utility.yul\":3849:3921   */\n      tag_129\n      jump\t// in\n    tag_219:\n        /* \"#utility.yul\":3395:3928   */\n      swap5\n      swap4\n      pop\n      pop\n      pop\n      pop\n      jump\t// out\n        /* \"#utility.yul\":3934:4056   */\n    tag_130:\n        /* \"#utility.yul\":4007:4031   */\n      tag_221\n        /* \"#utility.yul\":4025:4030   */\n      dup2\n        /* \"#utility.yul\":4007:4031   */\n      tag_128\n      jump\t// in\n    tag_221:\n        /* \"#utility.yul\":4000:4005   */\n      dup2\n        /* \"#utility.yul\":3997:4032   */\n      eq\n        /* \"#utility.yul\":3987:4050   */\n      tag_222\n      jumpi\n        /* \"#utility.yul\":4046:4047   */\n      0x00\n        /* \"#utility.yul\":4043:4044   */\n      dup1\n        /* \"#utility.yul\":4036:4048   */\n      revert\n        /* \"#utility.yul\":3987:4050   */\n    tag_222:\n        /* \"#utility.yul\":3934:4056   */\n      pop\n      jump\t// out\n        /* \"#utility.yul\":4062:4201   */\n    tag_131:\n        /* \"#utility.yul\":4108:4113   */\n      0x00\n        /* \"#utility.yul\":4146:4152   */\n      dup2\n        /* \"#utility.yul\":4133:4153   */\n      calldataload\n        /* \"#utility.yul\":4124:4153   */\n      swap1\n      pop\n        /* \"#utility.yul\":4162:4195   */\n      tag_224\n        /* \"#utility.yul\":4189:4194   */\n      dup2\n        /* \"#utility.yul\":4162:4195   */\n      tag_130\n      jump\t// in\n    tag_224:\n        /* \"#utility.yul\":4062:4201   */\n      swap3\n      swap2\n      pop\n      pop\n      jump\t// out\n        /* \"#utility.yul\":4207:4329   */\n    tag_132:\n        /* \"#utility.yul\":4280:4304   */\n      tag_226\n        /* \"#utility.yul\":4298:4303   */\n      dup2\n        /* \"#utility.yul\":4280:4304   */\n      tag_125\n      jump\t// in\n    tag_226:\n        /* \"#utility.yul\":4273:4278   */\n      dup2\n        /* \"#utility.yul\":4270:4305   */\n      eq\n        /* \"#utility.yul\":4260:4323   */\n      tag_227\n      jumpi\n        /* \"#utility.yul\":4319:4320   */\n      0x00\n        /* \"#utility.yul\":4316:4317   */\n      dup1\n        /* \"#utility.yul\":4309:4321   */\n      revert\n        /* \"#utility.yul\":4260:4323   */\n    tag_227:\n        /* \"#utility.yul\":4207:4329   */\n      pop\n      jump\t// out\n        /* \"#utility.yul\":4335:4474   */\n    tag_133:\n        /* \"#utility.yul\":4381:4386   */\n      0x00\n        /* \"#utility.yul\":4419:4425   */\n      dup2\n        /* \"#utility.yul\":4406:4426   */\n      calldataload\n        /* \"#utility.yul\":4397:4426   */\n      swap1\n      pop\n        /* \"#utility.yul\":4435:4468   */\n      tag_229\n        /* \"#utility.yul\":4462:4467   */\n      dup2\n        /* \"#utility.yul\":4435:4468   */\n      tag_132\n      jump\t// in\n    tag_229:\n        /* \"#utility.yul\":4335:4474   */\n      swap3\n      swap2\n      pop\n      pop\n      jump\t// out\n        /* \"#utility.yul\":4480:4954   */\n    tag_28:\n        /* \"#utility.yul\":4548:4554   */\n      0x00\n        /* \"#utility.yul\":4556:4562   */\n      dup1\n        /* \"#utility.yul\":4605:4607   */\n      0x40\n        /* \"#utility.yul\":4593:4602   */\n      dup4\n        /* \"#utility.yul\":4584:4591   */\n      dup6\n        /* \"#utility.yul\":4580:4603   */\n      sub\n        /* \"#utility.yul\":4576:4608   */\n      slt\n        /* \"#utility.yul\":4573:4692   */\n      iszero\n      tag_231\n      jumpi\n        /* \"#utility.yul\":4611:4690   */\n      tag_232\n      tag_114\n      jump\t// in\n    tag_232:\n        /* \"#utility.yul\":4573:4692   */\n    tag_231:\n        /* \"#utility.yul\":4731:4732   */\n      0x00\n        /* \"#utility.yul\":4756:4809   */\n      tag_233\n        /* \"#utility.yul\":4801:4808   */\n      dup6\n        /* \"#utility.yul\":4792:4798   */\n      dup3\n        /* \"#utility.yul\":4781:4790   */\n      dup7\n        /* \"#utility.yul\":4777:4799   */\n      add\n        /* \"#utility.yul\":4756:4809   */\n      tag_131\n      jump\t// in\n    tag_233:\n        /* \"#utility.yul\":4746:4809   */\n      swap3\n      pop\n        /* \"#utility.yul\":4702:4819   */\n      pop\n        /* \"#utility.yul\":4858:4860   */\n      0x20\n        /* \"#utility.yul\":4884:4937   */\n      tag_234\n        /* \"#utility.yul\":4929:4936   */\n      dup6\n        /* \"#utility.yul\":4920:4926   */\n      dup3\n        /* \"#utility.yul\":4909:4918   */\n      dup7\n        /* \"#utility.yul\":4905:4927   */\n      add\n        /* \"#utility.yul\":4884:4937   */\n      tag_133\n      jump\t// in\n    tag_234:\n        /* \"#utility.yul\":4874:4937   */\n      swap2\n      pop\n        /* \"#utility.yul\":4829:4947   */\n      pop\n        /* \"#utility.yul\":4480:4954   */\n      swap3\n      pop\n      swap3\n      swap1\n      pop\n      jump\t// out\n        /* \"#utility.yul\":4960:5058   */\n    tag_134:\n        /* \"#utility.yul\":5011:5017   */\n      0x00\n        /* \"#utility.yul\":5045:5050   */\n      dup2\n        /* \"#utility.yul\":5039:5051   */\n      mload\n        /* \"#utility.yul\":5029:5051   */\n      swap1\n      pop\n        /* \"#utility.yul\":4960:5058   */\n      swap2\n      swap1\n      pop\n      jump\t// out\n        /* \"#utility.yul\":5064:5232   */\n    tag_135:\n        /* \"#utility.yul\":5147:5158   */\n      0x00\n        /* \"#utility.yul\":5181:5187   */\n      dup3\n        /* \"#utility.yul\":5176:5179   */\n      dup3\n        /* \"#utility.yul\":5169:5188   */\n      mstore\n        /* \"#utility.yul\":5221:5225   */\n      0x20\n        /* \"#utility.yul\":5216:5219   */\n      dup3\n        /* \"#utility.yul\":5212:5226   */\n      add\n        /* \"#utility.yul\":5197:5226   */\n      swap1\n      pop\n        /* \"#utility.yul\":5064:5232   */\n      swap3\n      swap2\n      pop\n      pop\n      jump\t// out\n        /* \"#utility.yul\":5238:5611   */\n    tag_136:\n        /* \"#utility.yul\":5324:5327   */\n      0x00\n        /* \"#utility.yul\":5352:5390   */\n      tag_238\n        /* \"#utility.yul\":5384:5389   */\n      dup3\n        /* \"#utility.yul\":5352:5390   */\n      tag_134\n      jump\t// in\n    tag_238:\n        /* \"#utility.yul\":5406:5476   */\n      tag_239\n        /* \"#utility.yul\":5469:5475   */\n      dup2\n        /* \"#utility.yul\":5464:5467   */\n      dup6\n        /* \"#utility.yul\":5406:5476   */\n      tag_135\n      jump\t// in\n    tag_239:\n        /* \"#utility.yul\":5399:5476   */\n      swap4\n      pop\n        /* \"#utility.yul\":5485:5550   */\n      tag_240\n        /* \"#utility.yul\":5543:5549   */\n      dup2\n        /* \"#utility.yul\":5538:5541   */\n      dup6\n        /* \"#utility.yul\":5531:5535   */\n      0x20\n        /* \"#utility.yul\":5524:5529   */\n      dup7\n        /* \"#utility.yul\":5520:5536   */\n      add\n        /* \"#utility.yul\":5485:5550   */\n      tag_122\n      jump\t// in\n    tag_240:\n        /* \"#utility.yul\":5575:5604   */\n      tag_241\n        /* \"#utility.yul\":5597:5603   */\n      dup2\n        /* \"#utility.yul\":5575:5604   */\n      tag_123\n      jump\t// in\n    tag_241:\n        /* \"#utility.yul\":5570:5573   */\n      dup5\n        /* \"#utility.yul\":5566:5605   */\n      add\n        /* \"#utility.yul\":5559:5605   */\n      swap2\n      pop\n        /* \"#utility.yul\":5328:5611   */\n      pop\n        /* \"#utility.yul\":5238:5611   */\n      swap3\n      swap2\n      pop\n      pop\n      jump\t// out\n        /* \"#utility.yul\":5617:5926   */\n    tag_31:\n        /* \"#utility.yul\":5728:5732   */\n      0x00\n        /* \"#utility.yul\":5766:5768   */\n      0x20\n        /* \"#utility.yul\":5755:5764   */\n      dup3\n        /* \"#utility.yul\":5751:5769   */\n      add\n        /* \"#utility.yul\":5743:5769   */\n      swap1\n      pop\n        /* \"#utility.yul\":5815:5824   */\n      dup2\n        /* \"#utility.yul\":5809:5813   */\n      dup2\n        /* \"#utility.yul\":5805:5825   */\n      sub\n        /* \"#utility.yul\":5801:5802   */\n      0x00\n        /* \"#utility.yul\":5790:5799   */\n      dup4\n        /* \"#utility.yul\":5786:5803   */\n      add\n        /* \"#utility.yul\":5779:5826   */\n      mstore\n        /* \"#utility.yul\":5843:5919   */\n      tag_243\n        /* \"#utility.yul\":5914:5918   */\n      dup2\n        /* \"#utility.yul\":5905:5911   */\n      dup5\n        /* \"#utility.yul\":5843:5919   */\n      tag_136\n      jump\t// in\n    tag_243:\n        /* \"#utility.yul\":5835:5919   */\n      swap1\n      pop\n        /* \"#utility.yul\":5617:5926   */\n      swap3\n      swap2\n      pop\n      pop\n      jump\t// out\n        /* \"#utility.yul\":5932:6022   */\n    tag_137:\n        /* \"#utility.yul\":5966:5973   */\n      0x00\n        /* \"#utility.yul\":6009:6014   */\n      dup2\n        /* \"#utility.yul\":6002:6015   */\n      iszero\n        /* \"#utility.yul\":5995:6016   */\n      iszero\n        /* \"#utility.yul\":5984:6016   */\n      swap1\n      pop\n        /* \"#utility.yul\":5932:6022   */\n      swap2\n      swap1\n      pop\n      jump\t// out\n        /* \"#utility.yul\":6028:6144   */\n    tag_138:\n        /* \"#utility.yul\":6098:6119   */\n      tag_246\n        /* \"#utility.yul\":6113:6118   */\n      dup2\n        /* \"#utility.yul\":6098:6119   */\n      tag_137\n      jump\t// in\n    tag_246:\n        /* \"#utility.yul\":6091:6096   */\n      dup2\n        /* \"#utility.yul\":6088:6120   */\n      eq\n        /* \"#utility.yul\":6078:6138   */\n      tag_247\n      jumpi\n        /* \"#utility.yul\":6134:6135   */\n      0x00\n        /* \"#utility.yul\":6131:6132   */\n      dup1\n        /* \"#utility.yul\":6124:6136   */\n      revert\n        /* \"#utility.yul\":6078:6138   */\n    tag_247:\n        /* \"#utility.yul\":6028:6144   */\n      pop\n      jump\t// out\n        /* \"#utility.yul\":6150:6283   */\n    tag_139:\n        /* \"#utility.yul\":6193:6198   */\n      0x00\n        /* \"#utility.yul\":6231:6237   */\n      dup2\n        /* \"#utility.yul\":6218:6238   */\n      calldataload\n        /* \"#utility.yul\":6209:6238   */\n      swap1\n      pop\n        /* \"#utility.yul\":6247:6277   */\n      tag_249\n        /* \"#utility.yul\":6271:6276   */\n      dup2\n        /* \"#utility.yul\":6247:6277   */\n      tag_138\n      jump\t// in\n    tag_249:\n        /* \"#utility.yul\":6150:6283   */\n      swap3\n      swap2\n      pop\n      pop\n      jump\t// out\n        /* \"#utility.yul\":6306:6874   */\n    tag_140:\n        /* \"#utility.yul\":6379:6387   */\n      0x00\n        /* \"#utility.yul\":6389:6395   */\n      dup1\n        /* \"#utility.yul\":6439:6442   */\n      dup4\n        /* \"#utility.yul\":6432:6436   */\n      0x1f\n        /* \"#utility.yul\":6424:6430   */\n      dup5\n        /* \"#utility.yul\":6420:6437   */\n      add\n        /* \"#utility.yul\":6416:6443   */\n      slt\n        /* \"#utility.yul\":6406:6528   */\n      tag_251\n      jumpi\n        /* \"#utility.yul\":6447:6526   */\n      tag_252\n      tag_116\n      jump\t// in\n    tag_252:\n        /* \"#utility.yul\":6406:6528   */\n    tag_251:\n        /* \"#utility.yul\":6560:6566   */\n      dup3\n        /* \"#utility.yul\":6547:6567   */\n      calldataload\n        /* \"#utility.yul\":6537:6567   */\n      swap1\n      pop\n        /* \"#utility.yul\":6590:6608   */\n      0xffffffffffffffff\n        /* \"#utility.yul\":6582:6588   */\n      dup2\n        /* \"#utility.yul\":6579:6609   */\n      gt\n        /* \"#utility.yul\":6576:6693   */\n      iszero\n      tag_253\n      jumpi\n        /* \"#utility.yul\":6612:6691   */\n      tag_254\n      tag_117\n      jump\t// in\n    tag_254:\n        /* \"#utility.yul\":6576:6693   */\n    tag_253:\n        /* \"#utility.yul\":6726:6730   */\n      0x20\n        /* \"#utility.yul\":6718:6724   */\n      dup4\n        /* \"#utility.yul\":6714:6731   */\n      add\n        /* \"#utility.yul\":6702:6731   */\n      swap2\n      pop\n        /* \"#utility.yul\":6780:6783   */\n      dup4\n        /* \"#utility.yul\":6772:6776   */\n      0x20\n        /* \"#utility.yul\":6764:6770   */\n      dup3\n        /* \"#utility.yul\":6760:6777   */\n      mul\n        /* \"#utility.yul\":6750:6758   */\n      dup4\n        /* \"#utility.yul\":6746:6778   */\n      add\n        /* \"#utility.yul\":6743:6784   */\n      gt\n        /* \"#utility.yul\":6740:6868   */\n      iszero\n      tag_255\n      jumpi\n        /* \"#utility.yul\":6787:6866   */\n      tag_256\n      tag_118\n      jump\t// in\n    tag_256:\n        /* \"#utility.yul\":6740:6868   */\n    tag_255:\n        /* \"#utility.yul\":6306:6874   */\n      swap3\n      pop\n      swap3\n      swap1\n      pop\n      jump\t// out\n        /* \"#utility.yul\":6894:7447   */\n    tag_141:\n        /* \"#utility.yul\":6952:6960   */\n      0x00\n        /* \"#utility.yul\":6962:6968   */\n      dup1\n        /* \"#utility.yul\":7012:7015   */\n      dup4\n        /* \"#utility.yul\":7005:7009   */\n      0x1f\n        /* \"#utility.yul\":6997:7003   */\n      dup5\n        /* \"#utility.yul\":6993:7010   */\n      add\n        /* \"#utility.yul\":6989:7016   */\n      slt\n        /* \"#utility.yul\":6979:7101   */\n      tag_258\n      jumpi\n        /* \"#utility.yul\":7020:7099   */\n      tag_259\n      tag_116\n      jump\t// in\n    tag_259:\n        /* \"#utility.yul\":6979:7101   */\n    tag_258:\n        /* \"#utility.yul\":7133:7139   */\n      dup3\n        /* \"#utility.yul\":7120:7140   */\n      calldataload\n        /* \"#utility.yul\":7110:7140   */\n      swap1\n      pop\n        /* \"#utility.yul\":7163:7181   */\n      0xffffffffffffffff\n        /* \"#utility.yul\":7155:7161   */\n      dup2\n        /* \"#utility.yul\":7152:7182   */\n      gt\n        /* \"#utility.yul\":7149:7266   */\n      iszero\n      tag_260\n      jumpi\n        /* \"#utility.yul\":7185:7264   */\n      tag_261\n      tag_117\n      jump\t// in\n    tag_261:\n        /* \"#utility.yul\":7149:7266   */\n    tag_260:\n        /* \"#utility.yul\":7299:7303   */\n      0x20\n        /* \"#utility.yul\":7291:7297   */\n      dup4\n        /* \"#utility.yul\":7287:7304   */\n      add\n        /* \"#utility.yul\":7275:7304   */\n      swap2\n      pop\n        /* \"#utility.yul\":7353:7356   */\n      dup4\n        /* \"#utility.yul\":7345:7349   */\n      0x01\n        /* \"#utility.yul\":7337:7343   */\n      dup3\n        /* \"#utility.yul\":7333:7350   */\n      mul\n        /* \"#utility.yul\":7323:7331   */\n      dup4\n        /* \"#utility.yul\":7319:7351   */\n      add\n        /* \"#utility.yul\":7316:7357   */\n      gt\n        /* \"#utility.yul\":7313:7441   */\n      iszero\n      tag_262\n      jumpi\n        /* \"#utility.yul\":7360:7439   */\n      tag_263\n      tag_118\n      jump\t// in\n    tag_263:\n        /* \"#utility.yul\":7313:7441   */\n    tag_262:\n        /* \"#utility.yul\":6894:7447   */\n      swap3\n      pop\n      swap3\n      swap1\n      pop\n      jump\t// out\n        /* \"#utility.yul\":7453:8642   */\n    tag_34:\n        /* \"#utility.yul\":7575:7581   */\n      0x00\n        /* \"#utility.yul\":7583:7589   */\n      dup1\n        /* \"#utility.yul\":7591:7597   */\n      0x00\n        /* \"#utility.yul\":7599:7605   */\n      dup1\n        /* \"#utility.yul\":7607:7613   */\n      0x00\n        /* \"#utility.yul\":7615:7621   */\n      dup1\n        /* \"#utility.yul\":7664:7667   */\n      0x80\n        /* \"#utility.yul\":7652:7661   */\n      dup8\n        /* \"#utility.yul\":7643:7650   */\n      dup10\n        /* \"#utility.yul\":7639:7662   */\n      sub\n        /* \"#utility.yul\":7635:7668   */\n      slt\n        /* \"#utility.yul\":7632:7752   */\n      iszero\n      tag_265\n      jumpi\n        /* \"#utility.yul\":7671:7750   */\n      tag_266\n      tag_114\n      jump\t// in\n    tag_266:\n        /* \"#utility.yul\":7632:7752   */\n    tag_265:\n        /* \"#utility.yul\":7791:7792   */\n      0x00\n        /* \"#utility.yul\":7816:7866   */\n      tag_267\n        /* \"#utility.yul\":7858:7865   */\n      dup10\n        /* \"#utility.yul\":7849:7855   */\n      dup3\n        /* \"#utility.yul\":7838:7847   */\n      dup11\n        /* \"#utility.yul\":7834:7856   */\n      add\n        /* \"#utility.yul\":7816:7866   */\n      tag_139\n      jump\t// in\n    tag_267:\n        /* \"#utility.yul\":7806:7866   */\n      swap7\n      pop\n        /* \"#utility.yul\":7762:7876   */\n      pop\n        /* \"#utility.yul\":7943:7945   */\n      0x20\n        /* \"#utility.yul\":7932:7941   */\n      dup8\n        /* \"#utility.yul\":7928:7946   */\n      add\n        /* \"#utility.yul\":7915:7947   */\n      calldataload\n        /* \"#utility.yul\":7974:7992   */\n      0xffffffffffffffff\n        /* \"#utility.yul\":7966:7972   */\n      dup2\n        /* \"#utility.yul\":7963:7993   */\n      gt\n        /* \"#utility.yul\":7960:8077   */\n      iszero\n      tag_268\n      jumpi\n        /* \"#utility.yul\":7996:8075   */\n      tag_269\n      tag_115\n      jump\t// in\n    tag_269:\n        /* \"#utility.yul\":7960:8077   */\n    tag_268:\n        /* \"#utility.yul\":8109:8189   */\n      tag_270\n        /* \"#utility.yul\":8181:8188   */\n      dup10\n        /* \"#utility.yul\":8172:8178   */\n      dup3\n        /* \"#utility.yul\":8161:8170   */\n      dup11\n        /* \"#utility.yul\":8157:8179   */\n      add\n        /* \"#utility.yul\":8109:8189   */\n      tag_140\n      jump\t// in\n    tag_270:\n        /* \"#utility.yul\":8091:8189   */\n      swap6\n      pop\n      swap6\n      pop\n        /* \"#utility.yul\":7886:8199   */\n      pop\n        /* \"#utility.yul\":8238:8240   */\n      0x40\n        /* \"#utility.yul\":8264:8317   */\n      tag_271\n        /* \"#utility.yul\":8309:8316   */\n      dup10\n        /* \"#utility.yul\":8300:8306   */\n      dup3\n        /* \"#utility.yul\":8289:8298   */\n      dup11\n        /* \"#utility.yul\":8285:8307   */\n      add\n        /* \"#utility.yul\":8264:8317   */\n      tag_131\n      jump\t// in\n    tag_271:\n        /* \"#utility.yul\":8254:8317   */\n      swap4\n      pop\n        /* \"#utility.yul\":8209:8327   */\n      pop\n        /* \"#utility.yul\":8394:8396   */\n      0x60\n        /* \"#utility.yul\":8383:8392   */\n      dup8\n        /* \"#utility.yul\":8379:8397   */\n      add\n        /* \"#utility.yul\":8366:8398   */\n      calldataload\n        /* \"#utility.yul\":8425:8443   */\n      0xffffffffffffffff\n        /* \"#utility.yul\":8417:8423   */\n      dup2\n        /* \"#utility.yul\":8414:8444   */\n      gt\n        /* \"#utility.yul\":8411:8528   */\n      iszero\n      tag_272\n      jumpi\n        /* \"#utility.yul\":8447:8526   */\n      tag_273\n      tag_115\n      jump\t// in\n    tag_273:\n        /* \"#utility.yul\":8411:8528   */\n    tag_272:\n        /* \"#utility.yul\":8560:8625   */\n      tag_274\n        /* \"#utility.yul\":8617:8624   */\n      dup10\n        /* \"#utility.yul\":8608:8614   */\n      dup3\n        /* \"#utility.yul\":8597:8606   */\n      dup11\n        /* \"#utility.yul\":8593:8615   */\n      add\n        /* \"#utility.yul\":8560:8625   */\n      tag_141\n      jump\t// in\n    tag_274:\n        /* \"#utility.yul\":8542:8625   */\n      swap3\n      pop\n      swap3\n      pop\n        /* \"#utility.yul\":8337:8635   */\n      pop\n        /* \"#utility.yul\":7453:8642   */\n      swap3\n      swap6\n      pop\n      swap3\n      swap6\n      pop\n      swap3\n      swap6\n      jump\t// out\n        /* \"#utility.yul\":8648:8765   */\n    tag_142:\n        /* \"#utility.yul\":8757:8758   */\n      0x00\n        /* \"#utility.yul\":8754:8755   */\n      dup1\n        /* \"#utility.yul\":8747:8759   */\n      revert\n        /* \"#utility.yul\":8771:8951   */\n    tag_143:\n        /* \"#utility.yul\":8819:8896   */\n      0x4e487b7100000000000000000000000000000000000000000000000000000000\n        /* \"#utility.yul\":8816:8817   */\n      0x00\n        /* \"#utility.yul\":8809:8897   */\n      mstore\n        /* \"#utility.yul\":8916:8920   */\n      0x41\n        /* \"#utility.yul\":8913:8914   */\n      0x04\n        /* \"#utility.yul\":8906:8921   */\n      mstore\n        /* \"#utility.yul\":8940:8944   */\n      0x24\n        /* \"#utility.yul\":8937:8938   */\n      0x00\n        /* \"#utility.yul\":8930:8945   */\n      revert\n        /* \"#utility.yul\":8957:9238   */\n    tag_144:\n        /* \"#utility.yul\":9040:9067   */\n      tag_278\n        /* \"#utility.yul\":9062:9066   */\n      dup3\n        /* \"#utility.yul\":9040:9067   */\n      tag_123\n      jump\t// in\n    tag_278:\n        /* \"#utility.yul\":9032:9038   */\n      dup2\n        /* \"#utility.yul\":9028:9068   */\n      add\n        /* \"#utility.yul\":9170:9176   */\n      dup2\n        /* \"#utility.yul\":9158:9168   */\n      dup2\n        /* \"#utility.yul\":9155:9177   */\n      lt\n        /* \"#utility.yul\":9134:9152   */\n      0xffffffffffffffff\n        /* \"#utility.yul\":9122:9132   */\n      dup3\n        /* \"#utility.yul\":9119:9153   */\n      gt\n        /* \"#utility.yul\":9116:9178   */\n      or\n        /* \"#utility.yul\":9113:9201   */\n      iszero\n      tag_279\n      jumpi\n        /* \"#utility.yul\":9181:9199   */\n      tag_280\n      tag_143\n      jump\t// in\n    tag_280:\n        /* \"#utility.yul\":9113:9201   */\n    tag_279:\n        /* \"#utility.yul\":9221:9231   */\n      dup1\n        /* \"#utility.yul\":9217:9219   */\n      0x40\n        /* \"#utility.yul\":9210:9232   */\n      mstore\n        /* \"#utility.yul\":9000:9238   */\n      pop\n        /* \"#utility.yul\":8957:9238   */\n      pop\n      pop\n      jump\t// out\n        /* \"#utility.yul\":9244:9373   */\n    tag_145:\n        /* \"#utility.yul\":9278:9284   */\n      0x00\n        /* \"#utility.yul\":9305:9325   */\n      tag_282\n      tag_113\n      jump\t// in\n    tag_282:\n        /* \"#utility.yul\":9295:9325   */\n      swap1\n      pop\n        /* \"#utility.yul\":9334:9367   */\n      tag_283\n        /* \"#utility.yul\":9362:9366   */\n      dup3\n        /* \"#utility.yul\":9354:9360   */\n      dup3\n        /* \"#utility.yul\":9334:9367   */\n      tag_144\n      jump\t// in\n    tag_283:\n        /* \"#utility.yul\":9244:9373   */\n      swap2\n      swap1\n      pop\n      jump\t// out\n        /* \"#utility.yul\":9379:9687   */\n    tag_146:\n        /* \"#utility.yul\":9441:9445   */\n      0x00\n        /* \"#utility.yul\":9531:9549   */\n      0xffffffffffffffff\n        /* \"#utility.yul\":9523:9529   */\n      dup3\n        /* \"#utility.yul\":9520:9550   */\n      gt\n        /* \"#utility.yul\":9517:9573   */\n      iszero\n      tag_285\n      jumpi\n        /* \"#utility.yul\":9553:9571   */\n      tag_286\n      tag_143\n      jump\t// in\n    tag_286:\n        /* \"#utility.yul\":9517:9573   */\n    tag_285:\n        /* \"#utility.yul\":9591:9620   */\n      tag_287\n        /* \"#utility.yul\":9613:9619   */\n      dup3\n        /* \"#utility.yul\":9591:9620   */\n      tag_123\n      jump\t// in\n    tag_287:\n        /* \"#utility.yul\":9583:9620   */\n      swap1\n      pop\n        /* \"#utility.yul\":9675:9679   */\n      0x20\n        /* \"#utility.yul\":9669:9673   */\n      dup2\n        /* \"#utility.yul\":9665:9680   */\n      add\n        /* \"#utility.yul\":9657:9680   */\n      swap1\n      pop\n        /* \"#utility.yul\":9379:9687   */\n      swap2\n      swap1\n      pop\n      jump\t// out\n        /* \"#utility.yul\":9693:9839   */\n    tag_147:\n        /* \"#utility.yul\":9790:9796   */\n      dup3\n        /* \"#utility.yul\":9785:9788   */\n      dup2\n        /* \"#utility.yul\":9780:9783   */\n      dup4\n        /* \"#utility.yul\":9767:9797   */\n      calldatacopy\n        /* \"#utility.yul\":9831:9832   */\n      0x00\n        /* \"#utility.yul\":9822:9828   */\n      dup4\n        /* \"#utility.yul\":9817:9820   */\n      dup4\n        /* \"#utility.yul\":9813:9829   */\n      add\n        /* \"#utility.yul\":9806:9833   */\n      mstore\n        /* \"#utility.yul\":9693:9839   */\n      pop\n      pop\n      pop\n      jump\t// out\n        /* \"#utility.yul\":9845:10270   */\n    tag_148:\n        /* \"#utility.yul\":9923:9928   */\n      0x00\n        /* \"#utility.yul\":9948:10014   */\n      tag_290\n        /* \"#utility.yul\":9964:10013   */\n      tag_291\n        /* \"#utility.yul\":10006:10012   */\n      dup5\n        /* \"#utility.yul\":9964:10013   */\n      tag_146\n      jump\t// in\n    tag_291:\n        /* \"#utility.yul\":9948:10014   */\n      tag_145\n      jump\t// in\n    tag_290:\n        /* \"#utility.yul\":9939:10014   */\n      swap1\n      pop\n        /* \"#utility.yul\":10037:10043   */\n      dup3\n        /* \"#utility.yul\":10030:10035   */\n      dup2\n        /* \"#utility.yul\":10023:10044   */\n      mstore\n        /* \"#utility.yul\":10075:10079   */\n      0x20\n        /* \"#utility.yul\":10068:10073   */\n      dup2\n        /* \"#utility.yul\":10064:10080   */\n      add\n        /* \"#utility.yul\":10113:10116   */\n      dup5\n        /* \"#utility.yul\":10104:10110   */\n      dup5\n        /* \"#utility.yul\":10099:10102   */\n      dup5\n        /* \"#utility.yul\":10095:10111   */\n      add\n        /* \"#utility.yul\":10092:10117   */\n      gt\n        /* \"#utility.yul\":10089:10201   */\n      iszero\n      tag_292\n      jumpi\n        /* \"#utility.yul\":10120:10199   */\n      tag_293\n      tag_142\n      jump\t// in\n    tag_293:\n        /* \"#utility.yul\":10089:10201   */\n    tag_292:\n        /* \"#utility.yul\":10210:10264   */\n      tag_294\n        /* \"#utility.yul\":10257:10263   */\n      dup5\n        /* \"#utility.yul\":10252:10255   */\n      dup3\n        /* \"#utility.yul\":10247:10250   */\n      dup6\n        /* \"#utility.yul\":10210:10264   */\n      tag_147\n      jump\t// in\n    tag_294:\n        /* \"#utility.yul\":9929:10270   */\n      pop\n        /* \"#utility.yul\":9845:10270   */\n      swap4\n      swap3\n      pop\n      pop\n      pop\n      jump\t// out\n        /* \"#utility.yul\":10290:10630   */\n    tag_149:\n        /* \"#utility.yul\":10346:10351   */\n      0x00\n        /* \"#utility.yul\":10395:10398   */\n      dup3\n        /* \"#utility.yul\":10388:10392   */\n      0x1f\n        /* \"#utility.yul\":10380:10386   */\n      dup4\n        /* \"#utility.yul\":10376:10393   */\n      add\n        /* \"#utility.yul\":10372:10399   */\n      slt\n        /* \"#utility.yul\":10362:10484   */\n      tag_296\n      jumpi\n        /* \"#utility.yul\":10403:10482   */\n      tag_297\n      tag_116\n      jump\t// in\n    tag_297:\n        /* \"#utility.yul\":10362:10484   */\n    tag_296:\n        /* \"#utility.yul\":10520:10526   */\n      dup2\n        /* \"#utility.yul\":10507:10527   */\n      calldataload\n        /* \"#utility.yul\":10545:10624   */\n      tag_298\n        /* \"#utility.yul\":10620:10623   */\n      dup5\n        /* \"#utility.yul\":10612:10618   */\n      dup3\n        /* \"#utility.yul\":10605:10609   */\n      0x20\n        /* \"#utility.yul\":10597:10603   */\n      dup7\n        /* \"#utility.yul\":10593:10610   */\n      add\n        /* \"#utility.yul\":10545:10624   */\n      tag_148\n      jump\t// in\n    tag_298:\n        /* \"#utility.yul\":10536:10624   */\n      swap2\n      pop\n        /* \"#utility.yul\":10352:10630   */\n      pop\n        /* \"#utility.yul\":10290:10630   */\n      swap3\n      swap2\n      pop\n      pop\n      jump\t// out\n        /* \"#utility.yul\":10636:11145   */\n    tag_50:\n        /* \"#utility.yul\":10705:10711   */\n      0x00\n        /* \"#utility.yul\":10754:10756   */\n      0x20\n        /* \"#utility.yul\":10742:10751   */\n      dup3\n        /* \"#utility.yul\":10733:10740   */\n      dup5\n        /* \"#utility.yul\":10729:10752   */\n      sub\n        /* \"#utility.yul\":10725:10757   */\n      slt\n        /* \"#utility.yul\":10722:10841   */\n      iszero\n      tag_300\n      jumpi\n        /* \"#utility.yul\":10760:10839   */\n      tag_301\n      tag_114\n      jump\t// in\n    tag_301:\n        /* \"#utility.yul\":10722:10841   */\n    tag_300:\n        /* \"#utility.yul\":10908:10909   */\n      0x00\n        /* \"#utility.yul\":10897:10906   */\n      dup3\n        /* \"#utility.yul\":10893:10910   */\n      add\n        /* \"#utility.yul\":10880:10911   */\n      calldataload\n        /* \"#utility.yul\":10938:10956   */\n      0xffffffffffffffff\n        /* \"#utility.yul\":10930:10936   */\n      dup2\n        /* \"#utility.yul\":10927:10957   */\n      gt\n        /* \"#utility.yul\":10924:11041   */\n      iszero\n      tag_302\n      jumpi\n        /* \"#utility.yul\":10960:11039   */\n      tag_303\n      tag_115\n      jump\t// in\n    tag_303:\n        /* \"#utility.yul\":10924:11041   */\n    tag_302:\n        /* \"#utility.yul\":11065:11128   */\n      tag_304\n        /* \"#utility.yul\":11120:11127   */\n      dup5\n        /* \"#utility.yul\":11111:11117   */\n      dup3\n        /* \"#utility.yul\":11100:11109   */\n      dup6\n        /* \"#utility.yul\":11096:11118   */\n      add\n        /* \"#utility.yul\":11065:11128   */\n      tag_149\n      jump\t// in\n    tag_304:\n        /* \"#utility.yul\":11055:11128   */\n      swap2\n      pop\n        /* \"#utility.yul\":10851:11138   */\n      pop\n        /* \"#utility.yul\":10636:11145   */\n      swap3\n      swap2\n      pop\n      pop\n      jump\t// out\n        /* \"#utility.yul\":11151:11255   */\n    tag_150:\n        /* \"#utility.yul\":11196:11203   */\n      0x00\n        /* \"#utility.yul\":11225:11249   */\n      tag_306\n        /* \"#utility.yul\":11243:11248   */\n      dup3\n        /* \"#utility.yul\":11225:11249   */\n      tag_127\n      jump\t// in\n    tag_306:\n        /* \"#utility.yul\":11214:11249   */\n      swap1\n      pop\n        /* \"#utility.yul\":11151:11255   */\n      swap2\n      swap1\n      pop\n      jump\t// out\n        /* \"#utility.yul\":11261:11399   */\n    tag_151:\n        /* \"#utility.yul\":11342:11374   */\n      tag_308\n        /* \"#utility.yul\":11368:11373   */\n      dup2\n        /* \"#utility.yul\":11342:11374   */\n      tag_150\n      jump\t// in\n    tag_308:\n        /* \"#utility.yul\":11335:11340   */\n      dup2\n        /* \"#utility.yul\":11332:11375   */\n      eq\n        /* \"#utility.yul\":11322:11393   */\n      tag_309\n      jumpi\n        /* \"#utility.yul\":11389:11390   */\n      0x00\n        /* \"#utility.yul\":11386:11387   */\n      dup1\n        /* \"#utility.yul\":11379:11391   */\n      revert\n        /* \"#utility.yul\":11322:11393   */\n    tag_309:\n        /* \"#utility.yul\":11261:11399   */\n      pop\n      jump\t// out\n        /* \"#utility.yul\":11405:11560   */\n    tag_152:\n        /* \"#utility.yul\":11459:11464   */\n      0x00\n        /* \"#utility.yul\":11497:11503   */\n      dup2\n        /* \"#utility.yul\":11484:11504   */\n      calldataload\n        /* \"#utility.yul\":11475:11504   */\n      swap1\n      pop\n        /* \"#utility.yul\":11513:11554   */\n      tag_311\n        /* \"#utility.yul\":11548:11553   */\n      dup2\n        /* \"#utility.yul\":11513:11554   */\n      tag_151\n      jump\t// in\n    tag_311:\n        /* \"#utility.yul\":11405:11560   */\n      swap3\n      swap2\n      pop\n      pop\n      jump\t// out\n        /* \"#utility.yul\":11566:12381   */\n    tag_77:\n        /* \"#utility.yul\":11661:11667   */\n      0x00\n        /* \"#utility.yul\":11669:11675   */\n      dup1\n        /* \"#utility.yul\":11677:11683   */\n      0x00\n        /* \"#utility.yul\":11726:11728   */\n      0x60\n        /* \"#utility.yul\":11714:11723   */\n      dup5\n        /* \"#utility.yul\":11705:11712   */\n      dup7\n        /* \"#utility.yul\":11701:11724   */\n      sub\n        /* \"#utility.yul\":11697:11729   */\n      slt\n        /* \"#utility.yul\":11694:11813   */\n      iszero\n      tag_313\n      jumpi\n        /* \"#utility.yul\":11732:11811   */\n      tag_314\n      tag_114\n      jump\t// in\n    tag_314:\n        /* \"#utility.yul\":11694:11813   */\n    tag_313:\n        /* \"#utility.yul\":11880:11881   */\n      0x00\n        /* \"#utility.yul\":11869:11878   */\n      dup5\n        /* \"#utility.yul\":11865:11882   */\n      add\n        /* \"#utility.yul\":11852:11883   */\n      calldataload\n        /* \"#utility.yul\":11910:11928   */\n      0xffffffffffffffff\n        /* \"#utility.yul\":11902:11908   */\n      dup2\n        /* \"#utility.yul\":11899:11929   */\n      gt\n        /* \"#utility.yul\":11896:12013   */\n      iszero\n      tag_315\n      jumpi\n        /* \"#utility.yul\":11932:12011   */\n      tag_316\n      tag_115\n      jump\t// in\n    tag_316:\n        /* \"#utility.yul\":11896:12013   */\n    tag_315:\n        /* \"#utility.yul\":12037:12100   */\n      tag_317\n        /* \"#utility.yul\":12092:12099   */\n      dup7\n        /* \"#utility.yul\":12083:12089   */\n      dup3\n        /* \"#utility.yul\":12072:12081   */\n      dup8\n        /* \"#utility.yul\":12068:12090   */\n      add\n        /* \"#utility.yul\":12037:12100   */\n      tag_149\n      jump\t// in\n    tag_317:\n        /* \"#utility.yul\":12027:12100   */\n      swap4\n      pop\n        /* \"#utility.yul\":11823:12110   */\n      pop\n        /* \"#utility.yul\":12149:12151   */\n      0x20\n        /* \"#utility.yul\":12175:12228   */\n      tag_318\n        /* \"#utility.yul\":12220:12227   */\n      dup7\n        /* \"#utility.yul\":12211:12217   */\n      dup3\n        /* \"#utility.yul\":12200:12209   */\n      dup8\n        /* \"#utility.yul\":12196:12218   */\n      add\n        /* \"#utility.yul\":12175:12228   */\n      tag_133\n      jump\t// in\n    tag_318:\n        /* \"#utility.yul\":12165:12228   */\n      swap3\n      pop\n        /* \"#utility.yul\":12120:12238   */\n      pop\n        /* \"#utility.yul\":12277:12279   */\n      0x40\n        /* \"#utility.yul\":12303:12364   */\n      tag_319\n        /* \"#utility.yul\":12356:12363   */\n      dup7\n        /* \"#utility.yul\":12347:12353   */\n      dup3\n        /* \"#utility.yul\":12336:12345   */\n      dup8\n        /* \"#utility.yul\":12332:12354   */\n      add\n        /* \"#utility.yul\":12303:12364   */\n      tag_152\n      jump\t// in\n    tag_319:\n        /* \"#utility.yul\":12293:12364   */\n      swap2\n      pop\n        /* \"#utility.yul\":12248:12374   */\n      pop\n        /* \"#utility.yul\":11566:12381   */\n      swap3\n      pop\n      swap3\n      pop\n      swap3\n      jump\t// out\n        /* \"#utility.yul\":12387:12719   */\n    tag_80:\n        /* \"#utility.yul\":12508:12512   */\n      0x00\n        /* \"#utility.yul\":12546:12548   */\n      0x40\n        /* \"#utility.yul\":12535:12544   */\n      dup3\n        /* \"#utility.yul\":12531:12549   */\n      add\n        /* \"#utility.yul\":12523:12549   */\n      swap1\n      pop\n        /* \"#utility.yul\":12559:12630   */\n      tag_321\n        /* \"#utility.yul\":12627:12628   */\n      0x00\n        /* \"#utility.yul\":12616:12625   */\n      dup4\n        /* \"#utility.yul\":12612:12629   */\n      add\n        /* \"#utility.yul\":12603:12609   */\n      dup6\n        /* \"#utility.yul\":12559:12630   */\n      tag_129\n      jump\t// in\n    tag_321:\n        /* \"#utility.yul\":12640:12712   */\n      tag_322\n        /* \"#utility.yul\":12708:12710   */\n      0x20\n        /* \"#utility.yul\":12697:12706   */\n      dup4\n        /* \"#utility.yul\":12693:12711   */\n      add\n        /* \"#utility.yul\":12684:12690   */\n      dup5\n        /* \"#utility.yul\":12640:12712   */\n      tag_126\n      jump\t// in\n    tag_322:\n        /* \"#utility.yul\":12387:12719   */\n      swap4\n      swap3\n      pop\n      pop\n      pop\n      jump\t// out\n        /* \"#utility.yul\":12725:12951   */\n    tag_153:\n        /* \"#utility.yul\":12865:12899   */\n      0x417070576f726b7328626f6f6c2c75696e743235365b5d2c616464726573732c\n        /* \"#utility.yul\":12861:12862   */\n      0x00\n        /* \"#utility.yul\":12853:12859   */\n      dup3\n        /* \"#utility.yul\":12849:12863   */\n      add\n        /* \"#utility.yul\":12842:12900   */\n      mstore\n        /* \"#utility.yul\":12934:12943   */\n      0x737472696e672900000000000000000000000000000000000000000000000000\n        /* \"#utility.yul\":12929:12931   */\n      0x20\n        /* \"#utility.yul\":12921:12927   */\n      dup3\n        /* \"#utility.yul\":12917:12932   */\n      add\n        /* \"#utility.yul\":12910:12944   */\n      mstore\n        /* \"#utility.yul\":12725:12951   */\n      pop\n      jump\t// out\n        /* \"#utility.yul\":12957:13323   */\n    tag_154:\n        /* \"#utility.yul\":13099:13102   */\n      0x00\n        /* \"#utility.yul\":13120:13187   */\n      tag_325\n        /* \"#utility.yul\":13184:13186   */\n      0x27\n        /* \"#utility.yul\":13179:13182   */\n      dup4\n        /* \"#utility.yul\":13120:13187   */\n      tag_121\n      jump\t// in\n    tag_325:\n        /* \"#utility.yul\":13113:13187   */\n      swap2\n      pop\n        /* \"#utility.yul\":13196:13289   */\n      tag_326\n        /* \"#utility.yul\":13285:13288   */\n      dup3\n        /* \"#utility.yul\":13196:13289   */\n      tag_153\n      jump\t// in\n    tag_326:\n        /* \"#utility.yul\":13314:13316   */\n      0x40\n        /* \"#utility.yul\":13309:13312   */\n      dup3\n        /* \"#utility.yul\":13305:13317   */\n      add\n        /* \"#utility.yul\":13298:13317   */\n      swap1\n      pop\n        /* \"#utility.yul\":12957:13323   */\n      swap2\n      swap1\n      pop\n      jump\t// out\n        /* \"#utility.yul\":13329:13438   */\n    tag_155:\n        /* \"#utility.yul\":13410:13431   */\n      tag_328\n        /* \"#utility.yul\":13425:13430   */\n      dup2\n        /* \"#utility.yul\":13410:13431   */\n      tag_137\n      jump\t// in\n    tag_328:\n        /* \"#utility.yul\":13405:13408   */\n      dup3\n        /* \"#utility.yul\":13398:13432   */\n      mstore\n        /* \"#utility.yul\":13329:13438   */\n      pop\n      pop\n      jump\t// out\n        /* \"#utility.yul\":13444:13628   */\n    tag_156:\n        /* \"#utility.yul\":13543:13554   */\n      0x00\n        /* \"#utility.yul\":13577:13583   */\n      dup3\n        /* \"#utility.yul\":13572:13575   */\n      dup3\n        /* \"#utility.yul\":13565:13584   */\n      mstore\n        /* \"#utility.yul\":13617:13621   */\n      0x20\n        /* \"#utility.yul\":13612:13615   */\n      dup3\n        /* \"#utility.yul\":13608:13622   */\n      add\n        /* \"#utility.yul\":13593:13622   */\n      swap1\n      pop\n        /* \"#utility.yul\":13444:13628   */\n      swap3\n      swap2\n      pop\n      pop\n      jump\t// out\n        /* \"#utility.yul\":13634:13751   */\n    tag_157:\n        /* \"#utility.yul\":13743:13744   */\n      0x00\n        /* \"#utility.yul\":13740:13741   */\n      dup1\n        /* \"#utility.yul\":13733:13745   */\n      revert\n        /* \"#utility.yul\":13757:13855   */\n    tag_158:\n        /* \"#utility.yul\":13841:13847   */\n      dup3\n        /* \"#utility.yul\":13836:13839   */\n      dup2\n        /* \"#utility.yul\":13831:13834   */\n      dup4\n        /* \"#utility.yul\":13818:13848   */\n      calldatacopy\n        /* \"#utility.yul\":13757:13855   */\n      pop\n      pop\n      pop\n      jump\t// out\n        /* \"#utility.yul\":13891:14428   */\n    tag_159:\n        /* \"#utility.yul\":14019:14022   */\n      0x00\n        /* \"#utility.yul\":14040:14126   */\n      tag_333\n        /* \"#utility.yul\":14119:14125   */\n      dup4\n        /* \"#utility.yul\":14114:14117   */\n      dup6\n        /* \"#utility.yul\":14040:14126   */\n      tag_156\n      jump\t// in\n    tag_333:\n        /* \"#utility.yul\":14033:14126   */\n      swap4\n      pop\n        /* \"#utility.yul\":14150:14216   */\n      0x07ffffffffffffffffffffffffffffffffffffffffffffffffffffffffffffff\n        /* \"#utility.yul\":14142:14148   */\n      dup4\n        /* \"#utility.yul\":14139:14217   */\n      gt\n        /* \"#utility.yul\":14136:14301   */\n      iszero\n      tag_334\n      jumpi\n        /* \"#utility.yul\":14220:14299   */\n      tag_335\n      tag_157\n      jump\t// in\n    tag_335:\n        /* \"#utility.yul\":14136:14301   */\n    tag_334:\n        /* \"#utility.yul\":14332:14336   */\n      0x20\n        /* \"#utility.yul\":14324:14330   */\n      dup4\n        /* \"#utility.yul\":14320:14337   */\n      mul\n        /* \"#utility.yul\":14310:14337   */\n      swap3\n      pop\n        /* \"#utility.yul\":14347:14390   */\n      tag_336\n        /* \"#utility.yul\":14383:14389   */\n      dup4\n        /* \"#utility.yul\":14378:14381   */\n      dup6\n        /* \"#utility.yul\":14371:14376   */\n      dup5\n        /* \"#utility.yul\":14347:14390   */\n      tag_158\n      jump\t// in\n    tag_336:\n        /* \"#utility.yul\":14415:14421   */\n      dup3\n        /* \"#utility.yul\":14410:14413   */\n      dup5\n        /* \"#utility.yul\":14406:14422   */\n      add\n        /* \"#utility.yul\":14399:14422   */\n      swap1\n      pop\n        /* \"#utility.yul\":13891:14428   */\n      swap4\n      swap3\n      pop\n      pop\n      pop\n      jump\t// out\n        /* \"#utility.yul\":14458:14775   */\n    tag_160:\n        /* \"#utility.yul\":14556:14559   */\n      0x00\n        /* \"#utility.yul\":14577:14648   */\n      tag_338\n        /* \"#utility.yul\":14641:14647   */\n      dup4\n        /* \"#utility.yul\":14636:14639   */\n      dup6\n        /* \"#utility.yul\":14577:14648   */\n      tag_121\n      jump\t// in\n    tag_338:\n        /* \"#utility.yul\":14570:14648   */\n      swap4\n      pop\n        /* \"#utility.yul\":14658:14714   */\n      tag_339\n        /* \"#utility.yul\":14707:14713   */\n      dup4\n        /* \"#utility.yul\":14702:14705   */\n      dup6\n        /* \"#utility.yul\":14695:14700   */\n      dup5\n        /* \"#utility.yul\":14658:14714   */\n      tag_147\n      jump\t// in\n    tag_339:\n        /* \"#utility.yul\":14739:14768   */\n      tag_340\n        /* \"#utility.yul\":14761:14767   */\n      dup4\n        /* \"#utility.yul\":14739:14768   */\n      tag_123\n      jump\t// in\n    tag_340:\n        /* \"#utility.yul\":14734:14737   */\n      dup5\n        /* \"#utility.yul\":14730:14769   */\n      add\n        /* \"#utility.yul\":14723:14769   */\n      swap1\n      pop\n        /* \"#utility.yul\":14458:14775   */\n      swap4\n      swap3\n      pop\n      pop\n      pop\n      jump\t// out\n        /* \"#utility.yul\":14781:15912   */\n    tag_83:\n        /* \"#utility.yul\":15143:15147   */\n      0x00\n        /* \"#utility.yul\":15181:15184   */\n      0xa0\n        /* \"#utility.yul\":15170:15179   */\n      dup3\n        /* \"#utility.yul\":15166:15185   */\n      add\n        /* \"#utility.yul\":15158:15185   */\n      swap1\n      pop\n        /* \"#utility.yul\":15231:15240   */\n      dup2\n        /* \"#utility.yul\":15225:15229   */\n      dup2\n        /* \"#utility.yul\":15221:15241   */\n      sub\n        /* \"#utility.yul\":15217:15218   */\n      0x00\n        /* \"#utility.yul\":15206:15215   */\n      dup4\n        /* \"#utility.yul\":15202:15219   */\n      add\n        /* \"#utility.yul\":15195:15242   */\n      mstore\n        /* \"#utility.yul\":15259:15390   */\n      tag_342\n        /* \"#utility.yul\":15385:15389   */\n      dup2\n        /* \"#utility.yul\":15259:15390   */\n      tag_154\n      jump\t// in\n    tag_342:\n        /* \"#utility.yul\":15251:15390   */\n      swap1\n      pop\n        /* \"#utility.yul\":15400:15466   */\n      tag_343\n        /* \"#utility.yul\":15462:15464   */\n      0x20\n        /* \"#utility.yul\":15451:15460   */\n      dup4\n        /* \"#utility.yul\":15447:15465   */\n      add\n        /* \"#utility.yul\":15438:15444   */\n      dup10\n        /* \"#utility.yul\":15400:15466   */\n      tag_155\n      jump\t// in\n    tag_343:\n        /* \"#utility.yul\":15513:15522   */\n      dup2\n        /* \"#utility.yul\":15507:15511   */\n      dup2\n        /* \"#utility.yul\":15503:15523   */\n      sub\n        /* \"#utility.yul\":15498:15500   */\n      0x40\n        /* \"#utility.yul\":15487:15496   */\n      dup4\n        /* \"#utility.yul\":15483:15501   */\n      add\n        /* \"#utility.yul\":15476:15524   */\n      mstore\n        /* \"#utility.yul\":15541:15659   */\n      tag_344\n        /* \"#utility.yul\":15654:15658   */\n      dup2\n        /* \"#utility.yul\":15645:15651   */\n      dup8\n        /* \"#utility.yul\":15637:15643   */\n      dup10\n        /* \"#utility.yul\":15541:15659   */\n      tag_159\n      jump\t// in\n    tag_344:\n        /* \"#utility.yul\":15533:15659   */\n      swap1\n      pop\n        /* \"#utility.yul\":15669:15741   */\n      tag_345\n        /* \"#utility.yul\":15737:15739   */\n      0x60\n        /* \"#utility.yul\":15726:15735   */\n      dup4\n        /* \"#utility.yul\":15722:15740   */\n      add\n        /* \"#utility.yul\":15713:15719   */\n      dup7\n        /* \"#utility.yul\":15669:15741   */\n      tag_129\n      jump\t// in\n    tag_345:\n        /* \"#utility.yul\":15789:15798   */\n      dup2\n        /* \"#utility.yul\":15783:15787   */\n      dup2\n        /* \"#utility.yul\":15779:15799   */\n      sub\n        /* \"#utility.yul\":15773:15776   */\n      0x80\n        /* \"#utility.yul\":15762:15771   */\n      dup4\n        /* \"#utility.yul\":15758:15777   */\n      add\n        /* \"#utility.yul\":15751:15800   */\n      mstore\n        /* \"#utility.yul\":15817:15905   */\n      tag_346\n        /* \"#utility.yul\":15900:15904   */\n      dup2\n        /* \"#utility.yul\":15891:15897   */\n      dup5\n        /* \"#utility.yul\":15883:15889   */\n      dup7\n        /* \"#utility.yul\":15817:15905   */\n      tag_160\n      jump\t// in\n    tag_346:\n        /* \"#utility.yul\":15809:15905   */\n      swap1\n      pop\n        /* \"#utility.yul\":14781:15912   */\n      swap8\n      swap7\n      pop\n      pop\n      pop\n      pop\n      pop\n      pop\n      pop\n      jump\t// out\n        /* \"#utility.yul\":15918:16066   */\n    tag_161:\n        /* \"#utility.yul\":16020:16031   */\n      0x00\n        /* \"#utility.yul\":16057:16060   */\n      dup2\n        /* \"#utility.yul\":16042:16060   */\n      swap1\n      pop\n        /* \"#utility.yul\":15918:16066   */\n      swap3\n      swap2\n      pop\n      pop\n      jump\t// out\n        /* \"#utility.yul\":16072:16230   */\n    tag_162:\n        /* \"#utility.yul\":16212:16222   */\n      0x617070776f726b73000000000000000000000000000000000000000000000000\n        /* \"#utility.yul\":16208:16209   */\n      0x00\n        /* \"#utility.yul\":16200:16206   */\n      dup3\n        /* \"#utility.yul\":16196:16210   */\n      add\n        /* \"#utility.yul\":16189:16223   */\n      mstore\n        /* \"#utility.yul\":16072:16230   */\n      pop\n      jump\t// out\n        /* \"#utility.yul\":16236:16636   */\n    tag_163:\n        /* \"#utility.yul\":16396:16399   */\n      0x00\n        /* \"#utility.yul\":16417:16501   */\n      tag_350\n        /* \"#utility.yul\":16499:16500   */\n      0x08\n        /* \"#utility.yul\":16494:16497   */\n      dup4\n        /* \"#utility.yul\":16417:16501   */\n      tag_161\n      jump\t// in\n    tag_350:\n        /* \"#utility.yul\":16410:16501   */\n      swap2\n      pop\n        /* \"#utility.yul\":16510:16603   */\n      tag_351\n        /* \"#utility.yul\":16599:16602   */\n      dup3\n        /* \"#utility.yul\":16510:16603   */\n      tag_162\n      jump\t// in\n    tag_351:\n        /* \"#utility.yul\":16628:16629   */\n      0x08\n        /* \"#utility.yul\":16623:16626   */\n      dup3\n        /* \"#utility.yul\":16619:16630   */\n      add\n        /* \"#utility.yul\":16612:16630   */\n      swap1\n      pop\n        /* \"#utility.yul\":16236:16636   */\n      swap2\n      swap1\n      pop\n      jump\t// out\n        /* \"#utility.yul\":16642:17023   */\n    tag_86:\n        /* \"#utility.yul\":16827:16830   */\n      0x00\n        /* \"#utility.yul\":16849:16997   */\n      tag_353\n        /* \"#utility.yul\":16993:16996   */\n      dup3\n        /* \"#utility.yul\":16849:16997   */\n      tag_163\n      jump\t// in\n    tag_353:\n        /* \"#utility.yul\":16842:16997   */\n      swap2\n      pop\n        /* \"#utility.yul\":17014:17017   */\n      dup2\n        /* \"#utility.yul\":17007:17017   */\n      swap1\n      pop\n        /* \"#utility.yul\":16642:17023   */\n      swap2\n      swap1\n      pop\n      jump\t// out\n        /* \"#utility.yul\":17029:17852   */\n    tag_89:\n        /* \"#utility.yul\":17290:17294   */\n      0x00\n        /* \"#utility.yul\":17328:17331   */\n      0x80\n        /* \"#utility.yul\":17317:17326   */\n      dup3\n        /* \"#utility.yul\":17313:17332   */\n      add\n        /* \"#utility.yul\":17305:17332   */\n      swap1\n      pop\n        /* \"#utility.yul\":17342:17407   */\n      tag_355\n        /* \"#utility.yul\":17404:17405   */\n      0x00\n        /* \"#utility.yul\":17393:17402   */\n      dup4\n        /* \"#utility.yul\":17389:17406   */\n      add\n        /* \"#utility.yul\":17380:17386   */\n      dup10\n        /* \"#utility.yul\":17342:17407   */\n      tag_155\n      jump\t// in\n    tag_355:\n        /* \"#utility.yul\":17454:17463   */\n      dup2\n        /* \"#utility.yul\":17448:17452   */\n      dup2\n        /* \"#utility.yul\":17444:17464   */\n      sub\n        /* \"#utility.yul\":17439:17441   */\n      0x20\n        /* \"#utility.yul\":17428:17437   */\n      dup4\n        /* \"#utility.yul\":17424:17442   */\n      add\n        /* \"#utility.yul\":17417:17465   */\n      mstore\n        /* \"#utility.yul\":17482:17600   */\n      tag_356\n        /* \"#utility.yul\":17595:17599   */\n      dup2\n        /* \"#utility.yul\":17586:17592   */\n      dup8\n        /* \"#utility.yul\":17578:17584   */\n      dup10\n        /* \"#utility.yul\":17482:17600   */\n      tag_159\n      jump\t// in\n    tag_356:\n        /* \"#utility.yul\":17474:17600   */\n      swap1\n      pop\n        /* \"#utility.yul\":17610:17682   */\n      tag_357\n        /* \"#utility.yul\":17678:17680   */\n      0x40\n        /* \"#utility.yul\":17667:17676   */\n      dup4\n        /* \"#utility.yul\":17663:17681   */\n      add\n        /* \"#utility.yul\":17654:17660   */\n      dup7\n        /* \"#utility.yul\":17610:17682   */\n      tag_129\n      jump\t// in\n    tag_357:\n        /* \"#utility.yul\":17729:17738   */\n      dup2\n        /* \"#utility.yul\":17723:17727   */\n      dup2\n        /* \"#utility.yul\":17719:17739   */\n      sub\n        /* \"#utility.yul\":17714:17716   */\n      0x60\n        /* \"#utility.yul\":17703:17712   */\n      dup4\n        /* \"#utility.yul\":17699:17717   */\n      add\n        /* \"#utility.yul\":17692:17740   */\n      mstore\n        /* \"#utility.yul\":17757:17845   */\n      tag_358\n        /* \"#utility.yul\":17840:17844   */\n      dup2\n        /* \"#utility.yul\":17831:17837   */\n      dup5\n        /* \"#utility.yul\":17823:17829   */\n      dup7\n        /* \"#utility.yul\":17757:17845   */\n      tag_160\n      jump\t// in\n    tag_358:\n        /* \"#utility.yul\":17749:17845   */\n      swap1\n      pop\n        /* \"#utility.yul\":17029:17852   */\n      swap8\n      swap7\n      pop\n      pop\n      pop\n      pop\n      pop\n      pop\n      pop\n      jump\t// out\n        /* \"#utility.yul\":17858:18248   */\n    tag_164:\n        /* \"#utility.yul\":17964:17967   */\n      0x00\n        /* \"#utility.yul\":17992:18031   */\n      tag_360\n        /* \"#utility.yul\":18025:18030   */\n      dup3\n        /* \"#utility.yul\":17992:18031   */\n      tag_120\n      jump\t// in\n    tag_360:\n        /* \"#utility.yul\":18047:18136   */\n      tag_361\n        /* \"#utility.yul\":18129:18135   */\n      dup2\n        /* \"#utility.yul\":18124:18127   */\n      dup6\n        /* \"#utility.yul\":18047:18136   */\n      tag_161\n      jump\t// in\n    tag_361:\n        /* \"#utility.yul\":18040:18136   */\n      swap4\n      pop\n        /* \"#utility.yul\":18145:18210   */\n      tag_362\n        /* \"#utility.yul\":18203:18209   */\n      dup2\n        /* \"#utility.yul\":18198:18201   */\n      dup6\n        /* \"#utility.yul\":18191:18195   */\n      0x20\n        /* \"#utility.yul\":18184:18189   */\n      dup7\n        /* \"#utility.yul\":18180:18196   */\n      add\n        /* \"#utility.yul\":18145:18210   */\n      tag_122\n      jump\t// in\n    tag_362:\n        /* \"#utility.yul\":18235:18241   */\n      dup1\n        /* \"#utility.yul\":18230:18233   */\n      dup5\n        /* \"#utility.yul\":18226:18242   */\n      add\n        /* \"#utility.yul\":18219:18242   */\n      swap2\n      pop\n        /* \"#utility.yul\":17968:18248   */\n      pop\n        /* \"#utility.yul\":17858:18248   */\n      swap3\n      swap2\n      pop\n      pop\n      jump\t// out\n        /* \"#utility.yul\":18254:18529   */\n    tag_94:\n        /* \"#utility.yul\":18386:18389   */\n      0x00\n        /* \"#utility.yul\":18408:18503   */\n      tag_364\n        /* \"#utility.yul\":18499:18502   */\n      dup3\n        /* \"#utility.yul\":18490:18496   */\n      dup5\n        /* \"#utility.yul\":18408:18503   */\n      tag_164\n      jump\t// in\n    tag_364:\n        /* \"#utility.yul\":18401:18503   */\n      swap2\n      pop\n        /* \"#utility.yul\":18520:18523   */\n      dup2\n        /* \"#utility.yul\":18513:18523   */\n      swap1\n      pop\n        /* \"#utility.yul\":18254:18529   */\n      swap3\n      swap2\n      pop\n      pop\n      jump\t// out\n        /* \"#utility.yul\":18535:18900   */\n    tag_165:\n        /* \"#utility.yul\":18677:18680   */\n      0x00\n        /* \"#utility.yul\":18698:18764   */\n      tag_366\n        /* \"#utility.yul\":18762:18763   */\n      0x08\n        /* \"#utility.yul\":18757:18760   */\n      dup4\n        /* \"#utility.yul\":18698:18764   */\n      tag_121\n      jump\t// in\n    tag_366:\n        /* \"#utility.yul\":18691:18764   */\n      swap2\n      pop\n        /* \"#utility.yul\":18773:18866   */\n      tag_367\n        /* \"#utility.yul\":18862:18865   */\n      dup3\n        /* \"#utility.yul\":18773:18866   */\n      tag_162\n      jump\t// in\n    tag_367:\n        /* \"#utility.yul\":18891:18893   */\n      0x20\n        /* \"#utility.yul\":18886:18889   */\n      dup3\n        /* \"#utility.yul\":18882:18894   */\n      add\n        /* \"#utility.yul\":18875:18894   */\n      swap1\n      pop\n        /* \"#utility.yul\":18535:18900   */\n      swap2\n      swap1\n      pop\n      jump\t// out\n        /* \"#utility.yul\":18906:19325   */\n    tag_97:\n        /* \"#utility.yul\":19072:19076   */\n      0x00\n        /* \"#utility.yul\":19110:19112   */\n      0x20\n        /* \"#utility.yul\":19099:19108   */\n      dup3\n        /* \"#utility.yul\":19095:19113   */\n      add\n        /* \"#utility.yul\":19087:19113   */\n      swap1\n      pop\n        /* \"#utility.yul\":19159:19168   */\n      dup2\n        /* \"#utility.yul\":19153:19157   */\n      dup2\n        /* \"#utility.yul\":19149:19169   */\n      sub\n        /* \"#utility.yul\":19145:19146   */\n      0x00\n        /* \"#utility.yul\":19134:19143   */\n      dup4\n        /* \"#utility.yul\":19130:19147   */\n      add\n        /* \"#utility.yul\":19123:19170   */\n      mstore\n        /* \"#utility.yul\":19187:19318   */\n      tag_369\n        /* \"#utility.yul\":19313:19317   */\n      dup2\n        /* \"#utility.yul\":19187:19318   */\n      tag_165\n      jump\t// in\n    tag_369:\n        /* \"#utility.yul\":19179:19318   */\n      swap1\n      pop\n        /* \"#utility.yul\":18906:19325   */\n      swap2\n      swap1\n      pop\n      jump\t// out\n        /* \"#utility.yul\":19331:19416   */\n    tag_166:\n        /* \"#utility.yul\":19376:19383   */\n      0x00\n        /* \"#utility.yul\":19405:19410   */\n      dup2\n        /* \"#utility.yul\":19394:19410   */\n      swap1\n      pop\n        /* \"#utility.yul\":19331:19416   */\n      swap2\n      swap1\n      pop\n      jump\t// out\n        /* \"#utility.yul\":19422:19508   */\n    tag_167:\n        /* \"#utility.yul\":19457:19464   */\n      0x00\n        /* \"#utility.yul\":19497:19501   */\n      0xff\n        /* \"#utility.yul\":19490:19495   */\n      dup3\n        /* \"#utility.yul\":19486:19502   */\n      and\n        /* \"#utility.yul\":19475:19502   */\n      swap1\n      pop\n        /* \"#utility.yul\":19422:19508   */\n      swap2\n      swap1\n      pop\n      jump\t// out\n        /* \"#utility.yul\":19514:19574   */\n    tag_168:\n        /* \"#utility.yul\":19542:19545   */\n      0x00\n        /* \"#utility.yul\":19563:19568   */\n      dup2\n        /* \"#utility.yul\":19556:19568   */\n      swap1\n      pop\n        /* \"#utility.yul\":19514:19574   */\n      swap2\n      swap1\n      pop\n      jump\t// out\n        /* \"#utility.yul\":19580:19734   */\n    tag_169:\n        /* \"#utility.yul\":19636:19645   */\n      0x00\n        /* \"#utility.yul\":19669:19728   */\n      tag_374\n        /* \"#utility.yul\":19685:19727   */\n      tag_375\n        /* \"#utility.yul\":19694:19726   */\n      tag_376\n        /* \"#utility.yul\":19720:19725   */\n      dup5\n        /* \"#utility.yul\":19694:19726   */\n      tag_166\n      jump\t// in\n    tag_376:\n        /* \"#utility.yul\":19685:19727   */\n      tag_168\n      jump\t// in\n    tag_375:\n        /* \"#utility.yul\":19669:19728   */\n      tag_167\n      jump\t// in\n    tag_374:\n        /* \"#utility.yul\":19656:19728   */\n      swap1\n      pop\n        /* \"#utility.yul\":19580:19734   */\n      swap2\n      swap1\n      pop\n      jump\t// out\n        /* \"#utility.yul\":19740:19883   */\n    tag_170:\n        /* \"#utility.yul\":19833:19876   */\n      tag_378\n        /* \"#utility.yul\":19870:19875   */\n      dup2\n        /* \"#utility.yul\":19833:19876   */\n      tag_169\n      jump\t// in\n    tag_378:\n        /* \"#utility.yul\":19828:19831   */\n      dup3\n        /* \"#utility.yul\":19821:19877   */\n      mstore\n        /* \"#utility.yul\":19740:19883   */\n      pop\n      pop\n      jump\t// out\n        /* \"#utility.yul\":19889:19975   */\n    tag_171:\n        /* \"#utility.yul\":19935:19942   */\n      0x00\n        /* \"#utility.yul\":19964:19969   */\n      dup2\n        /* \"#utility.yul\":19953:19969   */\n      swap1\n      pop\n        /* \"#utility.yul\":19889:19975   */\n      swap2\n      swap1\n      pop\n      jump\t// out\n        /* \"#utility.yul\":19981:20137   */\n    tag_172:\n        /* \"#utility.yul\":20038:20047   */\n      0x00\n        /* \"#utility.yul\":20071:20131   */\n      tag_381\n        /* \"#utility.yul\":20087:20130   */\n      tag_382\n        /* \"#utility.yul\":20096:20129   */\n      tag_383\n        /* \"#utility.yul\":20123:20128   */\n      dup5\n        /* \"#utility.yul\":20096:20129   */\n      tag_171\n      jump\t// in\n    tag_383:\n        /* \"#utility.yul\":20087:20130   */\n      tag_168\n      jump\t// in\n    tag_382:\n        /* \"#utility.yul\":20071:20131   */\n      tag_167\n      jump\t// in\n    tag_381:\n        /* \"#utility.yul\":20058:20131   */\n      swap1\n      pop\n        /* \"#utility.yul\":19981:20137   */\n      swap2\n      swap1\n      pop\n      jump\t// out\n        /* \"#utility.yul\":20143:20288   */\n    tag_173:\n        /* \"#utility.yul\":20237:20281   */\n      tag_385\n        /* \"#utility.yul\":20275:20280   */\n      dup2\n        /* \"#utility.yul\":20237:20281   */\n      tag_172\n      jump\t// in\n    tag_385:\n        /* \"#utility.yul\":20232:20235   */\n      dup3\n        /* \"#utility.yul\":20225:20282   */\n      mstore\n        /* \"#utility.yul\":20143:20288   */\n      pop\n      pop\n      jump\t// out\n        /* \"#utility.yul\":20294:20447   */\n    tag_174:\n        /* \"#utility.yul\":20434:20439   */\n      0x6a696d0000000000000000000000000000000000000000000000000000000000\n        /* \"#utility.yul\":20430:20431   */\n      0x00\n        /* \"#utility.yul\":20422:20428   */\n      dup3\n        /* \"#utility.yul\":20418:20432   */\n      add\n        /* \"#utility.yul\":20411:20440   */\n      mstore\n        /* \"#utility.yul\":20294:20447   */\n      pop\n      jump\t// out\n        /* \"#utility.yul\":20453:20818   */\n    tag_175:\n        /* \"#utility.yul\":20595:20598   */\n      0x00\n        /* \"#utility.yul\":20616:20682   */\n      tag_388\n        /* \"#utility.yul\":20680:20681   */\n      0x03\n        /* \"#utility.yul\":20675:20678   */\n      dup4\n        /* \"#utility.yul\":20616:20682   */\n      tag_121\n      jump\t// in\n    tag_388:\n        /* \"#utility.yul\":20609:20682   */\n      swap2\n      pop\n        /* \"#utility.yul\":20691:20784   */\n      tag_389\n        /* \"#utility.yul\":20780:20783   */\n      dup3\n        /* \"#utility.yul\":20691:20784   */\n      tag_174\n      jump\t// in\n    tag_389:\n        /* \"#utility.yul\":20809:20811   */\n      0x20\n        /* \"#utility.yul\":20804:20807   */\n      dup3\n        /* \"#utility.yul\":20800:20812   */\n      add\n        /* \"#utility.yul\":20793:20812   */\n      swap1\n      pop\n        /* \"#utility.yul\":20453:20818   */\n      swap2\n      swap1\n      pop\n      jump\t// out\n        /* \"#utility.yul\":20824:21797   */\n    tag_102:\n        /* \"#utility.yul\":21160:21164   */\n      0x00\n        /* \"#utility.yul\":21198:21201   */\n      0x80\n        /* \"#utility.yul\":21187:21196   */\n      dup3\n        /* \"#utility.yul\":21183:21202   */\n      add\n        /* \"#utility.yul\":21175:21202   */\n      swap1\n      pop\n        /* \"#utility.yul\":21248:21257   */\n      dup2\n        /* \"#utility.yul\":21242:21246   */\n      dup2\n        /* \"#utility.yul\":21238:21258   */\n      sub\n        /* \"#utility.yul\":21234:21235   */\n      0x00\n        /* \"#utility.yul\":21223:21232   */\n      dup4\n        /* \"#utility.yul\":21219:21236   */\n      add\n        /* \"#utility.yul\":21212:21259   */\n      mstore\n        /* \"#utility.yul\":21276:21407   */\n      tag_391\n        /* \"#utility.yul\":21402:21406   */\n      dup2\n        /* \"#utility.yul\":21276:21407   */\n      tag_165\n      jump\t// in\n    tag_391:\n        /* \"#utility.yul\":21268:21407   */\n      swap1\n      pop\n        /* \"#utility.yul\":21417:21495   */\n      tag_392\n        /* \"#utility.yul\":21491:21493   */\n      0x20\n        /* \"#utility.yul\":21480:21489   */\n      dup4\n        /* \"#utility.yul\":21476:21494   */\n      add\n        /* \"#utility.yul\":21467:21473   */\n      dup6\n        /* \"#utility.yul\":21417:21495   */\n      tag_170\n      jump\t// in\n    tag_392:\n        /* \"#utility.yul\":21505:21584   */\n      tag_393\n        /* \"#utility.yul\":21580:21582   */\n      0x40\n        /* \"#utility.yul\":21569:21578   */\n      dup4\n        /* \"#utility.yul\":21565:21583   */\n      add\n        /* \"#utility.yul\":21556:21562   */\n      dup5\n        /* \"#utility.yul\":21505:21584   */\n      tag_173\n      jump\t// in\n    tag_393:\n        /* \"#utility.yul\":21631:21640   */\n      dup2\n        /* \"#utility.yul\":21625:21629   */\n      dup2\n        /* \"#utility.yul\":21621:21641   */\n      sub\n        /* \"#utility.yul\":21616:21618   */\n      0x60\n        /* \"#utility.yul\":21605:21614   */\n      dup4\n        /* \"#utility.yul\":21601:21619   */\n      add\n        /* \"#utility.yul\":21594:21642   */\n      mstore\n        /* \"#utility.yul\":21659:21790   */\n      tag_394\n        /* \"#utility.yul\":21785:21789   */\n      dup2\n        /* \"#utility.yul\":21659:21790   */\n      tag_175\n      jump\t// in\n    tag_394:\n        /* \"#utility.yul\":21651:21790   */\n      swap1\n      pop\n        /* \"#utility.yul\":20824:21797   */\n      swap4\n      swap3\n      pop\n      pop\n      pop\n      jump\t// out\n        /* \"#utility.yul\":21803:22454   */\n    tag_106:\n        /* \"#utility.yul\":22031:22035   */\n      0x00\n        /* \"#utility.yul\":22069:22071   */\n      0x60\n        /* \"#utility.yul\":22058:22067   */\n      dup3\n        /* \"#utility.yul\":22054:22072   */\n      add\n        /* \"#utility.yul\":22046:22072   */\n      swap1\n      pop\n        /* \"#utility.yul\":22118:22127   */\n      dup2\n        /* \"#utility.yul\":22112:22116   */\n      dup2\n        /* \"#utility.yul\":22108:22128   */\n      sub\n        /* \"#utility.yul\":22104:22105   */\n      0x00\n        /* \"#utility.yul\":22093:22102   */\n      dup4\n        /* \"#utility.yul\":22089:22106   */\n      add\n        /* \"#utility.yul\":22082:22129   */\n      mstore\n        /* \"#utility.yul\":22146:22277   */\n      tag_396\n        /* \"#utility.yul\":22272:22276   */\n      dup2\n        /* \"#utility.yul\":22146:22277   */\n      tag_165\n      jump\t// in\n    tag_396:\n        /* \"#utility.yul\":22138:22277   */\n      swap1\n      pop\n        /* \"#utility.yul\":22287:22365   */\n      tag_397\n        /* \"#utility.yul\":22361:22363   */\n      0x20\n        /* \"#utility.yul\":22350:22359   */\n      dup4\n        /* \"#utility.yul\":22346:22364   */\n      add\n        /* \"#utility.yul\":22337:22343   */\n      dup6\n        /* \"#utility.yul\":22287:22365   */\n      tag_170\n      jump\t// in\n    tag_397:\n        /* \"#utility.yul\":22375:22447   */\n      tag_398\n        /* \"#utility.yul\":22443:22445   */\n      0x40\n        /* \"#utility.yul\":22432:22441   */\n      dup4\n        /* \"#utility.yul\":22428:22446   */\n      add\n        /* \"#utility.yul\":22419:22425   */\n      dup5\n        /* \"#utility.yul\":22375:22447   */\n      tag_129\n      jump\t// in\n    tag_398:\n        /* \"#utility.yul\":21803:22454   */\n      swap4\n      swap3\n      pop\n      pop\n      pop\n      jump\t// out\n        /* \"#utility.yul\":22460:22694   */\n    tag_109:\n        /* \"#utility.yul\":22559:22563   */\n      0x00\n        /* \"#utility.yul\":22597:22599   */\n      0x20\n        /* \"#utility.yul\":22586:22595   */\n      dup3\n        /* \"#utility.yul\":22582:22600   */\n      add\n        /* \"#utility.yul\":22574:22600   */\n      swap1\n      pop\n        /* \"#utility.yul\":22610:22687   */\n      tag_400\n        /* \"#utility.yul\":22684:22685   */\n      0x00\n        /* \"#utility.yul\":22673:22682   */\n      dup4\n        /* \"#utility.yul\":22669:22686   */\n      add\n        /* \"#utility.yul\":22660:22666   */\n      dup5\n        /* \"#utility.yul\":22610:22687   */\n      tag_170\n      jump\t// in\n    tag_400:\n        /* \"#utility.yul\":22460:22694   */\n      swap3\n      swap2\n      pop\n      pop\n      jump\t// out\n        /* \"#utility.yul\":22700:22922   */\n    tag_112:\n        /* \"#utility.yul\":22793:22797   */\n      0x00\n        /* \"#utility.yul\":22831:22833   */\n      0x20\n        /* \"#utility.yul\":22820:22829   */\n      dup3\n        /* \"#utility.yul\":22816:22834   */\n      add\n        /* \"#utility.yul\":22808:22834   */\n      swap1\n      pop\n        /* \"#utility.yul\":22844:22915   */\n      tag_402\n        /* \"#utility.yul\":22912:22913   */\n      0x00\n        /* \"#utility.yul\":22901:22910   */\n      dup4\n        /* \"#utility.yul\":22897:22914   */\n      add\n        /* \"#utility.yul\":22888:22894   */\n      dup5\n        /* \"#utility.yul\":22844:22915   */\n      tag_129\n      jump\t// in\n    tag_402:\n        /* \"#utility.yul\":22700:22922   */\n      swap3\n      swap2\n      pop\n      pop\n      jump\t// out\n\n    auxdata: 0xa2646970667358221220b0385101fb7f40dd21e0871e206d8a6123ea9c562bc60879ad898b44140152e564736f6c63430008150033\n}\n",
				"bytecode": {
					"linkReferences": {},
					"object": "608060405234801561000f575f80fd5b5061125b8061001d5f395ff3fe608060405234801561000f575f80fd5b50600436106100e8575f3560e01c8063733e2f061161008a578063ae53a4a511610064578063ae53a4a514610298578063bd14598f146102b4578063c1ed13ef146102d2578063cf57b6eb146102f0576100e8565b8063733e2f061461022c5780637e3b06fb1461024a5780637faec2621461027a576100e8565b806344d1587c116100c657806344d1587c1461017e5780634e10efba1461019c5780635fc6ac0e146101cc5780636458817c146101fc576100e8565b8063065fdac2146100ec57806325adff1c1461011e57806337ac0c7d1461014e575b5f80fd5b610106600480360381019061010191906107a2565b61030e565b604051610115939291906108ce565b60405180910390f35b6101386004803603810190610133919061095e565b610334565b60405161014591906109ee565b60405180910390f35b61016860048036038101906101639190610aed565b610396565b60405161017591906109ee565b60405180910390f35b6101866103ce565b60405161019391906109ee565b60405180910390f35b6101b660048036038101906101b19190610aed565b6103f3565b6040516101c391906109ee565b60405180910390f35b6101e660048036038101906101e1919061095e565b610499565b6040516101f391906109ee565b60405180910390f35b61021660048036038101906102119190610cb8565b61051b565b60405161022391906109ee565b60405180910390f35b61023461059d565b60405161024191906109ee565b60405180910390f35b610264600480360381019061025f919061095e565b6105c2565b60405161027191906109ee565b60405180910390f35b61028261065c565b60405161028f91906109ee565b60405180910390f35b6102b260048036038101906102ad9190610aed565b610687565b005b6102bc61068f565b6040516102c991906109ee565b60405180910390f35b6102da6106cd565b6040516102e791906109ee565b60405180910390f35b6102f86106f5565b60405161030591906109ee565b60405180910390f35b60605f8084848101906103219190610d3a565b8093508194508295505050509250925092565b60608282604051602401610349929190610da6565b60405160208183030381529060405263a9059cbb60e01b6020820180517bffffffffffffffffffffffffffffffffffffffffffffffffffffffff8381831617835250505050905092915050565b60608686868686866040516020016103b396959493929190610ef0565b60405160208183030381529060405290509695505050505050565b60606040516020016103df90610fac565b604051602081830303815290604052905090565b606086868686868660405160240161041096959493929190610fc0565b6040516020818303038152906040527fae53a4a5000000000000000000000000000000000000000000000000000000007bffffffffffffffffffffffffffffffffffffffffffffffffffffffff19166020820180517bffffffffffffffffffffffffffffffffffffffffffffffffffffffff838183161783525050505090509695505050505050565b606063a9059cbb60e01b83836040516024016104b6929190610da6565b604051602081830303815290604052907bffffffffffffffffffffffffffffffffffffffffffffffffffffffff19166020820180517bffffffffffffffffffffffffffffffffffffffffffffffffffffffff8381831617835250505050905092915050565b606081604051602401604051602081830303815290604052906040516105419190611045565b60405180910390207bffffffffffffffffffffffffffffffffffffffffffffffffffffffff19166020820180517bffffffffffffffffffffffffffffffffffffffffffffffffffffffff83818316178352505050509050919050565b60606040516020016105ae9061107d565b604051602081830303815290604052905090565b606082826040516024016105d7929190610da6565b6040516020818303038152906040527fa9059cbb000000000000000000000000000000000000000000000000000000007bffffffffffffffffffffffffffffffffffffffffffffffffffffffff19166020820180517bffffffffffffffffffffffffffffffffffffffffffffffffffffffff8381831617835250505050905092915050565b60606001606360405160200161067392919061116c565b604051602081830303815290604052905090565b505050505050565b60606001732ff1f4e5d08a822743ec6b342c521a0a421456cb6040516020016106b99291906111b9565b604051602081830303815290604052905090565b606060016040516020016106e191906111f3565b604051602081830303815290604052905090565b6060732ff1f4e5d08a822743ec6b342c521a0a421456cb60405160200161071c919061120c565b604051602081830303815290604052905090565b5f604051905090565b5f80fd5b5f80fd5b5f80fd5b5f80fd5b5f80fd5b5f8083601f84011261076257610761610741565b5b8235905067ffffffffffffffff81111561077f5761077e610745565b5b60208301915083600182028301111561079b5761079a610749565b5b9250929050565b5f80602083850312156107b8576107b7610739565b5b5f83013567ffffffffffffffff8111156107d5576107d461073d565b5b6107e18582860161074d565b92509250509250929050565b5f81519050919050565b5f82825260208201905092915050565b5f5b83811015610824578082015181840152602081019050610809565b5f8484015250505050565b5f601f19601f8301169050919050565b5f610849826107ed565b61085381856107f7565b9350610863818560208601610807565b61086c8161082f565b840191505092915050565b5f819050919050565b61088981610877565b82525050565b5f73ffffffffffffffffffffffffffffffffffffffff82169050919050565b5f6108b88261088f565b9050919050565b6108c8816108ae565b82525050565b5f6060820190508181035f8301526108e6818661083f565b90506108f56020830185610880565b61090260408301846108bf565b949350505050565b610913816108ae565b811461091d575f80fd5b50565b5f8135905061092e8161090a565b92915050565b61093d81610877565b8114610947575f80fd5b50565b5f8135905061095881610934565b92915050565b5f806040838503121561097457610973610739565b5b5f61098185828601610920565b92505060206109928582860161094a565b9150509250929050565b5f81519050919050565b5f82825260208201905092915050565b5f6109c08261099c565b6109ca81856109a6565b93506109da818560208601610807565b6109e38161082f565b840191505092915050565b5f6020820190508181035f830152610a0681846109b6565b905092915050565b5f8115159050919050565b610a2281610a0e565b8114610a2c575f80fd5b50565b5f81359050610a3d81610a19565b92915050565b5f8083601f840112610a5857610a57610741565b5b8235905067ffffffffffffffff811115610a7557610a74610745565b5b602083019150836020820283011115610a9157610a90610749565b5b9250929050565b5f8083601f840112610aad57610aac610741565b5b8235905067ffffffffffffffff811115610aca57610ac9610745565b5b602083019150836001820283011115610ae657610ae5610749565b5b9250929050565b5f805f805f8060808789031215610b0757610b06610739565b5b5f610b1489828a01610a2f565b965050602087013567ffffffffffffffff811115610b3557610b3461073d565b5b610b4189828a01610a43565b95509550506040610b5489828a01610920565b935050606087013567ffffffffffffffff811115610b7557610b7461073d565b5b610b8189828a01610a98565b92509250509295509295509295565b5f80fd5b7f4e487b71000000000000000000000000000000000000000000000000000000005f52604160045260245ffd5b610bca8261082f565b810181811067ffffffffffffffff82111715610be957610be8610b94565b5b80604052505050565b5f610bfb610730565b9050610c078282610bc1565b919050565b5f67ffffffffffffffff821115610c2657610c25610b94565b5b610c2f8261082f565b9050602081019050919050565b828183375f83830152505050565b5f610c5c610c5784610c0c565b610bf2565b905082815260208101848484011115610c7857610c77610b90565b5b610c83848285610c3c565b509392505050565b5f82601f830112610c9f57610c9e610741565b5b8135610caf848260208601610c4a565b91505092915050565b5f60208284031215610ccd57610ccc610739565b5b5f82013567ffffffffffffffff811115610cea57610ce961073d565b5b610cf684828501610c8b565b91505092915050565b5f610d098261088f565b9050919050565b610d1981610cff565b8114610d23575f80fd5b50565b5f81359050610d3481610d10565b92915050565b5f805f60608486031215610d5157610d50610739565b5b5f84013567ffffffffffffffff811115610d6e57610d6d61073d565b5b610d7a86828701610c8b565b9350506020610d8b8682870161094a565b9250506040610d9c86828701610d26565b9150509250925092565b5f604082019050610db95f8301856108bf565b610dc66020830184610880565b9392505050565b7f417070576f726b7328626f6f6c2c75696e743235365b5d2c616464726573732c5f8201527f737472696e672900000000000000000000000000000000000000000000000000602082015250565b5f610e276027836107f7565b9150610e3282610dcd565b604082019050919050565b610e4681610a0e565b82525050565b5f82825260208201905092915050565b5f80fd5b82818337505050565b5f610e748385610e4c565b93507f07ffffffffffffffffffffffffffffffffffffffffffffffffffffffffffffff831115610ea757610ea6610e5c565b5b602083029250610eb8838584610e60565b82840190509392505050565b5f610ecf83856107f7565b9350610edc838584610c3c565b610ee58361082f565b840190509392505050565b5f60a0820190508181035f830152610f0781610e1b565b9050610f166020830189610e3d565b8181036040830152610f29818789610e69565b9050610f3860608301866108bf565b8181036080830152610f4b818486610ec4565b9050979650505050505050565b5f81905092915050565b7f617070776f726b730000000000000000000000000000000000000000000000005f82015250565b5f610f96600883610f58565b9150610fa182610f62565b600882019050919050565b5f610fb682610f8a565b9150819050919050565b5f608082019050610fd35f830189610e3d565b8181036020830152610fe6818789610e69565b9050610ff560408301866108bf565b8181036060830152611008818486610ec4565b9050979650505050505050565b5f61101f826107ed565b6110298185610f58565b9350611039818560208601610807565b80840191505092915050565b5f6110508284611015565b915081905092915050565b5f6110676008836107f7565b915061107282610f62565b602082019050919050565b5f6020820190508181035f8301526110948161105b565b9050919050565b5f819050919050565b5f60ff82169050919050565b5f819050919050565b5f6110d36110ce6110c98461109b565b6110b0565b6110a4565b9050919050565b6110e3816110b9565b82525050565b5f819050919050565b5f61110c611107611102846110e9565b6110b0565b6110a4565b9050919050565b61111c816110f2565b82525050565b7f6a696d00000000000000000000000000000000000000000000000000000000005f82015250565b5f6111566003836107f7565b915061116182611122565b602082019050919050565b5f6080820190508181035f8301526111838161105b565b905061119260208301856110da565b61119f6040830184611113565b81810360608301526111b08161114a565b90509392505050565b5f6060820190508181035f8301526111d08161105b565b90506111df60208301856110da565b6111ec60408301846108bf565b9392505050565b5f6020820190506112065f8301846110da565b92915050565b5f60208201905061121f5f8301846108bf565b9291505056fea2646970667358221220b0385101fb7f40dd21e0871e206d8a6123ea9c562bc60879ad898b44140152e564736f6c63430008150033",
					"opcodes": "PUSH1 0x80 PUSH1 0x40 MSTORE CALLVALUE DUP1 ISZERO PUSH2 0xF JUMPI PUSH0 DUP1 REVERT JUMPDEST POP PUSH2 0x125B DUP1 PUSH2 0x1D PUSH0 CODECOPY PUSH0 RETURN INVALID PUSH1 0x80 PUSH1 0x40 MSTORE CALLVALUE DUP1 ISZERO PUSH2 0xF JUMPI PUSH0 DUP1 REVERT JUMPDEST POP PUSH1 0x4 CALLDATASIZE LT PUSH2 0xE8 JUMPI PUSH0 CALLDATALOAD PUSH1 0xE0 SHR DUP1 PUSH4 0x733E2F06 GT PUSH2 0x8A JUMPI DUP1 PUSH4 0xAE53A4A5 GT PUSH2 0x64 JUMPI DUP1 PUSH4 0xAE53A4A5 EQ PUSH2 0x298 JUMPI DUP1 PUSH4 0xBD14598F EQ PUSH2 0x2B4 JUMPI DUP1 PUSH4 0xC1ED13EF EQ PUSH2 0x2D2 JUMPI DUP1 PUSH4 0xCF57B6EB EQ PUSH2 0x2F0 JUMPI PUSH2 0xE8 JUMP JUMPDEST DUP1 PUSH4 0x733E2F06 EQ PUSH2 0x22C JUMPI DUP1 PUSH4 0x7E3B06FB EQ PUSH2 0x24A JUMPI DUP1 PUSH4 0x7FAEC262 EQ PUSH2 0x27A JUMPI PUSH2 0xE8 JUMP JUMPDEST DUP1 PUSH4 0x44D1587C GT PUSH2 0xC6 JUMPI DUP1 PUSH4 0x44D1587C EQ PUSH2 0x17E JUMPI DUP1 PUSH4 0x4E10EFBA EQ PUSH2 0x19C JUMPI DUP1 PUSH4 0x5FC6AC0E EQ PUSH2 0x1CC JUMPI DUP1 PUSH4 0x6458817C EQ PUSH2 0x1FC JUMPI PUSH2 0xE8 JUMP JUMPDEST DUP1 PUSH4 0x65FDAC2 EQ PUSH2 0xEC JUMPI DUP1 PUSH4 0x25ADFF1C EQ PUSH2 0x11E JUMPI DUP1 PUSH4 0x37AC0C7D EQ PUSH2 0x14E JUMPI JUMPDEST PUSH0 DUP1 REVERT JUMPDEST PUSH2 0x106 PUSH1 0x4 DUP1 CALLDATASIZE SUB DUP2 ADD SWAP1 PUSH2 0x101 SWAP2 SWAP1 PUSH2 0x7A2 JUMP JUMPDEST PUSH2 0x30E JUMP JUMPDEST PUSH1 0x40 MLOAD PUSH2 0x115 SWAP4 SWAP3 SWAP2 SWAP1 PUSH2 0x8CE JUMP JUMPDEST PUSH1 0x40 MLOAD DUP1 SWAP2 SUB SWAP1 RETURN JUMPDEST PUSH2 0x138 PUSH1 0x4 DUP1 CALLDATASIZE SUB DUP2 ADD SWAP1 PUSH2 0x133 SWAP2 SWAP1 PUSH2 0x95E JUMP JUMPDEST PUSH2 0x334 JUMP JUMPDEST PUSH1 0x40 MLOAD PUSH2 0x145 SWAP2 SWAP1 PUSH2 0x9EE JUMP JUMPDEST PUSH1 0x40 MLOAD DUP1 SWAP2 SUB SWAP1 RETURN JUMPDEST PUSH2 0x168 PUSH1 0x4 DUP1 CALLDATASIZE SUB DUP2 ADD SWAP1 PUSH2 0x163 SWAP2 SWAP1 PUSH2 0xAED JUMP JUMPDEST PUSH2 0x396 JUMP JUMPDEST PUSH1 0x40 MLOAD PUSH2 0x175 SWAP2 SWAP1 PUSH2 0x9EE JUMP JUMPDEST PUSH1 0x40 MLOAD DUP1 SWAP2 SUB SWAP1 RETURN JUMPDEST PUSH2 0x186 PUSH2 0x3CE JUMP JUMPDEST PUSH1 0x40 MLOAD PUSH2 0x193 SWAP2 SWAP1 PUSH2 0x9EE JUMP JUMPDEST PUSH1 0x40 MLOAD DUP1 SWAP2 SUB SWAP1 RETURN JUMPDEST PUSH2 0x1B6 PUSH1 0x4 DUP1 CALLDATASIZE SUB DUP2 ADD SWAP1 PUSH2 0x1B1 SWAP2 SWAP1 PUSH2 0xAED JUMP JUMPDEST PUSH2 0x3F3 JUMP JUMPDEST PUSH1 0x40 MLOAD PUSH2 0x1C3 SWAP2 SWAP1 PUSH2 0x9EE JUMP JUMPDEST PUSH1 0x40 MLOAD DUP1 SWAP2 SUB SWAP1 RETURN JUMPDEST PUSH2 0x1E6 PUSH1 0x4 DUP1 CALLDATASIZE SUB DUP2 ADD SWAP1 PUSH2 0x1E1 SWAP2 SWAP1 PUSH2 0x95E JUMP JUMPDEST PUSH2 0x499 JUMP JUMPDEST PUSH1 0x40 MLOAD PUSH2 0x1F3 SWAP2 SWAP1 PUSH2 0x9EE JUMP JUMPDEST PUSH1 0x40 MLOAD DUP1 SWAP2 SUB SWAP1 RETURN JUMPDEST PUSH2 0x216 PUSH1 0x4 DUP1 CALLDATASIZE SUB DUP2 ADD SWAP1 PUSH2 0x211 SWAP2 SWAP1 PUSH2 0xCB8 JUMP JUMPDEST PUSH2 0x51B JUMP JUMPDEST PUSH1 0x40 MLOAD PUSH2 0x223 SWAP2 SWAP1 PUSH2 0x9EE JUMP JUMPDEST PUSH1 0x40 MLOAD DUP1 SWAP2 SUB SWAP1 RETURN JUMPDEST PUSH2 0x234 PUSH2 0x59D JUMP JUMPDEST PUSH1 0x40 MLOAD PUSH2 0x241 SWAP2 SWAP1 PUSH2 0x9EE JUMP JUMPDEST PUSH1 0x40 MLOAD DUP1 SWAP2 SUB SWAP1 RETURN JUMPDEST PUSH2 0x264 PUSH1 0x4 DUP1 CALLDATASIZE SUB DUP2 ADD SWAP1 PUSH2 0x25F SWAP2 SWAP1 PUSH2 0x95E JUMP JUMPDEST PUSH2 0x5C2 JUMP JUMPDEST PUSH1 0x40 MLOAD PUSH2 0x271 SWAP2 SWAP1 PUSH2 0x9EE JUMP JUMPDEST PUSH1 0x40 MLOAD DUP1 SWAP2 SUB SWAP1 RETURN JUMPDEST PUSH2 0x282 PUSH2 0x65C JUMP JUMPDEST PUSH1 0x40 MLOAD PUSH2 0x28F SWAP2 SWAP1 PUSH2 0x9EE JUMP JUMPDEST PUSH1 0x40 MLOAD DUP1 SWAP2 SUB SWAP1 RETURN JUMPDEST PUSH2 0x2B2 PUSH1 0x4 DUP1 CALLDATASIZE SUB DUP2 ADD SWAP1 PUSH2 0x2AD SWAP2 SWAP1 PUSH2 0xAED JUMP JUMPDEST PUSH2 0x687 JUMP JUMPDEST STOP JUMPDEST PUSH2 0x2BC PUSH2 0x68F JUMP JUMPDEST PUSH1 0x40 MLOAD PUSH2 0x2C9 SWAP2 SWAP1 PUSH2 0x9EE JUMP JUMPDEST PUSH1 0x40 MLOAD DUP1 SWAP2 SUB SWAP1 RETURN JUMPDEST PUSH2 0x2DA PUSH2 0x6CD JUMP JUMPDEST PUSH1 0x40 MLOAD PUSH2 0x2E7 SWAP2 SWAP1 PUSH2 0x9EE JUMP JUMPDEST PUSH1 0x40 MLOAD DUP1 SWAP2 SUB SWAP1 RETURN JUMPDEST PUSH2 0x2F8 PUSH2 0x6F5 JUMP JUMPDEST PUSH1 0x40 MLOAD PUSH2 0x305 SWAP2 SWAP1 PUSH2 0x9EE JUMP JUMPDEST PUSH1 0x40 MLOAD DUP1 SWAP2 SUB SWAP1 RETURN JUMPDEST PUSH1 0x60 PUSH0 DUP1 DUP5 DUP5 DUP2 ADD SWAP1 PUSH2 0x321 SWAP2 SWAP1 PUSH2 0xD3A JUMP JUMPDEST DUP1 SWAP4 POP DUP2 SWAP5 POP DUP3 SWAP6 POP POP POP POP SWAP3 POP SWAP3 POP SWAP3 JUMP JUMPDEST PUSH1 0x60 DUP3 DUP3 PUSH1 0x40 MLOAD PUSH1 0x24 ADD PUSH2 0x349 SWAP3 SWAP2 SWAP1 PUSH2 0xDA6 JUMP JUMPDEST PUSH1 0x40 MLOAD PUSH1 0x20 DUP2 DUP4 SUB SUB DUP2 MSTORE SWAP1 PUSH1 0x40 MSTORE PUSH4 0xA9059CBB PUSH1 0xE0 SHL PUSH1 0x20 DUP3 ADD DUP1 MLOAD PUSH28 0xFFFFFFFFFFFFFFFFFFFFFFFFFFFFFFFFFFFFFFFFFFFFFFFFFFFFFFFF DUP4 DUP2 DUP4 AND OR DUP4 MSTORE POP POP POP POP SWAP1 POP SWAP3 SWAP2 POP POP JUMP JUMPDEST PUSH1 0x60 DUP7 DUP7 DUP7 DUP7 DUP7 DUP7 PUSH1 0x40 MLOAD PUSH1 0x20 ADD PUSH2 0x3B3 SWAP7 SWAP6 SWAP5 SWAP4 SWAP3 SWAP2 SWAP1 PUSH2 0xEF0 JUMP JUMPDEST PUSH1 0x40 MLOAD PUSH1 0x20 DUP2 DUP4 SUB SUB DUP2 MSTORE SWAP1 PUSH1 0x40 MSTORE SWAP1 POP SWAP7 SWAP6 POP POP POP POP POP POP JUMP JUMPDEST PUSH1 0x60 PUSH1 0x40 MLOAD PUSH1 0x20 ADD PUSH2 0x3DF SWAP1 PUSH2 0xFAC JUMP JUMPDEST PUSH1 0x40 MLOAD PUSH1 0x20 DUP2 DUP4 SUB SUB DUP2 MSTORE SWAP1 PUSH1 0x40 MSTORE SWAP1 POP SWAP1 JUMP JUMPDEST PUSH1 0x60 DUP7 DUP7 DUP7 DUP7 DUP7 DUP7 PUSH1 0x40 MLOAD PUSH1 0x24 ADD PUSH2 0x410 SWAP7 SWAP6 SWAP5 SWAP4 SWAP3 SWAP2 SWAP1 PUSH2 0xFC0 JUMP JUMPDEST PUSH1 0x40 MLOAD PUSH1 0x20 DUP2 DUP4 SUB SUB DUP2 MSTORE SWAP1 PUSH1 0x40 MSTORE PUSH32 0xAE53A4A500000000000000000000000000000000000000000000000000000000 PUSH28 0xFFFFFFFFFFFFFFFFFFFFFFFFFFFFFFFFFFFFFFFFFFFFFFFFFFFFFFFF NOT AND PUSH1 0x20 DUP3 ADD DUP1 MLOAD PUSH28 0xFFFFFFFFFFFFFFFFFFFFFFFFFFFFFFFFFFFFFFFFFFFFFFFFFFFFFFFF DUP4 DUP2 DUP4 AND OR DUP4 MSTORE POP POP POP POP SWAP1 POP SWAP7 SWAP6 POP POP POP POP POP POP JUMP JUMPDEST PUSH1 0x60 PUSH4 0xA9059CBB PUSH1 0xE0 SHL DUP4 DUP4 PUSH1 0x40 MLOAD PUSH1 0x24 ADD PUSH2 0x4B6 SWAP3 SWAP2 SWAP1 PUSH2 0xDA6 JUMP JUMPDEST PUSH1 0x40 MLOAD PUSH1 0x20 DUP2 DUP4 SUB SUB DUP2 MSTORE SWAP1 PUSH1 0x40 MSTORE SWAP1 PUSH28 0xFFFFFFFFFFFFFFFFFFFFFFFFFFFFFFFFFFFFFFFFFFFFFFFFFFFFFFFF NOT AND PUSH1 0x20 DUP3 ADD DUP1 MLOAD PUSH28 0xFFFFFFFFFFFFFFFFFFFFFFFFFFFFFFFFFFFFFFFFFFFFFFFFFFFFFFFF DUP4 DUP2 DUP4 AND OR DUP4 MSTORE POP POP POP POP SWAP1 POP SWAP3 SWAP2 POP POP JUMP JUMPDEST PUSH1 0x60 DUP2 PUSH1 0x40 MLOAD PUSH1 0x24 ADD PUSH1 0x40 MLOAD PUSH1 0x20 DUP2 DUP4 SUB SUB DUP2 MSTORE SWAP1 PUSH1 0x40 MSTORE SWAP1 PUSH1 0x40 MLOAD PUSH2 0x541 SWAP2 SWAP1 PUSH2 0x1045 JUMP JUMPDEST PUSH1 0x40 MLOAD DUP1 SWAP2 SUB SWAP1 KECCAK256 PUSH28 0xFFFFFFFFFFFFFFFFFFFFFFFFFFFFFFFFFFFFFFFFFFFFFFFFFFFFFFFF NOT AND PUSH1 0x20 DUP3 ADD DUP1 MLOAD PUSH28 0xFFFFFFFFFFFFFFFFFFFFFFFFFFFFFFFFFFFFFFFFFFFFFFFFFFFFFFFF DUP4 DUP2 DUP4 AND OR DUP4 MSTORE POP POP POP POP SWAP1 POP SWAP2 SWAP1 POP JUMP JUMPDEST PUSH1 0x60 PUSH1 0x40 MLOAD PUSH1 0x20 ADD PUSH2 0x5AE SWAP1 PUSH2 0x107D JUMP JUMPDEST PUSH1 0x40 MLOAD PUSH1 0x20 DUP2 DUP4 SUB SUB DUP2 MSTORE SWAP1 PUSH1 0x40 MSTORE SWAP1 POP SWAP1 JUMP JUMPDEST PUSH1 0x60 DUP3 DUP3 PUSH1 0x40 MLOAD PUSH1 0x24 ADD PUSH2 0x5D7 SWAP3 SWAP2 SWAP1 PUSH2 0xDA6 JUMP JUMPDEST PUSH1 0x40 MLOAD PUSH1 0x20 DUP2 DUP4 SUB SUB DUP2 MSTORE SWAP1 PUSH1 0x40 MSTORE PUSH32 0xA9059CBB00000000000000000000000000000000000000000000000000000000 PUSH28 0xFFFFFFFFFFFFFFFFFFFFFFFFFFFFFFFFFFFFFFFFFFFFFFFFFFFFFFFF NOT AND PUSH1 0x20 DUP3 ADD DUP1 MLOAD PUSH28 0xFFFFFFFFFFFFFFFFFFFFFFFFFFFFFFFFFFFFFFFFFFFFFFFFFFFFFFFF DUP4 DUP2 DUP4 AND OR DUP4 MSTORE POP POP POP POP SWAP1 POP SWAP3 SWAP2 POP POP JUMP JUMPDEST PUSH1 0x60 PUSH1 0x1 PUSH1 0x63 PUSH1 0x40 MLOAD PUSH1 0x20 ADD PUSH2 0x673 SWAP3 SWAP2 SWAP1 PUSH2 0x116C JUMP JUMPDEST PUSH1 0x40 MLOAD PUSH1 0x20 DUP2 DUP4 SUB SUB DUP2 MSTORE SWAP1 PUSH1 0x40 MSTORE SWAP1 POP SWAP1 JUMP JUMPDEST POP POP POP POP POP POP JUMP JUMPDEST PUSH1 0x60 PUSH1 0x1 PUSH20 0x2FF1F4E5D08A822743EC6B342C521A0A421456CB PUSH1 0x40 MLOAD PUSH1 0x20 ADD PUSH2 0x6B9 SWAP3 SWAP2 SWAP1 PUSH2 0x11B9 JUMP JUMPDEST PUSH1 0x40 MLOAD PUSH1 0x20 DUP2 DUP4 SUB SUB DUP2 MSTORE SWAP1 PUSH1 0x40 MSTORE SWAP1 POP SWAP1 JUMP JUMPDEST PUSH1 0x60 PUSH1 0x1 PUSH1 0x40 MLOAD PUSH1 0x20 ADD PUSH2 0x6E1 SWAP2 SWAP1 PUSH2 0x11F3 JUMP JUMPDEST PUSH1 0x40 MLOAD PUSH1 0x20 DUP2 DUP4 SUB SUB DUP2 MSTORE SWAP1 PUSH1 0x40 MSTORE SWAP1 POP SWAP1 JUMP JUMPDEST PUSH1 0x60 PUSH20 0x2FF1F4E5D08A822743EC6B342C521A0A421456CB PUSH1 0x40 MLOAD PUSH1 0x20 ADD PUSH2 0x71C SWAP2 SWAP1 PUSH2 0x120C JUMP JUMPDEST PUSH1 0x40 MLOAD PUSH1 0x20 DUP2 DUP4 SUB SUB DUP2 MSTORE SWAP1 PUSH1 0x40 MSTORE SWAP1 POP SWAP1 JUMP JUMPDEST PUSH0 PUSH1 0x40 MLOAD SWAP1 POP SWAP1 JUMP JUMPDEST PUSH0 DUP1 REVERT JUMPDEST PUSH0 DUP1 REVERT JUMPDEST PUSH0 DUP1 REVERT JUMPDEST PUSH0 DUP1 REVERT JUMPDEST PUSH0 DUP1 REVERT JUMPDEST PUSH0 DUP1 DUP4 PUSH1 0x1F DUP5 ADD SLT PUSH2 0x762 JUMPI PUSH2 0x761 PUSH2 0x741 JUMP JUMPDEST JUMPDEST DUP3 CALLDATALOAD SWAP1 POP PUSH8 0xFFFFFFFFFFFFFFFF DUP2 GT ISZERO PUSH2 0x77F JUMPI PUSH2 0x77E PUSH2 0x745 JUMP JUMPDEST JUMPDEST PUSH1 0x20 DUP4 ADD SWAP2 POP DUP4 PUSH1 0x1 DUP3 MUL DUP4 ADD GT ISZERO PUSH2 0x79B JUMPI PUSH2 0x79A PUSH2 0x749 JUMP JUMPDEST JUMPDEST SWAP3 POP SWAP3 SWAP1 POP JUMP JUMPDEST PUSH0 DUP1 PUSH1 0x20 DUP4 DUP6 SUB SLT ISZERO PUSH2 0x7B8 JUMPI PUSH2 0x7B7 PUSH2 0x739 JUMP JUMPDEST JUMPDEST PUSH0 DUP4 ADD CALLDATALOAD PUSH8 0xFFFFFFFFFFFFFFFF DUP2 GT ISZERO PUSH2 0x7D5 JUMPI PUSH2 0x7D4 PUSH2 0x73D JUMP JUMPDEST JUMPDEST PUSH2 0x7E1 DUP6 DUP3 DUP7 ADD PUSH2 0x74D JUMP JUMPDEST SWAP3 POP SWAP3 POP POP SWAP3 POP SWAP3 SWAP1 POP JUMP JUMPDEST PUSH0 DUP2 MLOAD SWAP1 POP SWAP2 SWAP1 POP JUMP JUMPDEST PUSH0 DUP3 DUP3 MSTORE PUSH1 0x20 DUP3 ADD SWAP1 POP SWAP3 SWAP2 POP POP JUMP JUMPDEST PUSH0 JUMPDEST DUP4 DUP2 LT ISZERO PUSH2 0x824 JUMPI DUP1 DUP3 ADD MLOAD DUP2 DUP5 ADD MSTORE PUSH1 0x20 DUP2 ADD SWAP1 POP PUSH2 0x809 JUMP JUMPDEST PUSH0 DUP5 DUP5 ADD MSTORE POP POP POP POP JUMP JUMPDEST PUSH0 PUSH1 0x1F NOT PUSH1 0x1F DUP4 ADD AND SWAP1 POP SWAP2 SWAP1 POP JUMP JUMPDEST PUSH0 PUSH2 0x849 DUP3 PUSH2 0x7ED JUMP JUMPDEST PUSH2 0x853 DUP2 DUP6 PUSH2 0x7F7 JUMP JUMPDEST SWAP4 POP PUSH2 0x863 DUP2 DUP6 PUSH1 0x20 DUP7 ADD PUSH2 0x807 JUMP JUMPDEST PUSH2 0x86C DUP2 PUSH2 0x82F JUMP JUMPDEST DUP5 ADD SWAP2 POP POP SWAP3 SWAP2 POP POP JUMP JUMPDEST PUSH0 DUP2 SWAP1 POP SWAP2 SWAP1 POP JUMP JUMPDEST PUSH2 0x889 DUP2 PUSH2 0x877 JUMP JUMPDEST DUP3 MSTORE POP POP JUMP JUMPDEST PUSH0 PUSH20 0xFFFFFFFFFFFFFFFFFFFFFFFFFFFFFFFFFFFFFFFF DUP3 AND SWAP1 POP SWAP2 SWAP1 POP JUMP JUMPDEST PUSH0 PUSH2 0x8B8 DUP3 PUSH2 0x88F JUMP JUMPDEST SWAP1 POP SWAP2 SWAP1 POP JUMP JUMPDEST PUSH2 0x8C8 DUP2 PUSH2 0x8AE JUMP JUMPDEST DUP3 MSTORE POP POP JUMP JUMPDEST PUSH0 PUSH1 0x60 DUP3 ADD SWAP1 POP DUP2 DUP2 SUB PUSH0 DUP4 ADD MSTORE PUSH2 0x8E6 DUP2 DUP7 PUSH2 0x83F JUMP JUMPDEST SWAP1 POP PUSH2 0x8F5 PUSH1 0x20 DUP4 ADD DUP6 PUSH2 0x880 JUMP JUMPDEST PUSH2 0x902 PUSH1 0x40 DUP4 ADD DUP5 PUSH2 0x8BF JUMP JUMPDEST SWAP5 SWAP4 POP POP POP POP JUMP JUMPDEST PUSH2 0x913 DUP2 PUSH2 0x8AE JUMP JUMPDEST DUP2 EQ PUSH2 0x91D JUMPI PUSH0 DUP1 REVERT JUMPDEST POP JUMP JUMPDEST PUSH0 DUP2 CALLDATALOAD SWAP1 POP PUSH2 0x92E DUP2 PUSH2 0x90A JUMP JUMPDEST SWAP3 SWAP2 POP POP JUMP JUMPDEST PUSH2 0x93D DUP2 PUSH2 0x877 JUMP JUMPDEST DUP2 EQ PUSH2 0x947 JUMPI PUSH0 DUP1 REVERT JUMPDEST POP JUMP JUMPDEST PUSH0 DUP2 CALLDATALOAD SWAP1 POP PUSH2 0x958 DUP2 PUSH2 0x934 JUMP JUMPDEST SWAP3 SWAP2 POP POP JUMP JUMPDEST PUSH0 DUP1 PUSH1 0x40 DUP4 DUP6 SUB SLT ISZERO PUSH2 0x974 JUMPI PUSH2 0x973 PUSH2 0x739 JUMP JUMPDEST JUMPDEST PUSH0 PUSH2 0x981 DUP6 DUP3 DUP7 ADD PUSH2 0x920 JUMP JUMPDEST SWAP3 POP POP PUSH1 0x20 PUSH2 0x992 DUP6 DUP3 DUP7 ADD PUSH2 0x94A JUMP JUMPDEST SWAP2 POP POP SWAP3 POP SWAP3 SWAP1 POP JUMP JUMPDEST PUSH0 DUP2 MLOAD SWAP1 POP SWAP2 SWAP1 POP JUMP JUMPDEST PUSH0 DUP3 DUP3 MSTORE PUSH1 0x20 DUP3 ADD SWAP1 POP SWAP3 SWAP2 POP POP JUMP JUMPDEST PUSH0 PUSH2 0x9C0 DUP3 PUSH2 0x99C JUMP JUMPDEST PUSH2 0x9CA DUP2 DUP6 PUSH2 0x9A6 JUMP JUMPDEST SWAP4 POP PUSH2 0x9DA DUP2 DUP6 PUSH1 0x20 DUP7 ADD PUSH2 0x807 JUMP JUMPDEST PUSH2 0x9E3 DUP2 PUSH2 0x82F JUMP JUMPDEST DUP5 ADD SWAP2 POP POP SWAP3 SWAP2 POP POP JUMP JUMPDEST PUSH0 PUSH1 0x20 DUP3 ADD SWAP1 POP DUP2 DUP2 SUB PUSH0 DUP4 ADD MSTORE PUSH2 0xA06 DUP2 DUP5 PUSH2 0x9B6 JUMP JUMPDEST SWAP1 POP SWAP3 SWAP2 POP POP JUMP JUMPDEST PUSH0 DUP2 ISZERO ISZERO SWAP1 POP SWAP2 SWAP1 POP JUMP JUMPDEST PUSH2 0xA22 DUP2 PUSH2 0xA0E JUMP JUMPDEST DUP2 EQ PUSH2 0xA2C JUMPI PUSH0 DUP1 REVERT JUMPDEST POP JUMP JUMPDEST PUSH0 DUP2 CALLDATALOAD SWAP1 POP PUSH2 0xA3D DUP2 PUSH2 0xA19 JUMP JUMPDEST SWAP3 SWAP2 POP POP JUMP JUMPDEST PUSH0 DUP1 DUP4 PUSH1 0x1F DUP5 ADD SLT PUSH2 0xA58 JUMPI PUSH2 0xA57 PUSH2 0x741 JUMP JUMPDEST JUMPDEST DUP3 CALLDATALOAD SWAP1 POP PUSH8 0xFFFFFFFFFFFFFFFF DUP2 GT ISZERO PUSH2 0xA75 JUMPI PUSH2 0xA74 PUSH2 0x745 JUMP JUMPDEST JUMPDEST PUSH1 0x20 DUP4 ADD SWAP2 POP DUP4 PUSH1 0x20 DUP3 MUL DUP4 ADD GT ISZERO PUSH2 0xA91 JUMPI PUSH2 0xA90 PUSH2 0x749 JUMP JUMPDEST JUMPDEST SWAP3 POP SWAP3 SWAP1 POP JUMP JUMPDEST PUSH0 DUP1 DUP4 PUSH1 0x1F DUP5 ADD SLT PUSH2 0xAAD JUMPI PUSH2 0xAAC PUSH2 0x741 JUMP JUMPDEST JUMPDEST DUP3 CALLDATALOAD SWAP1 POP PUSH8 0xFFFFFFFFFFFFFFFF DUP2 GT ISZERO PUSH2 0xACA JUMPI PUSH2 0xAC9 PUSH2 0x745 JUMP JUMPDEST JUMPDEST PUSH1 0x20 DUP4 ADD SWAP2 POP DUP4 PUSH1 0x1 DUP3 MUL DUP4 ADD GT ISZERO PUSH2 0xAE6 JUMPI PUSH2 0xAE5 PUSH2 0x749 JUMP JUMPDEST JUMPDEST SWAP3 POP SWAP3 SWAP1 POP JUMP JUMPDEST PUSH0 DUP1 PUSH0 DUP1 PUSH0 DUP1 PUSH1 0x80 DUP8 DUP10 SUB SLT ISZERO PUSH2 0xB07 JUMPI PUSH2 0xB06 PUSH2 0x739 JUMP JUMPDEST JUMPDEST PUSH0 PUSH2 0xB14 DUP10 DUP3 DUP11 ADD PUSH2 0xA2F JUMP JUMPDEST SWAP7 POP POP PUSH1 0x20 DUP8 ADD CALLDATALOAD PUSH8 0xFFFFFFFFFFFFFFFF DUP2 GT ISZERO PUSH2 0xB35 JUMPI PUSH2 0xB34 PUSH2 0x73D JUMP JUMPDEST JUMPDEST PUSH2 0xB41 DUP10 DUP3 DUP11 ADD PUSH2 0xA43 JUMP JUMPDEST SWAP6 POP SWAP6 POP POP PUSH1 0x40 PUSH2 0xB54 DUP10 DUP3 DUP11 ADD PUSH2 0x920 JUMP JUMPDEST SWAP4 POP POP PUSH1 0x60 DUP8 ADD CALLDATALOAD PUSH8 0xFFFFFFFFFFFFFFFF DUP2 GT ISZERO PUSH2 0xB75 JUMPI PUSH2 0xB74 PUSH2 0x73D JUMP JUMPDEST JUMPDEST PUSH2 0xB81 DUP10 DUP3 DUP11 ADD PUSH2 0xA98 JUMP JUMPDEST SWAP3 POP SWAP3 POP POP SWAP3 SWAP6 POP SWAP3 SWAP6 POP SWAP3 SWAP6 JUMP JUMPDEST PUSH0 DUP1 REVERT JUMPDEST PUSH32 0x4E487B7100000000000000000000000000000000000000000000000000000000 PUSH0 MSTORE PUSH1 0x41 PUSH1 0x4 MSTORE PUSH1 0x24 PUSH0 REVERT JUMPDEST PUSH2 0xBCA DUP3 PUSH2 0x82F JUMP JUMPDEST DUP2 ADD DUP2 DUP2 LT PUSH8 0xFFFFFFFFFFFFFFFF DUP3 GT OR ISZERO PUSH2 0xBE9 JUMPI PUSH2 0xBE8 PUSH2 0xB94 JUMP JUMPDEST JUMPDEST DUP1 PUSH1 0x40 MSTORE POP POP POP JUMP JUMPDEST PUSH0 PUSH2 0xBFB PUSH2 0x730 JUMP JUMPDEST SWAP1 POP PUSH2 0xC07 DUP3 DUP3 PUSH2 0xBC1 JUMP JUMPDEST SWAP2 SWAP1 POP JUMP JUMPDEST PUSH0 PUSH8 0xFFFFFFFFFFFFFFFF DUP3 GT ISZERO PUSH2 0xC26 JUMPI PUSH2 0xC25 PUSH2 0xB94 JUMP JUMPDEST JUMPDEST PUSH2 0xC2F DUP3 PUSH2 0x82F JUMP JUMPDEST SWAP1 POP PUSH1 0x20 DUP2 ADD SWAP1 POP SWAP2 SWAP1 POP JUMP JUMPDEST DUP3 DUP2 DUP4 CALLDATACOPY PUSH0 DUP4 DUP4 ADD MSTORE POP POP POP JUMP JUMPDEST PUSH0 PUSH2 0xC5C PUSH2 0xC57 DUP5 PUSH2 0xC0C JUMP JUMPDEST PUSH2 0xBF2 JUMP JUMPDEST SWAP1 POP DUP3 DUP2 MSTORE PUSH1 0x20 DUP2 ADD DUP5 DUP5 DUP5 ADD GT ISZERO PUSH2 0xC78 JUMPI PUSH2 0xC77 PUSH2 0xB90 JUMP JUMPDEST JUMPDEST PUSH2 0xC83 DUP5 DUP3 DUP6 PUSH2 0xC3C JUMP JUMPDEST POP SWAP4 SWAP3 POP POP POP JUMP JUMPDEST PUSH0 DUP3 PUSH1 0x1F DUP4 ADD SLT PUSH2 0xC9F JUMPI PUSH2 0xC9E PUSH2 0x741 JUMP JUMPDEST JUMPDEST DUP2 CALLDATALOAD PUSH2 0xCAF DUP5 DUP3 PUSH1 0x20 DUP7 ADD PUSH2 0xC4A JUMP JUMPDEST SWAP2 POP POP SWAP3 SWAP2 POP POP JUMP JUMPDEST PUSH0 PUSH1 0x20 DUP3 DUP5 SUB SLT ISZERO PUSH2 0xCCD JUMPI PUSH2 0xCCC PUSH2 0x739 JUMP JUMPDEST JUMPDEST PUSH0 DUP3 ADD CALLDATALOAD PUSH8 0xFFFFFFFFFFFFFFFF DUP2 GT ISZERO PUSH2 0xCEA JUMPI PUSH2 0xCE9 PUSH2 0x73D JUMP JUMPDEST JUMPDEST PUSH2 0xCF6 DUP5 DUP3 DUP6 ADD PUSH2 0xC8B JUMP JUMPDEST SWAP2 POP POP SWAP3 SWAP2 POP POP JUMP JUMPDEST PUSH0 PUSH2 0xD09 DUP3 PUSH2 0x88F JUMP JUMPDEST SWAP1 POP SWAP2 SWAP1 POP JUMP JUMPDEST PUSH2 0xD19 DUP2 PUSH2 0xCFF JUMP JUMPDEST DUP2 EQ PUSH2 0xD23 JUMPI PUSH0 DUP1 REVERT JUMPDEST POP JUMP JUMPDEST PUSH0 DUP2 CALLDATALOAD SWAP1 POP PUSH2 0xD34 DUP2 PUSH2 0xD10 JUMP JUMPDEST SWAP3 SWAP2 POP POP JUMP JUMPDEST PUSH0 DUP1 PUSH0 PUSH1 0x60 DUP5 DUP7 SUB SLT ISZERO PUSH2 0xD51 JUMPI PUSH2 0xD50 PUSH2 0x739 JUMP JUMPDEST JUMPDEST PUSH0 DUP5 ADD CALLDATALOAD PUSH8 0xFFFFFFFFFFFFFFFF DUP2 GT ISZERO PUSH2 0xD6E JUMPI PUSH2 0xD6D PUSH2 0x73D JUMP JUMPDEST JUMPDEST PUSH2 0xD7A DUP7 DUP3 DUP8 ADD PUSH2 0xC8B JUMP JUMPDEST SWAP4 POP POP PUSH1 0x20 PUSH2 0xD8B DUP7 DUP3 DUP8 ADD PUSH2 0x94A JUMP JUMPDEST SWAP3 POP POP PUSH1 0x40 PUSH2 0xD9C DUP7 DUP3 DUP8 ADD PUSH2 0xD26 JUMP JUMPDEST SWAP2 POP POP SWAP3 POP SWAP3 POP SWAP3 JUMP JUMPDEST PUSH0 PUSH1 0x40 DUP3 ADD SWAP1 POP PUSH2 0xDB9 PUSH0 DUP4 ADD DUP6 PUSH2 0x8BF JUMP JUMPDEST PUSH2 0xDC6 PUSH1 0x20 DUP4 ADD DUP5 PUSH2 0x880 JUMP JUMPDEST SWAP4 SWAP3 POP POP POP JUMP JUMPDEST PUSH32 0x417070576F726B7328626F6F6C2C75696E743235365B5D2C616464726573732C PUSH0 DUP3 ADD MSTORE PUSH32 0x737472696E672900000000000000000000000000000000000000000000000000 PUSH1 0x20 DUP3 ADD MSTORE POP JUMP JUMPDEST PUSH0 PUSH2 0xE27 PUSH1 0x27 DUP4 PUSH2 0x7F7 JUMP JUMPDEST SWAP2 POP PUSH2 0xE32 DUP3 PUSH2 0xDCD JUMP JUMPDEST PUSH1 0x40 DUP3 ADD SWAP1 POP SWAP2 SWAP1 POP JUMP JUMPDEST PUSH2 0xE46 DUP2 PUSH2 0xA0E JUMP JUMPDEST DUP3 MSTORE POP POP JUMP JUMPDEST PUSH0 DUP3 DUP3 MSTORE PUSH1 0x20 DUP3 ADD SWAP1 POP SWAP3 SWAP2 POP POP JUMP JUMPDEST PUSH0 DUP1 REVERT JUMPDEST DUP3 DUP2 DUP4 CALLDATACOPY POP POP POP JUMP JUMPDEST PUSH0 PUSH2 0xE74 DUP4 DUP6 PUSH2 0xE4C JUMP JUMPDEST SWAP4 POP PUSH32 0x7FFFFFFFFFFFFFFFFFFFFFFFFFFFFFFFFFFFFFFFFFFFFFFFFFFFFFFFFFFFFFF DUP4 GT ISZERO PUSH2 0xEA7 JUMPI PUSH2 0xEA6 PUSH2 0xE5C JUMP JUMPDEST JUMPDEST PUSH1 0x20 DUP4 MUL SWAP3 POP PUSH2 0xEB8 DUP4 DUP6 DUP5 PUSH2 0xE60 JUMP JUMPDEST DUP3 DUP5 ADD SWAP1 POP SWAP4 SWAP3 POP POP POP JUMP JUMPDEST PUSH0 PUSH2 0xECF DUP4 DUP6 PUSH2 0x7F7 JUMP JUMPDEST SWAP4 POP PUSH2 0xEDC DUP4 DUP6 DUP5 PUSH2 0xC3C JUMP JUMPDEST PUSH2 0xEE5 DUP4 PUSH2 0x82F JUMP JUMPDEST DUP5 ADD SWAP1 POP SWAP4 SWAP3 POP POP POP JUMP JUMPDEST PUSH0 PUSH1 0xA0 DUP3 ADD SWAP1 POP DUP2 DUP2 SUB PUSH0 DUP4 ADD MSTORE PUSH2 0xF07 DUP2 PUSH2 0xE1B JUMP JUMPDEST SWAP1 POP PUSH2 0xF16 PUSH1 0x20 DUP4 ADD DUP10 PUSH2 0xE3D JUMP JUMPDEST DUP2 DUP2 SUB PUSH1 0x40 DUP4 ADD MSTORE PUSH2 0xF29 DUP2 DUP8 DUP10 PUSH2 0xE69 JUMP JUMPDEST SWAP1 POP PUSH2 0xF38 PUSH1 0x60 DUP4 ADD DUP7 PUSH2 0x8BF JUMP JUMPDEST DUP2 DUP2 SUB PUSH1 0x80 DUP4 ADD MSTORE PUSH2 0xF4B DUP2 DUP5 DUP7 PUSH2 0xEC4 JUMP JUMPDEST SWAP1 POP SWAP8 SWAP7 POP POP POP POP POP POP POP JUMP JUMPDEST PUSH0 DUP2 SWAP1 POP SWAP3 SWAP2 POP POP JUMP JUMPDEST PUSH32 0x617070776F726B73000000000000000000000000000000000000000000000000 PUSH0 DUP3 ADD MSTORE POP JUMP JUMPDEST PUSH0 PUSH2 0xF96 PUSH1 0x8 DUP4 PUSH2 0xF58 JUMP JUMPDEST SWAP2 POP PUSH2 0xFA1 DUP3 PUSH2 0xF62 JUMP JUMPDEST PUSH1 0x8 DUP3 ADD SWAP1 POP SWAP2 SWAP1 POP JUMP JUMPDEST PUSH0 PUSH2 0xFB6 DUP3 PUSH2 0xF8A JUMP JUMPDEST SWAP2 POP DUP2 SWAP1 POP SWAP2 SWAP1 POP JUMP JUMPDEST PUSH0 PUSH1 0x80 DUP3 ADD SWAP1 POP PUSH2 0xFD3 PUSH0 DUP4 ADD DUP10 PUSH2 0xE3D JUMP JUMPDEST DUP2 DUP2 SUB PUSH1 0x20 DUP4 ADD MSTORE PUSH2 0xFE6 DUP2 DUP8 DUP10 PUSH2 0xE69 JUMP JUMPDEST SWAP1 POP PUSH2 0xFF5 PUSH1 0x40 DUP4 ADD DUP7 PUSH2 0x8BF JUMP JUMPDEST DUP2 DUP2 SUB PUSH1 0x60 DUP4 ADD MSTORE PUSH2 0x1008 DUP2 DUP5 DUP7 PUSH2 0xEC4 JUMP JUMPDEST SWAP1 POP SWAP8 SWAP7 POP POP POP POP POP POP POP JUMP JUMPDEST PUSH0 PUSH2 0x101F DUP3 PUSH2 0x7ED JUMP JUMPDEST PUSH2 0x1029 DUP2 DUP6 PUSH2 0xF58 JUMP JUMPDEST SWAP4 POP PUSH2 0x1039 DUP2 DUP6 PUSH1 0x20 DUP7 ADD PUSH2 0x807 JUMP JUMPDEST DUP1 DUP5 ADD SWAP2 POP POP SWAP3 SWAP2 POP POP JUMP JUMPDEST PUSH0 PUSH2 0x1050 DUP3 DUP5 PUSH2 0x1015 JUMP JUMPDEST SWAP2 POP DUP2 SWAP1 POP SWAP3 SWAP2 POP POP JUMP JUMPDEST PUSH0 PUSH2 0x1067 PUSH1 0x8 DUP4 PUSH2 0x7F7 JUMP JUMPDEST SWAP2 POP PUSH2 0x1072 DUP3 PUSH2 0xF62 JUMP JUMPDEST PUSH1 0x20 DUP3 ADD SWAP1 POP SWAP2 SWAP1 POP JUMP JUMPDEST PUSH0 PUSH1 0x20 DUP3 ADD SWAP1 POP DUP2 DUP2 SUB PUSH0 DUP4 ADD MSTORE PUSH2 0x1094 DUP2 PUSH2 0x105B JUMP JUMPDEST SWAP1 POP SWAP2 SWAP1 POP JUMP JUMPDEST PUSH0 DUP2 SWAP1 POP SWAP2 SWAP1 POP JUMP JUMPDEST PUSH0 PUSH1 0xFF DUP3 AND SWAP1 POP SWAP2 SWAP1 POP JUMP JUMPDEST PUSH0 DUP2 SWAP1 POP SWAP2 SWAP1 POP JUMP JUMPDEST PUSH0 PUSH2 0x10D3 PUSH2 0x10CE PUSH2 0x10C9 DUP5 PUSH2 0x109B JUMP JUMPDEST PUSH2 0x10B0 JUMP JUMPDEST PUSH2 0x10A4 JUMP JUMPDEST SWAP1 POP SWAP2 SWAP1 POP JUMP JUMPDEST PUSH2 0x10E3 DUP2 PUSH2 0x10B9 JUMP JUMPDEST DUP3 MSTORE POP POP JUMP JUMPDEST PUSH0 DUP2 SWAP1 POP SWAP2 SWAP1 POP JUMP JUMPDEST PUSH0 PUSH2 0x110C PUSH2 0x1107 PUSH2 0x1102 DUP5 PUSH2 0x10E9 JUMP JUMPDEST PUSH2 0x10B0 JUMP JUMPDEST PUSH2 0x10A4 JUMP JUMPDEST SWAP1 POP SWAP2 SWAP1 POP JUMP JUMPDEST PUSH2 0x111C DUP2 PUSH2 0x10F2 JUMP JUMPDEST DUP3 MSTORE POP POP JUMP JUMPDEST PUSH32 0x6A696D0000000000000000000000000000000000000000000000000000000000 PUSH0 DUP3 ADD MSTORE POP JUMP JUMPDEST PUSH0 PUSH2 0x1156 PUSH1 0x3 DUP4 PUSH2 0x7F7 JUMP JUMPDEST SWAP2 POP PUSH2 0x1161 DUP3 PUSH2 0x1122 JUMP JUMPDEST PUSH1 0x20 DUP3 ADD SWAP1 POP SWAP2 SWAP1 POP JUMP JUMPDEST PUSH0 PUSH1 0x80 DUP3 ADD SWAP1 POP DUP2 DUP2 SUB PUSH0 DUP4 ADD MSTORE PUSH2 0x1183 DUP2 PUSH2 0x105B JUMP JUMPDEST SWAP1 POP PUSH2 0x1192 PUSH1 0x20 DUP4 ADD DUP6 PUSH2 0x10DA JUMP JUMPDEST PUSH2 0x119F PUSH1 0x40 DUP4 ADD DUP5 PUSH2 0x1113 JUMP JUMPDEST DUP2 DUP2 SUB PUSH1 0x60 DUP4 ADD MSTORE PUSH2 0x11B0 DUP2 PUSH2 0x114A JUMP JUMPDEST SWAP1 POP SWAP4 SWAP3 POP POP POP JUMP JUMPDEST PUSH0 PUSH1 0x60 DUP3 ADD SWAP1 POP DUP2 DUP2 SUB PUSH0 DUP4 ADD MSTORE PUSH2 0x11D0 DUP2 PUSH2 0x105B JUMP JUMPDEST SWAP1 POP PUSH2 0x11DF PUSH1 0x20 DUP4 ADD DUP6 PUSH2 0x10DA JUMP JUMPDEST PUSH2 0x11EC PUSH1 0x40 DUP4 ADD DUP5 PUSH2 0x8BF JUMP JUMPDEST SWAP4 SWAP3 POP POP POP JUMP JUMPDEST PUSH0 PUSH1 0x20 DUP3 ADD SWAP1 POP PUSH2 0x1206 PUSH0 DUP4 ADD DUP5 PUSH2 0x10DA JUMP JUMPDEST SWAP3 SWAP2 POP POP JUMP JUMPDEST PUSH0 PUSH1 0x20 DUP3 ADD SWAP1 POP PUSH2 0x121F PUSH0 DUP4 ADD DUP5 PUSH2 0x8BF JUMP JUMPDEST SWAP3 SWAP2 POP POP JUMP INVALID LOG2 PUSH5 0x6970667358 0x22 SLT KECCAK256 0xB0 CODESIZE MLOAD ADD 0xFB PUSH32 0x40DD21E0871E206D8A6123EA9C562BC60879AD898B44140152E564736F6C6343 STOP ADDMOD ISZERO STOP CALLER "
				},
				"gasEstimates": {
					"creation": {
						"codeDepositCost": "939800",
						"executionCost": "973",
						"totalCost": "940773"
					},
					"external": {
						"AppWorks(bool,uint256[],address,string)": "1123",
						"encode()": "infinite",
						"encodeAddress()": "infinite",
						"encodeAppWorks(bool,uint256[],address,string)": "infinite",
						"encodeAppworks()": "infinite",
						"encodeCall(address,uint256)": "infinite",
						"encodeFunSelector(string)": "infinite",
						"encodeOne()": "infinite",
						"encodePackedAppworks()": "infinite",
						"encodePackedAppworksV2()": "infinite",
						"encodeWithSelector(address,uint256)": "infinite",
						"encodeWithSignature(address,uint256)": "infinite",
						"encodeWithSignatureAppWorks(bool,uint256[],address,string)": "infinite",
						"testABIDecode(bytes)": "infinite"
					}
				},
				"methodIdentifiers": {
					"AppWorks(bool,uint256[],address,string)": "ae53a4a5",
					"encode()": "bd14598f",
					"encodeAddress()": "cf57b6eb",
					"encodeAppWorks(bool,uint256[],address,string)": "37ac0c7d",
					"encodeAppworks()": "733e2f06",
					"encodeCall(address,uint256)": "25adff1c",
					"encodeFunSelector(string)": "6458817c",
					"encodeOne()": "c1ed13ef",
					"encodePackedAppworks()": "44d1587c",
					"encodePackedAppworksV2()": "7faec262",
					"encodeWithSelector(address,uint256)": "5fc6ac0e",
					"encodeWithSignature(address,uint256)": "7e3b06fb",
					"encodeWithSignatureAppWorks(bool,uint256[],address,string)": "4e10efba",
					"testABIDecode(bytes)": "065fdac2"
				}
			},
			"storageLayout": {
				"storage": [],
				"types": null
			},
			"userdoc": {
				"kind": "user",
				"methods": {},
				"version": 1
			}
		}
	}
}