{
	"week5/testABIEncode.sol": {
		"TestEncode": {
			"abi": [
				{
					"inputs": [],
					"name": "encode",
					"outputs": [
						{
							"internalType": "bytes",
							"name": "",
							"type": "bytes"
						}
					],
					"stateMutability": "pure",
					"type": "function"
				},
				{
					"inputs": [],
					"name": "encodeAddress",
					"outputs": [
						{
							"internalType": "bytes",
							"name": "",
							"type": "bytes"
						}
					],
					"stateMutability": "pure",
					"type": "function"
				},
				{
					"inputs": [],
					"name": "encodeAppworks",
					"outputs": [
						{
							"internalType": "bytes",
							"name": "",
							"type": "bytes"
						}
					],
					"stateMutability": "pure",
					"type": "function"
				},
				{
					"inputs": [],
					"name": "encodeOne",
					"outputs": [
						{
							"internalType": "bytes",
							"name": "",
							"type": "bytes"
						}
					],
					"stateMutability": "pure",
					"type": "function"
				},
				{
					"inputs": [],
					"name": "encodePackedAppworks",
					"outputs": [
						{
							"internalType": "bytes",
							"name": "",
							"type": "bytes"
						}
					],
					"stateMutability": "pure",
					"type": "function"
				},
				{
					"inputs": [],
					"name": "encodePackedAppworksV2",
					"outputs": [
						{
							"internalType": "bytes",
							"name": "",
							"type": "bytes"
						}
					],
					"stateMutability": "pure",
					"type": "function"
				},
				{
					"inputs": [
						{
							"internalType": "bytes",
							"name": "data",
							"type": "bytes"
						}
					],
					"name": "testABIDecode",
					"outputs": [
						{
							"internalType": "string",
							"name": "arr",
							"type": "string"
						},
						{
							"internalType": "uint256",
							"name": "u",
							"type": "uint256"
						},
						{
							"internalType": "address",
							"name": "a",
							"type": "address"
						}
					],
					"stateMutability": "pure",
					"type": "function"
				}
			],
			"devdoc": {
				"kind": "dev",
				"methods": {},
				"version": 1
			},
			"evm": {
				"assembly": "    /* \"week5/testABIEncode.sol\":56:2177  contract TestEncode {... */\n  mstore(0x40, 0x80)\n  callvalue\n  dup1\n  iszero\n  tag_1\n  jumpi\n  0x00\n  dup1\n  revert\ntag_1:\n  pop\n  dataSize(sub_0)\n  dup1\n  dataOffset(sub_0)\n  0x00\n  codecopy\n  0x00\n  return\nstop\n\nsub_0: assembly {\n        /* \"week5/testABIEncode.sol\":56:2177  contract TestEncode {... */\n      mstore(0x40, 0x80)\n      callvalue\n      dup1\n      iszero\n      tag_1\n      jumpi\n      0x00\n      dup1\n      revert\n    tag_1:\n      pop\n      jumpi(tag_2, lt(calldatasize, 0x04))\n      shr(0xe0, calldataload(0x00))\n      dup1\n      0x7faec262\n      gt\n      tag_10\n      jumpi\n      dup1\n      0x7faec262\n      eq\n      tag_6\n      jumpi\n      dup1\n      0xbd14598f\n      eq\n      tag_7\n      jumpi\n      dup1\n      0xc1ed13ef\n      eq\n      tag_8\n      jumpi\n      dup1\n      0xcf57b6eb\n      eq\n      tag_9\n      jumpi\n      jump(tag_2)\n    tag_10:\n      dup1\n      0x065fdac2\n      eq\n      tag_3\n      jumpi\n      dup1\n      0x44d1587c\n      eq\n      tag_4\n      jumpi\n      dup1\n      0x733e2f06\n      eq\n      tag_5\n      jumpi\n    tag_2:\n      0x00\n      dup1\n      revert\n        /* \"week5/testABIEncode.sol\":1999:2174  function testABIDecode(bytes calldata data) external pure returns (string memory arr,uint256 u,address a) {... */\n    tag_3:\n      tag_11\n      0x04\n      dup1\n      calldatasize\n      sub\n      dup2\n      add\n      swap1\n      tag_12\n      swap2\n      swap1\n      tag_13\n      jump\t// in\n    tag_12:\n      tag_14\n      jump\t// in\n    tag_11:\n      mload(0x40)\n      tag_15\n      swap4\n      swap3\n      swap2\n      swap1\n      tag_16\n      jump\t// in\n    tag_15:\n      mload(0x40)\n      dup1\n      swap2\n      sub\n      swap1\n      return\n        /* \"week5/testABIEncode.sol\":834:953  function encodePackedAppworks() external pure returns (bytes memory) {... */\n    tag_4:\n      tag_17\n      tag_18\n      jump\t// in\n    tag_17:\n      mload(0x40)\n      tag_19\n      swap2\n      swap1\n      tag_20\n      jump\t// in\n    tag_19:\n      mload(0x40)\n      dup1\n      swap2\n      sub\n      swap1\n      return\n        /* \"week5/testABIEncode.sol\":233:340  function encodeAppworks() external pure returns (bytes memory) {... */\n    tag_5:\n      tag_21\n      tag_22\n      jump\t// in\n    tag_21:\n      mload(0x40)\n      tag_23\n      swap2\n      swap1\n      tag_20\n      jump\t// in\n    tag_23:\n      mload(0x40)\n      dup1\n      swap2\n      sub\n      swap1\n      return\n        /* \"week5/testABIEncode.sol\":959:1690  function encodePackedAppworksV2() external pure returns (bytes memory) {... */\n    tag_6:\n      tag_24\n      tag_25\n      jump\t// in\n    tag_24:\n      mload(0x40)\n      tag_26\n      swap2\n      swap1\n      tag_20\n      jump\t// in\n    tag_26:\n      mload(0x40)\n      dup1\n      swap2\n      sub\n      swap1\n      return\n        /* \"week5/testABIEncode.sol\":83:227  function encode() external pure returns (bytes memory) {... */\n    tag_7:\n      tag_27\n      tag_28\n      jump\t// in\n    tag_27:\n      mload(0x40)\n      tag_29\n      swap2\n      swap1\n      tag_20\n      jump\t// in\n    tag_29:\n      mload(0x40)\n      dup1\n      swap2\n      sub\n      swap1\n      return\n        /* \"week5/testABIEncode.sol\":1696:1789  function encodeOne() external pure returns (bytes memory) {... */\n    tag_8:\n      tag_30\n      tag_31\n      jump\t// in\n    tag_30:\n      mload(0x40)\n      tag_32\n      swap2\n      swap1\n      tag_20\n      jump\t// in\n    tag_32:\n      mload(0x40)\n      dup1\n      swap2\n      sub\n      swap1\n      return\n        /* \"week5/testABIEncode.sol\":1795:1933  function encodeAddress() external pure returns (bytes memory) {... */\n    tag_9:\n      tag_33\n      tag_34\n      jump\t// in\n    tag_33:\n      mload(0x40)\n      tag_35\n      swap2\n      swap1\n      tag_20\n      jump\t// in\n    tag_35:\n      mload(0x40)\n      dup1\n      swap2\n      sub\n      swap1\n      return\n        /* \"week5/testABIEncode.sol\":1999:2174  function testABIDecode(bytes calldata data) external pure returns (string memory arr,uint256 u,address a) {... */\n    tag_14:\n        /* \"week5/testABIEncode.sol\":2066:2083  string memory arr */\n      0x60\n        /* \"week5/testABIEncode.sol\":2084:2093  uint256 u */\n      0x00\n        /* \"week5/testABIEncode.sol\":2094:2103  address a */\n      dup1\n        /* \"week5/testABIEncode.sol\":2136:2140  data */\n      dup5\n      dup5\n        /* \"week5/testABIEncode.sol\":2125:2167  abi.decode(data, (string,uint256,address)) */\n      dup2\n      add\n      swap1\n      tag_37\n      swap2\n      swap1\n      tag_38\n      jump\t// in\n    tag_37:\n        /* \"week5/testABIEncode.sol\":2113:2167  (arr,u,a) = abi.decode(data, (string,uint256,address)) */\n      dup1\n      swap4\n      pop\n      dup2\n      swap5\n      pop\n      dup3\n      swap6\n      pop\n      pop\n      pop\n      pop\n        /* \"week5/testABIEncode.sol\":1999:2174  function testABIDecode(bytes calldata data) external pure returns (string memory arr,uint256 u,address a) {... */\n      swap3\n      pop\n      swap3\n      pop\n      swap3\n      jump\t// out\n        /* \"week5/testABIEncode.sol\":834:953  function encodePackedAppworks() external pure returns (bytes memory) {... */\n    tag_18:\n        /* \"week5/testABIEncode.sol\":889:901  bytes memory */\n      0x60\n        /* \"week5/testABIEncode.sol\":918:946  abi.encodePacked(\"appworks\") */\n      add(0x20, mload(0x40))\n      tag_40\n      swap1\n      tag_41\n      jump\t// in\n    tag_40:\n      mload(0x40)\n      0x20\n      dup2\n      dup4\n      sub\n      sub\n      dup2\n      mstore\n      swap1\n      0x40\n      mstore\n        /* \"week5/testABIEncode.sol\":911:946  return abi.encodePacked(\"appworks\") */\n      swap1\n      pop\n        /* \"week5/testABIEncode.sol\":834:953  function encodePackedAppworks() external pure returns (bytes memory) {... */\n      swap1\n      jump\t// out\n        /* \"week5/testABIEncode.sol\":233:340  function encodeAppworks() external pure returns (bytes memory) {... */\n    tag_22:\n        /* \"week5/testABIEncode.sol\":282:294  bytes memory */\n      0x60\n        /* \"week5/testABIEncode.sol\":311:333  abi.encode(\"appworks\") */\n      add(0x20, mload(0x40))\n      tag_43\n      swap1\n      tag_44\n      jump\t// in\n    tag_43:\n      mload(0x40)\n      0x20\n      dup2\n      dup4\n      sub\n      sub\n      dup2\n      mstore\n      swap1\n      0x40\n      mstore\n        /* \"week5/testABIEncode.sol\":304:333  return abi.encode(\"appworks\") */\n      swap1\n      pop\n        /* \"week5/testABIEncode.sol\":233:340  function encodeAppworks() external pure returns (bytes memory) {... */\n      swap1\n      jump\t// out\n        /* \"week5/testABIEncode.sol\":959:1690  function encodePackedAppworksV2() external pure returns (bytes memory) {... */\n    tag_25:\n        /* \"week5/testABIEncode.sol\":1016:1028  bytes memory */\n      0x60\n        /* \"week5/testABIEncode.sol\":1067:1068  1 */\n      0x01\n        /* \"week5/testABIEncode.sol\":1069:1071  99 */\n      0x63\n        /* \"week5/testABIEncode.sol\":1045:1078  abi.encode(\"appworks\",1,99,\"jim\") */\n      add(0x20, mload(0x40))\n      tag_46\n      swap3\n      swap2\n      swap1\n      tag_47\n      jump\t// in\n    tag_46:\n      mload(0x40)\n      0x20\n      dup2\n      dup4\n      sub\n      sub\n      dup2\n      mstore\n      swap1\n      0x40\n      mstore\n        /* \"week5/testABIEncode.sol\":1038:1078  return abi.encode(\"appworks\",1,99,\"jim\") */\n      swap1\n      pop\n        /* \"week5/testABIEncode.sol\":959:1690  function encodePackedAppworksV2() external pure returns (bytes memory) {... */\n      swap1\n      jump\t// out\n        /* \"week5/testABIEncode.sol\":83:227  function encode() external pure returns (bytes memory) {... */\n    tag_28:\n        /* \"week5/testABIEncode.sol\":124:136  bytes memory */\n      0x60\n        /* \"week5/testABIEncode.sol\":175:176  1 */\n      0x01\n        /* \"week5/testABIEncode.sol\":177:219  0x2Ff1F4e5D08a822743ec6b342c521A0a421456cb */\n      0x2ff1f4e5d08a822743ec6b342c521a0a421456cb\n        /* \"week5/testABIEncode.sol\":153:220  abi.encode(\"appworks\",1,0x2Ff1F4e5D08a822743ec6b342c521A0a421456cb) */\n      add(0x20, mload(0x40))\n      tag_49\n      swap3\n      swap2\n      swap1\n      tag_50\n      jump\t// in\n    tag_49:\n      mload(0x40)\n      0x20\n      dup2\n      dup4\n      sub\n      sub\n      dup2\n      mstore\n      swap1\n      0x40\n      mstore\n        /* \"week5/testABIEncode.sol\":146:220  return abi.encode(\"appworks\",1,0x2Ff1F4e5D08a822743ec6b342c521A0a421456cb) */\n      swap1\n      pop\n        /* \"week5/testABIEncode.sol\":83:227  function encode() external pure returns (bytes memory) {... */\n      swap1\n      jump\t// out\n        /* \"week5/testABIEncode.sol\":1696:1789  function encodeOne() external pure returns (bytes memory) {... */\n    tag_31:\n        /* \"week5/testABIEncode.sol\":1740:1752  bytes memory */\n      0x60\n        /* \"week5/testABIEncode.sol\":1780:1781  1 */\n      0x01\n        /* \"week5/testABIEncode.sol\":1769:1782  abi.encode(1) */\n      add(0x20, mload(0x40))\n      tag_52\n      swap2\n      swap1\n      tag_53\n      jump\t// in\n    tag_52:\n      mload(0x40)\n      0x20\n      dup2\n      dup4\n      sub\n      sub\n      dup2\n      mstore\n      swap1\n      0x40\n      mstore\n        /* \"week5/testABIEncode.sol\":1762:1782  return abi.encode(1) */\n      swap1\n      pop\n        /* \"week5/testABIEncode.sol\":1696:1789  function encodeOne() external pure returns (bytes memory) {... */\n      swap1\n      jump\t// out\n        /* \"week5/testABIEncode.sol\":1795:1933  function encodeAddress() external pure returns (bytes memory) {... */\n    tag_34:\n        /* \"week5/testABIEncode.sol\":1843:1855  bytes memory */\n      0x60\n        /* \"week5/testABIEncode.sol\":1883:1925  0x2Ff1F4e5D08a822743ec6b342c521A0a421456cb */\n      0x2ff1f4e5d08a822743ec6b342c521a0a421456cb\n        /* \"week5/testABIEncode.sol\":1872:1926  abi.encode(0x2Ff1F4e5D08a822743ec6b342c521A0a421456cb) */\n      add(0x20, mload(0x40))\n      tag_55\n      swap2\n      swap1\n      tag_56\n      jump\t// in\n    tag_55:\n      mload(0x40)\n      0x20\n      dup2\n      dup4\n      sub\n      sub\n      dup2\n      mstore\n      swap1\n      0x40\n      mstore\n        /* \"week5/testABIEncode.sol\":1865:1926  return abi.encode(0x2Ff1F4e5D08a822743ec6b342c521A0a421456cb) */\n      swap1\n      pop\n        /* \"week5/testABIEncode.sol\":1795:1933  function encodeAddress() external pure returns (bytes memory) {... */\n      swap1\n      jump\t// out\n        /* \"#utility.yul\":7:82   */\n    tag_57:\n        /* \"#utility.yul\":40:46   */\n      0x00\n        /* \"#utility.yul\":73:75   */\n      0x40\n        /* \"#utility.yul\":67:76   */\n      mload\n        /* \"#utility.yul\":57:76   */\n      swap1\n      pop\n        /* \"#utility.yul\":7:82   */\n      swap1\n      jump\t// out\n        /* \"#utility.yul\":88:205   */\n    tag_58:\n        /* \"#utility.yul\":197:198   */\n      0x00\n        /* \"#utility.yul\":194:195   */\n      dup1\n        /* \"#utility.yul\":187:199   */\n      revert\n        /* \"#utility.yul\":211:328   */\n    tag_59:\n        /* \"#utility.yul\":320:321   */\n      0x00\n        /* \"#utility.yul\":317:318   */\n      dup1\n        /* \"#utility.yul\":310:322   */\n      revert\n        /* \"#utility.yul\":334:451   */\n    tag_60:\n        /* \"#utility.yul\":443:444   */\n      0x00\n        /* \"#utility.yul\":440:441   */\n      dup1\n        /* \"#utility.yul\":433:445   */\n      revert\n        /* \"#utility.yul\":457:574   */\n    tag_61:\n        /* \"#utility.yul\":566:567   */\n      0x00\n        /* \"#utility.yul\":563:564   */\n      dup1\n        /* \"#utility.yul\":556:568   */\n      revert\n        /* \"#utility.yul\":580:697   */\n    tag_62:\n        /* \"#utility.yul\":689:690   */\n      0x00\n        /* \"#utility.yul\":686:687   */\n      dup1\n        /* \"#utility.yul\":679:691   */\n      revert\n        /* \"#utility.yul\":716:1268   */\n    tag_63:\n        /* \"#utility.yul\":773:781   */\n      0x00\n        /* \"#utility.yul\":783:789   */\n      dup1\n        /* \"#utility.yul\":833:836   */\n      dup4\n        /* \"#utility.yul\":826:830   */\n      0x1f\n        /* \"#utility.yul\":818:824   */\n      dup5\n        /* \"#utility.yul\":814:831   */\n      add\n        /* \"#utility.yul\":810:837   */\n      slt\n        /* \"#utility.yul\":800:922   */\n      tag_112\n      jumpi\n        /* \"#utility.yul\":841:920   */\n      tag_113\n      tag_60\n      jump\t// in\n    tag_113:\n        /* \"#utility.yul\":800:922   */\n    tag_112:\n        /* \"#utility.yul\":954:960   */\n      dup3\n        /* \"#utility.yul\":941:961   */\n      calldataload\n        /* \"#utility.yul\":931:961   */\n      swap1\n      pop\n        /* \"#utility.yul\":984:1002   */\n      0xffffffffffffffff\n        /* \"#utility.yul\":976:982   */\n      dup2\n        /* \"#utility.yul\":973:1003   */\n      gt\n        /* \"#utility.yul\":970:1087   */\n      iszero\n      tag_114\n      jumpi\n        /* \"#utility.yul\":1006:1085   */\n      tag_115\n      tag_61\n      jump\t// in\n    tag_115:\n        /* \"#utility.yul\":970:1087   */\n    tag_114:\n        /* \"#utility.yul\":1120:1124   */\n      0x20\n        /* \"#utility.yul\":1112:1118   */\n      dup4\n        /* \"#utility.yul\":1108:1125   */\n      add\n        /* \"#utility.yul\":1096:1125   */\n      swap2\n      pop\n        /* \"#utility.yul\":1174:1177   */\n      dup4\n        /* \"#utility.yul\":1166:1170   */\n      0x01\n        /* \"#utility.yul\":1158:1164   */\n      dup3\n        /* \"#utility.yul\":1154:1171   */\n      mul\n        /* \"#utility.yul\":1144:1152   */\n      dup4\n        /* \"#utility.yul\":1140:1172   */\n      add\n        /* \"#utility.yul\":1137:1178   */\n      gt\n        /* \"#utility.yul\":1134:1262   */\n      iszero\n      tag_116\n      jumpi\n        /* \"#utility.yul\":1181:1260   */\n      tag_117\n      tag_62\n      jump\t// in\n    tag_117:\n        /* \"#utility.yul\":1134:1262   */\n    tag_116:\n        /* \"#utility.yul\":716:1268   */\n      swap3\n      pop\n      swap3\n      swap1\n      pop\n      jump\t// out\n        /* \"#utility.yul\":1274:1801   */\n    tag_13:\n        /* \"#utility.yul\":1344:1350   */\n      0x00\n        /* \"#utility.yul\":1352:1358   */\n      dup1\n        /* \"#utility.yul\":1401:1403   */\n      0x20\n        /* \"#utility.yul\":1389:1398   */\n      dup4\n        /* \"#utility.yul\":1380:1387   */\n      dup6\n        /* \"#utility.yul\":1376:1399   */\n      sub\n        /* \"#utility.yul\":1372:1404   */\n      slt\n        /* \"#utility.yul\":1369:1488   */\n      iszero\n      tag_119\n      jumpi\n        /* \"#utility.yul\":1407:1486   */\n      tag_120\n      tag_58\n      jump\t// in\n    tag_120:\n        /* \"#utility.yul\":1369:1488   */\n    tag_119:\n        /* \"#utility.yul\":1555:1556   */\n      0x00\n        /* \"#utility.yul\":1544:1553   */\n      dup4\n        /* \"#utility.yul\":1540:1557   */\n      add\n        /* \"#utility.yul\":1527:1558   */\n      calldataload\n        /* \"#utility.yul\":1585:1603   */\n      0xffffffffffffffff\n        /* \"#utility.yul\":1577:1583   */\n      dup2\n        /* \"#utility.yul\":1574:1604   */\n      gt\n        /* \"#utility.yul\":1571:1688   */\n      iszero\n      tag_121\n      jumpi\n        /* \"#utility.yul\":1607:1686   */\n      tag_122\n      tag_59\n      jump\t// in\n    tag_122:\n        /* \"#utility.yul\":1571:1688   */\n    tag_121:\n        /* \"#utility.yul\":1720:1784   */\n      tag_123\n        /* \"#utility.yul\":1776:1783   */\n      dup6\n        /* \"#utility.yul\":1767:1773   */\n      dup3\n        /* \"#utility.yul\":1756:1765   */\n      dup7\n        /* \"#utility.yul\":1752:1774   */\n      add\n        /* \"#utility.yul\":1720:1784   */\n      tag_63\n      jump\t// in\n    tag_123:\n        /* \"#utility.yul\":1702:1784   */\n      swap3\n      pop\n      swap3\n      pop\n        /* \"#utility.yul\":1498:1794   */\n      pop\n        /* \"#utility.yul\":1274:1801   */\n      swap3\n      pop\n      swap3\n      swap1\n      pop\n      jump\t// out\n        /* \"#utility.yul\":1807:1906   */\n    tag_64:\n        /* \"#utility.yul\":1859:1865   */\n      0x00\n        /* \"#utility.yul\":1893:1898   */\n      dup2\n        /* \"#utility.yul\":1887:1899   */\n      mload\n        /* \"#utility.yul\":1877:1899   */\n      swap1\n      pop\n        /* \"#utility.yul\":1807:1906   */\n      swap2\n      swap1\n      pop\n      jump\t// out\n        /* \"#utility.yul\":1912:2081   */\n    tag_65:\n        /* \"#utility.yul\":1996:2007   */\n      0x00\n        /* \"#utility.yul\":2030:2036   */\n      dup3\n        /* \"#utility.yul\":2025:2028   */\n      dup3\n        /* \"#utility.yul\":2018:2037   */\n      mstore\n        /* \"#utility.yul\":2070:2074   */\n      0x20\n        /* \"#utility.yul\":2065:2068   */\n      dup3\n        /* \"#utility.yul\":2061:2075   */\n      add\n        /* \"#utility.yul\":2046:2075   */\n      swap1\n      pop\n        /* \"#utility.yul\":1912:2081   */\n      swap3\n      swap2\n      pop\n      pop\n      jump\t// out\n        /* \"#utility.yul\":2087:2333   */\n    tag_66:\n        /* \"#utility.yul\":2168:2169   */\n      0x00\n        /* \"#utility.yul\":2178:2291   */\n    tag_127:\n        /* \"#utility.yul\":2192:2198   */\n      dup4\n        /* \"#utility.yul\":2189:2190   */\n      dup2\n        /* \"#utility.yul\":2186:2199   */\n      lt\n        /* \"#utility.yul\":2178:2291   */\n      iszero\n      tag_129\n      jumpi\n        /* \"#utility.yul\":2277:2278   */\n      dup1\n        /* \"#utility.yul\":2272:2275   */\n      dup3\n        /* \"#utility.yul\":2268:2279   */\n      add\n        /* \"#utility.yul\":2262:2280   */\n      mload\n        /* \"#utility.yul\":2258:2259   */\n      dup2\n        /* \"#utility.yul\":2253:2256   */\n      dup5\n        /* \"#utility.yul\":2249:2260   */\n      add\n        /* \"#utility.yul\":2242:2281   */\n      mstore\n        /* \"#utility.yul\":2214:2216   */\n      0x20\n        /* \"#utility.yul\":2211:2212   */\n      dup2\n        /* \"#utility.yul\":2207:2217   */\n      add\n        /* \"#utility.yul\":2202:2217   */\n      swap1\n      pop\n        /* \"#utility.yul\":2178:2291   */\n      jump(tag_127)\n    tag_129:\n        /* \"#utility.yul\":2325:2326   */\n      0x00\n        /* \"#utility.yul\":2316:2322   */\n      dup5\n        /* \"#utility.yul\":2311:2314   */\n      dup5\n        /* \"#utility.yul\":2307:2323   */\n      add\n        /* \"#utility.yul\":2300:2327   */\n      mstore\n        /* \"#utility.yul\":2149:2333   */\n      pop\n        /* \"#utility.yul\":2087:2333   */\n      pop\n      pop\n      pop\n      jump\t// out\n        /* \"#utility.yul\":2339:2441   */\n    tag_67:\n        /* \"#utility.yul\":2380:2386   */\n      0x00\n        /* \"#utility.yul\":2431:2433   */\n      0x1f\n        /* \"#utility.yul\":2427:2434   */\n      not\n        /* \"#utility.yul\":2422:2424   */\n      0x1f\n        /* \"#utility.yul\":2415:2420   */\n      dup4\n        /* \"#utility.yul\":2411:2425   */\n      add\n        /* \"#utility.yul\":2407:2435   */\n      and\n        /* \"#utility.yul\":2397:2435   */\n      swap1\n      pop\n        /* \"#utility.yul\":2339:2441   */\n      swap2\n      swap1\n      pop\n      jump\t// out\n        /* \"#utility.yul\":2447:2824   */\n    tag_68:\n        /* \"#utility.yul\":2535:2538   */\n      0x00\n        /* \"#utility.yul\":2563:2602   */\n      tag_132\n        /* \"#utility.yul\":2596:2601   */\n      dup3\n        /* \"#utility.yul\":2563:2602   */\n      tag_64\n      jump\t// in\n    tag_132:\n        /* \"#utility.yul\":2618:2689   */\n      tag_133\n        /* \"#utility.yul\":2682:2688   */\n      dup2\n        /* \"#utility.yul\":2677:2680   */\n      dup6\n        /* \"#utility.yul\":2618:2689   */\n      tag_65\n      jump\t// in\n    tag_133:\n        /* \"#utility.yul\":2611:2689   */\n      swap4\n      pop\n        /* \"#utility.yul\":2698:2763   */\n      tag_134\n        /* \"#utility.yul\":2756:2762   */\n      dup2\n        /* \"#utility.yul\":2751:2754   */\n      dup6\n        /* \"#utility.yul\":2744:2748   */\n      0x20\n        /* \"#utility.yul\":2737:2742   */\n      dup7\n        /* \"#utility.yul\":2733:2749   */\n      add\n        /* \"#utility.yul\":2698:2763   */\n      tag_66\n      jump\t// in\n    tag_134:\n        /* \"#utility.yul\":2788:2817   */\n      tag_135\n        /* \"#utility.yul\":2810:2816   */\n      dup2\n        /* \"#utility.yul\":2788:2817   */\n      tag_67\n      jump\t// in\n    tag_135:\n        /* \"#utility.yul\":2783:2786   */\n      dup5\n        /* \"#utility.yul\":2779:2818   */\n      add\n        /* \"#utility.yul\":2772:2818   */\n      swap2\n      pop\n        /* \"#utility.yul\":2539:2824   */\n      pop\n        /* \"#utility.yul\":2447:2824   */\n      swap3\n      swap2\n      pop\n      pop\n      jump\t// out\n        /* \"#utility.yul\":2830:2907   */\n    tag_69:\n        /* \"#utility.yul\":2867:2874   */\n      0x00\n        /* \"#utility.yul\":2896:2901   */\n      dup2\n        /* \"#utility.yul\":2885:2901   */\n      swap1\n      pop\n        /* \"#utility.yul\":2830:2907   */\n      swap2\n      swap1\n      pop\n      jump\t// out\n        /* \"#utility.yul\":2913:3031   */\n    tag_70:\n        /* \"#utility.yul\":3000:3024   */\n      tag_138\n        /* \"#utility.yul\":3018:3023   */\n      dup2\n        /* \"#utility.yul\":3000:3024   */\n      tag_69\n      jump\t// in\n    tag_138:\n        /* \"#utility.yul\":2995:2998   */\n      dup3\n        /* \"#utility.yul\":2988:3025   */\n      mstore\n        /* \"#utility.yul\":2913:3031   */\n      pop\n      pop\n      jump\t// out\n        /* \"#utility.yul\":3037:3163   */\n    tag_71:\n        /* \"#utility.yul\":3074:3081   */\n      0x00\n        /* \"#utility.yul\":3114:3156   */\n      0xffffffffffffffffffffffffffffffffffffffff\n        /* \"#utility.yul\":3107:3112   */\n      dup3\n        /* \"#utility.yul\":3103:3157   */\n      and\n        /* \"#utility.yul\":3092:3157   */\n      swap1\n      pop\n        /* \"#utility.yul\":3037:3163   */\n      swap2\n      swap1\n      pop\n      jump\t// out\n        /* \"#utility.yul\":3169:3265   */\n    tag_72:\n        /* \"#utility.yul\":3206:3213   */\n      0x00\n        /* \"#utility.yul\":3235:3259   */\n      tag_141\n        /* \"#utility.yul\":3253:3258   */\n      dup3\n        /* \"#utility.yul\":3235:3259   */\n      tag_71\n      jump\t// in\n    tag_141:\n        /* \"#utility.yul\":3224:3259   */\n      swap1\n      pop\n        /* \"#utility.yul\":3169:3265   */\n      swap2\n      swap1\n      pop\n      jump\t// out\n        /* \"#utility.yul\":3271:3389   */\n    tag_73:\n        /* \"#utility.yul\":3358:3382   */\n      tag_143\n        /* \"#utility.yul\":3376:3381   */\n      dup2\n        /* \"#utility.yul\":3358:3382   */\n      tag_72\n      jump\t// in\n    tag_143:\n        /* \"#utility.yul\":3353:3356   */\n      dup3\n        /* \"#utility.yul\":3346:3383   */\n      mstore\n        /* \"#utility.yul\":3271:3389   */\n      pop\n      pop\n      jump\t// out\n        /* \"#utility.yul\":3395:3928   */\n    tag_16:\n        /* \"#utility.yul\":3564:3568   */\n      0x00\n        /* \"#utility.yul\":3602:3604   */\n      0x60\n        /* \"#utility.yul\":3591:3600   */\n      dup3\n        /* \"#utility.yul\":3587:3605   */\n      add\n        /* \"#utility.yul\":3579:3605   */\n      swap1\n      pop\n        /* \"#utility.yul\":3651:3660   */\n      dup2\n        /* \"#utility.yul\":3645:3649   */\n      dup2\n        /* \"#utility.yul\":3641:3661   */\n      sub\n        /* \"#utility.yul\":3637:3638   */\n      0x00\n        /* \"#utility.yul\":3626:3635   */\n      dup4\n        /* \"#utility.yul\":3622:3639   */\n      add\n        /* \"#utility.yul\":3615:3662   */\n      mstore\n        /* \"#utility.yul\":3679:3757   */\n      tag_145\n        /* \"#utility.yul\":3752:3756   */\n      dup2\n        /* \"#utility.yul\":3743:3749   */\n      dup7\n        /* \"#utility.yul\":3679:3757   */\n      tag_68\n      jump\t// in\n    tag_145:\n        /* \"#utility.yul\":3671:3757   */\n      swap1\n      pop\n        /* \"#utility.yul\":3767:3839   */\n      tag_146\n        /* \"#utility.yul\":3835:3837   */\n      0x20\n        /* \"#utility.yul\":3824:3833   */\n      dup4\n        /* \"#utility.yul\":3820:3838   */\n      add\n        /* \"#utility.yul\":3811:3817   */\n      dup6\n        /* \"#utility.yul\":3767:3839   */\n      tag_70\n      jump\t// in\n    tag_146:\n        /* \"#utility.yul\":3849:3921   */\n      tag_147\n        /* \"#utility.yul\":3917:3919   */\n      0x40\n        /* \"#utility.yul\":3906:3915   */\n      dup4\n        /* \"#utility.yul\":3902:3920   */\n      add\n        /* \"#utility.yul\":3893:3899   */\n      dup5\n        /* \"#utility.yul\":3849:3921   */\n      tag_73\n      jump\t// in\n    tag_147:\n        /* \"#utility.yul\":3395:3928   */\n      swap5\n      swap4\n      pop\n      pop\n      pop\n      pop\n      jump\t// out\n        /* \"#utility.yul\":3934:4032   */\n    tag_74:\n        /* \"#utility.yul\":3985:3991   */\n      0x00\n        /* \"#utility.yul\":4019:4024   */\n      dup2\n        /* \"#utility.yul\":4013:4025   */\n      mload\n        /* \"#utility.yul\":4003:4025   */\n      swap1\n      pop\n        /* \"#utility.yul\":3934:4032   */\n      swap2\n      swap1\n      pop\n      jump\t// out\n        /* \"#utility.yul\":4038:4206   */\n    tag_75:\n        /* \"#utility.yul\":4121:4132   */\n      0x00\n        /* \"#utility.yul\":4155:4161   */\n      dup3\n        /* \"#utility.yul\":4150:4153   */\n      dup3\n        /* \"#utility.yul\":4143:4162   */\n      mstore\n        /* \"#utility.yul\":4195:4199   */\n      0x20\n        /* \"#utility.yul\":4190:4193   */\n      dup3\n        /* \"#utility.yul\":4186:4200   */\n      add\n        /* \"#utility.yul\":4171:4200   */\n      swap1\n      pop\n        /* \"#utility.yul\":4038:4206   */\n      swap3\n      swap2\n      pop\n      pop\n      jump\t// out\n        /* \"#utility.yul\":4212:4585   */\n    tag_76:\n        /* \"#utility.yul\":4298:4301   */\n      0x00\n        /* \"#utility.yul\":4326:4364   */\n      tag_151\n        /* \"#utility.yul\":4358:4363   */\n      dup3\n        /* \"#utility.yul\":4326:4364   */\n      tag_74\n      jump\t// in\n    tag_151:\n        /* \"#utility.yul\":4380:4450   */\n      tag_152\n        /* \"#utility.yul\":4443:4449   */\n      dup2\n        /* \"#utility.yul\":4438:4441   */\n      dup6\n        /* \"#utility.yul\":4380:4450   */\n      tag_75\n      jump\t// in\n    tag_152:\n        /* \"#utility.yul\":4373:4450   */\n      swap4\n      pop\n        /* \"#utility.yul\":4459:4524   */\n      tag_153\n        /* \"#utility.yul\":4517:4523   */\n      dup2\n        /* \"#utility.yul\":4512:4515   */\n      dup6\n        /* \"#utility.yul\":4505:4509   */\n      0x20\n        /* \"#utility.yul\":4498:4503   */\n      dup7\n        /* \"#utility.yul\":4494:4510   */\n      add\n        /* \"#utility.yul\":4459:4524   */\n      tag_66\n      jump\t// in\n    tag_153:\n        /* \"#utility.yul\":4549:4578   */\n      tag_154\n        /* \"#utility.yul\":4571:4577   */\n      dup2\n        /* \"#utility.yul\":4549:4578   */\n      tag_67\n      jump\t// in\n    tag_154:\n        /* \"#utility.yul\":4544:4547   */\n      dup5\n        /* \"#utility.yul\":4540:4579   */\n      add\n        /* \"#utility.yul\":4533:4579   */\n      swap2\n      pop\n        /* \"#utility.yul\":4302:4585   */\n      pop\n        /* \"#utility.yul\":4212:4585   */\n      swap3\n      swap2\n      pop\n      pop\n      jump\t// out\n        /* \"#utility.yul\":4591:4900   */\n    tag_20:\n        /* \"#utility.yul\":4702:4706   */\n      0x00\n        /* \"#utility.yul\":4740:4742   */\n      0x20\n        /* \"#utility.yul\":4729:4738   */\n      dup3\n        /* \"#utility.yul\":4725:4743   */\n      add\n        /* \"#utility.yul\":4717:4743   */\n      swap1\n      pop\n        /* \"#utility.yul\":4789:4798   */\n      dup2\n        /* \"#utility.yul\":4783:4787   */\n      dup2\n        /* \"#utility.yul\":4779:4799   */\n      sub\n        /* \"#utility.yul\":4775:4776   */\n      0x00\n        /* \"#utility.yul\":4764:4773   */\n      dup4\n        /* \"#utility.yul\":4760:4777   */\n      add\n        /* \"#utility.yul\":4753:4800   */\n      mstore\n        /* \"#utility.yul\":4817:4893   */\n      tag_156\n        /* \"#utility.yul\":4888:4892   */\n      dup2\n        /* \"#utility.yul\":4879:4885   */\n      dup5\n        /* \"#utility.yul\":4817:4893   */\n      tag_76\n      jump\t// in\n    tag_156:\n        /* \"#utility.yul\":4809:4893   */\n      swap1\n      pop\n        /* \"#utility.yul\":4591:4900   */\n      swap3\n      swap2\n      pop\n      pop\n      jump\t// out\n        /* \"#utility.yul\":4906:5023   */\n    tag_77:\n        /* \"#utility.yul\":5015:5016   */\n      0x00\n        /* \"#utility.yul\":5012:5013   */\n      dup1\n        /* \"#utility.yul\":5005:5017   */\n      revert\n        /* \"#utility.yul\":5029:5209   */\n    tag_78:\n        /* \"#utility.yul\":5077:5154   */\n      0x4e487b7100000000000000000000000000000000000000000000000000000000\n        /* \"#utility.yul\":5074:5075   */\n      0x00\n        /* \"#utility.yul\":5067:5155   */\n      mstore\n        /* \"#utility.yul\":5174:5178   */\n      0x41\n        /* \"#utility.yul\":5171:5172   */\n      0x04\n        /* \"#utility.yul\":5164:5179   */\n      mstore\n        /* \"#utility.yul\":5198:5202   */\n      0x24\n        /* \"#utility.yul\":5195:5196   */\n      0x00\n        /* \"#utility.yul\":5188:5203   */\n      revert\n        /* \"#utility.yul\":5215:5496   */\n    tag_79:\n        /* \"#utility.yul\":5298:5325   */\n      tag_160\n        /* \"#utility.yul\":5320:5324   */\n      dup3\n        /* \"#utility.yul\":5298:5325   */\n      tag_67\n      jump\t// in\n    tag_160:\n        /* \"#utility.yul\":5290:5296   */\n      dup2\n        /* \"#utility.yul\":5286:5326   */\n      add\n        /* \"#utility.yul\":5428:5434   */\n      dup2\n        /* \"#utility.yul\":5416:5426   */\n      dup2\n        /* \"#utility.yul\":5413:5435   */\n      lt\n        /* \"#utility.yul\":5392:5410   */\n      0xffffffffffffffff\n        /* \"#utility.yul\":5380:5390   */\n      dup3\n        /* \"#utility.yul\":5377:5411   */\n      gt\n        /* \"#utility.yul\":5374:5436   */\n      or\n        /* \"#utility.yul\":5371:5459   */\n      iszero\n      tag_161\n      jumpi\n        /* \"#utility.yul\":5439:5457   */\n      tag_162\n      tag_78\n      jump\t// in\n    tag_162:\n        /* \"#utility.yul\":5371:5459   */\n    tag_161:\n        /* \"#utility.yul\":5479:5489   */\n      dup1\n        /* \"#utility.yul\":5475:5477   */\n      0x40\n        /* \"#utility.yul\":5468:5490   */\n      mstore\n        /* \"#utility.yul\":5258:5496   */\n      pop\n        /* \"#utility.yul\":5215:5496   */\n      pop\n      pop\n      jump\t// out\n        /* \"#utility.yul\":5502:5631   */\n    tag_80:\n        /* \"#utility.yul\":5536:5542   */\n      0x00\n        /* \"#utility.yul\":5563:5583   */\n      tag_164\n      tag_57\n      jump\t// in\n    tag_164:\n        /* \"#utility.yul\":5553:5583   */\n      swap1\n      pop\n        /* \"#utility.yul\":5592:5625   */\n      tag_165\n        /* \"#utility.yul\":5620:5624   */\n      dup3\n        /* \"#utility.yul\":5612:5618   */\n      dup3\n        /* \"#utility.yul\":5592:5625   */\n      tag_79\n      jump\t// in\n    tag_165:\n        /* \"#utility.yul\":5502:5631   */\n      swap2\n      swap1\n      pop\n      jump\t// out\n        /* \"#utility.yul\":5637:5945   */\n    tag_81:\n        /* \"#utility.yul\":5699:5703   */\n      0x00\n        /* \"#utility.yul\":5789:5807   */\n      0xffffffffffffffff\n        /* \"#utility.yul\":5781:5787   */\n      dup3\n        /* \"#utility.yul\":5778:5808   */\n      gt\n        /* \"#utility.yul\":5775:5831   */\n      iszero\n      tag_167\n      jumpi\n        /* \"#utility.yul\":5811:5829   */\n      tag_168\n      tag_78\n      jump\t// in\n    tag_168:\n        /* \"#utility.yul\":5775:5831   */\n    tag_167:\n        /* \"#utility.yul\":5849:5878   */\n      tag_169\n        /* \"#utility.yul\":5871:5877   */\n      dup3\n        /* \"#utility.yul\":5849:5878   */\n      tag_67\n      jump\t// in\n    tag_169:\n        /* \"#utility.yul\":5841:5878   */\n      swap1\n      pop\n        /* \"#utility.yul\":5933:5937   */\n      0x20\n        /* \"#utility.yul\":5927:5931   */\n      dup2\n        /* \"#utility.yul\":5923:5938   */\n      add\n        /* \"#utility.yul\":5915:5938   */\n      swap1\n      pop\n        /* \"#utility.yul\":5637:5945   */\n      swap2\n      swap1\n      pop\n      jump\t// out\n        /* \"#utility.yul\":5951:6097   */\n    tag_82:\n        /* \"#utility.yul\":6048:6054   */\n      dup3\n        /* \"#utility.yul\":6043:6046   */\n      dup2\n        /* \"#utility.yul\":6038:6041   */\n      dup4\n        /* \"#utility.yul\":6025:6055   */\n      calldatacopy\n        /* \"#utility.yul\":6089:6090   */\n      0x00\n        /* \"#utility.yul\":6080:6086   */\n      dup4\n        /* \"#utility.yul\":6075:6078   */\n      dup4\n        /* \"#utility.yul\":6071:6087   */\n      add\n        /* \"#utility.yul\":6064:6091   */\n      mstore\n        /* \"#utility.yul\":5951:6097   */\n      pop\n      pop\n      pop\n      jump\t// out\n        /* \"#utility.yul\":6103:6528   */\n    tag_83:\n        /* \"#utility.yul\":6181:6186   */\n      0x00\n        /* \"#utility.yul\":6206:6272   */\n      tag_172\n        /* \"#utility.yul\":6222:6271   */\n      tag_173\n        /* \"#utility.yul\":6264:6270   */\n      dup5\n        /* \"#utility.yul\":6222:6271   */\n      tag_81\n      jump\t// in\n    tag_173:\n        /* \"#utility.yul\":6206:6272   */\n      tag_80\n      jump\t// in\n    tag_172:\n        /* \"#utility.yul\":6197:6272   */\n      swap1\n      pop\n        /* \"#utility.yul\":6295:6301   */\n      dup3\n        /* \"#utility.yul\":6288:6293   */\n      dup2\n        /* \"#utility.yul\":6281:6302   */\n      mstore\n        /* \"#utility.yul\":6333:6337   */\n      0x20\n        /* \"#utility.yul\":6326:6331   */\n      dup2\n        /* \"#utility.yul\":6322:6338   */\n      add\n        /* \"#utility.yul\":6371:6374   */\n      dup5\n        /* \"#utility.yul\":6362:6368   */\n      dup5\n        /* \"#utility.yul\":6357:6360   */\n      dup5\n        /* \"#utility.yul\":6353:6369   */\n      add\n        /* \"#utility.yul\":6350:6375   */\n      gt\n        /* \"#utility.yul\":6347:6459   */\n      iszero\n      tag_174\n      jumpi\n        /* \"#utility.yul\":6378:6457   */\n      tag_175\n      tag_77\n      jump\t// in\n    tag_175:\n        /* \"#utility.yul\":6347:6459   */\n    tag_174:\n        /* \"#utility.yul\":6468:6522   */\n      tag_176\n        /* \"#utility.yul\":6515:6521   */\n      dup5\n        /* \"#utility.yul\":6510:6513   */\n      dup3\n        /* \"#utility.yul\":6505:6508   */\n      dup6\n        /* \"#utility.yul\":6468:6522   */\n      tag_82\n      jump\t// in\n    tag_176:\n        /* \"#utility.yul\":6187:6528   */\n      pop\n        /* \"#utility.yul\":6103:6528   */\n      swap4\n      swap3\n      pop\n      pop\n      pop\n      jump\t// out\n        /* \"#utility.yul\":6548:6888   */\n    tag_84:\n        /* \"#utility.yul\":6604:6609   */\n      0x00\n        /* \"#utility.yul\":6653:6656   */\n      dup3\n        /* \"#utility.yul\":6646:6650   */\n      0x1f\n        /* \"#utility.yul\":6638:6644   */\n      dup4\n        /* \"#utility.yul\":6634:6651   */\n      add\n        /* \"#utility.yul\":6630:6657   */\n      slt\n        /* \"#utility.yul\":6620:6742   */\n      tag_178\n      jumpi\n        /* \"#utility.yul\":6661:6740   */\n      tag_179\n      tag_60\n      jump\t// in\n    tag_179:\n        /* \"#utility.yul\":6620:6742   */\n    tag_178:\n        /* \"#utility.yul\":6778:6784   */\n      dup2\n        /* \"#utility.yul\":6765:6785   */\n      calldataload\n        /* \"#utility.yul\":6803:6882   */\n      tag_180\n        /* \"#utility.yul\":6878:6881   */\n      dup5\n        /* \"#utility.yul\":6870:6876   */\n      dup3\n        /* \"#utility.yul\":6863:6867   */\n      0x20\n        /* \"#utility.yul\":6855:6861   */\n      dup7\n        /* \"#utility.yul\":6851:6868   */\n      add\n        /* \"#utility.yul\":6803:6882   */\n      tag_83\n      jump\t// in\n    tag_180:\n        /* \"#utility.yul\":6794:6882   */\n      swap2\n      pop\n        /* \"#utility.yul\":6610:6888   */\n      pop\n        /* \"#utility.yul\":6548:6888   */\n      swap3\n      swap2\n      pop\n      pop\n      jump\t// out\n        /* \"#utility.yul\":6894:7016   */\n    tag_85:\n        /* \"#utility.yul\":6967:6991   */\n      tag_182\n        /* \"#utility.yul\":6985:6990   */\n      dup2\n        /* \"#utility.yul\":6967:6991   */\n      tag_69\n      jump\t// in\n    tag_182:\n        /* \"#utility.yul\":6960:6965   */\n      dup2\n        /* \"#utility.yul\":6957:6992   */\n      eq\n        /* \"#utility.yul\":6947:7010   */\n      tag_183\n      jumpi\n        /* \"#utility.yul\":7006:7007   */\n      0x00\n        /* \"#utility.yul\":7003:7004   */\n      dup1\n        /* \"#utility.yul\":6996:7008   */\n      revert\n        /* \"#utility.yul\":6947:7010   */\n    tag_183:\n        /* \"#utility.yul\":6894:7016   */\n      pop\n      jump\t// out\n        /* \"#utility.yul\":7022:7161   */\n    tag_86:\n        /* \"#utility.yul\":7068:7073   */\n      0x00\n        /* \"#utility.yul\":7106:7112   */\n      dup2\n        /* \"#utility.yul\":7093:7113   */\n      calldataload\n        /* \"#utility.yul\":7084:7113   */\n      swap1\n      pop\n        /* \"#utility.yul\":7122:7155   */\n      tag_185\n        /* \"#utility.yul\":7149:7154   */\n      dup2\n        /* \"#utility.yul\":7122:7155   */\n      tag_85\n      jump\t// in\n    tag_185:\n        /* \"#utility.yul\":7022:7161   */\n      swap3\n      swap2\n      pop\n      pop\n      jump\t// out\n        /* \"#utility.yul\":7167:7271   */\n    tag_87:\n        /* \"#utility.yul\":7212:7219   */\n      0x00\n        /* \"#utility.yul\":7241:7265   */\n      tag_187\n        /* \"#utility.yul\":7259:7264   */\n      dup3\n        /* \"#utility.yul\":7241:7265   */\n      tag_71\n      jump\t// in\n    tag_187:\n        /* \"#utility.yul\":7230:7265   */\n      swap1\n      pop\n        /* \"#utility.yul\":7167:7271   */\n      swap2\n      swap1\n      pop\n      jump\t// out\n        /* \"#utility.yul\":7277:7415   */\n    tag_88:\n        /* \"#utility.yul\":7358:7390   */\n      tag_189\n        /* \"#utility.yul\":7384:7389   */\n      dup2\n        /* \"#utility.yul\":7358:7390   */\n      tag_87\n      jump\t// in\n    tag_189:\n        /* \"#utility.yul\":7351:7356   */\n      dup2\n        /* \"#utility.yul\":7348:7391   */\n      eq\n        /* \"#utility.yul\":7338:7409   */\n      tag_190\n      jumpi\n        /* \"#utility.yul\":7405:7406   */\n      0x00\n        /* \"#utility.yul\":7402:7403   */\n      dup1\n        /* \"#utility.yul\":7395:7407   */\n      revert\n        /* \"#utility.yul\":7338:7409   */\n    tag_190:\n        /* \"#utility.yul\":7277:7415   */\n      pop\n      jump\t// out\n        /* \"#utility.yul\":7421:7576   */\n    tag_89:\n        /* \"#utility.yul\":7475:7480   */\n      0x00\n        /* \"#utility.yul\":7513:7519   */\n      dup2\n        /* \"#utility.yul\":7500:7520   */\n      calldataload\n        /* \"#utility.yul\":7491:7520   */\n      swap1\n      pop\n        /* \"#utility.yul\":7529:7570   */\n      tag_192\n        /* \"#utility.yul\":7564:7569   */\n      dup2\n        /* \"#utility.yul\":7529:7570   */\n      tag_88\n      jump\t// in\n    tag_192:\n        /* \"#utility.yul\":7421:7576   */\n      swap3\n      swap2\n      pop\n      pop\n      jump\t// out\n        /* \"#utility.yul\":7582:8397   */\n    tag_38:\n        /* \"#utility.yul\":7677:7683   */\n      0x00\n        /* \"#utility.yul\":7685:7691   */\n      dup1\n        /* \"#utility.yul\":7693:7699   */\n      0x00\n        /* \"#utility.yul\":7742:7744   */\n      0x60\n        /* \"#utility.yul\":7730:7739   */\n      dup5\n        /* \"#utility.yul\":7721:7728   */\n      dup7\n        /* \"#utility.yul\":7717:7740   */\n      sub\n        /* \"#utility.yul\":7713:7745   */\n      slt\n        /* \"#utility.yul\":7710:7829   */\n      iszero\n      tag_194\n      jumpi\n        /* \"#utility.yul\":7748:7827   */\n      tag_195\n      tag_58\n      jump\t// in\n    tag_195:\n        /* \"#utility.yul\":7710:7829   */\n    tag_194:\n        /* \"#utility.yul\":7896:7897   */\n      0x00\n        /* \"#utility.yul\":7885:7894   */\n      dup5\n        /* \"#utility.yul\":7881:7898   */\n      add\n        /* \"#utility.yul\":7868:7899   */\n      calldataload\n        /* \"#utility.yul\":7926:7944   */\n      0xffffffffffffffff\n        /* \"#utility.yul\":7918:7924   */\n      dup2\n        /* \"#utility.yul\":7915:7945   */\n      gt\n        /* \"#utility.yul\":7912:8029   */\n      iszero\n      tag_196\n      jumpi\n        /* \"#utility.yul\":7948:8027   */\n      tag_197\n      tag_59\n      jump\t// in\n    tag_197:\n        /* \"#utility.yul\":7912:8029   */\n    tag_196:\n        /* \"#utility.yul\":8053:8116   */\n      tag_198\n        /* \"#utility.yul\":8108:8115   */\n      dup7\n        /* \"#utility.yul\":8099:8105   */\n      dup3\n        /* \"#utility.yul\":8088:8097   */\n      dup8\n        /* \"#utility.yul\":8084:8106   */\n      add\n        /* \"#utility.yul\":8053:8116   */\n      tag_84\n      jump\t// in\n    tag_198:\n        /* \"#utility.yul\":8043:8116   */\n      swap4\n      pop\n        /* \"#utility.yul\":7839:8126   */\n      pop\n        /* \"#utility.yul\":8165:8167   */\n      0x20\n        /* \"#utility.yul\":8191:8244   */\n      tag_199\n        /* \"#utility.yul\":8236:8243   */\n      dup7\n        /* \"#utility.yul\":8227:8233   */\n      dup3\n        /* \"#utility.yul\":8216:8225   */\n      dup8\n        /* \"#utility.yul\":8212:8234   */\n      add\n        /* \"#utility.yul\":8191:8244   */\n      tag_86\n      jump\t// in\n    tag_199:\n        /* \"#utility.yul\":8181:8244   */\n      swap3\n      pop\n        /* \"#utility.yul\":8136:8254   */\n      pop\n        /* \"#utility.yul\":8293:8295   */\n      0x40\n        /* \"#utility.yul\":8319:8380   */\n      tag_200\n        /* \"#utility.yul\":8372:8379   */\n      dup7\n        /* \"#utility.yul\":8363:8369   */\n      dup3\n        /* \"#utility.yul\":8352:8361   */\n      dup8\n        /* \"#utility.yul\":8348:8370   */\n      add\n        /* \"#utility.yul\":8319:8380   */\n      tag_89\n      jump\t// in\n    tag_200:\n        /* \"#utility.yul\":8309:8380   */\n      swap2\n      pop\n        /* \"#utility.yul\":8264:8390   */\n      pop\n        /* \"#utility.yul\":7582:8397   */\n      swap3\n      pop\n      swap3\n      pop\n      swap3\n      jump\t// out\n        /* \"#utility.yul\":8403:8551   */\n    tag_90:\n        /* \"#utility.yul\":8505:8516   */\n      0x00\n        /* \"#utility.yul\":8542:8545   */\n      dup2\n        /* \"#utility.yul\":8527:8545   */\n      swap1\n      pop\n        /* \"#utility.yul\":8403:8551   */\n      swap3\n      swap2\n      pop\n      pop\n      jump\t// out\n        /* \"#utility.yul\":8557:8715   */\n    tag_91:\n        /* \"#utility.yul\":8697:8707   */\n      0x617070776f726b73000000000000000000000000000000000000000000000000\n        /* \"#utility.yul\":8693:8694   */\n      0x00\n        /* \"#utility.yul\":8685:8691   */\n      dup3\n        /* \"#utility.yul\":8681:8695   */\n      add\n        /* \"#utility.yul\":8674:8708   */\n      mstore\n        /* \"#utility.yul\":8557:8715   */\n      pop\n      jump\t// out\n        /* \"#utility.yul\":8721:9121   */\n    tag_92:\n        /* \"#utility.yul\":8881:8884   */\n      0x00\n        /* \"#utility.yul\":8902:8986   */\n      tag_204\n        /* \"#utility.yul\":8984:8985   */\n      0x08\n        /* \"#utility.yul\":8979:8982   */\n      dup4\n        /* \"#utility.yul\":8902:8986   */\n      tag_90\n      jump\t// in\n    tag_204:\n        /* \"#utility.yul\":8895:8986   */\n      swap2\n      pop\n        /* \"#utility.yul\":8995:9088   */\n      tag_205\n        /* \"#utility.yul\":9084:9087   */\n      dup3\n        /* \"#utility.yul\":8995:9088   */\n      tag_91\n      jump\t// in\n    tag_205:\n        /* \"#utility.yul\":9113:9114   */\n      0x08\n        /* \"#utility.yul\":9108:9111   */\n      dup3\n        /* \"#utility.yul\":9104:9115   */\n      add\n        /* \"#utility.yul\":9097:9115   */\n      swap1\n      pop\n        /* \"#utility.yul\":8721:9121   */\n      swap2\n      swap1\n      pop\n      jump\t// out\n        /* \"#utility.yul\":9127:9508   */\n    tag_41:\n        /* \"#utility.yul\":9312:9315   */\n      0x00\n        /* \"#utility.yul\":9334:9482   */\n      tag_207\n        /* \"#utility.yul\":9478:9481   */\n      dup3\n        /* \"#utility.yul\":9334:9482   */\n      tag_92\n      jump\t// in\n    tag_207:\n        /* \"#utility.yul\":9327:9482   */\n      swap2\n      pop\n        /* \"#utility.yul\":9499:9502   */\n      dup2\n        /* \"#utility.yul\":9492:9502   */\n      swap1\n      pop\n        /* \"#utility.yul\":9127:9508   */\n      swap2\n      swap1\n      pop\n      jump\t// out\n        /* \"#utility.yul\":9514:9879   */\n    tag_93:\n        /* \"#utility.yul\":9656:9659   */\n      0x00\n        /* \"#utility.yul\":9677:9743   */\n      tag_209\n        /* \"#utility.yul\":9741:9742   */\n      0x08\n        /* \"#utility.yul\":9736:9739   */\n      dup4\n        /* \"#utility.yul\":9677:9743   */\n      tag_65\n      jump\t// in\n    tag_209:\n        /* \"#utility.yul\":9670:9743   */\n      swap2\n      pop\n        /* \"#utility.yul\":9752:9845   */\n      tag_210\n        /* \"#utility.yul\":9841:9844   */\n      dup3\n        /* \"#utility.yul\":9752:9845   */\n      tag_91\n      jump\t// in\n    tag_210:\n        /* \"#utility.yul\":9870:9872   */\n      0x20\n        /* \"#utility.yul\":9865:9868   */\n      dup3\n        /* \"#utility.yul\":9861:9873   */\n      add\n        /* \"#utility.yul\":9854:9873   */\n      swap1\n      pop\n        /* \"#utility.yul\":9514:9879   */\n      swap2\n      swap1\n      pop\n      jump\t// out\n        /* \"#utility.yul\":9885:10304   */\n    tag_44:\n        /* \"#utility.yul\":10051:10055   */\n      0x00\n        /* \"#utility.yul\":10089:10091   */\n      0x20\n        /* \"#utility.yul\":10078:10087   */\n      dup3\n        /* \"#utility.yul\":10074:10092   */\n      add\n        /* \"#utility.yul\":10066:10092   */\n      swap1\n      pop\n        /* \"#utility.yul\":10138:10147   */\n      dup2\n        /* \"#utility.yul\":10132:10136   */\n      dup2\n        /* \"#utility.yul\":10128:10148   */\n      sub\n        /* \"#utility.yul\":10124:10125   */\n      0x00\n        /* \"#utility.yul\":10113:10122   */\n      dup4\n        /* \"#utility.yul\":10109:10126   */\n      add\n        /* \"#utility.yul\":10102:10149   */\n      mstore\n        /* \"#utility.yul\":10166:10297   */\n      tag_212\n        /* \"#utility.yul\":10292:10296   */\n      dup2\n        /* \"#utility.yul\":10166:10297   */\n      tag_93\n      jump\t// in\n    tag_212:\n        /* \"#utility.yul\":10158:10297   */\n      swap1\n      pop\n        /* \"#utility.yul\":9885:10304   */\n      swap2\n      swap1\n      pop\n      jump\t// out\n        /* \"#utility.yul\":10310:10395   */\n    tag_94:\n        /* \"#utility.yul\":10355:10362   */\n      0x00\n        /* \"#utility.yul\":10384:10389   */\n      dup2\n        /* \"#utility.yul\":10373:10389   */\n      swap1\n      pop\n        /* \"#utility.yul\":10310:10395   */\n      swap2\n      swap1\n      pop\n      jump\t// out\n        /* \"#utility.yul\":10401:10487   */\n    tag_95:\n        /* \"#utility.yul\":10436:10443   */\n      0x00\n        /* \"#utility.yul\":10476:10480   */\n      0xff\n        /* \"#utility.yul\":10469:10474   */\n      dup3\n        /* \"#utility.yul\":10465:10481   */\n      and\n        /* \"#utility.yul\":10454:10481   */\n      swap1\n      pop\n        /* \"#utility.yul\":10401:10487   */\n      swap2\n      swap1\n      pop\n      jump\t// out\n        /* \"#utility.yul\":10493:10553   */\n    tag_96:\n        /* \"#utility.yul\":10521:10524   */\n      0x00\n        /* \"#utility.yul\":10542:10547   */\n      dup2\n        /* \"#utility.yul\":10535:10547   */\n      swap1\n      pop\n        /* \"#utility.yul\":10493:10553   */\n      swap2\n      swap1\n      pop\n      jump\t// out\n        /* \"#utility.yul\":10559:10713   */\n    tag_97:\n        /* \"#utility.yul\":10615:10624   */\n      0x00\n        /* \"#utility.yul\":10648:10707   */\n      tag_217\n        /* \"#utility.yul\":10664:10706   */\n      tag_218\n        /* \"#utility.yul\":10673:10705   */\n      tag_219\n        /* \"#utility.yul\":10699:10704   */\n      dup5\n        /* \"#utility.yul\":10673:10705   */\n      tag_94\n      jump\t// in\n    tag_219:\n        /* \"#utility.yul\":10664:10706   */\n      tag_96\n      jump\t// in\n    tag_218:\n        /* \"#utility.yul\":10648:10707   */\n      tag_95\n      jump\t// in\n    tag_217:\n        /* \"#utility.yul\":10635:10707   */\n      swap1\n      pop\n        /* \"#utility.yul\":10559:10713   */\n      swap2\n      swap1\n      pop\n      jump\t// out\n        /* \"#utility.yul\":10719:10862   */\n    tag_98:\n        /* \"#utility.yul\":10812:10855   */\n      tag_221\n        /* \"#utility.yul\":10849:10854   */\n      dup2\n        /* \"#utility.yul\":10812:10855   */\n      tag_97\n      jump\t// in\n    tag_221:\n        /* \"#utility.yul\":10807:10810   */\n      dup3\n        /* \"#utility.yul\":10800:10856   */\n      mstore\n        /* \"#utility.yul\":10719:10862   */\n      pop\n      pop\n      jump\t// out\n        /* \"#utility.yul\":10868:10954   */\n    tag_99:\n        /* \"#utility.yul\":10914:10921   */\n      0x00\n        /* \"#utility.yul\":10943:10948   */\n      dup2\n        /* \"#utility.yul\":10932:10948   */\n      swap1\n      pop\n        /* \"#utility.yul\":10868:10954   */\n      swap2\n      swap1\n      pop\n      jump\t// out\n        /* \"#utility.yul\":10960:11116   */\n    tag_100:\n        /* \"#utility.yul\":11017:11026   */\n      0x00\n        /* \"#utility.yul\":11050:11110   */\n      tag_224\n        /* \"#utility.yul\":11066:11109   */\n      tag_225\n        /* \"#utility.yul\":11075:11108   */\n      tag_226\n        /* \"#utility.yul\":11102:11107   */\n      dup5\n        /* \"#utility.yul\":11075:11108   */\n      tag_99\n      jump\t// in\n    tag_226:\n        /* \"#utility.yul\":11066:11109   */\n      tag_96\n      jump\t// in\n    tag_225:\n        /* \"#utility.yul\":11050:11110   */\n      tag_95\n      jump\t// in\n    tag_224:\n        /* \"#utility.yul\":11037:11110   */\n      swap1\n      pop\n        /* \"#utility.yul\":10960:11116   */\n      swap2\n      swap1\n      pop\n      jump\t// out\n        /* \"#utility.yul\":11122:11267   */\n    tag_101:\n        /* \"#utility.yul\":11216:11260   */\n      tag_228\n        /* \"#utility.yul\":11254:11259   */\n      dup2\n        /* \"#utility.yul\":11216:11260   */\n      tag_100\n      jump\t// in\n    tag_228:\n        /* \"#utility.yul\":11211:11214   */\n      dup3\n        /* \"#utility.yul\":11204:11261   */\n      mstore\n        /* \"#utility.yul\":11122:11267   */\n      pop\n      pop\n      jump\t// out\n        /* \"#utility.yul\":11273:11426   */\n    tag_102:\n        /* \"#utility.yul\":11413:11418   */\n      0x6a696d0000000000000000000000000000000000000000000000000000000000\n        /* \"#utility.yul\":11409:11410   */\n      0x00\n        /* \"#utility.yul\":11401:11407   */\n      dup3\n        /* \"#utility.yul\":11397:11411   */\n      add\n        /* \"#utility.yul\":11390:11419   */\n      mstore\n        /* \"#utility.yul\":11273:11426   */\n      pop\n      jump\t// out\n        /* \"#utility.yul\":11432:11797   */\n    tag_103:\n        /* \"#utility.yul\":11574:11577   */\n      0x00\n        /* \"#utility.yul\":11595:11661   */\n      tag_231\n        /* \"#utility.yul\":11659:11660   */\n      0x03\n        /* \"#utility.yul\":11654:11657   */\n      dup4\n        /* \"#utility.yul\":11595:11661   */\n      tag_65\n      jump\t// in\n    tag_231:\n        /* \"#utility.yul\":11588:11661   */\n      swap2\n      pop\n        /* \"#utility.yul\":11670:11763   */\n      tag_232\n        /* \"#utility.yul\":11759:11762   */\n      dup3\n        /* \"#utility.yul\":11670:11763   */\n      tag_102\n      jump\t// in\n    tag_232:\n        /* \"#utility.yul\":11788:11790   */\n      0x20\n        /* \"#utility.yul\":11783:11786   */\n      dup3\n        /* \"#utility.yul\":11779:11791   */\n      add\n        /* \"#utility.yul\":11772:11791   */\n      swap1\n      pop\n        /* \"#utility.yul\":11432:11797   */\n      swap2\n      swap1\n      pop\n      jump\t// out\n        /* \"#utility.yul\":11803:12776   */\n    tag_47:\n        /* \"#utility.yul\":12139:12143   */\n      0x00\n        /* \"#utility.yul\":12177:12180   */\n      0x80\n        /* \"#utility.yul\":12166:12175   */\n      dup3\n        /* \"#utility.yul\":12162:12181   */\n      add\n        /* \"#utility.yul\":12154:12181   */\n      swap1\n      pop\n        /* \"#utility.yul\":12227:12236   */\n      dup2\n        /* \"#utility.yul\":12221:12225   */\n      dup2\n        /* \"#utility.yul\":12217:12237   */\n      sub\n        /* \"#utility.yul\":12213:12214   */\n      0x00\n        /* \"#utility.yul\":12202:12211   */\n      dup4\n        /* \"#utility.yul\":12198:12215   */\n      add\n        /* \"#utility.yul\":12191:12238   */\n      mstore\n        /* \"#utility.yul\":12255:12386   */\n      tag_234\n        /* \"#utility.yul\":12381:12385   */\n      dup2\n        /* \"#utility.yul\":12255:12386   */\n      tag_93\n      jump\t// in\n    tag_234:\n        /* \"#utility.yul\":12247:12386   */\n      swap1\n      pop\n        /* \"#utility.yul\":12396:12474   */\n      tag_235\n        /* \"#utility.yul\":12470:12472   */\n      0x20\n        /* \"#utility.yul\":12459:12468   */\n      dup4\n        /* \"#utility.yul\":12455:12473   */\n      add\n        /* \"#utility.yul\":12446:12452   */\n      dup6\n        /* \"#utility.yul\":12396:12474   */\n      tag_98\n      jump\t// in\n    tag_235:\n        /* \"#utility.yul\":12484:12563   */\n      tag_236\n        /* \"#utility.yul\":12559:12561   */\n      0x40\n        /* \"#utility.yul\":12548:12557   */\n      dup4\n        /* \"#utility.yul\":12544:12562   */\n      add\n        /* \"#utility.yul\":12535:12541   */\n      dup5\n        /* \"#utility.yul\":12484:12563   */\n      tag_101\n      jump\t// in\n    tag_236:\n        /* \"#utility.yul\":12610:12619   */\n      dup2\n        /* \"#utility.yul\":12604:12608   */\n      dup2\n        /* \"#utility.yul\":12600:12620   */\n      sub\n        /* \"#utility.yul\":12595:12597   */\n      0x60\n        /* \"#utility.yul\":12584:12593   */\n      dup4\n        /* \"#utility.yul\":12580:12598   */\n      add\n        /* \"#utility.yul\":12573:12621   */\n      mstore\n        /* \"#utility.yul\":12638:12769   */\n      tag_237\n        /* \"#utility.yul\":12764:12768   */\n      dup2\n        /* \"#utility.yul\":12638:12769   */\n      tag_103\n      jump\t// in\n    tag_237:\n        /* \"#utility.yul\":12630:12769   */\n      swap1\n      pop\n        /* \"#utility.yul\":11803:12776   */\n      swap4\n      swap3\n      pop\n      pop\n      pop\n      jump\t// out\n        /* \"#utility.yul\":12782:13433   */\n    tag_50:\n        /* \"#utility.yul\":13010:13014   */\n      0x00\n        /* \"#utility.yul\":13048:13050   */\n      0x60\n        /* \"#utility.yul\":13037:13046   */\n      dup3\n        /* \"#utility.yul\":13033:13051   */\n      add\n        /* \"#utility.yul\":13025:13051   */\n      swap1\n      pop\n        /* \"#utility.yul\":13097:13106   */\n      dup2\n        /* \"#utility.yul\":13091:13095   */\n      dup2\n        /* \"#utility.yul\":13087:13107   */\n      sub\n        /* \"#utility.yul\":13083:13084   */\n      0x00\n        /* \"#utility.yul\":13072:13081   */\n      dup4\n        /* \"#utility.yul\":13068:13085   */\n      add\n        /* \"#utility.yul\":13061:13108   */\n      mstore\n        /* \"#utility.yul\":13125:13256   */\n      tag_239\n        /* \"#utility.yul\":13251:13255   */\n      dup2\n        /* \"#utility.yul\":13125:13256   */\n      tag_93\n      jump\t// in\n    tag_239:\n        /* \"#utility.yul\":13117:13256   */\n      swap1\n      pop\n        /* \"#utility.yul\":13266:13344   */\n      tag_240\n        /* \"#utility.yul\":13340:13342   */\n      0x20\n        /* \"#utility.yul\":13329:13338   */\n      dup4\n        /* \"#utility.yul\":13325:13343   */\n      add\n        /* \"#utility.yul\":13316:13322   */\n      dup6\n        /* \"#utility.yul\":13266:13344   */\n      tag_98\n      jump\t// in\n    tag_240:\n        /* \"#utility.yul\":13354:13426   */\n      tag_241\n        /* \"#utility.yul\":13422:13424   */\n      0x40\n        /* \"#utility.yul\":13411:13420   */\n      dup4\n        /* \"#utility.yul\":13407:13425   */\n      add\n        /* \"#utility.yul\":13398:13404   */\n      dup5\n        /* \"#utility.yul\":13354:13426   */\n      tag_73\n      jump\t// in\n    tag_241:\n        /* \"#utility.yul\":12782:13433   */\n      swap4\n      swap3\n      pop\n      pop\n      pop\n      jump\t// out\n        /* \"#utility.yul\":13439:13673   */\n    tag_53:\n        /* \"#utility.yul\":13538:13542   */\n      0x00\n        /* \"#utility.yul\":13576:13578   */\n      0x20\n        /* \"#utility.yul\":13565:13574   */\n      dup3\n        /* \"#utility.yul\":13561:13579   */\n      add\n        /* \"#utility.yul\":13553:13579   */\n      swap1\n      pop\n        /* \"#utility.yul\":13589:13666   */\n      tag_243\n        /* \"#utility.yul\":13663:13664   */\n      0x00\n        /* \"#utility.yul\":13652:13661   */\n      dup4\n        /* \"#utility.yul\":13648:13665   */\n      add\n        /* \"#utility.yul\":13639:13645   */\n      dup5\n        /* \"#utility.yul\":13589:13666   */\n      tag_98\n      jump\t// in\n    tag_243:\n        /* \"#utility.yul\":13439:13673   */\n      swap3\n      swap2\n      pop\n      pop\n      jump\t// out\n        /* \"#utility.yul\":13679:13901   */\n    tag_56:\n        /* \"#utility.yul\":13772:13776   */\n      0x00\n        /* \"#utility.yul\":13810:13812   */\n      0x20\n        /* \"#utility.yul\":13799:13808   */\n      dup3\n        /* \"#utility.yul\":13795:13813   */\n      add\n        /* \"#utility.yul\":13787:13813   */\n      swap1\n      pop\n        /* \"#utility.yul\":13823:13894   */\n      tag_245\n        /* \"#utility.yul\":13891:13892   */\n      0x00\n        /* \"#utility.yul\":13880:13889   */\n      dup4\n        /* \"#utility.yul\":13876:13893   */\n      add\n        /* \"#utility.yul\":13867:13873   */\n      dup5\n        /* \"#utility.yul\":13823:13894   */\n      tag_73\n      jump\t// in\n    tag_245:\n        /* \"#utility.yul\":13679:13901   */\n      swap3\n      swap2\n      pop\n      pop\n      jump\t// out\n\n    auxdata: 0xa2646970667358221220eb8948bf1672c66ff20347f850b65fd5b9deae57d13ab28fabb1cfa612a6350064736f6c63430008150033\n}\n",
				"bytecode": {
					"linkReferences": {},
					"object": "608060405234801561000f575f80fd5b5061094e8061001d5f395ff3fe608060405234801561000f575f80fd5b506004361061007b575f3560e01c80637faec262116100595780637faec262146100ed578063bd14598f1461010b578063c1ed13ef14610129578063cf57b6eb146101475761007b565b8063065fdac21461007f57806344d1587c146100b1578063733e2f06146100cf575b5f80fd5b61009960048036038101906100949190610313565b610165565b6040516100a89392919061043f565b60405180910390f35b6100b961018b565b6040516100c691906104cd565b60405180910390f35b6100d76101b0565b6040516100e491906104cd565b60405180910390f35b6100f56101d5565b60405161010291906104cd565b60405180910390f35b610113610200565b60405161012091906104cd565b60405180910390f35b61013161023e565b60405161013e91906104cd565b60405180910390f35b61014f610266565b60405161015c91906104cd565b60405180910390f35b60605f808484810190610178919061067a565b8093508194508295505050509250925092565b606060405160200161019c9061073a565b604051602081830303815290604052905090565b60606040516020016101c190610770565b604051602081830303815290604052905090565b6060600160636040516020016101ec92919061085f565b604051602081830303815290604052905090565b60606001732ff1f4e5d08a822743ec6b342c521a0a421456cb60405160200161022a9291906108ac565b604051602081830303815290604052905090565b6060600160405160200161025291906108e6565b604051602081830303815290604052905090565b6060732ff1f4e5d08a822743ec6b342c521a0a421456cb60405160200161028d91906108ff565b604051602081830303815290604052905090565b5f604051905090565b5f80fd5b5f80fd5b5f80fd5b5f80fd5b5f80fd5b5f8083601f8401126102d3576102d26102b2565b5b8235905067ffffffffffffffff8111156102f0576102ef6102b6565b5b60208301915083600182028301111561030c5761030b6102ba565b5b9250929050565b5f8060208385031215610329576103286102aa565b5b5f83013567ffffffffffffffff811115610346576103456102ae565b5b610352858286016102be565b92509250509250929050565b5f81519050919050565b5f82825260208201905092915050565b5f5b8381101561039557808201518184015260208101905061037a565b5f8484015250505050565b5f601f19601f8301169050919050565b5f6103ba8261035e565b6103c48185610368565b93506103d4818560208601610378565b6103dd816103a0565b840191505092915050565b5f819050919050565b6103fa816103e8565b82525050565b5f73ffffffffffffffffffffffffffffffffffffffff82169050919050565b5f61042982610400565b9050919050565b6104398161041f565b82525050565b5f6060820190508181035f83015261045781866103b0565b905061046660208301856103f1565b6104736040830184610430565b949350505050565b5f81519050919050565b5f82825260208201905092915050565b5f61049f8261047b565b6104a98185610485565b93506104b9818560208601610378565b6104c2816103a0565b840191505092915050565b5f6020820190508181035f8301526104e58184610495565b905092915050565b5f80fd5b7f4e487b71000000000000000000000000000000000000000000000000000000005f52604160045260245ffd5b610527826103a0565b810181811067ffffffffffffffff82111715610546576105456104f1565b5b80604052505050565b5f6105586102a1565b9050610564828261051e565b919050565b5f67ffffffffffffffff821115610583576105826104f1565b5b61058c826103a0565b9050602081019050919050565b828183375f83830152505050565b5f6105b96105b484610569565b61054f565b9050828152602081018484840111156105d5576105d46104ed565b5b6105e0848285610599565b509392505050565b5f82601f8301126105fc576105fb6102b2565b5b813561060c8482602086016105a7565b91505092915050565b61061e816103e8565b8114610628575f80fd5b50565b5f8135905061063981610615565b92915050565b5f61064982610400565b9050919050565b6106598161063f565b8114610663575f80fd5b50565b5f8135905061067481610650565b92915050565b5f805f60608486031215610691576106906102aa565b5b5f84013567ffffffffffffffff8111156106ae576106ad6102ae565b5b6106ba868287016105e8565b93505060206106cb8682870161062b565b92505060406106dc86828701610666565b9150509250925092565b5f81905092915050565b7f617070776f726b730000000000000000000000000000000000000000000000005f82015250565b5f6107246008836106e6565b915061072f826106f0565b600882019050919050565b5f61074482610718565b9150819050919050565b5f61075a600883610368565b9150610765826106f0565b602082019050919050565b5f6020820190508181035f8301526107878161074e565b9050919050565b5f819050919050565b5f60ff82169050919050565b5f819050919050565b5f6107c66107c16107bc8461078e565b6107a3565b610797565b9050919050565b6107d6816107ac565b82525050565b5f819050919050565b5f6107ff6107fa6107f5846107dc565b6107a3565b610797565b9050919050565b61080f816107e5565b82525050565b7f6a696d00000000000000000000000000000000000000000000000000000000005f82015250565b5f610849600383610368565b915061085482610815565b602082019050919050565b5f6080820190508181035f8301526108768161074e565b905061088560208301856107cd565b6108926040830184610806565b81810360608301526108a38161083d565b90509392505050565b5f6060820190508181035f8301526108c38161074e565b90506108d260208301856107cd565b6108df6040830184610430565b9392505050565b5f6020820190506108f95f8301846107cd565b92915050565b5f6020820190506109125f830184610430565b9291505056fea2646970667358221220eb8948bf1672c66ff20347f850b65fd5b9deae57d13ab28fabb1cfa612a6350064736f6c63430008150033",
					"opcodes": "PUSH1 0x80 PUSH1 0x40 MSTORE CALLVALUE DUP1 ISZERO PUSH2 0xF JUMPI PUSH0 DUP1 REVERT JUMPDEST POP PUSH2 0x94E DUP1 PUSH2 0x1D PUSH0 CODECOPY PUSH0 RETURN INVALID PUSH1 0x80 PUSH1 0x40 MSTORE CALLVALUE DUP1 ISZERO PUSH2 0xF JUMPI PUSH0 DUP1 REVERT JUMPDEST POP PUSH1 0x4 CALLDATASIZE LT PUSH2 0x7B JUMPI PUSH0 CALLDATALOAD PUSH1 0xE0 SHR DUP1 PUSH4 0x7FAEC262 GT PUSH2 0x59 JUMPI DUP1 PUSH4 0x7FAEC262 EQ PUSH2 0xED JUMPI DUP1 PUSH4 0xBD14598F EQ PUSH2 0x10B JUMPI DUP1 PUSH4 0xC1ED13EF EQ PUSH2 0x129 JUMPI DUP1 PUSH4 0xCF57B6EB EQ PUSH2 0x147 JUMPI PUSH2 0x7B JUMP JUMPDEST DUP1 PUSH4 0x65FDAC2 EQ PUSH2 0x7F JUMPI DUP1 PUSH4 0x44D1587C EQ PUSH2 0xB1 JUMPI DUP1 PUSH4 0x733E2F06 EQ PUSH2 0xCF JUMPI JUMPDEST PUSH0 DUP1 REVERT JUMPDEST PUSH2 0x99 PUSH1 0x4 DUP1 CALLDATASIZE SUB DUP2 ADD SWAP1 PUSH2 0x94 SWAP2 SWAP1 PUSH2 0x313 JUMP JUMPDEST PUSH2 0x165 JUMP JUMPDEST PUSH1 0x40 MLOAD PUSH2 0xA8 SWAP4 SWAP3 SWAP2 SWAP1 PUSH2 0x43F JUMP JUMPDEST PUSH1 0x40 MLOAD DUP1 SWAP2 SUB SWAP1 RETURN JUMPDEST PUSH2 0xB9 PUSH2 0x18B JUMP JUMPDEST PUSH1 0x40 MLOAD PUSH2 0xC6 SWAP2 SWAP1 PUSH2 0x4CD JUMP JUMPDEST PUSH1 0x40 MLOAD DUP1 SWAP2 SUB SWAP1 RETURN JUMPDEST PUSH2 0xD7 PUSH2 0x1B0 JUMP JUMPDEST PUSH1 0x40 MLOAD PUSH2 0xE4 SWAP2 SWAP1 PUSH2 0x4CD JUMP JUMPDEST PUSH1 0x40 MLOAD DUP1 SWAP2 SUB SWAP1 RETURN JUMPDEST PUSH2 0xF5 PUSH2 0x1D5 JUMP JUMPDEST PUSH1 0x40 MLOAD PUSH2 0x102 SWAP2 SWAP1 PUSH2 0x4CD JUMP JUMPDEST PUSH1 0x40 MLOAD DUP1 SWAP2 SUB SWAP1 RETURN JUMPDEST PUSH2 0x113 PUSH2 0x200 JUMP JUMPDEST PUSH1 0x40 MLOAD PUSH2 0x120 SWAP2 SWAP1 PUSH2 0x4CD JUMP JUMPDEST PUSH1 0x40 MLOAD DUP1 SWAP2 SUB SWAP1 RETURN JUMPDEST PUSH2 0x131 PUSH2 0x23E JUMP JUMPDEST PUSH1 0x40 MLOAD PUSH2 0x13E SWAP2 SWAP1 PUSH2 0x4CD JUMP JUMPDEST PUSH1 0x40 MLOAD DUP1 SWAP2 SUB SWAP1 RETURN JUMPDEST PUSH2 0x14F PUSH2 0x266 JUMP JUMPDEST PUSH1 0x40 MLOAD PUSH2 0x15C SWAP2 SWAP1 PUSH2 0x4CD JUMP JUMPDEST PUSH1 0x40 MLOAD DUP1 SWAP2 SUB SWAP1 RETURN JUMPDEST PUSH1 0x60 PUSH0 DUP1 DUP5 DUP5 DUP2 ADD SWAP1 PUSH2 0x178 SWAP2 SWAP1 PUSH2 0x67A JUMP JUMPDEST DUP1 SWAP4 POP DUP2 SWAP5 POP DUP3 SWAP6 POP POP POP POP SWAP3 POP SWAP3 POP SWAP3 JUMP JUMPDEST PUSH1 0x60 PUSH1 0x40 MLOAD PUSH1 0x20 ADD PUSH2 0x19C SWAP1 PUSH2 0x73A JUMP JUMPDEST PUSH1 0x40 MLOAD PUSH1 0x20 DUP2 DUP4 SUB SUB DUP2 MSTORE SWAP1 PUSH1 0x40 MSTORE SWAP1 POP SWAP1 JUMP JUMPDEST PUSH1 0x60 PUSH1 0x40 MLOAD PUSH1 0x20 ADD PUSH2 0x1C1 SWAP1 PUSH2 0x770 JUMP JUMPDEST PUSH1 0x40 MLOAD PUSH1 0x20 DUP2 DUP4 SUB SUB DUP2 MSTORE SWAP1 PUSH1 0x40 MSTORE SWAP1 POP SWAP1 JUMP JUMPDEST PUSH1 0x60 PUSH1 0x1 PUSH1 0x63 PUSH1 0x40 MLOAD PUSH1 0x20 ADD PUSH2 0x1EC SWAP3 SWAP2 SWAP1 PUSH2 0x85F JUMP JUMPDEST PUSH1 0x40 MLOAD PUSH1 0x20 DUP2 DUP4 SUB SUB DUP2 MSTORE SWAP1 PUSH1 0x40 MSTORE SWAP1 POP SWAP1 JUMP JUMPDEST PUSH1 0x60 PUSH1 0x1 PUSH20 0x2FF1F4E5D08A822743EC6B342C521A0A421456CB PUSH1 0x40 MLOAD PUSH1 0x20 ADD PUSH2 0x22A SWAP3 SWAP2 SWAP1 PUSH2 0x8AC JUMP JUMPDEST PUSH1 0x40 MLOAD PUSH1 0x20 DUP2 DUP4 SUB SUB DUP2 MSTORE SWAP1 PUSH1 0x40 MSTORE SWAP1 POP SWAP1 JUMP JUMPDEST PUSH1 0x60 PUSH1 0x1 PUSH1 0x40 MLOAD PUSH1 0x20 ADD PUSH2 0x252 SWAP2 SWAP1 PUSH2 0x8E6 JUMP JUMPDEST PUSH1 0x40 MLOAD PUSH1 0x20 DUP2 DUP4 SUB SUB DUP2 MSTORE SWAP1 PUSH1 0x40 MSTORE SWAP1 POP SWAP1 JUMP JUMPDEST PUSH1 0x60 PUSH20 0x2FF1F4E5D08A822743EC6B342C521A0A421456CB PUSH1 0x40 MLOAD PUSH1 0x20 ADD PUSH2 0x28D SWAP2 SWAP1 PUSH2 0x8FF JUMP JUMPDEST PUSH1 0x40 MLOAD PUSH1 0x20 DUP2 DUP4 SUB SUB DUP2 MSTORE SWAP1 PUSH1 0x40 MSTORE SWAP1 POP SWAP1 JUMP JUMPDEST PUSH0 PUSH1 0x40 MLOAD SWAP1 POP SWAP1 JUMP JUMPDEST PUSH0 DUP1 REVERT JUMPDEST PUSH0 DUP1 REVERT JUMPDEST PUSH0 DUP1 REVERT JUMPDEST PUSH0 DUP1 REVERT JUMPDEST PUSH0 DUP1 REVERT JUMPDEST PUSH0 DUP1 DUP4 PUSH1 0x1F DUP5 ADD SLT PUSH2 0x2D3 JUMPI PUSH2 0x2D2 PUSH2 0x2B2 JUMP JUMPDEST JUMPDEST DUP3 CALLDATALOAD SWAP1 POP PUSH8 0xFFFFFFFFFFFFFFFF DUP2 GT ISZERO PUSH2 0x2F0 JUMPI PUSH2 0x2EF PUSH2 0x2B6 JUMP JUMPDEST JUMPDEST PUSH1 0x20 DUP4 ADD SWAP2 POP DUP4 PUSH1 0x1 DUP3 MUL DUP4 ADD GT ISZERO PUSH2 0x30C JUMPI PUSH2 0x30B PUSH2 0x2BA JUMP JUMPDEST JUMPDEST SWAP3 POP SWAP3 SWAP1 POP JUMP JUMPDEST PUSH0 DUP1 PUSH1 0x20 DUP4 DUP6 SUB SLT ISZERO PUSH2 0x329 JUMPI PUSH2 0x328 PUSH2 0x2AA JUMP JUMPDEST JUMPDEST PUSH0 DUP4 ADD CALLDATALOAD PUSH8 0xFFFFFFFFFFFFFFFF DUP2 GT ISZERO PUSH2 0x346 JUMPI PUSH2 0x345 PUSH2 0x2AE JUMP JUMPDEST JUMPDEST PUSH2 0x352 DUP6 DUP3 DUP7 ADD PUSH2 0x2BE JUMP JUMPDEST SWAP3 POP SWAP3 POP POP SWAP3 POP SWAP3 SWAP1 POP JUMP JUMPDEST PUSH0 DUP2 MLOAD SWAP1 POP SWAP2 SWAP1 POP JUMP JUMPDEST PUSH0 DUP3 DUP3 MSTORE PUSH1 0x20 DUP3 ADD SWAP1 POP SWAP3 SWAP2 POP POP JUMP JUMPDEST PUSH0 JUMPDEST DUP4 DUP2 LT ISZERO PUSH2 0x395 JUMPI DUP1 DUP3 ADD MLOAD DUP2 DUP5 ADD MSTORE PUSH1 0x20 DUP2 ADD SWAP1 POP PUSH2 0x37A JUMP JUMPDEST PUSH0 DUP5 DUP5 ADD MSTORE POP POP POP POP JUMP JUMPDEST PUSH0 PUSH1 0x1F NOT PUSH1 0x1F DUP4 ADD AND SWAP1 POP SWAP2 SWAP1 POP JUMP JUMPDEST PUSH0 PUSH2 0x3BA DUP3 PUSH2 0x35E JUMP JUMPDEST PUSH2 0x3C4 DUP2 DUP6 PUSH2 0x368 JUMP JUMPDEST SWAP4 POP PUSH2 0x3D4 DUP2 DUP6 PUSH1 0x20 DUP7 ADD PUSH2 0x378 JUMP JUMPDEST PUSH2 0x3DD DUP2 PUSH2 0x3A0 JUMP JUMPDEST DUP5 ADD SWAP2 POP POP SWAP3 SWAP2 POP POP JUMP JUMPDEST PUSH0 DUP2 SWAP1 POP SWAP2 SWAP1 POP JUMP JUMPDEST PUSH2 0x3FA DUP2 PUSH2 0x3E8 JUMP JUMPDEST DUP3 MSTORE POP POP JUMP JUMPDEST PUSH0 PUSH20 0xFFFFFFFFFFFFFFFFFFFFFFFFFFFFFFFFFFFFFFFF DUP3 AND SWAP1 POP SWAP2 SWAP1 POP JUMP JUMPDEST PUSH0 PUSH2 0x429 DUP3 PUSH2 0x400 JUMP JUMPDEST SWAP1 POP SWAP2 SWAP1 POP JUMP JUMPDEST PUSH2 0x439 DUP2 PUSH2 0x41F JUMP JUMPDEST DUP3 MSTORE POP POP JUMP JUMPDEST PUSH0 PUSH1 0x60 DUP3 ADD SWAP1 POP DUP2 DUP2 SUB PUSH0 DUP4 ADD MSTORE PUSH2 0x457 DUP2 DUP7 PUSH2 0x3B0 JUMP JUMPDEST SWAP1 POP PUSH2 0x466 PUSH1 0x20 DUP4 ADD DUP6 PUSH2 0x3F1 JUMP JUMPDEST PUSH2 0x473 PUSH1 0x40 DUP4 ADD DUP5 PUSH2 0x430 JUMP JUMPDEST SWAP5 SWAP4 POP POP POP POP JUMP JUMPDEST PUSH0 DUP2 MLOAD SWAP1 POP SWAP2 SWAP1 POP JUMP JUMPDEST PUSH0 DUP3 DUP3 MSTORE PUSH1 0x20 DUP3 ADD SWAP1 POP SWAP3 SWAP2 POP POP JUMP JUMPDEST PUSH0 PUSH2 0x49F DUP3 PUSH2 0x47B JUMP JUMPDEST PUSH2 0x4A9 DUP2 DUP6 PUSH2 0x485 JUMP JUMPDEST SWAP4 POP PUSH2 0x4B9 DUP2 DUP6 PUSH1 0x20 DUP7 ADD PUSH2 0x378 JUMP JUMPDEST PUSH2 0x4C2 DUP2 PUSH2 0x3A0 JUMP JUMPDEST DUP5 ADD SWAP2 POP POP SWAP3 SWAP2 POP POP JUMP JUMPDEST PUSH0 PUSH1 0x20 DUP3 ADD SWAP1 POP DUP2 DUP2 SUB PUSH0 DUP4 ADD MSTORE PUSH2 0x4E5 DUP2 DUP5 PUSH2 0x495 JUMP JUMPDEST SWAP1 POP SWAP3 SWAP2 POP POP JUMP JUMPDEST PUSH0 DUP1 REVERT JUMPDEST PUSH32 0x4E487B7100000000000000000000000000000000000000000000000000000000 PUSH0 MSTORE PUSH1 0x41 PUSH1 0x4 MSTORE PUSH1 0x24 PUSH0 REVERT JUMPDEST PUSH2 0x527 DUP3 PUSH2 0x3A0 JUMP JUMPDEST DUP2 ADD DUP2 DUP2 LT PUSH8 0xFFFFFFFFFFFFFFFF DUP3 GT OR ISZERO PUSH2 0x546 JUMPI PUSH2 0x545 PUSH2 0x4F1 JUMP JUMPDEST JUMPDEST DUP1 PUSH1 0x40 MSTORE POP POP POP JUMP JUMPDEST PUSH0 PUSH2 0x558 PUSH2 0x2A1 JUMP JUMPDEST SWAP1 POP PUSH2 0x564 DUP3 DUP3 PUSH2 0x51E JUMP JUMPDEST SWAP2 SWAP1 POP JUMP JUMPDEST PUSH0 PUSH8 0xFFFFFFFFFFFFFFFF DUP3 GT ISZERO PUSH2 0x583 JUMPI PUSH2 0x582 PUSH2 0x4F1 JUMP JUMPDEST JUMPDEST PUSH2 0x58C DUP3 PUSH2 0x3A0 JUMP JUMPDEST SWAP1 POP PUSH1 0x20 DUP2 ADD SWAP1 POP SWAP2 SWAP1 POP JUMP JUMPDEST DUP3 DUP2 DUP4 CALLDATACOPY PUSH0 DUP4 DUP4 ADD MSTORE POP POP POP JUMP JUMPDEST PUSH0 PUSH2 0x5B9 PUSH2 0x5B4 DUP5 PUSH2 0x569 JUMP JUMPDEST PUSH2 0x54F JUMP JUMPDEST SWAP1 POP DUP3 DUP2 MSTORE PUSH1 0x20 DUP2 ADD DUP5 DUP5 DUP5 ADD GT ISZERO PUSH2 0x5D5 JUMPI PUSH2 0x5D4 PUSH2 0x4ED JUMP JUMPDEST JUMPDEST PUSH2 0x5E0 DUP5 DUP3 DUP6 PUSH2 0x599 JUMP JUMPDEST POP SWAP4 SWAP3 POP POP POP JUMP JUMPDEST PUSH0 DUP3 PUSH1 0x1F DUP4 ADD SLT PUSH2 0x5FC JUMPI PUSH2 0x5FB PUSH2 0x2B2 JUMP JUMPDEST JUMPDEST DUP2 CALLDATALOAD PUSH2 0x60C DUP5 DUP3 PUSH1 0x20 DUP7 ADD PUSH2 0x5A7 JUMP JUMPDEST SWAP2 POP POP SWAP3 SWAP2 POP POP JUMP JUMPDEST PUSH2 0x61E DUP2 PUSH2 0x3E8 JUMP JUMPDEST DUP2 EQ PUSH2 0x628 JUMPI PUSH0 DUP1 REVERT JUMPDEST POP JUMP JUMPDEST PUSH0 DUP2 CALLDATALOAD SWAP1 POP PUSH2 0x639 DUP2 PUSH2 0x615 JUMP JUMPDEST SWAP3 SWAP2 POP POP JUMP JUMPDEST PUSH0 PUSH2 0x649 DUP3 PUSH2 0x400 JUMP JUMPDEST SWAP1 POP SWAP2 SWAP1 POP JUMP JUMPDEST PUSH2 0x659 DUP2 PUSH2 0x63F JUMP JUMPDEST DUP2 EQ PUSH2 0x663 JUMPI PUSH0 DUP1 REVERT JUMPDEST POP JUMP JUMPDEST PUSH0 DUP2 CALLDATALOAD SWAP1 POP PUSH2 0x674 DUP2 PUSH2 0x650 JUMP JUMPDEST SWAP3 SWAP2 POP POP JUMP JUMPDEST PUSH0 DUP1 PUSH0 PUSH1 0x60 DUP5 DUP7 SUB SLT ISZERO PUSH2 0x691 JUMPI PUSH2 0x690 PUSH2 0x2AA JUMP JUMPDEST JUMPDEST PUSH0 DUP5 ADD CALLDATALOAD PUSH8 0xFFFFFFFFFFFFFFFF DUP2 GT ISZERO PUSH2 0x6AE JUMPI PUSH2 0x6AD PUSH2 0x2AE JUMP JUMPDEST JUMPDEST PUSH2 0x6BA DUP7 DUP3 DUP8 ADD PUSH2 0x5E8 JUMP JUMPDEST SWAP4 POP POP PUSH1 0x20 PUSH2 0x6CB DUP7 DUP3 DUP8 ADD PUSH2 0x62B JUMP JUMPDEST SWAP3 POP POP PUSH1 0x40 PUSH2 0x6DC DUP7 DUP3 DUP8 ADD PUSH2 0x666 JUMP JUMPDEST SWAP2 POP POP SWAP3 POP SWAP3 POP SWAP3 JUMP JUMPDEST PUSH0 DUP2 SWAP1 POP SWAP3 SWAP2 POP POP JUMP JUMPDEST PUSH32 0x617070776F726B73000000000000000000000000000000000000000000000000 PUSH0 DUP3 ADD MSTORE POP JUMP JUMPDEST PUSH0 PUSH2 0x724 PUSH1 0x8 DUP4 PUSH2 0x6E6 JUMP JUMPDEST SWAP2 POP PUSH2 0x72F DUP3 PUSH2 0x6F0 JUMP JUMPDEST PUSH1 0x8 DUP3 ADD SWAP1 POP SWAP2 SWAP1 POP JUMP JUMPDEST PUSH0 PUSH2 0x744 DUP3 PUSH2 0x718 JUMP JUMPDEST SWAP2 POP DUP2 SWAP1 POP SWAP2 SWAP1 POP JUMP JUMPDEST PUSH0 PUSH2 0x75A PUSH1 0x8 DUP4 PUSH2 0x368 JUMP JUMPDEST SWAP2 POP PUSH2 0x765 DUP3 PUSH2 0x6F0 JUMP JUMPDEST PUSH1 0x20 DUP3 ADD SWAP1 POP SWAP2 SWAP1 POP JUMP JUMPDEST PUSH0 PUSH1 0x20 DUP3 ADD SWAP1 POP DUP2 DUP2 SUB PUSH0 DUP4 ADD MSTORE PUSH2 0x787 DUP2 PUSH2 0x74E JUMP JUMPDEST SWAP1 POP SWAP2 SWAP1 POP JUMP JUMPDEST PUSH0 DUP2 SWAP1 POP SWAP2 SWAP1 POP JUMP JUMPDEST PUSH0 PUSH1 0xFF DUP3 AND SWAP1 POP SWAP2 SWAP1 POP JUMP JUMPDEST PUSH0 DUP2 SWAP1 POP SWAP2 SWAP1 POP JUMP JUMPDEST PUSH0 PUSH2 0x7C6 PUSH2 0x7C1 PUSH2 0x7BC DUP5 PUSH2 0x78E JUMP JUMPDEST PUSH2 0x7A3 JUMP JUMPDEST PUSH2 0x797 JUMP JUMPDEST SWAP1 POP SWAP2 SWAP1 POP JUMP JUMPDEST PUSH2 0x7D6 DUP2 PUSH2 0x7AC JUMP JUMPDEST DUP3 MSTORE POP POP JUMP JUMPDEST PUSH0 DUP2 SWAP1 POP SWAP2 SWAP1 POP JUMP JUMPDEST PUSH0 PUSH2 0x7FF PUSH2 0x7FA PUSH2 0x7F5 DUP5 PUSH2 0x7DC JUMP JUMPDEST PUSH2 0x7A3 JUMP JUMPDEST PUSH2 0x797 JUMP JUMPDEST SWAP1 POP SWAP2 SWAP1 POP JUMP JUMPDEST PUSH2 0x80F DUP2 PUSH2 0x7E5 JUMP JUMPDEST DUP3 MSTORE POP POP JUMP JUMPDEST PUSH32 0x6A696D0000000000000000000000000000000000000000000000000000000000 PUSH0 DUP3 ADD MSTORE POP JUMP JUMPDEST PUSH0 PUSH2 0x849 PUSH1 0x3 DUP4 PUSH2 0x368 JUMP JUMPDEST SWAP2 POP PUSH2 0x854 DUP3 PUSH2 0x815 JUMP JUMPDEST PUSH1 0x20 DUP3 ADD SWAP1 POP SWAP2 SWAP1 POP JUMP JUMPDEST PUSH0 PUSH1 0x80 DUP3 ADD SWAP1 POP DUP2 DUP2 SUB PUSH0 DUP4 ADD MSTORE PUSH2 0x876 DUP2 PUSH2 0x74E JUMP JUMPDEST SWAP1 POP PUSH2 0x885 PUSH1 0x20 DUP4 ADD DUP6 PUSH2 0x7CD JUMP JUMPDEST PUSH2 0x892 PUSH1 0x40 DUP4 ADD DUP5 PUSH2 0x806 JUMP JUMPDEST DUP2 DUP2 SUB PUSH1 0x60 DUP4 ADD MSTORE PUSH2 0x8A3 DUP2 PUSH2 0x83D JUMP JUMPDEST SWAP1 POP SWAP4 SWAP3 POP POP POP JUMP JUMPDEST PUSH0 PUSH1 0x60 DUP3 ADD SWAP1 POP DUP2 DUP2 SUB PUSH0 DUP4 ADD MSTORE PUSH2 0x8C3 DUP2 PUSH2 0x74E JUMP JUMPDEST SWAP1 POP PUSH2 0x8D2 PUSH1 0x20 DUP4 ADD DUP6 PUSH2 0x7CD JUMP JUMPDEST PUSH2 0x8DF PUSH1 0x40 DUP4 ADD DUP5 PUSH2 0x430 JUMP JUMPDEST SWAP4 SWAP3 POP POP POP JUMP JUMPDEST PUSH0 PUSH1 0x20 DUP3 ADD SWAP1 POP PUSH2 0x8F9 PUSH0 DUP4 ADD DUP5 PUSH2 0x7CD JUMP JUMPDEST SWAP3 SWAP2 POP POP JUMP JUMPDEST PUSH0 PUSH1 0x20 DUP3 ADD SWAP1 POP PUSH2 0x912 PUSH0 DUP4 ADD DUP5 PUSH2 0x430 JUMP JUMPDEST SWAP3 SWAP2 POP POP JUMP INVALID LOG2 PUSH5 0x6970667358 0x22 SLT KECCAK256 0xEB DUP10 BASEFEE 0xBF AND PUSH19 0xC66FF20347F850B65FD5B9DEAE57D13AB28FAB 0xB1 0xCF 0xA6 SLT 0xA6 CALLDATALOAD STOP PUSH5 0x736F6C6343 STOP ADDMOD ISZERO STOP CALLER "
				},
				"gasEstimates": {
					"creation": {
						"codeDepositCost": "476400",
						"executionCost": "509",
						"totalCost": "476909"
					},
					"external": {
						"encode()": "infinite",
						"encodeAddress()": "infinite",
						"encodeAppworks()": "infinite",
						"encodeOne()": "infinite",
						"encodePackedAppworks()": "infinite",
						"encodePackedAppworksV2()": "infinite",
						"testABIDecode(bytes)": "infinite"
					}
				},
				"methodIdentifiers": {
					"encode()": "bd14598f",
					"encodeAddress()": "cf57b6eb",
					"encodeAppworks()": "733e2f06",
					"encodeOne()": "c1ed13ef",
					"encodePackedAppworks()": "44d1587c",
					"encodePackedAppworksV2()": "7faec262",
					"testABIDecode(bytes)": "065fdac2"
				}
			},
			"storageLayout": {
				"storage": [],
				"types": null
			},
			"userdoc": {
				"kind": "user",
				"methods": {},
				"version": 1
			}
		}
	}
}