{
	"week5/testABIEncode.sol": {
		"TestEncode": {
			"abi": [
				{
					"stateMutability": "payable",
					"type": "fallback"
				},
				{
					"inputs": [
						{
							"internalType": "bool",
							"name": "b",
							"type": "bool"
						},
						{
							"internalType": "uint256[]",
							"name": "arrUint",
							"type": "uint256[]"
						},
						{
							"internalType": "address",
							"name": "a",
							"type": "address"
						},
						{
							"internalType": "string",
							"name": "array",
							"type": "string"
						}
					],
					"name": "AppWorks",
					"outputs": [
						{
							"internalType": "bool",
							"name": "",
							"type": "bool"
						}
					],
					"stateMutability": "pure",
					"type": "function"
				},
				{
					"inputs": [],
					"name": "encode",
					"outputs": [
						{
							"internalType": "bytes",
							"name": "",
							"type": "bytes"
						}
					],
					"stateMutability": "pure",
					"type": "function"
				},
				{
					"inputs": [],
					"name": "encodeAddress",
					"outputs": [
						{
							"internalType": "bytes",
							"name": "",
							"type": "bytes"
						}
					],
					"stateMutability": "pure",
					"type": "function"
				},
				{
					"inputs": [],
					"name": "encodeAppworks",
					"outputs": [
						{
							"internalType": "bytes",
							"name": "",
							"type": "bytes"
						}
					],
					"stateMutability": "pure",
					"type": "function"
				},
				{
					"inputs": [
						{
							"internalType": "address",
							"name": "to",
							"type": "address"
						},
						{
							"internalType": "uint256",
							"name": "amount",
							"type": "uint256"
						}
					],
					"name": "encodeCall",
					"outputs": [
						{
							"internalType": "bytes",
							"name": "",
							"type": "bytes"
						}
					],
					"stateMutability": "pure",
					"type": "function"
				},
				{
					"inputs": [
						{
							"internalType": "string",
							"name": "s",
							"type": "string"
						}
					],
					"name": "encodeFunSelector",
					"outputs": [
						{
							"internalType": "bytes",
							"name": "",
							"type": "bytes"
						}
					],
					"stateMutability": "pure",
					"type": "function"
				},
				{
					"inputs": [],
					"name": "encodeOne",
					"outputs": [
						{
							"internalType": "bytes",
							"name": "",
							"type": "bytes"
						}
					],
					"stateMutability": "pure",
					"type": "function"
				},
				{
					"inputs": [],
					"name": "encodePackedAppworks",
					"outputs": [
						{
							"internalType": "bytes",
							"name": "",
							"type": "bytes"
						}
					],
					"stateMutability": "pure",
					"type": "function"
				},
				{
					"inputs": [],
					"name": "encodePackedAppworksV2",
					"outputs": [
						{
							"internalType": "bytes",
							"name": "",
							"type": "bytes"
						}
					],
					"stateMutability": "pure",
					"type": "function"
				},
				{
					"inputs": [
						{
							"internalType": "address",
							"name": "to",
							"type": "address"
						},
						{
							"internalType": "uint256",
							"name": "amount",
							"type": "uint256"
						}
					],
					"name": "encodeWithSelector",
					"outputs": [
						{
							"internalType": "bytes",
							"name": "",
							"type": "bytes"
						}
					],
					"stateMutability": "pure",
					"type": "function"
				},
				{
					"inputs": [
						{
							"internalType": "address",
							"name": "to",
							"type": "address"
						},
						{
							"internalType": "uint256",
							"name": "amount",
							"type": "uint256"
						}
					],
					"name": "encodeWithSignature",
					"outputs": [
						{
							"internalType": "bytes",
							"name": "",
							"type": "bytes"
						}
					],
					"stateMutability": "pure",
					"type": "function"
				},
				{
					"inputs": [
						{
							"internalType": "bool",
							"name": "b",
							"type": "bool"
						},
						{
							"internalType": "uint256[]",
							"name": "arrUint",
							"type": "uint256[]"
						},
						{
							"internalType": "address",
							"name": "a",
							"type": "address"
						},
						{
							"internalType": "string",
							"name": "array",
							"type": "string"
						}
					],
					"name": "encodeWithSignatureAppWorks",
					"outputs": [
						{
							"internalType": "bytes",
							"name": "",
							"type": "bytes"
						}
					],
					"stateMutability": "pure",
					"type": "function"
				},
				{
					"inputs": [],
					"name": "encodeWithSignatureSchool",
					"outputs": [
						{
							"internalType": "bytes",
							"name": "",
							"type": "bytes"
						}
					],
					"stateMutability": "pure",
					"type": "function"
				},
				{
					"inputs": [
						{
							"internalType": "bytes",
							"name": "data",
							"type": "bytes"
						}
					],
					"name": "testABIDecode",
					"outputs": [
						{
							"internalType": "string",
							"name": "arr",
							"type": "string"
						},
						{
							"internalType": "uint256",
							"name": "u",
							"type": "uint256"
						},
						{
							"internalType": "address",
							"name": "a",
							"type": "address"
						}
					],
					"stateMutability": "pure",
					"type": "function"
				}
			],
			"devdoc": {
				"kind": "dev",
				"methods": {},
				"version": 1
			},
			"evm": {
				"assembly": "    /* \"week5/testABIEncode.sol\":56:4447  contract TestEncode {... */\n  mstore(0x40, 0x80)\n  callvalue\n  dup1\n  iszero\n  tag_1\n  jumpi\n  0x00\n  dup1\n  revert\ntag_1:\n  pop\n  dataSize(sub_0)\n  dup1\n  dataOffset(sub_0)\n  0x00\n  codecopy\n  0x00\n  return\nstop\n\nsub_0: assembly {\n        /* \"week5/testABIEncode.sol\":56:4447  contract TestEncode {... */\n      mstore(0x40, 0x80)\n      jumpi(tag_1, lt(calldatasize, 0x04))\n      shr(0xe0, calldataload(0x00))\n      dup1\n      0x7e3b06fb\n      gt\n      tag_17\n      jumpi\n      dup1\n      0xbd14598f\n      gt\n      tag_18\n      jumpi\n      dup1\n      0xbd14598f\n      eq\n      tag_13\n      jumpi\n      dup1\n      0xc1ed13ef\n      eq\n      tag_14\n      jumpi\n      dup1\n      0xcf57b6eb\n      eq\n      tag_15\n      jumpi\n      dup1\n      0xd264610d\n      eq\n      tag_16\n      jumpi\n      jump(tag_2)\n    tag_18:\n      dup1\n      0x7e3b06fb\n      eq\n      tag_10\n      jumpi\n      dup1\n      0x7faec262\n      eq\n      tag_11\n      jumpi\n      dup1\n      0xae53a4a5\n      eq\n      tag_12\n      jumpi\n      jump(tag_2)\n    tag_17:\n      dup1\n      0x4e10efba\n      gt\n      tag_19\n      jumpi\n      dup1\n      0x4e10efba\n      eq\n      tag_6\n      jumpi\n      dup1\n      0x5fc6ac0e\n      eq\n      tag_7\n      jumpi\n      dup1\n      0x6458817c\n      eq\n      tag_8\n      jumpi\n      dup1\n      0x733e2f06\n      eq\n      tag_9\n      jumpi\n      jump(tag_2)\n    tag_19:\n      dup1\n      0x065fdac2\n      eq\n      tag_3\n      jumpi\n      dup1\n      0x25adff1c\n      eq\n      tag_4\n      jumpi\n      dup1\n      0x44d1587c\n      eq\n      tag_5\n      jumpi\n      jump(tag_2)\n    tag_1:\n    tag_2:\n      stop\n        /* \"week5/testABIEncode.sol\":2016:2191  function testABIDecode(bytes calldata data) external pure returns (string memory arr,uint256 u,address a) {... */\n    tag_3:\n      callvalue\n      dup1\n      iszero\n      tag_22\n      jumpi\n      0x00\n      dup1\n      revert\n    tag_22:\n      pop\n      tag_23\n      0x04\n      dup1\n      calldatasize\n      sub\n      dup2\n      add\n      swap1\n      tag_24\n      swap2\n      swap1\n      tag_25\n      jump\t// in\n    tag_24:\n      tag_26\n      jump\t// in\n    tag_23:\n      mload(0x40)\n      tag_27\n      swap4\n      swap3\n      swap2\n      swap1\n      tag_28\n      jump\t// in\n    tag_27:\n      mload(0x40)\n      dup1\n      swap2\n      sub\n      swap1\n      return\n        /* \"week5/testABIEncode.sol\":2739:2939  function encodeCall(address to, uint amount) external pure returns (bytes memory) {... */\n    tag_4:\n      callvalue\n      dup1\n      iszero\n      tag_29\n      jumpi\n      0x00\n      dup1\n      revert\n    tag_29:\n      pop\n      tag_30\n      0x04\n      dup1\n      calldatasize\n      sub\n      dup2\n      add\n      swap1\n      tag_31\n      swap2\n      swap1\n      tag_32\n      jump\t// in\n    tag_31:\n      tag_33\n      jump\t// in\n    tag_30:\n      mload(0x40)\n      tag_34\n      swap2\n      swap1\n      tag_35\n      jump\t// in\n    tag_34:\n      mload(0x40)\n      dup1\n      swap2\n      sub\n      swap1\n      return\n        /* \"week5/testABIEncode.sol\":863:982  function encodePackedAppworks() external pure returns (bytes memory) {... */\n    tag_5:\n      callvalue\n      dup1\n      iszero\n      tag_36\n      jumpi\n      0x00\n      dup1\n      revert\n    tag_36:\n      pop\n      tag_37\n      tag_38\n      jump\t// in\n    tag_37:\n      mload(0x40)\n      tag_39\n      swap2\n      swap1\n      tag_35\n      jump\t// in\n    tag_39:\n      mload(0x40)\n      dup1\n      swap2\n      sub\n      swap1\n      return\n        /* \"week5/testABIEncode.sol\":3014:3300  function encodeWithSignatureAppWorks(... */\n    tag_6:\n      callvalue\n      dup1\n      iszero\n      tag_40\n      jumpi\n      0x00\n      dup1\n      revert\n    tag_40:\n      pop\n      tag_41\n      0x04\n      dup1\n      calldatasize\n      sub\n      dup2\n      add\n      swap1\n      tag_42\n      swap2\n      swap1\n      tag_43\n      jump\t// in\n    tag_42:\n      tag_44\n      jump\t// in\n    tag_41:\n      mload(0x40)\n      tag_45\n      swap2\n      swap1\n      tag_35\n      jump\t// in\n    tag_45:\n      mload(0x40)\n      dup1\n      swap2\n      sub\n      swap1\n      return\n        /* \"week5/testABIEncode.sol\":2463:2733  function encodeWithSelector(... */\n    tag_7:\n      callvalue\n      dup1\n      iszero\n      tag_46\n      jumpi\n      0x00\n      dup1\n      revert\n    tag_46:\n      pop\n      tag_47\n      0x04\n      dup1\n      calldatasize\n      sub\n      dup2\n      add\n      swap1\n      tag_48\n      swap2\n      swap1\n      tag_32\n      jump\t// in\n    tag_48:\n      tag_49\n      jump\t// in\n    tag_47:\n      mload(0x40)\n      tag_50\n      swap2\n      swap1\n      tag_35\n      jump\t// in\n    tag_50:\n      mload(0x40)\n      dup1\n      swap2\n      sub\n      swap1\n      return\n        /* \"week5/testABIEncode.sol\":4064:4193  function encodeFunSelector(string memory s) external pure returns (bytes memory) {... */\n    tag_8:\n      callvalue\n      dup1\n      iszero\n      tag_51\n      jumpi\n      0x00\n      dup1\n      revert\n    tag_51:\n      pop\n      tag_52\n      0x04\n      dup1\n      calldatasize\n      sub\n      dup2\n      add\n      swap1\n      tag_53\n      swap2\n      swap1\n      tag_54\n      jump\t// in\n    tag_53:\n      tag_55\n      jump\t// in\n    tag_52:\n      mload(0x40)\n      tag_56\n      swap2\n      swap1\n      tag_35\n      jump\t// in\n    tag_56:\n      mload(0x40)\n      dup1\n      swap2\n      sub\n      swap1\n      return\n        /* \"week5/testABIEncode.sol\":262:369  function encodeAppworks() external pure returns (bytes memory) {... */\n    tag_9:\n      callvalue\n      dup1\n      iszero\n      tag_57\n      jumpi\n      0x00\n      dup1\n      revert\n    tag_57:\n      pop\n      tag_58\n      tag_59\n      jump\t// in\n    tag_58:\n      mload(0x40)\n      tag_60\n      swap2\n      swap1\n      tag_35\n      jump\t// in\n    tag_60:\n      mload(0x40)\n      dup1\n      swap2\n      sub\n      swap1\n      return\n        /* \"week5/testABIEncode.sol\":2197:2457  function encodeWithSignature(... */\n    tag_10:\n      callvalue\n      dup1\n      iszero\n      tag_61\n      jumpi\n      0x00\n      dup1\n      revert\n    tag_61:\n      pop\n      tag_62\n      0x04\n      dup1\n      calldatasize\n      sub\n      dup2\n      add\n      swap1\n      tag_63\n      swap2\n      swap1\n      tag_32\n      jump\t// in\n    tag_63:\n      tag_64\n      jump\t// in\n    tag_62:\n      mload(0x40)\n      tag_65\n      swap2\n      swap1\n      tag_35\n      jump\t// in\n    tag_65:\n      mload(0x40)\n      dup1\n      swap2\n      sub\n      swap1\n      return\n        /* \"week5/testABIEncode.sol\":988:1767  function encodePackedAppworksV2() external pure returns (bytes memory) {... */\n    tag_11:\n      callvalue\n      dup1\n      iszero\n      tag_66\n      jumpi\n      0x00\n      dup1\n      revert\n    tag_66:\n      pop\n      tag_67\n      tag_68\n      jump\t// in\n    tag_67:\n      mload(0x40)\n      tag_69\n      swap2\n      swap1\n      tag_35\n      jump\t// in\n    tag_69:\n      mload(0x40)\n      dup1\n      swap2\n      sub\n      swap1\n      return\n        /* \"week5/testABIEncode.sol\":3307:3882  function AppWorks(... */\n    tag_12:\n      callvalue\n      dup1\n      iszero\n      tag_70\n      jumpi\n      0x00\n      dup1\n      revert\n    tag_70:\n      pop\n      tag_71\n      0x04\n      dup1\n      calldatasize\n      sub\n      dup2\n      add\n      swap1\n      tag_72\n      swap2\n      swap1\n      tag_43\n      jump\t// in\n    tag_72:\n      tag_73\n      jump\t// in\n    tag_71:\n      mload(0x40)\n      tag_74\n      swap2\n      swap1\n      tag_75\n      jump\t// in\n    tag_74:\n      mload(0x40)\n      dup1\n      swap2\n      sub\n      swap1\n      return\n        /* \"week5/testABIEncode.sol\":112:256  function encode() external pure returns (bytes memory) {... */\n    tag_13:\n      callvalue\n      dup1\n      iszero\n      tag_76\n      jumpi\n      0x00\n      dup1\n      revert\n    tag_76:\n      pop\n      tag_77\n      tag_78\n      jump\t// in\n    tag_77:\n      mload(0x40)\n      tag_79\n      swap2\n      swap1\n      tag_35\n      jump\t// in\n    tag_79:\n      mload(0x40)\n      dup1\n      swap2\n      sub\n      swap1\n      return\n        /* \"week5/testABIEncode.sol\":1773:1866  function encodeOne() external pure returns (bytes memory) {... */\n    tag_14:\n      callvalue\n      dup1\n      iszero\n      tag_80\n      jumpi\n      0x00\n      dup1\n      revert\n    tag_80:\n      pop\n      tag_81\n      tag_82\n      jump\t// in\n    tag_81:\n      mload(0x40)\n      tag_83\n      swap2\n      swap1\n      tag_35\n      jump\t// in\n    tag_83:\n      mload(0x40)\n      dup1\n      swap2\n      sub\n      swap1\n      return\n        /* \"week5/testABIEncode.sol\":1872:2010  function encodeAddress() external pure returns (bytes memory) {... */\n    tag_15:\n      callvalue\n      dup1\n      iszero\n      tag_84\n      jumpi\n      0x00\n      dup1\n      revert\n    tag_84:\n      pop\n      tag_85\n      tag_86\n      jump\t// in\n    tag_85:\n      mload(0x40)\n      tag_87\n      swap2\n      swap1\n      tag_35\n      jump\t// in\n    tag_87:\n      mload(0x40)\n      dup1\n      swap2\n      sub\n      swap1\n      return\n        /* \"week5/testABIEncode.sol\":3893:4057  function encodeWithSignatureSchool() ... */\n    tag_16:\n      callvalue\n      dup1\n      iszero\n      tag_88\n      jumpi\n      0x00\n      dup1\n      revert\n    tag_88:\n      pop\n      tag_89\n      tag_90\n      jump\t// in\n    tag_89:\n      mload(0x40)\n      tag_91\n      swap2\n      swap1\n      tag_35\n      jump\t// in\n    tag_91:\n      mload(0x40)\n      dup1\n      swap2\n      sub\n      swap1\n      return\n        /* \"week5/testABIEncode.sol\":2016:2191  function testABIDecode(bytes calldata data) external pure returns (string memory arr,uint256 u,address a) {... */\n    tag_26:\n        /* \"week5/testABIEncode.sol\":2083:2100  string memory arr */\n      0x60\n        /* \"week5/testABIEncode.sol\":2101:2110  uint256 u */\n      0x00\n        /* \"week5/testABIEncode.sol\":2111:2120  address a */\n      dup1\n        /* \"week5/testABIEncode.sol\":2153:2157  data */\n      dup5\n      dup5\n        /* \"week5/testABIEncode.sol\":2142:2184  abi.decode(data, (string,uint256,address)) */\n      dup2\n      add\n      swap1\n      tag_93\n      swap2\n      swap1\n      tag_94\n      jump\t// in\n    tag_93:\n        /* \"week5/testABIEncode.sol\":2130:2184  (arr,u,a) = abi.decode(data, (string,uint256,address)) */\n      dup1\n      swap4\n      pop\n      dup2\n      swap5\n      pop\n      dup3\n      swap6\n      pop\n      pop\n      pop\n      pop\n        /* \"week5/testABIEncode.sol\":2016:2191  function testABIDecode(bytes calldata data) external pure returns (string memory arr,uint256 u,address a) {... */\n      swap3\n      pop\n      swap3\n      pop\n      swap3\n      jump\t// out\n        /* \"week5/testABIEncode.sol\":2739:2939  function encodeCall(address to, uint amount) external pure returns (bytes memory) {... */\n    tag_33:\n        /* \"week5/testABIEncode.sol\":2807:2819  bytes memory */\n      0x60\n        /* \"week5/testABIEncode.sol\":2920:2922  to */\n      dup3\n        /* \"week5/testABIEncode.sol\":2924:2930  amount */\n      dup3\n        /* \"week5/testABIEncode.sol\":2887:2932  abi.encodeCall(IERC20.transfer, (to, amount)) */\n      add(0x24, mload(0x40))\n      tag_96\n      swap3\n      swap2\n      swap1\n      tag_97\n      jump\t// in\n    tag_96:\n      mload(0x40)\n      0x20\n      dup2\n      dup4\n      sub\n      sub\n      dup2\n      mstore\n      swap1\n      0x40\n      mstore\n      shl(0xe0, 0xa9059cbb)\n      0x20\n      dup3\n      add\n      dup1\n      mload\n      0xffffffffffffffffffffffffffffffffffffffffffffffffffffffff\n      dup4\n      dup2\n      dup4\n      and\n      or\n      dup4\n      mstore\n      pop\n      pop\n      pop\n      pop\n        /* \"week5/testABIEncode.sol\":2880:2932  return abi.encodeCall(IERC20.transfer, (to, amount)) */\n      swap1\n      pop\n        /* \"week5/testABIEncode.sol\":2739:2939  function encodeCall(address to, uint amount) external pure returns (bytes memory) {... */\n      swap3\n      swap2\n      pop\n      pop\n      jump\t// out\n        /* \"week5/testABIEncode.sol\":863:982  function encodePackedAppworks() external pure returns (bytes memory) {... */\n    tag_38:\n        /* \"week5/testABIEncode.sol\":918:930  bytes memory */\n      0x60\n        /* \"week5/testABIEncode.sol\":947:975  abi.encodePacked(\"appworks\") */\n      add(0x20, mload(0x40))\n      tag_99\n      swap1\n      tag_100\n      jump\t// in\n    tag_99:\n      mload(0x40)\n      0x20\n      dup2\n      dup4\n      sub\n      sub\n      dup2\n      mstore\n      swap1\n      0x40\n      mstore\n        /* \"week5/testABIEncode.sol\":940:975  return abi.encodePacked(\"appworks\") */\n      swap1\n      pop\n        /* \"week5/testABIEncode.sol\":863:982  function encodePackedAppworks() external pure returns (bytes memory) {... */\n      swap1\n      jump\t// out\n        /* \"week5/testABIEncode.sol\":3014:3300  function encodeWithSignatureAppWorks(... */\n    tag_44:\n        /* \"week5/testABIEncode.sol\":3176:3188  bytes memory */\n      0x60\n        /* \"week5/testABIEncode.sol\":3274:3275  b */\n      dup7\n        /* \"week5/testABIEncode.sol\":3277:3284  arrUint */\n      dup7\n      dup7\n        /* \"week5/testABIEncode.sol\":3285:3286  a */\n      dup7\n        /* \"week5/testABIEncode.sol\":3287:3292  array */\n      dup7\n      dup7\n        /* \"week5/testABIEncode.sol\":3207:3293  abi.encodeWithSignature(\"AppWorks(bool,uint256[],address,string)\", b, arrUint,a,array) */\n      add(0x24, mload(0x40))\n      tag_102\n      swap7\n      swap6\n      swap5\n      swap4\n      swap3\n      swap2\n      swap1\n      tag_103\n      jump\t// in\n    tag_102:\n      mload(0x40)\n      0x20\n      dup2\n      dup4\n      sub\n      sub\n      dup2\n      mstore\n      swap1\n      0x40\n      mstore\n      and(not(0xffffffffffffffffffffffffffffffffffffffffffffffffffffffff), 0xae53a4a500000000000000000000000000000000000000000000000000000000)\n      0x20\n      dup3\n      add\n      dup1\n      mload\n      0xffffffffffffffffffffffffffffffffffffffffffffffffffffffff\n      dup4\n      dup2\n      dup4\n      and\n      or\n      dup4\n      mstore\n      pop\n      pop\n      pop\n      pop\n        /* \"week5/testABIEncode.sol\":3200:3293  return abi.encodeWithSignature(\"AppWorks(bool,uint256[],address,string)\", b, arrUint,a,array) */\n      swap1\n      pop\n        /* \"week5/testABIEncode.sol\":3014:3300  function encodeWithSignatureAppWorks(... */\n      swap7\n      swap6\n      pop\n      pop\n      pop\n      pop\n      pop\n      pop\n      jump\t// out\n        /* \"week5/testABIEncode.sol\":2463:2733  function encodeWithSelector(... */\n    tag_49:\n        /* \"week5/testABIEncode.sol\":2561:2573  bytes memory */\n      0x60\n        /* \"week5/testABIEncode.sol\":2689:2713  IERC20.transfer.selector */\n      shl(0xe0, 0xa9059cbb)\n        /* \"week5/testABIEncode.sol\":2715:2717  to */\n      dup4\n        /* \"week5/testABIEncode.sol\":2719:2725  amount */\n      dup4\n        /* \"week5/testABIEncode.sol\":2666:2726  abi.encodeWithSelector(IERC20.transfer.selector, to, amount) */\n      add(0x24, mload(0x40))\n      tag_105\n      swap3\n      swap2\n      swap1\n      tag_97\n      jump\t// in\n    tag_105:\n      mload(0x40)\n      0x20\n      dup2\n      dup4\n      sub\n      sub\n      dup2\n      mstore\n      swap1\n      0x40\n      mstore\n      swap1\n      not(0xffffffffffffffffffffffffffffffffffffffffffffffffffffffff)\n      and\n      0x20\n      dup3\n      add\n      dup1\n      mload\n      0xffffffffffffffffffffffffffffffffffffffffffffffffffffffff\n      dup4\n      dup2\n      dup4\n      and\n      or\n      dup4\n      mstore\n      pop\n      pop\n      pop\n      pop\n        /* \"week5/testABIEncode.sol\":2659:2726  return abi.encodeWithSelector(IERC20.transfer.selector, to, amount) */\n      swap1\n      pop\n        /* \"week5/testABIEncode.sol\":2463:2733  function encodeWithSelector(... */\n      swap3\n      swap2\n      pop\n      pop\n      jump\t// out\n        /* \"week5/testABIEncode.sol\":4064:4193  function encodeFunSelector(string memory s) external pure returns (bytes memory) {... */\n    tag_55:\n        /* \"week5/testABIEncode.sol\":4131:4143  bytes memory */\n      0x60\n        /* \"week5/testABIEncode.sol\":4184:4185  s */\n      dup2\n        /* \"week5/testABIEncode.sol\":4160:4186  abi.encodeWithSignature(s) */\n      add(0x24, mload(0x40))\n      mload(0x40)\n      0x20\n      dup2\n      dup4\n      sub\n      sub\n      dup2\n      mstore\n      swap1\n      0x40\n      mstore\n      swap1\n      mload(0x40)\n      tag_107\n      swap2\n      swap1\n      tag_108\n      jump\t// in\n    tag_107:\n      mload(0x40)\n      dup1\n      swap2\n      sub\n      swap1\n      keccak256\n      not(0xffffffffffffffffffffffffffffffffffffffffffffffffffffffff)\n      and\n      0x20\n      dup3\n      add\n      dup1\n      mload\n      0xffffffffffffffffffffffffffffffffffffffffffffffffffffffff\n      dup4\n      dup2\n      dup4\n      and\n      or\n      dup4\n      mstore\n      pop\n      pop\n      pop\n      pop\n        /* \"week5/testABIEncode.sol\":4153:4186  return abi.encodeWithSignature(s) */\n      swap1\n      pop\n        /* \"week5/testABIEncode.sol\":4064:4193  function encodeFunSelector(string memory s) external pure returns (bytes memory) {... */\n      swap2\n      swap1\n      pop\n      jump\t// out\n        /* \"week5/testABIEncode.sol\":262:369  function encodeAppworks() external pure returns (bytes memory) {... */\n    tag_59:\n        /* \"week5/testABIEncode.sol\":311:323  bytes memory */\n      0x60\n        /* \"week5/testABIEncode.sol\":340:362  abi.encode(\"appworks\") */\n      add(0x20, mload(0x40))\n      tag_110\n      swap1\n      tag_111\n      jump\t// in\n    tag_110:\n      mload(0x40)\n      0x20\n      dup2\n      dup4\n      sub\n      sub\n      dup2\n      mstore\n      swap1\n      0x40\n      mstore\n        /* \"week5/testABIEncode.sol\":333:362  return abi.encode(\"appworks\") */\n      swap1\n      pop\n        /* \"week5/testABIEncode.sol\":262:369  function encodeAppworks() external pure returns (bytes memory) {... */\n      swap1\n      jump\t// out\n        /* \"week5/testABIEncode.sol\":2197:2457  function encodeWithSignature(... */\n    tag_64:\n        /* \"week5/testABIEncode.sol\":2296:2308  bytes memory */\n      0x60\n        /* \"week5/testABIEncode.sol\":2439:2441  to */\n      dup3\n        /* \"week5/testABIEncode.sol\":2443:2449  amount */\n      dup3\n        /* \"week5/testABIEncode.sol\":2386:2450  abi.encodeWithSignature(\"transfer(address,uint256)\", to, amount) */\n      add(0x24, mload(0x40))\n      tag_113\n      swap3\n      swap2\n      swap1\n      tag_97\n      jump\t// in\n    tag_113:\n      mload(0x40)\n      0x20\n      dup2\n      dup4\n      sub\n      sub\n      dup2\n      mstore\n      swap1\n      0x40\n      mstore\n      and(not(0xffffffffffffffffffffffffffffffffffffffffffffffffffffffff), 0xa9059cbb00000000000000000000000000000000000000000000000000000000)\n      0x20\n      dup3\n      add\n      dup1\n      mload\n      0xffffffffffffffffffffffffffffffffffffffffffffffffffffffff\n      dup4\n      dup2\n      dup4\n      and\n      or\n      dup4\n      mstore\n      pop\n      pop\n      pop\n      pop\n        /* \"week5/testABIEncode.sol\":2379:2450  return abi.encodeWithSignature(\"transfer(address,uint256)\", to, amount) */\n      swap1\n      pop\n        /* \"week5/testABIEncode.sol\":2197:2457  function encodeWithSignature(... */\n      swap3\n      swap2\n      pop\n      pop\n      jump\t// out\n        /* \"week5/testABIEncode.sol\":988:1767  function encodePackedAppworksV2() external pure returns (bytes memory) {... */\n    tag_68:\n        /* \"week5/testABIEncode.sol\":1045:1057  bytes memory */\n      0x60\n        /* \"week5/testABIEncode.sol\":1096:1097  1 */\n      0x01\n        /* \"week5/testABIEncode.sol\":1098:1100  99 */\n      0x63\n        /* \"week5/testABIEncode.sol\":1074:1107  abi.encode(\"appworks\",1,99,\"jim\") */\n      add(0x20, mload(0x40))\n      tag_115\n      swap3\n      swap2\n      swap1\n      tag_116\n      jump\t// in\n    tag_115:\n      mload(0x40)\n      0x20\n      dup2\n      dup4\n      sub\n      sub\n      dup2\n      mstore\n      swap1\n      0x40\n      mstore\n        /* \"week5/testABIEncode.sol\":1067:1107  return abi.encode(\"appworks\",1,99,\"jim\") */\n      swap1\n      pop\n        /* \"week5/testABIEncode.sol\":988:1767  function encodePackedAppworksV2() external pure returns (bytes memory) {... */\n      swap1\n      jump\t// out\n        /* \"week5/testABIEncode.sol\":3307:3882  function AppWorks(... */\n    tag_73:\n        /* \"week5/testABIEncode.sol\":3449:3453  bool */\n      0x00\n        /* \"week5/testABIEncode.sol\":3472:3473  b */\n      dup7\n        /* \"week5/testABIEncode.sol\":3464:3500  require(b,\"bool parameter correct.\") */\n      tag_118\n      jumpi\n      mload(0x40)\n      0x08c379a000000000000000000000000000000000000000000000000000000000\n      dup2\n      mstore\n      0x04\n      add\n      tag_119\n      swap1\n      tag_120\n      jump\t// in\n    tag_119:\n      mload(0x40)\n      dup1\n      swap2\n      sub\n      swap1\n      revert\n    tag_118:\n        /* \"week5/testABIEncode.sol\":3532:3533  9 */\n      0x09\n        /* \"week5/testABIEncode.sol\":3518:3525  arrUint */\n      dup7\n      dup7\n        /* \"week5/testABIEncode.sol\":3526:3527  0 */\n      0x00\n        /* \"week5/testABIEncode.sol\":3518:3528  arrUint[0] */\n      dup2\n      dup2\n      lt\n      tag_121\n      jumpi\n      tag_122\n      tag_123\n      jump\t// in\n    tag_122:\n    tag_121:\n      swap1\n      pop\n      0x20\n      mul\n      add\n      calldataload\n        /* \"week5/testABIEncode.sol\":3518:3533  arrUint[0] == 9 */\n      eq\n        /* \"week5/testABIEncode.sol\":3510:3566  require(arrUint[0] == 9,\"uint array parameter correct.\") */\n      tag_124\n      jumpi\n      mload(0x40)\n      0x08c379a000000000000000000000000000000000000000000000000000000000\n      dup2\n      mstore\n      0x04\n      add\n      tag_125\n      swap1\n      tag_126\n      jump\t// in\n    tag_125:\n      mload(0x40)\n      dup1\n      swap2\n      sub\n      swap1\n      revert\n    tag_124:\n        /* \"week5/testABIEncode.sol\":3598:3600  18 */\n      0x12\n        /* \"week5/testABIEncode.sol\":3584:3591  arrUint */\n      dup7\n      dup7\n        /* \"week5/testABIEncode.sol\":3592:3593  1 */\n      0x01\n        /* \"week5/testABIEncode.sol\":3584:3594  arrUint[1] */\n      dup2\n      dup2\n      lt\n      tag_127\n      jumpi\n      tag_128\n      tag_123\n      jump\t// in\n    tag_128:\n    tag_127:\n      swap1\n      pop\n      0x20\n      mul\n      add\n      calldataload\n        /* \"week5/testABIEncode.sol\":3584:3600  arrUint[1] == 18 */\n      eq\n        /* \"week5/testABIEncode.sol\":3576:3633  require(arrUint[1] == 18,\"uint array parameter correct.\") */\n      tag_129\n      jumpi\n      mload(0x40)\n      0x08c379a000000000000000000000000000000000000000000000000000000000\n      dup2\n      mstore\n      0x04\n      add\n      tag_130\n      swap1\n      tag_126\n      jump\t// in\n    tag_130:\n      mload(0x40)\n      dup1\n      swap2\n      sub\n      swap1\n      revert\n    tag_129:\n        /* \"week5/testABIEncode.sol\":3656:3698  0x2Ff1F4e5D08a822743ec6b342c521A0a421456cb */\n      0x2ff1f4e5d08a822743ec6b342c521a0a421456cb\n        /* \"week5/testABIEncode.sol\":3651:3698  a == 0x2Ff1F4e5D08a822743ec6b342c521A0a421456cb */\n      0xffffffffffffffffffffffffffffffffffffffff\n      and\n        /* \"week5/testABIEncode.sol\":3651:3652  a */\n      dup5\n        /* \"week5/testABIEncode.sol\":3651:3698  a == 0x2Ff1F4e5D08a822743ec6b342c521A0a421456cb */\n      0xffffffffffffffffffffffffffffffffffffffff\n      and\n      eq\n        /* \"week5/testABIEncode.sol\":3643:3728  require(a == 0x2Ff1F4e5D08a822743ec6b342c521A0a421456cb,\"address parameter correct.\") */\n      tag_131\n      jumpi\n      mload(0x40)\n      0x08c379a000000000000000000000000000000000000000000000000000000000\n      dup2\n      mstore\n      0x04\n      add\n      tag_132\n      swap1\n      tag_133\n      jump\t// in\n    tag_132:\n      mload(0x40)\n      dup1\n      swap2\n      sub\n      swap1\n      revert\n    tag_131:\n        /* \"week5/testABIEncode.sol\":3796:3823  abi.encodePacked((\"Brian\")) */\n      add(0x20, mload(0x40))\n      tag_134\n      swap1\n      tag_135\n      jump\t// in\n    tag_134:\n      mload(0x40)\n      0x20\n      dup2\n      dup4\n      sub\n      sub\n      dup2\n      mstore\n      swap1\n      0x40\n      mstore\n        /* \"week5/testABIEncode.sol\":3786:3824  keccak256(abi.encodePacked((\"Brian\"))) */\n      dup1\n      mload\n      swap1\n      0x20\n      add\n      keccak256\n        /* \"week5/testABIEncode.sol\":3774:3779  array */\n      dup4\n      dup4\n        /* \"week5/testABIEncode.sol\":3756:3781  abi.encodePacked((array)) */\n      add(0x20, mload(0x40))\n      tag_136\n      swap3\n      swap2\n      swap1\n      tag_137\n      jump\t// in\n    tag_136:\n      mload(0x40)\n      0x20\n      dup2\n      dup4\n      sub\n      sub\n      dup2\n      mstore\n      swap1\n      0x40\n      mstore\n        /* \"week5/testABIEncode.sol\":3746:3782  keccak256(abi.encodePacked((array))) */\n      dup1\n      mload\n      swap1\n      0x20\n      add\n      keccak256\n        /* \"week5/testABIEncode.sol\":3746:3824  keccak256(abi.encodePacked((array))) == keccak256(abi.encodePacked((\"Brian\"))) */\n      eq\n        /* \"week5/testABIEncode.sol\":3738:3853  require(keccak256(abi.encodePacked((array))) == keccak256(abi.encodePacked((\"Brian\"))),\"string parameter correct.\") */\n      tag_138\n      jumpi\n      mload(0x40)\n      0x08c379a000000000000000000000000000000000000000000000000000000000\n      dup2\n      mstore\n      0x04\n      add\n      tag_139\n      swap1\n      tag_140\n      jump\t// in\n    tag_139:\n      mload(0x40)\n      dup1\n      swap2\n      sub\n      swap1\n      revert\n    tag_138:\n        /* \"week5/testABIEncode.sol\":3871:3875  true */\n      0x01\n        /* \"week5/testABIEncode.sol\":3864:3875  return true */\n      swap1\n      pop\n        /* \"week5/testABIEncode.sol\":3307:3882  function AppWorks(... */\n      swap7\n      swap6\n      pop\n      pop\n      pop\n      pop\n      pop\n      pop\n      jump\t// out\n        /* \"week5/testABIEncode.sol\":112:256  function encode() external pure returns (bytes memory) {... */\n    tag_78:\n        /* \"week5/testABIEncode.sol\":153:165  bytes memory */\n      0x60\n        /* \"week5/testABIEncode.sol\":204:205  1 */\n      0x01\n        /* \"week5/testABIEncode.sol\":206:248  0x2Ff1F4e5D08a822743ec6b342c521A0a421456cb */\n      0x2ff1f4e5d08a822743ec6b342c521a0a421456cb\n        /* \"week5/testABIEncode.sol\":182:249  abi.encode(\"appworks\",1,0x2Ff1F4e5D08a822743ec6b342c521A0a421456cb) */\n      add(0x20, mload(0x40))\n      tag_142\n      swap3\n      swap2\n      swap1\n      tag_143\n      jump\t// in\n    tag_142:\n      mload(0x40)\n      0x20\n      dup2\n      dup4\n      sub\n      sub\n      dup2\n      mstore\n      swap1\n      0x40\n      mstore\n        /* \"week5/testABIEncode.sol\":175:249  return abi.encode(\"appworks\",1,0x2Ff1F4e5D08a822743ec6b342c521A0a421456cb) */\n      swap1\n      pop\n        /* \"week5/testABIEncode.sol\":112:256  function encode() external pure returns (bytes memory) {... */\n      swap1\n      jump\t// out\n        /* \"week5/testABIEncode.sol\":1773:1866  function encodeOne() external pure returns (bytes memory) {... */\n    tag_82:\n        /* \"week5/testABIEncode.sol\":1817:1829  bytes memory */\n      0x60\n        /* \"week5/testABIEncode.sol\":1857:1858  1 */\n      0x01\n        /* \"week5/testABIEncode.sol\":1846:1859  abi.encode(1) */\n      add(0x20, mload(0x40))\n      tag_145\n      swap2\n      swap1\n      tag_146\n      jump\t// in\n    tag_145:\n      mload(0x40)\n      0x20\n      dup2\n      dup4\n      sub\n      sub\n      dup2\n      mstore\n      swap1\n      0x40\n      mstore\n        /* \"week5/testABIEncode.sol\":1839:1859  return abi.encode(1) */\n      swap1\n      pop\n        /* \"week5/testABIEncode.sol\":1773:1866  function encodeOne() external pure returns (bytes memory) {... */\n      swap1\n      jump\t// out\n        /* \"week5/testABIEncode.sol\":1872:2010  function encodeAddress() external pure returns (bytes memory) {... */\n    tag_86:\n        /* \"week5/testABIEncode.sol\":1920:1932  bytes memory */\n      0x60\n        /* \"week5/testABIEncode.sol\":1960:2002  0x2Ff1F4e5D08a822743ec6b342c521A0a421456cb */\n      0x2ff1f4e5d08a822743ec6b342c521a0a421456cb\n        /* \"week5/testABIEncode.sol\":1949:2003  abi.encode(0x2Ff1F4e5D08a822743ec6b342c521A0a421456cb) */\n      add(0x20, mload(0x40))\n      tag_148\n      swap2\n      swap1\n      tag_149\n      jump\t// in\n    tag_148:\n      mload(0x40)\n      0x20\n      dup2\n      dup4\n      sub\n      sub\n      dup2\n      mstore\n      swap1\n      0x40\n      mstore\n        /* \"week5/testABIEncode.sol\":1942:2003  return abi.encode(0x2Ff1F4e5D08a822743ec6b342c521A0a421456cb) */\n      swap1\n      pop\n        /* \"week5/testABIEncode.sol\":1872:2010  function encodeAddress() external pure returns (bytes memory) {... */\n      swap1\n      jump\t// out\n        /* \"week5/testABIEncode.sol\":3893:4057  function encodeWithSignatureSchool() ... */\n    tag_90:\n        /* \"week5/testABIEncode.sol\":3960:3972  bytes memory */\n      0x60\n        /* \"week5/testABIEncode.sol\":3991:4050  abi.encodeWithSignature(\"School(string[])\", [\"11\",\"2\",\"3\"]) */\n      mload(0x40)\n      dup1\n      0x60\n      add\n      0x40\n      mstore\n      dup1\n      mload(0x40)\n      dup1\n      0x40\n      add\n      0x40\n      mstore\n      dup1\n      0x02\n      dup2\n      mstore\n      0x20\n      add\n      0x3131000000000000000000000000000000000000000000000000000000000000\n      dup2\n      mstore\n      pop\n      dup2\n      mstore\n      0x20\n      add\n      mload(0x40)\n      dup1\n      0x40\n      add\n      0x40\n      mstore\n      dup1\n      0x01\n      dup2\n      mstore\n      0x20\n      add\n      0x3200000000000000000000000000000000000000000000000000000000000000\n      dup2\n      mstore\n      pop\n      dup2\n      mstore\n      0x20\n      add\n      mload(0x40)\n      dup1\n      0x40\n      add\n      0x40\n      mstore\n      dup1\n      0x01\n      dup2\n      mstore\n      0x20\n      add\n      0x3300000000000000000000000000000000000000000000000000000000000000\n      dup2\n      mstore\n      pop\n      dup2\n      mstore\n      pop\n      add(0x24, mload(0x40))\n      tag_151\n      swap2\n      swap1\n      tag_152\n      jump\t// in\n    tag_151:\n      mload(0x40)\n      0x20\n      dup2\n      dup4\n      sub\n      sub\n      dup2\n      mstore\n      swap1\n      0x40\n      mstore\n      and(not(0xffffffffffffffffffffffffffffffffffffffffffffffffffffffff), 0x7fa990b900000000000000000000000000000000000000000000000000000000)\n      0x20\n      dup3\n      add\n      dup1\n      mload\n      0xffffffffffffffffffffffffffffffffffffffffffffffffffffffff\n      dup4\n      dup2\n      dup4\n      and\n      or\n      dup4\n      mstore\n      pop\n      pop\n      pop\n      pop\n        /* \"week5/testABIEncode.sol\":3984:4050  return abi.encodeWithSignature(\"School(string[])\", [\"11\",\"2\",\"3\"]) */\n      swap1\n      pop\n        /* \"week5/testABIEncode.sol\":3893:4057  function encodeWithSignatureSchool() ... */\n      swap1\n      jump\t// out\n        /* \"#utility.yul\":7:82   */\n    tag_153:\n        /* \"#utility.yul\":40:46   */\n      0x00\n        /* \"#utility.yul\":73:75   */\n      0x40\n        /* \"#utility.yul\":67:76   */\n      mload\n        /* \"#utility.yul\":57:76   */\n      swap1\n      pop\n        /* \"#utility.yul\":7:82   */\n      swap1\n      jump\t// out\n        /* \"#utility.yul\":88:205   */\n    tag_154:\n        /* \"#utility.yul\":197:198   */\n      0x00\n        /* \"#utility.yul\":194:195   */\n      dup1\n        /* \"#utility.yul\":187:199   */\n      revert\n        /* \"#utility.yul\":211:328   */\n    tag_155:\n        /* \"#utility.yul\":320:321   */\n      0x00\n        /* \"#utility.yul\":317:318   */\n      dup1\n        /* \"#utility.yul\":310:322   */\n      revert\n        /* \"#utility.yul\":334:451   */\n    tag_156:\n        /* \"#utility.yul\":443:444   */\n      0x00\n        /* \"#utility.yul\":440:441   */\n      dup1\n        /* \"#utility.yul\":433:445   */\n      revert\n        /* \"#utility.yul\":457:574   */\n    tag_157:\n        /* \"#utility.yul\":566:567   */\n      0x00\n        /* \"#utility.yul\":563:564   */\n      dup1\n        /* \"#utility.yul\":556:568   */\n      revert\n        /* \"#utility.yul\":580:697   */\n    tag_158:\n        /* \"#utility.yul\":689:690   */\n      0x00\n        /* \"#utility.yul\":686:687   */\n      dup1\n        /* \"#utility.yul\":679:691   */\n      revert\n        /* \"#utility.yul\":716:1268   */\n    tag_159:\n        /* \"#utility.yul\":773:781   */\n      0x00\n        /* \"#utility.yul\":783:789   */\n      dup1\n        /* \"#utility.yul\":833:836   */\n      dup4\n        /* \"#utility.yul\":826:830   */\n      0x1f\n        /* \"#utility.yul\":818:824   */\n      dup5\n        /* \"#utility.yul\":814:831   */\n      add\n        /* \"#utility.yul\":810:837   */\n      slt\n        /* \"#utility.yul\":800:922   */\n      tag_241\n      jumpi\n        /* \"#utility.yul\":841:920   */\n      tag_242\n      tag_156\n      jump\t// in\n    tag_242:\n        /* \"#utility.yul\":800:922   */\n    tag_241:\n        /* \"#utility.yul\":954:960   */\n      dup3\n        /* \"#utility.yul\":941:961   */\n      calldataload\n        /* \"#utility.yul\":931:961   */\n      swap1\n      pop\n        /* \"#utility.yul\":984:1002   */\n      0xffffffffffffffff\n        /* \"#utility.yul\":976:982   */\n      dup2\n        /* \"#utility.yul\":973:1003   */\n      gt\n        /* \"#utility.yul\":970:1087   */\n      iszero\n      tag_243\n      jumpi\n        /* \"#utility.yul\":1006:1085   */\n      tag_244\n      tag_157\n      jump\t// in\n    tag_244:\n        /* \"#utility.yul\":970:1087   */\n    tag_243:\n        /* \"#utility.yul\":1120:1124   */\n      0x20\n        /* \"#utility.yul\":1112:1118   */\n      dup4\n        /* \"#utility.yul\":1108:1125   */\n      add\n        /* \"#utility.yul\":1096:1125   */\n      swap2\n      pop\n        /* \"#utility.yul\":1174:1177   */\n      dup4\n        /* \"#utility.yul\":1166:1170   */\n      0x01\n        /* \"#utility.yul\":1158:1164   */\n      dup3\n        /* \"#utility.yul\":1154:1171   */\n      mul\n        /* \"#utility.yul\":1144:1152   */\n      dup4\n        /* \"#utility.yul\":1140:1172   */\n      add\n        /* \"#utility.yul\":1137:1178   */\n      gt\n        /* \"#utility.yul\":1134:1262   */\n      iszero\n      tag_245\n      jumpi\n        /* \"#utility.yul\":1181:1260   */\n      tag_246\n      tag_158\n      jump\t// in\n    tag_246:\n        /* \"#utility.yul\":1134:1262   */\n    tag_245:\n        /* \"#utility.yul\":716:1268   */\n      swap3\n      pop\n      swap3\n      swap1\n      pop\n      jump\t// out\n        /* \"#utility.yul\":1274:1801   */\n    tag_25:\n        /* \"#utility.yul\":1344:1350   */\n      0x00\n        /* \"#utility.yul\":1352:1358   */\n      dup1\n        /* \"#utility.yul\":1401:1403   */\n      0x20\n        /* \"#utility.yul\":1389:1398   */\n      dup4\n        /* \"#utility.yul\":1380:1387   */\n      dup6\n        /* \"#utility.yul\":1376:1399   */\n      sub\n        /* \"#utility.yul\":1372:1404   */\n      slt\n        /* \"#utility.yul\":1369:1488   */\n      iszero\n      tag_248\n      jumpi\n        /* \"#utility.yul\":1407:1486   */\n      tag_249\n      tag_154\n      jump\t// in\n    tag_249:\n        /* \"#utility.yul\":1369:1488   */\n    tag_248:\n        /* \"#utility.yul\":1555:1556   */\n      0x00\n        /* \"#utility.yul\":1544:1553   */\n      dup4\n        /* \"#utility.yul\":1540:1557   */\n      add\n        /* \"#utility.yul\":1527:1558   */\n      calldataload\n        /* \"#utility.yul\":1585:1603   */\n      0xffffffffffffffff\n        /* \"#utility.yul\":1577:1583   */\n      dup2\n        /* \"#utility.yul\":1574:1604   */\n      gt\n        /* \"#utility.yul\":1571:1688   */\n      iszero\n      tag_250\n      jumpi\n        /* \"#utility.yul\":1607:1686   */\n      tag_251\n      tag_155\n      jump\t// in\n    tag_251:\n        /* \"#utility.yul\":1571:1688   */\n    tag_250:\n        /* \"#utility.yul\":1720:1784   */\n      tag_252\n        /* \"#utility.yul\":1776:1783   */\n      dup6\n        /* \"#utility.yul\":1767:1773   */\n      dup3\n        /* \"#utility.yul\":1756:1765   */\n      dup7\n        /* \"#utility.yul\":1752:1774   */\n      add\n        /* \"#utility.yul\":1720:1784   */\n      tag_159\n      jump\t// in\n    tag_252:\n        /* \"#utility.yul\":1702:1784   */\n      swap3\n      pop\n      swap3\n      pop\n        /* \"#utility.yul\":1498:1794   */\n      pop\n        /* \"#utility.yul\":1274:1801   */\n      swap3\n      pop\n      swap3\n      swap1\n      pop\n      jump\t// out\n        /* \"#utility.yul\":1807:1906   */\n    tag_160:\n        /* \"#utility.yul\":1859:1865   */\n      0x00\n        /* \"#utility.yul\":1893:1898   */\n      dup2\n        /* \"#utility.yul\":1887:1899   */\n      mload\n        /* \"#utility.yul\":1877:1899   */\n      swap1\n      pop\n        /* \"#utility.yul\":1807:1906   */\n      swap2\n      swap1\n      pop\n      jump\t// out\n        /* \"#utility.yul\":1912:2081   */\n    tag_161:\n        /* \"#utility.yul\":1996:2007   */\n      0x00\n        /* \"#utility.yul\":2030:2036   */\n      dup3\n        /* \"#utility.yul\":2025:2028   */\n      dup3\n        /* \"#utility.yul\":2018:2037   */\n      mstore\n        /* \"#utility.yul\":2070:2074   */\n      0x20\n        /* \"#utility.yul\":2065:2068   */\n      dup3\n        /* \"#utility.yul\":2061:2075   */\n      add\n        /* \"#utility.yul\":2046:2075   */\n      swap1\n      pop\n        /* \"#utility.yul\":1912:2081   */\n      swap3\n      swap2\n      pop\n      pop\n      jump\t// out\n        /* \"#utility.yul\":2087:2333   */\n    tag_162:\n        /* \"#utility.yul\":2168:2169   */\n      0x00\n        /* \"#utility.yul\":2178:2291   */\n    tag_256:\n        /* \"#utility.yul\":2192:2198   */\n      dup4\n        /* \"#utility.yul\":2189:2190   */\n      dup2\n        /* \"#utility.yul\":2186:2199   */\n      lt\n        /* \"#utility.yul\":2178:2291   */\n      iszero\n      tag_258\n      jumpi\n        /* \"#utility.yul\":2277:2278   */\n      dup1\n        /* \"#utility.yul\":2272:2275   */\n      dup3\n        /* \"#utility.yul\":2268:2279   */\n      add\n        /* \"#utility.yul\":2262:2280   */\n      mload\n        /* \"#utility.yul\":2258:2259   */\n      dup2\n        /* \"#utility.yul\":2253:2256   */\n      dup5\n        /* \"#utility.yul\":2249:2260   */\n      add\n        /* \"#utility.yul\":2242:2281   */\n      mstore\n        /* \"#utility.yul\":2214:2216   */\n      0x20\n        /* \"#utility.yul\":2211:2212   */\n      dup2\n        /* \"#utility.yul\":2207:2217   */\n      add\n        /* \"#utility.yul\":2202:2217   */\n      swap1\n      pop\n        /* \"#utility.yul\":2178:2291   */\n      jump(tag_256)\n    tag_258:\n        /* \"#utility.yul\":2325:2326   */\n      0x00\n        /* \"#utility.yul\":2316:2322   */\n      dup5\n        /* \"#utility.yul\":2311:2314   */\n      dup5\n        /* \"#utility.yul\":2307:2323   */\n      add\n        /* \"#utility.yul\":2300:2327   */\n      mstore\n        /* \"#utility.yul\":2149:2333   */\n      pop\n        /* \"#utility.yul\":2087:2333   */\n      pop\n      pop\n      pop\n      jump\t// out\n        /* \"#utility.yul\":2339:2441   */\n    tag_163:\n        /* \"#utility.yul\":2380:2386   */\n      0x00\n        /* \"#utility.yul\":2431:2433   */\n      0x1f\n        /* \"#utility.yul\":2427:2434   */\n      not\n        /* \"#utility.yul\":2422:2424   */\n      0x1f\n        /* \"#utility.yul\":2415:2420   */\n      dup4\n        /* \"#utility.yul\":2411:2425   */\n      add\n        /* \"#utility.yul\":2407:2435   */\n      and\n        /* \"#utility.yul\":2397:2435   */\n      swap1\n      pop\n        /* \"#utility.yul\":2339:2441   */\n      swap2\n      swap1\n      pop\n      jump\t// out\n        /* \"#utility.yul\":2447:2824   */\n    tag_164:\n        /* \"#utility.yul\":2535:2538   */\n      0x00\n        /* \"#utility.yul\":2563:2602   */\n      tag_261\n        /* \"#utility.yul\":2596:2601   */\n      dup3\n        /* \"#utility.yul\":2563:2602   */\n      tag_160\n      jump\t// in\n    tag_261:\n        /* \"#utility.yul\":2618:2689   */\n      tag_262\n        /* \"#utility.yul\":2682:2688   */\n      dup2\n        /* \"#utility.yul\":2677:2680   */\n      dup6\n        /* \"#utility.yul\":2618:2689   */\n      tag_161\n      jump\t// in\n    tag_262:\n        /* \"#utility.yul\":2611:2689   */\n      swap4\n      pop\n        /* \"#utility.yul\":2698:2763   */\n      tag_263\n        /* \"#utility.yul\":2756:2762   */\n      dup2\n        /* \"#utility.yul\":2751:2754   */\n      dup6\n        /* \"#utility.yul\":2744:2748   */\n      0x20\n        /* \"#utility.yul\":2737:2742   */\n      dup7\n        /* \"#utility.yul\":2733:2749   */\n      add\n        /* \"#utility.yul\":2698:2763   */\n      tag_162\n      jump\t// in\n    tag_263:\n        /* \"#utility.yul\":2788:2817   */\n      tag_264\n        /* \"#utility.yul\":2810:2816   */\n      dup2\n        /* \"#utility.yul\":2788:2817   */\n      tag_163\n      jump\t// in\n    tag_264:\n        /* \"#utility.yul\":2783:2786   */\n      dup5\n        /* \"#utility.yul\":2779:2818   */\n      add\n        /* \"#utility.yul\":2772:2818   */\n      swap2\n      pop\n        /* \"#utility.yul\":2539:2824   */\n      pop\n        /* \"#utility.yul\":2447:2824   */\n      swap3\n      swap2\n      pop\n      pop\n      jump\t// out\n        /* \"#utility.yul\":2830:2907   */\n    tag_165:\n        /* \"#utility.yul\":2867:2874   */\n      0x00\n        /* \"#utility.yul\":2896:2901   */\n      dup2\n        /* \"#utility.yul\":2885:2901   */\n      swap1\n      pop\n        /* \"#utility.yul\":2830:2907   */\n      swap2\n      swap1\n      pop\n      jump\t// out\n        /* \"#utility.yul\":2913:3031   */\n    tag_166:\n        /* \"#utility.yul\":3000:3024   */\n      tag_267\n        /* \"#utility.yul\":3018:3023   */\n      dup2\n        /* \"#utility.yul\":3000:3024   */\n      tag_165\n      jump\t// in\n    tag_267:\n        /* \"#utility.yul\":2995:2998   */\n      dup3\n        /* \"#utility.yul\":2988:3025   */\n      mstore\n        /* \"#utility.yul\":2913:3031   */\n      pop\n      pop\n      jump\t// out\n        /* \"#utility.yul\":3037:3163   */\n    tag_167:\n        /* \"#utility.yul\":3074:3081   */\n      0x00\n        /* \"#utility.yul\":3114:3156   */\n      0xffffffffffffffffffffffffffffffffffffffff\n        /* \"#utility.yul\":3107:3112   */\n      dup3\n        /* \"#utility.yul\":3103:3157   */\n      and\n        /* \"#utility.yul\":3092:3157   */\n      swap1\n      pop\n        /* \"#utility.yul\":3037:3163   */\n      swap2\n      swap1\n      pop\n      jump\t// out\n        /* \"#utility.yul\":3169:3265   */\n    tag_168:\n        /* \"#utility.yul\":3206:3213   */\n      0x00\n        /* \"#utility.yul\":3235:3259   */\n      tag_270\n        /* \"#utility.yul\":3253:3258   */\n      dup3\n        /* \"#utility.yul\":3235:3259   */\n      tag_167\n      jump\t// in\n    tag_270:\n        /* \"#utility.yul\":3224:3259   */\n      swap1\n      pop\n        /* \"#utility.yul\":3169:3265   */\n      swap2\n      swap1\n      pop\n      jump\t// out\n        /* \"#utility.yul\":3271:3389   */\n    tag_169:\n        /* \"#utility.yul\":3358:3382   */\n      tag_272\n        /* \"#utility.yul\":3376:3381   */\n      dup2\n        /* \"#utility.yul\":3358:3382   */\n      tag_168\n      jump\t// in\n    tag_272:\n        /* \"#utility.yul\":3353:3356   */\n      dup3\n        /* \"#utility.yul\":3346:3383   */\n      mstore\n        /* \"#utility.yul\":3271:3389   */\n      pop\n      pop\n      jump\t// out\n        /* \"#utility.yul\":3395:3928   */\n    tag_28:\n        /* \"#utility.yul\":3564:3568   */\n      0x00\n        /* \"#utility.yul\":3602:3604   */\n      0x60\n        /* \"#utility.yul\":3591:3600   */\n      dup3\n        /* \"#utility.yul\":3587:3605   */\n      add\n        /* \"#utility.yul\":3579:3605   */\n      swap1\n      pop\n        /* \"#utility.yul\":3651:3660   */\n      dup2\n        /* \"#utility.yul\":3645:3649   */\n      dup2\n        /* \"#utility.yul\":3641:3661   */\n      sub\n        /* \"#utility.yul\":3637:3638   */\n      0x00\n        /* \"#utility.yul\":3626:3635   */\n      dup4\n        /* \"#utility.yul\":3622:3639   */\n      add\n        /* \"#utility.yul\":3615:3662   */\n      mstore\n        /* \"#utility.yul\":3679:3757   */\n      tag_274\n        /* \"#utility.yul\":3752:3756   */\n      dup2\n        /* \"#utility.yul\":3743:3749   */\n      dup7\n        /* \"#utility.yul\":3679:3757   */\n      tag_164\n      jump\t// in\n    tag_274:\n        /* \"#utility.yul\":3671:3757   */\n      swap1\n      pop\n        /* \"#utility.yul\":3767:3839   */\n      tag_275\n        /* \"#utility.yul\":3835:3837   */\n      0x20\n        /* \"#utility.yul\":3824:3833   */\n      dup4\n        /* \"#utility.yul\":3820:3838   */\n      add\n        /* \"#utility.yul\":3811:3817   */\n      dup6\n        /* \"#utility.yul\":3767:3839   */\n      tag_166\n      jump\t// in\n    tag_275:\n        /* \"#utility.yul\":3849:3921   */\n      tag_276\n        /* \"#utility.yul\":3917:3919   */\n      0x40\n        /* \"#utility.yul\":3906:3915   */\n      dup4\n        /* \"#utility.yul\":3902:3920   */\n      add\n        /* \"#utility.yul\":3893:3899   */\n      dup5\n        /* \"#utility.yul\":3849:3921   */\n      tag_169\n      jump\t// in\n    tag_276:\n        /* \"#utility.yul\":3395:3928   */\n      swap5\n      swap4\n      pop\n      pop\n      pop\n      pop\n      jump\t// out\n        /* \"#utility.yul\":3934:4056   */\n    tag_170:\n        /* \"#utility.yul\":4007:4031   */\n      tag_278\n        /* \"#utility.yul\":4025:4030   */\n      dup2\n        /* \"#utility.yul\":4007:4031   */\n      tag_168\n      jump\t// in\n    tag_278:\n        /* \"#utility.yul\":4000:4005   */\n      dup2\n        /* \"#utility.yul\":3997:4032   */\n      eq\n        /* \"#utility.yul\":3987:4050   */\n      tag_279\n      jumpi\n        /* \"#utility.yul\":4046:4047   */\n      0x00\n        /* \"#utility.yul\":4043:4044   */\n      dup1\n        /* \"#utility.yul\":4036:4048   */\n      revert\n        /* \"#utility.yul\":3987:4050   */\n    tag_279:\n        /* \"#utility.yul\":3934:4056   */\n      pop\n      jump\t// out\n        /* \"#utility.yul\":4062:4201   */\n    tag_171:\n        /* \"#utility.yul\":4108:4113   */\n      0x00\n        /* \"#utility.yul\":4146:4152   */\n      dup2\n        /* \"#utility.yul\":4133:4153   */\n      calldataload\n        /* \"#utility.yul\":4124:4153   */\n      swap1\n      pop\n        /* \"#utility.yul\":4162:4195   */\n      tag_281\n        /* \"#utility.yul\":4189:4194   */\n      dup2\n        /* \"#utility.yul\":4162:4195   */\n      tag_170\n      jump\t// in\n    tag_281:\n        /* \"#utility.yul\":4062:4201   */\n      swap3\n      swap2\n      pop\n      pop\n      jump\t// out\n        /* \"#utility.yul\":4207:4329   */\n    tag_172:\n        /* \"#utility.yul\":4280:4304   */\n      tag_283\n        /* \"#utility.yul\":4298:4303   */\n      dup2\n        /* \"#utility.yul\":4280:4304   */\n      tag_165\n      jump\t// in\n    tag_283:\n        /* \"#utility.yul\":4273:4278   */\n      dup2\n        /* \"#utility.yul\":4270:4305   */\n      eq\n        /* \"#utility.yul\":4260:4323   */\n      tag_284\n      jumpi\n        /* \"#utility.yul\":4319:4320   */\n      0x00\n        /* \"#utility.yul\":4316:4317   */\n      dup1\n        /* \"#utility.yul\":4309:4321   */\n      revert\n        /* \"#utility.yul\":4260:4323   */\n    tag_284:\n        /* \"#utility.yul\":4207:4329   */\n      pop\n      jump\t// out\n        /* \"#utility.yul\":4335:4474   */\n    tag_173:\n        /* \"#utility.yul\":4381:4386   */\n      0x00\n        /* \"#utility.yul\":4419:4425   */\n      dup2\n        /* \"#utility.yul\":4406:4426   */\n      calldataload\n        /* \"#utility.yul\":4397:4426   */\n      swap1\n      pop\n        /* \"#utility.yul\":4435:4468   */\n      tag_286\n        /* \"#utility.yul\":4462:4467   */\n      dup2\n        /* \"#utility.yul\":4435:4468   */\n      tag_172\n      jump\t// in\n    tag_286:\n        /* \"#utility.yul\":4335:4474   */\n      swap3\n      swap2\n      pop\n      pop\n      jump\t// out\n        /* \"#utility.yul\":4480:4954   */\n    tag_32:\n        /* \"#utility.yul\":4548:4554   */\n      0x00\n        /* \"#utility.yul\":4556:4562   */\n      dup1\n        /* \"#utility.yul\":4605:4607   */\n      0x40\n        /* \"#utility.yul\":4593:4602   */\n      dup4\n        /* \"#utility.yul\":4584:4591   */\n      dup6\n        /* \"#utility.yul\":4580:4603   */\n      sub\n        /* \"#utility.yul\":4576:4608   */\n      slt\n        /* \"#utility.yul\":4573:4692   */\n      iszero\n      tag_288\n      jumpi\n        /* \"#utility.yul\":4611:4690   */\n      tag_289\n      tag_154\n      jump\t// in\n    tag_289:\n        /* \"#utility.yul\":4573:4692   */\n    tag_288:\n        /* \"#utility.yul\":4731:4732   */\n      0x00\n        /* \"#utility.yul\":4756:4809   */\n      tag_290\n        /* \"#utility.yul\":4801:4808   */\n      dup6\n        /* \"#utility.yul\":4792:4798   */\n      dup3\n        /* \"#utility.yul\":4781:4790   */\n      dup7\n        /* \"#utility.yul\":4777:4799   */\n      add\n        /* \"#utility.yul\":4756:4809   */\n      tag_171\n      jump\t// in\n    tag_290:\n        /* \"#utility.yul\":4746:4809   */\n      swap3\n      pop\n        /* \"#utility.yul\":4702:4819   */\n      pop\n        /* \"#utility.yul\":4858:4860   */\n      0x20\n        /* \"#utility.yul\":4884:4937   */\n      tag_291\n        /* \"#utility.yul\":4929:4936   */\n      dup6\n        /* \"#utility.yul\":4920:4926   */\n      dup3\n        /* \"#utility.yul\":4909:4918   */\n      dup7\n        /* \"#utility.yul\":4905:4927   */\n      add\n        /* \"#utility.yul\":4884:4937   */\n      tag_173\n      jump\t// in\n    tag_291:\n        /* \"#utility.yul\":4874:4937   */\n      swap2\n      pop\n        /* \"#utility.yul\":4829:4947   */\n      pop\n        /* \"#utility.yul\":4480:4954   */\n      swap3\n      pop\n      swap3\n      swap1\n      pop\n      jump\t// out\n        /* \"#utility.yul\":4960:5058   */\n    tag_174:\n        /* \"#utility.yul\":5011:5017   */\n      0x00\n        /* \"#utility.yul\":5045:5050   */\n      dup2\n        /* \"#utility.yul\":5039:5051   */\n      mload\n        /* \"#utility.yul\":5029:5051   */\n      swap1\n      pop\n        /* \"#utility.yul\":4960:5058   */\n      swap2\n      swap1\n      pop\n      jump\t// out\n        /* \"#utility.yul\":5064:5232   */\n    tag_175:\n        /* \"#utility.yul\":5147:5158   */\n      0x00\n        /* \"#utility.yul\":5181:5187   */\n      dup3\n        /* \"#utility.yul\":5176:5179   */\n      dup3\n        /* \"#utility.yul\":5169:5188   */\n      mstore\n        /* \"#utility.yul\":5221:5225   */\n      0x20\n        /* \"#utility.yul\":5216:5219   */\n      dup3\n        /* \"#utility.yul\":5212:5226   */\n      add\n        /* \"#utility.yul\":5197:5226   */\n      swap1\n      pop\n        /* \"#utility.yul\":5064:5232   */\n      swap3\n      swap2\n      pop\n      pop\n      jump\t// out\n        /* \"#utility.yul\":5238:5611   */\n    tag_176:\n        /* \"#utility.yul\":5324:5327   */\n      0x00\n        /* \"#utility.yul\":5352:5390   */\n      tag_295\n        /* \"#utility.yul\":5384:5389   */\n      dup3\n        /* \"#utility.yul\":5352:5390   */\n      tag_174\n      jump\t// in\n    tag_295:\n        /* \"#utility.yul\":5406:5476   */\n      tag_296\n        /* \"#utility.yul\":5469:5475   */\n      dup2\n        /* \"#utility.yul\":5464:5467   */\n      dup6\n        /* \"#utility.yul\":5406:5476   */\n      tag_175\n      jump\t// in\n    tag_296:\n        /* \"#utility.yul\":5399:5476   */\n      swap4\n      pop\n        /* \"#utility.yul\":5485:5550   */\n      tag_297\n        /* \"#utility.yul\":5543:5549   */\n      dup2\n        /* \"#utility.yul\":5538:5541   */\n      dup6\n        /* \"#utility.yul\":5531:5535   */\n      0x20\n        /* \"#utility.yul\":5524:5529   */\n      dup7\n        /* \"#utility.yul\":5520:5536   */\n      add\n        /* \"#utility.yul\":5485:5550   */\n      tag_162\n      jump\t// in\n    tag_297:\n        /* \"#utility.yul\":5575:5604   */\n      tag_298\n        /* \"#utility.yul\":5597:5603   */\n      dup2\n        /* \"#utility.yul\":5575:5604   */\n      tag_163\n      jump\t// in\n    tag_298:\n        /* \"#utility.yul\":5570:5573   */\n      dup5\n        /* \"#utility.yul\":5566:5605   */\n      add\n        /* \"#utility.yul\":5559:5605   */\n      swap2\n      pop\n        /* \"#utility.yul\":5328:5611   */\n      pop\n        /* \"#utility.yul\":5238:5611   */\n      swap3\n      swap2\n      pop\n      pop\n      jump\t// out\n        /* \"#utility.yul\":5617:5926   */\n    tag_35:\n        /* \"#utility.yul\":5728:5732   */\n      0x00\n        /* \"#utility.yul\":5766:5768   */\n      0x20\n        /* \"#utility.yul\":5755:5764   */\n      dup3\n        /* \"#utility.yul\":5751:5769   */\n      add\n        /* \"#utility.yul\":5743:5769   */\n      swap1\n      pop\n        /* \"#utility.yul\":5815:5824   */\n      dup2\n        /* \"#utility.yul\":5809:5813   */\n      dup2\n        /* \"#utility.yul\":5805:5825   */\n      sub\n        /* \"#utility.yul\":5801:5802   */\n      0x00\n        /* \"#utility.yul\":5790:5799   */\n      dup4\n        /* \"#utility.yul\":5786:5803   */\n      add\n        /* \"#utility.yul\":5779:5826   */\n      mstore\n        /* \"#utility.yul\":5843:5919   */\n      tag_300\n        /* \"#utility.yul\":5914:5918   */\n      dup2\n        /* \"#utility.yul\":5905:5911   */\n      dup5\n        /* \"#utility.yul\":5843:5919   */\n      tag_176\n      jump\t// in\n    tag_300:\n        /* \"#utility.yul\":5835:5919   */\n      swap1\n      pop\n        /* \"#utility.yul\":5617:5926   */\n      swap3\n      swap2\n      pop\n      pop\n      jump\t// out\n        /* \"#utility.yul\":5932:6022   */\n    tag_177:\n        /* \"#utility.yul\":5966:5973   */\n      0x00\n        /* \"#utility.yul\":6009:6014   */\n      dup2\n        /* \"#utility.yul\":6002:6015   */\n      iszero\n        /* \"#utility.yul\":5995:6016   */\n      iszero\n        /* \"#utility.yul\":5984:6016   */\n      swap1\n      pop\n        /* \"#utility.yul\":5932:6022   */\n      swap2\n      swap1\n      pop\n      jump\t// out\n        /* \"#utility.yul\":6028:6144   */\n    tag_178:\n        /* \"#utility.yul\":6098:6119   */\n      tag_303\n        /* \"#utility.yul\":6113:6118   */\n      dup2\n        /* \"#utility.yul\":6098:6119   */\n      tag_177\n      jump\t// in\n    tag_303:\n        /* \"#utility.yul\":6091:6096   */\n      dup2\n        /* \"#utility.yul\":6088:6120   */\n      eq\n        /* \"#utility.yul\":6078:6138   */\n      tag_304\n      jumpi\n        /* \"#utility.yul\":6134:6135   */\n      0x00\n        /* \"#utility.yul\":6131:6132   */\n      dup1\n        /* \"#utility.yul\":6124:6136   */\n      revert\n        /* \"#utility.yul\":6078:6138   */\n    tag_304:\n        /* \"#utility.yul\":6028:6144   */\n      pop\n      jump\t// out\n        /* \"#utility.yul\":6150:6283   */\n    tag_179:\n        /* \"#utility.yul\":6193:6198   */\n      0x00\n        /* \"#utility.yul\":6231:6237   */\n      dup2\n        /* \"#utility.yul\":6218:6238   */\n      calldataload\n        /* \"#utility.yul\":6209:6238   */\n      swap1\n      pop\n        /* \"#utility.yul\":6247:6277   */\n      tag_306\n        /* \"#utility.yul\":6271:6276   */\n      dup2\n        /* \"#utility.yul\":6247:6277   */\n      tag_178\n      jump\t// in\n    tag_306:\n        /* \"#utility.yul\":6150:6283   */\n      swap3\n      swap2\n      pop\n      pop\n      jump\t// out\n        /* \"#utility.yul\":6306:6874   */\n    tag_180:\n        /* \"#utility.yul\":6379:6387   */\n      0x00\n        /* \"#utility.yul\":6389:6395   */\n      dup1\n        /* \"#utility.yul\":6439:6442   */\n      dup4\n        /* \"#utility.yul\":6432:6436   */\n      0x1f\n        /* \"#utility.yul\":6424:6430   */\n      dup5\n        /* \"#utility.yul\":6420:6437   */\n      add\n        /* \"#utility.yul\":6416:6443   */\n      slt\n        /* \"#utility.yul\":6406:6528   */\n      tag_308\n      jumpi\n        /* \"#utility.yul\":6447:6526   */\n      tag_309\n      tag_156\n      jump\t// in\n    tag_309:\n        /* \"#utility.yul\":6406:6528   */\n    tag_308:\n        /* \"#utility.yul\":6560:6566   */\n      dup3\n        /* \"#utility.yul\":6547:6567   */\n      calldataload\n        /* \"#utility.yul\":6537:6567   */\n      swap1\n      pop\n        /* \"#utility.yul\":6590:6608   */\n      0xffffffffffffffff\n        /* \"#utility.yul\":6582:6588   */\n      dup2\n        /* \"#utility.yul\":6579:6609   */\n      gt\n        /* \"#utility.yul\":6576:6693   */\n      iszero\n      tag_310\n      jumpi\n        /* \"#utility.yul\":6612:6691   */\n      tag_311\n      tag_157\n      jump\t// in\n    tag_311:\n        /* \"#utility.yul\":6576:6693   */\n    tag_310:\n        /* \"#utility.yul\":6726:6730   */\n      0x20\n        /* \"#utility.yul\":6718:6724   */\n      dup4\n        /* \"#utility.yul\":6714:6731   */\n      add\n        /* \"#utility.yul\":6702:6731   */\n      swap2\n      pop\n        /* \"#utility.yul\":6780:6783   */\n      dup4\n        /* \"#utility.yul\":6772:6776   */\n      0x20\n        /* \"#utility.yul\":6764:6770   */\n      dup3\n        /* \"#utility.yul\":6760:6777   */\n      mul\n        /* \"#utility.yul\":6750:6758   */\n      dup4\n        /* \"#utility.yul\":6746:6778   */\n      add\n        /* \"#utility.yul\":6743:6784   */\n      gt\n        /* \"#utility.yul\":6740:6868   */\n      iszero\n      tag_312\n      jumpi\n        /* \"#utility.yul\":6787:6866   */\n      tag_313\n      tag_158\n      jump\t// in\n    tag_313:\n        /* \"#utility.yul\":6740:6868   */\n    tag_312:\n        /* \"#utility.yul\":6306:6874   */\n      swap3\n      pop\n      swap3\n      swap1\n      pop\n      jump\t// out\n        /* \"#utility.yul\":6894:7447   */\n    tag_181:\n        /* \"#utility.yul\":6952:6960   */\n      0x00\n        /* \"#utility.yul\":6962:6968   */\n      dup1\n        /* \"#utility.yul\":7012:7015   */\n      dup4\n        /* \"#utility.yul\":7005:7009   */\n      0x1f\n        /* \"#utility.yul\":6997:7003   */\n      dup5\n        /* \"#utility.yul\":6993:7010   */\n      add\n        /* \"#utility.yul\":6989:7016   */\n      slt\n        /* \"#utility.yul\":6979:7101   */\n      tag_315\n      jumpi\n        /* \"#utility.yul\":7020:7099   */\n      tag_316\n      tag_156\n      jump\t// in\n    tag_316:\n        /* \"#utility.yul\":6979:7101   */\n    tag_315:\n        /* \"#utility.yul\":7133:7139   */\n      dup3\n        /* \"#utility.yul\":7120:7140   */\n      calldataload\n        /* \"#utility.yul\":7110:7140   */\n      swap1\n      pop\n        /* \"#utility.yul\":7163:7181   */\n      0xffffffffffffffff\n        /* \"#utility.yul\":7155:7161   */\n      dup2\n        /* \"#utility.yul\":7152:7182   */\n      gt\n        /* \"#utility.yul\":7149:7266   */\n      iszero\n      tag_317\n      jumpi\n        /* \"#utility.yul\":7185:7264   */\n      tag_318\n      tag_157\n      jump\t// in\n    tag_318:\n        /* \"#utility.yul\":7149:7266   */\n    tag_317:\n        /* \"#utility.yul\":7299:7303   */\n      0x20\n        /* \"#utility.yul\":7291:7297   */\n      dup4\n        /* \"#utility.yul\":7287:7304   */\n      add\n        /* \"#utility.yul\":7275:7304   */\n      swap2\n      pop\n        /* \"#utility.yul\":7353:7356   */\n      dup4\n        /* \"#utility.yul\":7345:7349   */\n      0x01\n        /* \"#utility.yul\":7337:7343   */\n      dup3\n        /* \"#utility.yul\":7333:7350   */\n      mul\n        /* \"#utility.yul\":7323:7331   */\n      dup4\n        /* \"#utility.yul\":7319:7351   */\n      add\n        /* \"#utility.yul\":7316:7357   */\n      gt\n        /* \"#utility.yul\":7313:7441   */\n      iszero\n      tag_319\n      jumpi\n        /* \"#utility.yul\":7360:7439   */\n      tag_320\n      tag_158\n      jump\t// in\n    tag_320:\n        /* \"#utility.yul\":7313:7441   */\n    tag_319:\n        /* \"#utility.yul\":6894:7447   */\n      swap3\n      pop\n      swap3\n      swap1\n      pop\n      jump\t// out\n        /* \"#utility.yul\":7453:8642   */\n    tag_43:\n        /* \"#utility.yul\":7575:7581   */\n      0x00\n        /* \"#utility.yul\":7583:7589   */\n      dup1\n        /* \"#utility.yul\":7591:7597   */\n      0x00\n        /* \"#utility.yul\":7599:7605   */\n      dup1\n        /* \"#utility.yul\":7607:7613   */\n      0x00\n        /* \"#utility.yul\":7615:7621   */\n      dup1\n        /* \"#utility.yul\":7664:7667   */\n      0x80\n        /* \"#utility.yul\":7652:7661   */\n      dup8\n        /* \"#utility.yul\":7643:7650   */\n      dup10\n        /* \"#utility.yul\":7639:7662   */\n      sub\n        /* \"#utility.yul\":7635:7668   */\n      slt\n        /* \"#utility.yul\":7632:7752   */\n      iszero\n      tag_322\n      jumpi\n        /* \"#utility.yul\":7671:7750   */\n      tag_323\n      tag_154\n      jump\t// in\n    tag_323:\n        /* \"#utility.yul\":7632:7752   */\n    tag_322:\n        /* \"#utility.yul\":7791:7792   */\n      0x00\n        /* \"#utility.yul\":7816:7866   */\n      tag_324\n        /* \"#utility.yul\":7858:7865   */\n      dup10\n        /* \"#utility.yul\":7849:7855   */\n      dup3\n        /* \"#utility.yul\":7838:7847   */\n      dup11\n        /* \"#utility.yul\":7834:7856   */\n      add\n        /* \"#utility.yul\":7816:7866   */\n      tag_179\n      jump\t// in\n    tag_324:\n        /* \"#utility.yul\":7806:7866   */\n      swap7\n      pop\n        /* \"#utility.yul\":7762:7876   */\n      pop\n        /* \"#utility.yul\":7943:7945   */\n      0x20\n        /* \"#utility.yul\":7932:7941   */\n      dup8\n        /* \"#utility.yul\":7928:7946   */\n      add\n        /* \"#utility.yul\":7915:7947   */\n      calldataload\n        /* \"#utility.yul\":7974:7992   */\n      0xffffffffffffffff\n        /* \"#utility.yul\":7966:7972   */\n      dup2\n        /* \"#utility.yul\":7963:7993   */\n      gt\n        /* \"#utility.yul\":7960:8077   */\n      iszero\n      tag_325\n      jumpi\n        /* \"#utility.yul\":7996:8075   */\n      tag_326\n      tag_155\n      jump\t// in\n    tag_326:\n        /* \"#utility.yul\":7960:8077   */\n    tag_325:\n        /* \"#utility.yul\":8109:8189   */\n      tag_327\n        /* \"#utility.yul\":8181:8188   */\n      dup10\n        /* \"#utility.yul\":8172:8178   */\n      dup3\n        /* \"#utility.yul\":8161:8170   */\n      dup11\n        /* \"#utility.yul\":8157:8179   */\n      add\n        /* \"#utility.yul\":8109:8189   */\n      tag_180\n      jump\t// in\n    tag_327:\n        /* \"#utility.yul\":8091:8189   */\n      swap6\n      pop\n      swap6\n      pop\n        /* \"#utility.yul\":7886:8199   */\n      pop\n        /* \"#utility.yul\":8238:8240   */\n      0x40\n        /* \"#utility.yul\":8264:8317   */\n      tag_328\n        /* \"#utility.yul\":8309:8316   */\n      dup10\n        /* \"#utility.yul\":8300:8306   */\n      dup3\n        /* \"#utility.yul\":8289:8298   */\n      dup11\n        /* \"#utility.yul\":8285:8307   */\n      add\n        /* \"#utility.yul\":8264:8317   */\n      tag_171\n      jump\t// in\n    tag_328:\n        /* \"#utility.yul\":8254:8317   */\n      swap4\n      pop\n        /* \"#utility.yul\":8209:8327   */\n      pop\n        /* \"#utility.yul\":8394:8396   */\n      0x60\n        /* \"#utility.yul\":8383:8392   */\n      dup8\n        /* \"#utility.yul\":8379:8397   */\n      add\n        /* \"#utility.yul\":8366:8398   */\n      calldataload\n        /* \"#utility.yul\":8425:8443   */\n      0xffffffffffffffff\n        /* \"#utility.yul\":8417:8423   */\n      dup2\n        /* \"#utility.yul\":8414:8444   */\n      gt\n        /* \"#utility.yul\":8411:8528   */\n      iszero\n      tag_329\n      jumpi\n        /* \"#utility.yul\":8447:8526   */\n      tag_330\n      tag_155\n      jump\t// in\n    tag_330:\n        /* \"#utility.yul\":8411:8528   */\n    tag_329:\n        /* \"#utility.yul\":8560:8625   */\n      tag_331\n        /* \"#utility.yul\":8617:8624   */\n      dup10\n        /* \"#utility.yul\":8608:8614   */\n      dup3\n        /* \"#utility.yul\":8597:8606   */\n      dup11\n        /* \"#utility.yul\":8593:8615   */\n      add\n        /* \"#utility.yul\":8560:8625   */\n      tag_181\n      jump\t// in\n    tag_331:\n        /* \"#utility.yul\":8542:8625   */\n      swap3\n      pop\n      swap3\n      pop\n        /* \"#utility.yul\":8337:8635   */\n      pop\n        /* \"#utility.yul\":7453:8642   */\n      swap3\n      swap6\n      pop\n      swap3\n      swap6\n      pop\n      swap3\n      swap6\n      jump\t// out\n        /* \"#utility.yul\":8648:8765   */\n    tag_182:\n        /* \"#utility.yul\":8757:8758   */\n      0x00\n        /* \"#utility.yul\":8754:8755   */\n      dup1\n        /* \"#utility.yul\":8747:8759   */\n      revert\n        /* \"#utility.yul\":8771:8951   */\n    tag_183:\n        /* \"#utility.yul\":8819:8896   */\n      0x4e487b7100000000000000000000000000000000000000000000000000000000\n        /* \"#utility.yul\":8816:8817   */\n      0x00\n        /* \"#utility.yul\":8809:8897   */\n      mstore\n        /* \"#utility.yul\":8916:8920   */\n      0x41\n        /* \"#utility.yul\":8913:8914   */\n      0x04\n        /* \"#utility.yul\":8906:8921   */\n      mstore\n        /* \"#utility.yul\":8940:8944   */\n      0x24\n        /* \"#utility.yul\":8937:8938   */\n      0x00\n        /* \"#utility.yul\":8930:8945   */\n      revert\n        /* \"#utility.yul\":8957:9238   */\n    tag_184:\n        /* \"#utility.yul\":9040:9067   */\n      tag_335\n        /* \"#utility.yul\":9062:9066   */\n      dup3\n        /* \"#utility.yul\":9040:9067   */\n      tag_163\n      jump\t// in\n    tag_335:\n        /* \"#utility.yul\":9032:9038   */\n      dup2\n        /* \"#utility.yul\":9028:9068   */\n      add\n        /* \"#utility.yul\":9170:9176   */\n      dup2\n        /* \"#utility.yul\":9158:9168   */\n      dup2\n        /* \"#utility.yul\":9155:9177   */\n      lt\n        /* \"#utility.yul\":9134:9152   */\n      0xffffffffffffffff\n        /* \"#utility.yul\":9122:9132   */\n      dup3\n        /* \"#utility.yul\":9119:9153   */\n      gt\n        /* \"#utility.yul\":9116:9178   */\n      or\n        /* \"#utility.yul\":9113:9201   */\n      iszero\n      tag_336\n      jumpi\n        /* \"#utility.yul\":9181:9199   */\n      tag_337\n      tag_183\n      jump\t// in\n    tag_337:\n        /* \"#utility.yul\":9113:9201   */\n    tag_336:\n        /* \"#utility.yul\":9221:9231   */\n      dup1\n        /* \"#utility.yul\":9217:9219   */\n      0x40\n        /* \"#utility.yul\":9210:9232   */\n      mstore\n        /* \"#utility.yul\":9000:9238   */\n      pop\n        /* \"#utility.yul\":8957:9238   */\n      pop\n      pop\n      jump\t// out\n        /* \"#utility.yul\":9244:9373   */\n    tag_185:\n        /* \"#utility.yul\":9278:9284   */\n      0x00\n        /* \"#utility.yul\":9305:9325   */\n      tag_339\n      tag_153\n      jump\t// in\n    tag_339:\n        /* \"#utility.yul\":9295:9325   */\n      swap1\n      pop\n        /* \"#utility.yul\":9334:9367   */\n      tag_340\n        /* \"#utility.yul\":9362:9366   */\n      dup3\n        /* \"#utility.yul\":9354:9360   */\n      dup3\n        /* \"#utility.yul\":9334:9367   */\n      tag_184\n      jump\t// in\n    tag_340:\n        /* \"#utility.yul\":9244:9373   */\n      swap2\n      swap1\n      pop\n      jump\t// out\n        /* \"#utility.yul\":9379:9687   */\n    tag_186:\n        /* \"#utility.yul\":9441:9445   */\n      0x00\n        /* \"#utility.yul\":9531:9549   */\n      0xffffffffffffffff\n        /* \"#utility.yul\":9523:9529   */\n      dup3\n        /* \"#utility.yul\":9520:9550   */\n      gt\n        /* \"#utility.yul\":9517:9573   */\n      iszero\n      tag_342\n      jumpi\n        /* \"#utility.yul\":9553:9571   */\n      tag_343\n      tag_183\n      jump\t// in\n    tag_343:\n        /* \"#utility.yul\":9517:9573   */\n    tag_342:\n        /* \"#utility.yul\":9591:9620   */\n      tag_344\n        /* \"#utility.yul\":9613:9619   */\n      dup3\n        /* \"#utility.yul\":9591:9620   */\n      tag_163\n      jump\t// in\n    tag_344:\n        /* \"#utility.yul\":9583:9620   */\n      swap1\n      pop\n        /* \"#utility.yul\":9675:9679   */\n      0x20\n        /* \"#utility.yul\":9669:9673   */\n      dup2\n        /* \"#utility.yul\":9665:9680   */\n      add\n        /* \"#utility.yul\":9657:9680   */\n      swap1\n      pop\n        /* \"#utility.yul\":9379:9687   */\n      swap2\n      swap1\n      pop\n      jump\t// out\n        /* \"#utility.yul\":9693:9839   */\n    tag_187:\n        /* \"#utility.yul\":9790:9796   */\n      dup3\n        /* \"#utility.yul\":9785:9788   */\n      dup2\n        /* \"#utility.yul\":9780:9783   */\n      dup4\n        /* \"#utility.yul\":9767:9797   */\n      calldatacopy\n        /* \"#utility.yul\":9831:9832   */\n      0x00\n        /* \"#utility.yul\":9822:9828   */\n      dup4\n        /* \"#utility.yul\":9817:9820   */\n      dup4\n        /* \"#utility.yul\":9813:9829   */\n      add\n        /* \"#utility.yul\":9806:9833   */\n      mstore\n        /* \"#utility.yul\":9693:9839   */\n      pop\n      pop\n      pop\n      jump\t// out\n        /* \"#utility.yul\":9845:10270   */\n    tag_188:\n        /* \"#utility.yul\":9923:9928   */\n      0x00\n        /* \"#utility.yul\":9948:10014   */\n      tag_347\n        /* \"#utility.yul\":9964:10013   */\n      tag_348\n        /* \"#utility.yul\":10006:10012   */\n      dup5\n        /* \"#utility.yul\":9964:10013   */\n      tag_186\n      jump\t// in\n    tag_348:\n        /* \"#utility.yul\":9948:10014   */\n      tag_185\n      jump\t// in\n    tag_347:\n        /* \"#utility.yul\":9939:10014   */\n      swap1\n      pop\n        /* \"#utility.yul\":10037:10043   */\n      dup3\n        /* \"#utility.yul\":10030:10035   */\n      dup2\n        /* \"#utility.yul\":10023:10044   */\n      mstore\n        /* \"#utility.yul\":10075:10079   */\n      0x20\n        /* \"#utility.yul\":10068:10073   */\n      dup2\n        /* \"#utility.yul\":10064:10080   */\n      add\n        /* \"#utility.yul\":10113:10116   */\n      dup5\n        /* \"#utility.yul\":10104:10110   */\n      dup5\n        /* \"#utility.yul\":10099:10102   */\n      dup5\n        /* \"#utility.yul\":10095:10111   */\n      add\n        /* \"#utility.yul\":10092:10117   */\n      gt\n        /* \"#utility.yul\":10089:10201   */\n      iszero\n      tag_349\n      jumpi\n        /* \"#utility.yul\":10120:10199   */\n      tag_350\n      tag_182\n      jump\t// in\n    tag_350:\n        /* \"#utility.yul\":10089:10201   */\n    tag_349:\n        /* \"#utility.yul\":10210:10264   */\n      tag_351\n        /* \"#utility.yul\":10257:10263   */\n      dup5\n        /* \"#utility.yul\":10252:10255   */\n      dup3\n        /* \"#utility.yul\":10247:10250   */\n      dup6\n        /* \"#utility.yul\":10210:10264   */\n      tag_187\n      jump\t// in\n    tag_351:\n        /* \"#utility.yul\":9929:10270   */\n      pop\n        /* \"#utility.yul\":9845:10270   */\n      swap4\n      swap3\n      pop\n      pop\n      pop\n      jump\t// out\n        /* \"#utility.yul\":10290:10630   */\n    tag_189:\n        /* \"#utility.yul\":10346:10351   */\n      0x00\n        /* \"#utility.yul\":10395:10398   */\n      dup3\n        /* \"#utility.yul\":10388:10392   */\n      0x1f\n        /* \"#utility.yul\":10380:10386   */\n      dup4\n        /* \"#utility.yul\":10376:10393   */\n      add\n        /* \"#utility.yul\":10372:10399   */\n      slt\n        /* \"#utility.yul\":10362:10484   */\n      tag_353\n      jumpi\n        /* \"#utility.yul\":10403:10482   */\n      tag_354\n      tag_156\n      jump\t// in\n    tag_354:\n        /* \"#utility.yul\":10362:10484   */\n    tag_353:\n        /* \"#utility.yul\":10520:10526   */\n      dup2\n        /* \"#utility.yul\":10507:10527   */\n      calldataload\n        /* \"#utility.yul\":10545:10624   */\n      tag_355\n        /* \"#utility.yul\":10620:10623   */\n      dup5\n        /* \"#utility.yul\":10612:10618   */\n      dup3\n        /* \"#utility.yul\":10605:10609   */\n      0x20\n        /* \"#utility.yul\":10597:10603   */\n      dup7\n        /* \"#utility.yul\":10593:10610   */\n      add\n        /* \"#utility.yul\":10545:10624   */\n      tag_188\n      jump\t// in\n    tag_355:\n        /* \"#utility.yul\":10536:10624   */\n      swap2\n      pop\n        /* \"#utility.yul\":10352:10630   */\n      pop\n        /* \"#utility.yul\":10290:10630   */\n      swap3\n      swap2\n      pop\n      pop\n      jump\t// out\n        /* \"#utility.yul\":10636:11145   */\n    tag_54:\n        /* \"#utility.yul\":10705:10711   */\n      0x00\n        /* \"#utility.yul\":10754:10756   */\n      0x20\n        /* \"#utility.yul\":10742:10751   */\n      dup3\n        /* \"#utility.yul\":10733:10740   */\n      dup5\n        /* \"#utility.yul\":10729:10752   */\n      sub\n        /* \"#utility.yul\":10725:10757   */\n      slt\n        /* \"#utility.yul\":10722:10841   */\n      iszero\n      tag_357\n      jumpi\n        /* \"#utility.yul\":10760:10839   */\n      tag_358\n      tag_154\n      jump\t// in\n    tag_358:\n        /* \"#utility.yul\":10722:10841   */\n    tag_357:\n        /* \"#utility.yul\":10908:10909   */\n      0x00\n        /* \"#utility.yul\":10897:10906   */\n      dup3\n        /* \"#utility.yul\":10893:10910   */\n      add\n        /* \"#utility.yul\":10880:10911   */\n      calldataload\n        /* \"#utility.yul\":10938:10956   */\n      0xffffffffffffffff\n        /* \"#utility.yul\":10930:10936   */\n      dup2\n        /* \"#utility.yul\":10927:10957   */\n      gt\n        /* \"#utility.yul\":10924:11041   */\n      iszero\n      tag_359\n      jumpi\n        /* \"#utility.yul\":10960:11039   */\n      tag_360\n      tag_155\n      jump\t// in\n    tag_360:\n        /* \"#utility.yul\":10924:11041   */\n    tag_359:\n        /* \"#utility.yul\":11065:11128   */\n      tag_361\n        /* \"#utility.yul\":11120:11127   */\n      dup5\n        /* \"#utility.yul\":11111:11117   */\n      dup3\n        /* \"#utility.yul\":11100:11109   */\n      dup6\n        /* \"#utility.yul\":11096:11118   */\n      add\n        /* \"#utility.yul\":11065:11128   */\n      tag_189\n      jump\t// in\n    tag_361:\n        /* \"#utility.yul\":11055:11128   */\n      swap2\n      pop\n        /* \"#utility.yul\":10851:11138   */\n      pop\n        /* \"#utility.yul\":10636:11145   */\n      swap3\n      swap2\n      pop\n      pop\n      jump\t// out\n        /* \"#utility.yul\":11151:11260   */\n    tag_190:\n        /* \"#utility.yul\":11232:11253   */\n      tag_363\n        /* \"#utility.yul\":11247:11252   */\n      dup2\n        /* \"#utility.yul\":11232:11253   */\n      tag_177\n      jump\t// in\n    tag_363:\n        /* \"#utility.yul\":11227:11230   */\n      dup3\n        /* \"#utility.yul\":11220:11254   */\n      mstore\n        /* \"#utility.yul\":11151:11260   */\n      pop\n      pop\n      jump\t// out\n        /* \"#utility.yul\":11266:11476   */\n    tag_75:\n        /* \"#utility.yul\":11353:11357   */\n      0x00\n        /* \"#utility.yul\":11391:11393   */\n      0x20\n        /* \"#utility.yul\":11380:11389   */\n      dup3\n        /* \"#utility.yul\":11376:11394   */\n      add\n        /* \"#utility.yul\":11368:11394   */\n      swap1\n      pop\n        /* \"#utility.yul\":11404:11469   */\n      tag_365\n        /* \"#utility.yul\":11466:11467   */\n      0x00\n        /* \"#utility.yul\":11455:11464   */\n      dup4\n        /* \"#utility.yul\":11451:11468   */\n      add\n        /* \"#utility.yul\":11442:11448   */\n      dup5\n        /* \"#utility.yul\":11404:11469   */\n      tag_190\n      jump\t// in\n    tag_365:\n        /* \"#utility.yul\":11266:11476   */\n      swap3\n      swap2\n      pop\n      pop\n      jump\t// out\n        /* \"#utility.yul\":11482:11586   */\n    tag_191:\n        /* \"#utility.yul\":11527:11534   */\n      0x00\n        /* \"#utility.yul\":11556:11580   */\n      tag_367\n        /* \"#utility.yul\":11574:11579   */\n      dup3\n        /* \"#utility.yul\":11556:11580   */\n      tag_167\n      jump\t// in\n    tag_367:\n        /* \"#utility.yul\":11545:11580   */\n      swap1\n      pop\n        /* \"#utility.yul\":11482:11586   */\n      swap2\n      swap1\n      pop\n      jump\t// out\n        /* \"#utility.yul\":11592:11730   */\n    tag_192:\n        /* \"#utility.yul\":11673:11705   */\n      tag_369\n        /* \"#utility.yul\":11699:11704   */\n      dup2\n        /* \"#utility.yul\":11673:11705   */\n      tag_191\n      jump\t// in\n    tag_369:\n        /* \"#utility.yul\":11666:11671   */\n      dup2\n        /* \"#utility.yul\":11663:11706   */\n      eq\n        /* \"#utility.yul\":11653:11724   */\n      tag_370\n      jumpi\n        /* \"#utility.yul\":11720:11721   */\n      0x00\n        /* \"#utility.yul\":11717:11718   */\n      dup1\n        /* \"#utility.yul\":11710:11722   */\n      revert\n        /* \"#utility.yul\":11653:11724   */\n    tag_370:\n        /* \"#utility.yul\":11592:11730   */\n      pop\n      jump\t// out\n        /* \"#utility.yul\":11736:11891   */\n    tag_193:\n        /* \"#utility.yul\":11790:11795   */\n      0x00\n        /* \"#utility.yul\":11828:11834   */\n      dup2\n        /* \"#utility.yul\":11815:11835   */\n      calldataload\n        /* \"#utility.yul\":11806:11835   */\n      swap1\n      pop\n        /* \"#utility.yul\":11844:11885   */\n      tag_372\n        /* \"#utility.yul\":11879:11884   */\n      dup2\n        /* \"#utility.yul\":11844:11885   */\n      tag_192\n      jump\t// in\n    tag_372:\n        /* \"#utility.yul\":11736:11891   */\n      swap3\n      swap2\n      pop\n      pop\n      jump\t// out\n        /* \"#utility.yul\":11897:12712   */\n    tag_94:\n        /* \"#utility.yul\":11992:11998   */\n      0x00\n        /* \"#utility.yul\":12000:12006   */\n      dup1\n        /* \"#utility.yul\":12008:12014   */\n      0x00\n        /* \"#utility.yul\":12057:12059   */\n      0x60\n        /* \"#utility.yul\":12045:12054   */\n      dup5\n        /* \"#utility.yul\":12036:12043   */\n      dup7\n        /* \"#utility.yul\":12032:12055   */\n      sub\n        /* \"#utility.yul\":12028:12060   */\n      slt\n        /* \"#utility.yul\":12025:12144   */\n      iszero\n      tag_374\n      jumpi\n        /* \"#utility.yul\":12063:12142   */\n      tag_375\n      tag_154\n      jump\t// in\n    tag_375:\n        /* \"#utility.yul\":12025:12144   */\n    tag_374:\n        /* \"#utility.yul\":12211:12212   */\n      0x00\n        /* \"#utility.yul\":12200:12209   */\n      dup5\n        /* \"#utility.yul\":12196:12213   */\n      add\n        /* \"#utility.yul\":12183:12214   */\n      calldataload\n        /* \"#utility.yul\":12241:12259   */\n      0xffffffffffffffff\n        /* \"#utility.yul\":12233:12239   */\n      dup2\n        /* \"#utility.yul\":12230:12260   */\n      gt\n        /* \"#utility.yul\":12227:12344   */\n      iszero\n      tag_376\n      jumpi\n        /* \"#utility.yul\":12263:12342   */\n      tag_377\n      tag_155\n      jump\t// in\n    tag_377:\n        /* \"#utility.yul\":12227:12344   */\n    tag_376:\n        /* \"#utility.yul\":12368:12431   */\n      tag_378\n        /* \"#utility.yul\":12423:12430   */\n      dup7\n        /* \"#utility.yul\":12414:12420   */\n      dup3\n        /* \"#utility.yul\":12403:12412   */\n      dup8\n        /* \"#utility.yul\":12399:12421   */\n      add\n        /* \"#utility.yul\":12368:12431   */\n      tag_189\n      jump\t// in\n    tag_378:\n        /* \"#utility.yul\":12358:12431   */\n      swap4\n      pop\n        /* \"#utility.yul\":12154:12441   */\n      pop\n        /* \"#utility.yul\":12480:12482   */\n      0x20\n        /* \"#utility.yul\":12506:12559   */\n      tag_379\n        /* \"#utility.yul\":12551:12558   */\n      dup7\n        /* \"#utility.yul\":12542:12548   */\n      dup3\n        /* \"#utility.yul\":12531:12540   */\n      dup8\n        /* \"#utility.yul\":12527:12549   */\n      add\n        /* \"#utility.yul\":12506:12559   */\n      tag_173\n      jump\t// in\n    tag_379:\n        /* \"#utility.yul\":12496:12559   */\n      swap3\n      pop\n        /* \"#utility.yul\":12451:12569   */\n      pop\n        /* \"#utility.yul\":12608:12610   */\n      0x40\n        /* \"#utility.yul\":12634:12695   */\n      tag_380\n        /* \"#utility.yul\":12687:12694   */\n      dup7\n        /* \"#utility.yul\":12678:12684   */\n      dup3\n        /* \"#utility.yul\":12667:12676   */\n      dup8\n        /* \"#utility.yul\":12663:12685   */\n      add\n        /* \"#utility.yul\":12634:12695   */\n      tag_193\n      jump\t// in\n    tag_380:\n        /* \"#utility.yul\":12624:12695   */\n      swap2\n      pop\n        /* \"#utility.yul\":12579:12705   */\n      pop\n        /* \"#utility.yul\":11897:12712   */\n      swap3\n      pop\n      swap3\n      pop\n      swap3\n      jump\t// out\n        /* \"#utility.yul\":12718:13050   */\n    tag_97:\n        /* \"#utility.yul\":12839:12843   */\n      0x00\n        /* \"#utility.yul\":12877:12879   */\n      0x40\n        /* \"#utility.yul\":12866:12875   */\n      dup3\n        /* \"#utility.yul\":12862:12880   */\n      add\n        /* \"#utility.yul\":12854:12880   */\n      swap1\n      pop\n        /* \"#utility.yul\":12890:12961   */\n      tag_382\n        /* \"#utility.yul\":12958:12959   */\n      0x00\n        /* \"#utility.yul\":12947:12956   */\n      dup4\n        /* \"#utility.yul\":12943:12960   */\n      add\n        /* \"#utility.yul\":12934:12940   */\n      dup6\n        /* \"#utility.yul\":12890:12961   */\n      tag_169\n      jump\t// in\n    tag_382:\n        /* \"#utility.yul\":12971:13043   */\n      tag_383\n        /* \"#utility.yul\":13039:13041   */\n      0x20\n        /* \"#utility.yul\":13028:13037   */\n      dup4\n        /* \"#utility.yul\":13024:13042   */\n      add\n        /* \"#utility.yul\":13015:13021   */\n      dup5\n        /* \"#utility.yul\":12971:13043   */\n      tag_166\n      jump\t// in\n    tag_383:\n        /* \"#utility.yul\":12718:13050   */\n      swap4\n      swap3\n      pop\n      pop\n      pop\n      jump\t// out\n        /* \"#utility.yul\":13056:13204   */\n    tag_194:\n        /* \"#utility.yul\":13158:13169   */\n      0x00\n        /* \"#utility.yul\":13195:13198   */\n      dup2\n        /* \"#utility.yul\":13180:13198   */\n      swap1\n      pop\n        /* \"#utility.yul\":13056:13204   */\n      swap3\n      swap2\n      pop\n      pop\n      jump\t// out\n        /* \"#utility.yul\":13210:13368   */\n    tag_195:\n        /* \"#utility.yul\":13350:13360   */\n      0x617070776f726b73000000000000000000000000000000000000000000000000\n        /* \"#utility.yul\":13346:13347   */\n      0x00\n        /* \"#utility.yul\":13338:13344   */\n      dup3\n        /* \"#utility.yul\":13334:13348   */\n      add\n        /* \"#utility.yul\":13327:13361   */\n      mstore\n        /* \"#utility.yul\":13210:13368   */\n      pop\n      jump\t// out\n        /* \"#utility.yul\":13374:13774   */\n    tag_196:\n        /* \"#utility.yul\":13534:13537   */\n      0x00\n        /* \"#utility.yul\":13555:13639   */\n      tag_387\n        /* \"#utility.yul\":13637:13638   */\n      0x08\n        /* \"#utility.yul\":13632:13635   */\n      dup4\n        /* \"#utility.yul\":13555:13639   */\n      tag_194\n      jump\t// in\n    tag_387:\n        /* \"#utility.yul\":13548:13639   */\n      swap2\n      pop\n        /* \"#utility.yul\":13648:13741   */\n      tag_388\n        /* \"#utility.yul\":13737:13740   */\n      dup3\n        /* \"#utility.yul\":13648:13741   */\n      tag_195\n      jump\t// in\n    tag_388:\n        /* \"#utility.yul\":13766:13767   */\n      0x08\n        /* \"#utility.yul\":13761:13764   */\n      dup3\n        /* \"#utility.yul\":13757:13768   */\n      add\n        /* \"#utility.yul\":13750:13768   */\n      swap1\n      pop\n        /* \"#utility.yul\":13374:13774   */\n      swap2\n      swap1\n      pop\n      jump\t// out\n        /* \"#utility.yul\":13780:14161   */\n    tag_100:\n        /* \"#utility.yul\":13965:13968   */\n      0x00\n        /* \"#utility.yul\":13987:14135   */\n      tag_390\n        /* \"#utility.yul\":14131:14134   */\n      dup3\n        /* \"#utility.yul\":13987:14135   */\n      tag_196\n      jump\t// in\n    tag_390:\n        /* \"#utility.yul\":13980:14135   */\n      swap2\n      pop\n        /* \"#utility.yul\":14152:14155   */\n      dup2\n        /* \"#utility.yul\":14145:14155   */\n      swap1\n      pop\n        /* \"#utility.yul\":13780:14161   */\n      swap2\n      swap1\n      pop\n      jump\t// out\n        /* \"#utility.yul\":14167:14351   */\n    tag_197:\n        /* \"#utility.yul\":14266:14277   */\n      0x00\n        /* \"#utility.yul\":14300:14306   */\n      dup3\n        /* \"#utility.yul\":14295:14298   */\n      dup3\n        /* \"#utility.yul\":14288:14307   */\n      mstore\n        /* \"#utility.yul\":14340:14344   */\n      0x20\n        /* \"#utility.yul\":14335:14338   */\n      dup3\n        /* \"#utility.yul\":14331:14345   */\n      add\n        /* \"#utility.yul\":14316:14345   */\n      swap1\n      pop\n        /* \"#utility.yul\":14167:14351   */\n      swap3\n      swap2\n      pop\n      pop\n      jump\t// out\n        /* \"#utility.yul\":14357:14474   */\n    tag_198:\n        /* \"#utility.yul\":14466:14467   */\n      0x00\n        /* \"#utility.yul\":14463:14464   */\n      dup1\n        /* \"#utility.yul\":14456:14468   */\n      revert\n        /* \"#utility.yul\":14480:14578   */\n    tag_199:\n        /* \"#utility.yul\":14564:14570   */\n      dup3\n        /* \"#utility.yul\":14559:14562   */\n      dup2\n        /* \"#utility.yul\":14554:14557   */\n      dup4\n        /* \"#utility.yul\":14541:14571   */\n      calldatacopy\n        /* \"#utility.yul\":14480:14578   */\n      pop\n      pop\n      pop\n      jump\t// out\n        /* \"#utility.yul\":14614:15151   */\n    tag_200:\n        /* \"#utility.yul\":14742:14745   */\n      0x00\n        /* \"#utility.yul\":14763:14849   */\n      tag_395\n        /* \"#utility.yul\":14842:14848   */\n      dup4\n        /* \"#utility.yul\":14837:14840   */\n      dup6\n        /* \"#utility.yul\":14763:14849   */\n      tag_197\n      jump\t// in\n    tag_395:\n        /* \"#utility.yul\":14756:14849   */\n      swap4\n      pop\n        /* \"#utility.yul\":14873:14939   */\n      0x07ffffffffffffffffffffffffffffffffffffffffffffffffffffffffffffff\n        /* \"#utility.yul\":14865:14871   */\n      dup4\n        /* \"#utility.yul\":14862:14940   */\n      gt\n        /* \"#utility.yul\":14859:15024   */\n      iszero\n      tag_396\n      jumpi\n        /* \"#utility.yul\":14943:15022   */\n      tag_397\n      tag_198\n      jump\t// in\n    tag_397:\n        /* \"#utility.yul\":14859:15024   */\n    tag_396:\n        /* \"#utility.yul\":15055:15059   */\n      0x20\n        /* \"#utility.yul\":15047:15053   */\n      dup4\n        /* \"#utility.yul\":15043:15060   */\n      mul\n        /* \"#utility.yul\":15033:15060   */\n      swap3\n      pop\n        /* \"#utility.yul\":15070:15113   */\n      tag_398\n        /* \"#utility.yul\":15106:15112   */\n      dup4\n        /* \"#utility.yul\":15101:15104   */\n      dup6\n        /* \"#utility.yul\":15094:15099   */\n      dup5\n        /* \"#utility.yul\":15070:15113   */\n      tag_199\n      jump\t// in\n    tag_398:\n        /* \"#utility.yul\":15138:15144   */\n      dup3\n        /* \"#utility.yul\":15133:15136   */\n      dup5\n        /* \"#utility.yul\":15129:15145   */\n      add\n        /* \"#utility.yul\":15122:15145   */\n      swap1\n      pop\n        /* \"#utility.yul\":14614:15151   */\n      swap4\n      swap3\n      pop\n      pop\n      pop\n      jump\t// out\n        /* \"#utility.yul\":15181:15498   */\n    tag_201:\n        /* \"#utility.yul\":15279:15282   */\n      0x00\n        /* \"#utility.yul\":15300:15371   */\n      tag_400\n        /* \"#utility.yul\":15364:15370   */\n      dup4\n        /* \"#utility.yul\":15359:15362   */\n      dup6\n        /* \"#utility.yul\":15300:15371   */\n      tag_161\n      jump\t// in\n    tag_400:\n        /* \"#utility.yul\":15293:15371   */\n      swap4\n      pop\n        /* \"#utility.yul\":15381:15437   */\n      tag_401\n        /* \"#utility.yul\":15430:15436   */\n      dup4\n        /* \"#utility.yul\":15425:15428   */\n      dup6\n        /* \"#utility.yul\":15418:15423   */\n      dup5\n        /* \"#utility.yul\":15381:15437   */\n      tag_187\n      jump\t// in\n    tag_401:\n        /* \"#utility.yul\":15462:15491   */\n      tag_402\n        /* \"#utility.yul\":15484:15490   */\n      dup4\n        /* \"#utility.yul\":15462:15491   */\n      tag_163\n      jump\t// in\n    tag_402:\n        /* \"#utility.yul\":15457:15460   */\n      dup5\n        /* \"#utility.yul\":15453:15492   */\n      add\n        /* \"#utility.yul\":15446:15492   */\n      swap1\n      pop\n        /* \"#utility.yul\":15181:15498   */\n      swap4\n      swap3\n      pop\n      pop\n      pop\n      jump\t// out\n        /* \"#utility.yul\":15504:16327   */\n    tag_103:\n        /* \"#utility.yul\":15765:15769   */\n      0x00\n        /* \"#utility.yul\":15803:15806   */\n      0x80\n        /* \"#utility.yul\":15792:15801   */\n      dup3\n        /* \"#utility.yul\":15788:15807   */\n      add\n        /* \"#utility.yul\":15780:15807   */\n      swap1\n      pop\n        /* \"#utility.yul\":15817:15882   */\n      tag_404\n        /* \"#utility.yul\":15879:15880   */\n      0x00\n        /* \"#utility.yul\":15868:15877   */\n      dup4\n        /* \"#utility.yul\":15864:15881   */\n      add\n        /* \"#utility.yul\":15855:15861   */\n      dup10\n        /* \"#utility.yul\":15817:15882   */\n      tag_190\n      jump\t// in\n    tag_404:\n        /* \"#utility.yul\":15929:15938   */\n      dup2\n        /* \"#utility.yul\":15923:15927   */\n      dup2\n        /* \"#utility.yul\":15919:15939   */\n      sub\n        /* \"#utility.yul\":15914:15916   */\n      0x20\n        /* \"#utility.yul\":15903:15912   */\n      dup4\n        /* \"#utility.yul\":15899:15917   */\n      add\n        /* \"#utility.yul\":15892:15940   */\n      mstore\n        /* \"#utility.yul\":15957:16075   */\n      tag_405\n        /* \"#utility.yul\":16070:16074   */\n      dup2\n        /* \"#utility.yul\":16061:16067   */\n      dup8\n        /* \"#utility.yul\":16053:16059   */\n      dup10\n        /* \"#utility.yul\":15957:16075   */\n      tag_200\n      jump\t// in\n    tag_405:\n        /* \"#utility.yul\":15949:16075   */\n      swap1\n      pop\n        /* \"#utility.yul\":16085:16157   */\n      tag_406\n        /* \"#utility.yul\":16153:16155   */\n      0x40\n        /* \"#utility.yul\":16142:16151   */\n      dup4\n        /* \"#utility.yul\":16138:16156   */\n      add\n        /* \"#utility.yul\":16129:16135   */\n      dup7\n        /* \"#utility.yul\":16085:16157   */\n      tag_169\n      jump\t// in\n    tag_406:\n        /* \"#utility.yul\":16204:16213   */\n      dup2\n        /* \"#utility.yul\":16198:16202   */\n      dup2\n        /* \"#utility.yul\":16194:16214   */\n      sub\n        /* \"#utility.yul\":16189:16191   */\n      0x60\n        /* \"#utility.yul\":16178:16187   */\n      dup4\n        /* \"#utility.yul\":16174:16192   */\n      add\n        /* \"#utility.yul\":16167:16215   */\n      mstore\n        /* \"#utility.yul\":16232:16320   */\n      tag_407\n        /* \"#utility.yul\":16315:16319   */\n      dup2\n        /* \"#utility.yul\":16306:16312   */\n      dup5\n        /* \"#utility.yul\":16298:16304   */\n      dup7\n        /* \"#utility.yul\":16232:16320   */\n      tag_201\n      jump\t// in\n    tag_407:\n        /* \"#utility.yul\":16224:16320   */\n      swap1\n      pop\n        /* \"#utility.yul\":15504:16327   */\n      swap8\n      swap7\n      pop\n      pop\n      pop\n      pop\n      pop\n      pop\n      pop\n      jump\t// out\n        /* \"#utility.yul\":16333:16723   */\n    tag_202:\n        /* \"#utility.yul\":16439:16442   */\n      0x00\n        /* \"#utility.yul\":16467:16506   */\n      tag_409\n        /* \"#utility.yul\":16500:16505   */\n      dup3\n        /* \"#utility.yul\":16467:16506   */\n      tag_160\n      jump\t// in\n    tag_409:\n        /* \"#utility.yul\":16522:16611   */\n      tag_410\n        /* \"#utility.yul\":16604:16610   */\n      dup2\n        /* \"#utility.yul\":16599:16602   */\n      dup6\n        /* \"#utility.yul\":16522:16611   */\n      tag_194\n      jump\t// in\n    tag_410:\n        /* \"#utility.yul\":16515:16611   */\n      swap4\n      pop\n        /* \"#utility.yul\":16620:16685   */\n      tag_411\n        /* \"#utility.yul\":16678:16684   */\n      dup2\n        /* \"#utility.yul\":16673:16676   */\n      dup6\n        /* \"#utility.yul\":16666:16670   */\n      0x20\n        /* \"#utility.yul\":16659:16664   */\n      dup7\n        /* \"#utility.yul\":16655:16671   */\n      add\n        /* \"#utility.yul\":16620:16685   */\n      tag_162\n      jump\t// in\n    tag_411:\n        /* \"#utility.yul\":16710:16716   */\n      dup1\n        /* \"#utility.yul\":16705:16708   */\n      dup5\n        /* \"#utility.yul\":16701:16717   */\n      add\n        /* \"#utility.yul\":16694:16717   */\n      swap2\n      pop\n        /* \"#utility.yul\":16443:16723   */\n      pop\n        /* \"#utility.yul\":16333:16723   */\n      swap3\n      swap2\n      pop\n      pop\n      jump\t// out\n        /* \"#utility.yul\":16729:17004   */\n    tag_108:\n        /* \"#utility.yul\":16861:16864   */\n      0x00\n        /* \"#utility.yul\":16883:16978   */\n      tag_413\n        /* \"#utility.yul\":16974:16977   */\n      dup3\n        /* \"#utility.yul\":16965:16971   */\n      dup5\n        /* \"#utility.yul\":16883:16978   */\n      tag_202\n      jump\t// in\n    tag_413:\n        /* \"#utility.yul\":16876:16978   */\n      swap2\n      pop\n        /* \"#utility.yul\":16995:16998   */\n      dup2\n        /* \"#utility.yul\":16988:16998   */\n      swap1\n      pop\n        /* \"#utility.yul\":16729:17004   */\n      swap3\n      swap2\n      pop\n      pop\n      jump\t// out\n        /* \"#utility.yul\":17010:17375   */\n    tag_203:\n        /* \"#utility.yul\":17152:17155   */\n      0x00\n        /* \"#utility.yul\":17173:17239   */\n      tag_415\n        /* \"#utility.yul\":17237:17238   */\n      0x08\n        /* \"#utility.yul\":17232:17235   */\n      dup4\n        /* \"#utility.yul\":17173:17239   */\n      tag_161\n      jump\t// in\n    tag_415:\n        /* \"#utility.yul\":17166:17239   */\n      swap2\n      pop\n        /* \"#utility.yul\":17248:17341   */\n      tag_416\n        /* \"#utility.yul\":17337:17340   */\n      dup3\n        /* \"#utility.yul\":17248:17341   */\n      tag_195\n      jump\t// in\n    tag_416:\n        /* \"#utility.yul\":17366:17368   */\n      0x20\n        /* \"#utility.yul\":17361:17364   */\n      dup3\n        /* \"#utility.yul\":17357:17369   */\n      add\n        /* \"#utility.yul\":17350:17369   */\n      swap1\n      pop\n        /* \"#utility.yul\":17010:17375   */\n      swap2\n      swap1\n      pop\n      jump\t// out\n        /* \"#utility.yul\":17381:17800   */\n    tag_111:\n        /* \"#utility.yul\":17547:17551   */\n      0x00\n        /* \"#utility.yul\":17585:17587   */\n      0x20\n        /* \"#utility.yul\":17574:17583   */\n      dup3\n        /* \"#utility.yul\":17570:17588   */\n      add\n        /* \"#utility.yul\":17562:17588   */\n      swap1\n      pop\n        /* \"#utility.yul\":17634:17643   */\n      dup2\n        /* \"#utility.yul\":17628:17632   */\n      dup2\n        /* \"#utility.yul\":17624:17644   */\n      sub\n        /* \"#utility.yul\":17620:17621   */\n      0x00\n        /* \"#utility.yul\":17609:17618   */\n      dup4\n        /* \"#utility.yul\":17605:17622   */\n      add\n        /* \"#utility.yul\":17598:17645   */\n      mstore\n        /* \"#utility.yul\":17662:17793   */\n      tag_418\n        /* \"#utility.yul\":17788:17792   */\n      dup2\n        /* \"#utility.yul\":17662:17793   */\n      tag_203\n      jump\t// in\n    tag_418:\n        /* \"#utility.yul\":17654:17793   */\n      swap1\n      pop\n        /* \"#utility.yul\":17381:17800   */\n      swap2\n      swap1\n      pop\n      jump\t// out\n        /* \"#utility.yul\":17806:17891   */\n    tag_204:\n        /* \"#utility.yul\":17851:17858   */\n      0x00\n        /* \"#utility.yul\":17880:17885   */\n      dup2\n        /* \"#utility.yul\":17869:17885   */\n      swap1\n      pop\n        /* \"#utility.yul\":17806:17891   */\n      swap2\n      swap1\n      pop\n      jump\t// out\n        /* \"#utility.yul\":17897:17983   */\n    tag_205:\n        /* \"#utility.yul\":17932:17939   */\n      0x00\n        /* \"#utility.yul\":17972:17976   */\n      0xff\n        /* \"#utility.yul\":17965:17970   */\n      dup3\n        /* \"#utility.yul\":17961:17977   */\n      and\n        /* \"#utility.yul\":17950:17977   */\n      swap1\n      pop\n        /* \"#utility.yul\":17897:17983   */\n      swap2\n      swap1\n      pop\n      jump\t// out\n        /* \"#utility.yul\":17989:18049   */\n    tag_206:\n        /* \"#utility.yul\":18017:18020   */\n      0x00\n        /* \"#utility.yul\":18038:18043   */\n      dup2\n        /* \"#utility.yul\":18031:18043   */\n      swap1\n      pop\n        /* \"#utility.yul\":17989:18049   */\n      swap2\n      swap1\n      pop\n      jump\t// out\n        /* \"#utility.yul\":18055:18209   */\n    tag_207:\n        /* \"#utility.yul\":18111:18120   */\n      0x00\n        /* \"#utility.yul\":18144:18203   */\n      tag_423\n        /* \"#utility.yul\":18160:18202   */\n      tag_424\n        /* \"#utility.yul\":18169:18201   */\n      tag_425\n        /* \"#utility.yul\":18195:18200   */\n      dup5\n        /* \"#utility.yul\":18169:18201   */\n      tag_204\n      jump\t// in\n    tag_425:\n        /* \"#utility.yul\":18160:18202   */\n      tag_206\n      jump\t// in\n    tag_424:\n        /* \"#utility.yul\":18144:18203   */\n      tag_205\n      jump\t// in\n    tag_423:\n        /* \"#utility.yul\":18131:18203   */\n      swap1\n      pop\n        /* \"#utility.yul\":18055:18209   */\n      swap2\n      swap1\n      pop\n      jump\t// out\n        /* \"#utility.yul\":18215:18358   */\n    tag_208:\n        /* \"#utility.yul\":18308:18351   */\n      tag_427\n        /* \"#utility.yul\":18345:18350   */\n      dup2\n        /* \"#utility.yul\":18308:18351   */\n      tag_207\n      jump\t// in\n    tag_427:\n        /* \"#utility.yul\":18303:18306   */\n      dup3\n        /* \"#utility.yul\":18296:18352   */\n      mstore\n        /* \"#utility.yul\":18215:18358   */\n      pop\n      pop\n      jump\t// out\n        /* \"#utility.yul\":18364:18450   */\n    tag_209:\n        /* \"#utility.yul\":18410:18417   */\n      0x00\n        /* \"#utility.yul\":18439:18444   */\n      dup2\n        /* \"#utility.yul\":18428:18444   */\n      swap1\n      pop\n        /* \"#utility.yul\":18364:18450   */\n      swap2\n      swap1\n      pop\n      jump\t// out\n        /* \"#utility.yul\":18456:18612   */\n    tag_210:\n        /* \"#utility.yul\":18513:18522   */\n      0x00\n        /* \"#utility.yul\":18546:18606   */\n      tag_430\n        /* \"#utility.yul\":18562:18605   */\n      tag_431\n        /* \"#utility.yul\":18571:18604   */\n      tag_432\n        /* \"#utility.yul\":18598:18603   */\n      dup5\n        /* \"#utility.yul\":18571:18604   */\n      tag_209\n      jump\t// in\n    tag_432:\n        /* \"#utility.yul\":18562:18605   */\n      tag_206\n      jump\t// in\n    tag_431:\n        /* \"#utility.yul\":18546:18606   */\n      tag_205\n      jump\t// in\n    tag_430:\n        /* \"#utility.yul\":18533:18606   */\n      swap1\n      pop\n        /* \"#utility.yul\":18456:18612   */\n      swap2\n      swap1\n      pop\n      jump\t// out\n        /* \"#utility.yul\":18618:18763   */\n    tag_211:\n        /* \"#utility.yul\":18712:18756   */\n      tag_434\n        /* \"#utility.yul\":18750:18755   */\n      dup2\n        /* \"#utility.yul\":18712:18756   */\n      tag_210\n      jump\t// in\n    tag_434:\n        /* \"#utility.yul\":18707:18710   */\n      dup3\n        /* \"#utility.yul\":18700:18757   */\n      mstore\n        /* \"#utility.yul\":18618:18763   */\n      pop\n      pop\n      jump\t// out\n        /* \"#utility.yul\":18769:18922   */\n    tag_212:\n        /* \"#utility.yul\":18909:18914   */\n      0x6a696d0000000000000000000000000000000000000000000000000000000000\n        /* \"#utility.yul\":18905:18906   */\n      0x00\n        /* \"#utility.yul\":18897:18903   */\n      dup3\n        /* \"#utility.yul\":18893:18907   */\n      add\n        /* \"#utility.yul\":18886:18915   */\n      mstore\n        /* \"#utility.yul\":18769:18922   */\n      pop\n      jump\t// out\n        /* \"#utility.yul\":18928:19293   */\n    tag_213:\n        /* \"#utility.yul\":19070:19073   */\n      0x00\n        /* \"#utility.yul\":19091:19157   */\n      tag_437\n        /* \"#utility.yul\":19155:19156   */\n      0x03\n        /* \"#utility.yul\":19150:19153   */\n      dup4\n        /* \"#utility.yul\":19091:19157   */\n      tag_161\n      jump\t// in\n    tag_437:\n        /* \"#utility.yul\":19084:19157   */\n      swap2\n      pop\n        /* \"#utility.yul\":19166:19259   */\n      tag_438\n        /* \"#utility.yul\":19255:19258   */\n      dup3\n        /* \"#utility.yul\":19166:19259   */\n      tag_212\n      jump\t// in\n    tag_438:\n        /* \"#utility.yul\":19284:19286   */\n      0x20\n        /* \"#utility.yul\":19279:19282   */\n      dup3\n        /* \"#utility.yul\":19275:19287   */\n      add\n        /* \"#utility.yul\":19268:19287   */\n      swap1\n      pop\n        /* \"#utility.yul\":18928:19293   */\n      swap2\n      swap1\n      pop\n      jump\t// out\n        /* \"#utility.yul\":19299:20272   */\n    tag_116:\n        /* \"#utility.yul\":19635:19639   */\n      0x00\n        /* \"#utility.yul\":19673:19676   */\n      0x80\n        /* \"#utility.yul\":19662:19671   */\n      dup3\n        /* \"#utility.yul\":19658:19677   */\n      add\n        /* \"#utility.yul\":19650:19677   */\n      swap1\n      pop\n        /* \"#utility.yul\":19723:19732   */\n      dup2\n        /* \"#utility.yul\":19717:19721   */\n      dup2\n        /* \"#utility.yul\":19713:19733   */\n      sub\n        /* \"#utility.yul\":19709:19710   */\n      0x00\n        /* \"#utility.yul\":19698:19707   */\n      dup4\n        /* \"#utility.yul\":19694:19711   */\n      add\n        /* \"#utility.yul\":19687:19734   */\n      mstore\n        /* \"#utility.yul\":19751:19882   */\n      tag_440\n        /* \"#utility.yul\":19877:19881   */\n      dup2\n        /* \"#utility.yul\":19751:19882   */\n      tag_203\n      jump\t// in\n    tag_440:\n        /* \"#utility.yul\":19743:19882   */\n      swap1\n      pop\n        /* \"#utility.yul\":19892:19970   */\n      tag_441\n        /* \"#utility.yul\":19966:19968   */\n      0x20\n        /* \"#utility.yul\":19955:19964   */\n      dup4\n        /* \"#utility.yul\":19951:19969   */\n      add\n        /* \"#utility.yul\":19942:19948   */\n      dup6\n        /* \"#utility.yul\":19892:19970   */\n      tag_208\n      jump\t// in\n    tag_441:\n        /* \"#utility.yul\":19980:20059   */\n      tag_442\n        /* \"#utility.yul\":20055:20057   */\n      0x40\n        /* \"#utility.yul\":20044:20053   */\n      dup4\n        /* \"#utility.yul\":20040:20058   */\n      add\n        /* \"#utility.yul\":20031:20037   */\n      dup5\n        /* \"#utility.yul\":19980:20059   */\n      tag_211\n      jump\t// in\n    tag_442:\n        /* \"#utility.yul\":20106:20115   */\n      dup2\n        /* \"#utility.yul\":20100:20104   */\n      dup2\n        /* \"#utility.yul\":20096:20116   */\n      sub\n        /* \"#utility.yul\":20091:20093   */\n      0x60\n        /* \"#utility.yul\":20080:20089   */\n      dup4\n        /* \"#utility.yul\":20076:20094   */\n      add\n        /* \"#utility.yul\":20069:20117   */\n      mstore\n        /* \"#utility.yul\":20134:20265   */\n      tag_443\n        /* \"#utility.yul\":20260:20264   */\n      dup2\n        /* \"#utility.yul\":20134:20265   */\n      tag_213\n      jump\t// in\n    tag_443:\n        /* \"#utility.yul\":20126:20265   */\n      swap1\n      pop\n        /* \"#utility.yul\":19299:20272   */\n      swap4\n      swap3\n      pop\n      pop\n      pop\n      jump\t// out\n        /* \"#utility.yul\":20278:20451   */\n    tag_214:\n        /* \"#utility.yul\":20418:20443   */\n      0x626f6f6c20706172616d6574657220636f72726563742e000000000000000000\n        /* \"#utility.yul\":20414:20415   */\n      0x00\n        /* \"#utility.yul\":20406:20412   */\n      dup3\n        /* \"#utility.yul\":20402:20416   */\n      add\n        /* \"#utility.yul\":20395:20444   */\n      mstore\n        /* \"#utility.yul\":20278:20451   */\n      pop\n      jump\t// out\n        /* \"#utility.yul\":20457:20823   */\n    tag_215:\n        /* \"#utility.yul\":20599:20602   */\n      0x00\n        /* \"#utility.yul\":20620:20687   */\n      tag_446\n        /* \"#utility.yul\":20684:20686   */\n      0x17\n        /* \"#utility.yul\":20679:20682   */\n      dup4\n        /* \"#utility.yul\":20620:20687   */\n      tag_161\n      jump\t// in\n    tag_446:\n        /* \"#utility.yul\":20613:20687   */\n      swap2\n      pop\n        /* \"#utility.yul\":20696:20789   */\n      tag_447\n        /* \"#utility.yul\":20785:20788   */\n      dup3\n        /* \"#utility.yul\":20696:20789   */\n      tag_214\n      jump\t// in\n    tag_447:\n        /* \"#utility.yul\":20814:20816   */\n      0x20\n        /* \"#utility.yul\":20809:20812   */\n      dup3\n        /* \"#utility.yul\":20805:20817   */\n      add\n        /* \"#utility.yul\":20798:20817   */\n      swap1\n      pop\n        /* \"#utility.yul\":20457:20823   */\n      swap2\n      swap1\n      pop\n      jump\t// out\n        /* \"#utility.yul\":20829:21248   */\n    tag_120:\n        /* \"#utility.yul\":20995:20999   */\n      0x00\n        /* \"#utility.yul\":21033:21035   */\n      0x20\n        /* \"#utility.yul\":21022:21031   */\n      dup3\n        /* \"#utility.yul\":21018:21036   */\n      add\n        /* \"#utility.yul\":21010:21036   */\n      swap1\n      pop\n        /* \"#utility.yul\":21082:21091   */\n      dup2\n        /* \"#utility.yul\":21076:21080   */\n      dup2\n        /* \"#utility.yul\":21072:21092   */\n      sub\n        /* \"#utility.yul\":21068:21069   */\n      0x00\n        /* \"#utility.yul\":21057:21066   */\n      dup4\n        /* \"#utility.yul\":21053:21070   */\n      add\n        /* \"#utility.yul\":21046:21093   */\n      mstore\n        /* \"#utility.yul\":21110:21241   */\n      tag_449\n        /* \"#utility.yul\":21236:21240   */\n      dup2\n        /* \"#utility.yul\":21110:21241   */\n      tag_215\n      jump\t// in\n    tag_449:\n        /* \"#utility.yul\":21102:21241   */\n      swap1\n      pop\n        /* \"#utility.yul\":20829:21248   */\n      swap2\n      swap1\n      pop\n      jump\t// out\n        /* \"#utility.yul\":21254:21434   */\n    tag_123:\n        /* \"#utility.yul\":21302:21379   */\n      0x4e487b7100000000000000000000000000000000000000000000000000000000\n        /* \"#utility.yul\":21299:21300   */\n      0x00\n        /* \"#utility.yul\":21292:21380   */\n      mstore\n        /* \"#utility.yul\":21399:21403   */\n      0x32\n        /* \"#utility.yul\":21396:21397   */\n      0x04\n        /* \"#utility.yul\":21389:21404   */\n      mstore\n        /* \"#utility.yul\":21423:21427   */\n      0x24\n        /* \"#utility.yul\":21420:21421   */\n      0x00\n        /* \"#utility.yul\":21413:21428   */\n      revert\n        /* \"#utility.yul\":21440:21619   */\n    tag_216:\n        /* \"#utility.yul\":21580:21611   */\n      0x75696e7420617272617920706172616d6574657220636f72726563742e000000\n        /* \"#utility.yul\":21576:21577   */\n      0x00\n        /* \"#utility.yul\":21568:21574   */\n      dup3\n        /* \"#utility.yul\":21564:21578   */\n      add\n        /* \"#utility.yul\":21557:21612   */\n      mstore\n        /* \"#utility.yul\":21440:21619   */\n      pop\n      jump\t// out\n        /* \"#utility.yul\":21625:21991   */\n    tag_217:\n        /* \"#utility.yul\":21767:21770   */\n      0x00\n        /* \"#utility.yul\":21788:21855   */\n      tag_453\n        /* \"#utility.yul\":21852:21854   */\n      0x1d\n        /* \"#utility.yul\":21847:21850   */\n      dup4\n        /* \"#utility.yul\":21788:21855   */\n      tag_161\n      jump\t// in\n    tag_453:\n        /* \"#utility.yul\":21781:21855   */\n      swap2\n      pop\n        /* \"#utility.yul\":21864:21957   */\n      tag_454\n        /* \"#utility.yul\":21953:21956   */\n      dup3\n        /* \"#utility.yul\":21864:21957   */\n      tag_216\n      jump\t// in\n    tag_454:\n        /* \"#utility.yul\":21982:21984   */\n      0x20\n        /* \"#utility.yul\":21977:21980   */\n      dup3\n        /* \"#utility.yul\":21973:21985   */\n      add\n        /* \"#utility.yul\":21966:21985   */\n      swap1\n      pop\n        /* \"#utility.yul\":21625:21991   */\n      swap2\n      swap1\n      pop\n      jump\t// out\n        /* \"#utility.yul\":21997:22416   */\n    tag_126:\n        /* \"#utility.yul\":22163:22167   */\n      0x00\n        /* \"#utility.yul\":22201:22203   */\n      0x20\n        /* \"#utility.yul\":22190:22199   */\n      dup3\n        /* \"#utility.yul\":22186:22204   */\n      add\n        /* \"#utility.yul\":22178:22204   */\n      swap1\n      pop\n        /* \"#utility.yul\":22250:22259   */\n      dup2\n        /* \"#utility.yul\":22244:22248   */\n      dup2\n        /* \"#utility.yul\":22240:22260   */\n      sub\n        /* \"#utility.yul\":22236:22237   */\n      0x00\n        /* \"#utility.yul\":22225:22234   */\n      dup4\n        /* \"#utility.yul\":22221:22238   */\n      add\n        /* \"#utility.yul\":22214:22261   */\n      mstore\n        /* \"#utility.yul\":22278:22409   */\n      tag_456\n        /* \"#utility.yul\":22404:22408   */\n      dup2\n        /* \"#utility.yul\":22278:22409   */\n      tag_217\n      jump\t// in\n    tag_456:\n        /* \"#utility.yul\":22270:22409   */\n      swap1\n      pop\n        /* \"#utility.yul\":21997:22416   */\n      swap2\n      swap1\n      pop\n      jump\t// out\n        /* \"#utility.yul\":22422:22598   */\n    tag_218:\n        /* \"#utility.yul\":22562:22590   */\n      0x6164647265737320706172616d6574657220636f72726563742e000000000000\n        /* \"#utility.yul\":22558:22559   */\n      0x00\n        /* \"#utility.yul\":22550:22556   */\n      dup3\n        /* \"#utility.yul\":22546:22560   */\n      add\n        /* \"#utility.yul\":22539:22591   */\n      mstore\n        /* \"#utility.yul\":22422:22598   */\n      pop\n      jump\t// out\n        /* \"#utility.yul\":22604:22970   */\n    tag_219:\n        /* \"#utility.yul\":22746:22749   */\n      0x00\n        /* \"#utility.yul\":22767:22834   */\n      tag_459\n        /* \"#utility.yul\":22831:22833   */\n      0x1a\n        /* \"#utility.yul\":22826:22829   */\n      dup4\n        /* \"#utility.yul\":22767:22834   */\n      tag_161\n      jump\t// in\n    tag_459:\n        /* \"#utility.yul\":22760:22834   */\n      swap2\n      pop\n        /* \"#utility.yul\":22843:22936   */\n      tag_460\n        /* \"#utility.yul\":22932:22935   */\n      dup3\n        /* \"#utility.yul\":22843:22936   */\n      tag_218\n      jump\t// in\n    tag_460:\n        /* \"#utility.yul\":22961:22963   */\n      0x20\n        /* \"#utility.yul\":22956:22959   */\n      dup3\n        /* \"#utility.yul\":22952:22964   */\n      add\n        /* \"#utility.yul\":22945:22964   */\n      swap1\n      pop\n        /* \"#utility.yul\":22604:22970   */\n      swap2\n      swap1\n      pop\n      jump\t// out\n        /* \"#utility.yul\":22976:23395   */\n    tag_133:\n        /* \"#utility.yul\":23142:23146   */\n      0x00\n        /* \"#utility.yul\":23180:23182   */\n      0x20\n        /* \"#utility.yul\":23169:23178   */\n      dup3\n        /* \"#utility.yul\":23165:23183   */\n      add\n        /* \"#utility.yul\":23157:23183   */\n      swap1\n      pop\n        /* \"#utility.yul\":23229:23238   */\n      dup2\n        /* \"#utility.yul\":23223:23227   */\n      dup2\n        /* \"#utility.yul\":23219:23239   */\n      sub\n        /* \"#utility.yul\":23215:23216   */\n      0x00\n        /* \"#utility.yul\":23204:23213   */\n      dup4\n        /* \"#utility.yul\":23200:23217   */\n      add\n        /* \"#utility.yul\":23193:23240   */\n      mstore\n        /* \"#utility.yul\":23257:23388   */\n      tag_462\n        /* \"#utility.yul\":23383:23387   */\n      dup2\n        /* \"#utility.yul\":23257:23388   */\n      tag_219\n      jump\t// in\n    tag_462:\n        /* \"#utility.yul\":23249:23388   */\n      swap1\n      pop\n        /* \"#utility.yul\":22976:23395   */\n      swap2\n      swap1\n      pop\n      jump\t// out\n        /* \"#utility.yul\":23401:23556   */\n    tag_220:\n        /* \"#utility.yul\":23541:23548   */\n      0x427269616e000000000000000000000000000000000000000000000000000000\n        /* \"#utility.yul\":23537:23538   */\n      0x00\n        /* \"#utility.yul\":23529:23535   */\n      dup3\n        /* \"#utility.yul\":23525:23539   */\n      add\n        /* \"#utility.yul\":23518:23549   */\n      mstore\n        /* \"#utility.yul\":23401:23556   */\n      pop\n      jump\t// out\n        /* \"#utility.yul\":23562:23962   */\n    tag_221:\n        /* \"#utility.yul\":23722:23725   */\n      0x00\n        /* \"#utility.yul\":23743:23827   */\n      tag_465\n        /* \"#utility.yul\":23825:23826   */\n      0x05\n        /* \"#utility.yul\":23820:23823   */\n      dup4\n        /* \"#utility.yul\":23743:23827   */\n      tag_194\n      jump\t// in\n    tag_465:\n        /* \"#utility.yul\":23736:23827   */\n      swap2\n      pop\n        /* \"#utility.yul\":23836:23929   */\n      tag_466\n        /* \"#utility.yul\":23925:23928   */\n      dup3\n        /* \"#utility.yul\":23836:23929   */\n      tag_220\n      jump\t// in\n    tag_466:\n        /* \"#utility.yul\":23954:23955   */\n      0x05\n        /* \"#utility.yul\":23949:23952   */\n      dup3\n        /* \"#utility.yul\":23945:23956   */\n      add\n        /* \"#utility.yul\":23938:23956   */\n      swap1\n      pop\n        /* \"#utility.yul\":23562:23962   */\n      swap2\n      swap1\n      pop\n      jump\t// out\n        /* \"#utility.yul\":23968:24349   */\n    tag_135:\n        /* \"#utility.yul\":24153:24156   */\n      0x00\n        /* \"#utility.yul\":24175:24323   */\n      tag_468\n        /* \"#utility.yul\":24319:24322   */\n      dup3\n        /* \"#utility.yul\":24175:24323   */\n      tag_221\n      jump\t// in\n    tag_468:\n        /* \"#utility.yul\":24168:24323   */\n      swap2\n      pop\n        /* \"#utility.yul\":24340:24343   */\n      dup2\n        /* \"#utility.yul\":24333:24343   */\n      swap1\n      pop\n        /* \"#utility.yul\":23968:24349   */\n      swap2\n      swap1\n      pop\n      jump\t// out\n        /* \"#utility.yul\":24379:24709   */\n    tag_222:\n        /* \"#utility.yul\":24495:24498   */\n      0x00\n        /* \"#utility.yul\":24516:24605   */\n      tag_470\n        /* \"#utility.yul\":24598:24604   */\n      dup4\n        /* \"#utility.yul\":24593:24596   */\n      dup6\n        /* \"#utility.yul\":24516:24605   */\n      tag_194\n      jump\t// in\n    tag_470:\n        /* \"#utility.yul\":24509:24605   */\n      swap4\n      pop\n        /* \"#utility.yul\":24615:24671   */\n      tag_471\n        /* \"#utility.yul\":24664:24670   */\n      dup4\n        /* \"#utility.yul\":24659:24662   */\n      dup6\n        /* \"#utility.yul\":24652:24657   */\n      dup5\n        /* \"#utility.yul\":24615:24671   */\n      tag_187\n      jump\t// in\n    tag_471:\n        /* \"#utility.yul\":24696:24702   */\n      dup3\n        /* \"#utility.yul\":24691:24694   */\n      dup5\n        /* \"#utility.yul\":24687:24703   */\n      add\n        /* \"#utility.yul\":24680:24703   */\n      swap1\n      pop\n        /* \"#utility.yul\":24379:24709   */\n      swap4\n      swap3\n      pop\n      pop\n      pop\n      jump\t// out\n        /* \"#utility.yul\":24715:25010   */\n    tag_137:\n        /* \"#utility.yul\":24857:24860   */\n      0x00\n        /* \"#utility.yul\":24879:24984   */\n      tag_473\n        /* \"#utility.yul\":24980:24983   */\n      dup3\n        /* \"#utility.yul\":24971:24977   */\n      dup5\n        /* \"#utility.yul\":24963:24969   */\n      dup7\n        /* \"#utility.yul\":24879:24984   */\n      tag_222\n      jump\t// in\n    tag_473:\n        /* \"#utility.yul\":24872:24984   */\n      swap2\n      pop\n        /* \"#utility.yul\":25001:25004   */\n      dup2\n        /* \"#utility.yul\":24994:25004   */\n      swap1\n      pop\n        /* \"#utility.yul\":24715:25010   */\n      swap4\n      swap3\n      pop\n      pop\n      pop\n      jump\t// out\n        /* \"#utility.yul\":25016:25191   */\n    tag_223:\n        /* \"#utility.yul\":25156:25183   */\n      0x737472696e6720706172616d6574657220636f72726563742e00000000000000\n        /* \"#utility.yul\":25152:25153   */\n      0x00\n        /* \"#utility.yul\":25144:25150   */\n      dup3\n        /* \"#utility.yul\":25140:25154   */\n      add\n        /* \"#utility.yul\":25133:25184   */\n      mstore\n        /* \"#utility.yul\":25016:25191   */\n      pop\n      jump\t// out\n        /* \"#utility.yul\":25197:25563   */\n    tag_224:\n        /* \"#utility.yul\":25339:25342   */\n      0x00\n        /* \"#utility.yul\":25360:25427   */\n      tag_476\n        /* \"#utility.yul\":25424:25426   */\n      0x19\n        /* \"#utility.yul\":25419:25422   */\n      dup4\n        /* \"#utility.yul\":25360:25427   */\n      tag_161\n      jump\t// in\n    tag_476:\n        /* \"#utility.yul\":25353:25427   */\n      swap2\n      pop\n        /* \"#utility.yul\":25436:25529   */\n      tag_477\n        /* \"#utility.yul\":25525:25528   */\n      dup3\n        /* \"#utility.yul\":25436:25529   */\n      tag_223\n      jump\t// in\n    tag_477:\n        /* \"#utility.yul\":25554:25556   */\n      0x20\n        /* \"#utility.yul\":25549:25552   */\n      dup3\n        /* \"#utility.yul\":25545:25557   */\n      add\n        /* \"#utility.yul\":25538:25557   */\n      swap1\n      pop\n        /* \"#utility.yul\":25197:25563   */\n      swap2\n      swap1\n      pop\n      jump\t// out\n        /* \"#utility.yul\":25569:25988   */\n    tag_140:\n        /* \"#utility.yul\":25735:25739   */\n      0x00\n        /* \"#utility.yul\":25773:25775   */\n      0x20\n        /* \"#utility.yul\":25762:25771   */\n      dup3\n        /* \"#utility.yul\":25758:25776   */\n      add\n        /* \"#utility.yul\":25750:25776   */\n      swap1\n      pop\n        /* \"#utility.yul\":25822:25831   */\n      dup2\n        /* \"#utility.yul\":25816:25820   */\n      dup2\n        /* \"#utility.yul\":25812:25832   */\n      sub\n        /* \"#utility.yul\":25808:25809   */\n      0x00\n        /* \"#utility.yul\":25797:25806   */\n      dup4\n        /* \"#utility.yul\":25793:25810   */\n      add\n        /* \"#utility.yul\":25786:25833   */\n      mstore\n        /* \"#utility.yul\":25850:25981   */\n      tag_479\n        /* \"#utility.yul\":25976:25980   */\n      dup2\n        /* \"#utility.yul\":25850:25981   */\n      tag_224\n      jump\t// in\n    tag_479:\n        /* \"#utility.yul\":25842:25981   */\n      swap1\n      pop\n        /* \"#utility.yul\":25569:25988   */\n      swap2\n      swap1\n      pop\n      jump\t// out\n        /* \"#utility.yul\":25994:26645   */\n    tag_143:\n        /* \"#utility.yul\":26222:26226   */\n      0x00\n        /* \"#utility.yul\":26260:26262   */\n      0x60\n        /* \"#utility.yul\":26249:26258   */\n      dup3\n        /* \"#utility.yul\":26245:26263   */\n      add\n        /* \"#utility.yul\":26237:26263   */\n      swap1\n      pop\n        /* \"#utility.yul\":26309:26318   */\n      dup2\n        /* \"#utility.yul\":26303:26307   */\n      dup2\n        /* \"#utility.yul\":26299:26319   */\n      sub\n        /* \"#utility.yul\":26295:26296   */\n      0x00\n        /* \"#utility.yul\":26284:26293   */\n      dup4\n        /* \"#utility.yul\":26280:26297   */\n      add\n        /* \"#utility.yul\":26273:26320   */\n      mstore\n        /* \"#utility.yul\":26337:26468   */\n      tag_481\n        /* \"#utility.yul\":26463:26467   */\n      dup2\n        /* \"#utility.yul\":26337:26468   */\n      tag_203\n      jump\t// in\n    tag_481:\n        /* \"#utility.yul\":26329:26468   */\n      swap1\n      pop\n        /* \"#utility.yul\":26478:26556   */\n      tag_482\n        /* \"#utility.yul\":26552:26554   */\n      0x20\n        /* \"#utility.yul\":26541:26550   */\n      dup4\n        /* \"#utility.yul\":26537:26555   */\n      add\n        /* \"#utility.yul\":26528:26534   */\n      dup6\n        /* \"#utility.yul\":26478:26556   */\n      tag_208\n      jump\t// in\n    tag_482:\n        /* \"#utility.yul\":26566:26638   */\n      tag_483\n        /* \"#utility.yul\":26634:26636   */\n      0x40\n        /* \"#utility.yul\":26623:26632   */\n      dup4\n        /* \"#utility.yul\":26619:26637   */\n      add\n        /* \"#utility.yul\":26610:26616   */\n      dup5\n        /* \"#utility.yul\":26566:26638   */\n      tag_169\n      jump\t// in\n    tag_483:\n        /* \"#utility.yul\":25994:26645   */\n      swap4\n      swap3\n      pop\n      pop\n      pop\n      jump\t// out\n        /* \"#utility.yul\":26651:26885   */\n    tag_146:\n        /* \"#utility.yul\":26750:26754   */\n      0x00\n        /* \"#utility.yul\":26788:26790   */\n      0x20\n        /* \"#utility.yul\":26777:26786   */\n      dup3\n        /* \"#utility.yul\":26773:26791   */\n      add\n        /* \"#utility.yul\":26765:26791   */\n      swap1\n      pop\n        /* \"#utility.yul\":26801:26878   */\n      tag_485\n        /* \"#utility.yul\":26875:26876   */\n      0x00\n        /* \"#utility.yul\":26864:26873   */\n      dup4\n        /* \"#utility.yul\":26860:26877   */\n      add\n        /* \"#utility.yul\":26851:26857   */\n      dup5\n        /* \"#utility.yul\":26801:26878   */\n      tag_208\n      jump\t// in\n    tag_485:\n        /* \"#utility.yul\":26651:26885   */\n      swap3\n      swap2\n      pop\n      pop\n      jump\t// out\n        /* \"#utility.yul\":26891:27113   */\n    tag_149:\n        /* \"#utility.yul\":26984:26988   */\n      0x00\n        /* \"#utility.yul\":27022:27024   */\n      0x20\n        /* \"#utility.yul\":27011:27020   */\n      dup3\n        /* \"#utility.yul\":27007:27025   */\n      add\n        /* \"#utility.yul\":26999:27025   */\n      swap1\n      pop\n        /* \"#utility.yul\":27035:27106   */\n      tag_487\n        /* \"#utility.yul\":27103:27104   */\n      0x00\n        /* \"#utility.yul\":27092:27101   */\n      dup4\n        /* \"#utility.yul\":27088:27105   */\n      add\n        /* \"#utility.yul\":27079:27085   */\n      dup5\n        /* \"#utility.yul\":27035:27106   */\n      tag_169\n      jump\t// in\n    tag_487:\n        /* \"#utility.yul\":26891:27113   */\n      swap3\n      swap2\n      pop\n      pop\n      jump\t// out\n        /* \"#utility.yul\":27119:27233   */\n    tag_225:\n        /* \"#utility.yul\":27194:27200   */\n      0x00\n        /* \"#utility.yul\":27222:27226   */\n      0x03\n        /* \"#utility.yul\":27212:27226   */\n      swap1\n      pop\n        /* \"#utility.yul\":27119:27233   */\n      swap2\n      swap1\n      pop\n      jump\t// out\n        /* \"#utility.yul\":27239:27392   */\n    tag_226:\n        /* \"#utility.yul\":27346:27357   */\n      0x00\n        /* \"#utility.yul\":27383:27386   */\n      dup2\n        /* \"#utility.yul\":27368:27386   */\n      swap1\n      pop\n        /* \"#utility.yul\":27239:27392   */\n      swap3\n      swap2\n      pop\n      pop\n      jump\t// out\n        /* \"#utility.yul\":27398:27506   */\n    tag_227:\n        /* \"#utility.yul\":27473:27477   */\n      0x00\n        /* \"#utility.yul\":27496:27499   */\n      dup2\n        /* \"#utility.yul\":27488:27499   */\n      swap1\n      pop\n        /* \"#utility.yul\":27398:27506   */\n      swap2\n      swap1\n      pop\n      jump\t// out\n        /* \"#utility.yul\":27512:27671   */\n    tag_228:\n        /* \"#utility.yul\":27586:27597   */\n      0x00\n        /* \"#utility.yul\":27620:27626   */\n      dup3\n        /* \"#utility.yul\":27615:27618   */\n      dup3\n        /* \"#utility.yul\":27608:27627   */\n      mstore\n        /* \"#utility.yul\":27660:27664   */\n      0x20\n        /* \"#utility.yul\":27655:27658   */\n      dup3\n        /* \"#utility.yul\":27651:27665   */\n      add\n        /* \"#utility.yul\":27636:27665   */\n      swap1\n      pop\n        /* \"#utility.yul\":27512:27671   */\n      swap3\n      swap2\n      pop\n      pop\n      jump\t// out\n        /* \"#utility.yul\":27677:28034   */\n    tag_229:\n        /* \"#utility.yul\":27755:27758   */\n      0x00\n        /* \"#utility.yul\":27783:27822   */\n      tag_493\n        /* \"#utility.yul\":27816:27821   */\n      dup3\n        /* \"#utility.yul\":27783:27822   */\n      tag_160\n      jump\t// in\n    tag_493:\n        /* \"#utility.yul\":27838:27899   */\n      tag_494\n        /* \"#utility.yul\":27892:27898   */\n      dup2\n        /* \"#utility.yul\":27887:27890   */\n      dup6\n        /* \"#utility.yul\":27838:27899   */\n      tag_228\n      jump\t// in\n    tag_494:\n        /* \"#utility.yul\":27831:27899   */\n      swap4\n      pop\n        /* \"#utility.yul\":27908:27973   */\n      tag_495\n        /* \"#utility.yul\":27966:27972   */\n      dup2\n        /* \"#utility.yul\":27961:27964   */\n      dup6\n        /* \"#utility.yul\":27954:27958   */\n      0x20\n        /* \"#utility.yul\":27947:27952   */\n      dup7\n        /* \"#utility.yul\":27943:27959   */\n      add\n        /* \"#utility.yul\":27908:27973   */\n      tag_162\n      jump\t// in\n    tag_495:\n        /* \"#utility.yul\":27998:28027   */\n      tag_496\n        /* \"#utility.yul\":28020:28026   */\n      dup2\n        /* \"#utility.yul\":27998:28027   */\n      tag_163\n      jump\t// in\n    tag_496:\n        /* \"#utility.yul\":27993:27996   */\n      dup5\n        /* \"#utility.yul\":27989:28028   */\n      add\n        /* \"#utility.yul\":27982:28028   */\n      swap2\n      pop\n        /* \"#utility.yul\":27759:28034   */\n      pop\n        /* \"#utility.yul\":27677:28034   */\n      swap3\n      swap2\n      pop\n      pop\n      jump\t// out\n        /* \"#utility.yul\":28040:28236   */\n    tag_230:\n        /* \"#utility.yul\":28129:28139   */\n      0x00\n        /* \"#utility.yul\":28164:28230   */\n      tag_498\n        /* \"#utility.yul\":28226:28229   */\n      dup4\n        /* \"#utility.yul\":28218:28224   */\n      dup4\n        /* \"#utility.yul\":28164:28230   */\n      tag_229\n      jump\t// in\n    tag_498:\n        /* \"#utility.yul\":28150:28230   */\n      swap1\n      pop\n        /* \"#utility.yul\":28040:28236   */\n      swap3\n      swap2\n      pop\n      pop\n      jump\t// out\n        /* \"#utility.yul\":28242:28363   */\n    tag_231:\n        /* \"#utility.yul\":28320:28324   */\n      0x00\n        /* \"#utility.yul\":28352:28356   */\n      0x20\n        /* \"#utility.yul\":28347:28350   */\n      dup3\n        /* \"#utility.yul\":28343:28357   */\n      add\n        /* \"#utility.yul\":28335:28357   */\n      swap1\n      pop\n        /* \"#utility.yul\":28242:28363   */\n      swap2\n      swap1\n      pop\n      jump\t// out\n        /* \"#utility.yul\":28399:29378   */\n    tag_232:\n        /* \"#utility.yul\":28534:28537   */\n      0x00\n        /* \"#utility.yul\":28563:28625   */\n      tag_501\n        /* \"#utility.yul\":28619:28624   */\n      dup3\n        /* \"#utility.yul\":28563:28625   */\n      tag_225\n      jump\t// in\n    tag_501:\n        /* \"#utility.yul\":28641:28735   */\n      tag_502\n        /* \"#utility.yul\":28728:28734   */\n      dup2\n        /* \"#utility.yul\":28723:28726   */\n      dup6\n        /* \"#utility.yul\":28641:28735   */\n      tag_226\n      jump\t// in\n    tag_502:\n        /* \"#utility.yul\":28634:28735   */\n      swap4\n      pop\n        /* \"#utility.yul\":28761:28764   */\n      dup4\n        /* \"#utility.yul\":28806:28810   */\n      0x20\n        /* \"#utility.yul\":28798:28804   */\n      dup3\n        /* \"#utility.yul\":28794:28811   */\n      mul\n        /* \"#utility.yul\":28789:28792   */\n      dup6\n        /* \"#utility.yul\":28785:28812   */\n      add\n        /* \"#utility.yul\":28836:28900   */\n      tag_503\n        /* \"#utility.yul\":28894:28899   */\n      dup6\n        /* \"#utility.yul\":28836:28900   */\n      tag_227\n      jump\t// in\n    tag_503:\n        /* \"#utility.yul\":28923:28930   */\n      dup1\n        /* \"#utility.yul\":28954:28955   */\n      0x00\n        /* \"#utility.yul\":28939:29333   */\n    tag_504:\n        /* \"#utility.yul\":28964:28970   */\n      dup6\n        /* \"#utility.yul\":28961:28962   */\n      dup2\n        /* \"#utility.yul\":28958:28971   */\n      lt\n        /* \"#utility.yul\":28939:29333   */\n      iszero\n      tag_506\n      jumpi\n        /* \"#utility.yul\":29035:29044   */\n      dup5\n        /* \"#utility.yul\":29029:29033   */\n      dup5\n        /* \"#utility.yul\":29025:29045   */\n      sub\n        /* \"#utility.yul\":29020:29023   */\n      dup10\n        /* \"#utility.yul\":29013:29046   */\n      mstore\n        /* \"#utility.yul\":29086:29092   */\n      dup2\n        /* \"#utility.yul\":29080:29093   */\n      mload\n        /* \"#utility.yul\":29114:29198   */\n      tag_507\n        /* \"#utility.yul\":29193:29197   */\n      dup6\n        /* \"#utility.yul\":29178:29191   */\n      dup3\n        /* \"#utility.yul\":29114:29198   */\n      tag_230\n      jump\t// in\n    tag_507:\n        /* \"#utility.yul\":29106:29198   */\n      swap5\n      pop\n        /* \"#utility.yul\":29221:29289   */\n      tag_508\n        /* \"#utility.yul\":29282:29288   */\n      dup4\n        /* \"#utility.yul\":29221:29289   */\n      tag_231\n      jump\t// in\n    tag_508:\n        /* \"#utility.yul\":29211:29289   */\n      swap3\n      pop\n        /* \"#utility.yul\":29318:29322   */\n      0x20\n        /* \"#utility.yul\":29313:29316   */\n      dup11\n        /* \"#utility.yul\":29309:29323   */\n      add\n        /* \"#utility.yul\":29302:29323   */\n      swap10\n      pop\n        /* \"#utility.yul\":28999:29333   */\n      pop\n        /* \"#utility.yul\":28986:28987   */\n      0x01\n        /* \"#utility.yul\":28983:28984   */\n      dup2\n        /* \"#utility.yul\":28979:28988   */\n      add\n        /* \"#utility.yul\":28974:28988   */\n      swap1\n      pop\n        /* \"#utility.yul\":28939:29333   */\n      jump(tag_504)\n    tag_506:\n        /* \"#utility.yul\":28943:28957   */\n      pop\n        /* \"#utility.yul\":29349:29353   */\n      dup3\n        /* \"#utility.yul\":29342:29353   */\n      swap8\n      pop\n        /* \"#utility.yul\":29369:29372   */\n      dup8\n        /* \"#utility.yul\":29362:29372   */\n      swap6\n      pop\n        /* \"#utility.yul\":28539:29378   */\n      pop\n      pop\n      pop\n      pop\n      pop\n        /* \"#utility.yul\":28399:29378   */\n      swap3\n      swap2\n      pop\n      pop\n      jump\t// out\n        /* \"#utility.yul\":29384:29789   */\n    tag_152:\n        /* \"#utility.yul\":29543:29547   */\n      0x00\n        /* \"#utility.yul\":29581:29583   */\n      0x20\n        /* \"#utility.yul\":29570:29579   */\n      dup3\n        /* \"#utility.yul\":29566:29584   */\n      add\n        /* \"#utility.yul\":29558:29584   */\n      swap1\n      pop\n        /* \"#utility.yul\":29630:29639   */\n      dup2\n        /* \"#utility.yul\":29624:29628   */\n      dup2\n        /* \"#utility.yul\":29620:29640   */\n      sub\n        /* \"#utility.yul\":29616:29617   */\n      0x00\n        /* \"#utility.yul\":29605:29614   */\n      dup4\n        /* \"#utility.yul\":29601:29618   */\n      add\n        /* \"#utility.yul\":29594:29641   */\n      mstore\n        /* \"#utility.yul\":29658:29782   */\n      tag_510\n        /* \"#utility.yul\":29777:29781   */\n      dup2\n        /* \"#utility.yul\":29768:29774   */\n      dup5\n        /* \"#utility.yul\":29658:29782   */\n      tag_232\n      jump\t// in\n    tag_510:\n        /* \"#utility.yul\":29650:29782   */\n      swap1\n      pop\n        /* \"#utility.yul\":29384:29789   */\n      swap3\n      swap2\n      pop\n      pop\n      jump\t// out\n\n    auxdata: 0xa264697066735822122078c9117c674c8bd4674187eb713031c4c7ee3798c3235d61db1ba8343e3c0e3a64736f6c63430008150033\n}\n",
				"bytecode": {
					"linkReferences": {},
					"object": "608060405234801561000f575f80fd5b506118e18061001d5f395ff3fe6080604052600436106100e0575f3560e01c80637e3b06fb1161007e578063bd14598f11610058578063bd14598f14610307578063c1ed13ef14610331578063cf57b6eb1461035b578063d264610d14610385576100e1565b80637e3b06fb146102655780637faec262146102a1578063ae53a4a5146102cb576100e1565b80634e10efba116100ba5780634e10efba146101875780635fc6ac0e146101c35780636458817c146101ff578063733e2f061461023b576100e1565b8063065fdac2146100e357806325adff1c1461012157806344d1587c1461015d576100e1565b5b005b3480156100ee575f80fd5b5061010960048036038101906101049190610b69565b6103af565b60405161011893929190610c95565b60405180910390f35b34801561012c575f80fd5b5061014760048036038101906101429190610d25565b6103d5565b6040516101549190610db5565b60405180910390f35b348015610168575f80fd5b50610171610437565b60405161017e9190610db5565b60405180910390f35b348015610192575f80fd5b506101ad60048036038101906101a89190610eb4565b61045c565b6040516101ba9190610db5565b60405180910390f35b3480156101ce575f80fd5b506101e960048036038101906101e49190610d25565b610502565b6040516101f69190610db5565b60405180910390f35b34801561020a575f80fd5b506102256004803603810190610220919061107f565b610584565b6040516102329190610db5565b60405180910390f35b348015610246575f80fd5b5061024f610606565b60405161025c9190610db5565b60405180910390f35b348015610270575f80fd5b5061028b60048036038101906102869190610d25565b61062b565b6040516102989190610db5565b60405180910390f35b3480156102ac575f80fd5b506102b56106c5565b6040516102c29190610db5565b60405180910390f35b3480156102d6575f80fd5b506102f160048036038101906102ec9190610eb4565b6106f0565b6040516102fe91906110d5565b60405180910390f35b348015610312575f80fd5b5061031b610908565b6040516103289190610db5565b60405180910390f35b34801561033c575f80fd5b50610345610946565b6040516103529190610db5565b60405180910390f35b348015610366575f80fd5b5061036f61096e565b60405161037c9190610db5565b60405180910390f35b348015610390575f80fd5b506103996109a9565b6040516103a69190610db5565b60405180910390f35b60605f8084848101906103c29190611129565b8093508194508295505050509250925092565b606082826040516024016103ea929190611195565b60405160208183030381529060405263a9059cbb60e01b6020820180517bffffffffffffffffffffffffffffffffffffffffffffffffffffffff8381831617835250505050905092915050565b606060405160200161044890611210565b604051602081830303815290604052905090565b6060868686868686604051602401610479969594939291906112c8565b6040516020818303038152906040527fae53a4a5000000000000000000000000000000000000000000000000000000007bffffffffffffffffffffffffffffffffffffffffffffffffffffffff19166020820180517bffffffffffffffffffffffffffffffffffffffffffffffffffffffff838183161783525050505090509695505050505050565b606063a9059cbb60e01b838360405160240161051f929190611195565b604051602081830303815290604052907bffffffffffffffffffffffffffffffffffffffffffffffffffffffff19166020820180517bffffffffffffffffffffffffffffffffffffffffffffffffffffffff8381831617835250505050905092915050565b606081604051602401604051602081830303815290604052906040516105aa919061134d565b60405180910390207bffffffffffffffffffffffffffffffffffffffffffffffffffffffff19166020820180517bffffffffffffffffffffffffffffffffffffffffffffffffffffffff83818316178352505050509050919050565b606060405160200161061790611385565b604051602081830303815290604052905090565b60608282604051602401610640929190611195565b6040516020818303038152906040527fa9059cbb000000000000000000000000000000000000000000000000000000007bffffffffffffffffffffffffffffffffffffffffffffffffffffffff19166020820180517bffffffffffffffffffffffffffffffffffffffffffffffffffffffff8381831617835250505050905092915050565b6060600160636040516020016106dc929190611474565b604051602081830303815290604052905090565b5f86610731576040517f08c379a00000000000000000000000000000000000000000000000000000000081526004016107289061150b565b60405180910390fd5b600986865f81811061074657610745611529565b5b905060200201351461078d576040517f08c379a0000000000000000000000000000000000000000000000000000000008152600401610784906115a0565b60405180910390fd5b6012868660018181106107a3576107a2611529565b5b90506020020135146107ea576040517f08c379a00000000000000000000000000000000000000000000000000000000081526004016107e1906115a0565b60405180910390fd5b732ff1f4e5d08a822743ec6b342c521a0a421456cb73ffffffffffffffffffffffffffffffffffffffff168473ffffffffffffffffffffffffffffffffffffffff161461086c576040517f08c379a000000000000000000000000000000000000000000000000000000000815260040161086390611608565b60405180910390fd5b60405160200161087b90611670565b6040516020818303038152906040528051906020012083836040516020016108a49291906116a8565b60405160208183030381529060405280519060200120146108fa576040517f08c379a00000000000000000000000000000000000000000000000000000000081526004016108f19061170a565b60405180910390fd5b600190509695505050505050565b60606001732ff1f4e5d08a822743ec6b342c521a0a421456cb604051602001610932929190611728565b604051602081830303815290604052905090565b6060600160405160200161095a9190611762565b604051602081830303815290604052905090565b6060732ff1f4e5d08a822743ec6b342c521a0a421456cb604051602001610995919061177b565b604051602081830303815290604052905090565b606060405180606001604052806040518060400160405280600281526020017f313100000000000000000000000000000000000000000000000000000000000081525081526020016040518060400160405280600181526020017f320000000000000000000000000000000000000000000000000000000000000081525081526020016040518060400160405280600181526020017f3300000000000000000000000000000000000000000000000000000000000000815250815250604051602401610a75919061188b565b6040516020818303038152906040527f7fa990b9000000000000000000000000000000000000000000000000000000007bffffffffffffffffffffffffffffffffffffffffffffffffffffffff19166020820180517bffffffffffffffffffffffffffffffffffffffffffffffffffffffff8381831617835250505050905090565b5f604051905090565b5f80fd5b5f80fd5b5f80fd5b5f80fd5b5f80fd5b5f8083601f840112610b2957610b28610b08565b5b8235905067ffffffffffffffff811115610b4657610b45610b0c565b5b602083019150836001820283011115610b6257610b61610b10565b5b9250929050565b5f8060208385031215610b7f57610b7e610b00565b5b5f83013567ffffffffffffffff811115610b9c57610b9b610b04565b5b610ba885828601610b14565b92509250509250929050565b5f81519050919050565b5f82825260208201905092915050565b5f5b83811015610beb578082015181840152602081019050610bd0565b5f8484015250505050565b5f601f19601f8301169050919050565b5f610c1082610bb4565b610c1a8185610bbe565b9350610c2a818560208601610bce565b610c3381610bf6565b840191505092915050565b5f819050919050565b610c5081610c3e565b82525050565b5f73ffffffffffffffffffffffffffffffffffffffff82169050919050565b5f610c7f82610c56565b9050919050565b610c8f81610c75565b82525050565b5f6060820190508181035f830152610cad8186610c06565b9050610cbc6020830185610c47565b610cc96040830184610c86565b949350505050565b610cda81610c75565b8114610ce4575f80fd5b50565b5f81359050610cf581610cd1565b92915050565b610d0481610c3e565b8114610d0e575f80fd5b50565b5f81359050610d1f81610cfb565b92915050565b5f8060408385031215610d3b57610d3a610b00565b5b5f610d4885828601610ce7565b9250506020610d5985828601610d11565b9150509250929050565b5f81519050919050565b5f82825260208201905092915050565b5f610d8782610d63565b610d918185610d6d565b9350610da1818560208601610bce565b610daa81610bf6565b840191505092915050565b5f6020820190508181035f830152610dcd8184610d7d565b905092915050565b5f8115159050919050565b610de981610dd5565b8114610df3575f80fd5b50565b5f81359050610e0481610de0565b92915050565b5f8083601f840112610e1f57610e1e610b08565b5b8235905067ffffffffffffffff811115610e3c57610e3b610b0c565b5b602083019150836020820283011115610e5857610e57610b10565b5b9250929050565b5f8083601f840112610e7457610e73610b08565b5b8235905067ffffffffffffffff811115610e9157610e90610b0c565b5b602083019150836001820283011115610ead57610eac610b10565b5b9250929050565b5f805f805f8060808789031215610ece57610ecd610b00565b5b5f610edb89828a01610df6565b965050602087013567ffffffffffffffff811115610efc57610efb610b04565b5b610f0889828a01610e0a565b95509550506040610f1b89828a01610ce7565b935050606087013567ffffffffffffffff811115610f3c57610f3b610b04565b5b610f4889828a01610e5f565b92509250509295509295509295565b5f80fd5b7f4e487b71000000000000000000000000000000000000000000000000000000005f52604160045260245ffd5b610f9182610bf6565b810181811067ffffffffffffffff82111715610fb057610faf610f5b565b5b80604052505050565b5f610fc2610af7565b9050610fce8282610f88565b919050565b5f67ffffffffffffffff821115610fed57610fec610f5b565b5b610ff682610bf6565b9050602081019050919050565b828183375f83830152505050565b5f61102361101e84610fd3565b610fb9565b90508281526020810184848401111561103f5761103e610f57565b5b61104a848285611003565b509392505050565b5f82601f83011261106657611065610b08565b5b8135611076848260208601611011565b91505092915050565b5f6020828403121561109457611093610b00565b5b5f82013567ffffffffffffffff8111156110b1576110b0610b04565b5b6110bd84828501611052565b91505092915050565b6110cf81610dd5565b82525050565b5f6020820190506110e85f8301846110c6565b92915050565b5f6110f882610c56565b9050919050565b611108816110ee565b8114611112575f80fd5b50565b5f81359050611123816110ff565b92915050565b5f805f606084860312156111405761113f610b00565b5b5f84013567ffffffffffffffff81111561115d5761115c610b04565b5b61116986828701611052565b935050602061117a86828701610d11565b925050604061118b86828701611115565b9150509250925092565b5f6040820190506111a85f830185610c86565b6111b56020830184610c47565b9392505050565b5f81905092915050565b7f617070776f726b730000000000000000000000000000000000000000000000005f82015250565b5f6111fa6008836111bc565b9150611205826111c6565b600882019050919050565b5f61121a826111ee565b9150819050919050565b5f82825260208201905092915050565b5f80fd5b82818337505050565b5f61124c8385611224565b93507f07ffffffffffffffffffffffffffffffffffffffffffffffffffffffffffffff83111561127f5761127e611234565b5b602083029250611290838584611238565b82840190509392505050565b5f6112a78385610bbe565b93506112b4838584611003565b6112bd83610bf6565b840190509392505050565b5f6080820190506112db5f8301896110c6565b81810360208301526112ee818789611241565b90506112fd6040830186610c86565b818103606083015261131081848661129c565b9050979650505050505050565b5f61132782610bb4565b61133181856111bc565b9350611341818560208601610bce565b80840191505092915050565b5f611358828461131d565b915081905092915050565b5f61136f600883610bbe565b915061137a826111c6565b602082019050919050565b5f6020820190508181035f83015261139c81611363565b9050919050565b5f819050919050565b5f60ff82169050919050565b5f819050919050565b5f6113db6113d66113d1846113a3565b6113b8565b6113ac565b9050919050565b6113eb816113c1565b82525050565b5f819050919050565b5f61141461140f61140a846113f1565b6113b8565b6113ac565b9050919050565b611424816113fa565b82525050565b7f6a696d00000000000000000000000000000000000000000000000000000000005f82015250565b5f61145e600383610bbe565b91506114698261142a565b602082019050919050565b5f6080820190508181035f83015261148b81611363565b905061149a60208301856113e2565b6114a7604083018461141b565b81810360608301526114b881611452565b90509392505050565b7f626f6f6c20706172616d6574657220636f72726563742e0000000000000000005f82015250565b5f6114f5601783610bbe565b9150611500826114c1565b602082019050919050565b5f6020820190508181035f830152611522816114e9565b9050919050565b7f4e487b71000000000000000000000000000000000000000000000000000000005f52603260045260245ffd5b7f75696e7420617272617920706172616d6574657220636f72726563742e0000005f82015250565b5f61158a601d83610bbe565b915061159582611556565b602082019050919050565b5f6020820190508181035f8301526115b78161157e565b9050919050565b7f6164647265737320706172616d6574657220636f72726563742e0000000000005f82015250565b5f6115f2601a83610bbe565b91506115fd826115be565b602082019050919050565b5f6020820190508181035f83015261161f816115e6565b9050919050565b7f427269616e0000000000000000000000000000000000000000000000000000005f82015250565b5f61165a6005836111bc565b915061166582611626565b600582019050919050565b5f61167a8261164e565b9150819050919050565b5f61168f83856111bc565b935061169c838584611003565b82840190509392505050565b5f6116b4828486611684565b91508190509392505050565b7f737472696e6720706172616d6574657220636f72726563742e000000000000005f82015250565b5f6116f4601983610bbe565b91506116ff826116c0565b602082019050919050565b5f6020820190508181035f830152611721816116e8565b9050919050565b5f6060820190508181035f83015261173f81611363565b905061174e60208301856113e2565b61175b6040830184610c86565b9392505050565b5f6020820190506117755f8301846113e2565b92915050565b5f60208201905061178e5f830184610c86565b92915050565b5f60039050919050565b5f81905092915050565b5f819050919050565b5f82825260208201905092915050565b5f6117cb82610bb4565b6117d581856117b1565b93506117e5818560208601610bce565b6117ee81610bf6565b840191505092915050565b5f61180483836117c1565b905092915050565b5f602082019050919050565b5f61182282611794565b61182c818561179e565b93508360208202850161183e856117a8565b805f5b85811015611879578484038952815161185a85826117f9565b94506118658361180c565b925060208a01995050600181019050611841565b50829750879550505050505092915050565b5f6020820190508181035f8301526118a38184611818565b90509291505056fea264697066735822122078c9117c674c8bd4674187eb713031c4c7ee3798c3235d61db1ba8343e3c0e3a64736f6c63430008150033",
					"opcodes": "PUSH1 0x80 PUSH1 0x40 MSTORE CALLVALUE DUP1 ISZERO PUSH2 0xF JUMPI PUSH0 DUP1 REVERT JUMPDEST POP PUSH2 0x18E1 DUP1 PUSH2 0x1D PUSH0 CODECOPY PUSH0 RETURN INVALID PUSH1 0x80 PUSH1 0x40 MSTORE PUSH1 0x4 CALLDATASIZE LT PUSH2 0xE0 JUMPI PUSH0 CALLDATALOAD PUSH1 0xE0 SHR DUP1 PUSH4 0x7E3B06FB GT PUSH2 0x7E JUMPI DUP1 PUSH4 0xBD14598F GT PUSH2 0x58 JUMPI DUP1 PUSH4 0xBD14598F EQ PUSH2 0x307 JUMPI DUP1 PUSH4 0xC1ED13EF EQ PUSH2 0x331 JUMPI DUP1 PUSH4 0xCF57B6EB EQ PUSH2 0x35B JUMPI DUP1 PUSH4 0xD264610D EQ PUSH2 0x385 JUMPI PUSH2 0xE1 JUMP JUMPDEST DUP1 PUSH4 0x7E3B06FB EQ PUSH2 0x265 JUMPI DUP1 PUSH4 0x7FAEC262 EQ PUSH2 0x2A1 JUMPI DUP1 PUSH4 0xAE53A4A5 EQ PUSH2 0x2CB JUMPI PUSH2 0xE1 JUMP JUMPDEST DUP1 PUSH4 0x4E10EFBA GT PUSH2 0xBA JUMPI DUP1 PUSH4 0x4E10EFBA EQ PUSH2 0x187 JUMPI DUP1 PUSH4 0x5FC6AC0E EQ PUSH2 0x1C3 JUMPI DUP1 PUSH4 0x6458817C EQ PUSH2 0x1FF JUMPI DUP1 PUSH4 0x733E2F06 EQ PUSH2 0x23B JUMPI PUSH2 0xE1 JUMP JUMPDEST DUP1 PUSH4 0x65FDAC2 EQ PUSH2 0xE3 JUMPI DUP1 PUSH4 0x25ADFF1C EQ PUSH2 0x121 JUMPI DUP1 PUSH4 0x44D1587C EQ PUSH2 0x15D JUMPI PUSH2 0xE1 JUMP JUMPDEST JUMPDEST STOP JUMPDEST CALLVALUE DUP1 ISZERO PUSH2 0xEE JUMPI PUSH0 DUP1 REVERT JUMPDEST POP PUSH2 0x109 PUSH1 0x4 DUP1 CALLDATASIZE SUB DUP2 ADD SWAP1 PUSH2 0x104 SWAP2 SWAP1 PUSH2 0xB69 JUMP JUMPDEST PUSH2 0x3AF JUMP JUMPDEST PUSH1 0x40 MLOAD PUSH2 0x118 SWAP4 SWAP3 SWAP2 SWAP1 PUSH2 0xC95 JUMP JUMPDEST PUSH1 0x40 MLOAD DUP1 SWAP2 SUB SWAP1 RETURN JUMPDEST CALLVALUE DUP1 ISZERO PUSH2 0x12C JUMPI PUSH0 DUP1 REVERT JUMPDEST POP PUSH2 0x147 PUSH1 0x4 DUP1 CALLDATASIZE SUB DUP2 ADD SWAP1 PUSH2 0x142 SWAP2 SWAP1 PUSH2 0xD25 JUMP JUMPDEST PUSH2 0x3D5 JUMP JUMPDEST PUSH1 0x40 MLOAD PUSH2 0x154 SWAP2 SWAP1 PUSH2 0xDB5 JUMP JUMPDEST PUSH1 0x40 MLOAD DUP1 SWAP2 SUB SWAP1 RETURN JUMPDEST CALLVALUE DUP1 ISZERO PUSH2 0x168 JUMPI PUSH0 DUP1 REVERT JUMPDEST POP PUSH2 0x171 PUSH2 0x437 JUMP JUMPDEST PUSH1 0x40 MLOAD PUSH2 0x17E SWAP2 SWAP1 PUSH2 0xDB5 JUMP JUMPDEST PUSH1 0x40 MLOAD DUP1 SWAP2 SUB SWAP1 RETURN JUMPDEST CALLVALUE DUP1 ISZERO PUSH2 0x192 JUMPI PUSH0 DUP1 REVERT JUMPDEST POP PUSH2 0x1AD PUSH1 0x4 DUP1 CALLDATASIZE SUB DUP2 ADD SWAP1 PUSH2 0x1A8 SWAP2 SWAP1 PUSH2 0xEB4 JUMP JUMPDEST PUSH2 0x45C JUMP JUMPDEST PUSH1 0x40 MLOAD PUSH2 0x1BA SWAP2 SWAP1 PUSH2 0xDB5 JUMP JUMPDEST PUSH1 0x40 MLOAD DUP1 SWAP2 SUB SWAP1 RETURN JUMPDEST CALLVALUE DUP1 ISZERO PUSH2 0x1CE JUMPI PUSH0 DUP1 REVERT JUMPDEST POP PUSH2 0x1E9 PUSH1 0x4 DUP1 CALLDATASIZE SUB DUP2 ADD SWAP1 PUSH2 0x1E4 SWAP2 SWAP1 PUSH2 0xD25 JUMP JUMPDEST PUSH2 0x502 JUMP JUMPDEST PUSH1 0x40 MLOAD PUSH2 0x1F6 SWAP2 SWAP1 PUSH2 0xDB5 JUMP JUMPDEST PUSH1 0x40 MLOAD DUP1 SWAP2 SUB SWAP1 RETURN JUMPDEST CALLVALUE DUP1 ISZERO PUSH2 0x20A JUMPI PUSH0 DUP1 REVERT JUMPDEST POP PUSH2 0x225 PUSH1 0x4 DUP1 CALLDATASIZE SUB DUP2 ADD SWAP1 PUSH2 0x220 SWAP2 SWAP1 PUSH2 0x107F JUMP JUMPDEST PUSH2 0x584 JUMP JUMPDEST PUSH1 0x40 MLOAD PUSH2 0x232 SWAP2 SWAP1 PUSH2 0xDB5 JUMP JUMPDEST PUSH1 0x40 MLOAD DUP1 SWAP2 SUB SWAP1 RETURN JUMPDEST CALLVALUE DUP1 ISZERO PUSH2 0x246 JUMPI PUSH0 DUP1 REVERT JUMPDEST POP PUSH2 0x24F PUSH2 0x606 JUMP JUMPDEST PUSH1 0x40 MLOAD PUSH2 0x25C SWAP2 SWAP1 PUSH2 0xDB5 JUMP JUMPDEST PUSH1 0x40 MLOAD DUP1 SWAP2 SUB SWAP1 RETURN JUMPDEST CALLVALUE DUP1 ISZERO PUSH2 0x270 JUMPI PUSH0 DUP1 REVERT JUMPDEST POP PUSH2 0x28B PUSH1 0x4 DUP1 CALLDATASIZE SUB DUP2 ADD SWAP1 PUSH2 0x286 SWAP2 SWAP1 PUSH2 0xD25 JUMP JUMPDEST PUSH2 0x62B JUMP JUMPDEST PUSH1 0x40 MLOAD PUSH2 0x298 SWAP2 SWAP1 PUSH2 0xDB5 JUMP JUMPDEST PUSH1 0x40 MLOAD DUP1 SWAP2 SUB SWAP1 RETURN JUMPDEST CALLVALUE DUP1 ISZERO PUSH2 0x2AC JUMPI PUSH0 DUP1 REVERT JUMPDEST POP PUSH2 0x2B5 PUSH2 0x6C5 JUMP JUMPDEST PUSH1 0x40 MLOAD PUSH2 0x2C2 SWAP2 SWAP1 PUSH2 0xDB5 JUMP JUMPDEST PUSH1 0x40 MLOAD DUP1 SWAP2 SUB SWAP1 RETURN JUMPDEST CALLVALUE DUP1 ISZERO PUSH2 0x2D6 JUMPI PUSH0 DUP1 REVERT JUMPDEST POP PUSH2 0x2F1 PUSH1 0x4 DUP1 CALLDATASIZE SUB DUP2 ADD SWAP1 PUSH2 0x2EC SWAP2 SWAP1 PUSH2 0xEB4 JUMP JUMPDEST PUSH2 0x6F0 JUMP JUMPDEST PUSH1 0x40 MLOAD PUSH2 0x2FE SWAP2 SWAP1 PUSH2 0x10D5 JUMP JUMPDEST PUSH1 0x40 MLOAD DUP1 SWAP2 SUB SWAP1 RETURN JUMPDEST CALLVALUE DUP1 ISZERO PUSH2 0x312 JUMPI PUSH0 DUP1 REVERT JUMPDEST POP PUSH2 0x31B PUSH2 0x908 JUMP JUMPDEST PUSH1 0x40 MLOAD PUSH2 0x328 SWAP2 SWAP1 PUSH2 0xDB5 JUMP JUMPDEST PUSH1 0x40 MLOAD DUP1 SWAP2 SUB SWAP1 RETURN JUMPDEST CALLVALUE DUP1 ISZERO PUSH2 0x33C JUMPI PUSH0 DUP1 REVERT JUMPDEST POP PUSH2 0x345 PUSH2 0x946 JUMP JUMPDEST PUSH1 0x40 MLOAD PUSH2 0x352 SWAP2 SWAP1 PUSH2 0xDB5 JUMP JUMPDEST PUSH1 0x40 MLOAD DUP1 SWAP2 SUB SWAP1 RETURN JUMPDEST CALLVALUE DUP1 ISZERO PUSH2 0x366 JUMPI PUSH0 DUP1 REVERT JUMPDEST POP PUSH2 0x36F PUSH2 0x96E JUMP JUMPDEST PUSH1 0x40 MLOAD PUSH2 0x37C SWAP2 SWAP1 PUSH2 0xDB5 JUMP JUMPDEST PUSH1 0x40 MLOAD DUP1 SWAP2 SUB SWAP1 RETURN JUMPDEST CALLVALUE DUP1 ISZERO PUSH2 0x390 JUMPI PUSH0 DUP1 REVERT JUMPDEST POP PUSH2 0x399 PUSH2 0x9A9 JUMP JUMPDEST PUSH1 0x40 MLOAD PUSH2 0x3A6 SWAP2 SWAP1 PUSH2 0xDB5 JUMP JUMPDEST PUSH1 0x40 MLOAD DUP1 SWAP2 SUB SWAP1 RETURN JUMPDEST PUSH1 0x60 PUSH0 DUP1 DUP5 DUP5 DUP2 ADD SWAP1 PUSH2 0x3C2 SWAP2 SWAP1 PUSH2 0x1129 JUMP JUMPDEST DUP1 SWAP4 POP DUP2 SWAP5 POP DUP3 SWAP6 POP POP POP POP SWAP3 POP SWAP3 POP SWAP3 JUMP JUMPDEST PUSH1 0x60 DUP3 DUP3 PUSH1 0x40 MLOAD PUSH1 0x24 ADD PUSH2 0x3EA SWAP3 SWAP2 SWAP1 PUSH2 0x1195 JUMP JUMPDEST PUSH1 0x40 MLOAD PUSH1 0x20 DUP2 DUP4 SUB SUB DUP2 MSTORE SWAP1 PUSH1 0x40 MSTORE PUSH4 0xA9059CBB PUSH1 0xE0 SHL PUSH1 0x20 DUP3 ADD DUP1 MLOAD PUSH28 0xFFFFFFFFFFFFFFFFFFFFFFFFFFFFFFFFFFFFFFFFFFFFFFFFFFFFFFFF DUP4 DUP2 DUP4 AND OR DUP4 MSTORE POP POP POP POP SWAP1 POP SWAP3 SWAP2 POP POP JUMP JUMPDEST PUSH1 0x60 PUSH1 0x40 MLOAD PUSH1 0x20 ADD PUSH2 0x448 SWAP1 PUSH2 0x1210 JUMP JUMPDEST PUSH1 0x40 MLOAD PUSH1 0x20 DUP2 DUP4 SUB SUB DUP2 MSTORE SWAP1 PUSH1 0x40 MSTORE SWAP1 POP SWAP1 JUMP JUMPDEST PUSH1 0x60 DUP7 DUP7 DUP7 DUP7 DUP7 DUP7 PUSH1 0x40 MLOAD PUSH1 0x24 ADD PUSH2 0x479 SWAP7 SWAP6 SWAP5 SWAP4 SWAP3 SWAP2 SWAP1 PUSH2 0x12C8 JUMP JUMPDEST PUSH1 0x40 MLOAD PUSH1 0x20 DUP2 DUP4 SUB SUB DUP2 MSTORE SWAP1 PUSH1 0x40 MSTORE PUSH32 0xAE53A4A500000000000000000000000000000000000000000000000000000000 PUSH28 0xFFFFFFFFFFFFFFFFFFFFFFFFFFFFFFFFFFFFFFFFFFFFFFFFFFFFFFFF NOT AND PUSH1 0x20 DUP3 ADD DUP1 MLOAD PUSH28 0xFFFFFFFFFFFFFFFFFFFFFFFFFFFFFFFFFFFFFFFFFFFFFFFFFFFFFFFF DUP4 DUP2 DUP4 AND OR DUP4 MSTORE POP POP POP POP SWAP1 POP SWAP7 SWAP6 POP POP POP POP POP POP JUMP JUMPDEST PUSH1 0x60 PUSH4 0xA9059CBB PUSH1 0xE0 SHL DUP4 DUP4 PUSH1 0x40 MLOAD PUSH1 0x24 ADD PUSH2 0x51F SWAP3 SWAP2 SWAP1 PUSH2 0x1195 JUMP JUMPDEST PUSH1 0x40 MLOAD PUSH1 0x20 DUP2 DUP4 SUB SUB DUP2 MSTORE SWAP1 PUSH1 0x40 MSTORE SWAP1 PUSH28 0xFFFFFFFFFFFFFFFFFFFFFFFFFFFFFFFFFFFFFFFFFFFFFFFFFFFFFFFF NOT AND PUSH1 0x20 DUP3 ADD DUP1 MLOAD PUSH28 0xFFFFFFFFFFFFFFFFFFFFFFFFFFFFFFFFFFFFFFFFFFFFFFFFFFFFFFFF DUP4 DUP2 DUP4 AND OR DUP4 MSTORE POP POP POP POP SWAP1 POP SWAP3 SWAP2 POP POP JUMP JUMPDEST PUSH1 0x60 DUP2 PUSH1 0x40 MLOAD PUSH1 0x24 ADD PUSH1 0x40 MLOAD PUSH1 0x20 DUP2 DUP4 SUB SUB DUP2 MSTORE SWAP1 PUSH1 0x40 MSTORE SWAP1 PUSH1 0x40 MLOAD PUSH2 0x5AA SWAP2 SWAP1 PUSH2 0x134D JUMP JUMPDEST PUSH1 0x40 MLOAD DUP1 SWAP2 SUB SWAP1 KECCAK256 PUSH28 0xFFFFFFFFFFFFFFFFFFFFFFFFFFFFFFFFFFFFFFFFFFFFFFFFFFFFFFFF NOT AND PUSH1 0x20 DUP3 ADD DUP1 MLOAD PUSH28 0xFFFFFFFFFFFFFFFFFFFFFFFFFFFFFFFFFFFFFFFFFFFFFFFFFFFFFFFF DUP4 DUP2 DUP4 AND OR DUP4 MSTORE POP POP POP POP SWAP1 POP SWAP2 SWAP1 POP JUMP JUMPDEST PUSH1 0x60 PUSH1 0x40 MLOAD PUSH1 0x20 ADD PUSH2 0x617 SWAP1 PUSH2 0x1385 JUMP JUMPDEST PUSH1 0x40 MLOAD PUSH1 0x20 DUP2 DUP4 SUB SUB DUP2 MSTORE SWAP1 PUSH1 0x40 MSTORE SWAP1 POP SWAP1 JUMP JUMPDEST PUSH1 0x60 DUP3 DUP3 PUSH1 0x40 MLOAD PUSH1 0x24 ADD PUSH2 0x640 SWAP3 SWAP2 SWAP1 PUSH2 0x1195 JUMP JUMPDEST PUSH1 0x40 MLOAD PUSH1 0x20 DUP2 DUP4 SUB SUB DUP2 MSTORE SWAP1 PUSH1 0x40 MSTORE PUSH32 0xA9059CBB00000000000000000000000000000000000000000000000000000000 PUSH28 0xFFFFFFFFFFFFFFFFFFFFFFFFFFFFFFFFFFFFFFFFFFFFFFFFFFFFFFFF NOT AND PUSH1 0x20 DUP3 ADD DUP1 MLOAD PUSH28 0xFFFFFFFFFFFFFFFFFFFFFFFFFFFFFFFFFFFFFFFFFFFFFFFFFFFFFFFF DUP4 DUP2 DUP4 AND OR DUP4 MSTORE POP POP POP POP SWAP1 POP SWAP3 SWAP2 POP POP JUMP JUMPDEST PUSH1 0x60 PUSH1 0x1 PUSH1 0x63 PUSH1 0x40 MLOAD PUSH1 0x20 ADD PUSH2 0x6DC SWAP3 SWAP2 SWAP1 PUSH2 0x1474 JUMP JUMPDEST PUSH1 0x40 MLOAD PUSH1 0x20 DUP2 DUP4 SUB SUB DUP2 MSTORE SWAP1 PUSH1 0x40 MSTORE SWAP1 POP SWAP1 JUMP JUMPDEST PUSH0 DUP7 PUSH2 0x731 JUMPI PUSH1 0x40 MLOAD PUSH32 0x8C379A000000000000000000000000000000000000000000000000000000000 DUP2 MSTORE PUSH1 0x4 ADD PUSH2 0x728 SWAP1 PUSH2 0x150B JUMP JUMPDEST PUSH1 0x40 MLOAD DUP1 SWAP2 SUB SWAP1 REVERT JUMPDEST PUSH1 0x9 DUP7 DUP7 PUSH0 DUP2 DUP2 LT PUSH2 0x746 JUMPI PUSH2 0x745 PUSH2 0x1529 JUMP JUMPDEST JUMPDEST SWAP1 POP PUSH1 0x20 MUL ADD CALLDATALOAD EQ PUSH2 0x78D JUMPI PUSH1 0x40 MLOAD PUSH32 0x8C379A000000000000000000000000000000000000000000000000000000000 DUP2 MSTORE PUSH1 0x4 ADD PUSH2 0x784 SWAP1 PUSH2 0x15A0 JUMP JUMPDEST PUSH1 0x40 MLOAD DUP1 SWAP2 SUB SWAP1 REVERT JUMPDEST PUSH1 0x12 DUP7 DUP7 PUSH1 0x1 DUP2 DUP2 LT PUSH2 0x7A3 JUMPI PUSH2 0x7A2 PUSH2 0x1529 JUMP JUMPDEST JUMPDEST SWAP1 POP PUSH1 0x20 MUL ADD CALLDATALOAD EQ PUSH2 0x7EA JUMPI PUSH1 0x40 MLOAD PUSH32 0x8C379A000000000000000000000000000000000000000000000000000000000 DUP2 MSTORE PUSH1 0x4 ADD PUSH2 0x7E1 SWAP1 PUSH2 0x15A0 JUMP JUMPDEST PUSH1 0x40 MLOAD DUP1 SWAP2 SUB SWAP1 REVERT JUMPDEST PUSH20 0x2FF1F4E5D08A822743EC6B342C521A0A421456CB PUSH20 0xFFFFFFFFFFFFFFFFFFFFFFFFFFFFFFFFFFFFFFFF AND DUP5 PUSH20 0xFFFFFFFFFFFFFFFFFFFFFFFFFFFFFFFFFFFFFFFF AND EQ PUSH2 0x86C JUMPI PUSH1 0x40 MLOAD PUSH32 0x8C379A000000000000000000000000000000000000000000000000000000000 DUP2 MSTORE PUSH1 0x4 ADD PUSH2 0x863 SWAP1 PUSH2 0x1608 JUMP JUMPDEST PUSH1 0x40 MLOAD DUP1 SWAP2 SUB SWAP1 REVERT JUMPDEST PUSH1 0x40 MLOAD PUSH1 0x20 ADD PUSH2 0x87B SWAP1 PUSH2 0x1670 JUMP JUMPDEST PUSH1 0x40 MLOAD PUSH1 0x20 DUP2 DUP4 SUB SUB DUP2 MSTORE SWAP1 PUSH1 0x40 MSTORE DUP1 MLOAD SWAP1 PUSH1 0x20 ADD KECCAK256 DUP4 DUP4 PUSH1 0x40 MLOAD PUSH1 0x20 ADD PUSH2 0x8A4 SWAP3 SWAP2 SWAP1 PUSH2 0x16A8 JUMP JUMPDEST PUSH1 0x40 MLOAD PUSH1 0x20 DUP2 DUP4 SUB SUB DUP2 MSTORE SWAP1 PUSH1 0x40 MSTORE DUP1 MLOAD SWAP1 PUSH1 0x20 ADD KECCAK256 EQ PUSH2 0x8FA JUMPI PUSH1 0x40 MLOAD PUSH32 0x8C379A000000000000000000000000000000000000000000000000000000000 DUP2 MSTORE PUSH1 0x4 ADD PUSH2 0x8F1 SWAP1 PUSH2 0x170A JUMP JUMPDEST PUSH1 0x40 MLOAD DUP1 SWAP2 SUB SWAP1 REVERT JUMPDEST PUSH1 0x1 SWAP1 POP SWAP7 SWAP6 POP POP POP POP POP POP JUMP JUMPDEST PUSH1 0x60 PUSH1 0x1 PUSH20 0x2FF1F4E5D08A822743EC6B342C521A0A421456CB PUSH1 0x40 MLOAD PUSH1 0x20 ADD PUSH2 0x932 SWAP3 SWAP2 SWAP1 PUSH2 0x1728 JUMP JUMPDEST PUSH1 0x40 MLOAD PUSH1 0x20 DUP2 DUP4 SUB SUB DUP2 MSTORE SWAP1 PUSH1 0x40 MSTORE SWAP1 POP SWAP1 JUMP JUMPDEST PUSH1 0x60 PUSH1 0x1 PUSH1 0x40 MLOAD PUSH1 0x20 ADD PUSH2 0x95A SWAP2 SWAP1 PUSH2 0x1762 JUMP JUMPDEST PUSH1 0x40 MLOAD PUSH1 0x20 DUP2 DUP4 SUB SUB DUP2 MSTORE SWAP1 PUSH1 0x40 MSTORE SWAP1 POP SWAP1 JUMP JUMPDEST PUSH1 0x60 PUSH20 0x2FF1F4E5D08A822743EC6B342C521A0A421456CB PUSH1 0x40 MLOAD PUSH1 0x20 ADD PUSH2 0x995 SWAP2 SWAP1 PUSH2 0x177B JUMP JUMPDEST PUSH1 0x40 MLOAD PUSH1 0x20 DUP2 DUP4 SUB SUB DUP2 MSTORE SWAP1 PUSH1 0x40 MSTORE SWAP1 POP SWAP1 JUMP JUMPDEST PUSH1 0x60 PUSH1 0x40 MLOAD DUP1 PUSH1 0x60 ADD PUSH1 0x40 MSTORE DUP1 PUSH1 0x40 MLOAD DUP1 PUSH1 0x40 ADD PUSH1 0x40 MSTORE DUP1 PUSH1 0x2 DUP2 MSTORE PUSH1 0x20 ADD PUSH32 0x3131000000000000000000000000000000000000000000000000000000000000 DUP2 MSTORE POP DUP2 MSTORE PUSH1 0x20 ADD PUSH1 0x40 MLOAD DUP1 PUSH1 0x40 ADD PUSH1 0x40 MSTORE DUP1 PUSH1 0x1 DUP2 MSTORE PUSH1 0x20 ADD PUSH32 0x3200000000000000000000000000000000000000000000000000000000000000 DUP2 MSTORE POP DUP2 MSTORE PUSH1 0x20 ADD PUSH1 0x40 MLOAD DUP1 PUSH1 0x40 ADD PUSH1 0x40 MSTORE DUP1 PUSH1 0x1 DUP2 MSTORE PUSH1 0x20 ADD PUSH32 0x3300000000000000000000000000000000000000000000000000000000000000 DUP2 MSTORE POP DUP2 MSTORE POP PUSH1 0x40 MLOAD PUSH1 0x24 ADD PUSH2 0xA75 SWAP2 SWAP1 PUSH2 0x188B JUMP JUMPDEST PUSH1 0x40 MLOAD PUSH1 0x20 DUP2 DUP4 SUB SUB DUP2 MSTORE SWAP1 PUSH1 0x40 MSTORE PUSH32 0x7FA990B900000000000000000000000000000000000000000000000000000000 PUSH28 0xFFFFFFFFFFFFFFFFFFFFFFFFFFFFFFFFFFFFFFFFFFFFFFFFFFFFFFFF NOT AND PUSH1 0x20 DUP3 ADD DUP1 MLOAD PUSH28 0xFFFFFFFFFFFFFFFFFFFFFFFFFFFFFFFFFFFFFFFFFFFFFFFFFFFFFFFF DUP4 DUP2 DUP4 AND OR DUP4 MSTORE POP POP POP POP SWAP1 POP SWAP1 JUMP JUMPDEST PUSH0 PUSH1 0x40 MLOAD SWAP1 POP SWAP1 JUMP JUMPDEST PUSH0 DUP1 REVERT JUMPDEST PUSH0 DUP1 REVERT JUMPDEST PUSH0 DUP1 REVERT JUMPDEST PUSH0 DUP1 REVERT JUMPDEST PUSH0 DUP1 REVERT JUMPDEST PUSH0 DUP1 DUP4 PUSH1 0x1F DUP5 ADD SLT PUSH2 0xB29 JUMPI PUSH2 0xB28 PUSH2 0xB08 JUMP JUMPDEST JUMPDEST DUP3 CALLDATALOAD SWAP1 POP PUSH8 0xFFFFFFFFFFFFFFFF DUP2 GT ISZERO PUSH2 0xB46 JUMPI PUSH2 0xB45 PUSH2 0xB0C JUMP JUMPDEST JUMPDEST PUSH1 0x20 DUP4 ADD SWAP2 POP DUP4 PUSH1 0x1 DUP3 MUL DUP4 ADD GT ISZERO PUSH2 0xB62 JUMPI PUSH2 0xB61 PUSH2 0xB10 JUMP JUMPDEST JUMPDEST SWAP3 POP SWAP3 SWAP1 POP JUMP JUMPDEST PUSH0 DUP1 PUSH1 0x20 DUP4 DUP6 SUB SLT ISZERO PUSH2 0xB7F JUMPI PUSH2 0xB7E PUSH2 0xB00 JUMP JUMPDEST JUMPDEST PUSH0 DUP4 ADD CALLDATALOAD PUSH8 0xFFFFFFFFFFFFFFFF DUP2 GT ISZERO PUSH2 0xB9C JUMPI PUSH2 0xB9B PUSH2 0xB04 JUMP JUMPDEST JUMPDEST PUSH2 0xBA8 DUP6 DUP3 DUP7 ADD PUSH2 0xB14 JUMP JUMPDEST SWAP3 POP SWAP3 POP POP SWAP3 POP SWAP3 SWAP1 POP JUMP JUMPDEST PUSH0 DUP2 MLOAD SWAP1 POP SWAP2 SWAP1 POP JUMP JUMPDEST PUSH0 DUP3 DUP3 MSTORE PUSH1 0x20 DUP3 ADD SWAP1 POP SWAP3 SWAP2 POP POP JUMP JUMPDEST PUSH0 JUMPDEST DUP4 DUP2 LT ISZERO PUSH2 0xBEB JUMPI DUP1 DUP3 ADD MLOAD DUP2 DUP5 ADD MSTORE PUSH1 0x20 DUP2 ADD SWAP1 POP PUSH2 0xBD0 JUMP JUMPDEST PUSH0 DUP5 DUP5 ADD MSTORE POP POP POP POP JUMP JUMPDEST PUSH0 PUSH1 0x1F NOT PUSH1 0x1F DUP4 ADD AND SWAP1 POP SWAP2 SWAP1 POP JUMP JUMPDEST PUSH0 PUSH2 0xC10 DUP3 PUSH2 0xBB4 JUMP JUMPDEST PUSH2 0xC1A DUP2 DUP6 PUSH2 0xBBE JUMP JUMPDEST SWAP4 POP PUSH2 0xC2A DUP2 DUP6 PUSH1 0x20 DUP7 ADD PUSH2 0xBCE JUMP JUMPDEST PUSH2 0xC33 DUP2 PUSH2 0xBF6 JUMP JUMPDEST DUP5 ADD SWAP2 POP POP SWAP3 SWAP2 POP POP JUMP JUMPDEST PUSH0 DUP2 SWAP1 POP SWAP2 SWAP1 POP JUMP JUMPDEST PUSH2 0xC50 DUP2 PUSH2 0xC3E JUMP JUMPDEST DUP3 MSTORE POP POP JUMP JUMPDEST PUSH0 PUSH20 0xFFFFFFFFFFFFFFFFFFFFFFFFFFFFFFFFFFFFFFFF DUP3 AND SWAP1 POP SWAP2 SWAP1 POP JUMP JUMPDEST PUSH0 PUSH2 0xC7F DUP3 PUSH2 0xC56 JUMP JUMPDEST SWAP1 POP SWAP2 SWAP1 POP JUMP JUMPDEST PUSH2 0xC8F DUP2 PUSH2 0xC75 JUMP JUMPDEST DUP3 MSTORE POP POP JUMP JUMPDEST PUSH0 PUSH1 0x60 DUP3 ADD SWAP1 POP DUP2 DUP2 SUB PUSH0 DUP4 ADD MSTORE PUSH2 0xCAD DUP2 DUP7 PUSH2 0xC06 JUMP JUMPDEST SWAP1 POP PUSH2 0xCBC PUSH1 0x20 DUP4 ADD DUP6 PUSH2 0xC47 JUMP JUMPDEST PUSH2 0xCC9 PUSH1 0x40 DUP4 ADD DUP5 PUSH2 0xC86 JUMP JUMPDEST SWAP5 SWAP4 POP POP POP POP JUMP JUMPDEST PUSH2 0xCDA DUP2 PUSH2 0xC75 JUMP JUMPDEST DUP2 EQ PUSH2 0xCE4 JUMPI PUSH0 DUP1 REVERT JUMPDEST POP JUMP JUMPDEST PUSH0 DUP2 CALLDATALOAD SWAP1 POP PUSH2 0xCF5 DUP2 PUSH2 0xCD1 JUMP JUMPDEST SWAP3 SWAP2 POP POP JUMP JUMPDEST PUSH2 0xD04 DUP2 PUSH2 0xC3E JUMP JUMPDEST DUP2 EQ PUSH2 0xD0E JUMPI PUSH0 DUP1 REVERT JUMPDEST POP JUMP JUMPDEST PUSH0 DUP2 CALLDATALOAD SWAP1 POP PUSH2 0xD1F DUP2 PUSH2 0xCFB JUMP JUMPDEST SWAP3 SWAP2 POP POP JUMP JUMPDEST PUSH0 DUP1 PUSH1 0x40 DUP4 DUP6 SUB SLT ISZERO PUSH2 0xD3B JUMPI PUSH2 0xD3A PUSH2 0xB00 JUMP JUMPDEST JUMPDEST PUSH0 PUSH2 0xD48 DUP6 DUP3 DUP7 ADD PUSH2 0xCE7 JUMP JUMPDEST SWAP3 POP POP PUSH1 0x20 PUSH2 0xD59 DUP6 DUP3 DUP7 ADD PUSH2 0xD11 JUMP JUMPDEST SWAP2 POP POP SWAP3 POP SWAP3 SWAP1 POP JUMP JUMPDEST PUSH0 DUP2 MLOAD SWAP1 POP SWAP2 SWAP1 POP JUMP JUMPDEST PUSH0 DUP3 DUP3 MSTORE PUSH1 0x20 DUP3 ADD SWAP1 POP SWAP3 SWAP2 POP POP JUMP JUMPDEST PUSH0 PUSH2 0xD87 DUP3 PUSH2 0xD63 JUMP JUMPDEST PUSH2 0xD91 DUP2 DUP6 PUSH2 0xD6D JUMP JUMPDEST SWAP4 POP PUSH2 0xDA1 DUP2 DUP6 PUSH1 0x20 DUP7 ADD PUSH2 0xBCE JUMP JUMPDEST PUSH2 0xDAA DUP2 PUSH2 0xBF6 JUMP JUMPDEST DUP5 ADD SWAP2 POP POP SWAP3 SWAP2 POP POP JUMP JUMPDEST PUSH0 PUSH1 0x20 DUP3 ADD SWAP1 POP DUP2 DUP2 SUB PUSH0 DUP4 ADD MSTORE PUSH2 0xDCD DUP2 DUP5 PUSH2 0xD7D JUMP JUMPDEST SWAP1 POP SWAP3 SWAP2 POP POP JUMP JUMPDEST PUSH0 DUP2 ISZERO ISZERO SWAP1 POP SWAP2 SWAP1 POP JUMP JUMPDEST PUSH2 0xDE9 DUP2 PUSH2 0xDD5 JUMP JUMPDEST DUP2 EQ PUSH2 0xDF3 JUMPI PUSH0 DUP1 REVERT JUMPDEST POP JUMP JUMPDEST PUSH0 DUP2 CALLDATALOAD SWAP1 POP PUSH2 0xE04 DUP2 PUSH2 0xDE0 JUMP JUMPDEST SWAP3 SWAP2 POP POP JUMP JUMPDEST PUSH0 DUP1 DUP4 PUSH1 0x1F DUP5 ADD SLT PUSH2 0xE1F JUMPI PUSH2 0xE1E PUSH2 0xB08 JUMP JUMPDEST JUMPDEST DUP3 CALLDATALOAD SWAP1 POP PUSH8 0xFFFFFFFFFFFFFFFF DUP2 GT ISZERO PUSH2 0xE3C JUMPI PUSH2 0xE3B PUSH2 0xB0C JUMP JUMPDEST JUMPDEST PUSH1 0x20 DUP4 ADD SWAP2 POP DUP4 PUSH1 0x20 DUP3 MUL DUP4 ADD GT ISZERO PUSH2 0xE58 JUMPI PUSH2 0xE57 PUSH2 0xB10 JUMP JUMPDEST JUMPDEST SWAP3 POP SWAP3 SWAP1 POP JUMP JUMPDEST PUSH0 DUP1 DUP4 PUSH1 0x1F DUP5 ADD SLT PUSH2 0xE74 JUMPI PUSH2 0xE73 PUSH2 0xB08 JUMP JUMPDEST JUMPDEST DUP3 CALLDATALOAD SWAP1 POP PUSH8 0xFFFFFFFFFFFFFFFF DUP2 GT ISZERO PUSH2 0xE91 JUMPI PUSH2 0xE90 PUSH2 0xB0C JUMP JUMPDEST JUMPDEST PUSH1 0x20 DUP4 ADD SWAP2 POP DUP4 PUSH1 0x1 DUP3 MUL DUP4 ADD GT ISZERO PUSH2 0xEAD JUMPI PUSH2 0xEAC PUSH2 0xB10 JUMP JUMPDEST JUMPDEST SWAP3 POP SWAP3 SWAP1 POP JUMP JUMPDEST PUSH0 DUP1 PUSH0 DUP1 PUSH0 DUP1 PUSH1 0x80 DUP8 DUP10 SUB SLT ISZERO PUSH2 0xECE JUMPI PUSH2 0xECD PUSH2 0xB00 JUMP JUMPDEST JUMPDEST PUSH0 PUSH2 0xEDB DUP10 DUP3 DUP11 ADD PUSH2 0xDF6 JUMP JUMPDEST SWAP7 POP POP PUSH1 0x20 DUP8 ADD CALLDATALOAD PUSH8 0xFFFFFFFFFFFFFFFF DUP2 GT ISZERO PUSH2 0xEFC JUMPI PUSH2 0xEFB PUSH2 0xB04 JUMP JUMPDEST JUMPDEST PUSH2 0xF08 DUP10 DUP3 DUP11 ADD PUSH2 0xE0A JUMP JUMPDEST SWAP6 POP SWAP6 POP POP PUSH1 0x40 PUSH2 0xF1B DUP10 DUP3 DUP11 ADD PUSH2 0xCE7 JUMP JUMPDEST SWAP4 POP POP PUSH1 0x60 DUP8 ADD CALLDATALOAD PUSH8 0xFFFFFFFFFFFFFFFF DUP2 GT ISZERO PUSH2 0xF3C JUMPI PUSH2 0xF3B PUSH2 0xB04 JUMP JUMPDEST JUMPDEST PUSH2 0xF48 DUP10 DUP3 DUP11 ADD PUSH2 0xE5F JUMP JUMPDEST SWAP3 POP SWAP3 POP POP SWAP3 SWAP6 POP SWAP3 SWAP6 POP SWAP3 SWAP6 JUMP JUMPDEST PUSH0 DUP1 REVERT JUMPDEST PUSH32 0x4E487B7100000000000000000000000000000000000000000000000000000000 PUSH0 MSTORE PUSH1 0x41 PUSH1 0x4 MSTORE PUSH1 0x24 PUSH0 REVERT JUMPDEST PUSH2 0xF91 DUP3 PUSH2 0xBF6 JUMP JUMPDEST DUP2 ADD DUP2 DUP2 LT PUSH8 0xFFFFFFFFFFFFFFFF DUP3 GT OR ISZERO PUSH2 0xFB0 JUMPI PUSH2 0xFAF PUSH2 0xF5B JUMP JUMPDEST JUMPDEST DUP1 PUSH1 0x40 MSTORE POP POP POP JUMP JUMPDEST PUSH0 PUSH2 0xFC2 PUSH2 0xAF7 JUMP JUMPDEST SWAP1 POP PUSH2 0xFCE DUP3 DUP3 PUSH2 0xF88 JUMP JUMPDEST SWAP2 SWAP1 POP JUMP JUMPDEST PUSH0 PUSH8 0xFFFFFFFFFFFFFFFF DUP3 GT ISZERO PUSH2 0xFED JUMPI PUSH2 0xFEC PUSH2 0xF5B JUMP JUMPDEST JUMPDEST PUSH2 0xFF6 DUP3 PUSH2 0xBF6 JUMP JUMPDEST SWAP1 POP PUSH1 0x20 DUP2 ADD SWAP1 POP SWAP2 SWAP1 POP JUMP JUMPDEST DUP3 DUP2 DUP4 CALLDATACOPY PUSH0 DUP4 DUP4 ADD MSTORE POP POP POP JUMP JUMPDEST PUSH0 PUSH2 0x1023 PUSH2 0x101E DUP5 PUSH2 0xFD3 JUMP JUMPDEST PUSH2 0xFB9 JUMP JUMPDEST SWAP1 POP DUP3 DUP2 MSTORE PUSH1 0x20 DUP2 ADD DUP5 DUP5 DUP5 ADD GT ISZERO PUSH2 0x103F JUMPI PUSH2 0x103E PUSH2 0xF57 JUMP JUMPDEST JUMPDEST PUSH2 0x104A DUP5 DUP3 DUP6 PUSH2 0x1003 JUMP JUMPDEST POP SWAP4 SWAP3 POP POP POP JUMP JUMPDEST PUSH0 DUP3 PUSH1 0x1F DUP4 ADD SLT PUSH2 0x1066 JUMPI PUSH2 0x1065 PUSH2 0xB08 JUMP JUMPDEST JUMPDEST DUP2 CALLDATALOAD PUSH2 0x1076 DUP5 DUP3 PUSH1 0x20 DUP7 ADD PUSH2 0x1011 JUMP JUMPDEST SWAP2 POP POP SWAP3 SWAP2 POP POP JUMP JUMPDEST PUSH0 PUSH1 0x20 DUP3 DUP5 SUB SLT ISZERO PUSH2 0x1094 JUMPI PUSH2 0x1093 PUSH2 0xB00 JUMP JUMPDEST JUMPDEST PUSH0 DUP3 ADD CALLDATALOAD PUSH8 0xFFFFFFFFFFFFFFFF DUP2 GT ISZERO PUSH2 0x10B1 JUMPI PUSH2 0x10B0 PUSH2 0xB04 JUMP JUMPDEST JUMPDEST PUSH2 0x10BD DUP5 DUP3 DUP6 ADD PUSH2 0x1052 JUMP JUMPDEST SWAP2 POP POP SWAP3 SWAP2 POP POP JUMP JUMPDEST PUSH2 0x10CF DUP2 PUSH2 0xDD5 JUMP JUMPDEST DUP3 MSTORE POP POP JUMP JUMPDEST PUSH0 PUSH1 0x20 DUP3 ADD SWAP1 POP PUSH2 0x10E8 PUSH0 DUP4 ADD DUP5 PUSH2 0x10C6 JUMP JUMPDEST SWAP3 SWAP2 POP POP JUMP JUMPDEST PUSH0 PUSH2 0x10F8 DUP3 PUSH2 0xC56 JUMP JUMPDEST SWAP1 POP SWAP2 SWAP1 POP JUMP JUMPDEST PUSH2 0x1108 DUP2 PUSH2 0x10EE JUMP JUMPDEST DUP2 EQ PUSH2 0x1112 JUMPI PUSH0 DUP1 REVERT JUMPDEST POP JUMP JUMPDEST PUSH0 DUP2 CALLDATALOAD SWAP1 POP PUSH2 0x1123 DUP2 PUSH2 0x10FF JUMP JUMPDEST SWAP3 SWAP2 POP POP JUMP JUMPDEST PUSH0 DUP1 PUSH0 PUSH1 0x60 DUP5 DUP7 SUB SLT ISZERO PUSH2 0x1140 JUMPI PUSH2 0x113F PUSH2 0xB00 JUMP JUMPDEST JUMPDEST PUSH0 DUP5 ADD CALLDATALOAD PUSH8 0xFFFFFFFFFFFFFFFF DUP2 GT ISZERO PUSH2 0x115D JUMPI PUSH2 0x115C PUSH2 0xB04 JUMP JUMPDEST JUMPDEST PUSH2 0x1169 DUP7 DUP3 DUP8 ADD PUSH2 0x1052 JUMP JUMPDEST SWAP4 POP POP PUSH1 0x20 PUSH2 0x117A DUP7 DUP3 DUP8 ADD PUSH2 0xD11 JUMP JUMPDEST SWAP3 POP POP PUSH1 0x40 PUSH2 0x118B DUP7 DUP3 DUP8 ADD PUSH2 0x1115 JUMP JUMPDEST SWAP2 POP POP SWAP3 POP SWAP3 POP SWAP3 JUMP JUMPDEST PUSH0 PUSH1 0x40 DUP3 ADD SWAP1 POP PUSH2 0x11A8 PUSH0 DUP4 ADD DUP6 PUSH2 0xC86 JUMP JUMPDEST PUSH2 0x11B5 PUSH1 0x20 DUP4 ADD DUP5 PUSH2 0xC47 JUMP JUMPDEST SWAP4 SWAP3 POP POP POP JUMP JUMPDEST PUSH0 DUP2 SWAP1 POP SWAP3 SWAP2 POP POP JUMP JUMPDEST PUSH32 0x617070776F726B73000000000000000000000000000000000000000000000000 PUSH0 DUP3 ADD MSTORE POP JUMP JUMPDEST PUSH0 PUSH2 0x11FA PUSH1 0x8 DUP4 PUSH2 0x11BC JUMP JUMPDEST SWAP2 POP PUSH2 0x1205 DUP3 PUSH2 0x11C6 JUMP JUMPDEST PUSH1 0x8 DUP3 ADD SWAP1 POP SWAP2 SWAP1 POP JUMP JUMPDEST PUSH0 PUSH2 0x121A DUP3 PUSH2 0x11EE JUMP JUMPDEST SWAP2 POP DUP2 SWAP1 POP SWAP2 SWAP1 POP JUMP JUMPDEST PUSH0 DUP3 DUP3 MSTORE PUSH1 0x20 DUP3 ADD SWAP1 POP SWAP3 SWAP2 POP POP JUMP JUMPDEST PUSH0 DUP1 REVERT JUMPDEST DUP3 DUP2 DUP4 CALLDATACOPY POP POP POP JUMP JUMPDEST PUSH0 PUSH2 0x124C DUP4 DUP6 PUSH2 0x1224 JUMP JUMPDEST SWAP4 POP PUSH32 0x7FFFFFFFFFFFFFFFFFFFFFFFFFFFFFFFFFFFFFFFFFFFFFFFFFFFFFFFFFFFFFF DUP4 GT ISZERO PUSH2 0x127F JUMPI PUSH2 0x127E PUSH2 0x1234 JUMP JUMPDEST JUMPDEST PUSH1 0x20 DUP4 MUL SWAP3 POP PUSH2 0x1290 DUP4 DUP6 DUP5 PUSH2 0x1238 JUMP JUMPDEST DUP3 DUP5 ADD SWAP1 POP SWAP4 SWAP3 POP POP POP JUMP JUMPDEST PUSH0 PUSH2 0x12A7 DUP4 DUP6 PUSH2 0xBBE JUMP JUMPDEST SWAP4 POP PUSH2 0x12B4 DUP4 DUP6 DUP5 PUSH2 0x1003 JUMP JUMPDEST PUSH2 0x12BD DUP4 PUSH2 0xBF6 JUMP JUMPDEST DUP5 ADD SWAP1 POP SWAP4 SWAP3 POP POP POP JUMP JUMPDEST PUSH0 PUSH1 0x80 DUP3 ADD SWAP1 POP PUSH2 0x12DB PUSH0 DUP4 ADD DUP10 PUSH2 0x10C6 JUMP JUMPDEST DUP2 DUP2 SUB PUSH1 0x20 DUP4 ADD MSTORE PUSH2 0x12EE DUP2 DUP8 DUP10 PUSH2 0x1241 JUMP JUMPDEST SWAP1 POP PUSH2 0x12FD PUSH1 0x40 DUP4 ADD DUP7 PUSH2 0xC86 JUMP JUMPDEST DUP2 DUP2 SUB PUSH1 0x60 DUP4 ADD MSTORE PUSH2 0x1310 DUP2 DUP5 DUP7 PUSH2 0x129C JUMP JUMPDEST SWAP1 POP SWAP8 SWAP7 POP POP POP POP POP POP POP JUMP JUMPDEST PUSH0 PUSH2 0x1327 DUP3 PUSH2 0xBB4 JUMP JUMPDEST PUSH2 0x1331 DUP2 DUP6 PUSH2 0x11BC JUMP JUMPDEST SWAP4 POP PUSH2 0x1341 DUP2 DUP6 PUSH1 0x20 DUP7 ADD PUSH2 0xBCE JUMP JUMPDEST DUP1 DUP5 ADD SWAP2 POP POP SWAP3 SWAP2 POP POP JUMP JUMPDEST PUSH0 PUSH2 0x1358 DUP3 DUP5 PUSH2 0x131D JUMP JUMPDEST SWAP2 POP DUP2 SWAP1 POP SWAP3 SWAP2 POP POP JUMP JUMPDEST PUSH0 PUSH2 0x136F PUSH1 0x8 DUP4 PUSH2 0xBBE JUMP JUMPDEST SWAP2 POP PUSH2 0x137A DUP3 PUSH2 0x11C6 JUMP JUMPDEST PUSH1 0x20 DUP3 ADD SWAP1 POP SWAP2 SWAP1 POP JUMP JUMPDEST PUSH0 PUSH1 0x20 DUP3 ADD SWAP1 POP DUP2 DUP2 SUB PUSH0 DUP4 ADD MSTORE PUSH2 0x139C DUP2 PUSH2 0x1363 JUMP JUMPDEST SWAP1 POP SWAP2 SWAP1 POP JUMP JUMPDEST PUSH0 DUP2 SWAP1 POP SWAP2 SWAP1 POP JUMP JUMPDEST PUSH0 PUSH1 0xFF DUP3 AND SWAP1 POP SWAP2 SWAP1 POP JUMP JUMPDEST PUSH0 DUP2 SWAP1 POP SWAP2 SWAP1 POP JUMP JUMPDEST PUSH0 PUSH2 0x13DB PUSH2 0x13D6 PUSH2 0x13D1 DUP5 PUSH2 0x13A3 JUMP JUMPDEST PUSH2 0x13B8 JUMP JUMPDEST PUSH2 0x13AC JUMP JUMPDEST SWAP1 POP SWAP2 SWAP1 POP JUMP JUMPDEST PUSH2 0x13EB DUP2 PUSH2 0x13C1 JUMP JUMPDEST DUP3 MSTORE POP POP JUMP JUMPDEST PUSH0 DUP2 SWAP1 POP SWAP2 SWAP1 POP JUMP JUMPDEST PUSH0 PUSH2 0x1414 PUSH2 0x140F PUSH2 0x140A DUP5 PUSH2 0x13F1 JUMP JUMPDEST PUSH2 0x13B8 JUMP JUMPDEST PUSH2 0x13AC JUMP JUMPDEST SWAP1 POP SWAP2 SWAP1 POP JUMP JUMPDEST PUSH2 0x1424 DUP2 PUSH2 0x13FA JUMP JUMPDEST DUP3 MSTORE POP POP JUMP JUMPDEST PUSH32 0x6A696D0000000000000000000000000000000000000000000000000000000000 PUSH0 DUP3 ADD MSTORE POP JUMP JUMPDEST PUSH0 PUSH2 0x145E PUSH1 0x3 DUP4 PUSH2 0xBBE JUMP JUMPDEST SWAP2 POP PUSH2 0x1469 DUP3 PUSH2 0x142A JUMP JUMPDEST PUSH1 0x20 DUP3 ADD SWAP1 POP SWAP2 SWAP1 POP JUMP JUMPDEST PUSH0 PUSH1 0x80 DUP3 ADD SWAP1 POP DUP2 DUP2 SUB PUSH0 DUP4 ADD MSTORE PUSH2 0x148B DUP2 PUSH2 0x1363 JUMP JUMPDEST SWAP1 POP PUSH2 0x149A PUSH1 0x20 DUP4 ADD DUP6 PUSH2 0x13E2 JUMP JUMPDEST PUSH2 0x14A7 PUSH1 0x40 DUP4 ADD DUP5 PUSH2 0x141B JUMP JUMPDEST DUP2 DUP2 SUB PUSH1 0x60 DUP4 ADD MSTORE PUSH2 0x14B8 DUP2 PUSH2 0x1452 JUMP JUMPDEST SWAP1 POP SWAP4 SWAP3 POP POP POP JUMP JUMPDEST PUSH32 0x626F6F6C20706172616D6574657220636F72726563742E000000000000000000 PUSH0 DUP3 ADD MSTORE POP JUMP JUMPDEST PUSH0 PUSH2 0x14F5 PUSH1 0x17 DUP4 PUSH2 0xBBE JUMP JUMPDEST SWAP2 POP PUSH2 0x1500 DUP3 PUSH2 0x14C1 JUMP JUMPDEST PUSH1 0x20 DUP3 ADD SWAP1 POP SWAP2 SWAP1 POP JUMP JUMPDEST PUSH0 PUSH1 0x20 DUP3 ADD SWAP1 POP DUP2 DUP2 SUB PUSH0 DUP4 ADD MSTORE PUSH2 0x1522 DUP2 PUSH2 0x14E9 JUMP JUMPDEST SWAP1 POP SWAP2 SWAP1 POP JUMP JUMPDEST PUSH32 0x4E487B7100000000000000000000000000000000000000000000000000000000 PUSH0 MSTORE PUSH1 0x32 PUSH1 0x4 MSTORE PUSH1 0x24 PUSH0 REVERT JUMPDEST PUSH32 0x75696E7420617272617920706172616D6574657220636F72726563742E000000 PUSH0 DUP3 ADD MSTORE POP JUMP JUMPDEST PUSH0 PUSH2 0x158A PUSH1 0x1D DUP4 PUSH2 0xBBE JUMP JUMPDEST SWAP2 POP PUSH2 0x1595 DUP3 PUSH2 0x1556 JUMP JUMPDEST PUSH1 0x20 DUP3 ADD SWAP1 POP SWAP2 SWAP1 POP JUMP JUMPDEST PUSH0 PUSH1 0x20 DUP3 ADD SWAP1 POP DUP2 DUP2 SUB PUSH0 DUP4 ADD MSTORE PUSH2 0x15B7 DUP2 PUSH2 0x157E JUMP JUMPDEST SWAP1 POP SWAP2 SWAP1 POP JUMP JUMPDEST PUSH32 0x6164647265737320706172616D6574657220636F72726563742E000000000000 PUSH0 DUP3 ADD MSTORE POP JUMP JUMPDEST PUSH0 PUSH2 0x15F2 PUSH1 0x1A DUP4 PUSH2 0xBBE JUMP JUMPDEST SWAP2 POP PUSH2 0x15FD DUP3 PUSH2 0x15BE JUMP JUMPDEST PUSH1 0x20 DUP3 ADD SWAP1 POP SWAP2 SWAP1 POP JUMP JUMPDEST PUSH0 PUSH1 0x20 DUP3 ADD SWAP1 POP DUP2 DUP2 SUB PUSH0 DUP4 ADD MSTORE PUSH2 0x161F DUP2 PUSH2 0x15E6 JUMP JUMPDEST SWAP1 POP SWAP2 SWAP1 POP JUMP JUMPDEST PUSH32 0x427269616E000000000000000000000000000000000000000000000000000000 PUSH0 DUP3 ADD MSTORE POP JUMP JUMPDEST PUSH0 PUSH2 0x165A PUSH1 0x5 DUP4 PUSH2 0x11BC JUMP JUMPDEST SWAP2 POP PUSH2 0x1665 DUP3 PUSH2 0x1626 JUMP JUMPDEST PUSH1 0x5 DUP3 ADD SWAP1 POP SWAP2 SWAP1 POP JUMP JUMPDEST PUSH0 PUSH2 0x167A DUP3 PUSH2 0x164E JUMP JUMPDEST SWAP2 POP DUP2 SWAP1 POP SWAP2 SWAP1 POP JUMP JUMPDEST PUSH0 PUSH2 0x168F DUP4 DUP6 PUSH2 0x11BC JUMP JUMPDEST SWAP4 POP PUSH2 0x169C DUP4 DUP6 DUP5 PUSH2 0x1003 JUMP JUMPDEST DUP3 DUP5 ADD SWAP1 POP SWAP4 SWAP3 POP POP POP JUMP JUMPDEST PUSH0 PUSH2 0x16B4 DUP3 DUP5 DUP7 PUSH2 0x1684 JUMP JUMPDEST SWAP2 POP DUP2 SWAP1 POP SWAP4 SWAP3 POP POP POP JUMP JUMPDEST PUSH32 0x737472696E6720706172616D6574657220636F72726563742E00000000000000 PUSH0 DUP3 ADD MSTORE POP JUMP JUMPDEST PUSH0 PUSH2 0x16F4 PUSH1 0x19 DUP4 PUSH2 0xBBE JUMP JUMPDEST SWAP2 POP PUSH2 0x16FF DUP3 PUSH2 0x16C0 JUMP JUMPDEST PUSH1 0x20 DUP3 ADD SWAP1 POP SWAP2 SWAP1 POP JUMP JUMPDEST PUSH0 PUSH1 0x20 DUP3 ADD SWAP1 POP DUP2 DUP2 SUB PUSH0 DUP4 ADD MSTORE PUSH2 0x1721 DUP2 PUSH2 0x16E8 JUMP JUMPDEST SWAP1 POP SWAP2 SWAP1 POP JUMP JUMPDEST PUSH0 PUSH1 0x60 DUP3 ADD SWAP1 POP DUP2 DUP2 SUB PUSH0 DUP4 ADD MSTORE PUSH2 0x173F DUP2 PUSH2 0x1363 JUMP JUMPDEST SWAP1 POP PUSH2 0x174E PUSH1 0x20 DUP4 ADD DUP6 PUSH2 0x13E2 JUMP JUMPDEST PUSH2 0x175B PUSH1 0x40 DUP4 ADD DUP5 PUSH2 0xC86 JUMP JUMPDEST SWAP4 SWAP3 POP POP POP JUMP JUMPDEST PUSH0 PUSH1 0x20 DUP3 ADD SWAP1 POP PUSH2 0x1775 PUSH0 DUP4 ADD DUP5 PUSH2 0x13E2 JUMP JUMPDEST SWAP3 SWAP2 POP POP JUMP JUMPDEST PUSH0 PUSH1 0x20 DUP3 ADD SWAP1 POP PUSH2 0x178E PUSH0 DUP4 ADD DUP5 PUSH2 0xC86 JUMP JUMPDEST SWAP3 SWAP2 POP POP JUMP JUMPDEST PUSH0 PUSH1 0x3 SWAP1 POP SWAP2 SWAP1 POP JUMP JUMPDEST PUSH0 DUP2 SWAP1 POP SWAP3 SWAP2 POP POP JUMP JUMPDEST PUSH0 DUP2 SWAP1 POP SWAP2 SWAP1 POP JUMP JUMPDEST PUSH0 DUP3 DUP3 MSTORE PUSH1 0x20 DUP3 ADD SWAP1 POP SWAP3 SWAP2 POP POP JUMP JUMPDEST PUSH0 PUSH2 0x17CB DUP3 PUSH2 0xBB4 JUMP JUMPDEST PUSH2 0x17D5 DUP2 DUP6 PUSH2 0x17B1 JUMP JUMPDEST SWAP4 POP PUSH2 0x17E5 DUP2 DUP6 PUSH1 0x20 DUP7 ADD PUSH2 0xBCE JUMP JUMPDEST PUSH2 0x17EE DUP2 PUSH2 0xBF6 JUMP JUMPDEST DUP5 ADD SWAP2 POP POP SWAP3 SWAP2 POP POP JUMP JUMPDEST PUSH0 PUSH2 0x1804 DUP4 DUP4 PUSH2 0x17C1 JUMP JUMPDEST SWAP1 POP SWAP3 SWAP2 POP POP JUMP JUMPDEST PUSH0 PUSH1 0x20 DUP3 ADD SWAP1 POP SWAP2 SWAP1 POP JUMP JUMPDEST PUSH0 PUSH2 0x1822 DUP3 PUSH2 0x1794 JUMP JUMPDEST PUSH2 0x182C DUP2 DUP6 PUSH2 0x179E JUMP JUMPDEST SWAP4 POP DUP4 PUSH1 0x20 DUP3 MUL DUP6 ADD PUSH2 0x183E DUP6 PUSH2 0x17A8 JUMP JUMPDEST DUP1 PUSH0 JUMPDEST DUP6 DUP2 LT ISZERO PUSH2 0x1879 JUMPI DUP5 DUP5 SUB DUP10 MSTORE DUP2 MLOAD PUSH2 0x185A DUP6 DUP3 PUSH2 0x17F9 JUMP JUMPDEST SWAP5 POP PUSH2 0x1865 DUP4 PUSH2 0x180C JUMP JUMPDEST SWAP3 POP PUSH1 0x20 DUP11 ADD SWAP10 POP POP PUSH1 0x1 DUP2 ADD SWAP1 POP PUSH2 0x1841 JUMP JUMPDEST POP DUP3 SWAP8 POP DUP8 SWAP6 POP POP POP POP POP POP SWAP3 SWAP2 POP POP JUMP JUMPDEST PUSH0 PUSH1 0x20 DUP3 ADD SWAP1 POP DUP2 DUP2 SUB PUSH0 DUP4 ADD MSTORE PUSH2 0x18A3 DUP2 DUP5 PUSH2 0x1818 JUMP JUMPDEST SWAP1 POP SWAP3 SWAP2 POP POP JUMP INVALID LOG2 PUSH5 0x6970667358 0x22 SLT KECCAK256 PUSH25 0xC9117C674C8BD4674187EB713031C4C7EE3798C3235D61DB1B 0xA8 CALLVALUE RETURNDATACOPY EXTCODECOPY 0xE GASPRICE PUSH5 0x736F6C6343 STOP ADDMOD ISZERO STOP CALLER "
				},
				"gasEstimates": {
					"creation": {
						"codeDepositCost": "1273800",
						"executionCost": "1327",
						"totalCost": "1275127"
					},
					"external": {
						"": "174",
						"AppWorks(bool,uint256[],address,string)": "infinite",
						"encode()": "infinite",
						"encodeAddress()": "infinite",
						"encodeAppworks()": "infinite",
						"encodeCall(address,uint256)": "infinite",
						"encodeFunSelector(string)": "infinite",
						"encodeOne()": "infinite",
						"encodePackedAppworks()": "infinite",
						"encodePackedAppworksV2()": "infinite",
						"encodeWithSelector(address,uint256)": "infinite",
						"encodeWithSignature(address,uint256)": "infinite",
						"encodeWithSignatureAppWorks(bool,uint256[],address,string)": "infinite",
						"encodeWithSignatureSchool()": "infinite",
						"testABIDecode(bytes)": "infinite"
					}
				},
				"methodIdentifiers": {
					"AppWorks(bool,uint256[],address,string)": "ae53a4a5",
					"encode()": "bd14598f",
					"encodeAddress()": "cf57b6eb",
					"encodeAppworks()": "733e2f06",
					"encodeCall(address,uint256)": "25adff1c",
					"encodeFunSelector(string)": "6458817c",
					"encodeOne()": "c1ed13ef",
					"encodePackedAppworks()": "44d1587c",
					"encodePackedAppworksV2()": "7faec262",
					"encodeWithSelector(address,uint256)": "5fc6ac0e",
					"encodeWithSignature(address,uint256)": "7e3b06fb",
					"encodeWithSignatureAppWorks(bool,uint256[],address,string)": "4e10efba",
					"encodeWithSignatureSchool()": "d264610d",
					"testABIDecode(bytes)": "065fdac2"
				}
			},
			"storageLayout": {
				"storage": [],
				"types": null
			},
			"userdoc": {
				"kind": "user",
				"methods": {},
				"version": 1
			}
		}
	}
}