{
	"week5/testABIEncode.sol": {
		"TestEncode": {
			"abi": [
				{
					"stateMutability": "payable",
					"type": "fallback"
				},
				{
					"inputs": [
						{
							"internalType": "bool",
							"name": "b",
							"type": "bool"
						},
						{
							"internalType": "uint256[]",
							"name": "arrUint",
							"type": "uint256[]"
						},
						{
							"internalType": "address",
							"name": "a",
							"type": "address"
						},
						{
							"internalType": "string",
							"name": "array",
							"type": "string"
						}
					],
					"name": "AppWorks",
					"outputs": [
						{
							"internalType": "bool",
							"name": "",
							"type": "bool"
						}
					],
					"stateMutability": "pure",
					"type": "function"
				},
				{
					"inputs": [],
					"name": "encode",
					"outputs": [
						{
							"internalType": "bytes",
							"name": "",
							"type": "bytes"
						}
					],
					"stateMutability": "pure",
					"type": "function"
				},
				{
					"inputs": [],
					"name": "encodeAddress",
					"outputs": [
						{
							"internalType": "bytes",
							"name": "",
							"type": "bytes"
						}
					],
					"stateMutability": "pure",
					"type": "function"
				},
				{
					"inputs": [],
					"name": "encodeAppworks",
					"outputs": [
						{
							"internalType": "bytes",
							"name": "",
							"type": "bytes"
						}
					],
					"stateMutability": "pure",
					"type": "function"
				},
				{
					"inputs": [
						{
							"internalType": "address",
							"name": "to",
							"type": "address"
						},
						{
							"internalType": "uint256",
							"name": "amount",
							"type": "uint256"
						}
					],
					"name": "encodeCall",
					"outputs": [
						{
							"internalType": "bytes",
							"name": "",
							"type": "bytes"
						}
					],
					"stateMutability": "pure",
					"type": "function"
				},
				{
					"inputs": [
						{
							"internalType": "string",
							"name": "s",
							"type": "string"
						}
					],
					"name": "encodeFunSelector",
					"outputs": [
						{
							"internalType": "bytes",
							"name": "",
							"type": "bytes"
						}
					],
					"stateMutability": "pure",
					"type": "function"
				},
				{
					"inputs": [],
					"name": "encodeOne",
					"outputs": [
						{
							"internalType": "bytes",
							"name": "",
							"type": "bytes"
						}
					],
					"stateMutability": "pure",
					"type": "function"
				},
				{
					"inputs": [],
					"name": "encodePackedAppworks",
					"outputs": [
						{
							"internalType": "bytes",
							"name": "",
							"type": "bytes"
						}
					],
					"stateMutability": "pure",
					"type": "function"
				},
				{
					"inputs": [],
					"name": "encodePackedAppworksV2",
					"outputs": [
						{
							"internalType": "bytes",
							"name": "",
							"type": "bytes"
						}
					],
					"stateMutability": "pure",
					"type": "function"
				},
				{
					"inputs": [
						{
							"internalType": "address",
							"name": "to",
							"type": "address"
						},
						{
							"internalType": "uint256",
							"name": "amount",
							"type": "uint256"
						}
					],
					"name": "encodeWithSelector",
					"outputs": [
						{
							"internalType": "bytes",
							"name": "",
							"type": "bytes"
						}
					],
					"stateMutability": "pure",
					"type": "function"
				},
				{
					"inputs": [
						{
							"internalType": "address",
							"name": "to",
							"type": "address"
						},
						{
							"internalType": "uint256",
							"name": "amount",
							"type": "uint256"
						}
					],
					"name": "encodeWithSignature",
					"outputs": [
						{
							"internalType": "bytes",
							"name": "",
							"type": "bytes"
						}
					],
					"stateMutability": "pure",
					"type": "function"
				},
				{
					"inputs": [
						{
							"internalType": "bool",
							"name": "b",
							"type": "bool"
						},
						{
							"internalType": "uint256[]",
							"name": "arrUint",
							"type": "uint256[]"
						},
						{
							"internalType": "address",
							"name": "a",
							"type": "address"
						},
						{
							"internalType": "string",
							"name": "array",
							"type": "string"
						}
					],
					"name": "encodeWithSignatureAppWorks",
					"outputs": [
						{
							"internalType": "bytes",
							"name": "",
							"type": "bytes"
						}
					],
					"stateMutability": "pure",
					"type": "function"
				},
				{
					"inputs": [],
					"name": "encodeWithSignatureSchool",
					"outputs": [
						{
							"internalType": "bytes",
							"name": "",
							"type": "bytes"
						}
					],
					"stateMutability": "pure",
					"type": "function"
				},
				{
					"inputs": [
						{
							"internalType": "bytes",
							"name": "data",
							"type": "bytes"
						}
					],
					"name": "testABIDecode",
					"outputs": [
						{
							"internalType": "string",
							"name": "arr",
							"type": "string"
						},
						{
							"internalType": "uint256",
							"name": "u",
							"type": "uint256"
						},
						{
							"internalType": "address",
							"name": "a",
							"type": "address"
						}
					],
					"stateMutability": "pure",
					"type": "function"
				},
				{
					"inputs": [
						{
							"internalType": "uint256",
							"name": "tokenId",
							"type": "uint256"
						}
					],
					"name": "tokenURI",
					"outputs": [
						{
							"internalType": "string",
							"name": "",
							"type": "string"
						}
					],
					"stateMutability": "pure",
					"type": "function"
				}
			],
			"devdoc": {
				"kind": "dev",
				"methods": {},
				"version": 1
			},
			"evm": {
				"assembly": "    /* \"week5/testABIEncode.sol\":56:4616  contract TestEncode {... */\n  mstore(0x40, 0x80)\n  callvalue\n  dup1\n  iszero\n  tag_1\n  jumpi\n  0x00\n  dup1\n  revert\ntag_1:\n  pop\n  dataSize(sub_0)\n  dup1\n  dataOffset(sub_0)\n  0x00\n  codecopy\n  0x00\n  return\nstop\n\nsub_0: assembly {\n        /* \"week5/testABIEncode.sol\":56:4616  contract TestEncode {... */\n      mstore(0x40, 0x80)\n      jumpi(tag_1, lt(calldatasize, 0x04))\n      shr(0xe0, calldataload(0x00))\n      dup1\n      0x7e3b06fb\n      gt\n      tag_18\n      jumpi\n      dup1\n      0xc1ed13ef\n      gt\n      tag_19\n      jumpi\n      dup1\n      0xc1ed13ef\n      eq\n      tag_14\n      jumpi\n      dup1\n      0xc87b56dd\n      eq\n      tag_15\n      jumpi\n      dup1\n      0xcf57b6eb\n      eq\n      tag_16\n      jumpi\n      dup1\n      0xd264610d\n      eq\n      tag_17\n      jumpi\n      jump(tag_2)\n    tag_19:\n      dup1\n      0x7e3b06fb\n      eq\n      tag_10\n      jumpi\n      dup1\n      0x7faec262\n      eq\n      tag_11\n      jumpi\n      dup1\n      0xae53a4a5\n      eq\n      tag_12\n      jumpi\n      dup1\n      0xbd14598f\n      eq\n      tag_13\n      jumpi\n      jump(tag_2)\n    tag_18:\n      dup1\n      0x4e10efba\n      gt\n      tag_20\n      jumpi\n      dup1\n      0x4e10efba\n      eq\n      tag_6\n      jumpi\n      dup1\n      0x5fc6ac0e\n      eq\n      tag_7\n      jumpi\n      dup1\n      0x6458817c\n      eq\n      tag_8\n      jumpi\n      dup1\n      0x733e2f06\n      eq\n      tag_9\n      jumpi\n      jump(tag_2)\n    tag_20:\n      dup1\n      0x065fdac2\n      eq\n      tag_3\n      jumpi\n      dup1\n      0x25adff1c\n      eq\n      tag_4\n      jumpi\n      dup1\n      0x44d1587c\n      eq\n      tag_5\n      jumpi\n      jump(tag_2)\n    tag_1:\n    tag_2:\n      stop\n        /* \"week5/testABIEncode.sol\":2016:2191  function testABIDecode(bytes calldata data) external pure returns (string memory arr,uint256 u,address a) {... */\n    tag_3:\n      callvalue\n      dup1\n      iszero\n      tag_23\n      jumpi\n      0x00\n      dup1\n      revert\n    tag_23:\n      pop\n      tag_24\n      0x04\n      dup1\n      calldatasize\n      sub\n      dup2\n      add\n      swap1\n      tag_25\n      swap2\n      swap1\n      tag_26\n      jump\t// in\n    tag_25:\n      tag_27\n      jump\t// in\n    tag_24:\n      mload(0x40)\n      tag_28\n      swap4\n      swap3\n      swap2\n      swap1\n      tag_29\n      jump\t// in\n    tag_28:\n      mload(0x40)\n      dup1\n      swap2\n      sub\n      swap1\n      return\n        /* \"week5/testABIEncode.sol\":2739:2939  function encodeCall(address to, uint amount) external pure returns (bytes memory) {... */\n    tag_4:\n      callvalue\n      dup1\n      iszero\n      tag_30\n      jumpi\n      0x00\n      dup1\n      revert\n    tag_30:\n      pop\n      tag_31\n      0x04\n      dup1\n      calldatasize\n      sub\n      dup2\n      add\n      swap1\n      tag_32\n      swap2\n      swap1\n      tag_33\n      jump\t// in\n    tag_32:\n      tag_34\n      jump\t// in\n    tag_31:\n      mload(0x40)\n      tag_35\n      swap2\n      swap1\n      tag_36\n      jump\t// in\n    tag_35:\n      mload(0x40)\n      dup1\n      swap2\n      sub\n      swap1\n      return\n        /* \"week5/testABIEncode.sol\":863:982  function encodePackedAppworks() external pure returns (bytes memory) {... */\n    tag_5:\n      callvalue\n      dup1\n      iszero\n      tag_37\n      jumpi\n      0x00\n      dup1\n      revert\n    tag_37:\n      pop\n      tag_38\n      tag_39\n      jump\t// in\n    tag_38:\n      mload(0x40)\n      tag_40\n      swap2\n      swap1\n      tag_36\n      jump\t// in\n    tag_40:\n      mload(0x40)\n      dup1\n      swap2\n      sub\n      swap1\n      return\n        /* \"week5/testABIEncode.sol\":3014:3300  function encodeWithSignatureAppWorks(... */\n    tag_6:\n      callvalue\n      dup1\n      iszero\n      tag_41\n      jumpi\n      0x00\n      dup1\n      revert\n    tag_41:\n      pop\n      tag_42\n      0x04\n      dup1\n      calldatasize\n      sub\n      dup2\n      add\n      swap1\n      tag_43\n      swap2\n      swap1\n      tag_44\n      jump\t// in\n    tag_43:\n      tag_45\n      jump\t// in\n    tag_42:\n      mload(0x40)\n      tag_46\n      swap2\n      swap1\n      tag_36\n      jump\t// in\n    tag_46:\n      mload(0x40)\n      dup1\n      swap2\n      sub\n      swap1\n      return\n        /* \"week5/testABIEncode.sol\":2463:2733  function encodeWithSelector(... */\n    tag_7:\n      callvalue\n      dup1\n      iszero\n      tag_47\n      jumpi\n      0x00\n      dup1\n      revert\n    tag_47:\n      pop\n      tag_48\n      0x04\n      dup1\n      calldatasize\n      sub\n      dup2\n      add\n      swap1\n      tag_49\n      swap2\n      swap1\n      tag_33\n      jump\t// in\n    tag_49:\n      tag_50\n      jump\t// in\n    tag_48:\n      mload(0x40)\n      tag_51\n      swap2\n      swap1\n      tag_36\n      jump\t// in\n    tag_51:\n      mload(0x40)\n      dup1\n      swap2\n      sub\n      swap1\n      return\n        /* \"week5/testABIEncode.sol\":4064:4193  function encodeFunSelector(string memory s) external pure returns (bytes memory) {... */\n    tag_8:\n      callvalue\n      dup1\n      iszero\n      tag_52\n      jumpi\n      0x00\n      dup1\n      revert\n    tag_52:\n      pop\n      tag_53\n      0x04\n      dup1\n      calldatasize\n      sub\n      dup2\n      add\n      swap1\n      tag_54\n      swap2\n      swap1\n      tag_55\n      jump\t// in\n    tag_54:\n      tag_56\n      jump\t// in\n    tag_53:\n      mload(0x40)\n      tag_57\n      swap2\n      swap1\n      tag_36\n      jump\t// in\n    tag_57:\n      mload(0x40)\n      dup1\n      swap2\n      sub\n      swap1\n      return\n        /* \"week5/testABIEncode.sol\":262:369  function encodeAppworks() external pure returns (bytes memory) {... */\n    tag_9:\n      callvalue\n      dup1\n      iszero\n      tag_58\n      jumpi\n      0x00\n      dup1\n      revert\n    tag_58:\n      pop\n      tag_59\n      tag_60\n      jump\t// in\n    tag_59:\n      mload(0x40)\n      tag_61\n      swap2\n      swap1\n      tag_36\n      jump\t// in\n    tag_61:\n      mload(0x40)\n      dup1\n      swap2\n      sub\n      swap1\n      return\n        /* \"week5/testABIEncode.sol\":2197:2457  function encodeWithSignature(... */\n    tag_10:\n      callvalue\n      dup1\n      iszero\n      tag_62\n      jumpi\n      0x00\n      dup1\n      revert\n    tag_62:\n      pop\n      tag_63\n      0x04\n      dup1\n      calldatasize\n      sub\n      dup2\n      add\n      swap1\n      tag_64\n      swap2\n      swap1\n      tag_33\n      jump\t// in\n    tag_64:\n      tag_65\n      jump\t// in\n    tag_63:\n      mload(0x40)\n      tag_66\n      swap2\n      swap1\n      tag_36\n      jump\t// in\n    tag_66:\n      mload(0x40)\n      dup1\n      swap2\n      sub\n      swap1\n      return\n        /* \"week5/testABIEncode.sol\":988:1767  function encodePackedAppworksV2() external pure returns (bytes memory) {... */\n    tag_11:\n      callvalue\n      dup1\n      iszero\n      tag_67\n      jumpi\n      0x00\n      dup1\n      revert\n    tag_67:\n      pop\n      tag_68\n      tag_69\n      jump\t// in\n    tag_68:\n      mload(0x40)\n      tag_70\n      swap2\n      swap1\n      tag_36\n      jump\t// in\n    tag_70:\n      mload(0x40)\n      dup1\n      swap2\n      sub\n      swap1\n      return\n        /* \"week5/testABIEncode.sol\":3307:3882  function AppWorks(... */\n    tag_12:\n      callvalue\n      dup1\n      iszero\n      tag_71\n      jumpi\n      0x00\n      dup1\n      revert\n    tag_71:\n      pop\n      tag_72\n      0x04\n      dup1\n      calldatasize\n      sub\n      dup2\n      add\n      swap1\n      tag_73\n      swap2\n      swap1\n      tag_44\n      jump\t// in\n    tag_73:\n      tag_74\n      jump\t// in\n    tag_72:\n      mload(0x40)\n      tag_75\n      swap2\n      swap1\n      tag_76\n      jump\t// in\n    tag_75:\n      mload(0x40)\n      dup1\n      swap2\n      sub\n      swap1\n      return\n        /* \"week5/testABIEncode.sol\":112:256  function encode() external pure returns (bytes memory) {... */\n    tag_13:\n      callvalue\n      dup1\n      iszero\n      tag_77\n      jumpi\n      0x00\n      dup1\n      revert\n    tag_77:\n      pop\n      tag_78\n      tag_79\n      jump\t// in\n    tag_78:\n      mload(0x40)\n      tag_80\n      swap2\n      swap1\n      tag_36\n      jump\t// in\n    tag_80:\n      mload(0x40)\n      dup1\n      swap2\n      sub\n      swap1\n      return\n        /* \"week5/testABIEncode.sol\":1773:1866  function encodeOne() external pure returns (bytes memory) {... */\n    tag_14:\n      callvalue\n      dup1\n      iszero\n      tag_81\n      jumpi\n      0x00\n      dup1\n      revert\n    tag_81:\n      pop\n      tag_82\n      tag_83\n      jump\t// in\n    tag_82:\n      mload(0x40)\n      tag_84\n      swap2\n      swap1\n      tag_36\n      jump\t// in\n    tag_84:\n      mload(0x40)\n      dup1\n      swap2\n      sub\n      swap1\n      return\n        /* \"week5/testABIEncode.sol\":4240:4403  function tokenURI(uint256 tokenId) public pure returns (string memory) {... */\n    tag_15:\n      callvalue\n      dup1\n      iszero\n      tag_85\n      jumpi\n      0x00\n      dup1\n      revert\n    tag_85:\n      pop\n      tag_86\n      0x04\n      dup1\n      calldatasize\n      sub\n      dup2\n      add\n      swap1\n      tag_87\n      swap2\n      swap1\n      tag_88\n      jump\t// in\n    tag_87:\n      tag_89\n      jump\t// in\n    tag_86:\n      mload(0x40)\n      tag_90\n      swap2\n      swap1\n      tag_91\n      jump\t// in\n    tag_90:\n      mload(0x40)\n      dup1\n      swap2\n      sub\n      swap1\n      return\n        /* \"week5/testABIEncode.sol\":1872:2010  function encodeAddress() external pure returns (bytes memory) {... */\n    tag_16:\n      callvalue\n      dup1\n      iszero\n      tag_92\n      jumpi\n      0x00\n      dup1\n      revert\n    tag_92:\n      pop\n      tag_93\n      tag_94\n      jump\t// in\n    tag_93:\n      mload(0x40)\n      tag_95\n      swap2\n      swap1\n      tag_36\n      jump\t// in\n    tag_95:\n      mload(0x40)\n      dup1\n      swap2\n      sub\n      swap1\n      return\n        /* \"week5/testABIEncode.sol\":3893:4057  function encodeWithSignatureSchool() ... */\n    tag_17:\n      callvalue\n      dup1\n      iszero\n      tag_96\n      jumpi\n      0x00\n      dup1\n      revert\n    tag_96:\n      pop\n      tag_97\n      tag_98\n      jump\t// in\n    tag_97:\n      mload(0x40)\n      tag_99\n      swap2\n      swap1\n      tag_36\n      jump\t// in\n    tag_99:\n      mload(0x40)\n      dup1\n      swap2\n      sub\n      swap1\n      return\n        /* \"week5/testABIEncode.sol\":2016:2191  function testABIDecode(bytes calldata data) external pure returns (string memory arr,uint256 u,address a) {... */\n    tag_27:\n        /* \"week5/testABIEncode.sol\":2083:2100  string memory arr */\n      0x60\n        /* \"week5/testABIEncode.sol\":2101:2110  uint256 u */\n      0x00\n        /* \"week5/testABIEncode.sol\":2111:2120  address a */\n      dup1\n        /* \"week5/testABIEncode.sol\":2153:2157  data */\n      dup5\n      dup5\n        /* \"week5/testABIEncode.sol\":2142:2184  abi.decode(data, (string,uint256,address)) */\n      dup2\n      add\n      swap1\n      tag_101\n      swap2\n      swap1\n      tag_102\n      jump\t// in\n    tag_101:\n        /* \"week5/testABIEncode.sol\":2130:2184  (arr,u,a) = abi.decode(data, (string,uint256,address)) */\n      dup1\n      swap4\n      pop\n      dup2\n      swap5\n      pop\n      dup3\n      swap6\n      pop\n      pop\n      pop\n      pop\n        /* \"week5/testABIEncode.sol\":2016:2191  function testABIDecode(bytes calldata data) external pure returns (string memory arr,uint256 u,address a) {... */\n      swap3\n      pop\n      swap3\n      pop\n      swap3\n      jump\t// out\n        /* \"week5/testABIEncode.sol\":2739:2939  function encodeCall(address to, uint amount) external pure returns (bytes memory) {... */\n    tag_34:\n        /* \"week5/testABIEncode.sol\":2807:2819  bytes memory */\n      0x60\n        /* \"week5/testABIEncode.sol\":2920:2922  to */\n      dup3\n        /* \"week5/testABIEncode.sol\":2924:2930  amount */\n      dup3\n        /* \"week5/testABIEncode.sol\":2887:2932  abi.encodeCall(IERC20.transfer, (to, amount)) */\n      add(0x24, mload(0x40))\n      tag_104\n      swap3\n      swap2\n      swap1\n      tag_105\n      jump\t// in\n    tag_104:\n      mload(0x40)\n      0x20\n      dup2\n      dup4\n      sub\n      sub\n      dup2\n      mstore\n      swap1\n      0x40\n      mstore\n      shl(0xe0, 0xa9059cbb)\n      0x20\n      dup3\n      add\n      dup1\n      mload\n      0xffffffffffffffffffffffffffffffffffffffffffffffffffffffff\n      dup4\n      dup2\n      dup4\n      and\n      or\n      dup4\n      mstore\n      pop\n      pop\n      pop\n      pop\n        /* \"week5/testABIEncode.sol\":2880:2932  return abi.encodeCall(IERC20.transfer, (to, amount)) */\n      swap1\n      pop\n        /* \"week5/testABIEncode.sol\":2739:2939  function encodeCall(address to, uint amount) external pure returns (bytes memory) {... */\n      swap3\n      swap2\n      pop\n      pop\n      jump\t// out\n        /* \"week5/testABIEncode.sol\":863:982  function encodePackedAppworks() external pure returns (bytes memory) {... */\n    tag_39:\n        /* \"week5/testABIEncode.sol\":918:930  bytes memory */\n      0x60\n        /* \"week5/testABIEncode.sol\":947:975  abi.encodePacked(\"appworks\") */\n      add(0x20, mload(0x40))\n      tag_107\n      swap1\n      tag_108\n      jump\t// in\n    tag_107:\n      mload(0x40)\n      0x20\n      dup2\n      dup4\n      sub\n      sub\n      dup2\n      mstore\n      swap1\n      0x40\n      mstore\n        /* \"week5/testABIEncode.sol\":940:975  return abi.encodePacked(\"appworks\") */\n      swap1\n      pop\n        /* \"week5/testABIEncode.sol\":863:982  function encodePackedAppworks() external pure returns (bytes memory) {... */\n      swap1\n      jump\t// out\n        /* \"week5/testABIEncode.sol\":3014:3300  function encodeWithSignatureAppWorks(... */\n    tag_45:\n        /* \"week5/testABIEncode.sol\":3176:3188  bytes memory */\n      0x60\n        /* \"week5/testABIEncode.sol\":3274:3275  b */\n      dup7\n        /* \"week5/testABIEncode.sol\":3277:3284  arrUint */\n      dup7\n      dup7\n        /* \"week5/testABIEncode.sol\":3285:3286  a */\n      dup7\n        /* \"week5/testABIEncode.sol\":3287:3292  array */\n      dup7\n      dup7\n        /* \"week5/testABIEncode.sol\":3207:3293  abi.encodeWithSignature(\"AppWorks(bool,uint256[],address,string)\", b, arrUint,a,array) */\n      add(0x24, mload(0x40))\n      tag_110\n      swap7\n      swap6\n      swap5\n      swap4\n      swap3\n      swap2\n      swap1\n      tag_111\n      jump\t// in\n    tag_110:\n      mload(0x40)\n      0x20\n      dup2\n      dup4\n      sub\n      sub\n      dup2\n      mstore\n      swap1\n      0x40\n      mstore\n      and(not(0xffffffffffffffffffffffffffffffffffffffffffffffffffffffff), 0xae53a4a500000000000000000000000000000000000000000000000000000000)\n      0x20\n      dup3\n      add\n      dup1\n      mload\n      0xffffffffffffffffffffffffffffffffffffffffffffffffffffffff\n      dup4\n      dup2\n      dup4\n      and\n      or\n      dup4\n      mstore\n      pop\n      pop\n      pop\n      pop\n        /* \"week5/testABIEncode.sol\":3200:3293  return abi.encodeWithSignature(\"AppWorks(bool,uint256[],address,string)\", b, arrUint,a,array) */\n      swap1\n      pop\n        /* \"week5/testABIEncode.sol\":3014:3300  function encodeWithSignatureAppWorks(... */\n      swap7\n      swap6\n      pop\n      pop\n      pop\n      pop\n      pop\n      pop\n      jump\t// out\n        /* \"week5/testABIEncode.sol\":2463:2733  function encodeWithSelector(... */\n    tag_50:\n        /* \"week5/testABIEncode.sol\":2561:2573  bytes memory */\n      0x60\n        /* \"week5/testABIEncode.sol\":2689:2713  IERC20.transfer.selector */\n      shl(0xe0, 0xa9059cbb)\n        /* \"week5/testABIEncode.sol\":2715:2717  to */\n      dup4\n        /* \"week5/testABIEncode.sol\":2719:2725  amount */\n      dup4\n        /* \"week5/testABIEncode.sol\":2666:2726  abi.encodeWithSelector(IERC20.transfer.selector, to, amount) */\n      add(0x24, mload(0x40))\n      tag_113\n      swap3\n      swap2\n      swap1\n      tag_105\n      jump\t// in\n    tag_113:\n      mload(0x40)\n      0x20\n      dup2\n      dup4\n      sub\n      sub\n      dup2\n      mstore\n      swap1\n      0x40\n      mstore\n      swap1\n      not(0xffffffffffffffffffffffffffffffffffffffffffffffffffffffff)\n      and\n      0x20\n      dup3\n      add\n      dup1\n      mload\n      0xffffffffffffffffffffffffffffffffffffffffffffffffffffffff\n      dup4\n      dup2\n      dup4\n      and\n      or\n      dup4\n      mstore\n      pop\n      pop\n      pop\n      pop\n        /* \"week5/testABIEncode.sol\":2659:2726  return abi.encodeWithSelector(IERC20.transfer.selector, to, amount) */\n      swap1\n      pop\n        /* \"week5/testABIEncode.sol\":2463:2733  function encodeWithSelector(... */\n      swap3\n      swap2\n      pop\n      pop\n      jump\t// out\n        /* \"week5/testABIEncode.sol\":4064:4193  function encodeFunSelector(string memory s) external pure returns (bytes memory) {... */\n    tag_56:\n        /* \"week5/testABIEncode.sol\":4131:4143  bytes memory */\n      0x60\n        /* \"week5/testABIEncode.sol\":4184:4185  s */\n      dup2\n        /* \"week5/testABIEncode.sol\":4160:4186  abi.encodeWithSignature(s) */\n      add(0x24, mload(0x40))\n      mload(0x40)\n      0x20\n      dup2\n      dup4\n      sub\n      sub\n      dup2\n      mstore\n      swap1\n      0x40\n      mstore\n      swap1\n      mload(0x40)\n      tag_115\n      swap2\n      swap1\n      tag_116\n      jump\t// in\n    tag_115:\n      mload(0x40)\n      dup1\n      swap2\n      sub\n      swap1\n      keccak256\n      not(0xffffffffffffffffffffffffffffffffffffffffffffffffffffffff)\n      and\n      0x20\n      dup3\n      add\n      dup1\n      mload\n      0xffffffffffffffffffffffffffffffffffffffffffffffffffffffff\n      dup4\n      dup2\n      dup4\n      and\n      or\n      dup4\n      mstore\n      pop\n      pop\n      pop\n      pop\n        /* \"week5/testABIEncode.sol\":4153:4186  return abi.encodeWithSignature(s) */\n      swap1\n      pop\n        /* \"week5/testABIEncode.sol\":4064:4193  function encodeFunSelector(string memory s) external pure returns (bytes memory) {... */\n      swap2\n      swap1\n      pop\n      jump\t// out\n        /* \"week5/testABIEncode.sol\":262:369  function encodeAppworks() external pure returns (bytes memory) {... */\n    tag_60:\n        /* \"week5/testABIEncode.sol\":311:323  bytes memory */\n      0x60\n        /* \"week5/testABIEncode.sol\":340:362  abi.encode(\"appworks\") */\n      add(0x20, mload(0x40))\n      tag_118\n      swap1\n      tag_119\n      jump\t// in\n    tag_118:\n      mload(0x40)\n      0x20\n      dup2\n      dup4\n      sub\n      sub\n      dup2\n      mstore\n      swap1\n      0x40\n      mstore\n        /* \"week5/testABIEncode.sol\":333:362  return abi.encode(\"appworks\") */\n      swap1\n      pop\n        /* \"week5/testABIEncode.sol\":262:369  function encodeAppworks() external pure returns (bytes memory) {... */\n      swap1\n      jump\t// out\n        /* \"week5/testABIEncode.sol\":2197:2457  function encodeWithSignature(... */\n    tag_65:\n        /* \"week5/testABIEncode.sol\":2296:2308  bytes memory */\n      0x60\n        /* \"week5/testABIEncode.sol\":2439:2441  to */\n      dup3\n        /* \"week5/testABIEncode.sol\":2443:2449  amount */\n      dup3\n        /* \"week5/testABIEncode.sol\":2386:2450  abi.encodeWithSignature(\"transfer(address,uint256)\", to, amount) */\n      add(0x24, mload(0x40))\n      tag_121\n      swap3\n      swap2\n      swap1\n      tag_105\n      jump\t// in\n    tag_121:\n      mload(0x40)\n      0x20\n      dup2\n      dup4\n      sub\n      sub\n      dup2\n      mstore\n      swap1\n      0x40\n      mstore\n      and(not(0xffffffffffffffffffffffffffffffffffffffffffffffffffffffff), 0xa9059cbb00000000000000000000000000000000000000000000000000000000)\n      0x20\n      dup3\n      add\n      dup1\n      mload\n      0xffffffffffffffffffffffffffffffffffffffffffffffffffffffff\n      dup4\n      dup2\n      dup4\n      and\n      or\n      dup4\n      mstore\n      pop\n      pop\n      pop\n      pop\n        /* \"week5/testABIEncode.sol\":2379:2450  return abi.encodeWithSignature(\"transfer(address,uint256)\", to, amount) */\n      swap1\n      pop\n        /* \"week5/testABIEncode.sol\":2197:2457  function encodeWithSignature(... */\n      swap3\n      swap2\n      pop\n      pop\n      jump\t// out\n        /* \"week5/testABIEncode.sol\":988:1767  function encodePackedAppworksV2() external pure returns (bytes memory) {... */\n    tag_69:\n        /* \"week5/testABIEncode.sol\":1045:1057  bytes memory */\n      0x60\n        /* \"week5/testABIEncode.sol\":1096:1097  1 */\n      0x01\n        /* \"week5/testABIEncode.sol\":1098:1100  99 */\n      0x63\n        /* \"week5/testABIEncode.sol\":1074:1107  abi.encode(\"appworks\",1,99,\"jim\") */\n      add(0x20, mload(0x40))\n      tag_123\n      swap3\n      swap2\n      swap1\n      tag_124\n      jump\t// in\n    tag_123:\n      mload(0x40)\n      0x20\n      dup2\n      dup4\n      sub\n      sub\n      dup2\n      mstore\n      swap1\n      0x40\n      mstore\n        /* \"week5/testABIEncode.sol\":1067:1107  return abi.encode(\"appworks\",1,99,\"jim\") */\n      swap1\n      pop\n        /* \"week5/testABIEncode.sol\":988:1767  function encodePackedAppworksV2() external pure returns (bytes memory) {... */\n      swap1\n      jump\t// out\n        /* \"week5/testABIEncode.sol\":3307:3882  function AppWorks(... */\n    tag_74:\n        /* \"week5/testABIEncode.sol\":3449:3453  bool */\n      0x00\n        /* \"week5/testABIEncode.sol\":3472:3473  b */\n      dup7\n        /* \"week5/testABIEncode.sol\":3464:3500  require(b,\"bool parameter correct.\") */\n      tag_126\n      jumpi\n      mload(0x40)\n      0x08c379a000000000000000000000000000000000000000000000000000000000\n      dup2\n      mstore\n      0x04\n      add\n      tag_127\n      swap1\n      tag_128\n      jump\t// in\n    tag_127:\n      mload(0x40)\n      dup1\n      swap2\n      sub\n      swap1\n      revert\n    tag_126:\n        /* \"week5/testABIEncode.sol\":3532:3533  9 */\n      0x09\n        /* \"week5/testABIEncode.sol\":3518:3525  arrUint */\n      dup7\n      dup7\n        /* \"week5/testABIEncode.sol\":3526:3527  0 */\n      0x00\n        /* \"week5/testABIEncode.sol\":3518:3528  arrUint[0] */\n      dup2\n      dup2\n      lt\n      tag_129\n      jumpi\n      tag_130\n      tag_131\n      jump\t// in\n    tag_130:\n    tag_129:\n      swap1\n      pop\n      0x20\n      mul\n      add\n      calldataload\n        /* \"week5/testABIEncode.sol\":3518:3533  arrUint[0] == 9 */\n      eq\n        /* \"week5/testABIEncode.sol\":3510:3566  require(arrUint[0] == 9,\"uint array parameter correct.\") */\n      tag_132\n      jumpi\n      mload(0x40)\n      0x08c379a000000000000000000000000000000000000000000000000000000000\n      dup2\n      mstore\n      0x04\n      add\n      tag_133\n      swap1\n      tag_134\n      jump\t// in\n    tag_133:\n      mload(0x40)\n      dup1\n      swap2\n      sub\n      swap1\n      revert\n    tag_132:\n        /* \"week5/testABIEncode.sol\":3598:3600  18 */\n      0x12\n        /* \"week5/testABIEncode.sol\":3584:3591  arrUint */\n      dup7\n      dup7\n        /* \"week5/testABIEncode.sol\":3592:3593  1 */\n      0x01\n        /* \"week5/testABIEncode.sol\":3584:3594  arrUint[1] */\n      dup2\n      dup2\n      lt\n      tag_135\n      jumpi\n      tag_136\n      tag_131\n      jump\t// in\n    tag_136:\n    tag_135:\n      swap1\n      pop\n      0x20\n      mul\n      add\n      calldataload\n        /* \"week5/testABIEncode.sol\":3584:3600  arrUint[1] == 18 */\n      eq\n        /* \"week5/testABIEncode.sol\":3576:3633  require(arrUint[1] == 18,\"uint array parameter correct.\") */\n      tag_137\n      jumpi\n      mload(0x40)\n      0x08c379a000000000000000000000000000000000000000000000000000000000\n      dup2\n      mstore\n      0x04\n      add\n      tag_138\n      swap1\n      tag_134\n      jump\t// in\n    tag_138:\n      mload(0x40)\n      dup1\n      swap2\n      sub\n      swap1\n      revert\n    tag_137:\n        /* \"week5/testABIEncode.sol\":3656:3698  0x2Ff1F4e5D08a822743ec6b342c521A0a421456cb */\n      0x2ff1f4e5d08a822743ec6b342c521a0a421456cb\n        /* \"week5/testABIEncode.sol\":3651:3698  a == 0x2Ff1F4e5D08a822743ec6b342c521A0a421456cb */\n      0xffffffffffffffffffffffffffffffffffffffff\n      and\n        /* \"week5/testABIEncode.sol\":3651:3652  a */\n      dup5\n        /* \"week5/testABIEncode.sol\":3651:3698  a == 0x2Ff1F4e5D08a822743ec6b342c521A0a421456cb */\n      0xffffffffffffffffffffffffffffffffffffffff\n      and\n      eq\n        /* \"week5/testABIEncode.sol\":3643:3728  require(a == 0x2Ff1F4e5D08a822743ec6b342c521A0a421456cb,\"address parameter correct.\") */\n      tag_139\n      jumpi\n      mload(0x40)\n      0x08c379a000000000000000000000000000000000000000000000000000000000\n      dup2\n      mstore\n      0x04\n      add\n      tag_140\n      swap1\n      tag_141\n      jump\t// in\n    tag_140:\n      mload(0x40)\n      dup1\n      swap2\n      sub\n      swap1\n      revert\n    tag_139:\n        /* \"week5/testABIEncode.sol\":3796:3823  abi.encodePacked((\"Brian\")) */\n      add(0x20, mload(0x40))\n      tag_142\n      swap1\n      tag_143\n      jump\t// in\n    tag_142:\n      mload(0x40)\n      0x20\n      dup2\n      dup4\n      sub\n      sub\n      dup2\n      mstore\n      swap1\n      0x40\n      mstore\n        /* \"week5/testABIEncode.sol\":3786:3824  keccak256(abi.encodePacked((\"Brian\"))) */\n      dup1\n      mload\n      swap1\n      0x20\n      add\n      keccak256\n        /* \"week5/testABIEncode.sol\":3774:3779  array */\n      dup4\n      dup4\n        /* \"week5/testABIEncode.sol\":3756:3781  abi.encodePacked((array)) */\n      add(0x20, mload(0x40))\n      tag_144\n      swap3\n      swap2\n      swap1\n      tag_145\n      jump\t// in\n    tag_144:\n      mload(0x40)\n      0x20\n      dup2\n      dup4\n      sub\n      sub\n      dup2\n      mstore\n      swap1\n      0x40\n      mstore\n        /* \"week5/testABIEncode.sol\":3746:3782  keccak256(abi.encodePacked((array))) */\n      dup1\n      mload\n      swap1\n      0x20\n      add\n      keccak256\n        /* \"week5/testABIEncode.sol\":3746:3824  keccak256(abi.encodePacked((array))) == keccak256(abi.encodePacked((\"Brian\"))) */\n      eq\n        /* \"week5/testABIEncode.sol\":3738:3853  require(keccak256(abi.encodePacked((array))) == keccak256(abi.encodePacked((\"Brian\"))),\"string parameter correct.\") */\n      tag_146\n      jumpi\n      mload(0x40)\n      0x08c379a000000000000000000000000000000000000000000000000000000000\n      dup2\n      mstore\n      0x04\n      add\n      tag_147\n      swap1\n      tag_148\n      jump\t// in\n    tag_147:\n      mload(0x40)\n      dup1\n      swap2\n      sub\n      swap1\n      revert\n    tag_146:\n        /* \"week5/testABIEncode.sol\":3871:3875  true */\n      0x01\n        /* \"week5/testABIEncode.sol\":3864:3875  return true */\n      swap1\n      pop\n        /* \"week5/testABIEncode.sol\":3307:3882  function AppWorks(... */\n      swap7\n      swap6\n      pop\n      pop\n      pop\n      pop\n      pop\n      pop\n      jump\t// out\n        /* \"week5/testABIEncode.sol\":112:256  function encode() external pure returns (bytes memory) {... */\n    tag_79:\n        /* \"week5/testABIEncode.sol\":153:165  bytes memory */\n      0x60\n        /* \"week5/testABIEncode.sol\":204:205  1 */\n      0x01\n        /* \"week5/testABIEncode.sol\":206:248  0x2Ff1F4e5D08a822743ec6b342c521A0a421456cb */\n      0x2ff1f4e5d08a822743ec6b342c521a0a421456cb\n        /* \"week5/testABIEncode.sol\":182:249  abi.encode(\"appworks\",1,0x2Ff1F4e5D08a822743ec6b342c521A0a421456cb) */\n      add(0x20, mload(0x40))\n      tag_150\n      swap3\n      swap2\n      swap1\n      tag_151\n      jump\t// in\n    tag_150:\n      mload(0x40)\n      0x20\n      dup2\n      dup4\n      sub\n      sub\n      dup2\n      mstore\n      swap1\n      0x40\n      mstore\n        /* \"week5/testABIEncode.sol\":175:249  return abi.encode(\"appworks\",1,0x2Ff1F4e5D08a822743ec6b342c521A0a421456cb) */\n      swap1\n      pop\n        /* \"week5/testABIEncode.sol\":112:256  function encode() external pure returns (bytes memory) {... */\n      swap1\n      jump\t// out\n        /* \"week5/testABIEncode.sol\":1773:1866  function encodeOne() external pure returns (bytes memory) {... */\n    tag_83:\n        /* \"week5/testABIEncode.sol\":1817:1829  bytes memory */\n      0x60\n        /* \"week5/testABIEncode.sol\":1857:1858  1 */\n      0x01\n        /* \"week5/testABIEncode.sol\":1846:1859  abi.encode(1) */\n      add(0x20, mload(0x40))\n      tag_153\n      swap2\n      swap1\n      tag_154\n      jump\t// in\n    tag_153:\n      mload(0x40)\n      0x20\n      dup2\n      dup4\n      sub\n      sub\n      dup2\n      mstore\n      swap1\n      0x40\n      mstore\n        /* \"week5/testABIEncode.sol\":1839:1859  return abi.encode(1) */\n      swap1\n      pop\n        /* \"week5/testABIEncode.sol\":1773:1866  function encodeOne() external pure returns (bytes memory) {... */\n      swap1\n      jump\t// out\n        /* \"week5/testABIEncode.sol\":4240:4403  function tokenURI(uint256 tokenId) public pure returns (string memory) {... */\n    tag_89:\n        /* \"week5/testABIEncode.sol\":4296:4309  string memory */\n      0x60\n        /* \"week5/testABIEncode.sol\":4377:4384  tokenId */\n      dup2\n        /* \"week5/testABIEncode.sol\":4366:4385  abi.encode(tokenId) */\n      add(0x20, mload(0x40))\n      tag_156\n      swap2\n      swap1\n      tag_157\n      jump\t// in\n    tag_156:\n      mload(0x40)\n      0x20\n      dup2\n      dup4\n      sub\n      sub\n      dup2\n      mstore\n      swap1\n      0x40\n      mstore\n        /* \"week5/testABIEncode.sol\":4335:4395  abi.encodePacked(\"ABC\", string(abi.encode(tokenId)),\".json\") */\n      add(0x20, mload(0x40))\n      tag_158\n      swap2\n      swap1\n      tag_159\n      jump\t// in\n    tag_158:\n      mload(0x40)\n      0x20\n      dup2\n      dup4\n      sub\n      sub\n      dup2\n      mstore\n      swap1\n      0x40\n      mstore\n        /* \"week5/testABIEncode.sol\":4321:4396  return string(abi.encodePacked(\"ABC\", string(abi.encode(tokenId)),\".json\")) */\n      swap1\n      pop\n        /* \"week5/testABIEncode.sol\":4240:4403  function tokenURI(uint256 tokenId) public pure returns (string memory) {... */\n      swap2\n      swap1\n      pop\n      jump\t// out\n        /* \"week5/testABIEncode.sol\":1872:2010  function encodeAddress() external pure returns (bytes memory) {... */\n    tag_94:\n        /* \"week5/testABIEncode.sol\":1920:1932  bytes memory */\n      0x60\n        /* \"week5/testABIEncode.sol\":1960:2002  0x2Ff1F4e5D08a822743ec6b342c521A0a421456cb */\n      0x2ff1f4e5d08a822743ec6b342c521a0a421456cb\n        /* \"week5/testABIEncode.sol\":1949:2003  abi.encode(0x2Ff1F4e5D08a822743ec6b342c521A0a421456cb) */\n      add(0x20, mload(0x40))\n      tag_161\n      swap2\n      swap1\n      tag_162\n      jump\t// in\n    tag_161:\n      mload(0x40)\n      0x20\n      dup2\n      dup4\n      sub\n      sub\n      dup2\n      mstore\n      swap1\n      0x40\n      mstore\n        /* \"week5/testABIEncode.sol\":1942:2003  return abi.encode(0x2Ff1F4e5D08a822743ec6b342c521A0a421456cb) */\n      swap1\n      pop\n        /* \"week5/testABIEncode.sol\":1872:2010  function encodeAddress() external pure returns (bytes memory) {... */\n      swap1\n      jump\t// out\n        /* \"week5/testABIEncode.sol\":3893:4057  function encodeWithSignatureSchool() ... */\n    tag_98:\n        /* \"week5/testABIEncode.sol\":3960:3972  bytes memory */\n      0x60\n        /* \"week5/testABIEncode.sol\":3991:4050  abi.encodeWithSignature(\"School(string[])\", [\"11\",\"2\",\"3\"]) */\n      mload(0x40)\n      dup1\n      0x60\n      add\n      0x40\n      mstore\n      dup1\n      mload(0x40)\n      dup1\n      0x40\n      add\n      0x40\n      mstore\n      dup1\n      0x02\n      dup2\n      mstore\n      0x20\n      add\n      0x3131000000000000000000000000000000000000000000000000000000000000\n      dup2\n      mstore\n      pop\n      dup2\n      mstore\n      0x20\n      add\n      mload(0x40)\n      dup1\n      0x40\n      add\n      0x40\n      mstore\n      dup1\n      0x01\n      dup2\n      mstore\n      0x20\n      add\n      0x3200000000000000000000000000000000000000000000000000000000000000\n      dup2\n      mstore\n      pop\n      dup2\n      mstore\n      0x20\n      add\n      mload(0x40)\n      dup1\n      0x40\n      add\n      0x40\n      mstore\n      dup1\n      0x01\n      dup2\n      mstore\n      0x20\n      add\n      0x3300000000000000000000000000000000000000000000000000000000000000\n      dup2\n      mstore\n      pop\n      dup2\n      mstore\n      pop\n      add(0x24, mload(0x40))\n      tag_164\n      swap2\n      swap1\n      tag_165\n      jump\t// in\n    tag_164:\n      mload(0x40)\n      0x20\n      dup2\n      dup4\n      sub\n      sub\n      dup2\n      mstore\n      swap1\n      0x40\n      mstore\n      and(not(0xffffffffffffffffffffffffffffffffffffffffffffffffffffffff), 0x7fa990b900000000000000000000000000000000000000000000000000000000)\n      0x20\n      dup3\n      add\n      dup1\n      mload\n      0xffffffffffffffffffffffffffffffffffffffffffffffffffffffff\n      dup4\n      dup2\n      dup4\n      and\n      or\n      dup4\n      mstore\n      pop\n      pop\n      pop\n      pop\n        /* \"week5/testABIEncode.sol\":3984:4050  return abi.encodeWithSignature(\"School(string[])\", [\"11\",\"2\",\"3\"]) */\n      swap1\n      pop\n        /* \"week5/testABIEncode.sol\":3893:4057  function encodeWithSignatureSchool() ... */\n      swap1\n      jump\t// out\n        /* \"#utility.yul\":7:82   */\n    tag_166:\n        /* \"#utility.yul\":40:46   */\n      0x00\n        /* \"#utility.yul\":73:75   */\n      0x40\n        /* \"#utility.yul\":67:76   */\n      mload\n        /* \"#utility.yul\":57:76   */\n      swap1\n      pop\n        /* \"#utility.yul\":7:82   */\n      swap1\n      jump\t// out\n        /* \"#utility.yul\":88:205   */\n    tag_167:\n        /* \"#utility.yul\":197:198   */\n      0x00\n        /* \"#utility.yul\":194:195   */\n      dup1\n        /* \"#utility.yul\":187:199   */\n      revert\n        /* \"#utility.yul\":211:328   */\n    tag_168:\n        /* \"#utility.yul\":320:321   */\n      0x00\n        /* \"#utility.yul\":317:318   */\n      dup1\n        /* \"#utility.yul\":310:322   */\n      revert\n        /* \"#utility.yul\":334:451   */\n    tag_169:\n        /* \"#utility.yul\":443:444   */\n      0x00\n        /* \"#utility.yul\":440:441   */\n      dup1\n        /* \"#utility.yul\":433:445   */\n      revert\n        /* \"#utility.yul\":457:574   */\n    tag_170:\n        /* \"#utility.yul\":566:567   */\n      0x00\n        /* \"#utility.yul\":563:564   */\n      dup1\n        /* \"#utility.yul\":556:568   */\n      revert\n        /* \"#utility.yul\":580:697   */\n    tag_171:\n        /* \"#utility.yul\":689:690   */\n      0x00\n        /* \"#utility.yul\":686:687   */\n      dup1\n        /* \"#utility.yul\":679:691   */\n      revert\n        /* \"#utility.yul\":716:1268   */\n    tag_172:\n        /* \"#utility.yul\":773:781   */\n      0x00\n        /* \"#utility.yul\":783:789   */\n      dup1\n        /* \"#utility.yul\":833:836   */\n      dup4\n        /* \"#utility.yul\":826:830   */\n      0x1f\n        /* \"#utility.yul\":818:824   */\n      dup5\n        /* \"#utility.yul\":814:831   */\n      add\n        /* \"#utility.yul\":810:837   */\n      slt\n        /* \"#utility.yul\":800:922   */\n      tag_258\n      jumpi\n        /* \"#utility.yul\":841:920   */\n      tag_259\n      tag_169\n      jump\t// in\n    tag_259:\n        /* \"#utility.yul\":800:922   */\n    tag_258:\n        /* \"#utility.yul\":954:960   */\n      dup3\n        /* \"#utility.yul\":941:961   */\n      calldataload\n        /* \"#utility.yul\":931:961   */\n      swap1\n      pop\n        /* \"#utility.yul\":984:1002   */\n      0xffffffffffffffff\n        /* \"#utility.yul\":976:982   */\n      dup2\n        /* \"#utility.yul\":973:1003   */\n      gt\n        /* \"#utility.yul\":970:1087   */\n      iszero\n      tag_260\n      jumpi\n        /* \"#utility.yul\":1006:1085   */\n      tag_261\n      tag_170\n      jump\t// in\n    tag_261:\n        /* \"#utility.yul\":970:1087   */\n    tag_260:\n        /* \"#utility.yul\":1120:1124   */\n      0x20\n        /* \"#utility.yul\":1112:1118   */\n      dup4\n        /* \"#utility.yul\":1108:1125   */\n      add\n        /* \"#utility.yul\":1096:1125   */\n      swap2\n      pop\n        /* \"#utility.yul\":1174:1177   */\n      dup4\n        /* \"#utility.yul\":1166:1170   */\n      0x01\n        /* \"#utility.yul\":1158:1164   */\n      dup3\n        /* \"#utility.yul\":1154:1171   */\n      mul\n        /* \"#utility.yul\":1144:1152   */\n      dup4\n        /* \"#utility.yul\":1140:1172   */\n      add\n        /* \"#utility.yul\":1137:1178   */\n      gt\n        /* \"#utility.yul\":1134:1262   */\n      iszero\n      tag_262\n      jumpi\n        /* \"#utility.yul\":1181:1260   */\n      tag_263\n      tag_171\n      jump\t// in\n    tag_263:\n        /* \"#utility.yul\":1134:1262   */\n    tag_262:\n        /* \"#utility.yul\":716:1268   */\n      swap3\n      pop\n      swap3\n      swap1\n      pop\n      jump\t// out\n        /* \"#utility.yul\":1274:1801   */\n    tag_26:\n        /* \"#utility.yul\":1344:1350   */\n      0x00\n        /* \"#utility.yul\":1352:1358   */\n      dup1\n        /* \"#utility.yul\":1401:1403   */\n      0x20\n        /* \"#utility.yul\":1389:1398   */\n      dup4\n        /* \"#utility.yul\":1380:1387   */\n      dup6\n        /* \"#utility.yul\":1376:1399   */\n      sub\n        /* \"#utility.yul\":1372:1404   */\n      slt\n        /* \"#utility.yul\":1369:1488   */\n      iszero\n      tag_265\n      jumpi\n        /* \"#utility.yul\":1407:1486   */\n      tag_266\n      tag_167\n      jump\t// in\n    tag_266:\n        /* \"#utility.yul\":1369:1488   */\n    tag_265:\n        /* \"#utility.yul\":1555:1556   */\n      0x00\n        /* \"#utility.yul\":1544:1553   */\n      dup4\n        /* \"#utility.yul\":1540:1557   */\n      add\n        /* \"#utility.yul\":1527:1558   */\n      calldataload\n        /* \"#utility.yul\":1585:1603   */\n      0xffffffffffffffff\n        /* \"#utility.yul\":1577:1583   */\n      dup2\n        /* \"#utility.yul\":1574:1604   */\n      gt\n        /* \"#utility.yul\":1571:1688   */\n      iszero\n      tag_267\n      jumpi\n        /* \"#utility.yul\":1607:1686   */\n      tag_268\n      tag_168\n      jump\t// in\n    tag_268:\n        /* \"#utility.yul\":1571:1688   */\n    tag_267:\n        /* \"#utility.yul\":1720:1784   */\n      tag_269\n        /* \"#utility.yul\":1776:1783   */\n      dup6\n        /* \"#utility.yul\":1767:1773   */\n      dup3\n        /* \"#utility.yul\":1756:1765   */\n      dup7\n        /* \"#utility.yul\":1752:1774   */\n      add\n        /* \"#utility.yul\":1720:1784   */\n      tag_172\n      jump\t// in\n    tag_269:\n        /* \"#utility.yul\":1702:1784   */\n      swap3\n      pop\n      swap3\n      pop\n        /* \"#utility.yul\":1498:1794   */\n      pop\n        /* \"#utility.yul\":1274:1801   */\n      swap3\n      pop\n      swap3\n      swap1\n      pop\n      jump\t// out\n        /* \"#utility.yul\":1807:1906   */\n    tag_173:\n        /* \"#utility.yul\":1859:1865   */\n      0x00\n        /* \"#utility.yul\":1893:1898   */\n      dup2\n        /* \"#utility.yul\":1887:1899   */\n      mload\n        /* \"#utility.yul\":1877:1899   */\n      swap1\n      pop\n        /* \"#utility.yul\":1807:1906   */\n      swap2\n      swap1\n      pop\n      jump\t// out\n        /* \"#utility.yul\":1912:2081   */\n    tag_174:\n        /* \"#utility.yul\":1996:2007   */\n      0x00\n        /* \"#utility.yul\":2030:2036   */\n      dup3\n        /* \"#utility.yul\":2025:2028   */\n      dup3\n        /* \"#utility.yul\":2018:2037   */\n      mstore\n        /* \"#utility.yul\":2070:2074   */\n      0x20\n        /* \"#utility.yul\":2065:2068   */\n      dup3\n        /* \"#utility.yul\":2061:2075   */\n      add\n        /* \"#utility.yul\":2046:2075   */\n      swap1\n      pop\n        /* \"#utility.yul\":1912:2081   */\n      swap3\n      swap2\n      pop\n      pop\n      jump\t// out\n        /* \"#utility.yul\":2087:2333   */\n    tag_175:\n        /* \"#utility.yul\":2168:2169   */\n      0x00\n        /* \"#utility.yul\":2178:2291   */\n    tag_273:\n        /* \"#utility.yul\":2192:2198   */\n      dup4\n        /* \"#utility.yul\":2189:2190   */\n      dup2\n        /* \"#utility.yul\":2186:2199   */\n      lt\n        /* \"#utility.yul\":2178:2291   */\n      iszero\n      tag_275\n      jumpi\n        /* \"#utility.yul\":2277:2278   */\n      dup1\n        /* \"#utility.yul\":2272:2275   */\n      dup3\n        /* \"#utility.yul\":2268:2279   */\n      add\n        /* \"#utility.yul\":2262:2280   */\n      mload\n        /* \"#utility.yul\":2258:2259   */\n      dup2\n        /* \"#utility.yul\":2253:2256   */\n      dup5\n        /* \"#utility.yul\":2249:2260   */\n      add\n        /* \"#utility.yul\":2242:2281   */\n      mstore\n        /* \"#utility.yul\":2214:2216   */\n      0x20\n        /* \"#utility.yul\":2211:2212   */\n      dup2\n        /* \"#utility.yul\":2207:2217   */\n      add\n        /* \"#utility.yul\":2202:2217   */\n      swap1\n      pop\n        /* \"#utility.yul\":2178:2291   */\n      jump(tag_273)\n    tag_275:\n        /* \"#utility.yul\":2325:2326   */\n      0x00\n        /* \"#utility.yul\":2316:2322   */\n      dup5\n        /* \"#utility.yul\":2311:2314   */\n      dup5\n        /* \"#utility.yul\":2307:2323   */\n      add\n        /* \"#utility.yul\":2300:2327   */\n      mstore\n        /* \"#utility.yul\":2149:2333   */\n      pop\n        /* \"#utility.yul\":2087:2333   */\n      pop\n      pop\n      pop\n      jump\t// out\n        /* \"#utility.yul\":2339:2441   */\n    tag_176:\n        /* \"#utility.yul\":2380:2386   */\n      0x00\n        /* \"#utility.yul\":2431:2433   */\n      0x1f\n        /* \"#utility.yul\":2427:2434   */\n      not\n        /* \"#utility.yul\":2422:2424   */\n      0x1f\n        /* \"#utility.yul\":2415:2420   */\n      dup4\n        /* \"#utility.yul\":2411:2425   */\n      add\n        /* \"#utility.yul\":2407:2435   */\n      and\n        /* \"#utility.yul\":2397:2435   */\n      swap1\n      pop\n        /* \"#utility.yul\":2339:2441   */\n      swap2\n      swap1\n      pop\n      jump\t// out\n        /* \"#utility.yul\":2447:2824   */\n    tag_177:\n        /* \"#utility.yul\":2535:2538   */\n      0x00\n        /* \"#utility.yul\":2563:2602   */\n      tag_278\n        /* \"#utility.yul\":2596:2601   */\n      dup3\n        /* \"#utility.yul\":2563:2602   */\n      tag_173\n      jump\t// in\n    tag_278:\n        /* \"#utility.yul\":2618:2689   */\n      tag_279\n        /* \"#utility.yul\":2682:2688   */\n      dup2\n        /* \"#utility.yul\":2677:2680   */\n      dup6\n        /* \"#utility.yul\":2618:2689   */\n      tag_174\n      jump\t// in\n    tag_279:\n        /* \"#utility.yul\":2611:2689   */\n      swap4\n      pop\n        /* \"#utility.yul\":2698:2763   */\n      tag_280\n        /* \"#utility.yul\":2756:2762   */\n      dup2\n        /* \"#utility.yul\":2751:2754   */\n      dup6\n        /* \"#utility.yul\":2744:2748   */\n      0x20\n        /* \"#utility.yul\":2737:2742   */\n      dup7\n        /* \"#utility.yul\":2733:2749   */\n      add\n        /* \"#utility.yul\":2698:2763   */\n      tag_175\n      jump\t// in\n    tag_280:\n        /* \"#utility.yul\":2788:2817   */\n      tag_281\n        /* \"#utility.yul\":2810:2816   */\n      dup2\n        /* \"#utility.yul\":2788:2817   */\n      tag_176\n      jump\t// in\n    tag_281:\n        /* \"#utility.yul\":2783:2786   */\n      dup5\n        /* \"#utility.yul\":2779:2818   */\n      add\n        /* \"#utility.yul\":2772:2818   */\n      swap2\n      pop\n        /* \"#utility.yul\":2539:2824   */\n      pop\n        /* \"#utility.yul\":2447:2824   */\n      swap3\n      swap2\n      pop\n      pop\n      jump\t// out\n        /* \"#utility.yul\":2830:2907   */\n    tag_178:\n        /* \"#utility.yul\":2867:2874   */\n      0x00\n        /* \"#utility.yul\":2896:2901   */\n      dup2\n        /* \"#utility.yul\":2885:2901   */\n      swap1\n      pop\n        /* \"#utility.yul\":2830:2907   */\n      swap2\n      swap1\n      pop\n      jump\t// out\n        /* \"#utility.yul\":2913:3031   */\n    tag_179:\n        /* \"#utility.yul\":3000:3024   */\n      tag_284\n        /* \"#utility.yul\":3018:3023   */\n      dup2\n        /* \"#utility.yul\":3000:3024   */\n      tag_178\n      jump\t// in\n    tag_284:\n        /* \"#utility.yul\":2995:2998   */\n      dup3\n        /* \"#utility.yul\":2988:3025   */\n      mstore\n        /* \"#utility.yul\":2913:3031   */\n      pop\n      pop\n      jump\t// out\n        /* \"#utility.yul\":3037:3163   */\n    tag_180:\n        /* \"#utility.yul\":3074:3081   */\n      0x00\n        /* \"#utility.yul\":3114:3156   */\n      0xffffffffffffffffffffffffffffffffffffffff\n        /* \"#utility.yul\":3107:3112   */\n      dup3\n        /* \"#utility.yul\":3103:3157   */\n      and\n        /* \"#utility.yul\":3092:3157   */\n      swap1\n      pop\n        /* \"#utility.yul\":3037:3163   */\n      swap2\n      swap1\n      pop\n      jump\t// out\n        /* \"#utility.yul\":3169:3265   */\n    tag_181:\n        /* \"#utility.yul\":3206:3213   */\n      0x00\n        /* \"#utility.yul\":3235:3259   */\n      tag_287\n        /* \"#utility.yul\":3253:3258   */\n      dup3\n        /* \"#utility.yul\":3235:3259   */\n      tag_180\n      jump\t// in\n    tag_287:\n        /* \"#utility.yul\":3224:3259   */\n      swap1\n      pop\n        /* \"#utility.yul\":3169:3265   */\n      swap2\n      swap1\n      pop\n      jump\t// out\n        /* \"#utility.yul\":3271:3389   */\n    tag_182:\n        /* \"#utility.yul\":3358:3382   */\n      tag_289\n        /* \"#utility.yul\":3376:3381   */\n      dup2\n        /* \"#utility.yul\":3358:3382   */\n      tag_181\n      jump\t// in\n    tag_289:\n        /* \"#utility.yul\":3353:3356   */\n      dup3\n        /* \"#utility.yul\":3346:3383   */\n      mstore\n        /* \"#utility.yul\":3271:3389   */\n      pop\n      pop\n      jump\t// out\n        /* \"#utility.yul\":3395:3928   */\n    tag_29:\n        /* \"#utility.yul\":3564:3568   */\n      0x00\n        /* \"#utility.yul\":3602:3604   */\n      0x60\n        /* \"#utility.yul\":3591:3600   */\n      dup3\n        /* \"#utility.yul\":3587:3605   */\n      add\n        /* \"#utility.yul\":3579:3605   */\n      swap1\n      pop\n        /* \"#utility.yul\":3651:3660   */\n      dup2\n        /* \"#utility.yul\":3645:3649   */\n      dup2\n        /* \"#utility.yul\":3641:3661   */\n      sub\n        /* \"#utility.yul\":3637:3638   */\n      0x00\n        /* \"#utility.yul\":3626:3635   */\n      dup4\n        /* \"#utility.yul\":3622:3639   */\n      add\n        /* \"#utility.yul\":3615:3662   */\n      mstore\n        /* \"#utility.yul\":3679:3757   */\n      tag_291\n        /* \"#utility.yul\":3752:3756   */\n      dup2\n        /* \"#utility.yul\":3743:3749   */\n      dup7\n        /* \"#utility.yul\":3679:3757   */\n      tag_177\n      jump\t// in\n    tag_291:\n        /* \"#utility.yul\":3671:3757   */\n      swap1\n      pop\n        /* \"#utility.yul\":3767:3839   */\n      tag_292\n        /* \"#utility.yul\":3835:3837   */\n      0x20\n        /* \"#utility.yul\":3824:3833   */\n      dup4\n        /* \"#utility.yul\":3820:3838   */\n      add\n        /* \"#utility.yul\":3811:3817   */\n      dup6\n        /* \"#utility.yul\":3767:3839   */\n      tag_179\n      jump\t// in\n    tag_292:\n        /* \"#utility.yul\":3849:3921   */\n      tag_293\n        /* \"#utility.yul\":3917:3919   */\n      0x40\n        /* \"#utility.yul\":3906:3915   */\n      dup4\n        /* \"#utility.yul\":3902:3920   */\n      add\n        /* \"#utility.yul\":3893:3899   */\n      dup5\n        /* \"#utility.yul\":3849:3921   */\n      tag_182\n      jump\t// in\n    tag_293:\n        /* \"#utility.yul\":3395:3928   */\n      swap5\n      swap4\n      pop\n      pop\n      pop\n      pop\n      jump\t// out\n        /* \"#utility.yul\":3934:4056   */\n    tag_183:\n        /* \"#utility.yul\":4007:4031   */\n      tag_295\n        /* \"#utility.yul\":4025:4030   */\n      dup2\n        /* \"#utility.yul\":4007:4031   */\n      tag_181\n      jump\t// in\n    tag_295:\n        /* \"#utility.yul\":4000:4005   */\n      dup2\n        /* \"#utility.yul\":3997:4032   */\n      eq\n        /* \"#utility.yul\":3987:4050   */\n      tag_296\n      jumpi\n        /* \"#utility.yul\":4046:4047   */\n      0x00\n        /* \"#utility.yul\":4043:4044   */\n      dup1\n        /* \"#utility.yul\":4036:4048   */\n      revert\n        /* \"#utility.yul\":3987:4050   */\n    tag_296:\n        /* \"#utility.yul\":3934:4056   */\n      pop\n      jump\t// out\n        /* \"#utility.yul\":4062:4201   */\n    tag_184:\n        /* \"#utility.yul\":4108:4113   */\n      0x00\n        /* \"#utility.yul\":4146:4152   */\n      dup2\n        /* \"#utility.yul\":4133:4153   */\n      calldataload\n        /* \"#utility.yul\":4124:4153   */\n      swap1\n      pop\n        /* \"#utility.yul\":4162:4195   */\n      tag_298\n        /* \"#utility.yul\":4189:4194   */\n      dup2\n        /* \"#utility.yul\":4162:4195   */\n      tag_183\n      jump\t// in\n    tag_298:\n        /* \"#utility.yul\":4062:4201   */\n      swap3\n      swap2\n      pop\n      pop\n      jump\t// out\n        /* \"#utility.yul\":4207:4329   */\n    tag_185:\n        /* \"#utility.yul\":4280:4304   */\n      tag_300\n        /* \"#utility.yul\":4298:4303   */\n      dup2\n        /* \"#utility.yul\":4280:4304   */\n      tag_178\n      jump\t// in\n    tag_300:\n        /* \"#utility.yul\":4273:4278   */\n      dup2\n        /* \"#utility.yul\":4270:4305   */\n      eq\n        /* \"#utility.yul\":4260:4323   */\n      tag_301\n      jumpi\n        /* \"#utility.yul\":4319:4320   */\n      0x00\n        /* \"#utility.yul\":4316:4317   */\n      dup1\n        /* \"#utility.yul\":4309:4321   */\n      revert\n        /* \"#utility.yul\":4260:4323   */\n    tag_301:\n        /* \"#utility.yul\":4207:4329   */\n      pop\n      jump\t// out\n        /* \"#utility.yul\":4335:4474   */\n    tag_186:\n        /* \"#utility.yul\":4381:4386   */\n      0x00\n        /* \"#utility.yul\":4419:4425   */\n      dup2\n        /* \"#utility.yul\":4406:4426   */\n      calldataload\n        /* \"#utility.yul\":4397:4426   */\n      swap1\n      pop\n        /* \"#utility.yul\":4435:4468   */\n      tag_303\n        /* \"#utility.yul\":4462:4467   */\n      dup2\n        /* \"#utility.yul\":4435:4468   */\n      tag_185\n      jump\t// in\n    tag_303:\n        /* \"#utility.yul\":4335:4474   */\n      swap3\n      swap2\n      pop\n      pop\n      jump\t// out\n        /* \"#utility.yul\":4480:4954   */\n    tag_33:\n        /* \"#utility.yul\":4548:4554   */\n      0x00\n        /* \"#utility.yul\":4556:4562   */\n      dup1\n        /* \"#utility.yul\":4605:4607   */\n      0x40\n        /* \"#utility.yul\":4593:4602   */\n      dup4\n        /* \"#utility.yul\":4584:4591   */\n      dup6\n        /* \"#utility.yul\":4580:4603   */\n      sub\n        /* \"#utility.yul\":4576:4608   */\n      slt\n        /* \"#utility.yul\":4573:4692   */\n      iszero\n      tag_305\n      jumpi\n        /* \"#utility.yul\":4611:4690   */\n      tag_306\n      tag_167\n      jump\t// in\n    tag_306:\n        /* \"#utility.yul\":4573:4692   */\n    tag_305:\n        /* \"#utility.yul\":4731:4732   */\n      0x00\n        /* \"#utility.yul\":4756:4809   */\n      tag_307\n        /* \"#utility.yul\":4801:4808   */\n      dup6\n        /* \"#utility.yul\":4792:4798   */\n      dup3\n        /* \"#utility.yul\":4781:4790   */\n      dup7\n        /* \"#utility.yul\":4777:4799   */\n      add\n        /* \"#utility.yul\":4756:4809   */\n      tag_184\n      jump\t// in\n    tag_307:\n        /* \"#utility.yul\":4746:4809   */\n      swap3\n      pop\n        /* \"#utility.yul\":4702:4819   */\n      pop\n        /* \"#utility.yul\":4858:4860   */\n      0x20\n        /* \"#utility.yul\":4884:4937   */\n      tag_308\n        /* \"#utility.yul\":4929:4936   */\n      dup6\n        /* \"#utility.yul\":4920:4926   */\n      dup3\n        /* \"#utility.yul\":4909:4918   */\n      dup7\n        /* \"#utility.yul\":4905:4927   */\n      add\n        /* \"#utility.yul\":4884:4937   */\n      tag_186\n      jump\t// in\n    tag_308:\n        /* \"#utility.yul\":4874:4937   */\n      swap2\n      pop\n        /* \"#utility.yul\":4829:4947   */\n      pop\n        /* \"#utility.yul\":4480:4954   */\n      swap3\n      pop\n      swap3\n      swap1\n      pop\n      jump\t// out\n        /* \"#utility.yul\":4960:5058   */\n    tag_187:\n        /* \"#utility.yul\":5011:5017   */\n      0x00\n        /* \"#utility.yul\":5045:5050   */\n      dup2\n        /* \"#utility.yul\":5039:5051   */\n      mload\n        /* \"#utility.yul\":5029:5051   */\n      swap1\n      pop\n        /* \"#utility.yul\":4960:5058   */\n      swap2\n      swap1\n      pop\n      jump\t// out\n        /* \"#utility.yul\":5064:5232   */\n    tag_188:\n        /* \"#utility.yul\":5147:5158   */\n      0x00\n        /* \"#utility.yul\":5181:5187   */\n      dup3\n        /* \"#utility.yul\":5176:5179   */\n      dup3\n        /* \"#utility.yul\":5169:5188   */\n      mstore\n        /* \"#utility.yul\":5221:5225   */\n      0x20\n        /* \"#utility.yul\":5216:5219   */\n      dup3\n        /* \"#utility.yul\":5212:5226   */\n      add\n        /* \"#utility.yul\":5197:5226   */\n      swap1\n      pop\n        /* \"#utility.yul\":5064:5232   */\n      swap3\n      swap2\n      pop\n      pop\n      jump\t// out\n        /* \"#utility.yul\":5238:5611   */\n    tag_189:\n        /* \"#utility.yul\":5324:5327   */\n      0x00\n        /* \"#utility.yul\":5352:5390   */\n      tag_312\n        /* \"#utility.yul\":5384:5389   */\n      dup3\n        /* \"#utility.yul\":5352:5390   */\n      tag_187\n      jump\t// in\n    tag_312:\n        /* \"#utility.yul\":5406:5476   */\n      tag_313\n        /* \"#utility.yul\":5469:5475   */\n      dup2\n        /* \"#utility.yul\":5464:5467   */\n      dup6\n        /* \"#utility.yul\":5406:5476   */\n      tag_188\n      jump\t// in\n    tag_313:\n        /* \"#utility.yul\":5399:5476   */\n      swap4\n      pop\n        /* \"#utility.yul\":5485:5550   */\n      tag_314\n        /* \"#utility.yul\":5543:5549   */\n      dup2\n        /* \"#utility.yul\":5538:5541   */\n      dup6\n        /* \"#utility.yul\":5531:5535   */\n      0x20\n        /* \"#utility.yul\":5524:5529   */\n      dup7\n        /* \"#utility.yul\":5520:5536   */\n      add\n        /* \"#utility.yul\":5485:5550   */\n      tag_175\n      jump\t// in\n    tag_314:\n        /* \"#utility.yul\":5575:5604   */\n      tag_315\n        /* \"#utility.yul\":5597:5603   */\n      dup2\n        /* \"#utility.yul\":5575:5604   */\n      tag_176\n      jump\t// in\n    tag_315:\n        /* \"#utility.yul\":5570:5573   */\n      dup5\n        /* \"#utility.yul\":5566:5605   */\n      add\n        /* \"#utility.yul\":5559:5605   */\n      swap2\n      pop\n        /* \"#utility.yul\":5328:5611   */\n      pop\n        /* \"#utility.yul\":5238:5611   */\n      swap3\n      swap2\n      pop\n      pop\n      jump\t// out\n        /* \"#utility.yul\":5617:5926   */\n    tag_36:\n        /* \"#utility.yul\":5728:5732   */\n      0x00\n        /* \"#utility.yul\":5766:5768   */\n      0x20\n        /* \"#utility.yul\":5755:5764   */\n      dup3\n        /* \"#utility.yul\":5751:5769   */\n      add\n        /* \"#utility.yul\":5743:5769   */\n      swap1\n      pop\n        /* \"#utility.yul\":5815:5824   */\n      dup2\n        /* \"#utility.yul\":5809:5813   */\n      dup2\n        /* \"#utility.yul\":5805:5825   */\n      sub\n        /* \"#utility.yul\":5801:5802   */\n      0x00\n        /* \"#utility.yul\":5790:5799   */\n      dup4\n        /* \"#utility.yul\":5786:5803   */\n      add\n        /* \"#utility.yul\":5779:5826   */\n      mstore\n        /* \"#utility.yul\":5843:5919   */\n      tag_317\n        /* \"#utility.yul\":5914:5918   */\n      dup2\n        /* \"#utility.yul\":5905:5911   */\n      dup5\n        /* \"#utility.yul\":5843:5919   */\n      tag_189\n      jump\t// in\n    tag_317:\n        /* \"#utility.yul\":5835:5919   */\n      swap1\n      pop\n        /* \"#utility.yul\":5617:5926   */\n      swap3\n      swap2\n      pop\n      pop\n      jump\t// out\n        /* \"#utility.yul\":5932:6022   */\n    tag_190:\n        /* \"#utility.yul\":5966:5973   */\n      0x00\n        /* \"#utility.yul\":6009:6014   */\n      dup2\n        /* \"#utility.yul\":6002:6015   */\n      iszero\n        /* \"#utility.yul\":5995:6016   */\n      iszero\n        /* \"#utility.yul\":5984:6016   */\n      swap1\n      pop\n        /* \"#utility.yul\":5932:6022   */\n      swap2\n      swap1\n      pop\n      jump\t// out\n        /* \"#utility.yul\":6028:6144   */\n    tag_191:\n        /* \"#utility.yul\":6098:6119   */\n      tag_320\n        /* \"#utility.yul\":6113:6118   */\n      dup2\n        /* \"#utility.yul\":6098:6119   */\n      tag_190\n      jump\t// in\n    tag_320:\n        /* \"#utility.yul\":6091:6096   */\n      dup2\n        /* \"#utility.yul\":6088:6120   */\n      eq\n        /* \"#utility.yul\":6078:6138   */\n      tag_321\n      jumpi\n        /* \"#utility.yul\":6134:6135   */\n      0x00\n        /* \"#utility.yul\":6131:6132   */\n      dup1\n        /* \"#utility.yul\":6124:6136   */\n      revert\n        /* \"#utility.yul\":6078:6138   */\n    tag_321:\n        /* \"#utility.yul\":6028:6144   */\n      pop\n      jump\t// out\n        /* \"#utility.yul\":6150:6283   */\n    tag_192:\n        /* \"#utility.yul\":6193:6198   */\n      0x00\n        /* \"#utility.yul\":6231:6237   */\n      dup2\n        /* \"#utility.yul\":6218:6238   */\n      calldataload\n        /* \"#utility.yul\":6209:6238   */\n      swap1\n      pop\n        /* \"#utility.yul\":6247:6277   */\n      tag_323\n        /* \"#utility.yul\":6271:6276   */\n      dup2\n        /* \"#utility.yul\":6247:6277   */\n      tag_191\n      jump\t// in\n    tag_323:\n        /* \"#utility.yul\":6150:6283   */\n      swap3\n      swap2\n      pop\n      pop\n      jump\t// out\n        /* \"#utility.yul\":6306:6874   */\n    tag_193:\n        /* \"#utility.yul\":6379:6387   */\n      0x00\n        /* \"#utility.yul\":6389:6395   */\n      dup1\n        /* \"#utility.yul\":6439:6442   */\n      dup4\n        /* \"#utility.yul\":6432:6436   */\n      0x1f\n        /* \"#utility.yul\":6424:6430   */\n      dup5\n        /* \"#utility.yul\":6420:6437   */\n      add\n        /* \"#utility.yul\":6416:6443   */\n      slt\n        /* \"#utility.yul\":6406:6528   */\n      tag_325\n      jumpi\n        /* \"#utility.yul\":6447:6526   */\n      tag_326\n      tag_169\n      jump\t// in\n    tag_326:\n        /* \"#utility.yul\":6406:6528   */\n    tag_325:\n        /* \"#utility.yul\":6560:6566   */\n      dup3\n        /* \"#utility.yul\":6547:6567   */\n      calldataload\n        /* \"#utility.yul\":6537:6567   */\n      swap1\n      pop\n        /* \"#utility.yul\":6590:6608   */\n      0xffffffffffffffff\n        /* \"#utility.yul\":6582:6588   */\n      dup2\n        /* \"#utility.yul\":6579:6609   */\n      gt\n        /* \"#utility.yul\":6576:6693   */\n      iszero\n      tag_327\n      jumpi\n        /* \"#utility.yul\":6612:6691   */\n      tag_328\n      tag_170\n      jump\t// in\n    tag_328:\n        /* \"#utility.yul\":6576:6693   */\n    tag_327:\n        /* \"#utility.yul\":6726:6730   */\n      0x20\n        /* \"#utility.yul\":6718:6724   */\n      dup4\n        /* \"#utility.yul\":6714:6731   */\n      add\n        /* \"#utility.yul\":6702:6731   */\n      swap2\n      pop\n        /* \"#utility.yul\":6780:6783   */\n      dup4\n        /* \"#utility.yul\":6772:6776   */\n      0x20\n        /* \"#utility.yul\":6764:6770   */\n      dup3\n        /* \"#utility.yul\":6760:6777   */\n      mul\n        /* \"#utility.yul\":6750:6758   */\n      dup4\n        /* \"#utility.yul\":6746:6778   */\n      add\n        /* \"#utility.yul\":6743:6784   */\n      gt\n        /* \"#utility.yul\":6740:6868   */\n      iszero\n      tag_329\n      jumpi\n        /* \"#utility.yul\":6787:6866   */\n      tag_330\n      tag_171\n      jump\t// in\n    tag_330:\n        /* \"#utility.yul\":6740:6868   */\n    tag_329:\n        /* \"#utility.yul\":6306:6874   */\n      swap3\n      pop\n      swap3\n      swap1\n      pop\n      jump\t// out\n        /* \"#utility.yul\":6894:7447   */\n    tag_194:\n        /* \"#utility.yul\":6952:6960   */\n      0x00\n        /* \"#utility.yul\":6962:6968   */\n      dup1\n        /* \"#utility.yul\":7012:7015   */\n      dup4\n        /* \"#utility.yul\":7005:7009   */\n      0x1f\n        /* \"#utility.yul\":6997:7003   */\n      dup5\n        /* \"#utility.yul\":6993:7010   */\n      add\n        /* \"#utility.yul\":6989:7016   */\n      slt\n        /* \"#utility.yul\":6979:7101   */\n      tag_332\n      jumpi\n        /* \"#utility.yul\":7020:7099   */\n      tag_333\n      tag_169\n      jump\t// in\n    tag_333:\n        /* \"#utility.yul\":6979:7101   */\n    tag_332:\n        /* \"#utility.yul\":7133:7139   */\n      dup3\n        /* \"#utility.yul\":7120:7140   */\n      calldataload\n        /* \"#utility.yul\":7110:7140   */\n      swap1\n      pop\n        /* \"#utility.yul\":7163:7181   */\n      0xffffffffffffffff\n        /* \"#utility.yul\":7155:7161   */\n      dup2\n        /* \"#utility.yul\":7152:7182   */\n      gt\n        /* \"#utility.yul\":7149:7266   */\n      iszero\n      tag_334\n      jumpi\n        /* \"#utility.yul\":7185:7264   */\n      tag_335\n      tag_170\n      jump\t// in\n    tag_335:\n        /* \"#utility.yul\":7149:7266   */\n    tag_334:\n        /* \"#utility.yul\":7299:7303   */\n      0x20\n        /* \"#utility.yul\":7291:7297   */\n      dup4\n        /* \"#utility.yul\":7287:7304   */\n      add\n        /* \"#utility.yul\":7275:7304   */\n      swap2\n      pop\n        /* \"#utility.yul\":7353:7356   */\n      dup4\n        /* \"#utility.yul\":7345:7349   */\n      0x01\n        /* \"#utility.yul\":7337:7343   */\n      dup3\n        /* \"#utility.yul\":7333:7350   */\n      mul\n        /* \"#utility.yul\":7323:7331   */\n      dup4\n        /* \"#utility.yul\":7319:7351   */\n      add\n        /* \"#utility.yul\":7316:7357   */\n      gt\n        /* \"#utility.yul\":7313:7441   */\n      iszero\n      tag_336\n      jumpi\n        /* \"#utility.yul\":7360:7439   */\n      tag_337\n      tag_171\n      jump\t// in\n    tag_337:\n        /* \"#utility.yul\":7313:7441   */\n    tag_336:\n        /* \"#utility.yul\":6894:7447   */\n      swap3\n      pop\n      swap3\n      swap1\n      pop\n      jump\t// out\n        /* \"#utility.yul\":7453:8642   */\n    tag_44:\n        /* \"#utility.yul\":7575:7581   */\n      0x00\n        /* \"#utility.yul\":7583:7589   */\n      dup1\n        /* \"#utility.yul\":7591:7597   */\n      0x00\n        /* \"#utility.yul\":7599:7605   */\n      dup1\n        /* \"#utility.yul\":7607:7613   */\n      0x00\n        /* \"#utility.yul\":7615:7621   */\n      dup1\n        /* \"#utility.yul\":7664:7667   */\n      0x80\n        /* \"#utility.yul\":7652:7661   */\n      dup8\n        /* \"#utility.yul\":7643:7650   */\n      dup10\n        /* \"#utility.yul\":7639:7662   */\n      sub\n        /* \"#utility.yul\":7635:7668   */\n      slt\n        /* \"#utility.yul\":7632:7752   */\n      iszero\n      tag_339\n      jumpi\n        /* \"#utility.yul\":7671:7750   */\n      tag_340\n      tag_167\n      jump\t// in\n    tag_340:\n        /* \"#utility.yul\":7632:7752   */\n    tag_339:\n        /* \"#utility.yul\":7791:7792   */\n      0x00\n        /* \"#utility.yul\":7816:7866   */\n      tag_341\n        /* \"#utility.yul\":7858:7865   */\n      dup10\n        /* \"#utility.yul\":7849:7855   */\n      dup3\n        /* \"#utility.yul\":7838:7847   */\n      dup11\n        /* \"#utility.yul\":7834:7856   */\n      add\n        /* \"#utility.yul\":7816:7866   */\n      tag_192\n      jump\t// in\n    tag_341:\n        /* \"#utility.yul\":7806:7866   */\n      swap7\n      pop\n        /* \"#utility.yul\":7762:7876   */\n      pop\n        /* \"#utility.yul\":7943:7945   */\n      0x20\n        /* \"#utility.yul\":7932:7941   */\n      dup8\n        /* \"#utility.yul\":7928:7946   */\n      add\n        /* \"#utility.yul\":7915:7947   */\n      calldataload\n        /* \"#utility.yul\":7974:7992   */\n      0xffffffffffffffff\n        /* \"#utility.yul\":7966:7972   */\n      dup2\n        /* \"#utility.yul\":7963:7993   */\n      gt\n        /* \"#utility.yul\":7960:8077   */\n      iszero\n      tag_342\n      jumpi\n        /* \"#utility.yul\":7996:8075   */\n      tag_343\n      tag_168\n      jump\t// in\n    tag_343:\n        /* \"#utility.yul\":7960:8077   */\n    tag_342:\n        /* \"#utility.yul\":8109:8189   */\n      tag_344\n        /* \"#utility.yul\":8181:8188   */\n      dup10\n        /* \"#utility.yul\":8172:8178   */\n      dup3\n        /* \"#utility.yul\":8161:8170   */\n      dup11\n        /* \"#utility.yul\":8157:8179   */\n      add\n        /* \"#utility.yul\":8109:8189   */\n      tag_193\n      jump\t// in\n    tag_344:\n        /* \"#utility.yul\":8091:8189   */\n      swap6\n      pop\n      swap6\n      pop\n        /* \"#utility.yul\":7886:8199   */\n      pop\n        /* \"#utility.yul\":8238:8240   */\n      0x40\n        /* \"#utility.yul\":8264:8317   */\n      tag_345\n        /* \"#utility.yul\":8309:8316   */\n      dup10\n        /* \"#utility.yul\":8300:8306   */\n      dup3\n        /* \"#utility.yul\":8289:8298   */\n      dup11\n        /* \"#utility.yul\":8285:8307   */\n      add\n        /* \"#utility.yul\":8264:8317   */\n      tag_184\n      jump\t// in\n    tag_345:\n        /* \"#utility.yul\":8254:8317   */\n      swap4\n      pop\n        /* \"#utility.yul\":8209:8327   */\n      pop\n        /* \"#utility.yul\":8394:8396   */\n      0x60\n        /* \"#utility.yul\":8383:8392   */\n      dup8\n        /* \"#utility.yul\":8379:8397   */\n      add\n        /* \"#utility.yul\":8366:8398   */\n      calldataload\n        /* \"#utility.yul\":8425:8443   */\n      0xffffffffffffffff\n        /* \"#utility.yul\":8417:8423   */\n      dup2\n        /* \"#utility.yul\":8414:8444   */\n      gt\n        /* \"#utility.yul\":8411:8528   */\n      iszero\n      tag_346\n      jumpi\n        /* \"#utility.yul\":8447:8526   */\n      tag_347\n      tag_168\n      jump\t// in\n    tag_347:\n        /* \"#utility.yul\":8411:8528   */\n    tag_346:\n        /* \"#utility.yul\":8560:8625   */\n      tag_348\n        /* \"#utility.yul\":8617:8624   */\n      dup10\n        /* \"#utility.yul\":8608:8614   */\n      dup3\n        /* \"#utility.yul\":8597:8606   */\n      dup11\n        /* \"#utility.yul\":8593:8615   */\n      add\n        /* \"#utility.yul\":8560:8625   */\n      tag_194\n      jump\t// in\n    tag_348:\n        /* \"#utility.yul\":8542:8625   */\n      swap3\n      pop\n      swap3\n      pop\n        /* \"#utility.yul\":8337:8635   */\n      pop\n        /* \"#utility.yul\":7453:8642   */\n      swap3\n      swap6\n      pop\n      swap3\n      swap6\n      pop\n      swap3\n      swap6\n      jump\t// out\n        /* \"#utility.yul\":8648:8765   */\n    tag_195:\n        /* \"#utility.yul\":8757:8758   */\n      0x00\n        /* \"#utility.yul\":8754:8755   */\n      dup1\n        /* \"#utility.yul\":8747:8759   */\n      revert\n        /* \"#utility.yul\":8771:8951   */\n    tag_196:\n        /* \"#utility.yul\":8819:8896   */\n      0x4e487b7100000000000000000000000000000000000000000000000000000000\n        /* \"#utility.yul\":8816:8817   */\n      0x00\n        /* \"#utility.yul\":8809:8897   */\n      mstore\n        /* \"#utility.yul\":8916:8920   */\n      0x41\n        /* \"#utility.yul\":8913:8914   */\n      0x04\n        /* \"#utility.yul\":8906:8921   */\n      mstore\n        /* \"#utility.yul\":8940:8944   */\n      0x24\n        /* \"#utility.yul\":8937:8938   */\n      0x00\n        /* \"#utility.yul\":8930:8945   */\n      revert\n        /* \"#utility.yul\":8957:9238   */\n    tag_197:\n        /* \"#utility.yul\":9040:9067   */\n      tag_352\n        /* \"#utility.yul\":9062:9066   */\n      dup3\n        /* \"#utility.yul\":9040:9067   */\n      tag_176\n      jump\t// in\n    tag_352:\n        /* \"#utility.yul\":9032:9038   */\n      dup2\n        /* \"#utility.yul\":9028:9068   */\n      add\n        /* \"#utility.yul\":9170:9176   */\n      dup2\n        /* \"#utility.yul\":9158:9168   */\n      dup2\n        /* \"#utility.yul\":9155:9177   */\n      lt\n        /* \"#utility.yul\":9134:9152   */\n      0xffffffffffffffff\n        /* \"#utility.yul\":9122:9132   */\n      dup3\n        /* \"#utility.yul\":9119:9153   */\n      gt\n        /* \"#utility.yul\":9116:9178   */\n      or\n        /* \"#utility.yul\":9113:9201   */\n      iszero\n      tag_353\n      jumpi\n        /* \"#utility.yul\":9181:9199   */\n      tag_354\n      tag_196\n      jump\t// in\n    tag_354:\n        /* \"#utility.yul\":9113:9201   */\n    tag_353:\n        /* \"#utility.yul\":9221:9231   */\n      dup1\n        /* \"#utility.yul\":9217:9219   */\n      0x40\n        /* \"#utility.yul\":9210:9232   */\n      mstore\n        /* \"#utility.yul\":9000:9238   */\n      pop\n        /* \"#utility.yul\":8957:9238   */\n      pop\n      pop\n      jump\t// out\n        /* \"#utility.yul\":9244:9373   */\n    tag_198:\n        /* \"#utility.yul\":9278:9284   */\n      0x00\n        /* \"#utility.yul\":9305:9325   */\n      tag_356\n      tag_166\n      jump\t// in\n    tag_356:\n        /* \"#utility.yul\":9295:9325   */\n      swap1\n      pop\n        /* \"#utility.yul\":9334:9367   */\n      tag_357\n        /* \"#utility.yul\":9362:9366   */\n      dup3\n        /* \"#utility.yul\":9354:9360   */\n      dup3\n        /* \"#utility.yul\":9334:9367   */\n      tag_197\n      jump\t// in\n    tag_357:\n        /* \"#utility.yul\":9244:9373   */\n      swap2\n      swap1\n      pop\n      jump\t// out\n        /* \"#utility.yul\":9379:9687   */\n    tag_199:\n        /* \"#utility.yul\":9441:9445   */\n      0x00\n        /* \"#utility.yul\":9531:9549   */\n      0xffffffffffffffff\n        /* \"#utility.yul\":9523:9529   */\n      dup3\n        /* \"#utility.yul\":9520:9550   */\n      gt\n        /* \"#utility.yul\":9517:9573   */\n      iszero\n      tag_359\n      jumpi\n        /* \"#utility.yul\":9553:9571   */\n      tag_360\n      tag_196\n      jump\t// in\n    tag_360:\n        /* \"#utility.yul\":9517:9573   */\n    tag_359:\n        /* \"#utility.yul\":9591:9620   */\n      tag_361\n        /* \"#utility.yul\":9613:9619   */\n      dup3\n        /* \"#utility.yul\":9591:9620   */\n      tag_176\n      jump\t// in\n    tag_361:\n        /* \"#utility.yul\":9583:9620   */\n      swap1\n      pop\n        /* \"#utility.yul\":9675:9679   */\n      0x20\n        /* \"#utility.yul\":9669:9673   */\n      dup2\n        /* \"#utility.yul\":9665:9680   */\n      add\n        /* \"#utility.yul\":9657:9680   */\n      swap1\n      pop\n        /* \"#utility.yul\":9379:9687   */\n      swap2\n      swap1\n      pop\n      jump\t// out\n        /* \"#utility.yul\":9693:9839   */\n    tag_200:\n        /* \"#utility.yul\":9790:9796   */\n      dup3\n        /* \"#utility.yul\":9785:9788   */\n      dup2\n        /* \"#utility.yul\":9780:9783   */\n      dup4\n        /* \"#utility.yul\":9767:9797   */\n      calldatacopy\n        /* \"#utility.yul\":9831:9832   */\n      0x00\n        /* \"#utility.yul\":9822:9828   */\n      dup4\n        /* \"#utility.yul\":9817:9820   */\n      dup4\n        /* \"#utility.yul\":9813:9829   */\n      add\n        /* \"#utility.yul\":9806:9833   */\n      mstore\n        /* \"#utility.yul\":9693:9839   */\n      pop\n      pop\n      pop\n      jump\t// out\n        /* \"#utility.yul\":9845:10270   */\n    tag_201:\n        /* \"#utility.yul\":9923:9928   */\n      0x00\n        /* \"#utility.yul\":9948:10014   */\n      tag_364\n        /* \"#utility.yul\":9964:10013   */\n      tag_365\n        /* \"#utility.yul\":10006:10012   */\n      dup5\n        /* \"#utility.yul\":9964:10013   */\n      tag_199\n      jump\t// in\n    tag_365:\n        /* \"#utility.yul\":9948:10014   */\n      tag_198\n      jump\t// in\n    tag_364:\n        /* \"#utility.yul\":9939:10014   */\n      swap1\n      pop\n        /* \"#utility.yul\":10037:10043   */\n      dup3\n        /* \"#utility.yul\":10030:10035   */\n      dup2\n        /* \"#utility.yul\":10023:10044   */\n      mstore\n        /* \"#utility.yul\":10075:10079   */\n      0x20\n        /* \"#utility.yul\":10068:10073   */\n      dup2\n        /* \"#utility.yul\":10064:10080   */\n      add\n        /* \"#utility.yul\":10113:10116   */\n      dup5\n        /* \"#utility.yul\":10104:10110   */\n      dup5\n        /* \"#utility.yul\":10099:10102   */\n      dup5\n        /* \"#utility.yul\":10095:10111   */\n      add\n        /* \"#utility.yul\":10092:10117   */\n      gt\n        /* \"#utility.yul\":10089:10201   */\n      iszero\n      tag_366\n      jumpi\n        /* \"#utility.yul\":10120:10199   */\n      tag_367\n      tag_195\n      jump\t// in\n    tag_367:\n        /* \"#utility.yul\":10089:10201   */\n    tag_366:\n        /* \"#utility.yul\":10210:10264   */\n      tag_368\n        /* \"#utility.yul\":10257:10263   */\n      dup5\n        /* \"#utility.yul\":10252:10255   */\n      dup3\n        /* \"#utility.yul\":10247:10250   */\n      dup6\n        /* \"#utility.yul\":10210:10264   */\n      tag_200\n      jump\t// in\n    tag_368:\n        /* \"#utility.yul\":9929:10270   */\n      pop\n        /* \"#utility.yul\":9845:10270   */\n      swap4\n      swap3\n      pop\n      pop\n      pop\n      jump\t// out\n        /* \"#utility.yul\":10290:10630   */\n    tag_202:\n        /* \"#utility.yul\":10346:10351   */\n      0x00\n        /* \"#utility.yul\":10395:10398   */\n      dup3\n        /* \"#utility.yul\":10388:10392   */\n      0x1f\n        /* \"#utility.yul\":10380:10386   */\n      dup4\n        /* \"#utility.yul\":10376:10393   */\n      add\n        /* \"#utility.yul\":10372:10399   */\n      slt\n        /* \"#utility.yul\":10362:10484   */\n      tag_370\n      jumpi\n        /* \"#utility.yul\":10403:10482   */\n      tag_371\n      tag_169\n      jump\t// in\n    tag_371:\n        /* \"#utility.yul\":10362:10484   */\n    tag_370:\n        /* \"#utility.yul\":10520:10526   */\n      dup2\n        /* \"#utility.yul\":10507:10527   */\n      calldataload\n        /* \"#utility.yul\":10545:10624   */\n      tag_372\n        /* \"#utility.yul\":10620:10623   */\n      dup5\n        /* \"#utility.yul\":10612:10618   */\n      dup3\n        /* \"#utility.yul\":10605:10609   */\n      0x20\n        /* \"#utility.yul\":10597:10603   */\n      dup7\n        /* \"#utility.yul\":10593:10610   */\n      add\n        /* \"#utility.yul\":10545:10624   */\n      tag_201\n      jump\t// in\n    tag_372:\n        /* \"#utility.yul\":10536:10624   */\n      swap2\n      pop\n        /* \"#utility.yul\":10352:10630   */\n      pop\n        /* \"#utility.yul\":10290:10630   */\n      swap3\n      swap2\n      pop\n      pop\n      jump\t// out\n        /* \"#utility.yul\":10636:11145   */\n    tag_55:\n        /* \"#utility.yul\":10705:10711   */\n      0x00\n        /* \"#utility.yul\":10754:10756   */\n      0x20\n        /* \"#utility.yul\":10742:10751   */\n      dup3\n        /* \"#utility.yul\":10733:10740   */\n      dup5\n        /* \"#utility.yul\":10729:10752   */\n      sub\n        /* \"#utility.yul\":10725:10757   */\n      slt\n        /* \"#utility.yul\":10722:10841   */\n      iszero\n      tag_374\n      jumpi\n        /* \"#utility.yul\":10760:10839   */\n      tag_375\n      tag_167\n      jump\t// in\n    tag_375:\n        /* \"#utility.yul\":10722:10841   */\n    tag_374:\n        /* \"#utility.yul\":10908:10909   */\n      0x00\n        /* \"#utility.yul\":10897:10906   */\n      dup3\n        /* \"#utility.yul\":10893:10910   */\n      add\n        /* \"#utility.yul\":10880:10911   */\n      calldataload\n        /* \"#utility.yul\":10938:10956   */\n      0xffffffffffffffff\n        /* \"#utility.yul\":10930:10936   */\n      dup2\n        /* \"#utility.yul\":10927:10957   */\n      gt\n        /* \"#utility.yul\":10924:11041   */\n      iszero\n      tag_376\n      jumpi\n        /* \"#utility.yul\":10960:11039   */\n      tag_377\n      tag_168\n      jump\t// in\n    tag_377:\n        /* \"#utility.yul\":10924:11041   */\n    tag_376:\n        /* \"#utility.yul\":11065:11128   */\n      tag_378\n        /* \"#utility.yul\":11120:11127   */\n      dup5\n        /* \"#utility.yul\":11111:11117   */\n      dup3\n        /* \"#utility.yul\":11100:11109   */\n      dup6\n        /* \"#utility.yul\":11096:11118   */\n      add\n        /* \"#utility.yul\":11065:11128   */\n      tag_202\n      jump\t// in\n    tag_378:\n        /* \"#utility.yul\":11055:11128   */\n      swap2\n      pop\n        /* \"#utility.yul\":10851:11138   */\n      pop\n        /* \"#utility.yul\":10636:11145   */\n      swap3\n      swap2\n      pop\n      pop\n      jump\t// out\n        /* \"#utility.yul\":11151:11260   */\n    tag_203:\n        /* \"#utility.yul\":11232:11253   */\n      tag_380\n        /* \"#utility.yul\":11247:11252   */\n      dup2\n        /* \"#utility.yul\":11232:11253   */\n      tag_190\n      jump\t// in\n    tag_380:\n        /* \"#utility.yul\":11227:11230   */\n      dup3\n        /* \"#utility.yul\":11220:11254   */\n      mstore\n        /* \"#utility.yul\":11151:11260   */\n      pop\n      pop\n      jump\t// out\n        /* \"#utility.yul\":11266:11476   */\n    tag_76:\n        /* \"#utility.yul\":11353:11357   */\n      0x00\n        /* \"#utility.yul\":11391:11393   */\n      0x20\n        /* \"#utility.yul\":11380:11389   */\n      dup3\n        /* \"#utility.yul\":11376:11394   */\n      add\n        /* \"#utility.yul\":11368:11394   */\n      swap1\n      pop\n        /* \"#utility.yul\":11404:11469   */\n      tag_382\n        /* \"#utility.yul\":11466:11467   */\n      0x00\n        /* \"#utility.yul\":11455:11464   */\n      dup4\n        /* \"#utility.yul\":11451:11468   */\n      add\n        /* \"#utility.yul\":11442:11448   */\n      dup5\n        /* \"#utility.yul\":11404:11469   */\n      tag_203\n      jump\t// in\n    tag_382:\n        /* \"#utility.yul\":11266:11476   */\n      swap3\n      swap2\n      pop\n      pop\n      jump\t// out\n        /* \"#utility.yul\":11482:11811   */\n    tag_88:\n        /* \"#utility.yul\":11541:11547   */\n      0x00\n        /* \"#utility.yul\":11590:11592   */\n      0x20\n        /* \"#utility.yul\":11578:11587   */\n      dup3\n        /* \"#utility.yul\":11569:11576   */\n      dup5\n        /* \"#utility.yul\":11565:11588   */\n      sub\n        /* \"#utility.yul\":11561:11593   */\n      slt\n        /* \"#utility.yul\":11558:11677   */\n      iszero\n      tag_384\n      jumpi\n        /* \"#utility.yul\":11596:11675   */\n      tag_385\n      tag_167\n      jump\t// in\n    tag_385:\n        /* \"#utility.yul\":11558:11677   */\n    tag_384:\n        /* \"#utility.yul\":11716:11717   */\n      0x00\n        /* \"#utility.yul\":11741:11794   */\n      tag_386\n        /* \"#utility.yul\":11786:11793   */\n      dup5\n        /* \"#utility.yul\":11777:11783   */\n      dup3\n        /* \"#utility.yul\":11766:11775   */\n      dup6\n        /* \"#utility.yul\":11762:11784   */\n      add\n        /* \"#utility.yul\":11741:11794   */\n      tag_186\n      jump\t// in\n    tag_386:\n        /* \"#utility.yul\":11731:11794   */\n      swap2\n      pop\n        /* \"#utility.yul\":11687:11804   */\n      pop\n        /* \"#utility.yul\":11482:11811   */\n      swap3\n      swap2\n      pop\n      pop\n      jump\t// out\n        /* \"#utility.yul\":11817:12130   */\n    tag_91:\n        /* \"#utility.yul\":11930:11934   */\n      0x00\n        /* \"#utility.yul\":11968:11970   */\n      0x20\n        /* \"#utility.yul\":11957:11966   */\n      dup3\n        /* \"#utility.yul\":11953:11971   */\n      add\n        /* \"#utility.yul\":11945:11971   */\n      swap1\n      pop\n        /* \"#utility.yul\":12017:12026   */\n      dup2\n        /* \"#utility.yul\":12011:12015   */\n      dup2\n        /* \"#utility.yul\":12007:12027   */\n      sub\n        /* \"#utility.yul\":12003:12004   */\n      0x00\n        /* \"#utility.yul\":11992:12001   */\n      dup4\n        /* \"#utility.yul\":11988:12005   */\n      add\n        /* \"#utility.yul\":11981:12028   */\n      mstore\n        /* \"#utility.yul\":12045:12123   */\n      tag_388\n        /* \"#utility.yul\":12118:12122   */\n      dup2\n        /* \"#utility.yul\":12109:12115   */\n      dup5\n        /* \"#utility.yul\":12045:12123   */\n      tag_177\n      jump\t// in\n    tag_388:\n        /* \"#utility.yul\":12037:12123   */\n      swap1\n      pop\n        /* \"#utility.yul\":11817:12130   */\n      swap3\n      swap2\n      pop\n      pop\n      jump\t// out\n        /* \"#utility.yul\":12136:12240   */\n    tag_204:\n        /* \"#utility.yul\":12181:12188   */\n      0x00\n        /* \"#utility.yul\":12210:12234   */\n      tag_390\n        /* \"#utility.yul\":12228:12233   */\n      dup3\n        /* \"#utility.yul\":12210:12234   */\n      tag_180\n      jump\t// in\n    tag_390:\n        /* \"#utility.yul\":12199:12234   */\n      swap1\n      pop\n        /* \"#utility.yul\":12136:12240   */\n      swap2\n      swap1\n      pop\n      jump\t// out\n        /* \"#utility.yul\":12246:12384   */\n    tag_205:\n        /* \"#utility.yul\":12327:12359   */\n      tag_392\n        /* \"#utility.yul\":12353:12358   */\n      dup2\n        /* \"#utility.yul\":12327:12359   */\n      tag_204\n      jump\t// in\n    tag_392:\n        /* \"#utility.yul\":12320:12325   */\n      dup2\n        /* \"#utility.yul\":12317:12360   */\n      eq\n        /* \"#utility.yul\":12307:12378   */\n      tag_393\n      jumpi\n        /* \"#utility.yul\":12374:12375   */\n      0x00\n        /* \"#utility.yul\":12371:12372   */\n      dup1\n        /* \"#utility.yul\":12364:12376   */\n      revert\n        /* \"#utility.yul\":12307:12378   */\n    tag_393:\n        /* \"#utility.yul\":12246:12384   */\n      pop\n      jump\t// out\n        /* \"#utility.yul\":12390:12545   */\n    tag_206:\n        /* \"#utility.yul\":12444:12449   */\n      0x00\n        /* \"#utility.yul\":12482:12488   */\n      dup2\n        /* \"#utility.yul\":12469:12489   */\n      calldataload\n        /* \"#utility.yul\":12460:12489   */\n      swap1\n      pop\n        /* \"#utility.yul\":12498:12539   */\n      tag_395\n        /* \"#utility.yul\":12533:12538   */\n      dup2\n        /* \"#utility.yul\":12498:12539   */\n      tag_205\n      jump\t// in\n    tag_395:\n        /* \"#utility.yul\":12390:12545   */\n      swap3\n      swap2\n      pop\n      pop\n      jump\t// out\n        /* \"#utility.yul\":12551:13366   */\n    tag_102:\n        /* \"#utility.yul\":12646:12652   */\n      0x00\n        /* \"#utility.yul\":12654:12660   */\n      dup1\n        /* \"#utility.yul\":12662:12668   */\n      0x00\n        /* \"#utility.yul\":12711:12713   */\n      0x60\n        /* \"#utility.yul\":12699:12708   */\n      dup5\n        /* \"#utility.yul\":12690:12697   */\n      dup7\n        /* \"#utility.yul\":12686:12709   */\n      sub\n        /* \"#utility.yul\":12682:12714   */\n      slt\n        /* \"#utility.yul\":12679:12798   */\n      iszero\n      tag_397\n      jumpi\n        /* \"#utility.yul\":12717:12796   */\n      tag_398\n      tag_167\n      jump\t// in\n    tag_398:\n        /* \"#utility.yul\":12679:12798   */\n    tag_397:\n        /* \"#utility.yul\":12865:12866   */\n      0x00\n        /* \"#utility.yul\":12854:12863   */\n      dup5\n        /* \"#utility.yul\":12850:12867   */\n      add\n        /* \"#utility.yul\":12837:12868   */\n      calldataload\n        /* \"#utility.yul\":12895:12913   */\n      0xffffffffffffffff\n        /* \"#utility.yul\":12887:12893   */\n      dup2\n        /* \"#utility.yul\":12884:12914   */\n      gt\n        /* \"#utility.yul\":12881:12998   */\n      iszero\n      tag_399\n      jumpi\n        /* \"#utility.yul\":12917:12996   */\n      tag_400\n      tag_168\n      jump\t// in\n    tag_400:\n        /* \"#utility.yul\":12881:12998   */\n    tag_399:\n        /* \"#utility.yul\":13022:13085   */\n      tag_401\n        /* \"#utility.yul\":13077:13084   */\n      dup7\n        /* \"#utility.yul\":13068:13074   */\n      dup3\n        /* \"#utility.yul\":13057:13066   */\n      dup8\n        /* \"#utility.yul\":13053:13075   */\n      add\n        /* \"#utility.yul\":13022:13085   */\n      tag_202\n      jump\t// in\n    tag_401:\n        /* \"#utility.yul\":13012:13085   */\n      swap4\n      pop\n        /* \"#utility.yul\":12808:13095   */\n      pop\n        /* \"#utility.yul\":13134:13136   */\n      0x20\n        /* \"#utility.yul\":13160:13213   */\n      tag_402\n        /* \"#utility.yul\":13205:13212   */\n      dup7\n        /* \"#utility.yul\":13196:13202   */\n      dup3\n        /* \"#utility.yul\":13185:13194   */\n      dup8\n        /* \"#utility.yul\":13181:13203   */\n      add\n        /* \"#utility.yul\":13160:13213   */\n      tag_186\n      jump\t// in\n    tag_402:\n        /* \"#utility.yul\":13150:13213   */\n      swap3\n      pop\n        /* \"#utility.yul\":13105:13223   */\n      pop\n        /* \"#utility.yul\":13262:13264   */\n      0x40\n        /* \"#utility.yul\":13288:13349   */\n      tag_403\n        /* \"#utility.yul\":13341:13348   */\n      dup7\n        /* \"#utility.yul\":13332:13338   */\n      dup3\n        /* \"#utility.yul\":13321:13330   */\n      dup8\n        /* \"#utility.yul\":13317:13339   */\n      add\n        /* \"#utility.yul\":13288:13349   */\n      tag_206\n      jump\t// in\n    tag_403:\n        /* \"#utility.yul\":13278:13349   */\n      swap2\n      pop\n        /* \"#utility.yul\":13233:13359   */\n      pop\n        /* \"#utility.yul\":12551:13366   */\n      swap3\n      pop\n      swap3\n      pop\n      swap3\n      jump\t// out\n        /* \"#utility.yul\":13372:13704   */\n    tag_105:\n        /* \"#utility.yul\":13493:13497   */\n      0x00\n        /* \"#utility.yul\":13531:13533   */\n      0x40\n        /* \"#utility.yul\":13520:13529   */\n      dup3\n        /* \"#utility.yul\":13516:13534   */\n      add\n        /* \"#utility.yul\":13508:13534   */\n      swap1\n      pop\n        /* \"#utility.yul\":13544:13615   */\n      tag_405\n        /* \"#utility.yul\":13612:13613   */\n      0x00\n        /* \"#utility.yul\":13601:13610   */\n      dup4\n        /* \"#utility.yul\":13597:13614   */\n      add\n        /* \"#utility.yul\":13588:13594   */\n      dup6\n        /* \"#utility.yul\":13544:13615   */\n      tag_182\n      jump\t// in\n    tag_405:\n        /* \"#utility.yul\":13625:13697   */\n      tag_406\n        /* \"#utility.yul\":13693:13695   */\n      0x20\n        /* \"#utility.yul\":13682:13691   */\n      dup4\n        /* \"#utility.yul\":13678:13696   */\n      add\n        /* \"#utility.yul\":13669:13675   */\n      dup5\n        /* \"#utility.yul\":13625:13697   */\n      tag_179\n      jump\t// in\n    tag_406:\n        /* \"#utility.yul\":13372:13704   */\n      swap4\n      swap3\n      pop\n      pop\n      pop\n      jump\t// out\n        /* \"#utility.yul\":13710:13858   */\n    tag_207:\n        /* \"#utility.yul\":13812:13823   */\n      0x00\n        /* \"#utility.yul\":13849:13852   */\n      dup2\n        /* \"#utility.yul\":13834:13852   */\n      swap1\n      pop\n        /* \"#utility.yul\":13710:13858   */\n      swap3\n      swap2\n      pop\n      pop\n      jump\t// out\n        /* \"#utility.yul\":13864:14022   */\n    tag_208:\n        /* \"#utility.yul\":14004:14014   */\n      0x617070776f726b73000000000000000000000000000000000000000000000000\n        /* \"#utility.yul\":14000:14001   */\n      0x00\n        /* \"#utility.yul\":13992:13998   */\n      dup3\n        /* \"#utility.yul\":13988:14002   */\n      add\n        /* \"#utility.yul\":13981:14015   */\n      mstore\n        /* \"#utility.yul\":13864:14022   */\n      pop\n      jump\t// out\n        /* \"#utility.yul\":14028:14428   */\n    tag_209:\n        /* \"#utility.yul\":14188:14191   */\n      0x00\n        /* \"#utility.yul\":14209:14293   */\n      tag_410\n        /* \"#utility.yul\":14291:14292   */\n      0x08\n        /* \"#utility.yul\":14286:14289   */\n      dup4\n        /* \"#utility.yul\":14209:14293   */\n      tag_207\n      jump\t// in\n    tag_410:\n        /* \"#utility.yul\":14202:14293   */\n      swap2\n      pop\n        /* \"#utility.yul\":14302:14395   */\n      tag_411\n        /* \"#utility.yul\":14391:14394   */\n      dup3\n        /* \"#utility.yul\":14302:14395   */\n      tag_208\n      jump\t// in\n    tag_411:\n        /* \"#utility.yul\":14420:14421   */\n      0x08\n        /* \"#utility.yul\":14415:14418   */\n      dup3\n        /* \"#utility.yul\":14411:14422   */\n      add\n        /* \"#utility.yul\":14404:14422   */\n      swap1\n      pop\n        /* \"#utility.yul\":14028:14428   */\n      swap2\n      swap1\n      pop\n      jump\t// out\n        /* \"#utility.yul\":14434:14815   */\n    tag_108:\n        /* \"#utility.yul\":14619:14622   */\n      0x00\n        /* \"#utility.yul\":14641:14789   */\n      tag_413\n        /* \"#utility.yul\":14785:14788   */\n      dup3\n        /* \"#utility.yul\":14641:14789   */\n      tag_209\n      jump\t// in\n    tag_413:\n        /* \"#utility.yul\":14634:14789   */\n      swap2\n      pop\n        /* \"#utility.yul\":14806:14809   */\n      dup2\n        /* \"#utility.yul\":14799:14809   */\n      swap1\n      pop\n        /* \"#utility.yul\":14434:14815   */\n      swap2\n      swap1\n      pop\n      jump\t// out\n        /* \"#utility.yul\":14821:15005   */\n    tag_210:\n        /* \"#utility.yul\":14920:14931   */\n      0x00\n        /* \"#utility.yul\":14954:14960   */\n      dup3\n        /* \"#utility.yul\":14949:14952   */\n      dup3\n        /* \"#utility.yul\":14942:14961   */\n      mstore\n        /* \"#utility.yul\":14994:14998   */\n      0x20\n        /* \"#utility.yul\":14989:14992   */\n      dup3\n        /* \"#utility.yul\":14985:14999   */\n      add\n        /* \"#utility.yul\":14970:14999   */\n      swap1\n      pop\n        /* \"#utility.yul\":14821:15005   */\n      swap3\n      swap2\n      pop\n      pop\n      jump\t// out\n        /* \"#utility.yul\":15011:15128   */\n    tag_211:\n        /* \"#utility.yul\":15120:15121   */\n      0x00\n        /* \"#utility.yul\":15117:15118   */\n      dup1\n        /* \"#utility.yul\":15110:15122   */\n      revert\n        /* \"#utility.yul\":15134:15232   */\n    tag_212:\n        /* \"#utility.yul\":15218:15224   */\n      dup3\n        /* \"#utility.yul\":15213:15216   */\n      dup2\n        /* \"#utility.yul\":15208:15211   */\n      dup4\n        /* \"#utility.yul\":15195:15225   */\n      calldatacopy\n        /* \"#utility.yul\":15134:15232   */\n      pop\n      pop\n      pop\n      jump\t// out\n        /* \"#utility.yul\":15268:15805   */\n    tag_213:\n        /* \"#utility.yul\":15396:15399   */\n      0x00\n        /* \"#utility.yul\":15417:15503   */\n      tag_418\n        /* \"#utility.yul\":15496:15502   */\n      dup4\n        /* \"#utility.yul\":15491:15494   */\n      dup6\n        /* \"#utility.yul\":15417:15503   */\n      tag_210\n      jump\t// in\n    tag_418:\n        /* \"#utility.yul\":15410:15503   */\n      swap4\n      pop\n        /* \"#utility.yul\":15527:15593   */\n      0x07ffffffffffffffffffffffffffffffffffffffffffffffffffffffffffffff\n        /* \"#utility.yul\":15519:15525   */\n      dup4\n        /* \"#utility.yul\":15516:15594   */\n      gt\n        /* \"#utility.yul\":15513:15678   */\n      iszero\n      tag_419\n      jumpi\n        /* \"#utility.yul\":15597:15676   */\n      tag_420\n      tag_211\n      jump\t// in\n    tag_420:\n        /* \"#utility.yul\":15513:15678   */\n    tag_419:\n        /* \"#utility.yul\":15709:15713   */\n      0x20\n        /* \"#utility.yul\":15701:15707   */\n      dup4\n        /* \"#utility.yul\":15697:15714   */\n      mul\n        /* \"#utility.yul\":15687:15714   */\n      swap3\n      pop\n        /* \"#utility.yul\":15724:15767   */\n      tag_421\n        /* \"#utility.yul\":15760:15766   */\n      dup4\n        /* \"#utility.yul\":15755:15758   */\n      dup6\n        /* \"#utility.yul\":15748:15753   */\n      dup5\n        /* \"#utility.yul\":15724:15767   */\n      tag_212\n      jump\t// in\n    tag_421:\n        /* \"#utility.yul\":15792:15798   */\n      dup3\n        /* \"#utility.yul\":15787:15790   */\n      dup5\n        /* \"#utility.yul\":15783:15799   */\n      add\n        /* \"#utility.yul\":15776:15799   */\n      swap1\n      pop\n        /* \"#utility.yul\":15268:15805   */\n      swap4\n      swap3\n      pop\n      pop\n      pop\n      jump\t// out\n        /* \"#utility.yul\":15835:16152   */\n    tag_214:\n        /* \"#utility.yul\":15933:15936   */\n      0x00\n        /* \"#utility.yul\":15954:16025   */\n      tag_423\n        /* \"#utility.yul\":16018:16024   */\n      dup4\n        /* \"#utility.yul\":16013:16016   */\n      dup6\n        /* \"#utility.yul\":15954:16025   */\n      tag_174\n      jump\t// in\n    tag_423:\n        /* \"#utility.yul\":15947:16025   */\n      swap4\n      pop\n        /* \"#utility.yul\":16035:16091   */\n      tag_424\n        /* \"#utility.yul\":16084:16090   */\n      dup4\n        /* \"#utility.yul\":16079:16082   */\n      dup6\n        /* \"#utility.yul\":16072:16077   */\n      dup5\n        /* \"#utility.yul\":16035:16091   */\n      tag_200\n      jump\t// in\n    tag_424:\n        /* \"#utility.yul\":16116:16145   */\n      tag_425\n        /* \"#utility.yul\":16138:16144   */\n      dup4\n        /* \"#utility.yul\":16116:16145   */\n      tag_176\n      jump\t// in\n    tag_425:\n        /* \"#utility.yul\":16111:16114   */\n      dup5\n        /* \"#utility.yul\":16107:16146   */\n      add\n        /* \"#utility.yul\":16100:16146   */\n      swap1\n      pop\n        /* \"#utility.yul\":15835:16152   */\n      swap4\n      swap3\n      pop\n      pop\n      pop\n      jump\t// out\n        /* \"#utility.yul\":16158:16981   */\n    tag_111:\n        /* \"#utility.yul\":16419:16423   */\n      0x00\n        /* \"#utility.yul\":16457:16460   */\n      0x80\n        /* \"#utility.yul\":16446:16455   */\n      dup3\n        /* \"#utility.yul\":16442:16461   */\n      add\n        /* \"#utility.yul\":16434:16461   */\n      swap1\n      pop\n        /* \"#utility.yul\":16471:16536   */\n      tag_427\n        /* \"#utility.yul\":16533:16534   */\n      0x00\n        /* \"#utility.yul\":16522:16531   */\n      dup4\n        /* \"#utility.yul\":16518:16535   */\n      add\n        /* \"#utility.yul\":16509:16515   */\n      dup10\n        /* \"#utility.yul\":16471:16536   */\n      tag_203\n      jump\t// in\n    tag_427:\n        /* \"#utility.yul\":16583:16592   */\n      dup2\n        /* \"#utility.yul\":16577:16581   */\n      dup2\n        /* \"#utility.yul\":16573:16593   */\n      sub\n        /* \"#utility.yul\":16568:16570   */\n      0x20\n        /* \"#utility.yul\":16557:16566   */\n      dup4\n        /* \"#utility.yul\":16553:16571   */\n      add\n        /* \"#utility.yul\":16546:16594   */\n      mstore\n        /* \"#utility.yul\":16611:16729   */\n      tag_428\n        /* \"#utility.yul\":16724:16728   */\n      dup2\n        /* \"#utility.yul\":16715:16721   */\n      dup8\n        /* \"#utility.yul\":16707:16713   */\n      dup10\n        /* \"#utility.yul\":16611:16729   */\n      tag_213\n      jump\t// in\n    tag_428:\n        /* \"#utility.yul\":16603:16729   */\n      swap1\n      pop\n        /* \"#utility.yul\":16739:16811   */\n      tag_429\n        /* \"#utility.yul\":16807:16809   */\n      0x40\n        /* \"#utility.yul\":16796:16805   */\n      dup4\n        /* \"#utility.yul\":16792:16810   */\n      add\n        /* \"#utility.yul\":16783:16789   */\n      dup7\n        /* \"#utility.yul\":16739:16811   */\n      tag_182\n      jump\t// in\n    tag_429:\n        /* \"#utility.yul\":16858:16867   */\n      dup2\n        /* \"#utility.yul\":16852:16856   */\n      dup2\n        /* \"#utility.yul\":16848:16868   */\n      sub\n        /* \"#utility.yul\":16843:16845   */\n      0x60\n        /* \"#utility.yul\":16832:16841   */\n      dup4\n        /* \"#utility.yul\":16828:16846   */\n      add\n        /* \"#utility.yul\":16821:16869   */\n      mstore\n        /* \"#utility.yul\":16886:16974   */\n      tag_430\n        /* \"#utility.yul\":16969:16973   */\n      dup2\n        /* \"#utility.yul\":16960:16966   */\n      dup5\n        /* \"#utility.yul\":16952:16958   */\n      dup7\n        /* \"#utility.yul\":16886:16974   */\n      tag_214\n      jump\t// in\n    tag_430:\n        /* \"#utility.yul\":16878:16974   */\n      swap1\n      pop\n        /* \"#utility.yul\":16158:16981   */\n      swap8\n      swap7\n      pop\n      pop\n      pop\n      pop\n      pop\n      pop\n      pop\n      jump\t// out\n        /* \"#utility.yul\":16987:17377   */\n    tag_215:\n        /* \"#utility.yul\":17093:17096   */\n      0x00\n        /* \"#utility.yul\":17121:17160   */\n      tag_432\n        /* \"#utility.yul\":17154:17159   */\n      dup3\n        /* \"#utility.yul\":17121:17160   */\n      tag_173\n      jump\t// in\n    tag_432:\n        /* \"#utility.yul\":17176:17265   */\n      tag_433\n        /* \"#utility.yul\":17258:17264   */\n      dup2\n        /* \"#utility.yul\":17253:17256   */\n      dup6\n        /* \"#utility.yul\":17176:17265   */\n      tag_207\n      jump\t// in\n    tag_433:\n        /* \"#utility.yul\":17169:17265   */\n      swap4\n      pop\n        /* \"#utility.yul\":17274:17339   */\n      tag_434\n        /* \"#utility.yul\":17332:17338   */\n      dup2\n        /* \"#utility.yul\":17327:17330   */\n      dup6\n        /* \"#utility.yul\":17320:17324   */\n      0x20\n        /* \"#utility.yul\":17313:17318   */\n      dup7\n        /* \"#utility.yul\":17309:17325   */\n      add\n        /* \"#utility.yul\":17274:17339   */\n      tag_175\n      jump\t// in\n    tag_434:\n        /* \"#utility.yul\":17364:17370   */\n      dup1\n        /* \"#utility.yul\":17359:17362   */\n      dup5\n        /* \"#utility.yul\":17355:17371   */\n      add\n        /* \"#utility.yul\":17348:17371   */\n      swap2\n      pop\n        /* \"#utility.yul\":17097:17377   */\n      pop\n        /* \"#utility.yul\":16987:17377   */\n      swap3\n      swap2\n      pop\n      pop\n      jump\t// out\n        /* \"#utility.yul\":17383:17658   */\n    tag_116:\n        /* \"#utility.yul\":17515:17518   */\n      0x00\n        /* \"#utility.yul\":17537:17632   */\n      tag_436\n        /* \"#utility.yul\":17628:17631   */\n      dup3\n        /* \"#utility.yul\":17619:17625   */\n      dup5\n        /* \"#utility.yul\":17537:17632   */\n      tag_215\n      jump\t// in\n    tag_436:\n        /* \"#utility.yul\":17530:17632   */\n      swap2\n      pop\n        /* \"#utility.yul\":17649:17652   */\n      dup2\n        /* \"#utility.yul\":17642:17652   */\n      swap1\n      pop\n        /* \"#utility.yul\":17383:17658   */\n      swap3\n      swap2\n      pop\n      pop\n      jump\t// out\n        /* \"#utility.yul\":17664:18029   */\n    tag_216:\n        /* \"#utility.yul\":17806:17809   */\n      0x00\n        /* \"#utility.yul\":17827:17893   */\n      tag_438\n        /* \"#utility.yul\":17891:17892   */\n      0x08\n        /* \"#utility.yul\":17886:17889   */\n      dup4\n        /* \"#utility.yul\":17827:17893   */\n      tag_174\n      jump\t// in\n    tag_438:\n        /* \"#utility.yul\":17820:17893   */\n      swap2\n      pop\n        /* \"#utility.yul\":17902:17995   */\n      tag_439\n        /* \"#utility.yul\":17991:17994   */\n      dup3\n        /* \"#utility.yul\":17902:17995   */\n      tag_208\n      jump\t// in\n    tag_439:\n        /* \"#utility.yul\":18020:18022   */\n      0x20\n        /* \"#utility.yul\":18015:18018   */\n      dup3\n        /* \"#utility.yul\":18011:18023   */\n      add\n        /* \"#utility.yul\":18004:18023   */\n      swap1\n      pop\n        /* \"#utility.yul\":17664:18029   */\n      swap2\n      swap1\n      pop\n      jump\t// out\n        /* \"#utility.yul\":18035:18454   */\n    tag_119:\n        /* \"#utility.yul\":18201:18205   */\n      0x00\n        /* \"#utility.yul\":18239:18241   */\n      0x20\n        /* \"#utility.yul\":18228:18237   */\n      dup3\n        /* \"#utility.yul\":18224:18242   */\n      add\n        /* \"#utility.yul\":18216:18242   */\n      swap1\n      pop\n        /* \"#utility.yul\":18288:18297   */\n      dup2\n        /* \"#utility.yul\":18282:18286   */\n      dup2\n        /* \"#utility.yul\":18278:18298   */\n      sub\n        /* \"#utility.yul\":18274:18275   */\n      0x00\n        /* \"#utility.yul\":18263:18272   */\n      dup4\n        /* \"#utility.yul\":18259:18276   */\n      add\n        /* \"#utility.yul\":18252:18299   */\n      mstore\n        /* \"#utility.yul\":18316:18447   */\n      tag_441\n        /* \"#utility.yul\":18442:18446   */\n      dup2\n        /* \"#utility.yul\":18316:18447   */\n      tag_216\n      jump\t// in\n    tag_441:\n        /* \"#utility.yul\":18308:18447   */\n      swap1\n      pop\n        /* \"#utility.yul\":18035:18454   */\n      swap2\n      swap1\n      pop\n      jump\t// out\n        /* \"#utility.yul\":18460:18545   */\n    tag_217:\n        /* \"#utility.yul\":18505:18512   */\n      0x00\n        /* \"#utility.yul\":18534:18539   */\n      dup2\n        /* \"#utility.yul\":18523:18539   */\n      swap1\n      pop\n        /* \"#utility.yul\":18460:18545   */\n      swap2\n      swap1\n      pop\n      jump\t// out\n        /* \"#utility.yul\":18551:18637   */\n    tag_218:\n        /* \"#utility.yul\":18586:18593   */\n      0x00\n        /* \"#utility.yul\":18626:18630   */\n      0xff\n        /* \"#utility.yul\":18619:18624   */\n      dup3\n        /* \"#utility.yul\":18615:18631   */\n      and\n        /* \"#utility.yul\":18604:18631   */\n      swap1\n      pop\n        /* \"#utility.yul\":18551:18637   */\n      swap2\n      swap1\n      pop\n      jump\t// out\n        /* \"#utility.yul\":18643:18703   */\n    tag_219:\n        /* \"#utility.yul\":18671:18674   */\n      0x00\n        /* \"#utility.yul\":18692:18697   */\n      dup2\n        /* \"#utility.yul\":18685:18697   */\n      swap1\n      pop\n        /* \"#utility.yul\":18643:18703   */\n      swap2\n      swap1\n      pop\n      jump\t// out\n        /* \"#utility.yul\":18709:18863   */\n    tag_220:\n        /* \"#utility.yul\":18765:18774   */\n      0x00\n        /* \"#utility.yul\":18798:18857   */\n      tag_446\n        /* \"#utility.yul\":18814:18856   */\n      tag_447\n        /* \"#utility.yul\":18823:18855   */\n      tag_448\n        /* \"#utility.yul\":18849:18854   */\n      dup5\n        /* \"#utility.yul\":18823:18855   */\n      tag_217\n      jump\t// in\n    tag_448:\n        /* \"#utility.yul\":18814:18856   */\n      tag_219\n      jump\t// in\n    tag_447:\n        /* \"#utility.yul\":18798:18857   */\n      tag_218\n      jump\t// in\n    tag_446:\n        /* \"#utility.yul\":18785:18857   */\n      swap1\n      pop\n        /* \"#utility.yul\":18709:18863   */\n      swap2\n      swap1\n      pop\n      jump\t// out\n        /* \"#utility.yul\":18869:19012   */\n    tag_221:\n        /* \"#utility.yul\":18962:19005   */\n      tag_450\n        /* \"#utility.yul\":18999:19004   */\n      dup2\n        /* \"#utility.yul\":18962:19005   */\n      tag_220\n      jump\t// in\n    tag_450:\n        /* \"#utility.yul\":18957:18960   */\n      dup3\n        /* \"#utility.yul\":18950:19006   */\n      mstore\n        /* \"#utility.yul\":18869:19012   */\n      pop\n      pop\n      jump\t// out\n        /* \"#utility.yul\":19018:19104   */\n    tag_222:\n        /* \"#utility.yul\":19064:19071   */\n      0x00\n        /* \"#utility.yul\":19093:19098   */\n      dup2\n        /* \"#utility.yul\":19082:19098   */\n      swap1\n      pop\n        /* \"#utility.yul\":19018:19104   */\n      swap2\n      swap1\n      pop\n      jump\t// out\n        /* \"#utility.yul\":19110:19266   */\n    tag_223:\n        /* \"#utility.yul\":19167:19176   */\n      0x00\n        /* \"#utility.yul\":19200:19260   */\n      tag_453\n        /* \"#utility.yul\":19216:19259   */\n      tag_454\n        /* \"#utility.yul\":19225:19258   */\n      tag_455\n        /* \"#utility.yul\":19252:19257   */\n      dup5\n        /* \"#utility.yul\":19225:19258   */\n      tag_222\n      jump\t// in\n    tag_455:\n        /* \"#utility.yul\":19216:19259   */\n      tag_219\n      jump\t// in\n    tag_454:\n        /* \"#utility.yul\":19200:19260   */\n      tag_218\n      jump\t// in\n    tag_453:\n        /* \"#utility.yul\":19187:19260   */\n      swap1\n      pop\n        /* \"#utility.yul\":19110:19266   */\n      swap2\n      swap1\n      pop\n      jump\t// out\n        /* \"#utility.yul\":19272:19417   */\n    tag_224:\n        /* \"#utility.yul\":19366:19410   */\n      tag_457\n        /* \"#utility.yul\":19404:19409   */\n      dup2\n        /* \"#utility.yul\":19366:19410   */\n      tag_223\n      jump\t// in\n    tag_457:\n        /* \"#utility.yul\":19361:19364   */\n      dup3\n        /* \"#utility.yul\":19354:19411   */\n      mstore\n        /* \"#utility.yul\":19272:19417   */\n      pop\n      pop\n      jump\t// out\n        /* \"#utility.yul\":19423:19576   */\n    tag_225:\n        /* \"#utility.yul\":19563:19568   */\n      0x6a696d0000000000000000000000000000000000000000000000000000000000\n        /* \"#utility.yul\":19559:19560   */\n      0x00\n        /* \"#utility.yul\":19551:19557   */\n      dup3\n        /* \"#utility.yul\":19547:19561   */\n      add\n        /* \"#utility.yul\":19540:19569   */\n      mstore\n        /* \"#utility.yul\":19423:19576   */\n      pop\n      jump\t// out\n        /* \"#utility.yul\":19582:19947   */\n    tag_226:\n        /* \"#utility.yul\":19724:19727   */\n      0x00\n        /* \"#utility.yul\":19745:19811   */\n      tag_460\n        /* \"#utility.yul\":19809:19810   */\n      0x03\n        /* \"#utility.yul\":19804:19807   */\n      dup4\n        /* \"#utility.yul\":19745:19811   */\n      tag_174\n      jump\t// in\n    tag_460:\n        /* \"#utility.yul\":19738:19811   */\n      swap2\n      pop\n        /* \"#utility.yul\":19820:19913   */\n      tag_461\n        /* \"#utility.yul\":19909:19912   */\n      dup3\n        /* \"#utility.yul\":19820:19913   */\n      tag_225\n      jump\t// in\n    tag_461:\n        /* \"#utility.yul\":19938:19940   */\n      0x20\n        /* \"#utility.yul\":19933:19936   */\n      dup3\n        /* \"#utility.yul\":19929:19941   */\n      add\n        /* \"#utility.yul\":19922:19941   */\n      swap1\n      pop\n        /* \"#utility.yul\":19582:19947   */\n      swap2\n      swap1\n      pop\n      jump\t// out\n        /* \"#utility.yul\":19953:20926   */\n    tag_124:\n        /* \"#utility.yul\":20289:20293   */\n      0x00\n        /* \"#utility.yul\":20327:20330   */\n      0x80\n        /* \"#utility.yul\":20316:20325   */\n      dup3\n        /* \"#utility.yul\":20312:20331   */\n      add\n        /* \"#utility.yul\":20304:20331   */\n      swap1\n      pop\n        /* \"#utility.yul\":20377:20386   */\n      dup2\n        /* \"#utility.yul\":20371:20375   */\n      dup2\n        /* \"#utility.yul\":20367:20387   */\n      sub\n        /* \"#utility.yul\":20363:20364   */\n      0x00\n        /* \"#utility.yul\":20352:20361   */\n      dup4\n        /* \"#utility.yul\":20348:20365   */\n      add\n        /* \"#utility.yul\":20341:20388   */\n      mstore\n        /* \"#utility.yul\":20405:20536   */\n      tag_463\n        /* \"#utility.yul\":20531:20535   */\n      dup2\n        /* \"#utility.yul\":20405:20536   */\n      tag_216\n      jump\t// in\n    tag_463:\n        /* \"#utility.yul\":20397:20536   */\n      swap1\n      pop\n        /* \"#utility.yul\":20546:20624   */\n      tag_464\n        /* \"#utility.yul\":20620:20622   */\n      0x20\n        /* \"#utility.yul\":20609:20618   */\n      dup4\n        /* \"#utility.yul\":20605:20623   */\n      add\n        /* \"#utility.yul\":20596:20602   */\n      dup6\n        /* \"#utility.yul\":20546:20624   */\n      tag_221\n      jump\t// in\n    tag_464:\n        /* \"#utility.yul\":20634:20713   */\n      tag_465\n        /* \"#utility.yul\":20709:20711   */\n      0x40\n        /* \"#utility.yul\":20698:20707   */\n      dup4\n        /* \"#utility.yul\":20694:20712   */\n      add\n        /* \"#utility.yul\":20685:20691   */\n      dup5\n        /* \"#utility.yul\":20634:20713   */\n      tag_224\n      jump\t// in\n    tag_465:\n        /* \"#utility.yul\":20760:20769   */\n      dup2\n        /* \"#utility.yul\":20754:20758   */\n      dup2\n        /* \"#utility.yul\":20750:20770   */\n      sub\n        /* \"#utility.yul\":20745:20747   */\n      0x60\n        /* \"#utility.yul\":20734:20743   */\n      dup4\n        /* \"#utility.yul\":20730:20748   */\n      add\n        /* \"#utility.yul\":20723:20771   */\n      mstore\n        /* \"#utility.yul\":20788:20919   */\n      tag_466\n        /* \"#utility.yul\":20914:20918   */\n      dup2\n        /* \"#utility.yul\":20788:20919   */\n      tag_226\n      jump\t// in\n    tag_466:\n        /* \"#utility.yul\":20780:20919   */\n      swap1\n      pop\n        /* \"#utility.yul\":19953:20926   */\n      swap4\n      swap3\n      pop\n      pop\n      pop\n      jump\t// out\n        /* \"#utility.yul\":20932:21105   */\n    tag_227:\n        /* \"#utility.yul\":21072:21097   */\n      0x626f6f6c20706172616d6574657220636f72726563742e000000000000000000\n        /* \"#utility.yul\":21068:21069   */\n      0x00\n        /* \"#utility.yul\":21060:21066   */\n      dup3\n        /* \"#utility.yul\":21056:21070   */\n      add\n        /* \"#utility.yul\":21049:21098   */\n      mstore\n        /* \"#utility.yul\":20932:21105   */\n      pop\n      jump\t// out\n        /* \"#utility.yul\":21111:21477   */\n    tag_228:\n        /* \"#utility.yul\":21253:21256   */\n      0x00\n        /* \"#utility.yul\":21274:21341   */\n      tag_469\n        /* \"#utility.yul\":21338:21340   */\n      0x17\n        /* \"#utility.yul\":21333:21336   */\n      dup4\n        /* \"#utility.yul\":21274:21341   */\n      tag_174\n      jump\t// in\n    tag_469:\n        /* \"#utility.yul\":21267:21341   */\n      swap2\n      pop\n        /* \"#utility.yul\":21350:21443   */\n      tag_470\n        /* \"#utility.yul\":21439:21442   */\n      dup3\n        /* \"#utility.yul\":21350:21443   */\n      tag_227\n      jump\t// in\n    tag_470:\n        /* \"#utility.yul\":21468:21470   */\n      0x20\n        /* \"#utility.yul\":21463:21466   */\n      dup3\n        /* \"#utility.yul\":21459:21471   */\n      add\n        /* \"#utility.yul\":21452:21471   */\n      swap1\n      pop\n        /* \"#utility.yul\":21111:21477   */\n      swap2\n      swap1\n      pop\n      jump\t// out\n        /* \"#utility.yul\":21483:21902   */\n    tag_128:\n        /* \"#utility.yul\":21649:21653   */\n      0x00\n        /* \"#utility.yul\":21687:21689   */\n      0x20\n        /* \"#utility.yul\":21676:21685   */\n      dup3\n        /* \"#utility.yul\":21672:21690   */\n      add\n        /* \"#utility.yul\":21664:21690   */\n      swap1\n      pop\n        /* \"#utility.yul\":21736:21745   */\n      dup2\n        /* \"#utility.yul\":21730:21734   */\n      dup2\n        /* \"#utility.yul\":21726:21746   */\n      sub\n        /* \"#utility.yul\":21722:21723   */\n      0x00\n        /* \"#utility.yul\":21711:21720   */\n      dup4\n        /* \"#utility.yul\":21707:21724   */\n      add\n        /* \"#utility.yul\":21700:21747   */\n      mstore\n        /* \"#utility.yul\":21764:21895   */\n      tag_472\n        /* \"#utility.yul\":21890:21894   */\n      dup2\n        /* \"#utility.yul\":21764:21895   */\n      tag_228\n      jump\t// in\n    tag_472:\n        /* \"#utility.yul\":21756:21895   */\n      swap1\n      pop\n        /* \"#utility.yul\":21483:21902   */\n      swap2\n      swap1\n      pop\n      jump\t// out\n        /* \"#utility.yul\":21908:22088   */\n    tag_131:\n        /* \"#utility.yul\":21956:22033   */\n      0x4e487b7100000000000000000000000000000000000000000000000000000000\n        /* \"#utility.yul\":21953:21954   */\n      0x00\n        /* \"#utility.yul\":21946:22034   */\n      mstore\n        /* \"#utility.yul\":22053:22057   */\n      0x32\n        /* \"#utility.yul\":22050:22051   */\n      0x04\n        /* \"#utility.yul\":22043:22058   */\n      mstore\n        /* \"#utility.yul\":22077:22081   */\n      0x24\n        /* \"#utility.yul\":22074:22075   */\n      0x00\n        /* \"#utility.yul\":22067:22082   */\n      revert\n        /* \"#utility.yul\":22094:22273   */\n    tag_229:\n        /* \"#utility.yul\":22234:22265   */\n      0x75696e7420617272617920706172616d6574657220636f72726563742e000000\n        /* \"#utility.yul\":22230:22231   */\n      0x00\n        /* \"#utility.yul\":22222:22228   */\n      dup3\n        /* \"#utility.yul\":22218:22232   */\n      add\n        /* \"#utility.yul\":22211:22266   */\n      mstore\n        /* \"#utility.yul\":22094:22273   */\n      pop\n      jump\t// out\n        /* \"#utility.yul\":22279:22645   */\n    tag_230:\n        /* \"#utility.yul\":22421:22424   */\n      0x00\n        /* \"#utility.yul\":22442:22509   */\n      tag_476\n        /* \"#utility.yul\":22506:22508   */\n      0x1d\n        /* \"#utility.yul\":22501:22504   */\n      dup4\n        /* \"#utility.yul\":22442:22509   */\n      tag_174\n      jump\t// in\n    tag_476:\n        /* \"#utility.yul\":22435:22509   */\n      swap2\n      pop\n        /* \"#utility.yul\":22518:22611   */\n      tag_477\n        /* \"#utility.yul\":22607:22610   */\n      dup3\n        /* \"#utility.yul\":22518:22611   */\n      tag_229\n      jump\t// in\n    tag_477:\n        /* \"#utility.yul\":22636:22638   */\n      0x20\n        /* \"#utility.yul\":22631:22634   */\n      dup3\n        /* \"#utility.yul\":22627:22639   */\n      add\n        /* \"#utility.yul\":22620:22639   */\n      swap1\n      pop\n        /* \"#utility.yul\":22279:22645   */\n      swap2\n      swap1\n      pop\n      jump\t// out\n        /* \"#utility.yul\":22651:23070   */\n    tag_134:\n        /* \"#utility.yul\":22817:22821   */\n      0x00\n        /* \"#utility.yul\":22855:22857   */\n      0x20\n        /* \"#utility.yul\":22844:22853   */\n      dup3\n        /* \"#utility.yul\":22840:22858   */\n      add\n        /* \"#utility.yul\":22832:22858   */\n      swap1\n      pop\n        /* \"#utility.yul\":22904:22913   */\n      dup2\n        /* \"#utility.yul\":22898:22902   */\n      dup2\n        /* \"#utility.yul\":22894:22914   */\n      sub\n        /* \"#utility.yul\":22890:22891   */\n      0x00\n        /* \"#utility.yul\":22879:22888   */\n      dup4\n        /* \"#utility.yul\":22875:22892   */\n      add\n        /* \"#utility.yul\":22868:22915   */\n      mstore\n        /* \"#utility.yul\":22932:23063   */\n      tag_479\n        /* \"#utility.yul\":23058:23062   */\n      dup2\n        /* \"#utility.yul\":22932:23063   */\n      tag_230\n      jump\t// in\n    tag_479:\n        /* \"#utility.yul\":22924:23063   */\n      swap1\n      pop\n        /* \"#utility.yul\":22651:23070   */\n      swap2\n      swap1\n      pop\n      jump\t// out\n        /* \"#utility.yul\":23076:23252   */\n    tag_231:\n        /* \"#utility.yul\":23216:23244   */\n      0x6164647265737320706172616d6574657220636f72726563742e000000000000\n        /* \"#utility.yul\":23212:23213   */\n      0x00\n        /* \"#utility.yul\":23204:23210   */\n      dup3\n        /* \"#utility.yul\":23200:23214   */\n      add\n        /* \"#utility.yul\":23193:23245   */\n      mstore\n        /* \"#utility.yul\":23076:23252   */\n      pop\n      jump\t// out\n        /* \"#utility.yul\":23258:23624   */\n    tag_232:\n        /* \"#utility.yul\":23400:23403   */\n      0x00\n        /* \"#utility.yul\":23421:23488   */\n      tag_482\n        /* \"#utility.yul\":23485:23487   */\n      0x1a\n        /* \"#utility.yul\":23480:23483   */\n      dup4\n        /* \"#utility.yul\":23421:23488   */\n      tag_174\n      jump\t// in\n    tag_482:\n        /* \"#utility.yul\":23414:23488   */\n      swap2\n      pop\n        /* \"#utility.yul\":23497:23590   */\n      tag_483\n        /* \"#utility.yul\":23586:23589   */\n      dup3\n        /* \"#utility.yul\":23497:23590   */\n      tag_231\n      jump\t// in\n    tag_483:\n        /* \"#utility.yul\":23615:23617   */\n      0x20\n        /* \"#utility.yul\":23610:23613   */\n      dup3\n        /* \"#utility.yul\":23606:23618   */\n      add\n        /* \"#utility.yul\":23599:23618   */\n      swap1\n      pop\n        /* \"#utility.yul\":23258:23624   */\n      swap2\n      swap1\n      pop\n      jump\t// out\n        /* \"#utility.yul\":23630:24049   */\n    tag_141:\n        /* \"#utility.yul\":23796:23800   */\n      0x00\n        /* \"#utility.yul\":23834:23836   */\n      0x20\n        /* \"#utility.yul\":23823:23832   */\n      dup3\n        /* \"#utility.yul\":23819:23837   */\n      add\n        /* \"#utility.yul\":23811:23837   */\n      swap1\n      pop\n        /* \"#utility.yul\":23883:23892   */\n      dup2\n        /* \"#utility.yul\":23877:23881   */\n      dup2\n        /* \"#utility.yul\":23873:23893   */\n      sub\n        /* \"#utility.yul\":23869:23870   */\n      0x00\n        /* \"#utility.yul\":23858:23867   */\n      dup4\n        /* \"#utility.yul\":23854:23871   */\n      add\n        /* \"#utility.yul\":23847:23894   */\n      mstore\n        /* \"#utility.yul\":23911:24042   */\n      tag_485\n        /* \"#utility.yul\":24037:24041   */\n      dup2\n        /* \"#utility.yul\":23911:24042   */\n      tag_232\n      jump\t// in\n    tag_485:\n        /* \"#utility.yul\":23903:24042   */\n      swap1\n      pop\n        /* \"#utility.yul\":23630:24049   */\n      swap2\n      swap1\n      pop\n      jump\t// out\n        /* \"#utility.yul\":24055:24210   */\n    tag_233:\n        /* \"#utility.yul\":24195:24202   */\n      0x427269616e000000000000000000000000000000000000000000000000000000\n        /* \"#utility.yul\":24191:24192   */\n      0x00\n        /* \"#utility.yul\":24183:24189   */\n      dup3\n        /* \"#utility.yul\":24179:24193   */\n      add\n        /* \"#utility.yul\":24172:24203   */\n      mstore\n        /* \"#utility.yul\":24055:24210   */\n      pop\n      jump\t// out\n        /* \"#utility.yul\":24216:24616   */\n    tag_234:\n        /* \"#utility.yul\":24376:24379   */\n      0x00\n        /* \"#utility.yul\":24397:24481   */\n      tag_488\n        /* \"#utility.yul\":24479:24480   */\n      0x05\n        /* \"#utility.yul\":24474:24477   */\n      dup4\n        /* \"#utility.yul\":24397:24481   */\n      tag_207\n      jump\t// in\n    tag_488:\n        /* \"#utility.yul\":24390:24481   */\n      swap2\n      pop\n        /* \"#utility.yul\":24490:24583   */\n      tag_489\n        /* \"#utility.yul\":24579:24582   */\n      dup3\n        /* \"#utility.yul\":24490:24583   */\n      tag_233\n      jump\t// in\n    tag_489:\n        /* \"#utility.yul\":24608:24609   */\n      0x05\n        /* \"#utility.yul\":24603:24606   */\n      dup3\n        /* \"#utility.yul\":24599:24610   */\n      add\n        /* \"#utility.yul\":24592:24610   */\n      swap1\n      pop\n        /* \"#utility.yul\":24216:24616   */\n      swap2\n      swap1\n      pop\n      jump\t// out\n        /* \"#utility.yul\":24622:25003   */\n    tag_143:\n        /* \"#utility.yul\":24807:24810   */\n      0x00\n        /* \"#utility.yul\":24829:24977   */\n      tag_491\n        /* \"#utility.yul\":24973:24976   */\n      dup3\n        /* \"#utility.yul\":24829:24977   */\n      tag_234\n      jump\t// in\n    tag_491:\n        /* \"#utility.yul\":24822:24977   */\n      swap2\n      pop\n        /* \"#utility.yul\":24994:24997   */\n      dup2\n        /* \"#utility.yul\":24987:24997   */\n      swap1\n      pop\n        /* \"#utility.yul\":24622:25003   */\n      swap2\n      swap1\n      pop\n      jump\t// out\n        /* \"#utility.yul\":25033:25363   */\n    tag_235:\n        /* \"#utility.yul\":25149:25152   */\n      0x00\n        /* \"#utility.yul\":25170:25259   */\n      tag_493\n        /* \"#utility.yul\":25252:25258   */\n      dup4\n        /* \"#utility.yul\":25247:25250   */\n      dup6\n        /* \"#utility.yul\":25170:25259   */\n      tag_207\n      jump\t// in\n    tag_493:\n        /* \"#utility.yul\":25163:25259   */\n      swap4\n      pop\n        /* \"#utility.yul\":25269:25325   */\n      tag_494\n        /* \"#utility.yul\":25318:25324   */\n      dup4\n        /* \"#utility.yul\":25313:25316   */\n      dup6\n        /* \"#utility.yul\":25306:25311   */\n      dup5\n        /* \"#utility.yul\":25269:25325   */\n      tag_200\n      jump\t// in\n    tag_494:\n        /* \"#utility.yul\":25350:25356   */\n      dup3\n        /* \"#utility.yul\":25345:25348   */\n      dup5\n        /* \"#utility.yul\":25341:25357   */\n      add\n        /* \"#utility.yul\":25334:25357   */\n      swap1\n      pop\n        /* \"#utility.yul\":25033:25363   */\n      swap4\n      swap3\n      pop\n      pop\n      pop\n      jump\t// out\n        /* \"#utility.yul\":25369:25664   */\n    tag_145:\n        /* \"#utility.yul\":25511:25514   */\n      0x00\n        /* \"#utility.yul\":25533:25638   */\n      tag_496\n        /* \"#utility.yul\":25634:25637   */\n      dup3\n        /* \"#utility.yul\":25625:25631   */\n      dup5\n        /* \"#utility.yul\":25617:25623   */\n      dup7\n        /* \"#utility.yul\":25533:25638   */\n      tag_235\n      jump\t// in\n    tag_496:\n        /* \"#utility.yul\":25526:25638   */\n      swap2\n      pop\n        /* \"#utility.yul\":25655:25658   */\n      dup2\n        /* \"#utility.yul\":25648:25658   */\n      swap1\n      pop\n        /* \"#utility.yul\":25369:25664   */\n      swap4\n      swap3\n      pop\n      pop\n      pop\n      jump\t// out\n        /* \"#utility.yul\":25670:25845   */\n    tag_236:\n        /* \"#utility.yul\":25810:25837   */\n      0x737472696e6720706172616d6574657220636f72726563742e00000000000000\n        /* \"#utility.yul\":25806:25807   */\n      0x00\n        /* \"#utility.yul\":25798:25804   */\n      dup3\n        /* \"#utility.yul\":25794:25808   */\n      add\n        /* \"#utility.yul\":25787:25838   */\n      mstore\n        /* \"#utility.yul\":25670:25845   */\n      pop\n      jump\t// out\n        /* \"#utility.yul\":25851:26217   */\n    tag_237:\n        /* \"#utility.yul\":25993:25996   */\n      0x00\n        /* \"#utility.yul\":26014:26081   */\n      tag_499\n        /* \"#utility.yul\":26078:26080   */\n      0x19\n        /* \"#utility.yul\":26073:26076   */\n      dup4\n        /* \"#utility.yul\":26014:26081   */\n      tag_174\n      jump\t// in\n    tag_499:\n        /* \"#utility.yul\":26007:26081   */\n      swap2\n      pop\n        /* \"#utility.yul\":26090:26183   */\n      tag_500\n        /* \"#utility.yul\":26179:26182   */\n      dup3\n        /* \"#utility.yul\":26090:26183   */\n      tag_236\n      jump\t// in\n    tag_500:\n        /* \"#utility.yul\":26208:26210   */\n      0x20\n        /* \"#utility.yul\":26203:26206   */\n      dup3\n        /* \"#utility.yul\":26199:26211   */\n      add\n        /* \"#utility.yul\":26192:26211   */\n      swap1\n      pop\n        /* \"#utility.yul\":25851:26217   */\n      swap2\n      swap1\n      pop\n      jump\t// out\n        /* \"#utility.yul\":26223:26642   */\n    tag_148:\n        /* \"#utility.yul\":26389:26393   */\n      0x00\n        /* \"#utility.yul\":26427:26429   */\n      0x20\n        /* \"#utility.yul\":26416:26425   */\n      dup3\n        /* \"#utility.yul\":26412:26430   */\n      add\n        /* \"#utility.yul\":26404:26430   */\n      swap1\n      pop\n        /* \"#utility.yul\":26476:26485   */\n      dup2\n        /* \"#utility.yul\":26470:26474   */\n      dup2\n        /* \"#utility.yul\":26466:26486   */\n      sub\n        /* \"#utility.yul\":26462:26463   */\n      0x00\n        /* \"#utility.yul\":26451:26460   */\n      dup4\n        /* \"#utility.yul\":26447:26464   */\n      add\n        /* \"#utility.yul\":26440:26487   */\n      mstore\n        /* \"#utility.yul\":26504:26635   */\n      tag_502\n        /* \"#utility.yul\":26630:26634   */\n      dup2\n        /* \"#utility.yul\":26504:26635   */\n      tag_237\n      jump\t// in\n    tag_502:\n        /* \"#utility.yul\":26496:26635   */\n      swap1\n      pop\n        /* \"#utility.yul\":26223:26642   */\n      swap2\n      swap1\n      pop\n      jump\t// out\n        /* \"#utility.yul\":26648:27299   */\n    tag_151:\n        /* \"#utility.yul\":26876:26880   */\n      0x00\n        /* \"#utility.yul\":26914:26916   */\n      0x60\n        /* \"#utility.yul\":26903:26912   */\n      dup3\n        /* \"#utility.yul\":26899:26917   */\n      add\n        /* \"#utility.yul\":26891:26917   */\n      swap1\n      pop\n        /* \"#utility.yul\":26963:26972   */\n      dup2\n        /* \"#utility.yul\":26957:26961   */\n      dup2\n        /* \"#utility.yul\":26953:26973   */\n      sub\n        /* \"#utility.yul\":26949:26950   */\n      0x00\n        /* \"#utility.yul\":26938:26947   */\n      dup4\n        /* \"#utility.yul\":26934:26951   */\n      add\n        /* \"#utility.yul\":26927:26974   */\n      mstore\n        /* \"#utility.yul\":26991:27122   */\n      tag_504\n        /* \"#utility.yul\":27117:27121   */\n      dup2\n        /* \"#utility.yul\":26991:27122   */\n      tag_216\n      jump\t// in\n    tag_504:\n        /* \"#utility.yul\":26983:27122   */\n      swap1\n      pop\n        /* \"#utility.yul\":27132:27210   */\n      tag_505\n        /* \"#utility.yul\":27206:27208   */\n      0x20\n        /* \"#utility.yul\":27195:27204   */\n      dup4\n        /* \"#utility.yul\":27191:27209   */\n      add\n        /* \"#utility.yul\":27182:27188   */\n      dup6\n        /* \"#utility.yul\":27132:27210   */\n      tag_221\n      jump\t// in\n    tag_505:\n        /* \"#utility.yul\":27220:27292   */\n      tag_506\n        /* \"#utility.yul\":27288:27290   */\n      0x40\n        /* \"#utility.yul\":27277:27286   */\n      dup4\n        /* \"#utility.yul\":27273:27291   */\n      add\n        /* \"#utility.yul\":27264:27270   */\n      dup5\n        /* \"#utility.yul\":27220:27292   */\n      tag_182\n      jump\t// in\n    tag_506:\n        /* \"#utility.yul\":26648:27299   */\n      swap4\n      swap3\n      pop\n      pop\n      pop\n      jump\t// out\n        /* \"#utility.yul\":27305:27539   */\n    tag_154:\n        /* \"#utility.yul\":27404:27408   */\n      0x00\n        /* \"#utility.yul\":27442:27444   */\n      0x20\n        /* \"#utility.yul\":27431:27440   */\n      dup3\n        /* \"#utility.yul\":27427:27445   */\n      add\n        /* \"#utility.yul\":27419:27445   */\n      swap1\n      pop\n        /* \"#utility.yul\":27455:27532   */\n      tag_508\n        /* \"#utility.yul\":27529:27530   */\n      0x00\n        /* \"#utility.yul\":27518:27527   */\n      dup4\n        /* \"#utility.yul\":27514:27531   */\n      add\n        /* \"#utility.yul\":27505:27511   */\n      dup5\n        /* \"#utility.yul\":27455:27532   */\n      tag_221\n      jump\t// in\n    tag_508:\n        /* \"#utility.yul\":27305:27539   */\n      swap3\n      swap2\n      pop\n      pop\n      jump\t// out\n        /* \"#utility.yul\":27545:27767   */\n    tag_157:\n        /* \"#utility.yul\":27638:27642   */\n      0x00\n        /* \"#utility.yul\":27676:27678   */\n      0x20\n        /* \"#utility.yul\":27665:27674   */\n      dup3\n        /* \"#utility.yul\":27661:27679   */\n      add\n        /* \"#utility.yul\":27653:27679   */\n      swap1\n      pop\n        /* \"#utility.yul\":27689:27760   */\n      tag_510\n        /* \"#utility.yul\":27757:27758   */\n      0x00\n        /* \"#utility.yul\":27746:27755   */\n      dup4\n        /* \"#utility.yul\":27742:27759   */\n      add\n        /* \"#utility.yul\":27733:27739   */\n      dup5\n        /* \"#utility.yul\":27689:27760   */\n      tag_179\n      jump\t// in\n    tag_510:\n        /* \"#utility.yul\":27545:27767   */\n      swap3\n      swap2\n      pop\n      pop\n      jump\t// out\n        /* \"#utility.yul\":27773:27926   */\n    tag_238:\n        /* \"#utility.yul\":27913:27918   */\n      0x4142430000000000000000000000000000000000000000000000000000000000\n        /* \"#utility.yul\":27909:27910   */\n      0x00\n        /* \"#utility.yul\":27901:27907   */\n      dup3\n        /* \"#utility.yul\":27897:27911   */\n      add\n        /* \"#utility.yul\":27890:27919   */\n      mstore\n        /* \"#utility.yul\":27773:27926   */\n      pop\n      jump\t// out\n        /* \"#utility.yul\":27932:28332   */\n    tag_239:\n        /* \"#utility.yul\":28092:28095   */\n      0x00\n        /* \"#utility.yul\":28113:28197   */\n      tag_513\n        /* \"#utility.yul\":28195:28196   */\n      0x03\n        /* \"#utility.yul\":28190:28193   */\n      dup4\n        /* \"#utility.yul\":28113:28197   */\n      tag_207\n      jump\t// in\n    tag_513:\n        /* \"#utility.yul\":28106:28197   */\n      swap2\n      pop\n        /* \"#utility.yul\":28206:28299   */\n      tag_514\n        /* \"#utility.yul\":28295:28298   */\n      dup3\n        /* \"#utility.yul\":28206:28299   */\n      tag_238\n      jump\t// in\n    tag_514:\n        /* \"#utility.yul\":28324:28325   */\n      0x03\n        /* \"#utility.yul\":28319:28322   */\n      dup3\n        /* \"#utility.yul\":28315:28326   */\n      add\n        /* \"#utility.yul\":28308:28326   */\n      swap1\n      pop\n        /* \"#utility.yul\":27932:28332   */\n      swap2\n      swap1\n      pop\n      jump\t// out\n        /* \"#utility.yul\":28338:28493   */\n    tag_240:\n        /* \"#utility.yul\":28478:28485   */\n      0x2e6a736f6e000000000000000000000000000000000000000000000000000000\n        /* \"#utility.yul\":28474:28475   */\n      0x00\n        /* \"#utility.yul\":28466:28472   */\n      dup3\n        /* \"#utility.yul\":28462:28476   */\n      add\n        /* \"#utility.yul\":28455:28486   */\n      mstore\n        /* \"#utility.yul\":28338:28493   */\n      pop\n      jump\t// out\n        /* \"#utility.yul\":28499:28899   */\n    tag_241:\n        /* \"#utility.yul\":28659:28662   */\n      0x00\n        /* \"#utility.yul\":28680:28764   */\n      tag_517\n        /* \"#utility.yul\":28762:28763   */\n      0x05\n        /* \"#utility.yul\":28757:28760   */\n      dup4\n        /* \"#utility.yul\":28680:28764   */\n      tag_207\n      jump\t// in\n    tag_517:\n        /* \"#utility.yul\":28673:28764   */\n      swap2\n      pop\n        /* \"#utility.yul\":28773:28866   */\n      tag_518\n        /* \"#utility.yul\":28862:28865   */\n      dup3\n        /* \"#utility.yul\":28773:28866   */\n      tag_240\n      jump\t// in\n    tag_518:\n        /* \"#utility.yul\":28891:28892   */\n      0x05\n        /* \"#utility.yul\":28886:28889   */\n      dup3\n        /* \"#utility.yul\":28882:28893   */\n      add\n        /* \"#utility.yul\":28875:28893   */\n      swap1\n      pop\n        /* \"#utility.yul\":28499:28899   */\n      swap2\n      swap1\n      pop\n      jump\t// out\n        /* \"#utility.yul\":28905:29712   */\n    tag_159:\n        /* \"#utility.yul\":29239:29242   */\n      0x00\n        /* \"#utility.yul\":29261:29409   */\n      tag_520\n        /* \"#utility.yul\":29405:29408   */\n      dup3\n        /* \"#utility.yul\":29261:29409   */\n      tag_239\n      jump\t// in\n    tag_520:\n        /* \"#utility.yul\":29254:29409   */\n      swap2\n      pop\n        /* \"#utility.yul\":29426:29521   */\n      tag_521\n        /* \"#utility.yul\":29517:29520   */\n      dup3\n        /* \"#utility.yul\":29508:29514   */\n      dup5\n        /* \"#utility.yul\":29426:29521   */\n      tag_215\n      jump\t// in\n    tag_521:\n        /* \"#utility.yul\":29419:29521   */\n      swap2\n      pop\n        /* \"#utility.yul\":29538:29686   */\n      tag_522\n        /* \"#utility.yul\":29682:29685   */\n      dup3\n        /* \"#utility.yul\":29538:29686   */\n      tag_241\n      jump\t// in\n    tag_522:\n        /* \"#utility.yul\":29531:29686   */\n      swap2\n      pop\n        /* \"#utility.yul\":29703:29706   */\n      dup2\n        /* \"#utility.yul\":29696:29706   */\n      swap1\n      pop\n        /* \"#utility.yul\":28905:29712   */\n      swap3\n      swap2\n      pop\n      pop\n      jump\t// out\n        /* \"#utility.yul\":29718:29940   */\n    tag_162:\n        /* \"#utility.yul\":29811:29815   */\n      0x00\n        /* \"#utility.yul\":29849:29851   */\n      0x20\n        /* \"#utility.yul\":29838:29847   */\n      dup3\n        /* \"#utility.yul\":29834:29852   */\n      add\n        /* \"#utility.yul\":29826:29852   */\n      swap1\n      pop\n        /* \"#utility.yul\":29862:29933   */\n      tag_524\n        /* \"#utility.yul\":29930:29931   */\n      0x00\n        /* \"#utility.yul\":29919:29928   */\n      dup4\n        /* \"#utility.yul\":29915:29932   */\n      add\n        /* \"#utility.yul\":29906:29912   */\n      dup5\n        /* \"#utility.yul\":29862:29933   */\n      tag_182\n      jump\t// in\n    tag_524:\n        /* \"#utility.yul\":29718:29940   */\n      swap3\n      swap2\n      pop\n      pop\n      jump\t// out\n        /* \"#utility.yul\":29946:30060   */\n    tag_242:\n        /* \"#utility.yul\":30021:30027   */\n      0x00\n        /* \"#utility.yul\":30049:30053   */\n      0x03\n        /* \"#utility.yul\":30039:30053   */\n      swap1\n      pop\n        /* \"#utility.yul\":29946:30060   */\n      swap2\n      swap1\n      pop\n      jump\t// out\n        /* \"#utility.yul\":30066:30219   */\n    tag_243:\n        /* \"#utility.yul\":30173:30184   */\n      0x00\n        /* \"#utility.yul\":30210:30213   */\n      dup2\n        /* \"#utility.yul\":30195:30213   */\n      swap1\n      pop\n        /* \"#utility.yul\":30066:30219   */\n      swap3\n      swap2\n      pop\n      pop\n      jump\t// out\n        /* \"#utility.yul\":30225:30333   */\n    tag_244:\n        /* \"#utility.yul\":30300:30304   */\n      0x00\n        /* \"#utility.yul\":30323:30326   */\n      dup2\n        /* \"#utility.yul\":30315:30326   */\n      swap1\n      pop\n        /* \"#utility.yul\":30225:30333   */\n      swap2\n      swap1\n      pop\n      jump\t// out\n        /* \"#utility.yul\":30339:30498   */\n    tag_245:\n        /* \"#utility.yul\":30413:30424   */\n      0x00\n        /* \"#utility.yul\":30447:30453   */\n      dup3\n        /* \"#utility.yul\":30442:30445   */\n      dup3\n        /* \"#utility.yul\":30435:30454   */\n      mstore\n        /* \"#utility.yul\":30487:30491   */\n      0x20\n        /* \"#utility.yul\":30482:30485   */\n      dup3\n        /* \"#utility.yul\":30478:30492   */\n      add\n        /* \"#utility.yul\":30463:30492   */\n      swap1\n      pop\n        /* \"#utility.yul\":30339:30498   */\n      swap3\n      swap2\n      pop\n      pop\n      jump\t// out\n        /* \"#utility.yul\":30504:30861   */\n    tag_246:\n        /* \"#utility.yul\":30582:30585   */\n      0x00\n        /* \"#utility.yul\":30610:30649   */\n      tag_530\n        /* \"#utility.yul\":30643:30648   */\n      dup3\n        /* \"#utility.yul\":30610:30649   */\n      tag_173\n      jump\t// in\n    tag_530:\n        /* \"#utility.yul\":30665:30726   */\n      tag_531\n        /* \"#utility.yul\":30719:30725   */\n      dup2\n        /* \"#utility.yul\":30714:30717   */\n      dup6\n        /* \"#utility.yul\":30665:30726   */\n      tag_245\n      jump\t// in\n    tag_531:\n        /* \"#utility.yul\":30658:30726   */\n      swap4\n      pop\n        /* \"#utility.yul\":30735:30800   */\n      tag_532\n        /* \"#utility.yul\":30793:30799   */\n      dup2\n        /* \"#utility.yul\":30788:30791   */\n      dup6\n        /* \"#utility.yul\":30781:30785   */\n      0x20\n        /* \"#utility.yul\":30774:30779   */\n      dup7\n        /* \"#utility.yul\":30770:30786   */\n      add\n        /* \"#utility.yul\":30735:30800   */\n      tag_175\n      jump\t// in\n    tag_532:\n        /* \"#utility.yul\":30825:30854   */\n      tag_533\n        /* \"#utility.yul\":30847:30853   */\n      dup2\n        /* \"#utility.yul\":30825:30854   */\n      tag_176\n      jump\t// in\n    tag_533:\n        /* \"#utility.yul\":30820:30823   */\n      dup5\n        /* \"#utility.yul\":30816:30855   */\n      add\n        /* \"#utility.yul\":30809:30855   */\n      swap2\n      pop\n        /* \"#utility.yul\":30586:30861   */\n      pop\n        /* \"#utility.yul\":30504:30861   */\n      swap3\n      swap2\n      pop\n      pop\n      jump\t// out\n        /* \"#utility.yul\":30867:31063   */\n    tag_247:\n        /* \"#utility.yul\":30956:30966   */\n      0x00\n        /* \"#utility.yul\":30991:31057   */\n      tag_535\n        /* \"#utility.yul\":31053:31056   */\n      dup4\n        /* \"#utility.yul\":31045:31051   */\n      dup4\n        /* \"#utility.yul\":30991:31057   */\n      tag_246\n      jump\t// in\n    tag_535:\n        /* \"#utility.yul\":30977:31057   */\n      swap1\n      pop\n        /* \"#utility.yul\":30867:31063   */\n      swap3\n      swap2\n      pop\n      pop\n      jump\t// out\n        /* \"#utility.yul\":31069:31190   */\n    tag_248:\n        /* \"#utility.yul\":31147:31151   */\n      0x00\n        /* \"#utility.yul\":31179:31183   */\n      0x20\n        /* \"#utility.yul\":31174:31177   */\n      dup3\n        /* \"#utility.yul\":31170:31184   */\n      add\n        /* \"#utility.yul\":31162:31184   */\n      swap1\n      pop\n        /* \"#utility.yul\":31069:31190   */\n      swap2\n      swap1\n      pop\n      jump\t// out\n        /* \"#utility.yul\":31226:32205   */\n    tag_249:\n        /* \"#utility.yul\":31361:31364   */\n      0x00\n        /* \"#utility.yul\":31390:31452   */\n      tag_538\n        /* \"#utility.yul\":31446:31451   */\n      dup3\n        /* \"#utility.yul\":31390:31452   */\n      tag_242\n      jump\t// in\n    tag_538:\n        /* \"#utility.yul\":31468:31562   */\n      tag_539\n        /* \"#utility.yul\":31555:31561   */\n      dup2\n        /* \"#utility.yul\":31550:31553   */\n      dup6\n        /* \"#utility.yul\":31468:31562   */\n      tag_243\n      jump\t// in\n    tag_539:\n        /* \"#utility.yul\":31461:31562   */\n      swap4\n      pop\n        /* \"#utility.yul\":31588:31591   */\n      dup4\n        /* \"#utility.yul\":31633:31637   */\n      0x20\n        /* \"#utility.yul\":31625:31631   */\n      dup3\n        /* \"#utility.yul\":31621:31638   */\n      mul\n        /* \"#utility.yul\":31616:31619   */\n      dup6\n        /* \"#utility.yul\":31612:31639   */\n      add\n        /* \"#utility.yul\":31663:31727   */\n      tag_540\n        /* \"#utility.yul\":31721:31726   */\n      dup6\n        /* \"#utility.yul\":31663:31727   */\n      tag_244\n      jump\t// in\n    tag_540:\n        /* \"#utility.yul\":31750:31757   */\n      dup1\n        /* \"#utility.yul\":31781:31782   */\n      0x00\n        /* \"#utility.yul\":31766:32160   */\n    tag_541:\n        /* \"#utility.yul\":31791:31797   */\n      dup6\n        /* \"#utility.yul\":31788:31789   */\n      dup2\n        /* \"#utility.yul\":31785:31798   */\n      lt\n        /* \"#utility.yul\":31766:32160   */\n      iszero\n      tag_543\n      jumpi\n        /* \"#utility.yul\":31862:31871   */\n      dup5\n        /* \"#utility.yul\":31856:31860   */\n      dup5\n        /* \"#utility.yul\":31852:31872   */\n      sub\n        /* \"#utility.yul\":31847:31850   */\n      dup10\n        /* \"#utility.yul\":31840:31873   */\n      mstore\n        /* \"#utility.yul\":31913:31919   */\n      dup2\n        /* \"#utility.yul\":31907:31920   */\n      mload\n        /* \"#utility.yul\":31941:32025   */\n      tag_544\n        /* \"#utility.yul\":32020:32024   */\n      dup6\n        /* \"#utility.yul\":32005:32018   */\n      dup3\n        /* \"#utility.yul\":31941:32025   */\n      tag_247\n      jump\t// in\n    tag_544:\n        /* \"#utility.yul\":31933:32025   */\n      swap5\n      pop\n        /* \"#utility.yul\":32048:32116   */\n      tag_545\n        /* \"#utility.yul\":32109:32115   */\n      dup4\n        /* \"#utility.yul\":32048:32116   */\n      tag_248\n      jump\t// in\n    tag_545:\n        /* \"#utility.yul\":32038:32116   */\n      swap3\n      pop\n        /* \"#utility.yul\":32145:32149   */\n      0x20\n        /* \"#utility.yul\":32140:32143   */\n      dup11\n        /* \"#utility.yul\":32136:32150   */\n      add\n        /* \"#utility.yul\":32129:32150   */\n      swap10\n      pop\n        /* \"#utility.yul\":31826:32160   */\n      pop\n        /* \"#utility.yul\":31813:31814   */\n      0x01\n        /* \"#utility.yul\":31810:31811   */\n      dup2\n        /* \"#utility.yul\":31806:31815   */\n      add\n        /* \"#utility.yul\":31801:31815   */\n      swap1\n      pop\n        /* \"#utility.yul\":31766:32160   */\n      jump(tag_541)\n    tag_543:\n        /* \"#utility.yul\":31770:31784   */\n      pop\n        /* \"#utility.yul\":32176:32180   */\n      dup3\n        /* \"#utility.yul\":32169:32180   */\n      swap8\n      pop\n        /* \"#utility.yul\":32196:32199   */\n      dup8\n        /* \"#utility.yul\":32189:32199   */\n      swap6\n      pop\n        /* \"#utility.yul\":31366:32205   */\n      pop\n      pop\n      pop\n      pop\n      pop\n        /* \"#utility.yul\":31226:32205   */\n      swap3\n      swap2\n      pop\n      pop\n      jump\t// out\n        /* \"#utility.yul\":32211:32616   */\n    tag_165:\n        /* \"#utility.yul\":32370:32374   */\n      0x00\n        /* \"#utility.yul\":32408:32410   */\n      0x20\n        /* \"#utility.yul\":32397:32406   */\n      dup3\n        /* \"#utility.yul\":32393:32411   */\n      add\n        /* \"#utility.yul\":32385:32411   */\n      swap1\n      pop\n        /* \"#utility.yul\":32457:32466   */\n      dup2\n        /* \"#utility.yul\":32451:32455   */\n      dup2\n        /* \"#utility.yul\":32447:32467   */\n      sub\n        /* \"#utility.yul\":32443:32444   */\n      0x00\n        /* \"#utility.yul\":32432:32441   */\n      dup4\n        /* \"#utility.yul\":32428:32445   */\n      add\n        /* \"#utility.yul\":32421:32468   */\n      mstore\n        /* \"#utility.yul\":32485:32609   */\n      tag_547\n        /* \"#utility.yul\":32604:32608   */\n      dup2\n        /* \"#utility.yul\":32595:32601   */\n      dup5\n        /* \"#utility.yul\":32485:32609   */\n      tag_249\n      jump\t// in\n    tag_547:\n        /* \"#utility.yul\":32477:32609   */\n      swap1\n      pop\n        /* \"#utility.yul\":32211:32616   */\n      swap3\n      swap2\n      pop\n      pop\n      jump\t// out\n\n    auxdata: 0xa26469706673582212203a7e4292adf0c54c159df16571319f638a63725b7ce7fed42e97254a561f10bc64736f6c63430008150033\n}\n",
				"bytecode": {
					"linkReferences": {},
					"object": "608060405234801561000f575f80fd5b50611a948061001d5f395ff3fe6080604052600436106100eb575f3560e01c80637e3b06fb11610089578063c1ed13ef11610058578063c1ed13ef1461033c578063c87b56dd14610366578063cf57b6eb146103a2578063d264610d146103cc576100ec565b80637e3b06fb146102705780637faec262146102ac578063ae53a4a5146102d6578063bd14598f14610312576100ec565b80634e10efba116100c55780634e10efba146101925780635fc6ac0e146101ce5780636458817c1461020a578063733e2f0614610246576100ec565b8063065fdac2146100ee57806325adff1c1461012c57806344d1587c14610168576100ec565b5b005b3480156100f9575f80fd5b50610114600480360381019061010f9190610bf8565b6103f6565b60405161012393929190610d24565b60405180910390f35b348015610137575f80fd5b50610152600480360381019061014d9190610db4565b61041c565b60405161015f9190610e44565b60405180910390f35b348015610173575f80fd5b5061017c61047e565b6040516101899190610e44565b60405180910390f35b34801561019d575f80fd5b506101b860048036038101906101b39190610f43565b6104a3565b6040516101c59190610e44565b60405180910390f35b3480156101d9575f80fd5b506101f460048036038101906101ef9190610db4565b610549565b6040516102019190610e44565b60405180910390f35b348015610215575f80fd5b50610230600480360381019061022b919061110e565b6105cb565b60405161023d9190610e44565b60405180910390f35b348015610251575f80fd5b5061025a61064d565b6040516102679190610e44565b60405180910390f35b34801561027b575f80fd5b5061029660048036038101906102919190610db4565b610672565b6040516102a39190610e44565b60405180910390f35b3480156102b7575f80fd5b506102c061070c565b6040516102cd9190610e44565b60405180910390f35b3480156102e1575f80fd5b506102fc60048036038101906102f79190610f43565b610737565b6040516103099190611164565b60405180910390f35b34801561031d575f80fd5b5061032661094f565b6040516103339190610e44565b60405180910390f35b348015610347575f80fd5b5061035061098d565b60405161035d9190610e44565b60405180910390f35b348015610371575f80fd5b5061038c6004803603810190610387919061117d565b6109b5565b60405161039991906111a8565b60405180910390f35b3480156103ad575f80fd5b506103b66109fd565b6040516103c39190610e44565b60405180910390f35b3480156103d7575f80fd5b506103e0610a38565b6040516103ed9190610e44565b60405180910390f35b60605f8084848101906104099190611203565b8093508194508295505050509250925092565b6060828260405160240161043192919061126f565b60405160208183030381529060405263a9059cbb60e01b6020820180517bffffffffffffffffffffffffffffffffffffffffffffffffffffffff8381831617835250505050905092915050565b606060405160200161048f906112ea565b604051602081830303815290604052905090565b60608686868686866040516024016104c0969594939291906113a2565b6040516020818303038152906040527fae53a4a5000000000000000000000000000000000000000000000000000000007bffffffffffffffffffffffffffffffffffffffffffffffffffffffff19166020820180517bffffffffffffffffffffffffffffffffffffffffffffffffffffffff838183161783525050505090509695505050505050565b606063a9059cbb60e01b838360405160240161056692919061126f565b604051602081830303815290604052907bffffffffffffffffffffffffffffffffffffffffffffffffffffffff19166020820180517bffffffffffffffffffffffffffffffffffffffffffffffffffffffff8381831617835250505050905092915050565b606081604051602401604051602081830303815290604052906040516105f19190611427565b60405180910390207bffffffffffffffffffffffffffffffffffffffffffffffffffffffff19166020820180517bffffffffffffffffffffffffffffffffffffffffffffffffffffffff83818316178352505050509050919050565b606060405160200161065e9061145f565b604051602081830303815290604052905090565b6060828260405160240161068792919061126f565b6040516020818303038152906040527fa9059cbb000000000000000000000000000000000000000000000000000000007bffffffffffffffffffffffffffffffffffffffffffffffffffffffff19166020820180517bffffffffffffffffffffffffffffffffffffffffffffffffffffffff8381831617835250505050905092915050565b60606001606360405160200161072392919061154e565b604051602081830303815290604052905090565b5f86610778576040517f08c379a000000000000000000000000000000000000000000000000000000000815260040161076f906115e5565b60405180910390fd5b600986865f81811061078d5761078c611603565b5b90506020020135146107d4576040517f08c379a00000000000000000000000000000000000000000000000000000000081526004016107cb9061167a565b60405180910390fd5b6012868660018181106107ea576107e9611603565b5b9050602002013514610831576040517f08c379a00000000000000000000000000000000000000000000000000000000081526004016108289061167a565b60405180910390fd5b732ff1f4e5d08a822743ec6b342c521a0a421456cb73ffffffffffffffffffffffffffffffffffffffff168473ffffffffffffffffffffffffffffffffffffffff16146108b3576040517f08c379a00000000000000000000000000000000000000000000000000000000081526004016108aa906116e2565b60405180910390fd5b6040516020016108c29061174a565b6040516020818303038152906040528051906020012083836040516020016108eb929190611782565b6040516020818303038152906040528051906020012014610941576040517f08c379a0000000000000000000000000000000000000000000000000000000008152600401610938906117e4565b60405180910390fd5b600190509695505050505050565b60606001732ff1f4e5d08a822743ec6b342c521a0a421456cb604051602001610979929190611802565b604051602081830303815290604052905090565b606060016040516020016109a1919061183c565b604051602081830303815290604052905090565b6060816040516020016109c89190611855565b6040516020818303038152906040526040516020016109e79190611902565b6040516020818303038152906040529050919050565b6060732ff1f4e5d08a822743ec6b342c521a0a421456cb604051602001610a24919061192e565b604051602081830303815290604052905090565b606060405180606001604052806040518060400160405280600281526020017f313100000000000000000000000000000000000000000000000000000000000081525081526020016040518060400160405280600181526020017f320000000000000000000000000000000000000000000000000000000000000081525081526020016040518060400160405280600181526020017f3300000000000000000000000000000000000000000000000000000000000000815250815250604051602401610b049190611a3e565b6040516020818303038152906040527f7fa990b9000000000000000000000000000000000000000000000000000000007bffffffffffffffffffffffffffffffffffffffffffffffffffffffff19166020820180517bffffffffffffffffffffffffffffffffffffffffffffffffffffffff8381831617835250505050905090565b5f604051905090565b5f80fd5b5f80fd5b5f80fd5b5f80fd5b5f80fd5b5f8083601f840112610bb857610bb7610b97565b5b8235905067ffffffffffffffff811115610bd557610bd4610b9b565b5b602083019150836001820283011115610bf157610bf0610b9f565b5b9250929050565b5f8060208385031215610c0e57610c0d610b8f565b5b5f83013567ffffffffffffffff811115610c2b57610c2a610b93565b5b610c3785828601610ba3565b92509250509250929050565b5f81519050919050565b5f82825260208201905092915050565b5f5b83811015610c7a578082015181840152602081019050610c5f565b5f8484015250505050565b5f601f19601f8301169050919050565b5f610c9f82610c43565b610ca98185610c4d565b9350610cb9818560208601610c5d565b610cc281610c85565b840191505092915050565b5f819050919050565b610cdf81610ccd565b82525050565b5f73ffffffffffffffffffffffffffffffffffffffff82169050919050565b5f610d0e82610ce5565b9050919050565b610d1e81610d04565b82525050565b5f6060820190508181035f830152610d3c8186610c95565b9050610d4b6020830185610cd6565b610d586040830184610d15565b949350505050565b610d6981610d04565b8114610d73575f80fd5b50565b5f81359050610d8481610d60565b92915050565b610d9381610ccd565b8114610d9d575f80fd5b50565b5f81359050610dae81610d8a565b92915050565b5f8060408385031215610dca57610dc9610b8f565b5b5f610dd785828601610d76565b9250506020610de885828601610da0565b9150509250929050565b5f81519050919050565b5f82825260208201905092915050565b5f610e1682610df2565b610e208185610dfc565b9350610e30818560208601610c5d565b610e3981610c85565b840191505092915050565b5f6020820190508181035f830152610e5c8184610e0c565b905092915050565b5f8115159050919050565b610e7881610e64565b8114610e82575f80fd5b50565b5f81359050610e9381610e6f565b92915050565b5f8083601f840112610eae57610ead610b97565b5b8235905067ffffffffffffffff811115610ecb57610eca610b9b565b5b602083019150836020820283011115610ee757610ee6610b9f565b5b9250929050565b5f8083601f840112610f0357610f02610b97565b5b8235905067ffffffffffffffff811115610f2057610f1f610b9b565b5b602083019150836001820283011115610f3c57610f3b610b9f565b5b9250929050565b5f805f805f8060808789031215610f5d57610f5c610b8f565b5b5f610f6a89828a01610e85565b965050602087013567ffffffffffffffff811115610f8b57610f8a610b93565b5b610f9789828a01610e99565b95509550506040610faa89828a01610d76565b935050606087013567ffffffffffffffff811115610fcb57610fca610b93565b5b610fd789828a01610eee565b92509250509295509295509295565b5f80fd5b7f4e487b71000000000000000000000000000000000000000000000000000000005f52604160045260245ffd5b61102082610c85565b810181811067ffffffffffffffff8211171561103f5761103e610fea565b5b80604052505050565b5f611051610b86565b905061105d8282611017565b919050565b5f67ffffffffffffffff82111561107c5761107b610fea565b5b61108582610c85565b9050602081019050919050565b828183375f83830152505050565b5f6110b26110ad84611062565b611048565b9050828152602081018484840111156110ce576110cd610fe6565b5b6110d9848285611092565b509392505050565b5f82601f8301126110f5576110f4610b97565b5b81356111058482602086016110a0565b91505092915050565b5f6020828403121561112357611122610b8f565b5b5f82013567ffffffffffffffff8111156111405761113f610b93565b5b61114c848285016110e1565b91505092915050565b61115e81610e64565b82525050565b5f6020820190506111775f830184611155565b92915050565b5f6020828403121561119257611191610b8f565b5b5f61119f84828501610da0565b91505092915050565b5f6020820190508181035f8301526111c08184610c95565b905092915050565b5f6111d282610ce5565b9050919050565b6111e2816111c8565b81146111ec575f80fd5b50565b5f813590506111fd816111d9565b92915050565b5f805f6060848603121561121a57611219610b8f565b5b5f84013567ffffffffffffffff81111561123757611236610b93565b5b611243868287016110e1565b935050602061125486828701610da0565b9250506040611265868287016111ef565b9150509250925092565b5f6040820190506112825f830185610d15565b61128f6020830184610cd6565b9392505050565b5f81905092915050565b7f617070776f726b730000000000000000000000000000000000000000000000005f82015250565b5f6112d4600883611296565b91506112df826112a0565b600882019050919050565b5f6112f4826112c8565b9150819050919050565b5f82825260208201905092915050565b5f80fd5b82818337505050565b5f61132683856112fe565b93507f07ffffffffffffffffffffffffffffffffffffffffffffffffffffffffffffff8311156113595761135861130e565b5b60208302925061136a838584611312565b82840190509392505050565b5f6113818385610c4d565b935061138e838584611092565b61139783610c85565b840190509392505050565b5f6080820190506113b55f830189611155565b81810360208301526113c881878961131b565b90506113d76040830186610d15565b81810360608301526113ea818486611376565b9050979650505050505050565b5f61140182610c43565b61140b8185611296565b935061141b818560208601610c5d565b80840191505092915050565b5f61143282846113f7565b915081905092915050565b5f611449600883610c4d565b9150611454826112a0565b602082019050919050565b5f6020820190508181035f8301526114768161143d565b9050919050565b5f819050919050565b5f60ff82169050919050565b5f819050919050565b5f6114b56114b06114ab8461147d565b611492565b611486565b9050919050565b6114c58161149b565b82525050565b5f819050919050565b5f6114ee6114e96114e4846114cb565b611492565b611486565b9050919050565b6114fe816114d4565b82525050565b7f6a696d00000000000000000000000000000000000000000000000000000000005f82015250565b5f611538600383610c4d565b915061154382611504565b602082019050919050565b5f6080820190508181035f8301526115658161143d565b905061157460208301856114bc565b61158160408301846114f5565b81810360608301526115928161152c565b90509392505050565b7f626f6f6c20706172616d6574657220636f72726563742e0000000000000000005f82015250565b5f6115cf601783610c4d565b91506115da8261159b565b602082019050919050565b5f6020820190508181035f8301526115fc816115c3565b9050919050565b7f4e487b71000000000000000000000000000000000000000000000000000000005f52603260045260245ffd5b7f75696e7420617272617920706172616d6574657220636f72726563742e0000005f82015250565b5f611664601d83610c4d565b915061166f82611630565b602082019050919050565b5f6020820190508181035f83015261169181611658565b9050919050565b7f6164647265737320706172616d6574657220636f72726563742e0000000000005f82015250565b5f6116cc601a83610c4d565b91506116d782611698565b602082019050919050565b5f6020820190508181035f8301526116f9816116c0565b9050919050565b7f427269616e0000000000000000000000000000000000000000000000000000005f82015250565b5f611734600583611296565b915061173f82611700565b600582019050919050565b5f61175482611728565b9150819050919050565b5f6117698385611296565b9350611776838584611092565b82840190509392505050565b5f61178e82848661175e565b91508190509392505050565b7f737472696e6720706172616d6574657220636f72726563742e000000000000005f82015250565b5f6117ce601983610c4d565b91506117d98261179a565b602082019050919050565b5f6020820190508181035f8301526117fb816117c2565b9050919050565b5f6060820190508181035f8301526118198161143d565b905061182860208301856114bc565b6118356040830184610d15565b9392505050565b5f60208201905061184f5f8301846114bc565b92915050565b5f6020820190506118685f830184610cd6565b92915050565b7f41424300000000000000000000000000000000000000000000000000000000005f82015250565b5f6118a2600383611296565b91506118ad8261186e565b600382019050919050565b7f2e6a736f6e0000000000000000000000000000000000000000000000000000005f82015250565b5f6118ec600583611296565b91506118f7826118b8565b600582019050919050565b5f61190c82611896565b915061191882846113f7565b9150611923826118e0565b915081905092915050565b5f6020820190506119415f830184610d15565b92915050565b5f60039050919050565b5f81905092915050565b5f819050919050565b5f82825260208201905092915050565b5f61197e82610c43565b6119888185611964565b9350611998818560208601610c5d565b6119a181610c85565b840191505092915050565b5f6119b78383611974565b905092915050565b5f602082019050919050565b5f6119d582611947565b6119df8185611951565b9350836020820285016119f18561195b565b805f5b85811015611a2c5784840389528151611a0d85826119ac565b9450611a18836119bf565b925060208a019950506001810190506119f4565b50829750879550505050505092915050565b5f6020820190508181035f830152611a5681846119cb565b90509291505056fea26469706673582212203a7e4292adf0c54c159df16571319f638a63725b7ce7fed42e97254a561f10bc64736f6c63430008150033",
					"opcodes": "PUSH1 0x80 PUSH1 0x40 MSTORE CALLVALUE DUP1 ISZERO PUSH2 0xF JUMPI PUSH0 DUP1 REVERT JUMPDEST POP PUSH2 0x1A94 DUP1 PUSH2 0x1D PUSH0 CODECOPY PUSH0 RETURN INVALID PUSH1 0x80 PUSH1 0x40 MSTORE PUSH1 0x4 CALLDATASIZE LT PUSH2 0xEB JUMPI PUSH0 CALLDATALOAD PUSH1 0xE0 SHR DUP1 PUSH4 0x7E3B06FB GT PUSH2 0x89 JUMPI DUP1 PUSH4 0xC1ED13EF GT PUSH2 0x58 JUMPI DUP1 PUSH4 0xC1ED13EF EQ PUSH2 0x33C JUMPI DUP1 PUSH4 0xC87B56DD EQ PUSH2 0x366 JUMPI DUP1 PUSH4 0xCF57B6EB EQ PUSH2 0x3A2 JUMPI DUP1 PUSH4 0xD264610D EQ PUSH2 0x3CC JUMPI PUSH2 0xEC JUMP JUMPDEST DUP1 PUSH4 0x7E3B06FB EQ PUSH2 0x270 JUMPI DUP1 PUSH4 0x7FAEC262 EQ PUSH2 0x2AC JUMPI DUP1 PUSH4 0xAE53A4A5 EQ PUSH2 0x2D6 JUMPI DUP1 PUSH4 0xBD14598F EQ PUSH2 0x312 JUMPI PUSH2 0xEC JUMP JUMPDEST DUP1 PUSH4 0x4E10EFBA GT PUSH2 0xC5 JUMPI DUP1 PUSH4 0x4E10EFBA EQ PUSH2 0x192 JUMPI DUP1 PUSH4 0x5FC6AC0E EQ PUSH2 0x1CE JUMPI DUP1 PUSH4 0x6458817C EQ PUSH2 0x20A JUMPI DUP1 PUSH4 0x733E2F06 EQ PUSH2 0x246 JUMPI PUSH2 0xEC JUMP JUMPDEST DUP1 PUSH4 0x65FDAC2 EQ PUSH2 0xEE JUMPI DUP1 PUSH4 0x25ADFF1C EQ PUSH2 0x12C JUMPI DUP1 PUSH4 0x44D1587C EQ PUSH2 0x168 JUMPI PUSH2 0xEC JUMP JUMPDEST JUMPDEST STOP JUMPDEST CALLVALUE DUP1 ISZERO PUSH2 0xF9 JUMPI PUSH0 DUP1 REVERT JUMPDEST POP PUSH2 0x114 PUSH1 0x4 DUP1 CALLDATASIZE SUB DUP2 ADD SWAP1 PUSH2 0x10F SWAP2 SWAP1 PUSH2 0xBF8 JUMP JUMPDEST PUSH2 0x3F6 JUMP JUMPDEST PUSH1 0x40 MLOAD PUSH2 0x123 SWAP4 SWAP3 SWAP2 SWAP1 PUSH2 0xD24 JUMP JUMPDEST PUSH1 0x40 MLOAD DUP1 SWAP2 SUB SWAP1 RETURN JUMPDEST CALLVALUE DUP1 ISZERO PUSH2 0x137 JUMPI PUSH0 DUP1 REVERT JUMPDEST POP PUSH2 0x152 PUSH1 0x4 DUP1 CALLDATASIZE SUB DUP2 ADD SWAP1 PUSH2 0x14D SWAP2 SWAP1 PUSH2 0xDB4 JUMP JUMPDEST PUSH2 0x41C JUMP JUMPDEST PUSH1 0x40 MLOAD PUSH2 0x15F SWAP2 SWAP1 PUSH2 0xE44 JUMP JUMPDEST PUSH1 0x40 MLOAD DUP1 SWAP2 SUB SWAP1 RETURN JUMPDEST CALLVALUE DUP1 ISZERO PUSH2 0x173 JUMPI PUSH0 DUP1 REVERT JUMPDEST POP PUSH2 0x17C PUSH2 0x47E JUMP JUMPDEST PUSH1 0x40 MLOAD PUSH2 0x189 SWAP2 SWAP1 PUSH2 0xE44 JUMP JUMPDEST PUSH1 0x40 MLOAD DUP1 SWAP2 SUB SWAP1 RETURN JUMPDEST CALLVALUE DUP1 ISZERO PUSH2 0x19D JUMPI PUSH0 DUP1 REVERT JUMPDEST POP PUSH2 0x1B8 PUSH1 0x4 DUP1 CALLDATASIZE SUB DUP2 ADD SWAP1 PUSH2 0x1B3 SWAP2 SWAP1 PUSH2 0xF43 JUMP JUMPDEST PUSH2 0x4A3 JUMP JUMPDEST PUSH1 0x40 MLOAD PUSH2 0x1C5 SWAP2 SWAP1 PUSH2 0xE44 JUMP JUMPDEST PUSH1 0x40 MLOAD DUP1 SWAP2 SUB SWAP1 RETURN JUMPDEST CALLVALUE DUP1 ISZERO PUSH2 0x1D9 JUMPI PUSH0 DUP1 REVERT JUMPDEST POP PUSH2 0x1F4 PUSH1 0x4 DUP1 CALLDATASIZE SUB DUP2 ADD SWAP1 PUSH2 0x1EF SWAP2 SWAP1 PUSH2 0xDB4 JUMP JUMPDEST PUSH2 0x549 JUMP JUMPDEST PUSH1 0x40 MLOAD PUSH2 0x201 SWAP2 SWAP1 PUSH2 0xE44 JUMP JUMPDEST PUSH1 0x40 MLOAD DUP1 SWAP2 SUB SWAP1 RETURN JUMPDEST CALLVALUE DUP1 ISZERO PUSH2 0x215 JUMPI PUSH0 DUP1 REVERT JUMPDEST POP PUSH2 0x230 PUSH1 0x4 DUP1 CALLDATASIZE SUB DUP2 ADD SWAP1 PUSH2 0x22B SWAP2 SWAP1 PUSH2 0x110E JUMP JUMPDEST PUSH2 0x5CB JUMP JUMPDEST PUSH1 0x40 MLOAD PUSH2 0x23D SWAP2 SWAP1 PUSH2 0xE44 JUMP JUMPDEST PUSH1 0x40 MLOAD DUP1 SWAP2 SUB SWAP1 RETURN JUMPDEST CALLVALUE DUP1 ISZERO PUSH2 0x251 JUMPI PUSH0 DUP1 REVERT JUMPDEST POP PUSH2 0x25A PUSH2 0x64D JUMP JUMPDEST PUSH1 0x40 MLOAD PUSH2 0x267 SWAP2 SWAP1 PUSH2 0xE44 JUMP JUMPDEST PUSH1 0x40 MLOAD DUP1 SWAP2 SUB SWAP1 RETURN JUMPDEST CALLVALUE DUP1 ISZERO PUSH2 0x27B JUMPI PUSH0 DUP1 REVERT JUMPDEST POP PUSH2 0x296 PUSH1 0x4 DUP1 CALLDATASIZE SUB DUP2 ADD SWAP1 PUSH2 0x291 SWAP2 SWAP1 PUSH2 0xDB4 JUMP JUMPDEST PUSH2 0x672 JUMP JUMPDEST PUSH1 0x40 MLOAD PUSH2 0x2A3 SWAP2 SWAP1 PUSH2 0xE44 JUMP JUMPDEST PUSH1 0x40 MLOAD DUP1 SWAP2 SUB SWAP1 RETURN JUMPDEST CALLVALUE DUP1 ISZERO PUSH2 0x2B7 JUMPI PUSH0 DUP1 REVERT JUMPDEST POP PUSH2 0x2C0 PUSH2 0x70C JUMP JUMPDEST PUSH1 0x40 MLOAD PUSH2 0x2CD SWAP2 SWAP1 PUSH2 0xE44 JUMP JUMPDEST PUSH1 0x40 MLOAD DUP1 SWAP2 SUB SWAP1 RETURN JUMPDEST CALLVALUE DUP1 ISZERO PUSH2 0x2E1 JUMPI PUSH0 DUP1 REVERT JUMPDEST POP PUSH2 0x2FC PUSH1 0x4 DUP1 CALLDATASIZE SUB DUP2 ADD SWAP1 PUSH2 0x2F7 SWAP2 SWAP1 PUSH2 0xF43 JUMP JUMPDEST PUSH2 0x737 JUMP JUMPDEST PUSH1 0x40 MLOAD PUSH2 0x309 SWAP2 SWAP1 PUSH2 0x1164 JUMP JUMPDEST PUSH1 0x40 MLOAD DUP1 SWAP2 SUB SWAP1 RETURN JUMPDEST CALLVALUE DUP1 ISZERO PUSH2 0x31D JUMPI PUSH0 DUP1 REVERT JUMPDEST POP PUSH2 0x326 PUSH2 0x94F JUMP JUMPDEST PUSH1 0x40 MLOAD PUSH2 0x333 SWAP2 SWAP1 PUSH2 0xE44 JUMP JUMPDEST PUSH1 0x40 MLOAD DUP1 SWAP2 SUB SWAP1 RETURN JUMPDEST CALLVALUE DUP1 ISZERO PUSH2 0x347 JUMPI PUSH0 DUP1 REVERT JUMPDEST POP PUSH2 0x350 PUSH2 0x98D JUMP JUMPDEST PUSH1 0x40 MLOAD PUSH2 0x35D SWAP2 SWAP1 PUSH2 0xE44 JUMP JUMPDEST PUSH1 0x40 MLOAD DUP1 SWAP2 SUB SWAP1 RETURN JUMPDEST CALLVALUE DUP1 ISZERO PUSH2 0x371 JUMPI PUSH0 DUP1 REVERT JUMPDEST POP PUSH2 0x38C PUSH1 0x4 DUP1 CALLDATASIZE SUB DUP2 ADD SWAP1 PUSH2 0x387 SWAP2 SWAP1 PUSH2 0x117D JUMP JUMPDEST PUSH2 0x9B5 JUMP JUMPDEST PUSH1 0x40 MLOAD PUSH2 0x399 SWAP2 SWAP1 PUSH2 0x11A8 JUMP JUMPDEST PUSH1 0x40 MLOAD DUP1 SWAP2 SUB SWAP1 RETURN JUMPDEST CALLVALUE DUP1 ISZERO PUSH2 0x3AD JUMPI PUSH0 DUP1 REVERT JUMPDEST POP PUSH2 0x3B6 PUSH2 0x9FD JUMP JUMPDEST PUSH1 0x40 MLOAD PUSH2 0x3C3 SWAP2 SWAP1 PUSH2 0xE44 JUMP JUMPDEST PUSH1 0x40 MLOAD DUP1 SWAP2 SUB SWAP1 RETURN JUMPDEST CALLVALUE DUP1 ISZERO PUSH2 0x3D7 JUMPI PUSH0 DUP1 REVERT JUMPDEST POP PUSH2 0x3E0 PUSH2 0xA38 JUMP JUMPDEST PUSH1 0x40 MLOAD PUSH2 0x3ED SWAP2 SWAP1 PUSH2 0xE44 JUMP JUMPDEST PUSH1 0x40 MLOAD DUP1 SWAP2 SUB SWAP1 RETURN JUMPDEST PUSH1 0x60 PUSH0 DUP1 DUP5 DUP5 DUP2 ADD SWAP1 PUSH2 0x409 SWAP2 SWAP1 PUSH2 0x1203 JUMP JUMPDEST DUP1 SWAP4 POP DUP2 SWAP5 POP DUP3 SWAP6 POP POP POP POP SWAP3 POP SWAP3 POP SWAP3 JUMP JUMPDEST PUSH1 0x60 DUP3 DUP3 PUSH1 0x40 MLOAD PUSH1 0x24 ADD PUSH2 0x431 SWAP3 SWAP2 SWAP1 PUSH2 0x126F JUMP JUMPDEST PUSH1 0x40 MLOAD PUSH1 0x20 DUP2 DUP4 SUB SUB DUP2 MSTORE SWAP1 PUSH1 0x40 MSTORE PUSH4 0xA9059CBB PUSH1 0xE0 SHL PUSH1 0x20 DUP3 ADD DUP1 MLOAD PUSH28 0xFFFFFFFFFFFFFFFFFFFFFFFFFFFFFFFFFFFFFFFFFFFFFFFFFFFFFFFF DUP4 DUP2 DUP4 AND OR DUP4 MSTORE POP POP POP POP SWAP1 POP SWAP3 SWAP2 POP POP JUMP JUMPDEST PUSH1 0x60 PUSH1 0x40 MLOAD PUSH1 0x20 ADD PUSH2 0x48F SWAP1 PUSH2 0x12EA JUMP JUMPDEST PUSH1 0x40 MLOAD PUSH1 0x20 DUP2 DUP4 SUB SUB DUP2 MSTORE SWAP1 PUSH1 0x40 MSTORE SWAP1 POP SWAP1 JUMP JUMPDEST PUSH1 0x60 DUP7 DUP7 DUP7 DUP7 DUP7 DUP7 PUSH1 0x40 MLOAD PUSH1 0x24 ADD PUSH2 0x4C0 SWAP7 SWAP6 SWAP5 SWAP4 SWAP3 SWAP2 SWAP1 PUSH2 0x13A2 JUMP JUMPDEST PUSH1 0x40 MLOAD PUSH1 0x20 DUP2 DUP4 SUB SUB DUP2 MSTORE SWAP1 PUSH1 0x40 MSTORE PUSH32 0xAE53A4A500000000000000000000000000000000000000000000000000000000 PUSH28 0xFFFFFFFFFFFFFFFFFFFFFFFFFFFFFFFFFFFFFFFFFFFFFFFFFFFFFFFF NOT AND PUSH1 0x20 DUP3 ADD DUP1 MLOAD PUSH28 0xFFFFFFFFFFFFFFFFFFFFFFFFFFFFFFFFFFFFFFFFFFFFFFFFFFFFFFFF DUP4 DUP2 DUP4 AND OR DUP4 MSTORE POP POP POP POP SWAP1 POP SWAP7 SWAP6 POP POP POP POP POP POP JUMP JUMPDEST PUSH1 0x60 PUSH4 0xA9059CBB PUSH1 0xE0 SHL DUP4 DUP4 PUSH1 0x40 MLOAD PUSH1 0x24 ADD PUSH2 0x566 SWAP3 SWAP2 SWAP1 PUSH2 0x126F JUMP JUMPDEST PUSH1 0x40 MLOAD PUSH1 0x20 DUP2 DUP4 SUB SUB DUP2 MSTORE SWAP1 PUSH1 0x40 MSTORE SWAP1 PUSH28 0xFFFFFFFFFFFFFFFFFFFFFFFFFFFFFFFFFFFFFFFFFFFFFFFFFFFFFFFF NOT AND PUSH1 0x20 DUP3 ADD DUP1 MLOAD PUSH28 0xFFFFFFFFFFFFFFFFFFFFFFFFFFFFFFFFFFFFFFFFFFFFFFFFFFFFFFFF DUP4 DUP2 DUP4 AND OR DUP4 MSTORE POP POP POP POP SWAP1 POP SWAP3 SWAP2 POP POP JUMP JUMPDEST PUSH1 0x60 DUP2 PUSH1 0x40 MLOAD PUSH1 0x24 ADD PUSH1 0x40 MLOAD PUSH1 0x20 DUP2 DUP4 SUB SUB DUP2 MSTORE SWAP1 PUSH1 0x40 MSTORE SWAP1 PUSH1 0x40 MLOAD PUSH2 0x5F1 SWAP2 SWAP1 PUSH2 0x1427 JUMP JUMPDEST PUSH1 0x40 MLOAD DUP1 SWAP2 SUB SWAP1 KECCAK256 PUSH28 0xFFFFFFFFFFFFFFFFFFFFFFFFFFFFFFFFFFFFFFFFFFFFFFFFFFFFFFFF NOT AND PUSH1 0x20 DUP3 ADD DUP1 MLOAD PUSH28 0xFFFFFFFFFFFFFFFFFFFFFFFFFFFFFFFFFFFFFFFFFFFFFFFFFFFFFFFF DUP4 DUP2 DUP4 AND OR DUP4 MSTORE POP POP POP POP SWAP1 POP SWAP2 SWAP1 POP JUMP JUMPDEST PUSH1 0x60 PUSH1 0x40 MLOAD PUSH1 0x20 ADD PUSH2 0x65E SWAP1 PUSH2 0x145F JUMP JUMPDEST PUSH1 0x40 MLOAD PUSH1 0x20 DUP2 DUP4 SUB SUB DUP2 MSTORE SWAP1 PUSH1 0x40 MSTORE SWAP1 POP SWAP1 JUMP JUMPDEST PUSH1 0x60 DUP3 DUP3 PUSH1 0x40 MLOAD PUSH1 0x24 ADD PUSH2 0x687 SWAP3 SWAP2 SWAP1 PUSH2 0x126F JUMP JUMPDEST PUSH1 0x40 MLOAD PUSH1 0x20 DUP2 DUP4 SUB SUB DUP2 MSTORE SWAP1 PUSH1 0x40 MSTORE PUSH32 0xA9059CBB00000000000000000000000000000000000000000000000000000000 PUSH28 0xFFFFFFFFFFFFFFFFFFFFFFFFFFFFFFFFFFFFFFFFFFFFFFFFFFFFFFFF NOT AND PUSH1 0x20 DUP3 ADD DUP1 MLOAD PUSH28 0xFFFFFFFFFFFFFFFFFFFFFFFFFFFFFFFFFFFFFFFFFFFFFFFFFFFFFFFF DUP4 DUP2 DUP4 AND OR DUP4 MSTORE POP POP POP POP SWAP1 POP SWAP3 SWAP2 POP POP JUMP JUMPDEST PUSH1 0x60 PUSH1 0x1 PUSH1 0x63 PUSH1 0x40 MLOAD PUSH1 0x20 ADD PUSH2 0x723 SWAP3 SWAP2 SWAP1 PUSH2 0x154E JUMP JUMPDEST PUSH1 0x40 MLOAD PUSH1 0x20 DUP2 DUP4 SUB SUB DUP2 MSTORE SWAP1 PUSH1 0x40 MSTORE SWAP1 POP SWAP1 JUMP JUMPDEST PUSH0 DUP7 PUSH2 0x778 JUMPI PUSH1 0x40 MLOAD PUSH32 0x8C379A000000000000000000000000000000000000000000000000000000000 DUP2 MSTORE PUSH1 0x4 ADD PUSH2 0x76F SWAP1 PUSH2 0x15E5 JUMP JUMPDEST PUSH1 0x40 MLOAD DUP1 SWAP2 SUB SWAP1 REVERT JUMPDEST PUSH1 0x9 DUP7 DUP7 PUSH0 DUP2 DUP2 LT PUSH2 0x78D JUMPI PUSH2 0x78C PUSH2 0x1603 JUMP JUMPDEST JUMPDEST SWAP1 POP PUSH1 0x20 MUL ADD CALLDATALOAD EQ PUSH2 0x7D4 JUMPI PUSH1 0x40 MLOAD PUSH32 0x8C379A000000000000000000000000000000000000000000000000000000000 DUP2 MSTORE PUSH1 0x4 ADD PUSH2 0x7CB SWAP1 PUSH2 0x167A JUMP JUMPDEST PUSH1 0x40 MLOAD DUP1 SWAP2 SUB SWAP1 REVERT JUMPDEST PUSH1 0x12 DUP7 DUP7 PUSH1 0x1 DUP2 DUP2 LT PUSH2 0x7EA JUMPI PUSH2 0x7E9 PUSH2 0x1603 JUMP JUMPDEST JUMPDEST SWAP1 POP PUSH1 0x20 MUL ADD CALLDATALOAD EQ PUSH2 0x831 JUMPI PUSH1 0x40 MLOAD PUSH32 0x8C379A000000000000000000000000000000000000000000000000000000000 DUP2 MSTORE PUSH1 0x4 ADD PUSH2 0x828 SWAP1 PUSH2 0x167A JUMP JUMPDEST PUSH1 0x40 MLOAD DUP1 SWAP2 SUB SWAP1 REVERT JUMPDEST PUSH20 0x2FF1F4E5D08A822743EC6B342C521A0A421456CB PUSH20 0xFFFFFFFFFFFFFFFFFFFFFFFFFFFFFFFFFFFFFFFF AND DUP5 PUSH20 0xFFFFFFFFFFFFFFFFFFFFFFFFFFFFFFFFFFFFFFFF AND EQ PUSH2 0x8B3 JUMPI PUSH1 0x40 MLOAD PUSH32 0x8C379A000000000000000000000000000000000000000000000000000000000 DUP2 MSTORE PUSH1 0x4 ADD PUSH2 0x8AA SWAP1 PUSH2 0x16E2 JUMP JUMPDEST PUSH1 0x40 MLOAD DUP1 SWAP2 SUB SWAP1 REVERT JUMPDEST PUSH1 0x40 MLOAD PUSH1 0x20 ADD PUSH2 0x8C2 SWAP1 PUSH2 0x174A JUMP JUMPDEST PUSH1 0x40 MLOAD PUSH1 0x20 DUP2 DUP4 SUB SUB DUP2 MSTORE SWAP1 PUSH1 0x40 MSTORE DUP1 MLOAD SWAP1 PUSH1 0x20 ADD KECCAK256 DUP4 DUP4 PUSH1 0x40 MLOAD PUSH1 0x20 ADD PUSH2 0x8EB SWAP3 SWAP2 SWAP1 PUSH2 0x1782 JUMP JUMPDEST PUSH1 0x40 MLOAD PUSH1 0x20 DUP2 DUP4 SUB SUB DUP2 MSTORE SWAP1 PUSH1 0x40 MSTORE DUP1 MLOAD SWAP1 PUSH1 0x20 ADD KECCAK256 EQ PUSH2 0x941 JUMPI PUSH1 0x40 MLOAD PUSH32 0x8C379A000000000000000000000000000000000000000000000000000000000 DUP2 MSTORE PUSH1 0x4 ADD PUSH2 0x938 SWAP1 PUSH2 0x17E4 JUMP JUMPDEST PUSH1 0x40 MLOAD DUP1 SWAP2 SUB SWAP1 REVERT JUMPDEST PUSH1 0x1 SWAP1 POP SWAP7 SWAP6 POP POP POP POP POP POP JUMP JUMPDEST PUSH1 0x60 PUSH1 0x1 PUSH20 0x2FF1F4E5D08A822743EC6B342C521A0A421456CB PUSH1 0x40 MLOAD PUSH1 0x20 ADD PUSH2 0x979 SWAP3 SWAP2 SWAP1 PUSH2 0x1802 JUMP JUMPDEST PUSH1 0x40 MLOAD PUSH1 0x20 DUP2 DUP4 SUB SUB DUP2 MSTORE SWAP1 PUSH1 0x40 MSTORE SWAP1 POP SWAP1 JUMP JUMPDEST PUSH1 0x60 PUSH1 0x1 PUSH1 0x40 MLOAD PUSH1 0x20 ADD PUSH2 0x9A1 SWAP2 SWAP1 PUSH2 0x183C JUMP JUMPDEST PUSH1 0x40 MLOAD PUSH1 0x20 DUP2 DUP4 SUB SUB DUP2 MSTORE SWAP1 PUSH1 0x40 MSTORE SWAP1 POP SWAP1 JUMP JUMPDEST PUSH1 0x60 DUP2 PUSH1 0x40 MLOAD PUSH1 0x20 ADD PUSH2 0x9C8 SWAP2 SWAP1 PUSH2 0x1855 JUMP JUMPDEST PUSH1 0x40 MLOAD PUSH1 0x20 DUP2 DUP4 SUB SUB DUP2 MSTORE SWAP1 PUSH1 0x40 MSTORE PUSH1 0x40 MLOAD PUSH1 0x20 ADD PUSH2 0x9E7 SWAP2 SWAP1 PUSH2 0x1902 JUMP JUMPDEST PUSH1 0x40 MLOAD PUSH1 0x20 DUP2 DUP4 SUB SUB DUP2 MSTORE SWAP1 PUSH1 0x40 MSTORE SWAP1 POP SWAP2 SWAP1 POP JUMP JUMPDEST PUSH1 0x60 PUSH20 0x2FF1F4E5D08A822743EC6B342C521A0A421456CB PUSH1 0x40 MLOAD PUSH1 0x20 ADD PUSH2 0xA24 SWAP2 SWAP1 PUSH2 0x192E JUMP JUMPDEST PUSH1 0x40 MLOAD PUSH1 0x20 DUP2 DUP4 SUB SUB DUP2 MSTORE SWAP1 PUSH1 0x40 MSTORE SWAP1 POP SWAP1 JUMP JUMPDEST PUSH1 0x60 PUSH1 0x40 MLOAD DUP1 PUSH1 0x60 ADD PUSH1 0x40 MSTORE DUP1 PUSH1 0x40 MLOAD DUP1 PUSH1 0x40 ADD PUSH1 0x40 MSTORE DUP1 PUSH1 0x2 DUP2 MSTORE PUSH1 0x20 ADD PUSH32 0x3131000000000000000000000000000000000000000000000000000000000000 DUP2 MSTORE POP DUP2 MSTORE PUSH1 0x20 ADD PUSH1 0x40 MLOAD DUP1 PUSH1 0x40 ADD PUSH1 0x40 MSTORE DUP1 PUSH1 0x1 DUP2 MSTORE PUSH1 0x20 ADD PUSH32 0x3200000000000000000000000000000000000000000000000000000000000000 DUP2 MSTORE POP DUP2 MSTORE PUSH1 0x20 ADD PUSH1 0x40 MLOAD DUP1 PUSH1 0x40 ADD PUSH1 0x40 MSTORE DUP1 PUSH1 0x1 DUP2 MSTORE PUSH1 0x20 ADD PUSH32 0x3300000000000000000000000000000000000000000000000000000000000000 DUP2 MSTORE POP DUP2 MSTORE POP PUSH1 0x40 MLOAD PUSH1 0x24 ADD PUSH2 0xB04 SWAP2 SWAP1 PUSH2 0x1A3E JUMP JUMPDEST PUSH1 0x40 MLOAD PUSH1 0x20 DUP2 DUP4 SUB SUB DUP2 MSTORE SWAP1 PUSH1 0x40 MSTORE PUSH32 0x7FA990B900000000000000000000000000000000000000000000000000000000 PUSH28 0xFFFFFFFFFFFFFFFFFFFFFFFFFFFFFFFFFFFFFFFFFFFFFFFFFFFFFFFF NOT AND PUSH1 0x20 DUP3 ADD DUP1 MLOAD PUSH28 0xFFFFFFFFFFFFFFFFFFFFFFFFFFFFFFFFFFFFFFFFFFFFFFFFFFFFFFFF DUP4 DUP2 DUP4 AND OR DUP4 MSTORE POP POP POP POP SWAP1 POP SWAP1 JUMP JUMPDEST PUSH0 PUSH1 0x40 MLOAD SWAP1 POP SWAP1 JUMP JUMPDEST PUSH0 DUP1 REVERT JUMPDEST PUSH0 DUP1 REVERT JUMPDEST PUSH0 DUP1 REVERT JUMPDEST PUSH0 DUP1 REVERT JUMPDEST PUSH0 DUP1 REVERT JUMPDEST PUSH0 DUP1 DUP4 PUSH1 0x1F DUP5 ADD SLT PUSH2 0xBB8 JUMPI PUSH2 0xBB7 PUSH2 0xB97 JUMP JUMPDEST JUMPDEST DUP3 CALLDATALOAD SWAP1 POP PUSH8 0xFFFFFFFFFFFFFFFF DUP2 GT ISZERO PUSH2 0xBD5 JUMPI PUSH2 0xBD4 PUSH2 0xB9B JUMP JUMPDEST JUMPDEST PUSH1 0x20 DUP4 ADD SWAP2 POP DUP4 PUSH1 0x1 DUP3 MUL DUP4 ADD GT ISZERO PUSH2 0xBF1 JUMPI PUSH2 0xBF0 PUSH2 0xB9F JUMP JUMPDEST JUMPDEST SWAP3 POP SWAP3 SWAP1 POP JUMP JUMPDEST PUSH0 DUP1 PUSH1 0x20 DUP4 DUP6 SUB SLT ISZERO PUSH2 0xC0E JUMPI PUSH2 0xC0D PUSH2 0xB8F JUMP JUMPDEST JUMPDEST PUSH0 DUP4 ADD CALLDATALOAD PUSH8 0xFFFFFFFFFFFFFFFF DUP2 GT ISZERO PUSH2 0xC2B JUMPI PUSH2 0xC2A PUSH2 0xB93 JUMP JUMPDEST JUMPDEST PUSH2 0xC37 DUP6 DUP3 DUP7 ADD PUSH2 0xBA3 JUMP JUMPDEST SWAP3 POP SWAP3 POP POP SWAP3 POP SWAP3 SWAP1 POP JUMP JUMPDEST PUSH0 DUP2 MLOAD SWAP1 POP SWAP2 SWAP1 POP JUMP JUMPDEST PUSH0 DUP3 DUP3 MSTORE PUSH1 0x20 DUP3 ADD SWAP1 POP SWAP3 SWAP2 POP POP JUMP JUMPDEST PUSH0 JUMPDEST DUP4 DUP2 LT ISZERO PUSH2 0xC7A JUMPI DUP1 DUP3 ADD MLOAD DUP2 DUP5 ADD MSTORE PUSH1 0x20 DUP2 ADD SWAP1 POP PUSH2 0xC5F JUMP JUMPDEST PUSH0 DUP5 DUP5 ADD MSTORE POP POP POP POP JUMP JUMPDEST PUSH0 PUSH1 0x1F NOT PUSH1 0x1F DUP4 ADD AND SWAP1 POP SWAP2 SWAP1 POP JUMP JUMPDEST PUSH0 PUSH2 0xC9F DUP3 PUSH2 0xC43 JUMP JUMPDEST PUSH2 0xCA9 DUP2 DUP6 PUSH2 0xC4D JUMP JUMPDEST SWAP4 POP PUSH2 0xCB9 DUP2 DUP6 PUSH1 0x20 DUP7 ADD PUSH2 0xC5D JUMP JUMPDEST PUSH2 0xCC2 DUP2 PUSH2 0xC85 JUMP JUMPDEST DUP5 ADD SWAP2 POP POP SWAP3 SWAP2 POP POP JUMP JUMPDEST PUSH0 DUP2 SWAP1 POP SWAP2 SWAP1 POP JUMP JUMPDEST PUSH2 0xCDF DUP2 PUSH2 0xCCD JUMP JUMPDEST DUP3 MSTORE POP POP JUMP JUMPDEST PUSH0 PUSH20 0xFFFFFFFFFFFFFFFFFFFFFFFFFFFFFFFFFFFFFFFF DUP3 AND SWAP1 POP SWAP2 SWAP1 POP JUMP JUMPDEST PUSH0 PUSH2 0xD0E DUP3 PUSH2 0xCE5 JUMP JUMPDEST SWAP1 POP SWAP2 SWAP1 POP JUMP JUMPDEST PUSH2 0xD1E DUP2 PUSH2 0xD04 JUMP JUMPDEST DUP3 MSTORE POP POP JUMP JUMPDEST PUSH0 PUSH1 0x60 DUP3 ADD SWAP1 POP DUP2 DUP2 SUB PUSH0 DUP4 ADD MSTORE PUSH2 0xD3C DUP2 DUP7 PUSH2 0xC95 JUMP JUMPDEST SWAP1 POP PUSH2 0xD4B PUSH1 0x20 DUP4 ADD DUP6 PUSH2 0xCD6 JUMP JUMPDEST PUSH2 0xD58 PUSH1 0x40 DUP4 ADD DUP5 PUSH2 0xD15 JUMP JUMPDEST SWAP5 SWAP4 POP POP POP POP JUMP JUMPDEST PUSH2 0xD69 DUP2 PUSH2 0xD04 JUMP JUMPDEST DUP2 EQ PUSH2 0xD73 JUMPI PUSH0 DUP1 REVERT JUMPDEST POP JUMP JUMPDEST PUSH0 DUP2 CALLDATALOAD SWAP1 POP PUSH2 0xD84 DUP2 PUSH2 0xD60 JUMP JUMPDEST SWAP3 SWAP2 POP POP JUMP JUMPDEST PUSH2 0xD93 DUP2 PUSH2 0xCCD JUMP JUMPDEST DUP2 EQ PUSH2 0xD9D JUMPI PUSH0 DUP1 REVERT JUMPDEST POP JUMP JUMPDEST PUSH0 DUP2 CALLDATALOAD SWAP1 POP PUSH2 0xDAE DUP2 PUSH2 0xD8A JUMP JUMPDEST SWAP3 SWAP2 POP POP JUMP JUMPDEST PUSH0 DUP1 PUSH1 0x40 DUP4 DUP6 SUB SLT ISZERO PUSH2 0xDCA JUMPI PUSH2 0xDC9 PUSH2 0xB8F JUMP JUMPDEST JUMPDEST PUSH0 PUSH2 0xDD7 DUP6 DUP3 DUP7 ADD PUSH2 0xD76 JUMP JUMPDEST SWAP3 POP POP PUSH1 0x20 PUSH2 0xDE8 DUP6 DUP3 DUP7 ADD PUSH2 0xDA0 JUMP JUMPDEST SWAP2 POP POP SWAP3 POP SWAP3 SWAP1 POP JUMP JUMPDEST PUSH0 DUP2 MLOAD SWAP1 POP SWAP2 SWAP1 POP JUMP JUMPDEST PUSH0 DUP3 DUP3 MSTORE PUSH1 0x20 DUP3 ADD SWAP1 POP SWAP3 SWAP2 POP POP JUMP JUMPDEST PUSH0 PUSH2 0xE16 DUP3 PUSH2 0xDF2 JUMP JUMPDEST PUSH2 0xE20 DUP2 DUP6 PUSH2 0xDFC JUMP JUMPDEST SWAP4 POP PUSH2 0xE30 DUP2 DUP6 PUSH1 0x20 DUP7 ADD PUSH2 0xC5D JUMP JUMPDEST PUSH2 0xE39 DUP2 PUSH2 0xC85 JUMP JUMPDEST DUP5 ADD SWAP2 POP POP SWAP3 SWAP2 POP POP JUMP JUMPDEST PUSH0 PUSH1 0x20 DUP3 ADD SWAP1 POP DUP2 DUP2 SUB PUSH0 DUP4 ADD MSTORE PUSH2 0xE5C DUP2 DUP5 PUSH2 0xE0C JUMP JUMPDEST SWAP1 POP SWAP3 SWAP2 POP POP JUMP JUMPDEST PUSH0 DUP2 ISZERO ISZERO SWAP1 POP SWAP2 SWAP1 POP JUMP JUMPDEST PUSH2 0xE78 DUP2 PUSH2 0xE64 JUMP JUMPDEST DUP2 EQ PUSH2 0xE82 JUMPI PUSH0 DUP1 REVERT JUMPDEST POP JUMP JUMPDEST PUSH0 DUP2 CALLDATALOAD SWAP1 POP PUSH2 0xE93 DUP2 PUSH2 0xE6F JUMP JUMPDEST SWAP3 SWAP2 POP POP JUMP JUMPDEST PUSH0 DUP1 DUP4 PUSH1 0x1F DUP5 ADD SLT PUSH2 0xEAE JUMPI PUSH2 0xEAD PUSH2 0xB97 JUMP JUMPDEST JUMPDEST DUP3 CALLDATALOAD SWAP1 POP PUSH8 0xFFFFFFFFFFFFFFFF DUP2 GT ISZERO PUSH2 0xECB JUMPI PUSH2 0xECA PUSH2 0xB9B JUMP JUMPDEST JUMPDEST PUSH1 0x20 DUP4 ADD SWAP2 POP DUP4 PUSH1 0x20 DUP3 MUL DUP4 ADD GT ISZERO PUSH2 0xEE7 JUMPI PUSH2 0xEE6 PUSH2 0xB9F JUMP JUMPDEST JUMPDEST SWAP3 POP SWAP3 SWAP1 POP JUMP JUMPDEST PUSH0 DUP1 DUP4 PUSH1 0x1F DUP5 ADD SLT PUSH2 0xF03 JUMPI PUSH2 0xF02 PUSH2 0xB97 JUMP JUMPDEST JUMPDEST DUP3 CALLDATALOAD SWAP1 POP PUSH8 0xFFFFFFFFFFFFFFFF DUP2 GT ISZERO PUSH2 0xF20 JUMPI PUSH2 0xF1F PUSH2 0xB9B JUMP JUMPDEST JUMPDEST PUSH1 0x20 DUP4 ADD SWAP2 POP DUP4 PUSH1 0x1 DUP3 MUL DUP4 ADD GT ISZERO PUSH2 0xF3C JUMPI PUSH2 0xF3B PUSH2 0xB9F JUMP JUMPDEST JUMPDEST SWAP3 POP SWAP3 SWAP1 POP JUMP JUMPDEST PUSH0 DUP1 PUSH0 DUP1 PUSH0 DUP1 PUSH1 0x80 DUP8 DUP10 SUB SLT ISZERO PUSH2 0xF5D JUMPI PUSH2 0xF5C PUSH2 0xB8F JUMP JUMPDEST JUMPDEST PUSH0 PUSH2 0xF6A DUP10 DUP3 DUP11 ADD PUSH2 0xE85 JUMP JUMPDEST SWAP7 POP POP PUSH1 0x20 DUP8 ADD CALLDATALOAD PUSH8 0xFFFFFFFFFFFFFFFF DUP2 GT ISZERO PUSH2 0xF8B JUMPI PUSH2 0xF8A PUSH2 0xB93 JUMP JUMPDEST JUMPDEST PUSH2 0xF97 DUP10 DUP3 DUP11 ADD PUSH2 0xE99 JUMP JUMPDEST SWAP6 POP SWAP6 POP POP PUSH1 0x40 PUSH2 0xFAA DUP10 DUP3 DUP11 ADD PUSH2 0xD76 JUMP JUMPDEST SWAP4 POP POP PUSH1 0x60 DUP8 ADD CALLDATALOAD PUSH8 0xFFFFFFFFFFFFFFFF DUP2 GT ISZERO PUSH2 0xFCB JUMPI PUSH2 0xFCA PUSH2 0xB93 JUMP JUMPDEST JUMPDEST PUSH2 0xFD7 DUP10 DUP3 DUP11 ADD PUSH2 0xEEE JUMP JUMPDEST SWAP3 POP SWAP3 POP POP SWAP3 SWAP6 POP SWAP3 SWAP6 POP SWAP3 SWAP6 JUMP JUMPDEST PUSH0 DUP1 REVERT JUMPDEST PUSH32 0x4E487B7100000000000000000000000000000000000000000000000000000000 PUSH0 MSTORE PUSH1 0x41 PUSH1 0x4 MSTORE PUSH1 0x24 PUSH0 REVERT JUMPDEST PUSH2 0x1020 DUP3 PUSH2 0xC85 JUMP JUMPDEST DUP2 ADD DUP2 DUP2 LT PUSH8 0xFFFFFFFFFFFFFFFF DUP3 GT OR ISZERO PUSH2 0x103F JUMPI PUSH2 0x103E PUSH2 0xFEA JUMP JUMPDEST JUMPDEST DUP1 PUSH1 0x40 MSTORE POP POP POP JUMP JUMPDEST PUSH0 PUSH2 0x1051 PUSH2 0xB86 JUMP JUMPDEST SWAP1 POP PUSH2 0x105D DUP3 DUP3 PUSH2 0x1017 JUMP JUMPDEST SWAP2 SWAP1 POP JUMP JUMPDEST PUSH0 PUSH8 0xFFFFFFFFFFFFFFFF DUP3 GT ISZERO PUSH2 0x107C JUMPI PUSH2 0x107B PUSH2 0xFEA JUMP JUMPDEST JUMPDEST PUSH2 0x1085 DUP3 PUSH2 0xC85 JUMP JUMPDEST SWAP1 POP PUSH1 0x20 DUP2 ADD SWAP1 POP SWAP2 SWAP1 POP JUMP JUMPDEST DUP3 DUP2 DUP4 CALLDATACOPY PUSH0 DUP4 DUP4 ADD MSTORE POP POP POP JUMP JUMPDEST PUSH0 PUSH2 0x10B2 PUSH2 0x10AD DUP5 PUSH2 0x1062 JUMP JUMPDEST PUSH2 0x1048 JUMP JUMPDEST SWAP1 POP DUP3 DUP2 MSTORE PUSH1 0x20 DUP2 ADD DUP5 DUP5 DUP5 ADD GT ISZERO PUSH2 0x10CE JUMPI PUSH2 0x10CD PUSH2 0xFE6 JUMP JUMPDEST JUMPDEST PUSH2 0x10D9 DUP5 DUP3 DUP6 PUSH2 0x1092 JUMP JUMPDEST POP SWAP4 SWAP3 POP POP POP JUMP JUMPDEST PUSH0 DUP3 PUSH1 0x1F DUP4 ADD SLT PUSH2 0x10F5 JUMPI PUSH2 0x10F4 PUSH2 0xB97 JUMP JUMPDEST JUMPDEST DUP2 CALLDATALOAD PUSH2 0x1105 DUP5 DUP3 PUSH1 0x20 DUP7 ADD PUSH2 0x10A0 JUMP JUMPDEST SWAP2 POP POP SWAP3 SWAP2 POP POP JUMP JUMPDEST PUSH0 PUSH1 0x20 DUP3 DUP5 SUB SLT ISZERO PUSH2 0x1123 JUMPI PUSH2 0x1122 PUSH2 0xB8F JUMP JUMPDEST JUMPDEST PUSH0 DUP3 ADD CALLDATALOAD PUSH8 0xFFFFFFFFFFFFFFFF DUP2 GT ISZERO PUSH2 0x1140 JUMPI PUSH2 0x113F PUSH2 0xB93 JUMP JUMPDEST JUMPDEST PUSH2 0x114C DUP5 DUP3 DUP6 ADD PUSH2 0x10E1 JUMP JUMPDEST SWAP2 POP POP SWAP3 SWAP2 POP POP JUMP JUMPDEST PUSH2 0x115E DUP2 PUSH2 0xE64 JUMP JUMPDEST DUP3 MSTORE POP POP JUMP JUMPDEST PUSH0 PUSH1 0x20 DUP3 ADD SWAP1 POP PUSH2 0x1177 PUSH0 DUP4 ADD DUP5 PUSH2 0x1155 JUMP JUMPDEST SWAP3 SWAP2 POP POP JUMP JUMPDEST PUSH0 PUSH1 0x20 DUP3 DUP5 SUB SLT ISZERO PUSH2 0x1192 JUMPI PUSH2 0x1191 PUSH2 0xB8F JUMP JUMPDEST JUMPDEST PUSH0 PUSH2 0x119F DUP5 DUP3 DUP6 ADD PUSH2 0xDA0 JUMP JUMPDEST SWAP2 POP POP SWAP3 SWAP2 POP POP JUMP JUMPDEST PUSH0 PUSH1 0x20 DUP3 ADD SWAP1 POP DUP2 DUP2 SUB PUSH0 DUP4 ADD MSTORE PUSH2 0x11C0 DUP2 DUP5 PUSH2 0xC95 JUMP JUMPDEST SWAP1 POP SWAP3 SWAP2 POP POP JUMP JUMPDEST PUSH0 PUSH2 0x11D2 DUP3 PUSH2 0xCE5 JUMP JUMPDEST SWAP1 POP SWAP2 SWAP1 POP JUMP JUMPDEST PUSH2 0x11E2 DUP2 PUSH2 0x11C8 JUMP JUMPDEST DUP2 EQ PUSH2 0x11EC JUMPI PUSH0 DUP1 REVERT JUMPDEST POP JUMP JUMPDEST PUSH0 DUP2 CALLDATALOAD SWAP1 POP PUSH2 0x11FD DUP2 PUSH2 0x11D9 JUMP JUMPDEST SWAP3 SWAP2 POP POP JUMP JUMPDEST PUSH0 DUP1 PUSH0 PUSH1 0x60 DUP5 DUP7 SUB SLT ISZERO PUSH2 0x121A JUMPI PUSH2 0x1219 PUSH2 0xB8F JUMP JUMPDEST JUMPDEST PUSH0 DUP5 ADD CALLDATALOAD PUSH8 0xFFFFFFFFFFFFFFFF DUP2 GT ISZERO PUSH2 0x1237 JUMPI PUSH2 0x1236 PUSH2 0xB93 JUMP JUMPDEST JUMPDEST PUSH2 0x1243 DUP7 DUP3 DUP8 ADD PUSH2 0x10E1 JUMP JUMPDEST SWAP4 POP POP PUSH1 0x20 PUSH2 0x1254 DUP7 DUP3 DUP8 ADD PUSH2 0xDA0 JUMP JUMPDEST SWAP3 POP POP PUSH1 0x40 PUSH2 0x1265 DUP7 DUP3 DUP8 ADD PUSH2 0x11EF JUMP JUMPDEST SWAP2 POP POP SWAP3 POP SWAP3 POP SWAP3 JUMP JUMPDEST PUSH0 PUSH1 0x40 DUP3 ADD SWAP1 POP PUSH2 0x1282 PUSH0 DUP4 ADD DUP6 PUSH2 0xD15 JUMP JUMPDEST PUSH2 0x128F PUSH1 0x20 DUP4 ADD DUP5 PUSH2 0xCD6 JUMP JUMPDEST SWAP4 SWAP3 POP POP POP JUMP JUMPDEST PUSH0 DUP2 SWAP1 POP SWAP3 SWAP2 POP POP JUMP JUMPDEST PUSH32 0x617070776F726B73000000000000000000000000000000000000000000000000 PUSH0 DUP3 ADD MSTORE POP JUMP JUMPDEST PUSH0 PUSH2 0x12D4 PUSH1 0x8 DUP4 PUSH2 0x1296 JUMP JUMPDEST SWAP2 POP PUSH2 0x12DF DUP3 PUSH2 0x12A0 JUMP JUMPDEST PUSH1 0x8 DUP3 ADD SWAP1 POP SWAP2 SWAP1 POP JUMP JUMPDEST PUSH0 PUSH2 0x12F4 DUP3 PUSH2 0x12C8 JUMP JUMPDEST SWAP2 POP DUP2 SWAP1 POP SWAP2 SWAP1 POP JUMP JUMPDEST PUSH0 DUP3 DUP3 MSTORE PUSH1 0x20 DUP3 ADD SWAP1 POP SWAP3 SWAP2 POP POP JUMP JUMPDEST PUSH0 DUP1 REVERT JUMPDEST DUP3 DUP2 DUP4 CALLDATACOPY POP POP POP JUMP JUMPDEST PUSH0 PUSH2 0x1326 DUP4 DUP6 PUSH2 0x12FE JUMP JUMPDEST SWAP4 POP PUSH32 0x7FFFFFFFFFFFFFFFFFFFFFFFFFFFFFFFFFFFFFFFFFFFFFFFFFFFFFFFFFFFFFF DUP4 GT ISZERO PUSH2 0x1359 JUMPI PUSH2 0x1358 PUSH2 0x130E JUMP JUMPDEST JUMPDEST PUSH1 0x20 DUP4 MUL SWAP3 POP PUSH2 0x136A DUP4 DUP6 DUP5 PUSH2 0x1312 JUMP JUMPDEST DUP3 DUP5 ADD SWAP1 POP SWAP4 SWAP3 POP POP POP JUMP JUMPDEST PUSH0 PUSH2 0x1381 DUP4 DUP6 PUSH2 0xC4D JUMP JUMPDEST SWAP4 POP PUSH2 0x138E DUP4 DUP6 DUP5 PUSH2 0x1092 JUMP JUMPDEST PUSH2 0x1397 DUP4 PUSH2 0xC85 JUMP JUMPDEST DUP5 ADD SWAP1 POP SWAP4 SWAP3 POP POP POP JUMP JUMPDEST PUSH0 PUSH1 0x80 DUP3 ADD SWAP1 POP PUSH2 0x13B5 PUSH0 DUP4 ADD DUP10 PUSH2 0x1155 JUMP JUMPDEST DUP2 DUP2 SUB PUSH1 0x20 DUP4 ADD MSTORE PUSH2 0x13C8 DUP2 DUP8 DUP10 PUSH2 0x131B JUMP JUMPDEST SWAP1 POP PUSH2 0x13D7 PUSH1 0x40 DUP4 ADD DUP7 PUSH2 0xD15 JUMP JUMPDEST DUP2 DUP2 SUB PUSH1 0x60 DUP4 ADD MSTORE PUSH2 0x13EA DUP2 DUP5 DUP7 PUSH2 0x1376 JUMP JUMPDEST SWAP1 POP SWAP8 SWAP7 POP POP POP POP POP POP POP JUMP JUMPDEST PUSH0 PUSH2 0x1401 DUP3 PUSH2 0xC43 JUMP JUMPDEST PUSH2 0x140B DUP2 DUP6 PUSH2 0x1296 JUMP JUMPDEST SWAP4 POP PUSH2 0x141B DUP2 DUP6 PUSH1 0x20 DUP7 ADD PUSH2 0xC5D JUMP JUMPDEST DUP1 DUP5 ADD SWAP2 POP POP SWAP3 SWAP2 POP POP JUMP JUMPDEST PUSH0 PUSH2 0x1432 DUP3 DUP5 PUSH2 0x13F7 JUMP JUMPDEST SWAP2 POP DUP2 SWAP1 POP SWAP3 SWAP2 POP POP JUMP JUMPDEST PUSH0 PUSH2 0x1449 PUSH1 0x8 DUP4 PUSH2 0xC4D JUMP JUMPDEST SWAP2 POP PUSH2 0x1454 DUP3 PUSH2 0x12A0 JUMP JUMPDEST PUSH1 0x20 DUP3 ADD SWAP1 POP SWAP2 SWAP1 POP JUMP JUMPDEST PUSH0 PUSH1 0x20 DUP3 ADD SWAP1 POP DUP2 DUP2 SUB PUSH0 DUP4 ADD MSTORE PUSH2 0x1476 DUP2 PUSH2 0x143D JUMP JUMPDEST SWAP1 POP SWAP2 SWAP1 POP JUMP JUMPDEST PUSH0 DUP2 SWAP1 POP SWAP2 SWAP1 POP JUMP JUMPDEST PUSH0 PUSH1 0xFF DUP3 AND SWAP1 POP SWAP2 SWAP1 POP JUMP JUMPDEST PUSH0 DUP2 SWAP1 POP SWAP2 SWAP1 POP JUMP JUMPDEST PUSH0 PUSH2 0x14B5 PUSH2 0x14B0 PUSH2 0x14AB DUP5 PUSH2 0x147D JUMP JUMPDEST PUSH2 0x1492 JUMP JUMPDEST PUSH2 0x1486 JUMP JUMPDEST SWAP1 POP SWAP2 SWAP1 POP JUMP JUMPDEST PUSH2 0x14C5 DUP2 PUSH2 0x149B JUMP JUMPDEST DUP3 MSTORE POP POP JUMP JUMPDEST PUSH0 DUP2 SWAP1 POP SWAP2 SWAP1 POP JUMP JUMPDEST PUSH0 PUSH2 0x14EE PUSH2 0x14E9 PUSH2 0x14E4 DUP5 PUSH2 0x14CB JUMP JUMPDEST PUSH2 0x1492 JUMP JUMPDEST PUSH2 0x1486 JUMP JUMPDEST SWAP1 POP SWAP2 SWAP1 POP JUMP JUMPDEST PUSH2 0x14FE DUP2 PUSH2 0x14D4 JUMP JUMPDEST DUP3 MSTORE POP POP JUMP JUMPDEST PUSH32 0x6A696D0000000000000000000000000000000000000000000000000000000000 PUSH0 DUP3 ADD MSTORE POP JUMP JUMPDEST PUSH0 PUSH2 0x1538 PUSH1 0x3 DUP4 PUSH2 0xC4D JUMP JUMPDEST SWAP2 POP PUSH2 0x1543 DUP3 PUSH2 0x1504 JUMP JUMPDEST PUSH1 0x20 DUP3 ADD SWAP1 POP SWAP2 SWAP1 POP JUMP JUMPDEST PUSH0 PUSH1 0x80 DUP3 ADD SWAP1 POP DUP2 DUP2 SUB PUSH0 DUP4 ADD MSTORE PUSH2 0x1565 DUP2 PUSH2 0x143D JUMP JUMPDEST SWAP1 POP PUSH2 0x1574 PUSH1 0x20 DUP4 ADD DUP6 PUSH2 0x14BC JUMP JUMPDEST PUSH2 0x1581 PUSH1 0x40 DUP4 ADD DUP5 PUSH2 0x14F5 JUMP JUMPDEST DUP2 DUP2 SUB PUSH1 0x60 DUP4 ADD MSTORE PUSH2 0x1592 DUP2 PUSH2 0x152C JUMP JUMPDEST SWAP1 POP SWAP4 SWAP3 POP POP POP JUMP JUMPDEST PUSH32 0x626F6F6C20706172616D6574657220636F72726563742E000000000000000000 PUSH0 DUP3 ADD MSTORE POP JUMP JUMPDEST PUSH0 PUSH2 0x15CF PUSH1 0x17 DUP4 PUSH2 0xC4D JUMP JUMPDEST SWAP2 POP PUSH2 0x15DA DUP3 PUSH2 0x159B JUMP JUMPDEST PUSH1 0x20 DUP3 ADD SWAP1 POP SWAP2 SWAP1 POP JUMP JUMPDEST PUSH0 PUSH1 0x20 DUP3 ADD SWAP1 POP DUP2 DUP2 SUB PUSH0 DUP4 ADD MSTORE PUSH2 0x15FC DUP2 PUSH2 0x15C3 JUMP JUMPDEST SWAP1 POP SWAP2 SWAP1 POP JUMP JUMPDEST PUSH32 0x4E487B7100000000000000000000000000000000000000000000000000000000 PUSH0 MSTORE PUSH1 0x32 PUSH1 0x4 MSTORE PUSH1 0x24 PUSH0 REVERT JUMPDEST PUSH32 0x75696E7420617272617920706172616D6574657220636F72726563742E000000 PUSH0 DUP3 ADD MSTORE POP JUMP JUMPDEST PUSH0 PUSH2 0x1664 PUSH1 0x1D DUP4 PUSH2 0xC4D JUMP JUMPDEST SWAP2 POP PUSH2 0x166F DUP3 PUSH2 0x1630 JUMP JUMPDEST PUSH1 0x20 DUP3 ADD SWAP1 POP SWAP2 SWAP1 POP JUMP JUMPDEST PUSH0 PUSH1 0x20 DUP3 ADD SWAP1 POP DUP2 DUP2 SUB PUSH0 DUP4 ADD MSTORE PUSH2 0x1691 DUP2 PUSH2 0x1658 JUMP JUMPDEST SWAP1 POP SWAP2 SWAP1 POP JUMP JUMPDEST PUSH32 0x6164647265737320706172616D6574657220636F72726563742E000000000000 PUSH0 DUP3 ADD MSTORE POP JUMP JUMPDEST PUSH0 PUSH2 0x16CC PUSH1 0x1A DUP4 PUSH2 0xC4D JUMP JUMPDEST SWAP2 POP PUSH2 0x16D7 DUP3 PUSH2 0x1698 JUMP JUMPDEST PUSH1 0x20 DUP3 ADD SWAP1 POP SWAP2 SWAP1 POP JUMP JUMPDEST PUSH0 PUSH1 0x20 DUP3 ADD SWAP1 POP DUP2 DUP2 SUB PUSH0 DUP4 ADD MSTORE PUSH2 0x16F9 DUP2 PUSH2 0x16C0 JUMP JUMPDEST SWAP1 POP SWAP2 SWAP1 POP JUMP JUMPDEST PUSH32 0x427269616E000000000000000000000000000000000000000000000000000000 PUSH0 DUP3 ADD MSTORE POP JUMP JUMPDEST PUSH0 PUSH2 0x1734 PUSH1 0x5 DUP4 PUSH2 0x1296 JUMP JUMPDEST SWAP2 POP PUSH2 0x173F DUP3 PUSH2 0x1700 JUMP JUMPDEST PUSH1 0x5 DUP3 ADD SWAP1 POP SWAP2 SWAP1 POP JUMP JUMPDEST PUSH0 PUSH2 0x1754 DUP3 PUSH2 0x1728 JUMP JUMPDEST SWAP2 POP DUP2 SWAP1 POP SWAP2 SWAP1 POP JUMP JUMPDEST PUSH0 PUSH2 0x1769 DUP4 DUP6 PUSH2 0x1296 JUMP JUMPDEST SWAP4 POP PUSH2 0x1776 DUP4 DUP6 DUP5 PUSH2 0x1092 JUMP JUMPDEST DUP3 DUP5 ADD SWAP1 POP SWAP4 SWAP3 POP POP POP JUMP JUMPDEST PUSH0 PUSH2 0x178E DUP3 DUP5 DUP7 PUSH2 0x175E JUMP JUMPDEST SWAP2 POP DUP2 SWAP1 POP SWAP4 SWAP3 POP POP POP JUMP JUMPDEST PUSH32 0x737472696E6720706172616D6574657220636F72726563742E00000000000000 PUSH0 DUP3 ADD MSTORE POP JUMP JUMPDEST PUSH0 PUSH2 0x17CE PUSH1 0x19 DUP4 PUSH2 0xC4D JUMP JUMPDEST SWAP2 POP PUSH2 0x17D9 DUP3 PUSH2 0x179A JUMP JUMPDEST PUSH1 0x20 DUP3 ADD SWAP1 POP SWAP2 SWAP1 POP JUMP JUMPDEST PUSH0 PUSH1 0x20 DUP3 ADD SWAP1 POP DUP2 DUP2 SUB PUSH0 DUP4 ADD MSTORE PUSH2 0x17FB DUP2 PUSH2 0x17C2 JUMP JUMPDEST SWAP1 POP SWAP2 SWAP1 POP JUMP JUMPDEST PUSH0 PUSH1 0x60 DUP3 ADD SWAP1 POP DUP2 DUP2 SUB PUSH0 DUP4 ADD MSTORE PUSH2 0x1819 DUP2 PUSH2 0x143D JUMP JUMPDEST SWAP1 POP PUSH2 0x1828 PUSH1 0x20 DUP4 ADD DUP6 PUSH2 0x14BC JUMP JUMPDEST PUSH2 0x1835 PUSH1 0x40 DUP4 ADD DUP5 PUSH2 0xD15 JUMP JUMPDEST SWAP4 SWAP3 POP POP POP JUMP JUMPDEST PUSH0 PUSH1 0x20 DUP3 ADD SWAP1 POP PUSH2 0x184F PUSH0 DUP4 ADD DUP5 PUSH2 0x14BC JUMP JUMPDEST SWAP3 SWAP2 POP POP JUMP JUMPDEST PUSH0 PUSH1 0x20 DUP3 ADD SWAP1 POP PUSH2 0x1868 PUSH0 DUP4 ADD DUP5 PUSH2 0xCD6 JUMP JUMPDEST SWAP3 SWAP2 POP POP JUMP JUMPDEST PUSH32 0x4142430000000000000000000000000000000000000000000000000000000000 PUSH0 DUP3 ADD MSTORE POP JUMP JUMPDEST PUSH0 PUSH2 0x18A2 PUSH1 0x3 DUP4 PUSH2 0x1296 JUMP JUMPDEST SWAP2 POP PUSH2 0x18AD DUP3 PUSH2 0x186E JUMP JUMPDEST PUSH1 0x3 DUP3 ADD SWAP1 POP SWAP2 SWAP1 POP JUMP JUMPDEST PUSH32 0x2E6A736F6E000000000000000000000000000000000000000000000000000000 PUSH0 DUP3 ADD MSTORE POP JUMP JUMPDEST PUSH0 PUSH2 0x18EC PUSH1 0x5 DUP4 PUSH2 0x1296 JUMP JUMPDEST SWAP2 POP PUSH2 0x18F7 DUP3 PUSH2 0x18B8 JUMP JUMPDEST PUSH1 0x5 DUP3 ADD SWAP1 POP SWAP2 SWAP1 POP JUMP JUMPDEST PUSH0 PUSH2 0x190C DUP3 PUSH2 0x1896 JUMP JUMPDEST SWAP2 POP PUSH2 0x1918 DUP3 DUP5 PUSH2 0x13F7 JUMP JUMPDEST SWAP2 POP PUSH2 0x1923 DUP3 PUSH2 0x18E0 JUMP JUMPDEST SWAP2 POP DUP2 SWAP1 POP SWAP3 SWAP2 POP POP JUMP JUMPDEST PUSH0 PUSH1 0x20 DUP3 ADD SWAP1 POP PUSH2 0x1941 PUSH0 DUP4 ADD DUP5 PUSH2 0xD15 JUMP JUMPDEST SWAP3 SWAP2 POP POP JUMP JUMPDEST PUSH0 PUSH1 0x3 SWAP1 POP SWAP2 SWAP1 POP JUMP JUMPDEST PUSH0 DUP2 SWAP1 POP SWAP3 SWAP2 POP POP JUMP JUMPDEST PUSH0 DUP2 SWAP1 POP SWAP2 SWAP1 POP JUMP JUMPDEST PUSH0 DUP3 DUP3 MSTORE PUSH1 0x20 DUP3 ADD SWAP1 POP SWAP3 SWAP2 POP POP JUMP JUMPDEST PUSH0 PUSH2 0x197E DUP3 PUSH2 0xC43 JUMP JUMPDEST PUSH2 0x1988 DUP2 DUP6 PUSH2 0x1964 JUMP JUMPDEST SWAP4 POP PUSH2 0x1998 DUP2 DUP6 PUSH1 0x20 DUP7 ADD PUSH2 0xC5D JUMP JUMPDEST PUSH2 0x19A1 DUP2 PUSH2 0xC85 JUMP JUMPDEST DUP5 ADD SWAP2 POP POP SWAP3 SWAP2 POP POP JUMP JUMPDEST PUSH0 PUSH2 0x19B7 DUP4 DUP4 PUSH2 0x1974 JUMP JUMPDEST SWAP1 POP SWAP3 SWAP2 POP POP JUMP JUMPDEST PUSH0 PUSH1 0x20 DUP3 ADD SWAP1 POP SWAP2 SWAP1 POP JUMP JUMPDEST PUSH0 PUSH2 0x19D5 DUP3 PUSH2 0x1947 JUMP JUMPDEST PUSH2 0x19DF DUP2 DUP6 PUSH2 0x1951 JUMP JUMPDEST SWAP4 POP DUP4 PUSH1 0x20 DUP3 MUL DUP6 ADD PUSH2 0x19F1 DUP6 PUSH2 0x195B JUMP JUMPDEST DUP1 PUSH0 JUMPDEST DUP6 DUP2 LT ISZERO PUSH2 0x1A2C JUMPI DUP5 DUP5 SUB DUP10 MSTORE DUP2 MLOAD PUSH2 0x1A0D DUP6 DUP3 PUSH2 0x19AC JUMP JUMPDEST SWAP5 POP PUSH2 0x1A18 DUP4 PUSH2 0x19BF JUMP JUMPDEST SWAP3 POP PUSH1 0x20 DUP11 ADD SWAP10 POP POP PUSH1 0x1 DUP2 ADD SWAP1 POP PUSH2 0x19F4 JUMP JUMPDEST POP DUP3 SWAP8 POP DUP8 SWAP6 POP POP POP POP POP POP SWAP3 SWAP2 POP POP JUMP JUMPDEST PUSH0 PUSH1 0x20 DUP3 ADD SWAP1 POP DUP2 DUP2 SUB PUSH0 DUP4 ADD MSTORE PUSH2 0x1A56 DUP2 DUP5 PUSH2 0x19CB JUMP JUMPDEST SWAP1 POP SWAP3 SWAP2 POP POP JUMP INVALID LOG2 PUSH5 0x6970667358 0x22 SLT KECCAK256 GASPRICE PUSH31 0x4292ADF0C54C159DF16571319F638A63725B7CE7FED42E97254A561F10BC64 PUSH20 0x6F6C634300081500330000000000000000000000 "
				},
				"gasEstimates": {
					"creation": {
						"codeDepositCost": "1360800",
						"executionCost": "1415",
						"totalCost": "1362215"
					},
					"external": {
						"": "174",
						"AppWorks(bool,uint256[],address,string)": "infinite",
						"encode()": "infinite",
						"encodeAddress()": "infinite",
						"encodeAppworks()": "infinite",
						"encodeCall(address,uint256)": "infinite",
						"encodeFunSelector(string)": "infinite",
						"encodeOne()": "infinite",
						"encodePackedAppworks()": "infinite",
						"encodePackedAppworksV2()": "infinite",
						"encodeWithSelector(address,uint256)": "infinite",
						"encodeWithSignature(address,uint256)": "infinite",
						"encodeWithSignatureAppWorks(bool,uint256[],address,string)": "infinite",
						"encodeWithSignatureSchool()": "infinite",
						"testABIDecode(bytes)": "infinite",
						"tokenURI(uint256)": "infinite"
					}
				},
				"methodIdentifiers": {
					"AppWorks(bool,uint256[],address,string)": "ae53a4a5",
					"encode()": "bd14598f",
					"encodeAddress()": "cf57b6eb",
					"encodeAppworks()": "733e2f06",
					"encodeCall(address,uint256)": "25adff1c",
					"encodeFunSelector(string)": "6458817c",
					"encodeOne()": "c1ed13ef",
					"encodePackedAppworks()": "44d1587c",
					"encodePackedAppworksV2()": "7faec262",
					"encodeWithSelector(address,uint256)": "5fc6ac0e",
					"encodeWithSignature(address,uint256)": "7e3b06fb",
					"encodeWithSignatureAppWorks(bool,uint256[],address,string)": "4e10efba",
					"encodeWithSignatureSchool()": "d264610d",
					"testABIDecode(bytes)": "065fdac2",
					"tokenURI(uint256)": "c87b56dd"
				}
			},
			"storageLayout": {
				"storage": [],
				"types": null
			},
			"userdoc": {
				"kind": "user",
				"methods": {},
				"version": 1
			}
		}
	}
}