{
	"week4/Slotv2.sol": {
		"TestSlot": {
			"abi": [
				{
					"inputs": [],
					"name": "b12",
					"outputs": [
						{
							"internalType": "bytes12",
							"name": "",
							"type": "bytes12"
						}
					],
					"stateMutability": "view",
					"type": "function"
				},
				{
					"inputs": [],
					"name": "b32",
					"outputs": [
						{
							"internalType": "bytes32",
							"name": "",
							"type": "bytes32"
						}
					],
					"stateMutability": "view",
					"type": "function"
				}
			],
			"devdoc": {
				"kind": "dev",
				"methods": {},
				"version": 1
			},
			"evm": {
				"assembly": "    /* \"week4/Slotv2.sol\":56:161  contract TestSlot {... */\n  mstore(0x40, 0x80)\n    /* \"week4/Slotv2.sol\":102:116  bytes12(\"0x0\") */\n  0x3078300000000000000000000000000000000000000000000000000000000000\n    /* \"week4/Slotv2.sol\":81:116  bytes12 public b12 = bytes12(\"0x0\") */\n  0x00\n  dup1\n  0x0100\n  exp\n  dup2\n  sload\n  dup2\n  0xffffffffffffffffffffffff\n  mul\n  not\n  and\n  swap1\n  dup4\n  0xa0\n  shr\n  mul\n  or\n  swap1\n  sstore\n  pop\n    /* \"week4/Slotv2.sol\":144:157  bytes32(\"0x\") */\n  0x3078000000000000000000000000000000000000000000000000000000000000\n    /* \"week4/Slotv2.sol\":123:157  bytes32 public b32 = bytes32(\"0x\") */\n  0x01\n  sstore\n    /* \"week4/Slotv2.sol\":56:161  contract TestSlot {... */\n  callvalue\n  dup1\n  iszero\n  tag_1\n  jumpi\n  0x00\n  dup1\n  revert\ntag_1:\n  pop\n  dataSize(sub_0)\n  dup1\n  dataOffset(sub_0)\n  0x00\n  codecopy\n  0x00\n  return\nstop\n\nsub_0: assembly {\n        /* \"week4/Slotv2.sol\":56:161  contract TestSlot {... */\n      mstore(0x40, 0x80)\n      callvalue\n      dup1\n      iszero\n      tag_1\n      jumpi\n      0x00\n      dup1\n      revert\n    tag_1:\n      pop\n      jumpi(tag_2, lt(calldatasize, 0x04))\n      shr(0xe0, calldataload(0x00))\n      dup1\n      0x7d111c07\n      eq\n      tag_3\n      jumpi\n      dup1\n      0xf8aab238\n      eq\n      tag_4\n      jumpi\n    tag_2:\n      0x00\n      dup1\n      revert\n        /* \"week4/Slotv2.sol\":81:116  bytes12 public b12 = bytes12(\"0x0\") */\n    tag_3:\n      tag_5\n      tag_6\n      jump\t// in\n    tag_5:\n      mload(0x40)\n      tag_7\n      swap2\n      swap1\n      tag_8\n      jump\t// in\n    tag_7:\n      mload(0x40)\n      dup1\n      swap2\n      sub\n      swap1\n      return\n        /* \"week4/Slotv2.sol\":123:157  bytes32 public b32 = bytes32(\"0x\") */\n    tag_4:\n      tag_9\n      tag_10\n      jump\t// in\n    tag_9:\n      mload(0x40)\n      tag_11\n      swap2\n      swap1\n      tag_12\n      jump\t// in\n    tag_11:\n      mload(0x40)\n      dup1\n      swap2\n      sub\n      swap1\n      return\n        /* \"week4/Slotv2.sol\":81:116  bytes12 public b12 = bytes12(\"0x0\") */\n    tag_6:\n      0x00\n      dup1\n      sload\n      swap1\n      0x0100\n      exp\n      swap1\n      div\n      0xa0\n      shl\n      dup2\n      jump\t// out\n        /* \"week4/Slotv2.sol\":123:157  bytes32 public b32 = bytes32(\"0x\") */\n    tag_10:\n      sload(0x01)\n      dup2\n      jump\t// out\n        /* \"#utility.yul\":7:157   */\n    tag_13:\n        /* \"#utility.yul\":44:51   */\n      0x00\n        /* \"#utility.yul\":84:150   */\n      0xffffffffffffffffffffffff0000000000000000000000000000000000000000\n        /* \"#utility.yul\":77:82   */\n      dup3\n        /* \"#utility.yul\":73:151   */\n      and\n        /* \"#utility.yul\":62:151   */\n      swap1\n      pop\n        /* \"#utility.yul\":7:157   */\n      swap2\n      swap1\n      pop\n      jump\t// out\n        /* \"#utility.yul\":163:281   */\n    tag_14:\n        /* \"#utility.yul\":250:274   */\n      tag_20\n        /* \"#utility.yul\":268:273   */\n      dup2\n        /* \"#utility.yul\":250:274   */\n      tag_13\n      jump\t// in\n    tag_20:\n        /* \"#utility.yul\":245:248   */\n      dup3\n        /* \"#utility.yul\":238:275   */\n      mstore\n        /* \"#utility.yul\":163:281   */\n      pop\n      pop\n      jump\t// out\n        /* \"#utility.yul\":287:509   */\n    tag_8:\n        /* \"#utility.yul\":380:384   */\n      0x00\n        /* \"#utility.yul\":418:420   */\n      0x20\n        /* \"#utility.yul\":407:416   */\n      dup3\n        /* \"#utility.yul\":403:421   */\n      add\n        /* \"#utility.yul\":395:421   */\n      swap1\n      pop\n        /* \"#utility.yul\":431:502   */\n      tag_22\n        /* \"#utility.yul\":499:500   */\n      0x00\n        /* \"#utility.yul\":488:497   */\n      dup4\n        /* \"#utility.yul\":484:501   */\n      add\n        /* \"#utility.yul\":475:481   */\n      dup5\n        /* \"#utility.yul\":431:502   */\n      tag_14\n      jump\t// in\n    tag_22:\n        /* \"#utility.yul\":287:509   */\n      swap3\n      swap2\n      pop\n      pop\n      jump\t// out\n        /* \"#utility.yul\":515:592   */\n    tag_15:\n        /* \"#utility.yul\":552:559   */\n      0x00\n        /* \"#utility.yul\":581:586   */\n      dup2\n        /* \"#utility.yul\":570:586   */\n      swap1\n      pop\n        /* \"#utility.yul\":515:592   */\n      swap2\n      swap1\n      pop\n      jump\t// out\n        /* \"#utility.yul\":598:716   */\n    tag_16:\n        /* \"#utility.yul\":685:709   */\n      tag_25\n        /* \"#utility.yul\":703:708   */\n      dup2\n        /* \"#utility.yul\":685:709   */\n      tag_15\n      jump\t// in\n    tag_25:\n        /* \"#utility.yul\":680:683   */\n      dup3\n        /* \"#utility.yul\":673:710   */\n      mstore\n        /* \"#utility.yul\":598:716   */\n      pop\n      pop\n      jump\t// out\n        /* \"#utility.yul\":722:944   */\n    tag_12:\n        /* \"#utility.yul\":815:819   */\n      0x00\n        /* \"#utility.yul\":853:855   */\n      0x20\n        /* \"#utility.yul\":842:851   */\n      dup3\n        /* \"#utility.yul\":838:856   */\n      add\n        /* \"#utility.yul\":830:856   */\n      swap1\n      pop\n        /* \"#utility.yul\":866:937   */\n      tag_27\n        /* \"#utility.yul\":934:935   */\n      0x00\n        /* \"#utility.yul\":923:932   */\n      dup4\n        /* \"#utility.yul\":919:936   */\n      add\n        /* \"#utility.yul\":910:916   */\n      dup5\n        /* \"#utility.yul\":866:937   */\n      tag_16\n      jump\t// in\n    tag_27:\n        /* \"#utility.yul\":722:944   */\n      swap3\n      swap2\n      pop\n      pop\n      jump\t// out\n\n    auxdata: 0xa26469706673582212203d6f31e2217766ca8a9c7718382bd7e4ad615beaa0c228ac0e9edfa38e67105064736f6c63430008150033\n}\n",
				"bytecode": {
					"linkReferences": {},
					"object": "60806040527f30783000000000000000000000000000000000000000000000000000000000005f806101000a8154816bffffffffffffffffffffffff021916908360a01c02179055507f3078000000000000000000000000000000000000000000000000000000000000600155348015610077575f80fd5b50610144806100855f395ff3fe608060405234801561000f575f80fd5b5060043610610034575f3560e01c80637d111c0714610038578063f8aab23814610056575b5f80fd5b610040610074565b60405161004d91906100c4565b60405180910390f35b61005e610084565b60405161006b91906100f5565b60405180910390f35b5f8054906101000a900460a01b81565b60015481565b5f7fffffffffffffffffffffffff000000000000000000000000000000000000000082169050919050565b6100be8161008a565b82525050565b5f6020820190506100d75f8301846100b5565b92915050565b5f819050919050565b6100ef816100dd565b82525050565b5f6020820190506101085f8301846100e6565b9291505056fea26469706673582212203d6f31e2217766ca8a9c7718382bd7e4ad615beaa0c228ac0e9edfa38e67105064736f6c63430008150033",
					"opcodes": "PUSH1 0x80 PUSH1 0x40 MSTORE PUSH32 0x3078300000000000000000000000000000000000000000000000000000000000 PUSH0 DUP1 PUSH2 0x100 EXP DUP2 SLOAD DUP2 PUSH12 0xFFFFFFFFFFFFFFFFFFFFFFFF MUL NOT AND SWAP1 DUP4 PUSH1 0xA0 SHR MUL OR SWAP1 SSTORE POP PUSH32 0x3078000000000000000000000000000000000000000000000000000000000000 PUSH1 0x1 SSTORE CALLVALUE DUP1 ISZERO PUSH2 0x77 JUMPI PUSH0 DUP1 REVERT JUMPDEST POP PUSH2 0x144 DUP1 PUSH2 0x85 PUSH0 CODECOPY PUSH0 RETURN INVALID PUSH1 0x80 PUSH1 0x40 MSTORE CALLVALUE DUP1 ISZERO PUSH2 0xF JUMPI PUSH0 DUP1 REVERT JUMPDEST POP PUSH1 0x4 CALLDATASIZE LT PUSH2 0x34 JUMPI PUSH0 CALLDATALOAD PUSH1 0xE0 SHR DUP1 PUSH4 0x7D111C07 EQ PUSH2 0x38 JUMPI DUP1 PUSH4 0xF8AAB238 EQ PUSH2 0x56 JUMPI JUMPDEST PUSH0 DUP1 REVERT JUMPDEST PUSH2 0x40 PUSH2 0x74 JUMP JUMPDEST PUSH1 0x40 MLOAD PUSH2 0x4D SWAP2 SWAP1 PUSH2 0xC4 JUMP JUMPDEST PUSH1 0x40 MLOAD DUP1 SWAP2 SUB SWAP1 RETURN JUMPDEST PUSH2 0x5E PUSH2 0x84 JUMP JUMPDEST PUSH1 0x40 MLOAD PUSH2 0x6B SWAP2 SWAP1 PUSH2 0xF5 JUMP JUMPDEST PUSH1 0x40 MLOAD DUP1 SWAP2 SUB SWAP1 RETURN JUMPDEST PUSH0 DUP1 SLOAD SWAP1 PUSH2 0x100 EXP SWAP1 DIV PUSH1 0xA0 SHL DUP2 JUMP JUMPDEST PUSH1 0x1 SLOAD DUP2 JUMP JUMPDEST PUSH0 PUSH32 0xFFFFFFFFFFFFFFFFFFFFFFFF0000000000000000000000000000000000000000 DUP3 AND SWAP1 POP SWAP2 SWAP1 POP JUMP JUMPDEST PUSH2 0xBE DUP2 PUSH2 0x8A JUMP JUMPDEST DUP3 MSTORE POP POP JUMP JUMPDEST PUSH0 PUSH1 0x20 DUP3 ADD SWAP1 POP PUSH2 0xD7 PUSH0 DUP4 ADD DUP5 PUSH2 0xB5 JUMP JUMPDEST SWAP3 SWAP2 POP POP JUMP JUMPDEST PUSH0 DUP2 SWAP1 POP SWAP2 SWAP1 POP JUMP JUMPDEST PUSH2 0xEF DUP2 PUSH2 0xDD JUMP JUMPDEST DUP3 MSTORE POP POP JUMP JUMPDEST PUSH0 PUSH1 0x20 DUP3 ADD SWAP1 POP PUSH2 0x108 PUSH0 DUP4 ADD DUP5 PUSH2 0xE6 JUMP JUMPDEST SWAP3 SWAP2 POP POP JUMP INVALID LOG2 PUSH5 0x6970667358 0x22 SLT KECCAK256 RETURNDATASIZE PUSH16 0x31E2217766CA8A9C7718382BD7E4AD61 JUMPDEST 0xEA LOG0 0xC2 0x28 0xAC 0xE SWAP15 0xDF LOG3 DUP15 PUSH8 0x105064736F6C6343 STOP ADDMOD ISZERO STOP CALLER "
				},
				"gasEstimates": {
					"creation": {
						"codeDepositCost": "64800",
						"executionCost": "46487",
						"totalCost": "111287"
					},
					"external": {
						"b12()": "2441",
						"b32()": "2425"
					}
				},
				"methodIdentifiers": {
					"b12()": "7d111c07",
					"b32()": "f8aab238"
				}
			},
			"storageLayout": {
				"storage": [
					{
						"astId": 7,
						"contract": "week4/Slotv2.sol:TestSlot",
						"label": "b12",
						"offset": 0,
						"slot": "0",
						"type": "t_bytes12"
					},
					{
						"astId": 13,
						"contract": "week4/Slotv2.sol:TestSlot",
						"label": "b32",
						"offset": 0,
						"slot": "1",
						"type": "t_bytes32"
					}
				],
				"types": {
					"t_bytes12": {
						"encoding": "inplace",
						"label": "bytes12",
						"numberOfBytes": "12"
					},
					"t_bytes32": {
						"encoding": "inplace",
						"label": "bytes32",
						"numberOfBytes": "32"
					}
				}
			},
			"userdoc": {
				"kind": "user",
				"methods": {},
				"version": 1
			}
		}
	}
}