{
	"week3/Bank.sol": {
		"Bank": {
			"abi": [
				{
					"inputs": [
						{
							"internalType": "address",
							"name": "",
							"type": "address"
						}
					],
					"name": "balanceOf",
					"outputs": [
						{
							"internalType": "uint256",
							"name": "",
							"type": "uint256"
						}
					],
					"stateMutability": "view",
					"type": "function"
				},
				{
					"inputs": [],
					"name": "deposit",
					"outputs": [
						{
							"internalType": "uint256",
							"name": "amount",
							"type": "uint256"
						}
					],
					"stateMutability": "payable",
					"type": "function"
				},
				{
					"inputs": [
						{
							"internalType": "uint256",
							"name": "getValue",
							"type": "uint256"
						}
					],
					"name": "withdraw",
					"outputs": [],
					"stateMutability": "nonpayable",
					"type": "function"
				}
			],
			"devdoc": {
				"kind": "dev",
				"methods": {},
				"version": 1
			},
			"evm": {
				"assembly": "    /* \"week3/Bank.sol\":56:1212  contract Bank{... */\n  mstore(0x40, 0x80)\n  callvalue\n  dup1\n  iszero\n  tag_1\n  jumpi\n  0x00\n  dup1\n  revert\ntag_1:\n  pop\n  dataSize(sub_0)\n  dup1\n  dataOffset(sub_0)\n  0x00\n  codecopy\n  0x00\n  return\nstop\n\nsub_0: assembly {\n        /* \"week3/Bank.sol\":56:1212  contract Bank{... */\n      mstore(0x40, 0x80)\n      jumpi(tag_1, lt(calldatasize, 0x04))\n      shr(0xe0, calldataload(0x00))\n      dup1\n      0x2e1a7d4d\n      eq\n      tag_2\n      jumpi\n      dup1\n      0x70a08231\n      eq\n      tag_3\n      jumpi\n      dup1\n      0xd0e30db0\n      eq\n      tag_4\n      jumpi\n    tag_1:\n      0x00\n      dup1\n      revert\n        /* \"week3/Bank.sol\":1047:1210  function withdraw(uint getValue) external checkWithdraw(getValue){... */\n    tag_2:\n      callvalue\n      dup1\n      iszero\n      tag_5\n      jumpi\n      0x00\n      dup1\n      revert\n    tag_5:\n      pop\n      tag_6\n      0x04\n      dup1\n      calldatasize\n      sub\n      dup2\n      add\n      swap1\n      tag_7\n      swap2\n      swap1\n      tag_8\n      jump\t// in\n    tag_7:\n      tag_9\n      jump\t// in\n    tag_6:\n      stop\n        /* \"week3/Bank.sol\":466:507  mapping(address => uint) public balanceOf */\n    tag_3:\n      callvalue\n      dup1\n      iszero\n      tag_10\n      jumpi\n      0x00\n      dup1\n      revert\n    tag_10:\n      pop\n      tag_11\n      0x04\n      dup1\n      calldatasize\n      sub\n      dup2\n      add\n      swap1\n      tag_12\n      swap2\n      swap1\n      tag_13\n      jump\t// in\n    tag_12:\n      tag_14\n      jump\t// in\n    tag_11:\n      mload(0x40)\n      tag_15\n      swap2\n      swap1\n      tag_16\n      jump\t// in\n    tag_15:\n      mload(0x40)\n      dup1\n      swap2\n      sub\n      swap1\n      return\n        /* \"week3/Bank.sol\":881:1041  function deposit() checkDeposit external payable returns(uint amount){... */\n    tag_4:\n      tag_17\n      tag_18\n      jump\t// in\n    tag_17:\n      mload(0x40)\n      tag_19\n      swap2\n      swap1\n      tag_16\n      jump\t// in\n    tag_19:\n      mload(0x40)\n      dup1\n      swap2\n      sub\n      swap1\n      return\n        /* \"week3/Bank.sol\":1047:1210  function withdraw(uint getValue) external checkWithdraw(getValue){... */\n    tag_9:\n        /* \"week3/Bank.sol\":1103:1111  getValue */\n      dup1\n        /* \"week3/Bank.sol\":702:710  getValue */\n      dup1\n        /* \"week3/Bank.sol\":677:698  address(this).balance */\n      selfbalance\n        /* \"week3/Bank.sol\":677:710  address(this).balance >= getValue */\n      lt\n      iszero\n        /* \"week3/Bank.sol\":669:728  require(address(this).balance >= getValue,\"bank is empty.\") */\n      tag_21\n      jumpi\n      mload(0x40)\n      0x08c379a000000000000000000000000000000000000000000000000000000000\n      dup2\n      mstore\n      0x04\n      add\n      tag_22\n      swap1\n      tag_23\n      jump\t// in\n    tag_22:\n      mload(0x40)\n      dup1\n      swap2\n      sub\n      swap1\n      revert\n    tag_21:\n        /* \"week3/Bank.sol\":771:779  getValue */\n      dup1\n        /* \"week3/Bank.sol\":746:755  balanceOf */\n      0x00\n        /* \"week3/Bank.sol\":746:767  balanceOf[msg.sender] */\n      dup1\n        /* \"week3/Bank.sol\":756:766  msg.sender */\n      caller\n        /* \"week3/Bank.sol\":746:767  balanceOf[msg.sender] */\n      0xffffffffffffffffffffffffffffffffffffffff\n      and\n      0xffffffffffffffffffffffffffffffffffffffff\n      and\n      dup2\n      mstore\n      0x20\n      add\n      swap1\n      dup2\n      mstore\n      0x20\n      add\n      0x00\n      keccak256\n      sload\n        /* \"week3/Bank.sol\":746:779  balanceOf[msg.sender] >= getValue */\n      lt\n      iszero\n        /* \"week3/Bank.sol\":738:806  require(balanceOf[msg.sender] >= getValue,\"you can't get too more.\") */\n      tag_24\n      jumpi\n      mload(0x40)\n      0x08c379a000000000000000000000000000000000000000000000000000000000\n      dup2\n      mstore\n      0x04\n      add\n      tag_25\n      swap1\n      tag_26\n      jump\t// in\n    tag_25:\n      mload(0x40)\n      dup1\n      swap2\n      sub\n      swap1\n      revert\n    tag_24:\n        /* \"week3/Bank.sol\":1147:1155  getValue */\n      dup2\n        /* \"week3/Bank.sol\":1122:1131  balanceOf */\n      0x00\n        /* \"week3/Bank.sol\":1122:1143  balanceOf[msg.sender] */\n      dup1\n        /* \"week3/Bank.sol\":1132:1142  msg.sender */\n      caller\n        /* \"week3/Bank.sol\":1122:1143  balanceOf[msg.sender] */\n      0xffffffffffffffffffffffffffffffffffffffff\n      and\n      0xffffffffffffffffffffffffffffffffffffffff\n      and\n      dup2\n      mstore\n      0x20\n      add\n      swap1\n      dup2\n      mstore\n      0x20\n      add\n      0x00\n      keccak256\n      0x00\n        /* \"week3/Bank.sol\":1122:1155  balanceOf[msg.sender] -= getValue */\n      dup3\n      dup3\n      sload\n      tag_28\n      swap2\n      swap1\n      tag_29\n      jump\t// in\n    tag_28:\n      swap3\n      pop\n      pop\n      dup2\n      swap1\n      sstore\n      pop\n        /* \"week3/Bank.sol\":1173:1183  msg.sender */\n      caller\n        /* \"week3/Bank.sol\":1165:1193  payable(msg.sender).transfer */\n      0xffffffffffffffffffffffffffffffffffffffff\n      and\n        /* \"week3/Bank.sol\":1165:1203  payable(msg.sender).transfer(getValue) */\n      0x08fc\n        /* \"week3/Bank.sol\":1194:1202  getValue */\n      dup4\n        /* \"week3/Bank.sol\":1165:1203  payable(msg.sender).transfer(getValue) */\n      swap1\n      dup2\n      iszero\n      mul\n      swap1\n      mload(0x40)\n      0x00\n      mload(0x40)\n      dup1\n      dup4\n      sub\n      dup2\n      dup6\n      dup9\n      dup9\n      call\n      swap4\n      pop\n      pop\n      pop\n      pop\n      iszero\n      dup1\n      iszero\n      tag_31\n      jumpi\n      returndatasize\n      0x00\n      dup1\n      returndatacopy\n      revert(0x00, returndatasize)\n    tag_31:\n      pop\n        /* \"week3/Bank.sol\":1047:1210  function withdraw(uint getValue) external checkWithdraw(getValue){... */\n      pop\n      pop\n      jump\t// out\n        /* \"week3/Bank.sol\":466:507  mapping(address => uint) public balanceOf */\n    tag_14:\n      mstore(0x20, 0x00)\n      dup1\n      0x00\n      mstore\n      keccak256(0x00, 0x40)\n      0x00\n      swap2\n      pop\n      swap1\n      pop\n      sload\n      dup2\n      jump\t// out\n        /* \"week3/Bank.sol\":881:1041  function deposit() checkDeposit external payable returns(uint amount){... */\n    tag_18:\n        /* \"week3/Bank.sol\":938:949  uint amount */\n      0x00\n        /* \"week3/Bank.sol\":567:568  0 */\n      dup1\n        /* \"week3/Bank.sol\":555:564  msg.value */\n      callvalue\n        /* \"week3/Bank.sol\":555:568  msg.value > 0 */\n      gt\n        /* \"week3/Bank.sol\":547:598  require(msg.value > 0,\"deposit must be than zero.\") */\n      tag_33\n      jumpi\n      mload(0x40)\n      0x08c379a000000000000000000000000000000000000000000000000000000000\n      dup2\n      mstore\n      0x04\n      add\n      tag_34\n      swap1\n      tag_35\n      jump\t// in\n    tag_34:\n      mload(0x40)\n      dup1\n      swap2\n      sub\n      swap1\n      revert\n    tag_33:\n        /* \"week3/Bank.sol\":985:994  msg.value */\n      callvalue\n        /* \"week3/Bank.sol\":960:969  balanceOf */\n      0x00\n        /* \"week3/Bank.sol\":960:981  balanceOf[msg.sender] */\n      dup1\n        /* \"week3/Bank.sol\":970:980  msg.sender */\n      caller\n        /* \"week3/Bank.sol\":960:981  balanceOf[msg.sender] */\n      0xffffffffffffffffffffffffffffffffffffffff\n      and\n      0xffffffffffffffffffffffffffffffffffffffff\n      and\n      dup2\n      mstore\n      0x20\n      add\n      swap1\n      dup2\n      mstore\n      0x20\n      add\n      0x00\n      keccak256\n      0x00\n        /* \"week3/Bank.sol\":960:994  balanceOf[msg.sender] += msg.value */\n      dup3\n      dup3\n      sload\n      tag_37\n      swap2\n      swap1\n      tag_38\n      jump\t// in\n    tag_37:\n      swap3\n      pop\n      pop\n      dup2\n      swap1\n      sstore\n      pop\n        /* \"week3/Bank.sol\":1013:1022  balanceOf */\n      0x00\n        /* \"week3/Bank.sol\":1013:1034  balanceOf[msg.sender] */\n      dup1\n        /* \"week3/Bank.sol\":1023:1033  msg.sender */\n      caller\n        /* \"week3/Bank.sol\":1013:1034  balanceOf[msg.sender] */\n      0xffffffffffffffffffffffffffffffffffffffff\n      and\n      0xffffffffffffffffffffffffffffffffffffffff\n      and\n      dup2\n      mstore\n      0x20\n      add\n      swap1\n      dup2\n      mstore\n      0x20\n      add\n      0x00\n      keccak256\n      sload\n        /* \"week3/Bank.sol\":1004:1034  amount = balanceOf[msg.sender] */\n      swap1\n      pop\n        /* \"week3/Bank.sol\":881:1041  function deposit() checkDeposit external payable returns(uint amount){... */\n      swap1\n      jump\t// out\n        /* \"#utility.yul\":88:205   */\n    tag_40:\n        /* \"#utility.yul\":197:198   */\n      0x00\n        /* \"#utility.yul\":194:195   */\n      dup1\n        /* \"#utility.yul\":187:199   */\n      revert\n        /* \"#utility.yul\":334:411   */\n    tag_42:\n        /* \"#utility.yul\":371:378   */\n      0x00\n        /* \"#utility.yul\":400:405   */\n      dup2\n        /* \"#utility.yul\":389:405   */\n      swap1\n      pop\n        /* \"#utility.yul\":334:411   */\n      swap2\n      swap1\n      pop\n      jump\t// out\n        /* \"#utility.yul\":417:539   */\n    tag_43:\n        /* \"#utility.yul\":490:514   */\n      tag_64\n        /* \"#utility.yul\":508:513   */\n      dup2\n        /* \"#utility.yul\":490:514   */\n      tag_42\n      jump\t// in\n    tag_64:\n        /* \"#utility.yul\":483:488   */\n      dup2\n        /* \"#utility.yul\":480:515   */\n      eq\n        /* \"#utility.yul\":470:533   */\n      tag_65\n      jumpi\n        /* \"#utility.yul\":529:530   */\n      0x00\n        /* \"#utility.yul\":526:527   */\n      dup1\n        /* \"#utility.yul\":519:531   */\n      revert\n        /* \"#utility.yul\":470:533   */\n    tag_65:\n        /* \"#utility.yul\":417:539   */\n      pop\n      jump\t// out\n        /* \"#utility.yul\":545:684   */\n    tag_44:\n        /* \"#utility.yul\":591:596   */\n      0x00\n        /* \"#utility.yul\":629:635   */\n      dup2\n        /* \"#utility.yul\":616:636   */\n      calldataload\n        /* \"#utility.yul\":607:636   */\n      swap1\n      pop\n        /* \"#utility.yul\":645:678   */\n      tag_67\n        /* \"#utility.yul\":672:677   */\n      dup2\n        /* \"#utility.yul\":645:678   */\n      tag_43\n      jump\t// in\n    tag_67:\n        /* \"#utility.yul\":545:684   */\n      swap3\n      swap2\n      pop\n      pop\n      jump\t// out\n        /* \"#utility.yul\":690:1019   */\n    tag_8:\n        /* \"#utility.yul\":749:755   */\n      0x00\n        /* \"#utility.yul\":798:800   */\n      0x20\n        /* \"#utility.yul\":786:795   */\n      dup3\n        /* \"#utility.yul\":777:784   */\n      dup5\n        /* \"#utility.yul\":773:796   */\n      sub\n        /* \"#utility.yul\":769:801   */\n      slt\n        /* \"#utility.yul\":766:885   */\n      iszero\n      tag_69\n      jumpi\n        /* \"#utility.yul\":804:883   */\n      tag_70\n      tag_40\n      jump\t// in\n    tag_70:\n        /* \"#utility.yul\":766:885   */\n    tag_69:\n        /* \"#utility.yul\":924:925   */\n      0x00\n        /* \"#utility.yul\":949:1002   */\n      tag_71\n        /* \"#utility.yul\":994:1001   */\n      dup5\n        /* \"#utility.yul\":985:991   */\n      dup3\n        /* \"#utility.yul\":974:983   */\n      dup6\n        /* \"#utility.yul\":970:992   */\n      add\n        /* \"#utility.yul\":949:1002   */\n      tag_44\n      jump\t// in\n    tag_71:\n        /* \"#utility.yul\":939:1002   */\n      swap2\n      pop\n        /* \"#utility.yul\":895:1012   */\n      pop\n        /* \"#utility.yul\":690:1019   */\n      swap3\n      swap2\n      pop\n      pop\n      jump\t// out\n        /* \"#utility.yul\":1025:1151   */\n    tag_45:\n        /* \"#utility.yul\":1062:1069   */\n      0x00\n        /* \"#utility.yul\":1102:1144   */\n      0xffffffffffffffffffffffffffffffffffffffff\n        /* \"#utility.yul\":1095:1100   */\n      dup3\n        /* \"#utility.yul\":1091:1145   */\n      and\n        /* \"#utility.yul\":1080:1145   */\n      swap1\n      pop\n        /* \"#utility.yul\":1025:1151   */\n      swap2\n      swap1\n      pop\n      jump\t// out\n        /* \"#utility.yul\":1157:1253   */\n    tag_46:\n        /* \"#utility.yul\":1194:1201   */\n      0x00\n        /* \"#utility.yul\":1223:1247   */\n      tag_74\n        /* \"#utility.yul\":1241:1246   */\n      dup3\n        /* \"#utility.yul\":1223:1247   */\n      tag_45\n      jump\t// in\n    tag_74:\n        /* \"#utility.yul\":1212:1247   */\n      swap1\n      pop\n        /* \"#utility.yul\":1157:1253   */\n      swap2\n      swap1\n      pop\n      jump\t// out\n        /* \"#utility.yul\":1259:1381   */\n    tag_47:\n        /* \"#utility.yul\":1332:1356   */\n      tag_76\n        /* \"#utility.yul\":1350:1355   */\n      dup2\n        /* \"#utility.yul\":1332:1356   */\n      tag_46\n      jump\t// in\n    tag_76:\n        /* \"#utility.yul\":1325:1330   */\n      dup2\n        /* \"#utility.yul\":1322:1357   */\n      eq\n        /* \"#utility.yul\":1312:1375   */\n      tag_77\n      jumpi\n        /* \"#utility.yul\":1371:1372   */\n      0x00\n        /* \"#utility.yul\":1368:1369   */\n      dup1\n        /* \"#utility.yul\":1361:1373   */\n      revert\n        /* \"#utility.yul\":1312:1375   */\n    tag_77:\n        /* \"#utility.yul\":1259:1381   */\n      pop\n      jump\t// out\n        /* \"#utility.yul\":1387:1526   */\n    tag_48:\n        /* \"#utility.yul\":1433:1438   */\n      0x00\n        /* \"#utility.yul\":1471:1477   */\n      dup2\n        /* \"#utility.yul\":1458:1478   */\n      calldataload\n        /* \"#utility.yul\":1449:1478   */\n      swap1\n      pop\n        /* \"#utility.yul\":1487:1520   */\n      tag_79\n        /* \"#utility.yul\":1514:1519   */\n      dup2\n        /* \"#utility.yul\":1487:1520   */\n      tag_47\n      jump\t// in\n    tag_79:\n        /* \"#utility.yul\":1387:1526   */\n      swap3\n      swap2\n      pop\n      pop\n      jump\t// out\n        /* \"#utility.yul\":1532:1861   */\n    tag_13:\n        /* \"#utility.yul\":1591:1597   */\n      0x00\n        /* \"#utility.yul\":1640:1642   */\n      0x20\n        /* \"#utility.yul\":1628:1637   */\n      dup3\n        /* \"#utility.yul\":1619:1626   */\n      dup5\n        /* \"#utility.yul\":1615:1638   */\n      sub\n        /* \"#utility.yul\":1611:1643   */\n      slt\n        /* \"#utility.yul\":1608:1727   */\n      iszero\n      tag_81\n      jumpi\n        /* \"#utility.yul\":1646:1725   */\n      tag_82\n      tag_40\n      jump\t// in\n    tag_82:\n        /* \"#utility.yul\":1608:1727   */\n    tag_81:\n        /* \"#utility.yul\":1766:1767   */\n      0x00\n        /* \"#utility.yul\":1791:1844   */\n      tag_83\n        /* \"#utility.yul\":1836:1843   */\n      dup5\n        /* \"#utility.yul\":1827:1833   */\n      dup3\n        /* \"#utility.yul\":1816:1825   */\n      dup6\n        /* \"#utility.yul\":1812:1834   */\n      add\n        /* \"#utility.yul\":1791:1844   */\n      tag_48\n      jump\t// in\n    tag_83:\n        /* \"#utility.yul\":1781:1844   */\n      swap2\n      pop\n        /* \"#utility.yul\":1737:1854   */\n      pop\n        /* \"#utility.yul\":1532:1861   */\n      swap3\n      swap2\n      pop\n      pop\n      jump\t// out\n        /* \"#utility.yul\":1867:1985   */\n    tag_49:\n        /* \"#utility.yul\":1954:1978   */\n      tag_85\n        /* \"#utility.yul\":1972:1977   */\n      dup2\n        /* \"#utility.yul\":1954:1978   */\n      tag_42\n      jump\t// in\n    tag_85:\n        /* \"#utility.yul\":1949:1952   */\n      dup3\n        /* \"#utility.yul\":1942:1979   */\n      mstore\n        /* \"#utility.yul\":1867:1985   */\n      pop\n      pop\n      jump\t// out\n        /* \"#utility.yul\":1991:2213   */\n    tag_16:\n        /* \"#utility.yul\":2084:2088   */\n      0x00\n        /* \"#utility.yul\":2122:2124   */\n      0x20\n        /* \"#utility.yul\":2111:2120   */\n      dup3\n        /* \"#utility.yul\":2107:2125   */\n      add\n        /* \"#utility.yul\":2099:2125   */\n      swap1\n      pop\n        /* \"#utility.yul\":2135:2206   */\n      tag_87\n        /* \"#utility.yul\":2203:2204   */\n      0x00\n        /* \"#utility.yul\":2192:2201   */\n      dup4\n        /* \"#utility.yul\":2188:2205   */\n      add\n        /* \"#utility.yul\":2179:2185   */\n      dup5\n        /* \"#utility.yul\":2135:2206   */\n      tag_49\n      jump\t// in\n    tag_87:\n        /* \"#utility.yul\":1991:2213   */\n      swap3\n      swap2\n      pop\n      pop\n      jump\t// out\n        /* \"#utility.yul\":2219:2388   */\n    tag_50:\n        /* \"#utility.yul\":2303:2314   */\n      0x00\n        /* \"#utility.yul\":2337:2343   */\n      dup3\n        /* \"#utility.yul\":2332:2335   */\n      dup3\n        /* \"#utility.yul\":2325:2344   */\n      mstore\n        /* \"#utility.yul\":2377:2381   */\n      0x20\n        /* \"#utility.yul\":2372:2375   */\n      dup3\n        /* \"#utility.yul\":2368:2382   */\n      add\n        /* \"#utility.yul\":2353:2382   */\n      swap1\n      pop\n        /* \"#utility.yul\":2219:2388   */\n      swap3\n      swap2\n      pop\n      pop\n      jump\t// out\n        /* \"#utility.yul\":2394:2558   */\n    tag_51:\n        /* \"#utility.yul\":2534:2550   */\n      0x62616e6b20697320656d7074792e000000000000000000000000000000000000\n        /* \"#utility.yul\":2530:2531   */\n      0x00\n        /* \"#utility.yul\":2522:2528   */\n      dup3\n        /* \"#utility.yul\":2518:2532   */\n      add\n        /* \"#utility.yul\":2511:2551   */\n      mstore\n        /* \"#utility.yul\":2394:2558   */\n      pop\n      jump\t// out\n        /* \"#utility.yul\":2564:2930   */\n    tag_52:\n        /* \"#utility.yul\":2706:2709   */\n      0x00\n        /* \"#utility.yul\":2727:2794   */\n      tag_91\n        /* \"#utility.yul\":2791:2793   */\n      0x0e\n        /* \"#utility.yul\":2786:2789   */\n      dup4\n        /* \"#utility.yul\":2727:2794   */\n      tag_50\n      jump\t// in\n    tag_91:\n        /* \"#utility.yul\":2720:2794   */\n      swap2\n      pop\n        /* \"#utility.yul\":2803:2896   */\n      tag_92\n        /* \"#utility.yul\":2892:2895   */\n      dup3\n        /* \"#utility.yul\":2803:2896   */\n      tag_51\n      jump\t// in\n    tag_92:\n        /* \"#utility.yul\":2921:2923   */\n      0x20\n        /* \"#utility.yul\":2916:2919   */\n      dup3\n        /* \"#utility.yul\":2912:2924   */\n      add\n        /* \"#utility.yul\":2905:2924   */\n      swap1\n      pop\n        /* \"#utility.yul\":2564:2930   */\n      swap2\n      swap1\n      pop\n      jump\t// out\n        /* \"#utility.yul\":2936:3355   */\n    tag_23:\n        /* \"#utility.yul\":3102:3106   */\n      0x00\n        /* \"#utility.yul\":3140:3142   */\n      0x20\n        /* \"#utility.yul\":3129:3138   */\n      dup3\n        /* \"#utility.yul\":3125:3143   */\n      add\n        /* \"#utility.yul\":3117:3143   */\n      swap1\n      pop\n        /* \"#utility.yul\":3189:3198   */\n      dup2\n        /* \"#utility.yul\":3183:3187   */\n      dup2\n        /* \"#utility.yul\":3179:3199   */\n      sub\n        /* \"#utility.yul\":3175:3176   */\n      0x00\n        /* \"#utility.yul\":3164:3173   */\n      dup4\n        /* \"#utility.yul\":3160:3177   */\n      add\n        /* \"#utility.yul\":3153:3200   */\n      mstore\n        /* \"#utility.yul\":3217:3348   */\n      tag_94\n        /* \"#utility.yul\":3343:3347   */\n      dup2\n        /* \"#utility.yul\":3217:3348   */\n      tag_52\n      jump\t// in\n    tag_94:\n        /* \"#utility.yul\":3209:3348   */\n      swap1\n      pop\n        /* \"#utility.yul\":2936:3355   */\n      swap2\n      swap1\n      pop\n      jump\t// out\n        /* \"#utility.yul\":3361:3534   */\n    tag_53:\n        /* \"#utility.yul\":3501:3526   */\n      0x796f752063616e27742067657420746f6f206d6f72652e000000000000000000\n        /* \"#utility.yul\":3497:3498   */\n      0x00\n        /* \"#utility.yul\":3489:3495   */\n      dup3\n        /* \"#utility.yul\":3485:3499   */\n      add\n        /* \"#utility.yul\":3478:3527   */\n      mstore\n        /* \"#utility.yul\":3361:3534   */\n      pop\n      jump\t// out\n        /* \"#utility.yul\":3540:3906   */\n    tag_54:\n        /* \"#utility.yul\":3682:3685   */\n      0x00\n        /* \"#utility.yul\":3703:3770   */\n      tag_97\n        /* \"#utility.yul\":3767:3769   */\n      0x17\n        /* \"#utility.yul\":3762:3765   */\n      dup4\n        /* \"#utility.yul\":3703:3770   */\n      tag_50\n      jump\t// in\n    tag_97:\n        /* \"#utility.yul\":3696:3770   */\n      swap2\n      pop\n        /* \"#utility.yul\":3779:3872   */\n      tag_98\n        /* \"#utility.yul\":3868:3871   */\n      dup3\n        /* \"#utility.yul\":3779:3872   */\n      tag_53\n      jump\t// in\n    tag_98:\n        /* \"#utility.yul\":3897:3899   */\n      0x20\n        /* \"#utility.yul\":3892:3895   */\n      dup3\n        /* \"#utility.yul\":3888:3900   */\n      add\n        /* \"#utility.yul\":3881:3900   */\n      swap1\n      pop\n        /* \"#utility.yul\":3540:3906   */\n      swap2\n      swap1\n      pop\n      jump\t// out\n        /* \"#utility.yul\":3912:4331   */\n    tag_26:\n        /* \"#utility.yul\":4078:4082   */\n      0x00\n        /* \"#utility.yul\":4116:4118   */\n      0x20\n        /* \"#utility.yul\":4105:4114   */\n      dup3\n        /* \"#utility.yul\":4101:4119   */\n      add\n        /* \"#utility.yul\":4093:4119   */\n      swap1\n      pop\n        /* \"#utility.yul\":4165:4174   */\n      dup2\n        /* \"#utility.yul\":4159:4163   */\n      dup2\n        /* \"#utility.yul\":4155:4175   */\n      sub\n        /* \"#utility.yul\":4151:4152   */\n      0x00\n        /* \"#utility.yul\":4140:4149   */\n      dup4\n        /* \"#utility.yul\":4136:4153   */\n      add\n        /* \"#utility.yul\":4129:4176   */\n      mstore\n        /* \"#utility.yul\":4193:4324   */\n      tag_100\n        /* \"#utility.yul\":4319:4323   */\n      dup2\n        /* \"#utility.yul\":4193:4324   */\n      tag_54\n      jump\t// in\n    tag_100:\n        /* \"#utility.yul\":4185:4324   */\n      swap1\n      pop\n        /* \"#utility.yul\":3912:4331   */\n      swap2\n      swap1\n      pop\n      jump\t// out\n        /* \"#utility.yul\":4337:4517   */\n    tag_55:\n        /* \"#utility.yul\":4385:4462   */\n      0x4e487b7100000000000000000000000000000000000000000000000000000000\n        /* \"#utility.yul\":4382:4383   */\n      0x00\n        /* \"#utility.yul\":4375:4463   */\n      mstore\n        /* \"#utility.yul\":4482:4486   */\n      0x11\n        /* \"#utility.yul\":4479:4480   */\n      0x04\n        /* \"#utility.yul\":4472:4487   */\n      mstore\n        /* \"#utility.yul\":4506:4510   */\n      0x24\n        /* \"#utility.yul\":4503:4504   */\n      0x00\n        /* \"#utility.yul\":4496:4511   */\n      revert\n        /* \"#utility.yul\":4523:4717   */\n    tag_29:\n        /* \"#utility.yul\":4563:4567   */\n      0x00\n        /* \"#utility.yul\":4583:4603   */\n      tag_103\n        /* \"#utility.yul\":4601:4602   */\n      dup3\n        /* \"#utility.yul\":4583:4603   */\n      tag_42\n      jump\t// in\n    tag_103:\n        /* \"#utility.yul\":4578:4603   */\n      swap2\n      pop\n        /* \"#utility.yul\":4617:4637   */\n      tag_104\n        /* \"#utility.yul\":4635:4636   */\n      dup4\n        /* \"#utility.yul\":4617:4637   */\n      tag_42\n      jump\t// in\n    tag_104:\n        /* \"#utility.yul\":4612:4637   */\n      swap3\n      pop\n        /* \"#utility.yul\":4661:4662   */\n      dup3\n        /* \"#utility.yul\":4658:4659   */\n      dup3\n        /* \"#utility.yul\":4654:4663   */\n      sub\n        /* \"#utility.yul\":4646:4663   */\n      swap1\n      pop\n        /* \"#utility.yul\":4685:4686   */\n      dup2\n        /* \"#utility.yul\":4679:4683   */\n      dup2\n        /* \"#utility.yul\":4676:4687   */\n      gt\n        /* \"#utility.yul\":4673:4710   */\n      iszero\n      tag_105\n      jumpi\n        /* \"#utility.yul\":4690:4708   */\n      tag_106\n      tag_55\n      jump\t// in\n    tag_106:\n        /* \"#utility.yul\":4673:4710   */\n    tag_105:\n        /* \"#utility.yul\":4523:4717   */\n      swap3\n      swap2\n      pop\n      pop\n      jump\t// out\n        /* \"#utility.yul\":4723:4899   */\n    tag_56:\n        /* \"#utility.yul\":4863:4891   */\n      0x6465706f736974206d757374206265207468616e207a65726f2e000000000000\n        /* \"#utility.yul\":4859:4860   */\n      0x00\n        /* \"#utility.yul\":4851:4857   */\n      dup3\n        /* \"#utility.yul\":4847:4861   */\n      add\n        /* \"#utility.yul\":4840:4892   */\n      mstore\n        /* \"#utility.yul\":4723:4899   */\n      pop\n      jump\t// out\n        /* \"#utility.yul\":4905:5271   */\n    tag_57:\n        /* \"#utility.yul\":5047:5050   */\n      0x00\n        /* \"#utility.yul\":5068:5135   */\n      tag_109\n        /* \"#utility.yul\":5132:5134   */\n      0x1a\n        /* \"#utility.yul\":5127:5130   */\n      dup4\n        /* \"#utility.yul\":5068:5135   */\n      tag_50\n      jump\t// in\n    tag_109:\n        /* \"#utility.yul\":5061:5135   */\n      swap2\n      pop\n        /* \"#utility.yul\":5144:5237   */\n      tag_110\n        /* \"#utility.yul\":5233:5236   */\n      dup3\n        /* \"#utility.yul\":5144:5237   */\n      tag_56\n      jump\t// in\n    tag_110:\n        /* \"#utility.yul\":5262:5264   */\n      0x20\n        /* \"#utility.yul\":5257:5260   */\n      dup3\n        /* \"#utility.yul\":5253:5265   */\n      add\n        /* \"#utility.yul\":5246:5265   */\n      swap1\n      pop\n        /* \"#utility.yul\":4905:5271   */\n      swap2\n      swap1\n      pop\n      jump\t// out\n        /* \"#utility.yul\":5277:5696   */\n    tag_35:\n        /* \"#utility.yul\":5443:5447   */\n      0x00\n        /* \"#utility.yul\":5481:5483   */\n      0x20\n        /* \"#utility.yul\":5470:5479   */\n      dup3\n        /* \"#utility.yul\":5466:5484   */\n      add\n        /* \"#utility.yul\":5458:5484   */\n      swap1\n      pop\n        /* \"#utility.yul\":5530:5539   */\n      dup2\n        /* \"#utility.yul\":5524:5528   */\n      dup2\n        /* \"#utility.yul\":5520:5540   */\n      sub\n        /* \"#utility.yul\":5516:5517   */\n      0x00\n        /* \"#utility.yul\":5505:5514   */\n      dup4\n        /* \"#utility.yul\":5501:5518   */\n      add\n        /* \"#utility.yul\":5494:5541   */\n      mstore\n        /* \"#utility.yul\":5558:5689   */\n      tag_112\n        /* \"#utility.yul\":5684:5688   */\n      dup2\n        /* \"#utility.yul\":5558:5689   */\n      tag_57\n      jump\t// in\n    tag_112:\n        /* \"#utility.yul\":5550:5689   */\n      swap1\n      pop\n        /* \"#utility.yul\":5277:5696   */\n      swap2\n      swap1\n      pop\n      jump\t// out\n        /* \"#utility.yul\":5702:5893   */\n    tag_38:\n        /* \"#utility.yul\":5742:5745   */\n      0x00\n        /* \"#utility.yul\":5761:5781   */\n      tag_114\n        /* \"#utility.yul\":5779:5780   */\n      dup3\n        /* \"#utility.yul\":5761:5781   */\n      tag_42\n      jump\t// in\n    tag_114:\n        /* \"#utility.yul\":5756:5781   */\n      swap2\n      pop\n        /* \"#utility.yul\":5795:5815   */\n      tag_115\n        /* \"#utility.yul\":5813:5814   */\n      dup4\n        /* \"#utility.yul\":5795:5815   */\n      tag_42\n      jump\t// in\n    tag_115:\n        /* \"#utility.yul\":5790:5815   */\n      swap3\n      pop\n        /* \"#utility.yul\":5838:5839   */\n      dup3\n        /* \"#utility.yul\":5835:5836   */\n      dup3\n        /* \"#utility.yul\":5831:5840   */\n      add\n        /* \"#utility.yul\":5824:5840   */\n      swap1\n      pop\n        /* \"#utility.yul\":5859:5862   */\n      dup1\n        /* \"#utility.yul\":5856:5857   */\n      dup3\n        /* \"#utility.yul\":5853:5863   */\n      gt\n        /* \"#utility.yul\":5850:5886   */\n      iszero\n      tag_116\n      jumpi\n        /* \"#utility.yul\":5866:5884   */\n      tag_117\n      tag_55\n      jump\t// in\n    tag_117:\n        /* \"#utility.yul\":5850:5886   */\n    tag_116:\n        /* \"#utility.yul\":5702:5893   */\n      swap3\n      swap2\n      pop\n      pop\n      jump\t// out\n\n    auxdata: 0xa26469706673582212207cb106fc0fec5714a1533fa5920f295c1fc1d2bc8a47e21fd49e4e719e040c7364736f6c63430008150033\n}\n",
				"bytecode": {
					"linkReferences": {},
					"object": "608060405234801561000f575f80fd5b506106218061001d5f395ff3fe608060405260043610610033575f3560e01c80632e1a7d4d1461003757806370a082311461005f578063d0e30db01461009b575b5f80fd5b348015610042575f80fd5b5061005d60048036038101906100589190610338565b6100b9565b005b34801561006a575f80fd5b50610085600480360381019061008091906103bd565b610216565b60405161009291906103f7565b60405180910390f35b6100a361022a565b6040516100b091906103f7565b60405180910390f35b80804710156100fd576040517f08c379a00000000000000000000000000000000000000000000000000000000081526004016100f49061046a565b60405180910390fd5b805f803373ffffffffffffffffffffffffffffffffffffffff1673ffffffffffffffffffffffffffffffffffffffff1681526020019081526020015f2054101561017c576040517f08c379a0000000000000000000000000000000000000000000000000000000008152600401610173906104d2565b60405180910390fd5b815f803373ffffffffffffffffffffffffffffffffffffffff1673ffffffffffffffffffffffffffffffffffffffff1681526020019081526020015f205f8282546101c7919061051d565b925050819055503373ffffffffffffffffffffffffffffffffffffffff166108fc8390811502906040515f60405180830381858888f19350505050158015610211573d5f803e3d5ffd5b505050565b5f602052805f5260405f205f915090505481565b5f80341161026d576040517f08c379a00000000000000000000000000000000000000000000000000000000081526004016102649061059a565b60405180910390fd5b345f803373ffffffffffffffffffffffffffffffffffffffff1673ffffffffffffffffffffffffffffffffffffffff1681526020019081526020015f205f8282546102b891906105b8565b925050819055505f803373ffffffffffffffffffffffffffffffffffffffff1673ffffffffffffffffffffffffffffffffffffffff1681526020019081526020015f2054905090565b5f80fd5b5f819050919050565b61031781610305565b8114610321575f80fd5b50565b5f813590506103328161030e565b92915050565b5f6020828403121561034d5761034c610301565b5b5f61035a84828501610324565b91505092915050565b5f73ffffffffffffffffffffffffffffffffffffffff82169050919050565b5f61038c82610363565b9050919050565b61039c81610382565b81146103a6575f80fd5b50565b5f813590506103b781610393565b92915050565b5f602082840312156103d2576103d1610301565b5b5f6103df848285016103a9565b91505092915050565b6103f181610305565b82525050565b5f60208201905061040a5f8301846103e8565b92915050565b5f82825260208201905092915050565b7f62616e6b20697320656d7074792e0000000000000000000000000000000000005f82015250565b5f610454600e83610410565b915061045f82610420565b602082019050919050565b5f6020820190508181035f83015261048181610448565b9050919050565b7f796f752063616e27742067657420746f6f206d6f72652e0000000000000000005f82015250565b5f6104bc601783610410565b91506104c782610488565b602082019050919050565b5f6020820190508181035f8301526104e9816104b0565b9050919050565b7f4e487b71000000000000000000000000000000000000000000000000000000005f52601160045260245ffd5b5f61052782610305565b915061053283610305565b925082820390508181111561054a576105496104f0565b5b92915050565b7f6465706f736974206d757374206265207468616e207a65726f2e0000000000005f82015250565b5f610584601a83610410565b915061058f82610550565b602082019050919050565b5f6020820190508181035f8301526105b181610578565b9050919050565b5f6105c282610305565b91506105cd83610305565b92508282019050808211156105e5576105e46104f0565b5b9291505056fea26469706673582212207cb106fc0fec5714a1533fa5920f295c1fc1d2bc8a47e21fd49e4e719e040c7364736f6c63430008150033",
					"opcodes": "PUSH1 0x80 PUSH1 0x40 MSTORE CALLVALUE DUP1 ISZERO PUSH2 0xF JUMPI PUSH0 DUP1 REVERT JUMPDEST POP PUSH2 0x621 DUP1 PUSH2 0x1D PUSH0 CODECOPY PUSH0 RETURN INVALID PUSH1 0x80 PUSH1 0x40 MSTORE PUSH1 0x4 CALLDATASIZE LT PUSH2 0x33 JUMPI PUSH0 CALLDATALOAD PUSH1 0xE0 SHR DUP1 PUSH4 0x2E1A7D4D EQ PUSH2 0x37 JUMPI DUP1 PUSH4 0x70A08231 EQ PUSH2 0x5F JUMPI DUP1 PUSH4 0xD0E30DB0 EQ PUSH2 0x9B JUMPI JUMPDEST PUSH0 DUP1 REVERT JUMPDEST CALLVALUE DUP1 ISZERO PUSH2 0x42 JUMPI PUSH0 DUP1 REVERT JUMPDEST POP PUSH2 0x5D PUSH1 0x4 DUP1 CALLDATASIZE SUB DUP2 ADD SWAP1 PUSH2 0x58 SWAP2 SWAP1 PUSH2 0x338 JUMP JUMPDEST PUSH2 0xB9 JUMP JUMPDEST STOP JUMPDEST CALLVALUE DUP1 ISZERO PUSH2 0x6A JUMPI PUSH0 DUP1 REVERT JUMPDEST POP PUSH2 0x85 PUSH1 0x4 DUP1 CALLDATASIZE SUB DUP2 ADD SWAP1 PUSH2 0x80 SWAP2 SWAP1 PUSH2 0x3BD JUMP JUMPDEST PUSH2 0x216 JUMP JUMPDEST PUSH1 0x40 MLOAD PUSH2 0x92 SWAP2 SWAP1 PUSH2 0x3F7 JUMP JUMPDEST PUSH1 0x40 MLOAD DUP1 SWAP2 SUB SWAP1 RETURN JUMPDEST PUSH2 0xA3 PUSH2 0x22A JUMP JUMPDEST PUSH1 0x40 MLOAD PUSH2 0xB0 SWAP2 SWAP1 PUSH2 0x3F7 JUMP JUMPDEST PUSH1 0x40 MLOAD DUP1 SWAP2 SUB SWAP1 RETURN JUMPDEST DUP1 DUP1 SELFBALANCE LT ISZERO PUSH2 0xFD JUMPI PUSH1 0x40 MLOAD PUSH32 0x8C379A000000000000000000000000000000000000000000000000000000000 DUP2 MSTORE PUSH1 0x4 ADD PUSH2 0xF4 SWAP1 PUSH2 0x46A JUMP JUMPDEST PUSH1 0x40 MLOAD DUP1 SWAP2 SUB SWAP1 REVERT JUMPDEST DUP1 PUSH0 DUP1 CALLER PUSH20 0xFFFFFFFFFFFFFFFFFFFFFFFFFFFFFFFFFFFFFFFF AND PUSH20 0xFFFFFFFFFFFFFFFFFFFFFFFFFFFFFFFFFFFFFFFF AND DUP2 MSTORE PUSH1 0x20 ADD SWAP1 DUP2 MSTORE PUSH1 0x20 ADD PUSH0 KECCAK256 SLOAD LT ISZERO PUSH2 0x17C JUMPI PUSH1 0x40 MLOAD PUSH32 0x8C379A000000000000000000000000000000000000000000000000000000000 DUP2 MSTORE PUSH1 0x4 ADD PUSH2 0x173 SWAP1 PUSH2 0x4D2 JUMP JUMPDEST PUSH1 0x40 MLOAD DUP1 SWAP2 SUB SWAP1 REVERT JUMPDEST DUP2 PUSH0 DUP1 CALLER PUSH20 0xFFFFFFFFFFFFFFFFFFFFFFFFFFFFFFFFFFFFFFFF AND PUSH20 0xFFFFFFFFFFFFFFFFFFFFFFFFFFFFFFFFFFFFFFFF AND DUP2 MSTORE PUSH1 0x20 ADD SWAP1 DUP2 MSTORE PUSH1 0x20 ADD PUSH0 KECCAK256 PUSH0 DUP3 DUP3 SLOAD PUSH2 0x1C7 SWAP2 SWAP1 PUSH2 0x51D JUMP JUMPDEST SWAP3 POP POP DUP2 SWAP1 SSTORE POP CALLER PUSH20 0xFFFFFFFFFFFFFFFFFFFFFFFFFFFFFFFFFFFFFFFF AND PUSH2 0x8FC DUP4 SWAP1 DUP2 ISZERO MUL SWAP1 PUSH1 0x40 MLOAD PUSH0 PUSH1 0x40 MLOAD DUP1 DUP4 SUB DUP2 DUP6 DUP9 DUP9 CALL SWAP4 POP POP POP POP ISZERO DUP1 ISZERO PUSH2 0x211 JUMPI RETURNDATASIZE PUSH0 DUP1 RETURNDATACOPY RETURNDATASIZE PUSH0 REVERT JUMPDEST POP POP POP JUMP JUMPDEST PUSH0 PUSH1 0x20 MSTORE DUP1 PUSH0 MSTORE PUSH1 0x40 PUSH0 KECCAK256 PUSH0 SWAP2 POP SWAP1 POP SLOAD DUP2 JUMP JUMPDEST PUSH0 DUP1 CALLVALUE GT PUSH2 0x26D JUMPI PUSH1 0x40 MLOAD PUSH32 0x8C379A000000000000000000000000000000000000000000000000000000000 DUP2 MSTORE PUSH1 0x4 ADD PUSH2 0x264 SWAP1 PUSH2 0x59A JUMP JUMPDEST PUSH1 0x40 MLOAD DUP1 SWAP2 SUB SWAP1 REVERT JUMPDEST CALLVALUE PUSH0 DUP1 CALLER PUSH20 0xFFFFFFFFFFFFFFFFFFFFFFFFFFFFFFFFFFFFFFFF AND PUSH20 0xFFFFFFFFFFFFFFFFFFFFFFFFFFFFFFFFFFFFFFFF AND DUP2 MSTORE PUSH1 0x20 ADD SWAP1 DUP2 MSTORE PUSH1 0x20 ADD PUSH0 KECCAK256 PUSH0 DUP3 DUP3 SLOAD PUSH2 0x2B8 SWAP2 SWAP1 PUSH2 0x5B8 JUMP JUMPDEST SWAP3 POP POP DUP2 SWAP1 SSTORE POP PUSH0 DUP1 CALLER PUSH20 0xFFFFFFFFFFFFFFFFFFFFFFFFFFFFFFFFFFFFFFFF AND PUSH20 0xFFFFFFFFFFFFFFFFFFFFFFFFFFFFFFFFFFFFFFFF AND DUP2 MSTORE PUSH1 0x20 ADD SWAP1 DUP2 MSTORE PUSH1 0x20 ADD PUSH0 KECCAK256 SLOAD SWAP1 POP SWAP1 JUMP JUMPDEST PUSH0 DUP1 REVERT JUMPDEST PUSH0 DUP2 SWAP1 POP SWAP2 SWAP1 POP JUMP JUMPDEST PUSH2 0x317 DUP2 PUSH2 0x305 JUMP JUMPDEST DUP2 EQ PUSH2 0x321 JUMPI PUSH0 DUP1 REVERT JUMPDEST POP JUMP JUMPDEST PUSH0 DUP2 CALLDATALOAD SWAP1 POP PUSH2 0x332 DUP2 PUSH2 0x30E JUMP JUMPDEST SWAP3 SWAP2 POP POP JUMP JUMPDEST PUSH0 PUSH1 0x20 DUP3 DUP5 SUB SLT ISZERO PUSH2 0x34D JUMPI PUSH2 0x34C PUSH2 0x301 JUMP JUMPDEST JUMPDEST PUSH0 PUSH2 0x35A DUP5 DUP3 DUP6 ADD PUSH2 0x324 JUMP JUMPDEST SWAP2 POP POP SWAP3 SWAP2 POP POP JUMP JUMPDEST PUSH0 PUSH20 0xFFFFFFFFFFFFFFFFFFFFFFFFFFFFFFFFFFFFFFFF DUP3 AND SWAP1 POP SWAP2 SWAP1 POP JUMP JUMPDEST PUSH0 PUSH2 0x38C DUP3 PUSH2 0x363 JUMP JUMPDEST SWAP1 POP SWAP2 SWAP1 POP JUMP JUMPDEST PUSH2 0x39C DUP2 PUSH2 0x382 JUMP JUMPDEST DUP2 EQ PUSH2 0x3A6 JUMPI PUSH0 DUP1 REVERT JUMPDEST POP JUMP JUMPDEST PUSH0 DUP2 CALLDATALOAD SWAP1 POP PUSH2 0x3B7 DUP2 PUSH2 0x393 JUMP JUMPDEST SWAP3 SWAP2 POP POP JUMP JUMPDEST PUSH0 PUSH1 0x20 DUP3 DUP5 SUB SLT ISZERO PUSH2 0x3D2 JUMPI PUSH2 0x3D1 PUSH2 0x301 JUMP JUMPDEST JUMPDEST PUSH0 PUSH2 0x3DF DUP5 DUP3 DUP6 ADD PUSH2 0x3A9 JUMP JUMPDEST SWAP2 POP POP SWAP3 SWAP2 POP POP JUMP JUMPDEST PUSH2 0x3F1 DUP2 PUSH2 0x305 JUMP JUMPDEST DUP3 MSTORE POP POP JUMP JUMPDEST PUSH0 PUSH1 0x20 DUP3 ADD SWAP1 POP PUSH2 0x40A PUSH0 DUP4 ADD DUP5 PUSH2 0x3E8 JUMP JUMPDEST SWAP3 SWAP2 POP POP JUMP JUMPDEST PUSH0 DUP3 DUP3 MSTORE PUSH1 0x20 DUP3 ADD SWAP1 POP SWAP3 SWAP2 POP POP JUMP JUMPDEST PUSH32 0x62616E6B20697320656D7074792E000000000000000000000000000000000000 PUSH0 DUP3 ADD MSTORE POP JUMP JUMPDEST PUSH0 PUSH2 0x454 PUSH1 0xE DUP4 PUSH2 0x410 JUMP JUMPDEST SWAP2 POP PUSH2 0x45F DUP3 PUSH2 0x420 JUMP JUMPDEST PUSH1 0x20 DUP3 ADD SWAP1 POP SWAP2 SWAP1 POP JUMP JUMPDEST PUSH0 PUSH1 0x20 DUP3 ADD SWAP1 POP DUP2 DUP2 SUB PUSH0 DUP4 ADD MSTORE PUSH2 0x481 DUP2 PUSH2 0x448 JUMP JUMPDEST SWAP1 POP SWAP2 SWAP1 POP JUMP JUMPDEST PUSH32 0x796F752063616E27742067657420746F6F206D6F72652E000000000000000000 PUSH0 DUP3 ADD MSTORE POP JUMP JUMPDEST PUSH0 PUSH2 0x4BC PUSH1 0x17 DUP4 PUSH2 0x410 JUMP JUMPDEST SWAP2 POP PUSH2 0x4C7 DUP3 PUSH2 0x488 JUMP JUMPDEST PUSH1 0x20 DUP3 ADD SWAP1 POP SWAP2 SWAP1 POP JUMP JUMPDEST PUSH0 PUSH1 0x20 DUP3 ADD SWAP1 POP DUP2 DUP2 SUB PUSH0 DUP4 ADD MSTORE PUSH2 0x4E9 DUP2 PUSH2 0x4B0 JUMP JUMPDEST SWAP1 POP SWAP2 SWAP1 POP JUMP JUMPDEST PUSH32 0x4E487B7100000000000000000000000000000000000000000000000000000000 PUSH0 MSTORE PUSH1 0x11 PUSH1 0x4 MSTORE PUSH1 0x24 PUSH0 REVERT JUMPDEST PUSH0 PUSH2 0x527 DUP3 PUSH2 0x305 JUMP JUMPDEST SWAP2 POP PUSH2 0x532 DUP4 PUSH2 0x305 JUMP JUMPDEST SWAP3 POP DUP3 DUP3 SUB SWAP1 POP DUP2 DUP2 GT ISZERO PUSH2 0x54A JUMPI PUSH2 0x549 PUSH2 0x4F0 JUMP JUMPDEST JUMPDEST SWAP3 SWAP2 POP POP JUMP JUMPDEST PUSH32 0x6465706F736974206D757374206265207468616E207A65726F2E000000000000 PUSH0 DUP3 ADD MSTORE POP JUMP JUMPDEST PUSH0 PUSH2 0x584 PUSH1 0x1A DUP4 PUSH2 0x410 JUMP JUMPDEST SWAP2 POP PUSH2 0x58F DUP3 PUSH2 0x550 JUMP JUMPDEST PUSH1 0x20 DUP3 ADD SWAP1 POP SWAP2 SWAP1 POP JUMP JUMPDEST PUSH0 PUSH1 0x20 DUP3 ADD SWAP1 POP DUP2 DUP2 SUB PUSH0 DUP4 ADD MSTORE PUSH2 0x5B1 DUP2 PUSH2 0x578 JUMP JUMPDEST SWAP1 POP SWAP2 SWAP1 POP JUMP JUMPDEST PUSH0 PUSH2 0x5C2 DUP3 PUSH2 0x305 JUMP JUMPDEST SWAP2 POP PUSH2 0x5CD DUP4 PUSH2 0x305 JUMP JUMPDEST SWAP3 POP DUP3 DUP3 ADD SWAP1 POP DUP1 DUP3 GT ISZERO PUSH2 0x5E5 JUMPI PUSH2 0x5E4 PUSH2 0x4F0 JUMP JUMPDEST JUMPDEST SWAP3 SWAP2 POP POP JUMP INVALID LOG2 PUSH5 0x6970667358 0x22 SLT KECCAK256 PUSH29 0xB106FC0FEC5714A1533FA5920F295C1FC1D2BC8A47E21FD49E4E719E04 0xC PUSH20 0x64736F6C63430008150033000000000000000000 "
				},
				"gasEstimates": {
					"creation": {
						"codeDepositCost": "313800",
						"executionCost": "353",
						"totalCost": "314153"
					},
					"external": {
						"balanceOf(address)": "2801",
						"deposit()": "infinite",
						"withdraw(uint256)": "infinite"
					}
				},
				"methodIdentifiers": {
					"balanceOf(address)": "70a08231",
					"deposit()": "d0e30db0",
					"withdraw(uint256)": "2e1a7d4d"
				}
			},
			"storageLayout": {
				"storage": [
					{
						"astId": 5,
						"contract": "week3/Bank.sol:Bank",
						"label": "balanceOf",
						"offset": 0,
						"slot": "0",
						"type": "t_mapping(t_address,t_uint256)"
					}
				],
				"types": {
					"t_address": {
						"encoding": "inplace",
						"label": "address",
						"numberOfBytes": "20"
					},
					"t_mapping(t_address,t_uint256)": {
						"encoding": "mapping",
						"key": "t_address",
						"label": "mapping(address => uint256)",
						"numberOfBytes": "32",
						"value": "t_uint256"
					},
					"t_uint256": {
						"encoding": "inplace",
						"label": "uint256",
						"numberOfBytes": "32"
					}
				}
			},
			"userdoc": {
				"kind": "user",
				"methods": {},
				"version": 1
			}
		}
	}
}