{
	"week2/ValueTypes.sol": {
		"ValueTypes": {
			"abi": [
				{
					"inputs": [],
					"name": "b",
					"outputs": [
						{
							"internalType": "bool",
							"name": "",
							"type": "bool"
						}
					],
					"stateMutability": "view",
					"type": "function"
				},
				{
					"inputs": [],
					"name": "b32",
					"outputs": [
						{
							"internalType": "bytes32",
							"name": "",
							"type": "bytes32"
						}
					],
					"stateMutability": "view",
					"type": "function"
				},
				{
					"inputs": [],
					"name": "i",
					"outputs": [
						{
							"internalType": "int256",
							"name": "",
							"type": "int256"
						}
					],
					"stateMutability": "view",
					"type": "function"
				},
				{
					"inputs": [],
					"name": "i128",
					"outputs": [
						{
							"internalType": "int128",
							"name": "",
							"type": "int128"
						}
					],
					"stateMutability": "view",
					"type": "function"
				},
				{
					"inputs": [],
					"name": "i256",
					"outputs": [
						{
							"internalType": "int256",
							"name": "",
							"type": "int256"
						}
					],
					"stateMutability": "view",
					"type": "function"
				},
				{
					"inputs": [],
					"name": "maxInt",
					"outputs": [
						{
							"internalType": "int256",
							"name": "",
							"type": "int256"
						}
					],
					"stateMutability": "view",
					"type": "function"
				},
				{
					"inputs": [],
					"name": "minInt",
					"outputs": [
						{
							"internalType": "int256",
							"name": "",
							"type": "int256"
						}
					],
					"stateMutability": "view",
					"type": "function"
				},
				{
					"inputs": [],
					"name": "myAddress",
					"outputs": [
						{
							"internalType": "address",
							"name": "",
							"type": "address"
						}
					],
					"stateMutability": "view",
					"type": "function"
				},
				{
					"inputs": [],
					"name": "u",
					"outputs": [
						{
							"internalType": "uint256",
							"name": "",
							"type": "uint256"
						}
					],
					"stateMutability": "view",
					"type": "function"
				},
				{
					"inputs": [],
					"name": "u16",
					"outputs": [
						{
							"internalType": "uint16",
							"name": "",
							"type": "uint16"
						}
					],
					"stateMutability": "view",
					"type": "function"
				},
				{
					"inputs": [],
					"name": "u256",
					"outputs": [
						{
							"internalType": "uint256",
							"name": "",
							"type": "uint256"
						}
					],
					"stateMutability": "view",
					"type": "function"
				},
				{
					"inputs": [],
					"name": "u8",
					"outputs": [
						{
							"internalType": "uint8",
							"name": "",
							"type": "uint8"
						}
					],
					"stateMutability": "view",
					"type": "function"
				}
			],
			"devdoc": {
				"kind": "dev",
				"methods": {},
				"version": 1
			},
			"evm": {
				"assembly": "    /* \"week2/ValueTypes.sol\":57:607  contract ValueTypes {... */\n  mstore(0x40, 0x80)\n    /* \"week2/ValueTypes.sol\":99:103  true */\n  0x01\n    /* \"week2/ValueTypes.sol\":83:103  bool public b = true */\n  0x00\n  dup1\n  0x0100\n  exp\n  dup2\n  sload\n  dup2\n  0xff\n  mul\n  not\n  and\n  swap1\n  dup4\n  iszero\n  iszero\n  mul\n  or\n  swap1\n  sstore\n  pop\n    /* \"week2/ValueTypes.sol\":126:129  123 */\n  0x7b\n    /* \"week2/ValueTypes.sol\":110:129  uint public u = 123 */\n  0x01\n  sstore\n    /* \"week2/ValueTypes.sol\":175:178  256 */\n  0x0100\n    /* \"week2/ValueTypes.sol\":153:178  uint256 public u256 = 256 */\n  0x02\n  sstore\n    /* \"week2/ValueTypes.sol\":204:206  16 */\n  0x10\n    /* \"week2/ValueTypes.sol\":184:206  uint16 public u16 = 16 */\n  0x03\n  exp(0x0100, 0x00)\n  dup2\n  sload\n  dup2\n  0xffff\n  mul\n  not\n  and\n  swap1\n  dup4\n  0xffff\n  and\n  mul\n  or\n  swap1\n  sstore\n  pop\n    /* \"week2/ValueTypes.sol\":230:233  128 */\n  0x80\n    /* \"week2/ValueTypes.sol\":212:233  uint8 public u8 = 128 */\n  0x03\n  exp(0x0100, 0x02)\n  dup2\n  sload\n  dup2\n  0xff\n  mul\n  not\n  and\n  swap1\n  dup4\n  0xff\n  and\n  mul\n  or\n  swap1\n  sstore\n  pop\n    /* \"week2/ValueTypes.sol\":255:258  256 */\n  0x0100\n    /* \"week2/ValueTypes.sol\":240:258  int public i = 256 */\n  0x04\n  sstore\n    /* \"week2/ValueTypes.sol\":285:288  256 */\n  0x0100\n    /* \"week2/ValueTypes.sol\":264:288  int256 public i256 = 256 */\n  0x05\n  sstore\n    /* \"week2/ValueTypes.sol\":331:333  16 */\n  0x10\n    /* \"week2/ValueTypes.sol\":310:333  int128 public i128 = 16 */\n  0x06\n  exp(0x0100, 0x00)\n  dup2\n  sload\n  dup2\n  0xffffffffffffffffffffffffffffffff\n  mul\n  not\n  and\n  swap1\n  dup4\n  0x0f\n  signextend\n  0xffffffffffffffffffffffffffffffff\n  and\n  mul\n  or\n  swap1\n  sstore\n  pop\n    /* \"week2/ValueTypes.sol\":363:376  type(int).min */\n  0x8000000000000000000000000000000000000000000000000000000000000000\n    /* \"week2/ValueTypes.sol\":343:376  int public minInt = type(int).min */\n  0x07\n  sstore\n    /* \"week2/ValueTypes.sol\":402:415  type(int).max */\n  0x7fffffffffffffffffffffffffffffffffffffffffffffffffffffffffffffff\n    /* \"week2/ValueTypes.sol\":382:415  int public maxInt = type(int).max */\n  0x08\n  sstore\n    /* \"week2/ValueTypes.sol\":449:491  0xc8Bd59d60961bEdb12c95079250d3075b9328a2d */\n  0xc8bd59d60961bedb12c95079250d3075b9328a2d\n    /* \"week2/ValueTypes.sol\":422:491  address public myAddress = 0xc8Bd59d60961bEdb12c95079250d3075b9328a2d */\n  0x09\n  exp(0x0100, 0x00)\n  dup2\n  sload\n  dup2\n  0xffffffffffffffffffffffffffffffffffffffff\n  mul\n  not\n  and\n  swap1\n  dup4\n  0xffffffffffffffffffffffffffffffffffffffff\n  and\n  mul\n  or\n  swap1\n  sstore\n  pop\n    /* \"week2/ValueTypes.sol\":528:594  0x0123456789012345678901234567890123456789012345678901234567890123 */\n  0x0123456789012345678901234567890123456789012345678901234567890123\n    /* \"week2/ValueTypes.sol\":507:594  bytes32 public b32 = 0x0123456789012345678901234567890123456789012345678901234567890123 */\n  0x00\n  shl\n  0x0a\n  sstore\n    /* \"week2/ValueTypes.sol\":57:607  contract ValueTypes {... */\n  callvalue\n  dup1\n  iszero\n  tag_1\n  jumpi\n  0x00\n  dup1\n  revert\ntag_1:\n  pop\n  dataSize(sub_0)\n  dup1\n  dataOffset(sub_0)\n  0x00\n  codecopy\n  0x00\n  return\nstop\n\nsub_0: assembly {\n        /* \"week2/ValueTypes.sol\":57:607  contract ValueTypes {... */\n      mstore(0x40, 0x80)\n      callvalue\n      dup1\n      iszero\n      tag_1\n      jumpi\n      0x00\n      dup1\n      revert\n    tag_1:\n      pop\n      jumpi(tag_2, lt(calldatasize, 0x04))\n      shr(0xe0, calldataload(0x00))\n      dup1\n      0x7a4c2571\n      gt\n      tag_15\n      jumpi\n      dup1\n      0x7a4c2571\n      eq\n      tag_9\n      jumpi\n      dup1\n      0x7e4e14cc\n      eq\n      tag_10\n      jumpi\n      dup1\n      0xab3a58a3\n      eq\n      tag_11\n      jumpi\n      dup1\n      0xc6a898c5\n      eq\n      tag_12\n      jumpi\n      dup1\n      0xe5aa3d58\n      eq\n      tag_13\n      jumpi\n      dup1\n      0xf8aab238\n      eq\n      tag_14\n      jumpi\n      jump(tag_2)\n    tag_15:\n      dup1\n      0x0a6b4e06\n      eq\n      tag_3\n      jumpi\n      dup1\n      0x0cba40c8\n      eq\n      tag_4\n      jumpi\n      dup1\n      0x26b85ee1\n      eq\n      tag_5\n      jumpi\n      dup1\n      0x459b1acf\n      eq\n      tag_6\n      jumpi\n      dup1\n      0x4c27fd62\n      eq\n      tag_7\n      jumpi\n      dup1\n      0x4df7e3d0\n      eq\n      tag_8\n      jumpi\n    tag_2:\n      0x00\n      dup1\n      revert\n        /* \"week2/ValueTypes.sol\":184:206  uint16 public u16 = 16 */\n    tag_3:\n      tag_16\n      tag_17\n      jump\t// in\n    tag_16:\n      mload(0x40)\n      tag_18\n      swap2\n      swap1\n      tag_19\n      jump\t// in\n    tag_18:\n      mload(0x40)\n      dup1\n      swap2\n      sub\n      swap1\n      return\n        /* \"week2/ValueTypes.sol\":310:333  int128 public i128 = 16 */\n    tag_4:\n      tag_20\n      tag_21\n      jump\t// in\n    tag_20:\n      mload(0x40)\n      tag_22\n      swap2\n      swap1\n      tag_23\n      jump\t// in\n    tag_22:\n      mload(0x40)\n      dup1\n      swap2\n      sub\n      swap1\n      return\n        /* \"week2/ValueTypes.sol\":422:491  address public myAddress = 0xc8Bd59d60961bEdb12c95079250d3075b9328a2d */\n    tag_5:\n      tag_24\n      tag_25\n      jump\t// in\n    tag_24:\n      mload(0x40)\n      tag_26\n      swap2\n      swap1\n      tag_27\n      jump\t// in\n    tag_26:\n      mload(0x40)\n      dup1\n      swap2\n      sub\n      swap1\n      return\n        /* \"week2/ValueTypes.sol\":153:178  uint256 public u256 = 256 */\n    tag_6:\n      tag_28\n      tag_29\n      jump\t// in\n    tag_28:\n      mload(0x40)\n      tag_30\n      swap2\n      swap1\n      tag_31\n      jump\t// in\n    tag_30:\n      mload(0x40)\n      dup1\n      swap2\n      sub\n      swap1\n      return\n        /* \"week2/ValueTypes.sol\":264:288  int256 public i256 = 256 */\n    tag_7:\n      tag_32\n      tag_33\n      jump\t// in\n    tag_32:\n      mload(0x40)\n      tag_34\n      swap2\n      swap1\n      tag_35\n      jump\t// in\n    tag_34:\n      mload(0x40)\n      dup1\n      swap2\n      sub\n      swap1\n      return\n        /* \"week2/ValueTypes.sol\":83:103  bool public b = true */\n    tag_8:\n      tag_36\n      tag_37\n      jump\t// in\n    tag_36:\n      mload(0x40)\n      tag_38\n      swap2\n      swap1\n      tag_39\n      jump\t// in\n    tag_38:\n      mload(0x40)\n      dup1\n      swap2\n      sub\n      swap1\n      return\n        /* \"week2/ValueTypes.sol\":382:415  int public maxInt = type(int).max */\n    tag_9:\n      tag_40\n      tag_41\n      jump\t// in\n    tag_40:\n      mload(0x40)\n      tag_42\n      swap2\n      swap1\n      tag_35\n      jump\t// in\n    tag_42:\n      mload(0x40)\n      dup1\n      swap2\n      sub\n      swap1\n      return\n        /* \"week2/ValueTypes.sol\":343:376  int public minInt = type(int).min */\n    tag_10:\n      tag_43\n      tag_44\n      jump\t// in\n    tag_43:\n      mload(0x40)\n      tag_45\n      swap2\n      swap1\n      tag_35\n      jump\t// in\n    tag_45:\n      mload(0x40)\n      dup1\n      swap2\n      sub\n      swap1\n      return\n        /* \"week2/ValueTypes.sol\":212:233  uint8 public u8 = 128 */\n    tag_11:\n      tag_46\n      tag_47\n      jump\t// in\n    tag_46:\n      mload(0x40)\n      tag_48\n      swap2\n      swap1\n      tag_49\n      jump\t// in\n    tag_48:\n      mload(0x40)\n      dup1\n      swap2\n      sub\n      swap1\n      return\n        /* \"week2/ValueTypes.sol\":110:129  uint public u = 123 */\n    tag_12:\n      tag_50\n      tag_51\n      jump\t// in\n    tag_50:\n      mload(0x40)\n      tag_52\n      swap2\n      swap1\n      tag_31\n      jump\t// in\n    tag_52:\n      mload(0x40)\n      dup1\n      swap2\n      sub\n      swap1\n      return\n        /* \"week2/ValueTypes.sol\":240:258  int public i = 256 */\n    tag_13:\n      tag_53\n      tag_54\n      jump\t// in\n    tag_53:\n      mload(0x40)\n      tag_55\n      swap2\n      swap1\n      tag_35\n      jump\t// in\n    tag_55:\n      mload(0x40)\n      dup1\n      swap2\n      sub\n      swap1\n      return\n        /* \"week2/ValueTypes.sol\":507:594  bytes32 public b32 = 0x0123456789012345678901234567890123456789012345678901234567890123 */\n    tag_14:\n      tag_56\n      tag_57\n      jump\t// in\n    tag_56:\n      mload(0x40)\n      tag_58\n      swap2\n      swap1\n      tag_59\n      jump\t// in\n    tag_58:\n      mload(0x40)\n      dup1\n      swap2\n      sub\n      swap1\n      return\n        /* \"week2/ValueTypes.sol\":184:206  uint16 public u16 = 16 */\n    tag_17:\n      0x03\n      0x00\n      swap1\n      sload\n      swap1\n      0x0100\n      exp\n      swap1\n      div\n      0xffff\n      and\n      dup2\n      jump\t// out\n        /* \"week2/ValueTypes.sol\":310:333  int128 public i128 = 16 */\n    tag_21:\n      0x06\n      0x00\n      swap1\n      sload\n      swap1\n      0x0100\n      exp\n      swap1\n      div\n      0x0f\n      signextend\n      dup2\n      jump\t// out\n        /* \"week2/ValueTypes.sol\":422:491  address public myAddress = 0xc8Bd59d60961bEdb12c95079250d3075b9328a2d */\n    tag_25:\n      0x09\n      0x00\n      swap1\n      sload\n      swap1\n      0x0100\n      exp\n      swap1\n      div\n      0xffffffffffffffffffffffffffffffffffffffff\n      and\n      dup2\n      jump\t// out\n        /* \"week2/ValueTypes.sol\":153:178  uint256 public u256 = 256 */\n    tag_29:\n      sload(0x02)\n      dup2\n      jump\t// out\n        /* \"week2/ValueTypes.sol\":264:288  int256 public i256 = 256 */\n    tag_33:\n      sload(0x05)\n      dup2\n      jump\t// out\n        /* \"week2/ValueTypes.sol\":83:103  bool public b = true */\n    tag_37:\n      0x00\n      dup1\n      sload\n      swap1\n      0x0100\n      exp\n      swap1\n      div\n      0xff\n      and\n      dup2\n      jump\t// out\n        /* \"week2/ValueTypes.sol\":382:415  int public maxInt = type(int).max */\n    tag_41:\n      sload(0x08)\n      dup2\n      jump\t// out\n        /* \"week2/ValueTypes.sol\":343:376  int public minInt = type(int).min */\n    tag_44:\n      sload(0x07)\n      dup2\n      jump\t// out\n        /* \"week2/ValueTypes.sol\":212:233  uint8 public u8 = 128 */\n    tag_47:\n      0x03\n      0x02\n      swap1\n      sload\n      swap1\n      0x0100\n      exp\n      swap1\n      div\n      0xff\n      and\n      dup2\n      jump\t// out\n        /* \"week2/ValueTypes.sol\":110:129  uint public u = 123 */\n    tag_51:\n      sload(0x01)\n      dup2\n      jump\t// out\n        /* \"week2/ValueTypes.sol\":240:258  int public i = 256 */\n    tag_54:\n      sload(0x04)\n      dup2\n      jump\t// out\n        /* \"week2/ValueTypes.sol\":507:594  bytes32 public b32 = 0x0123456789012345678901234567890123456789012345678901234567890123 */\n    tag_57:\n      sload(0x0a)\n      dup2\n      jump\t// out\n        /* \"#utility.yul\":7:96   */\n    tag_60:\n        /* \"#utility.yul\":43:50   */\n      0x00\n        /* \"#utility.yul\":83:89   */\n      0xffff\n        /* \"#utility.yul\":76:81   */\n      dup3\n        /* \"#utility.yul\":72:90   */\n      and\n        /* \"#utility.yul\":61:90   */\n      swap1\n      pop\n        /* \"#utility.yul\":7:96   */\n      swap2\n      swap1\n      pop\n      jump\t// out\n        /* \"#utility.yul\":102:217   */\n    tag_61:\n        /* \"#utility.yul\":187:210   */\n      tag_80\n        /* \"#utility.yul\":204:209   */\n      dup2\n        /* \"#utility.yul\":187:210   */\n      tag_60\n      jump\t// in\n    tag_80:\n        /* \"#utility.yul\":182:185   */\n      dup3\n        /* \"#utility.yul\":175:211   */\n      mstore\n        /* \"#utility.yul\":102:217   */\n      pop\n      pop\n      jump\t// out\n        /* \"#utility.yul\":223:441   */\n    tag_19:\n        /* \"#utility.yul\":314:318   */\n      0x00\n        /* \"#utility.yul\":352:354   */\n      0x20\n        /* \"#utility.yul\":341:350   */\n      dup3\n        /* \"#utility.yul\":337:355   */\n      add\n        /* \"#utility.yul\":329:355   */\n      swap1\n      pop\n        /* \"#utility.yul\":365:434   */\n      tag_82\n        /* \"#utility.yul\":431:432   */\n      0x00\n        /* \"#utility.yul\":420:429   */\n      dup4\n        /* \"#utility.yul\":416:433   */\n      add\n        /* \"#utility.yul\":407:413   */\n      dup5\n        /* \"#utility.yul\":365:434   */\n      tag_61\n      jump\t// in\n    tag_82:\n        /* \"#utility.yul\":223:441   */\n      swap3\n      swap2\n      pop\n      pop\n      jump\t// out\n        /* \"#utility.yul\":447:539   */\n    tag_62:\n        /* \"#utility.yul\":483:490   */\n      0x00\n        /* \"#utility.yul\":527:532   */\n      dup2\n        /* \"#utility.yul\":523:525   */\n      0x0f\n        /* \"#utility.yul\":512:533   */\n      signextend\n        /* \"#utility.yul\":501:533   */\n      swap1\n      pop\n        /* \"#utility.yul\":447:539   */\n      swap2\n      swap1\n      pop\n      jump\t// out\n        /* \"#utility.yul\":545:660   */\n    tag_63:\n        /* \"#utility.yul\":630:653   */\n      tag_85\n        /* \"#utility.yul\":647:652   */\n      dup2\n        /* \"#utility.yul\":630:653   */\n      tag_62\n      jump\t// in\n    tag_85:\n        /* \"#utility.yul\":625:628   */\n      dup3\n        /* \"#utility.yul\":618:654   */\n      mstore\n        /* \"#utility.yul\":545:660   */\n      pop\n      pop\n      jump\t// out\n        /* \"#utility.yul\":666:884   */\n    tag_23:\n        /* \"#utility.yul\":757:761   */\n      0x00\n        /* \"#utility.yul\":795:797   */\n      0x20\n        /* \"#utility.yul\":784:793   */\n      dup3\n        /* \"#utility.yul\":780:798   */\n      add\n        /* \"#utility.yul\":772:798   */\n      swap1\n      pop\n        /* \"#utility.yul\":808:877   */\n      tag_87\n        /* \"#utility.yul\":874:875   */\n      0x00\n        /* \"#utility.yul\":863:872   */\n      dup4\n        /* \"#utility.yul\":859:876   */\n      add\n        /* \"#utility.yul\":850:856   */\n      dup5\n        /* \"#utility.yul\":808:877   */\n      tag_63\n      jump\t// in\n    tag_87:\n        /* \"#utility.yul\":666:884   */\n      swap3\n      swap2\n      pop\n      pop\n      jump\t// out\n        /* \"#utility.yul\":890:1016   */\n    tag_64:\n        /* \"#utility.yul\":927:934   */\n      0x00\n        /* \"#utility.yul\":967:1009   */\n      0xffffffffffffffffffffffffffffffffffffffff\n        /* \"#utility.yul\":960:965   */\n      dup3\n        /* \"#utility.yul\":956:1010   */\n      and\n        /* \"#utility.yul\":945:1010   */\n      swap1\n      pop\n        /* \"#utility.yul\":890:1016   */\n      swap2\n      swap1\n      pop\n      jump\t// out\n        /* \"#utility.yul\":1022:1118   */\n    tag_65:\n        /* \"#utility.yul\":1059:1066   */\n      0x00\n        /* \"#utility.yul\":1088:1112   */\n      tag_90\n        /* \"#utility.yul\":1106:1111   */\n      dup3\n        /* \"#utility.yul\":1088:1112   */\n      tag_64\n      jump\t// in\n    tag_90:\n        /* \"#utility.yul\":1077:1112   */\n      swap1\n      pop\n        /* \"#utility.yul\":1022:1118   */\n      swap2\n      swap1\n      pop\n      jump\t// out\n        /* \"#utility.yul\":1124:1242   */\n    tag_66:\n        /* \"#utility.yul\":1211:1235   */\n      tag_92\n        /* \"#utility.yul\":1229:1234   */\n      dup2\n        /* \"#utility.yul\":1211:1235   */\n      tag_65\n      jump\t// in\n    tag_92:\n        /* \"#utility.yul\":1206:1209   */\n      dup3\n        /* \"#utility.yul\":1199:1236   */\n      mstore\n        /* \"#utility.yul\":1124:1242   */\n      pop\n      pop\n      jump\t// out\n        /* \"#utility.yul\":1248:1470   */\n    tag_27:\n        /* \"#utility.yul\":1341:1345   */\n      0x00\n        /* \"#utility.yul\":1379:1381   */\n      0x20\n        /* \"#utility.yul\":1368:1377   */\n      dup3\n        /* \"#utility.yul\":1364:1382   */\n      add\n        /* \"#utility.yul\":1356:1382   */\n      swap1\n      pop\n        /* \"#utility.yul\":1392:1463   */\n      tag_94\n        /* \"#utility.yul\":1460:1461   */\n      0x00\n        /* \"#utility.yul\":1449:1458   */\n      dup4\n        /* \"#utility.yul\":1445:1462   */\n      add\n        /* \"#utility.yul\":1436:1442   */\n      dup5\n        /* \"#utility.yul\":1392:1463   */\n      tag_66\n      jump\t// in\n    tag_94:\n        /* \"#utility.yul\":1248:1470   */\n      swap3\n      swap2\n      pop\n      pop\n      jump\t// out\n        /* \"#utility.yul\":1476:1553   */\n    tag_67:\n        /* \"#utility.yul\":1513:1520   */\n      0x00\n        /* \"#utility.yul\":1542:1547   */\n      dup2\n        /* \"#utility.yul\":1531:1547   */\n      swap1\n      pop\n        /* \"#utility.yul\":1476:1553   */\n      swap2\n      swap1\n      pop\n      jump\t// out\n        /* \"#utility.yul\":1559:1677   */\n    tag_68:\n        /* \"#utility.yul\":1646:1670   */\n      tag_97\n        /* \"#utility.yul\":1664:1669   */\n      dup2\n        /* \"#utility.yul\":1646:1670   */\n      tag_67\n      jump\t// in\n    tag_97:\n        /* \"#utility.yul\":1641:1644   */\n      dup3\n        /* \"#utility.yul\":1634:1671   */\n      mstore\n        /* \"#utility.yul\":1559:1677   */\n      pop\n      pop\n      jump\t// out\n        /* \"#utility.yul\":1683:1905   */\n    tag_31:\n        /* \"#utility.yul\":1776:1780   */\n      0x00\n        /* \"#utility.yul\":1814:1816   */\n      0x20\n        /* \"#utility.yul\":1803:1812   */\n      dup3\n        /* \"#utility.yul\":1799:1817   */\n      add\n        /* \"#utility.yul\":1791:1817   */\n      swap1\n      pop\n        /* \"#utility.yul\":1827:1898   */\n      tag_99\n        /* \"#utility.yul\":1895:1896   */\n      0x00\n        /* \"#utility.yul\":1884:1893   */\n      dup4\n        /* \"#utility.yul\":1880:1897   */\n      add\n        /* \"#utility.yul\":1871:1877   */\n      dup5\n        /* \"#utility.yul\":1827:1898   */\n      tag_68\n      jump\t// in\n    tag_99:\n        /* \"#utility.yul\":1683:1905   */\n      swap3\n      swap2\n      pop\n      pop\n      jump\t// out\n        /* \"#utility.yul\":1911:1987   */\n    tag_69:\n        /* \"#utility.yul\":1947:1954   */\n      0x00\n        /* \"#utility.yul\":1976:1981   */\n      dup2\n        /* \"#utility.yul\":1965:1981   */\n      swap1\n      pop\n        /* \"#utility.yul\":1911:1987   */\n      swap2\n      swap1\n      pop\n      jump\t// out\n        /* \"#utility.yul\":1993:2108   */\n    tag_70:\n        /* \"#utility.yul\":2078:2101   */\n      tag_102\n        /* \"#utility.yul\":2095:2100   */\n      dup2\n        /* \"#utility.yul\":2078:2101   */\n      tag_69\n      jump\t// in\n    tag_102:\n        /* \"#utility.yul\":2073:2076   */\n      dup3\n        /* \"#utility.yul\":2066:2102   */\n      mstore\n        /* \"#utility.yul\":1993:2108   */\n      pop\n      pop\n      jump\t// out\n        /* \"#utility.yul\":2114:2332   */\n    tag_35:\n        /* \"#utility.yul\":2205:2209   */\n      0x00\n        /* \"#utility.yul\":2243:2245   */\n      0x20\n        /* \"#utility.yul\":2232:2241   */\n      dup3\n        /* \"#utility.yul\":2228:2246   */\n      add\n        /* \"#utility.yul\":2220:2246   */\n      swap1\n      pop\n        /* \"#utility.yul\":2256:2325   */\n      tag_104\n        /* \"#utility.yul\":2322:2323   */\n      0x00\n        /* \"#utility.yul\":2311:2320   */\n      dup4\n        /* \"#utility.yul\":2307:2324   */\n      add\n        /* \"#utility.yul\":2298:2304   */\n      dup5\n        /* \"#utility.yul\":2256:2325   */\n      tag_70\n      jump\t// in\n    tag_104:\n        /* \"#utility.yul\":2114:2332   */\n      swap3\n      swap2\n      pop\n      pop\n      jump\t// out\n        /* \"#utility.yul\":2338:2428   */\n    tag_71:\n        /* \"#utility.yul\":2372:2379   */\n      0x00\n        /* \"#utility.yul\":2415:2420   */\n      dup2\n        /* \"#utility.yul\":2408:2421   */\n      iszero\n        /* \"#utility.yul\":2401:2422   */\n      iszero\n        /* \"#utility.yul\":2390:2422   */\n      swap1\n      pop\n        /* \"#utility.yul\":2338:2428   */\n      swap2\n      swap1\n      pop\n      jump\t// out\n        /* \"#utility.yul\":2434:2543   */\n    tag_72:\n        /* \"#utility.yul\":2515:2536   */\n      tag_107\n        /* \"#utility.yul\":2530:2535   */\n      dup2\n        /* \"#utility.yul\":2515:2536   */\n      tag_71\n      jump\t// in\n    tag_107:\n        /* \"#utility.yul\":2510:2513   */\n      dup3\n        /* \"#utility.yul\":2503:2537   */\n      mstore\n        /* \"#utility.yul\":2434:2543   */\n      pop\n      pop\n      jump\t// out\n        /* \"#utility.yul\":2549:2759   */\n    tag_39:\n        /* \"#utility.yul\":2636:2640   */\n      0x00\n        /* \"#utility.yul\":2674:2676   */\n      0x20\n        /* \"#utility.yul\":2663:2672   */\n      dup3\n        /* \"#utility.yul\":2659:2677   */\n      add\n        /* \"#utility.yul\":2651:2677   */\n      swap1\n      pop\n        /* \"#utility.yul\":2687:2752   */\n      tag_109\n        /* \"#utility.yul\":2749:2750   */\n      0x00\n        /* \"#utility.yul\":2738:2747   */\n      dup4\n        /* \"#utility.yul\":2734:2751   */\n      add\n        /* \"#utility.yul\":2725:2731   */\n      dup5\n        /* \"#utility.yul\":2687:2752   */\n      tag_72\n      jump\t// in\n    tag_109:\n        /* \"#utility.yul\":2549:2759   */\n      swap3\n      swap2\n      pop\n      pop\n      jump\t// out\n        /* \"#utility.yul\":2765:2851   */\n    tag_73:\n        /* \"#utility.yul\":2800:2807   */\n      0x00\n        /* \"#utility.yul\":2840:2844   */\n      0xff\n        /* \"#utility.yul\":2833:2838   */\n      dup3\n        /* \"#utility.yul\":2829:2845   */\n      and\n        /* \"#utility.yul\":2818:2845   */\n      swap1\n      pop\n        /* \"#utility.yul\":2765:2851   */\n      swap2\n      swap1\n      pop\n      jump\t// out\n        /* \"#utility.yul\":2857:2969   */\n    tag_74:\n        /* \"#utility.yul\":2940:2962   */\n      tag_112\n        /* \"#utility.yul\":2956:2961   */\n      dup2\n        /* \"#utility.yul\":2940:2962   */\n      tag_73\n      jump\t// in\n    tag_112:\n        /* \"#utility.yul\":2935:2938   */\n      dup3\n        /* \"#utility.yul\":2928:2963   */\n      mstore\n        /* \"#utility.yul\":2857:2969   */\n      pop\n      pop\n      jump\t// out\n        /* \"#utility.yul\":2975:3189   */\n    tag_49:\n        /* \"#utility.yul\":3064:3068   */\n      0x00\n        /* \"#utility.yul\":3102:3104   */\n      0x20\n        /* \"#utility.yul\":3091:3100   */\n      dup3\n        /* \"#utility.yul\":3087:3105   */\n      add\n        /* \"#utility.yul\":3079:3105   */\n      swap1\n      pop\n        /* \"#utility.yul\":3115:3182   */\n      tag_114\n        /* \"#utility.yul\":3179:3180   */\n      0x00\n        /* \"#utility.yul\":3168:3177   */\n      dup4\n        /* \"#utility.yul\":3164:3181   */\n      add\n        /* \"#utility.yul\":3155:3161   */\n      dup5\n        /* \"#utility.yul\":3115:3182   */\n      tag_74\n      jump\t// in\n    tag_114:\n        /* \"#utility.yul\":2975:3189   */\n      swap3\n      swap2\n      pop\n      pop\n      jump\t// out\n        /* \"#utility.yul\":3195:3272   */\n    tag_75:\n        /* \"#utility.yul\":3232:3239   */\n      0x00\n        /* \"#utility.yul\":3261:3266   */\n      dup2\n        /* \"#utility.yul\":3250:3266   */\n      swap1\n      pop\n        /* \"#utility.yul\":3195:3272   */\n      swap2\n      swap1\n      pop\n      jump\t// out\n        /* \"#utility.yul\":3278:3396   */\n    tag_76:\n        /* \"#utility.yul\":3365:3389   */\n      tag_117\n        /* \"#utility.yul\":3383:3388   */\n      dup2\n        /* \"#utility.yul\":3365:3389   */\n      tag_75\n      jump\t// in\n    tag_117:\n        /* \"#utility.yul\":3360:3363   */\n      dup3\n        /* \"#utility.yul\":3353:3390   */\n      mstore\n        /* \"#utility.yul\":3278:3396   */\n      pop\n      pop\n      jump\t// out\n        /* \"#utility.yul\":3402:3624   */\n    tag_59:\n        /* \"#utility.yul\":3495:3499   */\n      0x00\n        /* \"#utility.yul\":3533:3535   */\n      0x20\n        /* \"#utility.yul\":3522:3531   */\n      dup3\n        /* \"#utility.yul\":3518:3536   */\n      add\n        /* \"#utility.yul\":3510:3536   */\n      swap1\n      pop\n        /* \"#utility.yul\":3546:3617   */\n      tag_119\n        /* \"#utility.yul\":3614:3615   */\n      0x00\n        /* \"#utility.yul\":3603:3612   */\n      dup4\n        /* \"#utility.yul\":3599:3616   */\n      add\n        /* \"#utility.yul\":3590:3596   */\n      dup5\n        /* \"#utility.yul\":3546:3617   */\n      tag_76\n      jump\t// in\n    tag_119:\n        /* \"#utility.yul\":3402:3624   */\n      swap3\n      swap2\n      pop\n      pop\n      jump\t// out\n\n    auxdata: 0xa26469706673582212206426e96ec465009033360c39327819e3b2cc3c83fd6eb1f94ecda0e17fed872464736f6c63430008150033\n}\n",
				"bytecode": {
					"linkReferences": {},
					"object": "608060405260015f806101000a81548160ff021916908315150217905550607b600155610100600255601060035f6101000a81548161ffff021916908361ffff1602179055506080600360026101000a81548160ff021916908360ff160217905550610100600455610100600555601060065f6101000a8154816fffffffffffffffffffffffffffffffff0219169083600f0b6fffffffffffffffffffffffffffffffff1602179055507f80000000000000000000000000000000000000000000000000000000000000006007557f7fffffffffffffffffffffffffffffffffffffffffffffffffffffffffffffff60085573c8bd59d60961bedb12c95079250d3075b9328a2d60095f6101000a81548173ffffffffffffffffffffffffffffffffffffffff021916908373ffffffffffffffffffffffffffffffffffffffff1602179055507f01234567890123456789012345678901234567890123456789012345678901235f1b600a55348015610176575f80fd5b506104a6806101845f395ff3fe608060405234801561000f575f80fd5b50600436106100b2575f3560e01c80637a4c25711161006f5780637a4c25711461016a5780637e4e14cc14610188578063ab3a58a3146101a6578063c6a898c5146101c4578063e5aa3d58146101e2578063f8aab23814610200576100b2565b80630a6b4e06146100b65780630cba40c8146100d457806326b85ee1146100f2578063459b1acf146101105780634c27fd621461012e5780634df7e3d01461014c575b5f80fd5b6100be61021e565b6040516100cb91906102d1565b60405180910390f35b6100dc610231565b6040516100e99190610305565b60405180910390f35b6100fa610243565b604051610107919061035d565b60405180910390f35b610118610268565b604051610125919061038e565b60405180910390f35b61013661026e565b60405161014391906103bf565b60405180910390f35b610154610274565b60405161016191906103f2565b60405180910390f35b610172610284565b60405161017f91906103bf565b60405180910390f35b61019061028a565b60405161019d91906103bf565b60405180910390f35b6101ae610290565b6040516101bb9190610426565b60405180910390f35b6101cc6102a3565b6040516101d9919061038e565b60405180910390f35b6101ea6102a9565b6040516101f791906103bf565b60405180910390f35b6102086102af565b6040516102159190610457565b60405180910390f35b60035f9054906101000a900461ffff1681565b60065f9054906101000a9004600f0b81565b60095f9054906101000a900473ffffffffffffffffffffffffffffffffffffffff1681565b60025481565b60055481565b5f8054906101000a900460ff1681565b60085481565b60075481565b600360029054906101000a900460ff1681565b60015481565b60045481565b600a5481565b5f61ffff82169050919050565b6102cb816102b5565b82525050565b5f6020820190506102e45f8301846102c2565b92915050565b5f81600f0b9050919050565b6102ff816102ea565b82525050565b5f6020820190506103185f8301846102f6565b92915050565b5f73ffffffffffffffffffffffffffffffffffffffff82169050919050565b5f6103478261031e565b9050919050565b6103578161033d565b82525050565b5f6020820190506103705f83018461034e565b92915050565b5f819050919050565b61038881610376565b82525050565b5f6020820190506103a15f83018461037f565b92915050565b5f819050919050565b6103b9816103a7565b82525050565b5f6020820190506103d25f8301846103b0565b92915050565b5f8115159050919050565b6103ec816103d8565b82525050565b5f6020820190506104055f8301846103e3565b92915050565b5f60ff82169050919050565b6104208161040b565b82525050565b5f6020820190506104395f830184610417565b92915050565b5f819050919050565b6104518161043f565b82525050565b5f60208201905061046a5f830184610448565b9291505056fea26469706673582212206426e96ec465009033360c39327819e3b2cc3c83fd6eb1f94ecda0e17fed872464736f6c63430008150033",
					"opcodes": "PUSH1 0x80 PUSH1 0x40 MSTORE PUSH1 0x1 PUSH0 DUP1 PUSH2 0x100 EXP DUP2 SLOAD DUP2 PUSH1 0xFF MUL NOT AND SWAP1 DUP4 ISZERO ISZERO MUL OR SWAP1 SSTORE POP PUSH1 0x7B PUSH1 0x1 SSTORE PUSH2 0x100 PUSH1 0x2 SSTORE PUSH1 0x10 PUSH1 0x3 PUSH0 PUSH2 0x100 EXP DUP2 SLOAD DUP2 PUSH2 0xFFFF MUL NOT AND SWAP1 DUP4 PUSH2 0xFFFF AND MUL OR SWAP1 SSTORE POP PUSH1 0x80 PUSH1 0x3 PUSH1 0x2 PUSH2 0x100 EXP DUP2 SLOAD DUP2 PUSH1 0xFF MUL NOT AND SWAP1 DUP4 PUSH1 0xFF AND MUL OR SWAP1 SSTORE POP PUSH2 0x100 PUSH1 0x4 SSTORE PUSH2 0x100 PUSH1 0x5 SSTORE PUSH1 0x10 PUSH1 0x6 PUSH0 PUSH2 0x100 EXP DUP2 SLOAD DUP2 PUSH16 0xFFFFFFFFFFFFFFFFFFFFFFFFFFFFFFFF MUL NOT AND SWAP1 DUP4 PUSH1 0xF SIGNEXTEND PUSH16 0xFFFFFFFFFFFFFFFFFFFFFFFFFFFFFFFF AND MUL OR SWAP1 SSTORE POP PUSH32 0x8000000000000000000000000000000000000000000000000000000000000000 PUSH1 0x7 SSTORE PUSH32 0x7FFFFFFFFFFFFFFFFFFFFFFFFFFFFFFFFFFFFFFFFFFFFFFFFFFFFFFFFFFFFFFF PUSH1 0x8 SSTORE PUSH20 0xC8BD59D60961BEDB12C95079250D3075B9328A2D PUSH1 0x9 PUSH0 PUSH2 0x100 EXP DUP2 SLOAD DUP2 PUSH20 0xFFFFFFFFFFFFFFFFFFFFFFFFFFFFFFFFFFFFFFFF MUL NOT AND SWAP1 DUP4 PUSH20 0xFFFFFFFFFFFFFFFFFFFFFFFFFFFFFFFFFFFFFFFF AND MUL OR SWAP1 SSTORE POP PUSH32 0x123456789012345678901234567890123456789012345678901234567890123 PUSH0 SHL PUSH1 0xA SSTORE CALLVALUE DUP1 ISZERO PUSH2 0x176 JUMPI PUSH0 DUP1 REVERT JUMPDEST POP PUSH2 0x4A6 DUP1 PUSH2 0x184 PUSH0 CODECOPY PUSH0 RETURN INVALID PUSH1 0x80 PUSH1 0x40 MSTORE CALLVALUE DUP1 ISZERO PUSH2 0xF JUMPI PUSH0 DUP1 REVERT JUMPDEST POP PUSH1 0x4 CALLDATASIZE LT PUSH2 0xB2 JUMPI PUSH0 CALLDATALOAD PUSH1 0xE0 SHR DUP1 PUSH4 0x7A4C2571 GT PUSH2 0x6F JUMPI DUP1 PUSH4 0x7A4C2571 EQ PUSH2 0x16A JUMPI DUP1 PUSH4 0x7E4E14CC EQ PUSH2 0x188 JUMPI DUP1 PUSH4 0xAB3A58A3 EQ PUSH2 0x1A6 JUMPI DUP1 PUSH4 0xC6A898C5 EQ PUSH2 0x1C4 JUMPI DUP1 PUSH4 0xE5AA3D58 EQ PUSH2 0x1E2 JUMPI DUP1 PUSH4 0xF8AAB238 EQ PUSH2 0x200 JUMPI PUSH2 0xB2 JUMP JUMPDEST DUP1 PUSH4 0xA6B4E06 EQ PUSH2 0xB6 JUMPI DUP1 PUSH4 0xCBA40C8 EQ PUSH2 0xD4 JUMPI DUP1 PUSH4 0x26B85EE1 EQ PUSH2 0xF2 JUMPI DUP1 PUSH4 0x459B1ACF EQ PUSH2 0x110 JUMPI DUP1 PUSH4 0x4C27FD62 EQ PUSH2 0x12E JUMPI DUP1 PUSH4 0x4DF7E3D0 EQ PUSH2 0x14C JUMPI JUMPDEST PUSH0 DUP1 REVERT JUMPDEST PUSH2 0xBE PUSH2 0x21E JUMP JUMPDEST PUSH1 0x40 MLOAD PUSH2 0xCB SWAP2 SWAP1 PUSH2 0x2D1 JUMP JUMPDEST PUSH1 0x40 MLOAD DUP1 SWAP2 SUB SWAP1 RETURN JUMPDEST PUSH2 0xDC PUSH2 0x231 JUMP JUMPDEST PUSH1 0x40 MLOAD PUSH2 0xE9 SWAP2 SWAP1 PUSH2 0x305 JUMP JUMPDEST PUSH1 0x40 MLOAD DUP1 SWAP2 SUB SWAP1 RETURN JUMPDEST PUSH2 0xFA PUSH2 0x243 JUMP JUMPDEST PUSH1 0x40 MLOAD PUSH2 0x107 SWAP2 SWAP1 PUSH2 0x35D JUMP JUMPDEST PUSH1 0x40 MLOAD DUP1 SWAP2 SUB SWAP1 RETURN JUMPDEST PUSH2 0x118 PUSH2 0x268 JUMP JUMPDEST PUSH1 0x40 MLOAD PUSH2 0x125 SWAP2 SWAP1 PUSH2 0x38E JUMP JUMPDEST PUSH1 0x40 MLOAD DUP1 SWAP2 SUB SWAP1 RETURN JUMPDEST PUSH2 0x136 PUSH2 0x26E JUMP JUMPDEST PUSH1 0x40 MLOAD PUSH2 0x143 SWAP2 SWAP1 PUSH2 0x3BF JUMP JUMPDEST PUSH1 0x40 MLOAD DUP1 SWAP2 SUB SWAP1 RETURN JUMPDEST PUSH2 0x154 PUSH2 0x274 JUMP JUMPDEST PUSH1 0x40 MLOAD PUSH2 0x161 SWAP2 SWAP1 PUSH2 0x3F2 JUMP JUMPDEST PUSH1 0x40 MLOAD DUP1 SWAP2 SUB SWAP1 RETURN JUMPDEST PUSH2 0x172 PUSH2 0x284 JUMP JUMPDEST PUSH1 0x40 MLOAD PUSH2 0x17F SWAP2 SWAP1 PUSH2 0x3BF JUMP JUMPDEST PUSH1 0x40 MLOAD DUP1 SWAP2 SUB SWAP1 RETURN JUMPDEST PUSH2 0x190 PUSH2 0x28A JUMP JUMPDEST PUSH1 0x40 MLOAD PUSH2 0x19D SWAP2 SWAP1 PUSH2 0x3BF JUMP JUMPDEST PUSH1 0x40 MLOAD DUP1 SWAP2 SUB SWAP1 RETURN JUMPDEST PUSH2 0x1AE PUSH2 0x290 JUMP JUMPDEST PUSH1 0x40 MLOAD PUSH2 0x1BB SWAP2 SWAP1 PUSH2 0x426 JUMP JUMPDEST PUSH1 0x40 MLOAD DUP1 SWAP2 SUB SWAP1 RETURN JUMPDEST PUSH2 0x1CC PUSH2 0x2A3 JUMP JUMPDEST PUSH1 0x40 MLOAD PUSH2 0x1D9 SWAP2 SWAP1 PUSH2 0x38E JUMP JUMPDEST PUSH1 0x40 MLOAD DUP1 SWAP2 SUB SWAP1 RETURN JUMPDEST PUSH2 0x1EA PUSH2 0x2A9 JUMP JUMPDEST PUSH1 0x40 MLOAD PUSH2 0x1F7 SWAP2 SWAP1 PUSH2 0x3BF JUMP JUMPDEST PUSH1 0x40 MLOAD DUP1 SWAP2 SUB SWAP1 RETURN JUMPDEST PUSH2 0x208 PUSH2 0x2AF JUMP JUMPDEST PUSH1 0x40 MLOAD PUSH2 0x215 SWAP2 SWAP1 PUSH2 0x457 JUMP JUMPDEST PUSH1 0x40 MLOAD DUP1 SWAP2 SUB SWAP1 RETURN JUMPDEST PUSH1 0x3 PUSH0 SWAP1 SLOAD SWAP1 PUSH2 0x100 EXP SWAP1 DIV PUSH2 0xFFFF AND DUP2 JUMP JUMPDEST PUSH1 0x6 PUSH0 SWAP1 SLOAD SWAP1 PUSH2 0x100 EXP SWAP1 DIV PUSH1 0xF SIGNEXTEND DUP2 JUMP JUMPDEST PUSH1 0x9 PUSH0 SWAP1 SLOAD SWAP1 PUSH2 0x100 EXP SWAP1 DIV PUSH20 0xFFFFFFFFFFFFFFFFFFFFFFFFFFFFFFFFFFFFFFFF AND DUP2 JUMP JUMPDEST PUSH1 0x2 SLOAD DUP2 JUMP JUMPDEST PUSH1 0x5 SLOAD DUP2 JUMP JUMPDEST PUSH0 DUP1 SLOAD SWAP1 PUSH2 0x100 EXP SWAP1 DIV PUSH1 0xFF AND DUP2 JUMP JUMPDEST PUSH1 0x8 SLOAD DUP2 JUMP JUMPDEST PUSH1 0x7 SLOAD DUP2 JUMP JUMPDEST PUSH1 0x3 PUSH1 0x2 SWAP1 SLOAD SWAP1 PUSH2 0x100 EXP SWAP1 DIV PUSH1 0xFF AND DUP2 JUMP JUMPDEST PUSH1 0x1 SLOAD DUP2 JUMP JUMPDEST PUSH1 0x4 SLOAD DUP2 JUMP JUMPDEST PUSH1 0xA SLOAD DUP2 JUMP JUMPDEST PUSH0 PUSH2 0xFFFF DUP3 AND SWAP1 POP SWAP2 SWAP1 POP JUMP JUMPDEST PUSH2 0x2CB DUP2 PUSH2 0x2B5 JUMP JUMPDEST DUP3 MSTORE POP POP JUMP JUMPDEST PUSH0 PUSH1 0x20 DUP3 ADD SWAP1 POP PUSH2 0x2E4 PUSH0 DUP4 ADD DUP5 PUSH2 0x2C2 JUMP JUMPDEST SWAP3 SWAP2 POP POP JUMP JUMPDEST PUSH0 DUP2 PUSH1 0xF SIGNEXTEND SWAP1 POP SWAP2 SWAP1 POP JUMP JUMPDEST PUSH2 0x2FF DUP2 PUSH2 0x2EA JUMP JUMPDEST DUP3 MSTORE POP POP JUMP JUMPDEST PUSH0 PUSH1 0x20 DUP3 ADD SWAP1 POP PUSH2 0x318 PUSH0 DUP4 ADD DUP5 PUSH2 0x2F6 JUMP JUMPDEST SWAP3 SWAP2 POP POP JUMP JUMPDEST PUSH0 PUSH20 0xFFFFFFFFFFFFFFFFFFFFFFFFFFFFFFFFFFFFFFFF DUP3 AND SWAP1 POP SWAP2 SWAP1 POP JUMP JUMPDEST PUSH0 PUSH2 0x347 DUP3 PUSH2 0x31E JUMP JUMPDEST SWAP1 POP SWAP2 SWAP1 POP JUMP JUMPDEST PUSH2 0x357 DUP2 PUSH2 0x33D JUMP JUMPDEST DUP3 MSTORE POP POP JUMP JUMPDEST PUSH0 PUSH1 0x20 DUP3 ADD SWAP1 POP PUSH2 0x370 PUSH0 DUP4 ADD DUP5 PUSH2 0x34E JUMP JUMPDEST SWAP3 SWAP2 POP POP JUMP JUMPDEST PUSH0 DUP2 SWAP1 POP SWAP2 SWAP1 POP JUMP JUMPDEST PUSH2 0x388 DUP2 PUSH2 0x376 JUMP JUMPDEST DUP3 MSTORE POP POP JUMP JUMPDEST PUSH0 PUSH1 0x20 DUP3 ADD SWAP1 POP PUSH2 0x3A1 PUSH0 DUP4 ADD DUP5 PUSH2 0x37F JUMP JUMPDEST SWAP3 SWAP2 POP POP JUMP JUMPDEST PUSH0 DUP2 SWAP1 POP SWAP2 SWAP1 POP JUMP JUMPDEST PUSH2 0x3B9 DUP2 PUSH2 0x3A7 JUMP JUMPDEST DUP3 MSTORE POP POP JUMP JUMPDEST PUSH0 PUSH1 0x20 DUP3 ADD SWAP1 POP PUSH2 0x3D2 PUSH0 DUP4 ADD DUP5 PUSH2 0x3B0 JUMP JUMPDEST SWAP3 SWAP2 POP POP JUMP JUMPDEST PUSH0 DUP2 ISZERO ISZERO SWAP1 POP SWAP2 SWAP1 POP JUMP JUMPDEST PUSH2 0x3EC DUP2 PUSH2 0x3D8 JUMP JUMPDEST DUP3 MSTORE POP POP JUMP JUMPDEST PUSH0 PUSH1 0x20 DUP3 ADD SWAP1 POP PUSH2 0x405 PUSH0 DUP4 ADD DUP5 PUSH2 0x3E3 JUMP JUMPDEST SWAP3 SWAP2 POP POP JUMP JUMPDEST PUSH0 PUSH1 0xFF DUP3 AND SWAP1 POP SWAP2 SWAP1 POP JUMP JUMPDEST PUSH2 0x420 DUP2 PUSH2 0x40B JUMP JUMPDEST DUP3 MSTORE POP POP JUMP JUMPDEST PUSH0 PUSH1 0x20 DUP3 ADD SWAP1 POP PUSH2 0x439 PUSH0 DUP4 ADD DUP5 PUSH2 0x417 JUMP JUMPDEST SWAP3 SWAP2 POP POP JUMP JUMPDEST PUSH0 DUP2 SWAP1 POP SWAP2 SWAP1 POP JUMP JUMPDEST PUSH2 0x451 DUP2 PUSH2 0x43F JUMP JUMPDEST DUP3 MSTORE POP POP JUMP JUMPDEST PUSH0 PUSH1 0x20 DUP3 ADD SWAP1 POP PUSH2 0x46A PUSH0 DUP4 ADD DUP5 PUSH2 0x448 JUMP JUMPDEST SWAP3 SWAP2 POP POP JUMP INVALID LOG2 PUSH5 0x6970667358 0x22 SLT KECCAK256 PUSH5 0x26E96EC465 STOP SWAP1 CALLER CALLDATASIZE 0xC CODECOPY ORIGIN PUSH25 0x19E3B2CC3C83FD6EB1F94ECDA0E17FED872464736F6C634300 ADDMOD ISZERO STOP CALLER "
				},
				"gasEstimates": {
					"creation": {
						"codeDepositCost": "238000",
						"executionCost": "276415",
						"totalCost": "514415"
					},
					"external": {
						"b()": "2574",
						"b32()": "2535",
						"i()": "2513",
						"i128()": "2493",
						"i256()": "2514",
						"maxInt()": "2425",
						"minInt()": "2447",
						"myAddress()": "2553",
						"u()": "2491",
						"u16()": "2467",
						"u256()": "2492",
						"u8()": "2561"
					}
				},
				"methodIdentifiers": {
					"b()": "4df7e3d0",
					"b32()": "f8aab238",
					"i()": "e5aa3d58",
					"i128()": "0cba40c8",
					"i256()": "4c27fd62",
					"maxInt()": "7a4c2571",
					"minInt()": "7e4e14cc",
					"myAddress()": "26b85ee1",
					"u()": "c6a898c5",
					"u16()": "0a6b4e06",
					"u256()": "459b1acf",
					"u8()": "ab3a58a3"
				}
			},
			"storageLayout": {
				"storage": [
					{
						"astId": 4,
						"contract": "week2/ValueTypes.sol:ValueTypes",
						"label": "b",
						"offset": 0,
						"slot": "0",
						"type": "t_bool"
					},
					{
						"astId": 7,
						"contract": "week2/ValueTypes.sol:ValueTypes",
						"label": "u",
						"offset": 0,
						"slot": "1",
						"type": "t_uint256"
					},
					{
						"astId": 10,
						"contract": "week2/ValueTypes.sol:ValueTypes",
						"label": "u256",
						"offset": 0,
						"slot": "2",
						"type": "t_uint256"
					},
					{
						"astId": 13,
						"contract": "week2/ValueTypes.sol:ValueTypes",
						"label": "u16",
						"offset": 0,
						"slot": "3",
						"type": "t_uint16"
					},
					{
						"astId": 16,
						"contract": "week2/ValueTypes.sol:ValueTypes",
						"label": "u8",
						"offset": 2,
						"slot": "3",
						"type": "t_uint8"
					},
					{
						"astId": 19,
						"contract": "week2/ValueTypes.sol:ValueTypes",
						"label": "i",
						"offset": 0,
						"slot": "4",
						"type": "t_int256"
					},
					{
						"astId": 22,
						"contract": "week2/ValueTypes.sol:ValueTypes",
						"label": "i256",
						"offset": 0,
						"slot": "5",
						"type": "t_int256"
					},
					{
						"astId": 25,
						"contract": "week2/ValueTypes.sol:ValueTypes",
						"label": "i128",
						"offset": 0,
						"slot": "6",
						"type": "t_int128"
					},
					{
						"astId": 32,
						"contract": "week2/ValueTypes.sol:ValueTypes",
						"label": "minInt",
						"offset": 0,
						"slot": "7",
						"type": "t_int256"
					},
					{
						"astId": 39,
						"contract": "week2/ValueTypes.sol:ValueTypes",
						"label": "maxInt",
						"offset": 0,
						"slot": "8",
						"type": "t_int256"
					},
					{
						"astId": 42,
						"contract": "week2/ValueTypes.sol:ValueTypes",
						"label": "myAddress",
						"offset": 0,
						"slot": "9",
						"type": "t_address"
					},
					{
						"astId": 45,
						"contract": "week2/ValueTypes.sol:ValueTypes",
						"label": "b32",
						"offset": 0,
						"slot": "10",
						"type": "t_bytes32"
					}
				],
				"types": {
					"t_address": {
						"encoding": "inplace",
						"label": "address",
						"numberOfBytes": "20"
					},
					"t_bool": {
						"encoding": "inplace",
						"label": "bool",
						"numberOfBytes": "1"
					},
					"t_bytes32": {
						"encoding": "inplace",
						"label": "bytes32",
						"numberOfBytes": "32"
					},
					"t_int128": {
						"encoding": "inplace",
						"label": "int128",
						"numberOfBytes": "16"
					},
					"t_int256": {
						"encoding": "inplace",
						"label": "int256",
						"numberOfBytes": "32"
					},
					"t_uint16": {
						"encoding": "inplace",
						"label": "uint16",
						"numberOfBytes": "2"
					},
					"t_uint256": {
						"encoding": "inplace",
						"label": "uint256",
						"numberOfBytes": "32"
					},
					"t_uint8": {
						"encoding": "inplace",
						"label": "uint8",
						"numberOfBytes": "1"
					}
				}
			},
			"userdoc": {
				"kind": "user",
				"methods": {},
				"version": 1
			}
		}
	}
}